{
  "_format": "hh-sol-artifact-1",
  "contractName": "LOAS",
  "sourceName": "contracts/token/LOAS.sol",
  "abi": [
    {
      "inputs": [],
      "stateMutability": "nonpayable",
      "type": "constructor"
    },
    {
      "inputs": [],
      "name": "AlreadyClaimer",
      "type": "error"
    },
    {
      "inputs": [],
      "name": "InvalidClaimPeriod",
      "type": "error"
    },
    {
      "inputs": [],
      "name": "InvalidDestination",
      "type": "error"
    },
    {
      "inputs": [],
      "name": "InvalidMinter",
      "type": "error"
    },
    {
      "inputs": [],
      "name": "NoAmount",
      "type": "error"
    },
    {
      "inputs": [],
      "name": "OverAmount",
      "type": "error"
    },
    {
      "inputs": [],
      "name": "TransferFailed",
      "type": "error"
    },
    {
      "inputs": [],
      "name": "UnauthorizedTransfer",
      "type": "error"
    },
    {
      "anonymous": false,
      "inputs": [
        {
          "indexed": true,
          "internalType": "address",
          "name": "original",
          "type": "address"
        },
        {
          "indexed": true,
          "internalType": "address",
          "name": "transferable",
          "type": "address"
        }
      ],
      "name": "Allow",
      "type": "event"
    },
    {
      "anonymous": false,
      "inputs": [
        {
          "indexed": true,
          "internalType": "address",
          "name": "owner",
          "type": "address"
        },
        {
          "indexed": true,
          "internalType": "address",
          "name": "spender",
          "type": "address"
        },
        {
          "indexed": false,
          "internalType": "uint256",
          "name": "value",
          "type": "uint256"
        }
      ],
      "name": "Approval",
      "type": "event"
    },
    {
      "anonymous": false,
      "inputs": [
        {
          "indexed": true,
          "internalType": "address",
          "name": "holder",
          "type": "address"
        },
        {
          "indexed": false,
          "internalType": "uint256",
          "name": "amount",
          "type": "uint256"
        }
      ],
      "name": "Claim",
      "type": "event"
    },
    {
      "anonymous": false,
      "inputs": [
        {
          "indexed": true,
          "internalType": "address",
          "name": "to",
          "type": "address"
        },
        {
          "indexed": false,
          "internalType": "uint256",
          "name": "amount",
          "type": "uint256"
        },
        {
          "indexed": false,
          "internalType": "uint256",
          "name": "since",
          "type": "uint256"
        },
        {
          "indexed": false,
          "internalType": "uint256",
          "name": "until",
          "type": "uint256"
        }
      ],
      "name": "Mint",
      "type": "event"
    },
    {
      "anonymous": false,
      "inputs": [
        {
          "indexed": true,
          "internalType": "address",
          "name": "holder",
          "type": "address"
        },
        {
          "indexed": false,
          "internalType": "uint256",
          "name": "amount",
          "type": "uint256"
        }
      ],
      "name": "Renounce",
      "type": "event"
    },
    {
      "anonymous": false,
      "inputs": [
        {
          "indexed": true,
          "internalType": "address",
          "name": "from",
          "type": "address"
        },
        {
          "indexed": true,
          "internalType": "address",
          "name": "to",
          "type": "address"
        },
        {
          "indexed": false,
          "internalType": "uint256",
          "name": "value",
          "type": "uint256"
        }
      ],
      "name": "Transfer",
      "type": "event"
    },
    {
      "inputs": [
        {
          "internalType": "address",
          "name": "original",
          "type": "address"
        },
        {
          "internalType": "address[]",
          "name": "alloweds",
          "type": "address[]"
        }
      ],
      "name": "allow",
      "outputs": [],
      "stateMutability": "nonpayable",
      "type": "function"
    },
    {
      "inputs": [
        {
          "internalType": "address",
          "name": "original",
          "type": "address"
        },
        {
          "internalType": "address",
          "name": "allowed",
          "type": "address"
        }
      ],
      "name": "allow",
      "outputs": [],
      "stateMutability": "nonpayable",
      "type": "function"
    },
    {
      "inputs": [
        {
          "internalType": "address",
          "name": "owner",
          "type": "address"
        },
        {
          "internalType": "address",
          "name": "spender",
          "type": "address"
        }
      ],
      "name": "allowance",
      "outputs": [
        {
          "internalType": "uint256",
          "name": "",
          "type": "uint256"
        }
      ],
      "stateMutability": "view",
      "type": "function"
    },
    {
      "inputs": [
        {
          "internalType": "address",
          "name": "spender",
          "type": "address"
        },
        {
          "internalType": "uint256",
          "name": "amount",
          "type": "uint256"
        }
      ],
      "name": "approve",
      "outputs": [
        {
          "internalType": "bool",
          "name": "",
          "type": "bool"
        }
      ],
      "stateMutability": "nonpayable",
      "type": "function"
    },
    {
      "inputs": [
        {
          "internalType": "address",
          "name": "account",
          "type": "address"
        }
      ],
      "name": "balanceOf",
      "outputs": [
        {
          "internalType": "uint256",
          "name": "",
          "type": "uint256"
        }
      ],
      "stateMutability": "view",
      "type": "function"
    },
    {
      "inputs": [
        {
          "internalType": "uint256",
          "name": "amount",
          "type": "uint256"
        }
      ],
      "name": "claim",
      "outputs": [],
      "stateMutability": "nonpayable",
      "type": "function"
    },
    {
      "inputs": [
        {
          "internalType": "address",
          "name": "",
          "type": "address"
        }
      ],
      "name": "claimInfo",
      "outputs": [
        {
          "internalType": "uint256",
          "name": "amount",
          "type": "uint256"
        },
        {
          "internalType": "uint256",
          "name": "claimed",
          "type": "uint256"
        },
        {
          "internalType": "uint64",
          "name": "since",
          "type": "uint64"
        },
        {
          "internalType": "uint64",
          "name": "until",
          "type": "uint64"
        },
        {
          "internalType": "address",
          "name": "from",
          "type": "address"
        }
      ],
      "stateMutability": "view",
      "type": "function"
    },
    {
      "inputs": [],
      "name": "decimals",
      "outputs": [
        {
          "internalType": "uint8",
          "name": "",
          "type": "uint8"
        }
      ],
      "stateMutability": "view",
      "type": "function"
    },
    {
      "inputs": [
        {
          "internalType": "address",
          "name": "spender",
          "type": "address"
        },
        {
          "internalType": "uint256",
          "name": "subtractedValue",
          "type": "uint256"
        }
      ],
      "name": "decreaseAllowance",
      "outputs": [
        {
          "internalType": "bool",
          "name": "",
          "type": "bool"
        }
      ],
      "stateMutability": "nonpayable",
      "type": "function"
    },
    {
      "inputs": [
        {
          "internalType": "address",
          "name": "original",
          "type": "address"
        }
      ],
      "name": "getClaimableOAS",
      "outputs": [
        {
          "internalType": "uint256",
          "name": "",
          "type": "uint256"
        }
      ],
      "stateMutability": "view",
      "type": "function"
    },
    {
      "inputs": [
        {
          "internalType": "address",
          "name": "spender",
          "type": "address"
        },
        {
          "internalType": "uint256",
          "name": "addedValue",
          "type": "uint256"
        }
      ],
      "name": "increaseAllowance",
      "outputs": [
        {
          "internalType": "bool",
          "name": "",
          "type": "bool"
        }
      ],
      "stateMutability": "nonpayable",
      "type": "function"
    },
    {
      "inputs": [
        {
          "internalType": "address",
          "name": "to",
          "type": "address"
        },
        {
          "internalType": "uint64",
          "name": "since",
          "type": "uint64"
        },
        {
          "internalType": "uint64",
          "name": "until",
          "type": "uint64"
        }
      ],
      "name": "mint",
      "outputs": [],
      "stateMutability": "payable",
      "type": "function"
    },
    {
      "inputs": [],
      "name": "name",
      "outputs": [
        {
          "internalType": "string",
          "name": "",
          "type": "string"
        }
      ],
      "stateMutability": "view",
      "type": "function"
    },
    {
      "inputs": [
        {
          "internalType": "address",
          "name": "",
          "type": "address"
        }
      ],
      "name": "originalClaimer",
      "outputs": [
        {
          "internalType": "address",
          "name": "",
          "type": "address"
        }
      ],
      "stateMutability": "view",
      "type": "function"
    },
    {
      "inputs": [
        {
          "internalType": "uint256",
          "name": "amount",
          "type": "uint256"
        }
      ],
      "name": "renounce",
      "outputs": [],
      "stateMutability": "nonpayable",
      "type": "function"
    },
    {
      "inputs": [],
      "name": "symbol",
      "outputs": [
        {
          "internalType": "string",
          "name": "",
          "type": "string"
        }
      ],
      "stateMutability": "view",
      "type": "function"
    },
    {
      "inputs": [],
      "name": "totalSupply",
      "outputs": [
        {
          "internalType": "uint256",
          "name": "",
          "type": "uint256"
        }
      ],
      "stateMutability": "view",
      "type": "function"
    },
    {
      "inputs": [
        {
          "internalType": "address",
          "name": "to",
          "type": "address"
        },
        {
          "internalType": "uint256",
          "name": "amount",
          "type": "uint256"
        }
      ],
      "name": "transfer",
      "outputs": [
        {
          "internalType": "bool",
          "name": "",
          "type": "bool"
        }
      ],
      "stateMutability": "nonpayable",
      "type": "function"
    },
    {
      "inputs": [
        {
          "internalType": "address[]",
          "name": "tos",
          "type": "address[]"
        },
        {
          "internalType": "uint256[]",
          "name": "amounts",
          "type": "uint256[]"
        }
      ],
      "name": "transfer",
      "outputs": [
        {
          "internalType": "bool",
          "name": "",
          "type": "bool"
        }
      ],
      "stateMutability": "nonpayable",
      "type": "function"
    },
    {
      "inputs": [
        {
          "internalType": "address",
          "name": "from",
          "type": "address"
        },
        {
          "internalType": "address",
          "name": "to",
          "type": "address"
        },
        {
          "internalType": "uint256",
          "name": "amount",
          "type": "uint256"
        }
      ],
      "name": "transferFrom",
      "outputs": [
        {
          "internalType": "bool",
          "name": "",
          "type": "bool"
        }
      ],
      "stateMutability": "nonpayable",
      "type": "function"
    },
    {
      "inputs": [
        {
          "internalType": "address[]",
          "name": "froms",
          "type": "address[]"
        },
        {
          "internalType": "address[]",
          "name": "tos",
          "type": "address[]"
        },
        {
          "internalType": "uint256[]",
          "name": "amounts",
          "type": "uint256[]"
        }
      ],
      "name": "transferFrom",
      "outputs": [
        {
          "internalType": "bool",
          "name": "",
          "type": "bool"
        }
      ],
      "stateMutability": "nonpayable",
      "type": "function"
    }
  ],
  "bytecode": "0x60806040523480156200001157600080fd5b50604080518082018252600a8152694c6f636b6564204f415360b01b6020808301918252835180850190945260048452634c4f415360e01b90840152815191929162000060916003916200007f565b508051620000769060049060208401906200007f565b50505062000162565b8280546200008d9062000125565b90600052602060002090601f016020900481019282620000b15760008555620000fc565b82601f10620000cc57805160ff1916838001178555620000fc565b82800160010185558215620000fc579182015b82811115620000fc578251825591602001919060010190620000df565b506200010a9291506200010e565b5090565b5b808211156200010a57600081556001016200010f565b600181811c908216806200013a57607f821691505b602082108114156200015c57634e487b7160e01b600052602260045260246000fd5b50919050565b611aa480620001726000396000f3fe60806040526004361061012a5760003560e01c806370a08231116100ab578063a457c2d71161006f578063a457c2d714610353578063a9059cbb14610373578063d97830b114610393578063dd62ed3e14610430578063f94a138b14610476578063ffc3a7691461049657600080fd5b806370a082311461027a578063775ad527146102b05780637de6b1db146102d057806392de7482146102f057806395d89b411461033e57600080fd5b8063313ce567116100f2578063313ce567146101eb578063379607f5146102075780633950935114610227578063546cec3e146102475780636dec93f11461025a57600080fd5b806306fdde031461012f578063095ea7b31461015a57806318160ddd1461018a57806323b872dd146101a95780632e87d48c146101c9575b600080fd5b34801561013b57600080fd5b506101446104b6565b6040516101519190611559565b60405180910390f35b34801561016657600080fd5b5061017a6101753660046115ca565b610548565b6040519015158152602001610151565b34801561019657600080fd5b506002545b604051908152602001610151565b3480156101b557600080fd5b5061017a6101c43660046115f4565b610560565b3480156101d557600080fd5b506101e96101e436600461170b565b610584565b005b3480156101f757600080fd5b5060405160128152602001610151565b34801561021357600080fd5b506101e9610222366004611758565b610607565b34801561023357600080fd5b5061017a6102423660046115ca565b610773565b6101e9610255366004611788565b6107b2565b34801561026657600080fd5b5061019b6102753660046117cb565b61099a565b34801561028657600080fd5b5061019b6102953660046117cb565b6001600160a01b031660009081526020819052604090205490565b3480156102bc57600080fd5b506101e96102cb3660046117e6565b610a98565b3480156102dc57600080fd5b506101e96102eb366004611758565b610ae3565b3480156102fc57600080fd5b5061032661030b3660046117cb565b6006602052600090815260409020546001600160a01b031681565b6040516001600160a01b039091168152602001610151565b34801561034a57600080fd5b50610144610c24565b34801561035f57600080fd5b5061017a61036e3660046115ca565b610c33565b34801561037f57600080fd5b5061017a61038e3660046115ca565b610cca565b34801561039f57600080fd5b506103f36103ae3660046117cb565b6005602052600090815260409020805460018201546002830154600390930154919290916001600160401b0380831692600160401b900416906001600160a01b031685565b6040805195865260208601949094526001600160401b03928316938501939093521660608301526001600160a01b0316608082015260a001610151565b34801561043c57600080fd5b5061019b61044b3660046117e6565b6001600160a01b03918216600090815260016020908152604080832093909416825291909152205490565b34801561048257600080fd5b5061017a610491366004611874565b610cd8565b3480156104a257600080fd5b5061017a6104b13660046118fb565b610dc1565b6060600380546104c590611954565b80601f01602080910402602001604051908101604052809291908181526020018280546104f190611954565b801561053e5780601f106105135761010080835404028352916020019161053e565b820191906000526020600020905b81548152906001019060200180831161052157829003601f168201915b5050505050905090565b600033610556818585610e80565b5060019392505050565b60003361056e858285610fa4565b610579858585611036565b506001949350505050565b6001600160a01b038281166000908152600560205260409020600301541633146105c15760405163d8d5894f60e01b815260040160405180910390fd5b60005b8151811015610602576105f0838383815181106105e3576105e361198f565b602002602001015161120f565b806105fa816119bb565b9150506105c4565b505050565b8061062557604051637bc90c0560e11b815260040160405180910390fd5b336000818152600660208181526040808420546001600160a01b0316808552600583529084206001810154958552929091529092906106639061099a565b61066d91906119d6565b905080831115610690576040516377dfdf2160e01b815260040160405180910390fd5b828260010160008282546106a491906119ed565b909155506106b4905033846112a2565b604051600090339085908381818185875af1925050503d80600081146106f6576040519150601f19603f3d011682016040523d82523d6000602084013e6106fb565b606091505b505090508061071d576040516312171d8360e31b815260040160405180910390fd5b336000908152600660209081526040918290205491518681526001600160a01b03909216917f47cee97cb7acd717b3c0aa1435d004cd5b3c8c57d70dbceb4e4458bbd60e39d4910160405180910390a250505050565b3360008181526001602090815260408083206001600160a01b038716845290915281205490919061055690829086906107ad9087906119ed565b610e80565b6001600160a01b0383166107d95760405163ac6b05f560e01b815260040160405180910390fd5b6001600160a01b03838116600090815260066020526040902054161561081257604051630fb356f360e21b815260040160405180910390fd5b42826001600160401b031611158061083c5750806001600160401b0316826001600160401b031610155b1561085a57604051636385801560e11b815260040160405180910390fd5b3461087857604051637bc90c0560e11b815260040160405180910390fd5b61088283346113fc565b6040805160a08101825234808252600060208084018281526001600160401b038089168688019081528882166060880190815233608089019081526001600160a01b038d8116808952600588528b89209a518b55955160018b0155925160028a01805493518616600160401b026fffffffffffffffffffffffffffffffff19909416919095161791909117909255905160039096018054969091166001600160a01b031996871617905560069091529084902080549093168117909255915190917fb4c03061fb5b7fed76389d5af8f2e0ddb09f8c70d1333abbb62582835e10accb9161098d9190869086909283526001600160401b03918216602084015216604082015260600190565b60405180910390a2505050565b6001600160a01b038082166000908152600560209081526040808320815160a081018352815480825260018301549482019490945260028201546001600160401b0380821694830194909452600160401b90049092166060830152600301549093166080840152909190610a115750600092915050565b80604001516001600160401b0316421015610a2f5750600092915050565b600081604001518260600151610a459190611a05565b6001600160401b031682604001516001600160401b031642610a6791906119d6565b8351610a739190611a2d565b610a7d9190611a4c565b8251909150811115610a9157505192915050565b9392505050565b6001600160a01b03828116600090815260056020526040902060030154163314610ad55760405163d8d5894f60e01b815260040160405180910390fd5b610adf828261120f565b5050565b80610b0157604051637bc90c0560e11b815260040160405180910390fd5b336000908152600660209081526040808320546001600160a01b031683526005909152902060018101548154610b3791906119d6565b821115610b57576040516377dfdf2160e01b815260040160405180910390fd5b610b6133836112a2565b60038101546040516000916001600160a01b03169084908381818185875af1925050503d8060008114610bb0576040519150601f19603f3d011682016040523d82523d6000602084013e610bb5565b606091505b5050905080610bd7576040516312171d8360e31b815260040160405180910390fd5b336000908152600660209081526040918290205491518581526001600160a01b03909216917f443630e54cc5dd8826c25d7467193a3b7a0a67b4ed73c14fb477e8e7eed3fd48910161098d565b6060600480546104c590611954565b3360008181526001602090815260408083206001600160a01b038716845290915281205490919083811015610cbd5760405162461bcd60e51b815260206004820152602560248201527f45524332303a2064656372656173656420616c6c6f77616e63652062656c6f77604482015264207a65726f60d81b60648201526084015b60405180910390fd5b6105798286868403610e80565b600033610556818585611036565b600082518451148015610cec575081518351145b610d4c5760405162461bcd60e51b815260206004820152602b60248201527f4c4f41533a2062756c6b207472616e7366657246726f6d2061726773206d757360448201526a7420626520657175616c7360a81b6064820152608401610cb4565b60005b845181101561057957610dae858281518110610d6d57610d6d61198f565b6020026020010151858381518110610d8757610d8761198f565b6020026020010151858481518110610da157610da161198f565b6020026020010151610560565b5080610db9816119bb565b915050610d4f565b60008151835114610e245760405162461bcd60e51b815260206004820152602760248201527f4c4f41533a2062756c6b207472616e736665722061726773206d75737420626560448201526620657175616c7360c81b6064820152608401610cb4565b3360005b845181101561057957610e6e82868381518110610e4757610e4761198f565b6020026020010151868481518110610e6157610e6161198f565b6020026020010151611036565b80610e78816119bb565b915050610e28565b6001600160a01b038316610ee25760405162461bcd60e51b8152602060048201526024808201527f45524332303a20617070726f76652066726f6d20746865207a65726f206164646044820152637265737360e01b6064820152608401610cb4565b6001600160a01b038216610f435760405162461bcd60e51b815260206004820152602260248201527f45524332303a20617070726f766520746f20746865207a65726f206164647265604482015261737360f01b6064820152608401610cb4565b6001600160a01b0383811660008181526001602090815260408083209487168084529482529182902085905590518481527f8c5be1e5ebec7d5bd14f71427d1e84f3dd0314c0f7b2291e5b200ac8c7c3b925910160405180910390a3505050565b6001600160a01b03838116600090815260016020908152604080832093861683529290522054600019811461103057818110156110235760405162461bcd60e51b815260206004820152601d60248201527f45524332303a20696e73756666696369656e7420616c6c6f77616e63650000006044820152606401610cb4565b6110308484848403610e80565b50505050565b6001600160a01b03831661109a5760405162461bcd60e51b815260206004820152602560248201527f45524332303a207472616e736665722066726f6d20746865207a65726f206164604482015264647265737360d81b6064820152608401610cb4565b6001600160a01b0382166110fc5760405162461bcd60e51b815260206004820152602360248201527f45524332303a207472616e7366657220746f20746865207a65726f206164647260448201526265737360e81b6064820152608401610cb4565b6111078383836114e7565b6001600160a01b0383166000908152602081905260409020548181101561117f5760405162461bcd60e51b815260206004820152602660248201527f45524332303a207472616e7366657220616d6f756e7420657863656564732062604482015265616c616e636560d01b6064820152608401610cb4565b6001600160a01b038085166000908152602081905260408082208585039055918516815290812080548492906111b69084906119ed565b92505081905550826001600160a01b0316846001600160a01b03167fddf252ad1be2c89b69c2b068fc378daa952ba7f163c4a11628f55a4df523b3ef8460405161120291815260200190565b60405180910390a3611030565b6001600160a01b03818116600090815260066020526040902054161561124857604051630fb356f360e21b815260040160405180910390fd5b6001600160a01b0381811660008181526006602052604080822080546001600160a01b0319169487169485179055519192917fdc5d0ac53741544fef2e2ae9b2c8006a9e56f9708377f300d8e825f8d411617d9190a35050565b6001600160a01b0382166113025760405162461bcd60e51b815260206004820152602160248201527f45524332303a206275726e2066726f6d20746865207a65726f206164647265736044820152607360f81b6064820152608401610cb4565b61130e826000836114e7565b6001600160a01b038216600090815260208190526040902054818110156113825760405162461bcd60e51b815260206004820152602260248201527f45524332303a206275726e20616d6f756e7420657863656564732062616c616e604482015261636560f01b6064820152608401610cb4565b6001600160a01b03831660009081526020819052604081208383039055600280548492906113b19084906119d6565b90915550506040518281526000906001600160a01b038516907fddf252ad1be2c89b69c2b068fc378daa952ba7f163c4a11628f55a4df523b3ef9060200160405180910390a3505050565b6001600160a01b0382166114525760405162461bcd60e51b815260206004820152601f60248201527f45524332303a206d696e7420746f20746865207a65726f2061646472657373006044820152606401610cb4565b61145e600083836114e7565b806002600082825461147091906119ed565b90915550506001600160a01b0382166000908152602081905260408120805483929061149d9084906119ed565b90915550506040518181526001600160a01b038316906000907fddf252ad1be2c89b69c2b068fc378daa952ba7f163c4a11628f55a4df523b3ef9060200160405180910390a35050565b6001600160a01b038316158061150457506001600160a01b038216155b1561150e57505050565b6001600160a01b0380831660009081526006602052604080822054868416835291205482169116141561154057505050565b6040516325cdf54f60e21b815260040160405180910390fd5b600060208083528351808285015260005b818110156115865785810183015185820160400152820161156a565b81811115611598576000604083870101525b50601f01601f1916929092016040019392505050565b80356001600160a01b03811681146115c557600080fd5b919050565b600080604083850312156115dd57600080fd5b6115e6836115ae565b946020939093013593505050565b60008060006060848603121561160957600080fd5b611612846115ae565b9250611620602085016115ae565b9150604084013590509250925092565b634e487b7160e01b600052604160045260246000fd5b604051601f8201601f191681016001600160401b038111828210171561166e5761166e611630565b604052919050565b60006001600160401b0382111561168f5761168f611630565b5060051b60200190565b600082601f8301126116aa57600080fd5b813560206116bf6116ba83611676565b611646565b82815260059290921b840181019181810190868411156116de57600080fd5b8286015b84811015611700576116f3816115ae565b83529183019183016116e2565b509695505050505050565b6000806040838503121561171e57600080fd5b611727836115ae565b915060208301356001600160401b0381111561174257600080fd5b61174e85828601611699565b9150509250929050565b60006020828403121561176a57600080fd5b5035919050565b80356001600160401b03811681146115c557600080fd5b60008060006060848603121561179d57600080fd5b6117a6846115ae565b92506117b460208501611771565b91506117c260408501611771565b90509250925092565b6000602082840312156117dd57600080fd5b610a91826115ae565b600080604083850312156117f957600080fd5b611802836115ae565b9150611810602084016115ae565b90509250929050565b600082601f83011261182a57600080fd5b8135602061183a6116ba83611676565b82815260059290921b8401810191818101908684111561185957600080fd5b8286015b84811015611700578035835291830191830161185d565b60008060006060848603121561188957600080fd5b83356001600160401b03808211156118a057600080fd5b6118ac87838801611699565b945060208601359150808211156118c257600080fd5b6118ce87838801611699565b935060408601359150808211156118e457600080fd5b506118f186828701611819565b9150509250925092565b6000806040838503121561190e57600080fd5b82356001600160401b038082111561192557600080fd5b61193186838701611699565b9350602085013591508082111561194757600080fd5b5061174e85828601611819565b600181811c9082168061196857607f821691505b6020821081141561198957634e487b7160e01b600052602260045260246000fd5b50919050565b634e487b7160e01b600052603260045260246000fd5b634e487b7160e01b600052601160045260246000fd5b60006000198214156119cf576119cf6119a5565b5060010190565b6000828210156119e8576119e86119a5565b500390565b60008219821115611a0057611a006119a5565b500190565b60006001600160401b0383811690831681811015611a2557611a256119a5565b039392505050565b6000816000190483118215151615611a4757611a476119a5565b500290565b600082611a6957634e487b7160e01b600052601260045260246000fd5b50049056fea264697066735822122098acdeeec3a23c1e097c992e1292dc7bc53f7ef784a6acd433995fdce6ee1c1464736f6c634300080c0033",
  "linkReferences": {},
  "deployedLinkReferences": {}
}