{
  "_format": "hh-sol-artifact-1",
  "contractName": "LOAS",
  "sourceName": "contracts/token/LOAS.sol",
  "abi": [
    {
      "inputs": [],
      "stateMutability": "nonpayable",
      "type": "constructor"
    },
    {
      "inputs": [],
      "name": "AlreadyClaimer",
      "type": "error"
    },
    {
      "inputs": [],
      "name": "InvalidClaimPeriod",
      "type": "error"
    },
    {
      "inputs": [],
      "name": "InvalidDestination",
      "type": "error"
    },
    {
      "inputs": [],
      "name": "InvalidMinter",
      "type": "error"
    },
    {
      "inputs": [],
      "name": "InvalidRevoker",
      "type": "error"
    },
    {
      "inputs": [],
      "name": "NoAmount",
      "type": "error"
    },
    {
      "inputs": [],
      "name": "NotFound",
      "type": "error"
    },
    {
      "inputs": [],
      "name": "OverAmount",
      "type": "error"
    },
    {
      "inputs": [],
      "name": "TransferFailed",
      "type": "error"
    },
    {
      "inputs": [],
      "name": "UnauthorizedTransfer",
      "type": "error"
    },
    {
      "anonymous": false,
      "inputs": [
        {
          "indexed": true,
          "internalType": "address",
          "name": "original",
          "type": "address"
        },
        {
          "indexed": true,
          "internalType": "address",
          "name": "transferable",
          "type": "address"
        }
      ],
      "name": "Allow",
      "type": "event"
    },
    {
      "anonymous": false,
      "inputs": [
        {
          "indexed": true,
          "internalType": "address",
          "name": "owner",
          "type": "address"
        },
        {
          "indexed": true,
          "internalType": "address",
          "name": "spender",
          "type": "address"
        },
        {
          "indexed": false,
          "internalType": "uint256",
          "name": "value",
          "type": "uint256"
        }
      ],
      "name": "Approval",
      "type": "event"
    },
    {
      "anonymous": false,
      "inputs": [
        {
          "indexed": true,
          "internalType": "address",
          "name": "holder",
          "type": "address"
        },
        {
          "indexed": false,
          "internalType": "uint256",
          "name": "amount",
          "type": "uint256"
        }
      ],
      "name": "Claim",
      "type": "event"
    },
    {
      "anonymous": false,
      "inputs": [
        {
          "indexed": true,
          "internalType": "address",
          "name": "to",
          "type": "address"
        },
        {
          "indexed": false,
          "internalType": "uint256",
          "name": "amount",
          "type": "uint256"
        },
        {
          "indexed": false,
          "internalType": "uint256",
          "name": "since",
          "type": "uint256"
        },
        {
          "indexed": false,
          "internalType": "uint256",
          "name": "until",
          "type": "uint256"
        }
      ],
      "name": "Mint",
      "type": "event"
    },
    {
      "anonymous": false,
      "inputs": [
        {
          "indexed": true,
          "internalType": "address",
          "name": "holder",
          "type": "address"
        },
        {
          "indexed": false,
          "internalType": "uint256",
          "name": "amount",
          "type": "uint256"
        }
      ],
      "name": "Renounce",
      "type": "event"
    },
    {
      "anonymous": false,
      "inputs": [
        {
          "indexed": true,
          "internalType": "address",
          "name": "original",
          "type": "address"
        },
        {
          "indexed": true,
          "internalType": "address",
          "name": "holder",
          "type": "address"
        },
        {
          "indexed": false,
          "internalType": "uint256",
          "name": "amount",
          "type": "uint256"
        }
      ],
      "name": "Revoke",
      "type": "event"
    },
    {
      "anonymous": false,
      "inputs": [
        {
          "indexed": true,
          "internalType": "address",
          "name": "from",
          "type": "address"
        },
        {
          "indexed": true,
          "internalType": "address",
          "name": "to",
          "type": "address"
        },
        {
          "indexed": false,
          "internalType": "uint256",
          "name": "value",
          "type": "uint256"
        }
      ],
      "name": "Transfer",
      "type": "event"
    },
    {
      "inputs": [
        {
          "internalType": "address",
          "name": "original",
          "type": "address"
        },
        {
          "internalType": "address[]",
          "name": "alloweds",
          "type": "address[]"
        }
      ],
      "name": "allow",
      "outputs": [],
      "stateMutability": "nonpayable",
      "type": "function"
    },
    {
      "inputs": [
        {
          "internalType": "address",
          "name": "original",
          "type": "address"
        },
        {
          "internalType": "address",
          "name": "allowed",
          "type": "address"
        }
      ],
      "name": "allow",
      "outputs": [],
      "stateMutability": "nonpayable",
      "type": "function"
    },
    {
      "inputs": [
        {
          "internalType": "address",
          "name": "owner",
          "type": "address"
        },
        {
          "internalType": "address",
          "name": "spender",
          "type": "address"
        }
      ],
      "name": "allowance",
      "outputs": [
        {
          "internalType": "uint256",
          "name": "",
          "type": "uint256"
        }
      ],
      "stateMutability": "view",
      "type": "function"
    },
    {
      "inputs": [
        {
          "internalType": "address",
          "name": "spender",
          "type": "address"
        },
        {
          "internalType": "uint256",
          "name": "amount",
          "type": "uint256"
        }
      ],
      "name": "approve",
      "outputs": [
        {
          "internalType": "bool",
          "name": "",
          "type": "bool"
        }
      ],
      "stateMutability": "nonpayable",
      "type": "function"
    },
    {
      "inputs": [
        {
          "internalType": "address",
          "name": "account",
          "type": "address"
        }
      ],
      "name": "balanceOf",
      "outputs": [
        {
          "internalType": "uint256",
          "name": "",
          "type": "uint256"
        }
      ],
      "stateMutability": "view",
      "type": "function"
    },
    {
      "inputs": [
        {
          "internalType": "uint256",
          "name": "amount",
          "type": "uint256"
        }
      ],
      "name": "claim",
      "outputs": [],
      "stateMutability": "nonpayable",
      "type": "function"
    },
    {
      "inputs": [
        {
          "internalType": "address",
          "name": "",
          "type": "address"
        }
      ],
      "name": "claimInfo",
      "outputs": [
        {
          "internalType": "uint256",
          "name": "amount",
          "type": "uint256"
        },
        {
          "internalType": "uint256",
          "name": "claimed",
          "type": "uint256"
        },
        {
          "internalType": "uint64",
          "name": "since",
          "type": "uint64"
        },
        {
          "internalType": "uint64",
          "name": "until",
          "type": "uint64"
        },
        {
          "internalType": "address",
          "name": "from",
          "type": "address"
        },
        {
          "internalType": "uint256",
          "name": "revoked",
          "type": "uint256"
        }
      ],
      "stateMutability": "view",
      "type": "function"
    },
    {
      "inputs": [],
      "name": "decimals",
      "outputs": [
        {
          "internalType": "uint8",
          "name": "",
          "type": "uint8"
        }
      ],
      "stateMutability": "view",
      "type": "function"
    },
    {
      "inputs": [
        {
          "internalType": "address",
          "name": "spender",
          "type": "address"
        },
        {
          "internalType": "uint256",
          "name": "subtractedValue",
          "type": "uint256"
        }
      ],
      "name": "decreaseAllowance",
      "outputs": [
        {
          "internalType": "bool",
          "name": "",
          "type": "bool"
        }
      ],
      "stateMutability": "nonpayable",
      "type": "function"
    },
    {
      "inputs": [
        {
          "internalType": "address",
          "name": "original",
          "type": "address"
        }
      ],
      "name": "getClaimableOAS",
      "outputs": [
        {
          "internalType": "uint256",
          "name": "",
          "type": "uint256"
        }
      ],
      "stateMutability": "view",
      "type": "function"
    },
    {
      "inputs": [
        {
          "internalType": "address",
          "name": "spender",
          "type": "address"
        },
        {
          "internalType": "uint256",
          "name": "addedValue",
          "type": "uint256"
        }
      ],
      "name": "increaseAllowance",
      "outputs": [
        {
          "internalType": "bool",
          "name": "",
          "type": "bool"
        }
      ],
      "stateMutability": "nonpayable",
      "type": "function"
    },
    {
      "inputs": [
        {
          "internalType": "address",
          "name": "to",
          "type": "address"
        },
        {
          "internalType": "uint64",
          "name": "since",
          "type": "uint64"
        },
        {
          "internalType": "uint64",
          "name": "until",
          "type": "uint64"
        }
      ],
      "name": "mint",
      "outputs": [],
      "stateMutability": "payable",
      "type": "function"
    },
    {
      "inputs": [],
      "name": "name",
      "outputs": [
        {
          "internalType": "string",
          "name": "",
          "type": "string"
        }
      ],
      "stateMutability": "view",
      "type": "function"
    },
    {
      "inputs": [
        {
          "internalType": "address",
          "name": "",
          "type": "address"
        }
      ],
      "name": "originalClaimer",
      "outputs": [
        {
          "internalType": "address",
          "name": "",
          "type": "address"
        }
      ],
      "stateMutability": "view",
      "type": "function"
    },
    {
      "inputs": [
        {
          "internalType": "uint256",
          "name": "amount",
          "type": "uint256"
        }
      ],
      "name": "renounce",
      "outputs": [],
      "stateMutability": "nonpayable",
      "type": "function"
    },
    {
      "inputs": [
        {
          "internalType": "address",
          "name": "holder",
          "type": "address"
        },
        {
          "internalType": "uint256",
          "name": "amount_",
          "type": "uint256"
        }
      ],
      "name": "revoke",
      "outputs": [],
      "stateMutability": "nonpayable",
      "type": "function"
    },
    {
      "inputs": [],
      "name": "symbol",
      "outputs": [
        {
          "internalType": "string",
          "name": "",
          "type": "string"
        }
      ],
      "stateMutability": "view",
      "type": "function"
    },
    {
      "inputs": [],
      "name": "totalSupply",
      "outputs": [
        {
          "internalType": "uint256",
          "name": "",
          "type": "uint256"
        }
      ],
      "stateMutability": "view",
      "type": "function"
    },
    {
      "inputs": [
        {
          "internalType": "address",
          "name": "to",
          "type": "address"
        },
        {
          "internalType": "uint256",
          "name": "amount",
          "type": "uint256"
        }
      ],
      "name": "transfer",
      "outputs": [
        {
          "internalType": "bool",
          "name": "",
          "type": "bool"
        }
      ],
      "stateMutability": "nonpayable",
      "type": "function"
    },
    {
      "inputs": [
        {
          "internalType": "address[]",
          "name": "tos",
          "type": "address[]"
        },
        {
          "internalType": "uint256[]",
          "name": "amounts",
          "type": "uint256[]"
        }
      ],
      "name": "transfer",
      "outputs": [
        {
          "internalType": "bool",
          "name": "",
          "type": "bool"
        }
      ],
      "stateMutability": "nonpayable",
      "type": "function"
    },
    {
      "inputs": [
        {
          "internalType": "address",
          "name": "from",
          "type": "address"
        },
        {
          "internalType": "address",
          "name": "to",
          "type": "address"
        },
        {
          "internalType": "uint256",
          "name": "amount",
          "type": "uint256"
        }
      ],
      "name": "transferFrom",
      "outputs": [
        {
          "internalType": "bool",
          "name": "",
          "type": "bool"
        }
      ],
      "stateMutability": "nonpayable",
      "type": "function"
    },
    {
      "inputs": [
        {
          "internalType": "address[]",
          "name": "froms",
          "type": "address[]"
        },
        {
          "internalType": "address[]",
          "name": "tos",
          "type": "address[]"
        },
        {
          "internalType": "uint256[]",
          "name": "amounts",
          "type": "uint256[]"
        }
      ],
      "name": "transferFrom",
      "outputs": [
        {
          "internalType": "bool",
          "name": "",
          "type": "bool"
        }
      ],
      "stateMutability": "nonpayable",
      "type": "function"
    }
  ],
  "bytecode": "0x60806040523480156200001157600080fd5b50604080518082018252600a8152694c6f636b6564204f415360b01b6020808301918252835180850190945260048452634c4f415360e01b90840152815191929162000060916003916200007f565b508051620000769060049060208401906200007f565b50505062000162565b8280546200008d9062000125565b90600052602060002090601f016020900481019282620000b15760008555620000fc565b82601f10620000cc57805160ff1916838001178555620000fc565b82800160010185558215620000fc579182015b82811115620000fc578251825591602001919060010190620000df565b506200010a9291506200010e565b5090565b5b808211156200010a57600081556001016200010f565b600181811c908216806200013a57607f821691505b602082108114156200015c57634e487b7160e01b600052602260045260246000fd5b50919050565b611d2080620001726000396000f3fe6080604052600436106101355760003560e01c8063775ad527116100ab578063a9059cbb1161006f578063a9059cbb1461037e578063d97830b11461039e578063dd62ed3e14610448578063eac449d91461048e578063f94a138b146104ae578063ffc3a769146104ce57600080fd5b8063775ad527146102bb5780637de6b1db146102db57806392de7482146102fb57806395d89b4114610349578063a457c2d71461035e57600080fd5b8063313ce567116100fd578063313ce567146101f6578063379607f5146102125780633950935114610232578063546cec3e146102525780636dec93f11461026557806370a082311461028557600080fd5b806306fdde031461013a578063095ea7b31461016557806318160ddd1461019557806323b872dd146101b45780632e87d48c146101d4575b600080fd5b34801561014657600080fd5b5061014f6104ee565b60405161015c91906117d5565b60405180910390f35b34801561017157600080fd5b50610185610180366004611846565b610580565b604051901515815260200161015c565b3480156101a157600080fd5b506002545b60405190815260200161015c565b3480156101c057600080fd5b506101856101cf366004611870565b610598565b3480156101e057600080fd5b506101f46101ef366004611987565b6105bc565b005b34801561020257600080fd5b506040516012815260200161015c565b34801561021e57600080fd5b506101f461022d3660046119d4565b61063f565b34801561023e57600080fd5b5061018561024d366004611846565b6107ac565b6101f4610260366004611a04565b6107eb565b34801561027157600080fd5b506101a6610280366004611a47565b6109e5565b34801561029157600080fd5b506101a66102a0366004611a47565b6001600160a01b031660009081526020819052604090205490565b3480156102c757600080fd5b506101f46102d6366004611a62565b610aef565b3480156102e757600080fd5b506101f46102f63660046119d4565b610b3a565b34801561030757600080fd5b50610331610316366004611a47565b6006602052600090815260409020546001600160a01b031681565b6040516001600160a01b03909116815260200161015c565b34801561035557600080fd5b5061014f610c90565b34801561036a57600080fd5b50610185610379366004611846565b610c9f565b34801561038a57600080fd5b50610185610399366004611846565b610d36565b3480156103aa57600080fd5b506104056103b9366004611a47565b60056020526000908152604090208054600182015460028301546003840154600490940154929391926001600160401b0380831693600160401b90930416916001600160a01b03169086565b6040805196875260208701959095526001600160401b0393841694860194909452911660608401526001600160a01b0316608083015260a082015260c00161015c565b34801561045457600080fd5b506101a6610463366004611a62565b6001600160a01b03918216600090815260016020908152604080832093909416825291909152205490565b34801561049a57600080fd5b506101f46104a9366004611846565b610d44565b3480156104ba57600080fd5b506101856104c9366004611af0565b610f54565b3480156104da57600080fd5b506101856104e9366004611b77565b61103d565b6060600380546104fd90611bd0565b80601f016020809104026020016040519081016040528092919081815260200182805461052990611bd0565b80156105765780601f1061054b57610100808354040283529160200191610576565b820191906000526020600020905b81548152906001019060200180831161055957829003601f168201915b5050505050905090565b60003361058e8185856110fc565b5060019392505050565b6000336105a6858285611220565b6105b18585856112b2565b506001949350505050565b6001600160a01b038281166000908152600560205260409020600301541633146105f95760405163d8d5894f60e01b815260040160405180910390fd5b60005b815181101561063a576106288383838151811061061b5761061b611c0b565b602002602001015161148b565b8061063281611c37565b9150506105fc565b505050565b8061065d57604051637bc90c0560e11b815260040160405180910390fd5b336000818152600660208181526040808420546001600160a01b03168085526005835290842060018101549585529290915290929061069b906109e5565b6106a59190611c52565b9050808311156106c8576040516377dfdf2160e01b815260040160405180910390fd5b828260010160008282546106dc9190611c69565b909155506106ec9050338461151e565b604051600090339085908381818185875af1925050503d806000811461072e576040519150601f19603f3d011682016040523d82523d6000602084013e610733565b606091505b5050905080610755576040516312171d8360e31b815260040160405180910390fd5b336000908152600660209081526040918290205491518681526001600160a01b03909216917f47cee97cb7acd717b3c0aa1435d004cd5b3c8c57d70dbceb4e4458bbd60e39d491015b60405180910390a250505050565b3360008181526001602090815260408083206001600160a01b038716845290915281205490919061058e90829086906107e6908790611c69565b6110fc565b6001600160a01b0383166108125760405163ac6b05f560e01b815260040160405180910390fd5b6001600160a01b03838116600090815260066020526040902054161561084b57604051630fb356f360e21b815260040160405180910390fd5b42826001600160401b03161115806108755750806001600160401b0316826001600160401b031610155b1561089357604051636385801560e11b815260040160405180910390fd5b346108b157604051637bc90c0560e11b815260040160405180910390fd5b6108bb8334611678565b6040805160c08101825234808252600060208084018281526001600160401b0380891686880190815288821660608801908152336080890190815260a089018781526001600160a01b038e8116808a52600589528c8a209b518c55965160018c0155935160028b01805494518716600160401b026fffffffffffffffffffffffffffffffff199095169190961617929092179093559151600388018054919092166001600160a01b031991821617909155905160049096019590955560069091529084902080549093168117909255915190917fb4c03061fb5b7fed76389d5af8f2e0ddb09f8c70d1333abbb62582835e10accb916109d89190869086909283526001600160401b03918216602084015216604082015260600190565b60405180910390a2505050565b6001600160a01b038082166000908152600560209081526040808320815160c081018352815480825260018301549482019490945260028201546001600160401b0380821694830194909452600160401b900490921660608301526003810154909416608082015260049093015460a0840152909190610a685750600092915050565b80604001516001600160401b0316421015610a865750600092915050565b600081604001518260600151610a9c9190611c81565b6001600160401b031682604001516001600160401b031642610abe9190611c52565b8351610aca9190611ca9565b610ad49190611cc8565b8251909150811115610ae857505192915050565b9392505050565b6001600160a01b03828116600090815260056020526040902060030154163314610b2c5760405163d8d5894f60e01b815260040160405180910390fd5b610b36828261148b565b5050565b80610b5857604051637bc90c0560e11b815260040160405180910390fd5b336000908152600660209081526040808320546001600160a01b0316835260059091528120600481015460018201548254929392610b969190611c52565b610ba09190611c52565b905080831115610bc3576040516377dfdf2160e01b815260040160405180910390fd5b610bcd338461151e565b60038201546040516000916001600160a01b03169085908381818185875af1925050503d8060008114610c1c576040519150601f19603f3d011682016040523d82523d6000602084013e610c21565b606091505b5050905080610c43576040516312171d8360e31b815260040160405180910390fd5b336000908152600660209081526040918290205491518681526001600160a01b03909216917f443630e54cc5dd8826c25d7467193a3b7a0a67b4ed73c14fb477e8e7eed3fd48910161079e565b6060600480546104fd90611bd0565b3360008181526001602090815260408083206001600160a01b038716845290915281205490919083811015610d295760405162461bcd60e51b815260206004820152602560248201527f45524332303a2064656372656173656420616c6c6f77616e63652062656c6f77604482015264207a65726f60d81b60648201526084015b60405180910390fd5b6105b182868684036110fc565b60003361058e8185856112b2565b6001600160a01b038083166000908152600660205260409020541680610d7d5760405163c5723b5160e01b815260040160405180910390fd5b6001600160a01b03808216600090815260056020526040902060038101549091163314610dbd57604051632c8c06e360e11b815260040160405180910390fd5b8280610e335760048201546001830154835460009291610ddc91611c52565b610de69190611c52565b905060008360010154610df8866109e5565b610e029190611c52565b9050808211610e2457604051637bc90c0560e11b815260040160405180910390fd5b610e2e8183611c52565b925050505b80610e53866001600160a01b031660009081526020819052604090205490565b1015610e72576040516377dfdf2160e01b815260040160405180910390fd5b80826004016000828254610e869190611c69565b90915550610e969050858261151e565b604051600090339083908381818185875af1925050503d8060008114610ed8576040519150601f19603f3d011682016040523d82523d6000602084013e610edd565b606091505b5050905080610eff576040516312171d8360e31b815260040160405180910390fd5b856001600160a01b0316846001600160a01b03167fb698e31a2abee5824d0d7bcfd2339aead7f9e9ae413fba50bf554ff3fa470b7b84604051610f4491815260200190565b60405180910390a3505050505050565b600082518451148015610f68575081518351145b610fc85760405162461bcd60e51b815260206004820152602b60248201527f4c4f41533a2062756c6b207472616e7366657246726f6d2061726773206d757360448201526a7420626520657175616c7360a81b6064820152608401610d20565b60005b84518110156105b15761102a858281518110610fe957610fe9611c0b565b602002602001015185838151811061100357611003611c0b565b602002602001015185848151811061101d5761101d611c0b565b6020026020010151610598565b508061103581611c37565b915050610fcb565b600081518351146110a05760405162461bcd60e51b815260206004820152602760248201527f4c4f41533a2062756c6b207472616e736665722061726773206d75737420626560448201526620657175616c7360c81b6064820152608401610d20565b3360005b84518110156105b1576110ea828683815181106110c3576110c3611c0b565b60200260200101518684815181106110dd576110dd611c0b565b60200260200101516112b2565b806110f481611c37565b9150506110a4565b6001600160a01b03831661115e5760405162461bcd60e51b8152602060048201526024808201527f45524332303a20617070726f76652066726f6d20746865207a65726f206164646044820152637265737360e01b6064820152608401610d20565b6001600160a01b0382166111bf5760405162461bcd60e51b815260206004820152602260248201527f45524332303a20617070726f766520746f20746865207a65726f206164647265604482015261737360f01b6064820152608401610d20565b6001600160a01b0383811660008181526001602090815260408083209487168084529482529182902085905590518481527f8c5be1e5ebec7d5bd14f71427d1e84f3dd0314c0f7b2291e5b200ac8c7c3b925910160405180910390a3505050565b6001600160a01b0383811660009081526001602090815260408083209386168352929052205460001981146112ac578181101561129f5760405162461bcd60e51b815260206004820152601d60248201527f45524332303a20696e73756666696369656e7420616c6c6f77616e63650000006044820152606401610d20565b6112ac84848484036110fc565b50505050565b6001600160a01b0383166113165760405162461bcd60e51b815260206004820152602560248201527f45524332303a207472616e736665722066726f6d20746865207a65726f206164604482015264647265737360d81b6064820152608401610d20565b6001600160a01b0382166113785760405162461bcd60e51b815260206004820152602360248201527f45524332303a207472616e7366657220746f20746865207a65726f206164647260448201526265737360e81b6064820152608401610d20565b611383838383611763565b6001600160a01b038316600090815260208190526040902054818110156113fb5760405162461bcd60e51b815260206004820152602660248201527f45524332303a207472616e7366657220616d6f756e7420657863656564732062604482015265616c616e636560d01b6064820152608401610d20565b6001600160a01b03808516600090815260208190526040808220858503905591851681529081208054849290611432908490611c69565b92505081905550826001600160a01b0316846001600160a01b03167fddf252ad1be2c89b69c2b068fc378daa952ba7f163c4a11628f55a4df523b3ef8460405161147e91815260200190565b60405180910390a36112ac565b6001600160a01b0381811660009081526006602052604090205416156114c457604051630fb356f360e21b815260040160405180910390fd5b6001600160a01b0381811660008181526006602052604080822080546001600160a01b0319169487169485179055519192917fdc5d0ac53741544fef2e2ae9b2c8006a9e56f9708377f300d8e825f8d411617d9190a35050565b6001600160a01b03821661157e5760405162461bcd60e51b815260206004820152602160248201527f45524332303a206275726e2066726f6d20746865207a65726f206164647265736044820152607360f81b6064820152608401610d20565b61158a82600083611763565b6001600160a01b038216600090815260208190526040902054818110156115fe5760405162461bcd60e51b815260206004820152602260248201527f45524332303a206275726e20616d6f756e7420657863656564732062616c616e604482015261636560f01b6064820152608401610d20565b6001600160a01b038316600090815260208190526040812083830390556002805484929061162d908490611c52565b90915550506040518281526000906001600160a01b038516907fddf252ad1be2c89b69c2b068fc378daa952ba7f163c4a11628f55a4df523b3ef9060200160405180910390a3505050565b6001600160a01b0382166116ce5760405162461bcd60e51b815260206004820152601f60248201527f45524332303a206d696e7420746f20746865207a65726f2061646472657373006044820152606401610d20565b6116da60008383611763565b80600260008282546116ec9190611c69565b90915550506001600160a01b03821660009081526020819052604081208054839290611719908490611c69565b90915550506040518181526001600160a01b038316906000907fddf252ad1be2c89b69c2b068fc378daa952ba7f163c4a11628f55a4df523b3ef9060200160405180910390a35050565b6001600160a01b038316158061178057506001600160a01b038216155b1561178a57505050565b6001600160a01b038083166000908152600660205260408082205486841683529120548216911614156117bc57505050565b6040516325cdf54f60e21b815260040160405180910390fd5b600060208083528351808285015260005b81811015611802578581018301518582016040015282016117e6565b81811115611814576000604083870101525b50601f01601f1916929092016040019392505050565b80356001600160a01b038116811461184157600080fd5b919050565b6000806040838503121561185957600080fd5b6118628361182a565b946020939093013593505050565b60008060006060848603121561188557600080fd5b61188e8461182a565b925061189c6020850161182a565b9150604084013590509250925092565b634e487b7160e01b600052604160045260246000fd5b604051601f8201601f191681016001600160401b03811182821017156118ea576118ea6118ac565b604052919050565b60006001600160401b0382111561190b5761190b6118ac565b5060051b60200190565b600082601f83011261192657600080fd5b8135602061193b611936836118f2565b6118c2565b82815260059290921b8401810191818101908684111561195a57600080fd5b8286015b8481101561197c5761196f8161182a565b835291830191830161195e565b509695505050505050565b6000806040838503121561199a57600080fd5b6119a38361182a565b915060208301356001600160401b038111156119be57600080fd5b6119ca85828601611915565b9150509250929050565b6000602082840312156119e657600080fd5b5035919050565b80356001600160401b038116811461184157600080fd5b600080600060608486031215611a1957600080fd5b611a228461182a565b9250611a30602085016119ed565b9150611a3e604085016119ed565b90509250925092565b600060208284031215611a5957600080fd5b610ae88261182a565b60008060408385031215611a7557600080fd5b611a7e8361182a565b9150611a8c6020840161182a565b90509250929050565b600082601f830112611aa657600080fd5b81356020611ab6611936836118f2565b82815260059290921b84018101918181019086841115611ad557600080fd5b8286015b8481101561197c5780358352918301918301611ad9565b600080600060608486031215611b0557600080fd5b83356001600160401b0380821115611b1c57600080fd5b611b2887838801611915565b94506020860135915080821115611b3e57600080fd5b611b4a87838801611915565b93506040860135915080821115611b6057600080fd5b50611b6d86828701611a95565b9150509250925092565b60008060408385031215611b8a57600080fd5b82356001600160401b0380821115611ba157600080fd5b611bad86838701611915565b93506020850135915080821115611bc357600080fd5b506119ca85828601611a95565b600181811c90821680611be457607f821691505b60208210811415611c0557634e487b7160e01b600052602260045260246000fd5b50919050565b634e487b7160e01b600052603260045260246000fd5b634e487b7160e01b600052601160045260246000fd5b6000600019821415611c4b57611c4b611c21565b5060010190565b600082821015611c6457611c64611c21565b500390565b60008219821115611c7c57611c7c611c21565b500190565b60006001600160401b0383811690831681811015611ca157611ca1611c21565b039392505050565b6000816000190483118215151615611cc357611cc3611c21565b500290565b600082611ce557634e487b7160e01b600052601260045260246000fd5b50049056fea2646970667358221220076c6b49ddc21701856eeaed9f5f37b2a967f8bcf794aaf6efaa16dcdedc001664736f6c634300080c0033",
  "linkReferences": {},
  "deployedLinkReferences": {}
}