{
  "_format": "hh-sol-artifact-1",
  "contractName": "OASMultiTransfer",
  "sourceName": "contracts/util/OASMultiTransfer.sol",
  "abi": [
    {
      "inputs": [],
      "name": "InvalidArgument",
      "type": "error"
    },
    {
      "inputs": [
        {
          "internalType": "address",
          "name": "to",
          "type": "address"
        },
        {
          "internalType": "uint256",
          "name": "amount",
          "type": "uint256"
        }
      ],
      "name": "TransferFailed",
      "type": "error"
    },
    {
      "inputs": [
        {
          "internalType": "address[]",
          "name": "tos",
          "type": "address[]"
        },
        {
          "internalType": "uint256[]",
          "name": "amounts",
          "type": "uint256[]"
        }
      ],
      "name": "transfer",
      "outputs": [],
      "stateMutability": "payable",
      "type": "function"
    }
  ],
  "bytecode": "0x608060405234801561001057600080fd5b5060016000556104c6806100256000396000f3fe60806040526004361061001e5760003560e01c8063ffc3a76914610023575b600080fd5b610036610031366004610382565b610038565b005b600260005414156100905760405162461bcd60e51b815260206004820152601f60248201527f5265656e7472616e637947756172643a207265656e7472616e742063616c6c0060448201526064015b60405180910390fd5b600260005580518251146100b75760405163a9cb9e0d60e01b815260040160405180910390fd5b60005b82518110156102255760006001600160a01b03168382815181106100e0576100e0610451565b60200260200101516001600160a01b031614156100fc57610213565b81818151811061010e5761010e610451565b60200260200101516000141561012357610213565b600083828151811061013757610137610451565b60200260200101516001600160a01b031683838151811061015a5761015a610451565b602002602001015160405160006040518083038185875af1925050503d80600081146101a2576040519150601f19603f3d011682016040523d82523d6000602084013e6101a7565b606091505b5050905080610211578382815181106101c2576101c2610451565b60200260200101518383815181106101dc576101dc610451565b6020908102919091010151604051630e21dcbb60e11b81526001600160a01b0390921660048301526024820152604401610087565b505b8061021d81610467565b9150506100ba565b5047610230576102a3565b604051600090339047908381818185875af1925050503d8060008114610272576040519150601f19603f3d011682016040523d82523d6000602084013e610277565b606091505b50509050806102a157604051630e21dcbb60e11b8152336004820152476024820152604401610087565b505b50506001600055565b634e487b7160e01b600052604160045260246000fd5b604051601f8201601f1916810167ffffffffffffffff811182821017156102eb576102eb6102ac565b604052919050565b600067ffffffffffffffff82111561030d5761030d6102ac565b5060051b60200190565b600082601f83011261032857600080fd5b8135602061033d610338836102f3565b6102c2565b82815260059290921b8401810191818101908684111561035c57600080fd5b8286015b848110156103775780358352918301918301610360565b509695505050505050565b6000806040838503121561039557600080fd5b823567ffffffffffffffff808211156103ad57600080fd5b818501915085601f8301126103c157600080fd5b813560206103d1610338836102f3565b82815260059290921b840181019181810190898411156103f057600080fd5b948201945b838610156104245785356001600160a01b03811681146104155760008081fd5b825294820194908201906103f5565b9650508601359250508082111561043a57600080fd5b5061044785828601610317565b9150509250929050565b634e487b7160e01b600052603260045260246000fd5b600060001982141561048957634e487b7160e01b600052601160045260246000fd5b506001019056fea26469706673582212206b6c8bfa597ed0c2331553f82886fad4d471cc566872e5302701c2831b57e1ff64736f6c634300080c0033",
  "linkReferences": {},
  "deployedLinkReferences": {}
}