{
  "_format": "hh-sol-artifact-1",
  "contractName": "Environment",
  "sourceName": "contracts/Environment.sol",
  "abi": [
    {
      "inputs": [],
      "name": "AlreadyInitialized",
      "type": "error"
    },
    {
      "inputs": [],
      "name": "OnlyBlockProducer",
      "type": "error"
    },
    {
      "inputs": [],
      "name": "OnlyNotLastBlock",
      "type": "error"
    },
    {
      "inputs": [],
      "name": "PastEpoch",
      "type": "error"
    },
    {
      "inputs": [
        {
          "internalType": "string",
          "name": "detail",
          "type": "string"
        }
      ],
      "name": "ValidationError",
      "type": "error"
    },
    {
      "inputs": [],
      "name": "epoch",
      "outputs": [
        {
          "internalType": "uint256",
          "name": "",
          "type": "uint256"
        }
      ],
      "stateMutability": "view",
      "type": "function"
    },
    {
      "inputs": [
        {
          "internalType": "uint256",
          "name": "_epoch",
          "type": "uint256"
        }
      ],
      "name": "findValue",
      "outputs": [
        {
          "components": [
            {
              "internalType": "uint256",
              "name": "startBlock",
              "type": "uint256"
            },
            {
              "internalType": "uint256",
              "name": "startEpoch",
              "type": "uint256"
            },
            {
              "internalType": "uint256",
              "name": "blockPeriod",
              "type": "uint256"
            },
            {
              "internalType": "uint256",
              "name": "epochPeriod",
              "type": "uint256"
            },
            {
              "internalType": "uint256",
              "name": "rewardRate",
              "type": "uint256"
            },
            {
              "internalType": "uint256",
              "name": "commissionRate",
              "type": "uint256"
            },
            {
              "internalType": "uint256",
              "name": "validatorThreshold",
              "type": "uint256"
            },
            {
              "internalType": "uint256",
              "name": "jailThreshold",
              "type": "uint256"
            },
            {
              "internalType": "uint256",
              "name": "jailPeriod",
              "type": "uint256"
            }
          ],
          "internalType": "struct IEnvironment.EnvironmentValue",
          "name": "",
          "type": "tuple"
        }
      ],
      "stateMutability": "view",
      "type": "function"
    },
    {
      "inputs": [
        {
          "components": [
            {
              "internalType": "uint256",
              "name": "startBlock",
              "type": "uint256"
            },
            {
              "internalType": "uint256",
              "name": "startEpoch",
              "type": "uint256"
            },
            {
              "internalType": "uint256",
              "name": "blockPeriod",
              "type": "uint256"
            },
            {
              "internalType": "uint256",
              "name": "epochPeriod",
              "type": "uint256"
            },
            {
              "internalType": "uint256",
              "name": "rewardRate",
              "type": "uint256"
            },
            {
              "internalType": "uint256",
              "name": "commissionRate",
              "type": "uint256"
            },
            {
              "internalType": "uint256",
              "name": "validatorThreshold",
              "type": "uint256"
            },
            {
              "internalType": "uint256",
              "name": "jailThreshold",
              "type": "uint256"
            },
            {
              "internalType": "uint256",
              "name": "jailPeriod",
              "type": "uint256"
            }
          ],
          "internalType": "struct IEnvironment.EnvironmentValue",
          "name": "initialValue",
          "type": "tuple"
        }
      ],
      "name": "initialize",
      "outputs": [],
      "stateMutability": "nonpayable",
      "type": "function"
    },
    {
      "inputs": [],
      "name": "initialized",
      "outputs": [
        {
          "internalType": "bool",
          "name": "",
          "type": "bool"
        }
      ],
      "stateMutability": "view",
      "type": "function"
    },
    {
      "inputs": [],
      "name": "isFirstBlock",
      "outputs": [
        {
          "internalType": "bool",
          "name": "",
          "type": "bool"
        }
      ],
      "stateMutability": "view",
      "type": "function"
    },
    {
      "inputs": [],
      "name": "isLastBlock",
      "outputs": [
        {
          "internalType": "bool",
          "name": "",
          "type": "bool"
        }
      ],
      "stateMutability": "view",
      "type": "function"
    },
    {
      "inputs": [],
      "name": "nextValue",
      "outputs": [
        {
          "components": [
            {
              "internalType": "uint256",
              "name": "startBlock",
              "type": "uint256"
            },
            {
              "internalType": "uint256",
              "name": "startEpoch",
              "type": "uint256"
            },
            {
              "internalType": "uint256",
              "name": "blockPeriod",
              "type": "uint256"
            },
            {
              "internalType": "uint256",
              "name": "epochPeriod",
              "type": "uint256"
            },
            {
              "internalType": "uint256",
              "name": "rewardRate",
              "type": "uint256"
            },
            {
              "internalType": "uint256",
              "name": "commissionRate",
              "type": "uint256"
            },
            {
              "internalType": "uint256",
              "name": "validatorThreshold",
              "type": "uint256"
            },
            {
              "internalType": "uint256",
              "name": "jailThreshold",
              "type": "uint256"
            },
            {
              "internalType": "uint256",
              "name": "jailPeriod",
              "type": "uint256"
            }
          ],
          "internalType": "struct IEnvironment.EnvironmentValue",
          "name": "",
          "type": "tuple"
        }
      ],
      "stateMutability": "view",
      "type": "function"
    },
    {
      "inputs": [
        {
          "components": [
            {
              "internalType": "uint256",
              "name": "startBlock",
              "type": "uint256"
            },
            {
              "internalType": "uint256",
              "name": "startEpoch",
              "type": "uint256"
            },
            {
              "internalType": "uint256",
              "name": "blockPeriod",
              "type": "uint256"
            },
            {
              "internalType": "uint256",
              "name": "epochPeriod",
              "type": "uint256"
            },
            {
              "internalType": "uint256",
              "name": "rewardRate",
              "type": "uint256"
            },
            {
              "internalType": "uint256",
              "name": "commissionRate",
              "type": "uint256"
            },
            {
              "internalType": "uint256",
              "name": "validatorThreshold",
              "type": "uint256"
            },
            {
              "internalType": "uint256",
              "name": "jailThreshold",
              "type": "uint256"
            },
            {
              "internalType": "uint256",
              "name": "jailPeriod",
              "type": "uint256"
            }
          ],
          "internalType": "struct IEnvironment.EnvironmentValue",
          "name": "newValue",
          "type": "tuple"
        }
      ],
      "name": "updateValue",
      "outputs": [],
      "stateMutability": "nonpayable",
      "type": "function"
    },
    {
      "inputs": [
        {
          "internalType": "uint256",
          "name": "",
          "type": "uint256"
        }
      ],
      "name": "updates",
      "outputs": [
        {
          "internalType": "uint256",
          "name": "",
          "type": "uint256"
        }
      ],
      "stateMutability": "view",
      "type": "function"
    },
    {
      "inputs": [],
      "name": "value",
      "outputs": [
        {
          "components": [
            {
              "internalType": "uint256",
              "name": "startBlock",
              "type": "uint256"
            },
            {
              "internalType": "uint256",
              "name": "startEpoch",
              "type": "uint256"
            },
            {
              "internalType": "uint256",
              "name": "blockPeriod",
              "type": "uint256"
            },
            {
              "internalType": "uint256",
              "name": "epochPeriod",
              "type": "uint256"
            },
            {
              "internalType": "uint256",
              "name": "rewardRate",
              "type": "uint256"
            },
            {
              "internalType": "uint256",
              "name": "commissionRate",
              "type": "uint256"
            },
            {
              "internalType": "uint256",
              "name": "validatorThreshold",
              "type": "uint256"
            },
            {
              "internalType": "uint256",
              "name": "jailThreshold",
              "type": "uint256"
            },
            {
              "internalType": "uint256",
              "name": "jailPeriod",
              "type": "uint256"
            }
          ],
          "internalType": "struct IEnvironment.EnvironmentValue",
          "name": "",
          "type": "tuple"
        }
      ],
      "stateMutability": "view",
      "type": "function"
    },
    {
      "inputs": [
        {
          "internalType": "uint256",
          "name": "",
          "type": "uint256"
        }
      ],
      "name": "values",
      "outputs": [
        {
          "internalType": "uint256",
          "name": "startBlock",
          "type": "uint256"
        },
        {
          "internalType": "uint256",
          "name": "startEpoch",
          "type": "uint256"
        },
        {
          "internalType": "uint256",
          "name": "blockPeriod",
          "type": "uint256"
        },
        {
          "internalType": "uint256",
          "name": "epochPeriod",
          "type": "uint256"
        },
        {
          "internalType": "uint256",
          "name": "rewardRate",
          "type": "uint256"
        },
        {
          "internalType": "uint256",
          "name": "commissionRate",
          "type": "uint256"
        },
        {
          "internalType": "uint256",
          "name": "validatorThreshold",
          "type": "uint256"
        },
        {
          "internalType": "uint256",
          "name": "jailThreshold",
          "type": "uint256"
        },
        {
          "internalType": "uint256",
          "name": "jailPeriod",
          "type": "uint256"
        }
      ],
      "stateMutability": "view",
      "type": "function"
    }
  ],
  "bytecode": "0x608060405234801561001057600080fd5b5061109e806100206000396000f3fe608060405234801561001057600080fd5b50600436106100a95760003560e01c8063900cf0cf11610071578063900cf0cf146101b9578063b4c2f727146101cf578063bd4eff19146101e2578063ccfb9935146101f5578063d4a53686146101fd578063fcbb371b1461020557600080fd5b806308a54356146100ae578063158ef93e146100c35780633fa4f245146100e55780634ba7ed391461015a5780635e383d2114610162575b600080fd5b6100c16100bc366004610f1c565b610218565b005b6000546100d09060ff1681565b60405190151581526020015b60405180910390f35b6100ed61027e565b6040516100dc9190600061012082019050825182526020830151602083015260408301516040830152606083015160608301526080830151608083015260a083015160a083015260c083015160c083015260e083015160e083015261010080840151818401525092915050565b6100d06102f6565b610175610170366004610f97565b610327565b60408051998a5260208a0198909852968801959095526060870193909352608086019190915260a085015260c084015260e0830152610100820152610120016100dc565b6101c1610385565b6040519081526020016100dc565b6101c16101dd366004610f97565b61039c565b6100c16101f0366004610f1c565b6103bd565b6100ed61047e565b6100d0610563565b6100ed610213366004610f97565b61058e565b33411461023857604051631cf4735960e01b815260040160405180910390fd5b60005460ff161561025b5760405162dc149f60e41b815260040160405180910390fd5b6000805460ff191660019081178255908252602082015261027b8161060c565b50565b610286610e98565b61028e6108f3565b604080516101208101825282548152600183015460208201526002830154918101919091526003820154606082015260048201546080820152600582015460a0820152600682015460c0820152600782015460e0820152600890910154610100820152919050565b6000806103016108f3565b60038101548154919250906103169043610fc6565b6103209190610ff3565b1592915050565b6002818154811061033757600080fd5b90600052602060002090600902016000915090508060000154908060010154908060020154908060030154908060040154908060050154908060060154908060070154908060080154905089565b60006103976103926108f3565b610925565b905090565b600181815481106103ac57600080fd5b600091825260209091200154905081565b3341146103dd57604051631cf4735960e01b815260040160405180910390fd5b6103e5610563565b1561040357604051631e59ccd960e01b815260040160405180910390fd5b61040b610385565b81602001511161042e57604051630eae4c9760e01b815260040160405180910390fd5b6000610438610959565b905061044681439054111590565b1561045c576104558183610997565b8252610471565b61046e826104686109cf565b90610997565b82525b61047a8261060c565b5050565b610486610e98565b60006104906108f3565b9050600061049c610959565b90506000826003015483600101546104b385610925565b6104bd9190610fc6565b6104c8906001611007565b6104d2919061101f565b83546104de9190611007565b90506104ec82829054111590565b6104f657826104f8565b815b604080516101208101825282548152600183015460208201526002830154918101919091526003820154606082015260048201546080820152600582015460a0820152600682015460c0820152600782015460e0820152600890910154610100820152949350505050565b60008061056e6108f3565b60038101548154919250906105839043610fc6565b610316906001611007565b610596610e98565b6105a36001600284610a22565b604080516101208101825282548152600183015460208201526002830154918101919091526003820154606082015260048201546080820152600582015460a0820152600682015460c0820152600782015460e082015260089091015461010082015292915050565b61061581610b09565b60f8461480610625575061249c46145b156106335761063381610d69565b60015480158061067b575061067b43600261064f600185610fc6565b8154811061065f5761065f61103e565b906000526020600020906009020161099090919063ffffffff16565b1561083857506020810180516001805480820182557fb10e2d527612073b26eecdfd717e6a320cf44b4afac2b0732d9fcbe2b7fa0cf6019190915560028054918201815560005282517f405787fa12a823e0f2b7631cc41b3ba8828b3321ca811111fa75cd3aa3bb5ace60099092029182015590517f405787fa12a823e0f2b7631cc41b3ba8828b3321ca811111fa75cd3aa3bb5acf82015560408201517f405787fa12a823e0f2b7631cc41b3ba8828b3321ca811111fa75cd3aa3bb5ad082015560608201517f405787fa12a823e0f2b7631cc41b3ba8828b3321ca811111fa75cd3aa3bb5ad182015560808201517f405787fa12a823e0f2b7631cc41b3ba8828b3321ca811111fa75cd3aa3bb5ad282015560a08201517f405787fa12a823e0f2b7631cc41b3ba8828b3321ca811111fa75cd3aa3bb5ad382015560c08201517f405787fa12a823e0f2b7631cc41b3ba8828b3321ca811111fa75cd3aa3bb5ad482015560e08201517f405787fa12a823e0f2b7631cc41b3ba8828b3321ca811111fa75cd3aa3bb5ad5820155610100909101517f405787fa12a823e0f2b7631cc41b3ba8828b3321ca811111fa75cd3aa3bb5ad690910155565b602082015160016108498184610fc6565b815481106108595761085961103e565b600091825260209091200155816002610873600184610fc6565b815481106108835761088361103e565b9060005260206000209060090201600082015181600001556020820151816001015560408201518160020155606082015181600301556080820151816004015560a0820151816005015560c0820151816006015560e0820151816007015561010082015181600801559050505050565b6000806108fe610959565b905061090c81439054111590565b61091d576109186109cf565b61091f565b805b91505090565b600381015481546000919061093a9043610fc6565b6109449190611054565b82600101546109539190611007565b92915050565b600280546000919061096d90600190610fc6565b8154811061097d5761097d61103e565b9060005260206000209060090201905090565b9054111590565b60008260030154836001015483602001516109b29190610fc6565b6109bc919061101f565b83546109c89190611007565b9392505050565b6002546000906001811415610a065760026000815481106109f2576109f261103e565b906000526020600020906009020191505090565b6002610a128183610fc6565b815481106109f2576109f261103e565b82546000908285610a34600184610fc6565b81548110610a4457610a4461103e565b906000526020600020015411610a865783610a60600183610fc6565b81548110610a7057610a7061103e565b90600052602060002090600902019150506109c8565b600181118015610abc57508285610a9e600284610fc6565b81548110610aae57610aae61103e565b906000526020600020015411155b15610acd5783610a60600283610fc6565b6000610adc8685600085610de5565b9050848181548110610af057610af061103e565b9060005260206000209060090201925050509392505050565b600181604001511015610b645760405163a1b63ceb60e01b815260206004820152601960248201527f626c6f636b506572696f6420697320746f6f20736d616c6c2e0000000000000060448201526064015b60405180910390fd5b600381606001511015610bba5760405163a1b63ceb60e01b815260206004820152601960248201527f65706f6368506572696f6420697320746f6f20736d616c6c2e000000000000006044820152606401610b5b565b606481608001511115610c105760405163a1b63ceb60e01b815260206004820152601860248201527f7265776172645261746520697320746f6f206c617267652e00000000000000006044820152606401610b5b565b60648160a001511115610c665760405163a1b63ceb60e01b815260206004820152601c60248201527f636f6d6d697373696f6e5261746520697320746f6f206c617267652e000000006044820152606401610b5b565b60018160c001511015610cbc5760405163a1b63ceb60e01b815260206004820181905260248201527f76616c696461746f725468726573686f6c6420697320746f6f20736d616c6c2e6044820152606401610b5b565b60018160e001511015610d125760405163a1b63ceb60e01b815260206004820152601b60248201527f6a61696c5468726573686f6c6420697320746f6f20736d616c6c2e00000000006044820152606401610b5b565b6001816101000151101561027b5760405163a1b63ceb60e01b815260206004820152601860248201527f6a61696c506572696f6420697320746f6f20736d616c6c2e00000000000000006044820152606401610b5b565b80606001518160400151610d7d919061101f565b620151801461027b5760405163a1b63ceb60e01b815260206004820152602d60248201527f626c6f636b506572696f642a65706f6368506572696f64206973206e6f74206560448201526c38bab0b6103a379018b230bc9760991b6064820152608401610b5b565b600081831415610e0157610dfa600183610fc6565b9050610e90565b60006002610e0f8486611007565b610e199190611054565b905084868281548110610e2e57610e2e61103e565b90600052602060002001541115610e5357610e4b86868684610de5565b915050610e90565b84868281548110610e6657610e6661103e565b90600052602060002001541015610e8d57610e4b8686610e87846001611007565b86610de5565b90505b949350505050565b6040518061012001604052806000815260200160008152602001600081526020016000815260200160008152602001600081526020016000815260200160008152602001600081525090565b604051610120810167ffffffffffffffff81118282101715610f1657634e487b7160e01b600052604160045260246000fd5b60405290565b60006101208284031215610f2f57600080fd5b610f37610ee4565b823581526020830135602082015260408301356040820152606083013560608201526080830135608082015260a083013560a082015260c083013560c082015260e083013560e08201526101008084013581830152508091505092915050565b600060208284031215610fa957600080fd5b5035919050565b634e487b7160e01b600052601160045260246000fd5b600082821015610fd857610fd8610fb0565b500390565b634e487b7160e01b600052601260045260246000fd5b60008261100257611002610fdd565b500690565b6000821982111561101a5761101a610fb0565b500190565b600081600019048311821515161561103957611039610fb0565b500290565b634e487b7160e01b600052603260045260246000fd5b60008261106357611063610fdd565b50049056fea26469706673582212206834d6e08c8e80df2e5bdd4c11d189f13debbbfe7cde54e68ba1eb50091a589a64736f6c634300080c0033",
  "linkReferences": {},
  "deployedLinkReferences": {}
}