{
  "_format": "hh-sol-artifact-1",
  "contractName": "Environment",
  "sourceName": "contracts/Environment.sol",
  "abi": [
    {
      "inputs": [],
      "name": "AlreadyInitialized",
      "type": "error"
    },
    {
      "inputs": [],
      "name": "OnlyBlockProducer",
      "type": "error"
    },
    {
      "inputs": [],
      "name": "OnlyNotLastBlock",
      "type": "error"
    },
    {
      "inputs": [],
      "name": "PastEpoch",
      "type": "error"
    },
    {
      "inputs": [
        {
          "internalType": "string",
          "name": "detail",
          "type": "string"
        }
      ],
      "name": "ValidationError",
      "type": "error"
    },
    {
      "inputs": [],
      "name": "epoch",
      "outputs": [
        {
          "internalType": "uint256",
          "name": "",
          "type": "uint256"
        }
      ],
      "stateMutability": "view",
      "type": "function"
    },
    {
      "inputs": [
        {
          "internalType": "uint256",
          "name": "_epoch",
          "type": "uint256"
        }
      ],
      "name": "findValue",
      "outputs": [
        {
          "components": [
            {
              "internalType": "uint256",
              "name": "startBlock",
              "type": "uint256"
            },
            {
              "internalType": "uint256",
              "name": "startEpoch",
              "type": "uint256"
            },
            {
              "internalType": "uint256",
              "name": "blockPeriod",
              "type": "uint256"
            },
            {
              "internalType": "uint256",
              "name": "epochPeriod",
              "type": "uint256"
            },
            {
              "internalType": "uint256",
              "name": "rewardRate",
              "type": "uint256"
            },
            {
              "internalType": "uint256",
              "name": "commissionRate",
              "type": "uint256"
            },
            {
              "internalType": "uint256",
              "name": "validatorThreshold",
              "type": "uint256"
            },
            {
              "internalType": "uint256",
              "name": "jailThreshold",
              "type": "uint256"
            },
            {
              "internalType": "uint256",
              "name": "jailPeriod",
              "type": "uint256"
            }
          ],
          "internalType": "struct IEnvironment.EnvironmentValue",
          "name": "",
          "type": "tuple"
        }
      ],
      "stateMutability": "view",
      "type": "function"
    },
    {
      "inputs": [
        {
          "components": [
            {
              "internalType": "uint256",
              "name": "startBlock",
              "type": "uint256"
            },
            {
              "internalType": "uint256",
              "name": "startEpoch",
              "type": "uint256"
            },
            {
              "internalType": "uint256",
              "name": "blockPeriod",
              "type": "uint256"
            },
            {
              "internalType": "uint256",
              "name": "epochPeriod",
              "type": "uint256"
            },
            {
              "internalType": "uint256",
              "name": "rewardRate",
              "type": "uint256"
            },
            {
              "internalType": "uint256",
              "name": "commissionRate",
              "type": "uint256"
            },
            {
              "internalType": "uint256",
              "name": "validatorThreshold",
              "type": "uint256"
            },
            {
              "internalType": "uint256",
              "name": "jailThreshold",
              "type": "uint256"
            },
            {
              "internalType": "uint256",
              "name": "jailPeriod",
              "type": "uint256"
            }
          ],
          "internalType": "struct IEnvironment.EnvironmentValue",
          "name": "initialValue",
          "type": "tuple"
        }
      ],
      "name": "initialize",
      "outputs": [],
      "stateMutability": "nonpayable",
      "type": "function"
    },
    {
      "inputs": [],
      "name": "initialized",
      "outputs": [
        {
          "internalType": "bool",
          "name": "",
          "type": "bool"
        }
      ],
      "stateMutability": "view",
      "type": "function"
    },
    {
      "inputs": [],
      "name": "isFirstBlock",
      "outputs": [
        {
          "internalType": "bool",
          "name": "",
          "type": "bool"
        }
      ],
      "stateMutability": "view",
      "type": "function"
    },
    {
      "inputs": [],
      "name": "isLastBlock",
      "outputs": [
        {
          "internalType": "bool",
          "name": "",
          "type": "bool"
        }
      ],
      "stateMutability": "view",
      "type": "function"
    },
    {
      "inputs": [],
      "name": "nextValue",
      "outputs": [
        {
          "components": [
            {
              "internalType": "uint256",
              "name": "startBlock",
              "type": "uint256"
            },
            {
              "internalType": "uint256",
              "name": "startEpoch",
              "type": "uint256"
            },
            {
              "internalType": "uint256",
              "name": "blockPeriod",
              "type": "uint256"
            },
            {
              "internalType": "uint256",
              "name": "epochPeriod",
              "type": "uint256"
            },
            {
              "internalType": "uint256",
              "name": "rewardRate",
              "type": "uint256"
            },
            {
              "internalType": "uint256",
              "name": "commissionRate",
              "type": "uint256"
            },
            {
              "internalType": "uint256",
              "name": "validatorThreshold",
              "type": "uint256"
            },
            {
              "internalType": "uint256",
              "name": "jailThreshold",
              "type": "uint256"
            },
            {
              "internalType": "uint256",
              "name": "jailPeriod",
              "type": "uint256"
            }
          ],
          "internalType": "struct IEnvironment.EnvironmentValue",
          "name": "",
          "type": "tuple"
        }
      ],
      "stateMutability": "view",
      "type": "function"
    },
    {
      "inputs": [
        {
          "components": [
            {
              "internalType": "uint256",
              "name": "startBlock",
              "type": "uint256"
            },
            {
              "internalType": "uint256",
              "name": "startEpoch",
              "type": "uint256"
            },
            {
              "internalType": "uint256",
              "name": "blockPeriod",
              "type": "uint256"
            },
            {
              "internalType": "uint256",
              "name": "epochPeriod",
              "type": "uint256"
            },
            {
              "internalType": "uint256",
              "name": "rewardRate",
              "type": "uint256"
            },
            {
              "internalType": "uint256",
              "name": "commissionRate",
              "type": "uint256"
            },
            {
              "internalType": "uint256",
              "name": "validatorThreshold",
              "type": "uint256"
            },
            {
              "internalType": "uint256",
              "name": "jailThreshold",
              "type": "uint256"
            },
            {
              "internalType": "uint256",
              "name": "jailPeriod",
              "type": "uint256"
            }
          ],
          "internalType": "struct IEnvironment.EnvironmentValue",
          "name": "newValue",
          "type": "tuple"
        }
      ],
      "name": "updateValue",
      "outputs": [],
      "stateMutability": "nonpayable",
      "type": "function"
    },
    {
      "inputs": [
        {
          "internalType": "uint256",
          "name": "",
          "type": "uint256"
        }
      ],
      "name": "updates",
      "outputs": [
        {
          "internalType": "uint256",
          "name": "",
          "type": "uint256"
        }
      ],
      "stateMutability": "view",
      "type": "function"
    },
    {
      "inputs": [],
      "name": "value",
      "outputs": [
        {
          "components": [
            {
              "internalType": "uint256",
              "name": "startBlock",
              "type": "uint256"
            },
            {
              "internalType": "uint256",
              "name": "startEpoch",
              "type": "uint256"
            },
            {
              "internalType": "uint256",
              "name": "blockPeriod",
              "type": "uint256"
            },
            {
              "internalType": "uint256",
              "name": "epochPeriod",
              "type": "uint256"
            },
            {
              "internalType": "uint256",
              "name": "rewardRate",
              "type": "uint256"
            },
            {
              "internalType": "uint256",
              "name": "commissionRate",
              "type": "uint256"
            },
            {
              "internalType": "uint256",
              "name": "validatorThreshold",
              "type": "uint256"
            },
            {
              "internalType": "uint256",
              "name": "jailThreshold",
              "type": "uint256"
            },
            {
              "internalType": "uint256",
              "name": "jailPeriod",
              "type": "uint256"
            }
          ],
          "internalType": "struct IEnvironment.EnvironmentValue",
          "name": "",
          "type": "tuple"
        }
      ],
      "stateMutability": "view",
      "type": "function"
    },
    {
      "inputs": [
        {
          "internalType": "uint256",
          "name": "",
          "type": "uint256"
        }
      ],
      "name": "values",
      "outputs": [
        {
          "internalType": "uint256",
          "name": "startBlock",
          "type": "uint256"
        },
        {
          "internalType": "uint256",
          "name": "startEpoch",
          "type": "uint256"
        },
        {
          "internalType": "uint256",
          "name": "blockPeriod",
          "type": "uint256"
        },
        {
          "internalType": "uint256",
          "name": "epochPeriod",
          "type": "uint256"
        },
        {
          "internalType": "uint256",
          "name": "rewardRate",
          "type": "uint256"
        },
        {
          "internalType": "uint256",
          "name": "commissionRate",
          "type": "uint256"
        },
        {
          "internalType": "uint256",
          "name": "validatorThreshold",
          "type": "uint256"
        },
        {
          "internalType": "uint256",
          "name": "jailThreshold",
          "type": "uint256"
        },
        {
          "internalType": "uint256",
          "name": "jailPeriod",
          "type": "uint256"
        }
      ],
      "stateMutability": "view",
      "type": "function"
    }
  ],
  "bytecode": "0x608060405234801561001057600080fd5b50611004806100206000396000f3fe608060405234801561001057600080fd5b50600436106100a95760003560e01c8063900cf0cf11610071578063900cf0cf146101b9578063b4c2f727146101cf578063bd4eff19146101e2578063ccfb9935146101f5578063d4a53686146101fd578063fcbb371b1461020557600080fd5b806308a54356146100ae578063158ef93e146100c35780633fa4f245146100e55780634ba7ed391461015a5780635e383d2114610162575b600080fd5b6100c16100bc366004610e82565b610218565b005b6000546100d09060ff1681565b60405190151581526020015b60405180910390f35b6100ed61027e565b6040516100dc9190600061012082019050825182526020830151602083015260408301516040830152606083015160608301526080830151608083015260a083015160a083015260c083015160c083015260e083015160e083015261010080840151818401525092915050565b6100d06102f6565b610175610170366004610efd565b610327565b60408051998a5260208a0198909852968801959095526060870193909352608086019190915260a085015260c084015260e0830152610100820152610120016100dc565b6101c1610385565b6040519081526020016100dc565b6101c16101dd366004610efd565b61039c565b6100c16101f0366004610e82565b6103bd565b6100ed61047e565b6100d0610563565b6100ed610213366004610efd565b61058e565b33411461023857604051631cf4735960e01b815260040160405180910390fd5b60005460ff161561025b5760405162dc149f60e41b815260040160405180910390fd5b6000805460ff191660019081178255908252602082015261027b8161060c565b50565b610286610dfe565b61028e6108d5565b604080516101208101825282548152600183015460208201526002830154918101919091526003820154606082015260048201546080820152600582015460a0820152600682015460c0820152600782015460e0820152600890910154610100820152919050565b6000806103016108d5565b60038101548154919250906103169043610f2c565b6103209190610f59565b1592915050565b6002818154811061033757600080fd5b90600052602060002090600902016000915090508060000154908060010154908060020154908060030154908060040154908060050154908060060154908060070154908060080154905089565b60006103976103926108d5565b610907565b905090565b600181815481106103ac57600080fd5b600091825260209091200154905081565b3341146103dd57604051631cf4735960e01b815260040160405180910390fd5b6103e5610563565b1561040357604051631e59ccd960e01b815260040160405180910390fd5b61040b610385565b81602001511161042e57604051630eae4c9760e01b815260040160405180910390fd5b600061043861093b565b905061044681439054111590565b1561045c576104558183610979565b8252610471565b61046e826104686109b1565b90610979565b82525b61047a8261060c565b5050565b610486610dfe565b60006104906108d5565b9050600061049c61093b565b90506000826003015483600101546104b385610907565b6104bd9190610f2c565b6104c8906001610f6d565b6104d29190610f85565b83546104de9190610f6d565b90506104ec82829054111590565b6104f657826104f8565b815b604080516101208101825282548152600183015460208201526002830154918101919091526003820154606082015260048201546080820152600582015460a0820152600682015460c0820152600782015460e0820152600890910154610100820152949350505050565b60008061056e6108d5565b60038101548154919250906105839043610f2c565b610316906001610f6d565b610596610dfe565b6105a36001600284610a04565b604080516101208101825282548152600183015460208201526002830154918101919091526003820154606082015260048201546080820152600582015460a0820152600682015460c0820152600782015460e082015260089091015461010082015292915050565b61061581610aeb565b60015480158061065d575061065d436002610631600185610f2c565b8154811061064157610641610fa4565b906000526020600020906009020161097290919063ffffffff16565b1561081a57506020810180516001805480820182557fb10e2d527612073b26eecdfd717e6a320cf44b4afac2b0732d9fcbe2b7fa0cf6019190915560028054918201815560005282517f405787fa12a823e0f2b7631cc41b3ba8828b3321ca811111fa75cd3aa3bb5ace60099092029182015590517f405787fa12a823e0f2b7631cc41b3ba8828b3321ca811111fa75cd3aa3bb5acf82015560408201517f405787fa12a823e0f2b7631cc41b3ba8828b3321ca811111fa75cd3aa3bb5ad082015560608201517f405787fa12a823e0f2b7631cc41b3ba8828b3321ca811111fa75cd3aa3bb5ad182015560808201517f405787fa12a823e0f2b7631cc41b3ba8828b3321ca811111fa75cd3aa3bb5ad282015560a08201517f405787fa12a823e0f2b7631cc41b3ba8828b3321ca811111fa75cd3aa3bb5ad382015560c08201517f405787fa12a823e0f2b7631cc41b3ba8828b3321ca811111fa75cd3aa3bb5ad482015560e08201517f405787fa12a823e0f2b7631cc41b3ba8828b3321ca811111fa75cd3aa3bb5ad5820155610100909101517f405787fa12a823e0f2b7631cc41b3ba8828b3321ca811111fa75cd3aa3bb5ad690910155565b6020820151600161082b8184610f2c565b8154811061083b5761083b610fa4565b600091825260209091200155816002610855600184610f2c565b8154811061086557610865610fa4565b9060005260206000209060090201600082015181600001556020820151816001015560408201518160020155606082015181600301556080820151816004015560a0820151816005015560c0820151816006015560e0820151816007015561010082015181600801559050505050565b6000806108e061093b565b90506108ee81439054111590565b6108ff576108fa6109b1565b610901565b805b91505090565b600381015481546000919061091c9043610f2c565b6109269190610fba565b82600101546109359190610f6d565b92915050565b600280546000919061094f90600190610f2c565b8154811061095f5761095f610fa4565b9060005260206000209060090201905090565b9054111590565b60008260030154836001015483602001516109949190610f2c565b61099e9190610f85565b83546109aa9190610f6d565b9392505050565b60025460009060018114156109e85760026000815481106109d4576109d4610fa4565b906000526020600020906009020191505090565b60026109f48183610f2c565b815481106109d4576109d4610fa4565b82546000908285610a16600184610f2c565b81548110610a2657610a26610fa4565b906000526020600020015411610a685783610a42600183610f2c565b81548110610a5257610a52610fa4565b90600052602060002090600902019150506109aa565b600181118015610a9e57508285610a80600284610f2c565b81548110610a9057610a90610fa4565b906000526020600020015411155b15610aaf5783610a42600283610f2c565b6000610abe8685600085610d4b565b9050848181548110610ad257610ad2610fa4565b9060005260206000209060090201925050509392505050565b600181604001511015610b465760405163a1b63ceb60e01b815260206004820152601960248201527f626c6f636b506572696f6420697320746f6f20736d616c6c2e0000000000000060448201526064015b60405180910390fd5b600381606001511015610b9c5760405163a1b63ceb60e01b815260206004820152601960248201527f65706f6368506572696f6420697320746f6f20736d616c6c2e000000000000006044820152606401610b3d565b606481608001511115610bf25760405163a1b63ceb60e01b815260206004820152601860248201527f7265776172645261746520697320746f6f206c617267652e00000000000000006044820152606401610b3d565b60648160a001511115610c485760405163a1b63ceb60e01b815260206004820152601c60248201527f636f6d6d697373696f6e5261746520697320746f6f206c617267652e000000006044820152606401610b3d565b60018160c001511015610c9e5760405163a1b63ceb60e01b815260206004820181905260248201527f76616c696461746f725468726573686f6c6420697320746f6f20736d616c6c2e6044820152606401610b3d565b60018160e001511015610cf45760405163a1b63ceb60e01b815260206004820152601b60248201527f6a61696c5468726573686f6c6420697320746f6f20736d616c6c2e00000000006044820152606401610b3d565b6001816101000151101561027b5760405163a1b63ceb60e01b815260206004820152601860248201527f6a61696c506572696f6420697320746f6f20736d616c6c2e00000000000000006044820152606401610b3d565b600081831415610d6757610d60600183610f2c565b9050610df6565b60006002610d758486610f6d565b610d7f9190610fba565b905084868281548110610d9457610d94610fa4565b90600052602060002001541115610db957610db186868684610d4b565b915050610df6565b84868281548110610dcc57610dcc610fa4565b90600052602060002001541015610df357610db18686610ded846001610f6d565b86610d4b565b90505b949350505050565b6040518061012001604052806000815260200160008152602001600081526020016000815260200160008152602001600081526020016000815260200160008152602001600081525090565b604051610120810167ffffffffffffffff81118282101715610e7c57634e487b7160e01b600052604160045260246000fd5b60405290565b60006101208284031215610e9557600080fd5b610e9d610e4a565b823581526020830135602082015260408301356040820152606083013560608201526080830135608082015260a083013560a082015260c083013560c082015260e083013560e08201526101008084013581830152508091505092915050565b600060208284031215610f0f57600080fd5b5035919050565b634e487b7160e01b600052601160045260246000fd5b600082821015610f3e57610f3e610f16565b500390565b634e487b7160e01b600052601260045260246000fd5b600082610f6857610f68610f43565b500690565b60008219821115610f8057610f80610f16565b500190565b6000816000190483118215151615610f9f57610f9f610f16565b500290565b634e487b7160e01b600052603260045260246000fd5b600082610fc957610fc9610f43565b50049056fea264697066735822122037767202f998a71461c6fd1f440560e015e745ebf87a689f7ca44aa0f1f791e664736f6c634300080c0033",
  "linkReferences": {},
  "deployedLinkReferences": {}
}