{
  "_format": "hh-sol-artifact-1",
  "contractName": "Environment",
  "sourceName": "contracts/Environment.sol",
  "abi": [
    {
      "inputs": [],
      "name": "epoch",
      "outputs": [
        {
          "internalType": "uint256",
          "name": "",
          "type": "uint256"
        }
      ],
      "stateMutability": "view",
      "type": "function"
    },
    {
      "inputs": [],
      "name": "epochAndValues",
      "outputs": [
        {
          "internalType": "uint256[]",
          "name": "epochs",
          "type": "uint256[]"
        },
        {
          "components": [
            {
              "internalType": "uint256",
              "name": "startBlock",
              "type": "uint256"
            },
            {
              "internalType": "uint256",
              "name": "startEpoch",
              "type": "uint256"
            },
            {
              "internalType": "uint256",
              "name": "blockPeriod",
              "type": "uint256"
            },
            {
              "internalType": "uint256",
              "name": "epochPeriod",
              "type": "uint256"
            },
            {
              "internalType": "uint256",
              "name": "rewardRate",
              "type": "uint256"
            },
            {
              "internalType": "uint256",
              "name": "validatorThreshold",
              "type": "uint256"
            },
            {
              "internalType": "uint256",
              "name": "jailThreshold",
              "type": "uint256"
            },
            {
              "internalType": "uint256",
              "name": "jailPeriod",
              "type": "uint256"
            }
          ],
          "internalType": "struct IEnvironment.EnvironmentValue[]",
          "name": "_values",
          "type": "tuple[]"
        }
      ],
      "stateMutability": "view",
      "type": "function"
    },
    {
      "inputs": [
        {
          "components": [
            {
              "internalType": "uint256",
              "name": "startBlock",
              "type": "uint256"
            },
            {
              "internalType": "uint256",
              "name": "startEpoch",
              "type": "uint256"
            },
            {
              "internalType": "uint256",
              "name": "blockPeriod",
              "type": "uint256"
            },
            {
              "internalType": "uint256",
              "name": "epochPeriod",
              "type": "uint256"
            },
            {
              "internalType": "uint256",
              "name": "rewardRate",
              "type": "uint256"
            },
            {
              "internalType": "uint256",
              "name": "validatorThreshold",
              "type": "uint256"
            },
            {
              "internalType": "uint256",
              "name": "jailThreshold",
              "type": "uint256"
            },
            {
              "internalType": "uint256",
              "name": "jailPeriod",
              "type": "uint256"
            }
          ],
          "internalType": "struct IEnvironment.EnvironmentValue",
          "name": "initialValue",
          "type": "tuple"
        }
      ],
      "name": "initialize",
      "outputs": [],
      "stateMutability": "nonpayable",
      "type": "function"
    },
    {
      "inputs": [],
      "name": "initialized",
      "outputs": [
        {
          "internalType": "bool",
          "name": "",
          "type": "bool"
        }
      ],
      "stateMutability": "view",
      "type": "function"
    },
    {
      "inputs": [],
      "name": "isFirstBlock",
      "outputs": [
        {
          "internalType": "bool",
          "name": "",
          "type": "bool"
        }
      ],
      "stateMutability": "view",
      "type": "function"
    },
    {
      "inputs": [],
      "name": "isLastBlock",
      "outputs": [
        {
          "internalType": "bool",
          "name": "",
          "type": "bool"
        }
      ],
      "stateMutability": "view",
      "type": "function"
    },
    {
      "inputs": [],
      "name": "nextValue",
      "outputs": [
        {
          "components": [
            {
              "internalType": "uint256",
              "name": "startBlock",
              "type": "uint256"
            },
            {
              "internalType": "uint256",
              "name": "startEpoch",
              "type": "uint256"
            },
            {
              "internalType": "uint256",
              "name": "blockPeriod",
              "type": "uint256"
            },
            {
              "internalType": "uint256",
              "name": "epochPeriod",
              "type": "uint256"
            },
            {
              "internalType": "uint256",
              "name": "rewardRate",
              "type": "uint256"
            },
            {
              "internalType": "uint256",
              "name": "validatorThreshold",
              "type": "uint256"
            },
            {
              "internalType": "uint256",
              "name": "jailThreshold",
              "type": "uint256"
            },
            {
              "internalType": "uint256",
              "name": "jailPeriod",
              "type": "uint256"
            }
          ],
          "internalType": "struct IEnvironment.EnvironmentValue",
          "name": "",
          "type": "tuple"
        }
      ],
      "stateMutability": "view",
      "type": "function"
    },
    {
      "inputs": [
        {
          "components": [
            {
              "internalType": "uint256",
              "name": "startBlock",
              "type": "uint256"
            },
            {
              "internalType": "uint256",
              "name": "startEpoch",
              "type": "uint256"
            },
            {
              "internalType": "uint256",
              "name": "blockPeriod",
              "type": "uint256"
            },
            {
              "internalType": "uint256",
              "name": "epochPeriod",
              "type": "uint256"
            },
            {
              "internalType": "uint256",
              "name": "rewardRate",
              "type": "uint256"
            },
            {
              "internalType": "uint256",
              "name": "validatorThreshold",
              "type": "uint256"
            },
            {
              "internalType": "uint256",
              "name": "jailThreshold",
              "type": "uint256"
            },
            {
              "internalType": "uint256",
              "name": "jailPeriod",
              "type": "uint256"
            }
          ],
          "internalType": "struct IEnvironment.EnvironmentValue",
          "name": "newValue",
          "type": "tuple"
        }
      ],
      "name": "updateValue",
      "outputs": [],
      "stateMutability": "nonpayable",
      "type": "function"
    },
    {
      "inputs": [
        {
          "internalType": "uint256",
          "name": "",
          "type": "uint256"
        }
      ],
      "name": "updates",
      "outputs": [
        {
          "internalType": "uint256",
          "name": "",
          "type": "uint256"
        }
      ],
      "stateMutability": "view",
      "type": "function"
    },
    {
      "inputs": [],
      "name": "value",
      "outputs": [
        {
          "components": [
            {
              "internalType": "uint256",
              "name": "startBlock",
              "type": "uint256"
            },
            {
              "internalType": "uint256",
              "name": "startEpoch",
              "type": "uint256"
            },
            {
              "internalType": "uint256",
              "name": "blockPeriod",
              "type": "uint256"
            },
            {
              "internalType": "uint256",
              "name": "epochPeriod",
              "type": "uint256"
            },
            {
              "internalType": "uint256",
              "name": "rewardRate",
              "type": "uint256"
            },
            {
              "internalType": "uint256",
              "name": "validatorThreshold",
              "type": "uint256"
            },
            {
              "internalType": "uint256",
              "name": "jailThreshold",
              "type": "uint256"
            },
            {
              "internalType": "uint256",
              "name": "jailPeriod",
              "type": "uint256"
            }
          ],
          "internalType": "struct IEnvironment.EnvironmentValue",
          "name": "",
          "type": "tuple"
        }
      ],
      "stateMutability": "view",
      "type": "function"
    },
    {
      "inputs": [
        {
          "internalType": "uint256",
          "name": "",
          "type": "uint256"
        }
      ],
      "name": "values",
      "outputs": [
        {
          "internalType": "uint256",
          "name": "startBlock",
          "type": "uint256"
        },
        {
          "internalType": "uint256",
          "name": "startEpoch",
          "type": "uint256"
        },
        {
          "internalType": "uint256",
          "name": "blockPeriod",
          "type": "uint256"
        },
        {
          "internalType": "uint256",
          "name": "epochPeriod",
          "type": "uint256"
        },
        {
          "internalType": "uint256",
          "name": "rewardRate",
          "type": "uint256"
        },
        {
          "internalType": "uint256",
          "name": "validatorThreshold",
          "type": "uint256"
        },
        {
          "internalType": "uint256",
          "name": "jailThreshold",
          "type": "uint256"
        },
        {
          "internalType": "uint256",
          "name": "jailPeriod",
          "type": "uint256"
        }
      ],
      "stateMutability": "view",
      "type": "function"
    }
  ],
  "bytecode": "0x608060405234801561001057600080fd5b50610f8e806100206000396000f3fe608060405234801561001057600080fd5b50600436106100a95760003560e01c8063900cf0cf11610071578063900cf0cf146101505780639cf370d714610166578063b4c2f7271461017c578063ccfb99351461018f578063d4a5368614610197578063f38e08e11461019f57600080fd5b806311bff261146100ae578063158ef93e146100c35780633fa4f245146100e55780634ba7ed39146100fa5780635e383d2114610102575b600080fd5b6100c16100bc366004610d06565b6101b2565b005b6000546100d09060ff1681565b60405190151581526020015b60405180910390f35b6100ed610316565b6040516100dc9190610df2565b6100d06103a5565b610115610110366004610e01565b6103c3565b604080519889526020890197909752958701949094526060860192909252608085015260a084015260c083015260e0820152610100016100dc565b61015861041b565b6040519081526020016100dc565b61016e61045a565b6040516100dc929190610e1a565b61015861018a366004610e01565b610565565b6100ed610586565b6100d061065b565b6100c16101ad366004610d06565b61067e565b3341146102065760405162461bcd60e51b815260206004820152601e60248201527f73656e646572206d75737420626520626c6f636b2070726f64756365722e000060448201526064015b60405180910390fd5b61020e61065b565b1561026e5760405162461bcd60e51b815260206004820152602a60248201527f6e6f742065786563757461626c6520696e20746865206c61737420626c6f636b6044820152691037b31032b837b1b41760b11b60648201526084016101fd565b61027661041b565b8160200151116102c85760405162461bcd60e51b815260206004820152601a60248201527f737461727445706f6368206d757374206265206675747572652e00000000000060448201526064016101fd565b60006102d261073a565b90506102de814361078e565b156102f4576102ed818361079a565b8252610309565b610306826103006107d2565b9061079a565b82525b61031282610801565b5050565b61031e610cc1565b600061032861073a565b9050610334814361078e565b610345576103406107d2565b610347565b805b604080516101008101825282548152600183015460208201526002830154918101919091526003820154606082015260048201546080820152600582015460a0820152600682015460c082015260079091015460e082015292915050565b60006103af610316565b606001516103bd9043610eb6565b15919050565b600281815481106103d357600080fd5b90600052602060002090600802016000915090508060000154908060010154908060020154908060030154908060040154908060050154908060060154908060070154905088565b60008061042661073a565b9050610432814361078e565b61044b576104466104416107d2565b610a95565b610454565b61045481610a95565b91505090565b60608060016002818054806020026020016040519081016040528092919081815260200182805480156104ac57602002820191906000526020600020905b815481526020019060010190808311610498575b5050505050915080805480602002602001604051908101604052809291908181526020016000905b8282101561055757838290600052602060002090600802016040518061010001604052908160008201548152602001600182015481526020016002820154815260200160038201548152602001600482015481526020016005820154815260200160068201548152602001600782015481525050815260200190600101906104d4565b505050509050915091509091565b6001818154811061057557600080fd5b600091825260209091200154905081565b61058e610cc1565b6000610598610316565b905060006105a461073a565b90506000826060015183602001516105ba61041b565b6105c49190610ee0565b6105cf906001610ef7565b6105d99190610f0f565b83516105e59190610ef7565b90506105f1828261078e565b6105fb5782610653565b604080516101008101825283548152600184015460208201526002840154918101919091526003830154606082015260048301546080820152600583015460a0820152600683015460c0820152600783015460e08201525b935050505090565b6000610665610316565b60600151610674436001610ef7565b6103bd9190610eb6565b3341146106cd5760405162461bcd60e51b815260206004820152601e60248201527f73656e646572206d75737420626520626c6f636b2070726f64756365722e000060448201526064016101fd565b60005460ff16156107175760405162461bcd60e51b815260206004820152601460248201527330b63932b0b23c9034b734ba34b0b634bd32b21760611b60448201526064016101fd565b6000805460ff191660019081178255908252602082015261073781610801565b50565b600254600090600181141561077157600260008154811061075d5761075d610f2e565b906000526020600020906008020191505090565b600261077e600183610ee0565b8154811061075d5761075d610f2e565b81548110155b92915050565b60008260030154836001015483602001516107b59190610ee0565b6107bf9190610f0f565b83546107cb9190610ef7565b9392505050565b60025460009060018114156107f557600260008154811061075d5761075d610f2e565b600261077e8183610ee0565b61080a81610ac3565b6001548015806108525750610852436002610826600185610ee0565b8154811061083657610836610f2e565b906000526020600020906008020161078e90919063ffffffff16565b156109e557506020810180516001805480820182557fb10e2d527612073b26eecdfd717e6a320cf44b4afac2b0732d9fcbe2b7fa0cf6019190915560028054918201815560005282517f405787fa12a823e0f2b7631cc41b3ba8828b3321ca811111fa75cd3aa3bb5ace60089092029182015590517f405787fa12a823e0f2b7631cc41b3ba8828b3321ca811111fa75cd3aa3bb5acf82015560408201517f405787fa12a823e0f2b7631cc41b3ba8828b3321ca811111fa75cd3aa3bb5ad082015560608201517f405787fa12a823e0f2b7631cc41b3ba8828b3321ca811111fa75cd3aa3bb5ad182015560808201517f405787fa12a823e0f2b7631cc41b3ba8828b3321ca811111fa75cd3aa3bb5ad282015560a08201517f405787fa12a823e0f2b7631cc41b3ba8828b3321ca811111fa75cd3aa3bb5ad382015560c08201517f405787fa12a823e0f2b7631cc41b3ba8828b3321ca811111fa75cd3aa3bb5ad482015560e0909101517f405787fa12a823e0f2b7631cc41b3ba8828b3321ca811111fa75cd3aa3bb5ad590910155565b602082015160016109f68184610ee0565b81548110610a0657610a06610f2e565b600091825260209091200155816002610a20600184610ee0565b81548110610a3057610a30610f2e565b9060005260206000209060080201600082015181600001556020820151816001015560408201518160020155606082015181600301556080820151816004015560a0820151816005015560c0820151816006015560e082015181600701559050505050565b6003810154815460009190610aaa9043610ee0565b610ab49190610f44565b82600101546107949190610ef7565b600181604001511015610b185760405162461bcd60e51b815260206004820152601960248201527f626c6f636b506572696f6420697320746f6f20736d616c6c2e0000000000000060448201526064016101fd565b600381606001511015610b6d5760405162461bcd60e51b815260206004820152601960248201527f65706f6368506572696f6420697320746f6f20736d616c6c2e0000000000000060448201526064016101fd565b606481608001511115610bc25760405162461bcd60e51b815260206004820152601860248201527f7265776172645261746520697320746f6f206c617267652e000000000000000060448201526064016101fd565b60018160a001511015610c175760405162461bcd60e51b815260206004820181905260248201527f76616c696461746f725468726573686f6c6420697320746f6f20736d616c6c2e60448201526064016101fd565b60018160c001511015610c6c5760405162461bcd60e51b815260206004820152601b60248201527f6a61696c5468726573686f6c6420697320746f6f20736d616c6c2e000000000060448201526064016101fd565b60018160e0015110156107375760405162461bcd60e51b815260206004820152601860248201527f6a61696c506572696f6420697320746f6f20736d616c6c2e000000000000000060448201526064016101fd565b60405180610100016040528060008152602001600081526020016000815260200160008152602001600081526020016000815260200160008152602001600081525090565b6000610100808385031215610d1a57600080fd5b6040519081019067ffffffffffffffff82118183101715610d4b57634e487b7160e01b600052604160045260246000fd5b81604052833581526020840135602082015260408401356040820152606084013560608201526080840135608082015260a084013560a082015260c084013560c082015260e084013560e0820152809250505092915050565b805182526020810151602083015260408101516040830152606081015160608301526080810151608083015260a081015160a083015260c081015160c083015260e081015160e08301525050565b61010081016107948284610da4565b600060208284031215610e1357600080fd5b5035919050565b604080825283519082018190526000906020906060840190828701845b82811015610e5357815184529284019290840190600101610e37565b5050508381038285015284518082528583019183019060005b81811015610e9357610e7f838551610da4565b928401926101009290920191600101610e6c565b5090979650505050505050565b634e487b7160e01b600052601260045260246000fd5b600082610ec557610ec5610ea0565b500690565b634e487b7160e01b600052601160045260246000fd5b600082821015610ef257610ef2610eca565b500390565b60008219821115610f0a57610f0a610eca565b500190565b6000816000190483118215151615610f2957610f29610eca565b500290565b634e487b7160e01b600052603260045260246000fd5b600082610f5357610f53610ea0565b50049056fea2646970667358221220384bd9f199c4dd47568e32aa90ea875b6b4a0758f06f30989fcc463eb8e72cef64736f6c63430008090033",
  "linkReferences": {},
  "deployedLinkReferences": {}
}