{
  "_format": "hh-sol-artifact-1",
  "contractName": "CandidateValidatorManager",
  "sourceName": "contracts/CandidateValidatorManager.sol",
  "abi": [
    {
      "inputs": [
        {
          "internalType": "address",
          "name": "_environment",
          "type": "address"
        },
        {
          "internalType": "address",
          "name": "_stakeManager",
          "type": "address"
        },
        {
          "internalType": "address",
          "name": "_highStakes",
          "type": "address"
        }
      ],
      "stateMutability": "nonpayable",
      "type": "constructor"
    },
    {
      "inputs": [],
      "name": "NullAddress",
      "type": "error"
    },
    {
      "inputs": [],
      "name": "PastEpoch",
      "type": "error"
    },
    {
      "inputs": [],
      "name": "UnauthorizedSender",
      "type": "error"
    },
    {
      "inputs": [
        {
          "internalType": "address",
          "name": "validator",
          "type": "address"
        }
      ],
      "name": "afterStakeUpdate",
      "outputs": [],
      "stateMutability": "nonpayable",
      "type": "function"
    },
    {
      "inputs": [],
      "name": "environment",
      "outputs": [
        {
          "internalType": "contract IEnvironment",
          "name": "",
          "type": "address"
        }
      ],
      "stateMutability": "view",
      "type": "function"
    },
    {
      "inputs": [
        {
          "internalType": "uint256",
          "name": "epoch",
          "type": "uint256"
        },
        {
          "internalType": "uint256",
          "name": "cursor",
          "type": "uint256"
        },
        {
          "internalType": "uint256",
          "name": "howMany",
          "type": "uint256"
        }
      ],
      "name": "getAll",
      "outputs": [
        {
          "internalType": "address[]",
          "name": "owners",
          "type": "address[]"
        },
        {
          "internalType": "address[]",
          "name": "operators",
          "type": "address[]"
        },
        {
          "internalType": "bool[]",
          "name": "actives",
          "type": "bool[]"
        },
        {
          "internalType": "bool[]",
          "name": "jailed",
          "type": "bool[]"
        },
        {
          "internalType": "uint256[]",
          "name": "stakes",
          "type": "uint256[]"
        },
        {
          "internalType": "bool[]",
          "name": "candidates",
          "type": "bool[]"
        },
        {
          "internalType": "uint256",
          "name": "newCursor",
          "type": "uint256"
        }
      ],
      "stateMutability": "view",
      "type": "function"
    },
    {
      "inputs": [
        {
          "internalType": "uint256",
          "name": "epoch",
          "type": "uint256"
        },
        {
          "internalType": "uint256",
          "name": "cursor",
          "type": "uint256"
        },
        {
          "internalType": "uint256",
          "name": "howMany",
          "type": "uint256"
        }
      ],
      "name": "getHighStakes",
      "outputs": [
        {
          "internalType": "address[]",
          "name": "owners",
          "type": "address[]"
        },
        {
          "internalType": "address[]",
          "name": "operators",
          "type": "address[]"
        },
        {
          "internalType": "bool[]",
          "name": "actives",
          "type": "bool[]"
        },
        {
          "internalType": "bool[]",
          "name": "jailed",
          "type": "bool[]"
        },
        {
          "internalType": "uint256[]",
          "name": "stakes",
          "type": "uint256[]"
        },
        {
          "internalType": "bool[]",
          "name": "candidates",
          "type": "bool[]"
        },
        {
          "internalType": "uint256",
          "name": "newCursor",
          "type": "uint256"
        }
      ],
      "stateMutability": "view",
      "type": "function"
    },
    {
      "inputs": [],
      "name": "highStakes",
      "outputs": [
        {
          "internalType": "contract IAddressList",
          "name": "",
          "type": "address"
        }
      ],
      "stateMutability": "view",
      "type": "function"
    },
    {
      "inputs": [],
      "name": "stakeManager",
      "outputs": [
        {
          "internalType": "contract IStakeManager",
          "name": "",
          "type": "address"
        }
      ],
      "stateMutability": "view",
      "type": "function"
    }
  ],
  "bytecode": "0x60e06040523480156200001157600080fd5b506040516200135a3803806200135a8339810160408190526200003491620000e7565b6001600160a01b0383166200005c5760405163e99d5ac560e01b815260040160405180910390fd5b6001600160a01b038216620000845760405163e99d5ac560e01b815260040160405180910390fd5b6001600160a01b038116620000ac5760405163e99d5ac560e01b815260040160405180910390fd5b6001600160a01b0392831660805290821660a0521660c05262000131565b80516001600160a01b0381168114620000e257600080fd5b919050565b600080600060608486031215620000fd57600080fd5b6200010884620000ca565b92506200011860208501620000ca565b91506200012860408501620000ca565b90509250925092565b60805160a05160c051611192620001c860003960008181606c01528181610211015281816108f60152818161098b01528181610bb70152610c5a0152600081816101100152818161035e015281816103a00152818161058501528181610a710152610ae501526000818160e901528181610154015281816102be01528181610704015281816107b7015261084b01526111926000f3fe608060405234801561001057600080fd5b50600436106100625760003560e01c80630c53b46c1461006757806321b81652146100ab5780632d73a02f146100d157806374e2b63c146100e45780637542ff951461010b578063ad24c33a14610132575b600080fd5b61008e7f000000000000000000000000000000000000000000000000000000000000000081565b6040516001600160a01b0390911681526020015b60405180910390f35b6100be6100b9366004610ce8565b610147565b6040516100a29796959493929190610d8a565b6100be6100df366004610ce8565b6102ae565b61008e7f000000000000000000000000000000000000000000000000000000000000000081565b61008e7f000000000000000000000000000000000000000000000000000000000000000081565b610145610140366004610e4d565b610395565b005b60608060608060608060007f00000000000000000000000000000000000000000000000000000000000000006001600160a01b031663900cf0cf6040518163ffffffff1660e01b8152600401602060405180830381865afa1580156101b0573d6000803e3d6000fd5b505050506040513d601f19601f820116820180604052508101906101d49190610e71565b8a10156101f457604051630eae4c9760e01b815260040160405180910390fd5b6040516350fd736760e01b8152600481018a9052602481018990527f00000000000000000000000000000000000000000000000000000000000000006001600160a01b0316906350fd7367906044015b600060405180830381865afa158015610261573d6000803e3d6000fd5b505050506040513d6000823e601f3d908101601f191682016040526102899190810190610efb565b9097509050610298878b610411565b9a9e939d50919b50995097965090945092505050565b60608080808080600089610341577f00000000000000000000000000000000000000000000000000000000000000006001600160a01b031663900cf0cf6040518163ffffffff1660e01b8152600401602060405180830381865afa15801561031a573d6000803e3d6000fd5b505050506040513d601f19601f8201168201806040525081019061033e9190610e71565b99505b60405163085a3a2d60e21b8152600481018a9052602481018990527f00000000000000000000000000000000000000000000000000000000000000006001600160a01b031690632168e8b490604401610244565b336001600160a01b037f000000000000000000000000000000000000000000000000000000000000000016146103de57604051630101292160e31b815260040160405180910390fd5b6001600160a01b0381166104055760405163e99d5ac560e01b815260040160405180910390fd5b61040e81610700565b50565b60608060608060606000875190508067ffffffffffffffff81111561043857610438610e8a565b604051908082528060200260200182016040528015610461578160200160208202803683370190505b5095508067ffffffffffffffff81111561047d5761047d610e8a565b6040519080825280602002602001820160405280156104a6578160200160208202803683370190505b5094508067ffffffffffffffff8111156104c2576104c2610e8a565b6040519080825280602002602001820160405280156104eb578160200160208202803683370190505b5093508067ffffffffffffffff81111561050757610507610e8a565b604051908082528060200260200182016040528015610530578160200160208202803683370190505b5092508067ffffffffffffffff81111561054c5761054c610e8a565b604051908082528060200260200182016040528015610575578160200160208202803683370190505b50915060005b818110156106f4577f00000000000000000000000000000000000000000000000000000000000000006001600160a01b031663d1f18ee18a83815181106105c4576105c4610fb5565b60200260200101518a6040518363ffffffff1660e01b81526004016105fe9291906001600160a01b03929092168252602082015260400190565b60a060405180830381865afa15801561061b573d6000803e3d6000fd5b505050506040513d601f19601f8201168201806040525081019061063f9190610fe0565b8b868151811061065157610651610fb5565b602002602001018b878151811061066a5761066a610fb5565b602002602001018b888151811061068357610683610fb5565b602002602001018a898151811061069c5761069c610fb5565b602002602001018c8a815181106106b5576106b5610fb5565b60209081029190910101949094529315159092529215159091529115159091526001600160a01b039091169052806106ec81611056565b91505061057b565b50509295509295909350565b60007f00000000000000000000000000000000000000000000000000000000000000006001600160a01b031663900cf0cf6040518163ffffffff1660e01b8152600401602060405180830381865afa158015610760573d6000803e3d6000fd5b505050506040513d601f19601f820116820180604052508101906107849190610e71565b90506000610793826001611071565b60405163fcbb371b60e01b8152600481018490529091506000906001600160a01b037f0000000000000000000000000000000000000000000000000000000000000000169063fcbb371b9060240161012060405180830381865afa1580156107ff573d6000803e3d6000fd5b505050506040513d601f19601f820116820180604052508101906108239190611089565b60c0015160405163fcbb371b60e01b8152600481018490529091506000906001600160a01b037f0000000000000000000000000000000000000000000000000000000000000000169063fcbb371b9060240161012060405180830381865afa158015610893573d6000803e3d6000fd5b505050506040513d601f19601f820116820180604052508101906108b79190611089565b60c00151604080516060810182526001600160a01b0380891680835292516322bc467160e11b81526004810193909352929350600092909160208301917f000000000000000000000000000000000000000000000000000000000000000016906345788ce290602401602060405180830381865afa15801561093d573d6000803e3d6000fd5b505050506040513d601f19601f820116820180604052508101906109619190611104565b6001600160a01b0390811682526040516355b9f18b60e11b815289821660048201526020909201917f00000000000000000000000000000000000000000000000000000000000000009091169063ab73e31690602401602060405180830381865afa1580156109d4573d6000803e3d6000fd5b505050506040513d601f19601f820116820180604052508101906109f89190611104565b6001600160a01b03169052905060005b60038160ff161015610cdf576000828260ff1660038110610a2b57610a2b610fb5565b602002015190506001600160a01b038116610a465750610ccd565b604051632ee462b360e01b81526001600160a01b0382811660048301526024820189905260009187917f00000000000000000000000000000000000000000000000000000000000000001690632ee462b390604401602060405180830381865afa158015610ab8573d6000803e3d6000fd5b505050506040513d601f19601f82011682018060405250810190610adc9190610e71565b101590506000857f00000000000000000000000000000000000000000000000000000000000000006001600160a01b0316632ee462b3858b6040518363ffffffff1660e01b8152600401610b459291906001600160a01b03929092168252602082015260400190565b602060405180830381865afa158015610b62573d6000803e3d6000fd5b505050506040513d601f19601f82011682018060405250810190610b869190610e71565b101590508180610b935750805b15610c2a57604051630a3b0a4f60e01b81526001600160a01b0384811660048301527f00000000000000000000000000000000000000000000000000000000000000001690630a3b0a4f906024016020604051808303816000875af1158015610c00573d6000803e3d6000fd5b505050506040513d601f19601f82011682018060405250810190610c249190611121565b50610cc9565b81158015610c36575080155b15610cc957604051631484968760e11b81526001600160a01b0384811660048301527f000000000000000000000000000000000000000000000000000000000000000016906329092d0e906024016020604051808303816000875af1158015610ca3573d6000803e3d6000fd5b505050506040513d601f19601f82011682018060405250810190610cc79190611121565b505b5050505b80610cd78161113c565b915050610a08565b50505050505050565b600080600060608486031215610cfd57600080fd5b505081359360208301359350604090920135919050565b600081518084526020808501945080840160005b83811015610d4d5781516001600160a01b031687529582019590820190600101610d28565b509495945050505050565b600081518084526020808501945080840160005b83811015610d4d578151151587529582019590820190600101610d6c565b60e081526000610d9d60e083018a610d14565b602083820381850152610db0828b610d14565b91508382036040850152610dc4828a610d58565b91508382036060850152610dd88289610d58565b8481036080860152875180825282890193509082019060005b81811015610e0d57845183529383019391830191600101610df1565b505084810360a0860152610e218188610d58565b93505050508260c083015298975050505050505050565b6001600160a01b038116811461040e57600080fd5b600060208284031215610e5f57600080fd5b8135610e6a81610e38565b9392505050565b600060208284031215610e8357600080fd5b5051919050565b634e487b7160e01b600052604160045260246000fd5b604051610120810167ffffffffffffffff81118282101715610ec457610ec4610e8a565b60405290565b604051601f8201601f1916810167ffffffffffffffff81118282101715610ef357610ef3610e8a565b604052919050565b60008060408385031215610f0e57600080fd5b825167ffffffffffffffff80821115610f2657600080fd5b818501915085601f830112610f3a57600080fd5b8151602082821115610f4e57610f4e610e8a565b8160051b9250610f5f818401610eca565b8281529284018101928181019089851115610f7957600080fd5b948201945b84861015610fa35785519350610f9384610e38565b8382529482019490820190610f7e565b97909101519698969750505050505050565b634e487b7160e01b600052603260045260246000fd5b80518015158114610fdb57600080fd5b919050565b600080600080600060a08688031215610ff857600080fd5b855161100381610e38565b945061101160208701610fcb565b935061101f60408701610fcb565b925061102d60608701610fcb565b9150608086015190509295509295909350565b634e487b7160e01b600052601160045260246000fd5b600060001982141561106a5761106a611040565b5060010190565b6000821982111561108457611084611040565b500190565b6000610120828403121561109c57600080fd5b6110a4610ea0565b825181526020830151602082015260408301516040820152606083015160608201526080830151608082015260a083015160a082015260c083015160c082015260e083015160e08201526101008084015181830152508091505092915050565b60006020828403121561111657600080fd5b8151610e6a81610e38565b60006020828403121561113357600080fd5b610e6a82610fcb565b600060ff821660ff81141561115357611153611040565b6001019291505056fea264697066735822122082a01584713028389853236ce27242ae2ad212676d5e675565ce1b9469a72f2f64736f6c634300080c0033",
  "linkReferences": {},
  "deployedLinkReferences": {}
}