{
  "_format": "hh-sol-artifact-1",
  "contractName": "SOAS",
  "sourceName": "contracts/token/SOAS.sol",
  "abi": [
    {
      "inputs": [
        {
          "internalType": "address[]",
          "name": "_allowedAddresses",
          "type": "address[]"
        }
      ],
      "stateMutability": "nonpayable",
      "type": "constructor"
    },
    {
      "inputs": [],
      "name": "AlreadyClaimer",
      "type": "error"
    },
    {
      "inputs": [],
      "name": "InvalidClaimPeriod",
      "type": "error"
    },
    {
      "inputs": [],
      "name": "InvalidClaimer",
      "type": "error"
    },
    {
      "inputs": [],
      "name": "InvalidDestination",
      "type": "error"
    },
    {
      "inputs": [],
      "name": "InvalidMinter",
      "type": "error"
    },
    {
      "inputs": [],
      "name": "NoAmount",
      "type": "error"
    },
    {
      "inputs": [],
      "name": "NotUpdatable",
      "type": "error"
    },
    {
      "inputs": [],
      "name": "OverAmount",
      "type": "error"
    },
    {
      "inputs": [],
      "name": "TransferFailed",
      "type": "error"
    },
    {
      "inputs": [],
      "name": "UnauthorizedTransfer",
      "type": "error"
    },
    {
      "anonymous": false,
      "inputs": [
        {
          "indexed": true,
          "internalType": "address",
          "name": "original",
          "type": "address"
        },
        {
          "indexed": true,
          "internalType": "address",
          "name": "transferable",
          "type": "address"
        }
      ],
      "name": "Allow",
      "type": "event"
    },
    {
      "anonymous": false,
      "inputs": [
        {
          "indexed": true,
          "internalType": "address",
          "name": "owner",
          "type": "address"
        },
        {
          "indexed": true,
          "internalType": "address",
          "name": "spender",
          "type": "address"
        },
        {
          "indexed": false,
          "internalType": "uint256",
          "name": "value",
          "type": "uint256"
        }
      ],
      "name": "Approval",
      "type": "event"
    },
    {
      "anonymous": false,
      "inputs": [
        {
          "indexed": true,
          "internalType": "address",
          "name": "holder",
          "type": "address"
        },
        {
          "indexed": false,
          "internalType": "uint256",
          "name": "amount",
          "type": "uint256"
        }
      ],
      "name": "Claim",
      "type": "event"
    },
    {
      "anonymous": false,
      "inputs": [
        {
          "indexed": true,
          "internalType": "address",
          "name": "to",
          "type": "address"
        },
        {
          "indexed": false,
          "internalType": "uint256",
          "name": "amount",
          "type": "uint256"
        },
        {
          "indexed": false,
          "internalType": "uint256",
          "name": "since",
          "type": "uint256"
        },
        {
          "indexed": false,
          "internalType": "uint256",
          "name": "until",
          "type": "uint256"
        }
      ],
      "name": "Mint",
      "type": "event"
    },
    {
      "anonymous": false,
      "inputs": [
        {
          "indexed": true,
          "internalType": "address",
          "name": "holder",
          "type": "address"
        },
        {
          "indexed": false,
          "internalType": "uint256",
          "name": "amount",
          "type": "uint256"
        }
      ],
      "name": "Renounce",
      "type": "event"
    },
    {
      "anonymous": false,
      "inputs": [
        {
          "indexed": true,
          "internalType": "address",
          "name": "original",
          "type": "address"
        },
        {
          "indexed": false,
          "internalType": "bool",
          "name": "denied",
          "type": "bool"
        }
      ],
      "name": "ToggleDenyUpdate",
      "type": "event"
    },
    {
      "anonymous": false,
      "inputs": [
        {
          "indexed": true,
          "internalType": "address",
          "name": "from",
          "type": "address"
        },
        {
          "indexed": true,
          "internalType": "address",
          "name": "to",
          "type": "address"
        },
        {
          "indexed": false,
          "internalType": "uint256",
          "name": "value",
          "type": "uint256"
        }
      ],
      "name": "Transfer",
      "type": "event"
    },
    {
      "anonymous": false,
      "inputs": [
        {
          "indexed": true,
          "internalType": "address",
          "name": "original",
          "type": "address"
        },
        {
          "indexed": false,
          "internalType": "uint256",
          "name": "since",
          "type": "uint256"
        },
        {
          "indexed": false,
          "internalType": "uint256",
          "name": "until",
          "type": "uint256"
        }
      ],
      "name": "UpdateClaimPeriod",
      "type": "event"
    },
    {
      "inputs": [
        {
          "internalType": "address",
          "name": "original",
          "type": "address"
        },
        {
          "internalType": "address[]",
          "name": "alloweds",
          "type": "address[]"
        }
      ],
      "name": "allow",
      "outputs": [],
      "stateMutability": "nonpayable",
      "type": "function"
    },
    {
      "inputs": [
        {
          "internalType": "address",
          "name": "original",
          "type": "address"
        },
        {
          "internalType": "address",
          "name": "allowed",
          "type": "address"
        }
      ],
      "name": "allow",
      "outputs": [],
      "stateMutability": "nonpayable",
      "type": "function"
    },
    {
      "inputs": [
        {
          "internalType": "address",
          "name": "owner",
          "type": "address"
        },
        {
          "internalType": "address",
          "name": "spender",
          "type": "address"
        }
      ],
      "name": "allowance",
      "outputs": [
        {
          "internalType": "uint256",
          "name": "",
          "type": "uint256"
        }
      ],
      "stateMutability": "view",
      "type": "function"
    },
    {
      "inputs": [
        {
          "internalType": "uint256",
          "name": "",
          "type": "uint256"
        }
      ],
      "name": "allowedAddresses",
      "outputs": [
        {
          "internalType": "address",
          "name": "",
          "type": "address"
        }
      ],
      "stateMutability": "view",
      "type": "function"
    },
    {
      "inputs": [
        {
          "internalType": "address",
          "name": "spender",
          "type": "address"
        },
        {
          "internalType": "uint256",
          "name": "amount",
          "type": "uint256"
        }
      ],
      "name": "approve",
      "outputs": [
        {
          "internalType": "bool",
          "name": "",
          "type": "bool"
        }
      ],
      "stateMutability": "nonpayable",
      "type": "function"
    },
    {
      "inputs": [
        {
          "internalType": "address",
          "name": "account",
          "type": "address"
        }
      ],
      "name": "balanceOf",
      "outputs": [
        {
          "internalType": "uint256",
          "name": "",
          "type": "uint256"
        }
      ],
      "stateMutability": "view",
      "type": "function"
    },
    {
      "inputs": [
        {
          "internalType": "uint256",
          "name": "amount",
          "type": "uint256"
        }
      ],
      "name": "claim",
      "outputs": [],
      "stateMutability": "nonpayable",
      "type": "function"
    },
    {
      "inputs": [
        {
          "internalType": "address",
          "name": "",
          "type": "address"
        }
      ],
      "name": "claimInfo",
      "outputs": [
        {
          "internalType": "uint256",
          "name": "amount",
          "type": "uint256"
        },
        {
          "internalType": "uint256",
          "name": "claimed",
          "type": "uint256"
        },
        {
          "internalType": "uint64",
          "name": "since",
          "type": "uint64"
        },
        {
          "internalType": "uint64",
          "name": "until",
          "type": "uint64"
        },
        {
          "internalType": "address",
          "name": "from",
          "type": "address"
        },
        {
          "internalType": "bool",
          "name": "denyUpdate",
          "type": "bool"
        }
      ],
      "stateMutability": "view",
      "type": "function"
    },
    {
      "inputs": [],
      "name": "decimals",
      "outputs": [
        {
          "internalType": "uint8",
          "name": "",
          "type": "uint8"
        }
      ],
      "stateMutability": "view",
      "type": "function"
    },
    {
      "inputs": [
        {
          "internalType": "address",
          "name": "spender",
          "type": "address"
        },
        {
          "internalType": "uint256",
          "name": "subtractedValue",
          "type": "uint256"
        }
      ],
      "name": "decreaseAllowance",
      "outputs": [
        {
          "internalType": "bool",
          "name": "",
          "type": "bool"
        }
      ],
      "stateMutability": "nonpayable",
      "type": "function"
    },
    {
      "inputs": [
        {
          "internalType": "address",
          "name": "original",
          "type": "address"
        }
      ],
      "name": "getClaimableOAS",
      "outputs": [
        {
          "internalType": "uint256",
          "name": "",
          "type": "uint256"
        }
      ],
      "stateMutability": "view",
      "type": "function"
    },
    {
      "inputs": [
        {
          "internalType": "address",
          "name": "spender",
          "type": "address"
        },
        {
          "internalType": "uint256",
          "name": "addedValue",
          "type": "uint256"
        }
      ],
      "name": "increaseAllowance",
      "outputs": [
        {
          "internalType": "bool",
          "name": "",
          "type": "bool"
        }
      ],
      "stateMutability": "nonpayable",
      "type": "function"
    },
    {
      "inputs": [
        {
          "internalType": "address",
          "name": "to",
          "type": "address"
        },
        {
          "internalType": "uint64",
          "name": "since",
          "type": "uint64"
        },
        {
          "internalType": "uint64",
          "name": "until",
          "type": "uint64"
        }
      ],
      "name": "mint",
      "outputs": [],
      "stateMutability": "payable",
      "type": "function"
    },
    {
      "inputs": [],
      "name": "name",
      "outputs": [
        {
          "internalType": "string",
          "name": "",
          "type": "string"
        }
      ],
      "stateMutability": "view",
      "type": "function"
    },
    {
      "inputs": [
        {
          "internalType": "address",
          "name": "",
          "type": "address"
        }
      ],
      "name": "originalClaimer",
      "outputs": [
        {
          "internalType": "address",
          "name": "",
          "type": "address"
        }
      ],
      "stateMutability": "view",
      "type": "function"
    },
    {
      "inputs": [
        {
          "internalType": "uint256",
          "name": "amount",
          "type": "uint256"
        }
      ],
      "name": "renounce",
      "outputs": [],
      "stateMutability": "nonpayable",
      "type": "function"
    },
    {
      "inputs": [],
      "name": "symbol",
      "outputs": [
        {
          "internalType": "string",
          "name": "",
          "type": "string"
        }
      ],
      "stateMutability": "view",
      "type": "function"
    },
    {
      "inputs": [],
      "name": "toggleDenyUpdate",
      "outputs": [],
      "stateMutability": "nonpayable",
      "type": "function"
    },
    {
      "inputs": [],
      "name": "totalSupply",
      "outputs": [
        {
          "internalType": "uint256",
          "name": "",
          "type": "uint256"
        }
      ],
      "stateMutability": "view",
      "type": "function"
    },
    {
      "inputs": [
        {
          "internalType": "address",
          "name": "to",
          "type": "address"
        },
        {
          "internalType": "uint256",
          "name": "amount",
          "type": "uint256"
        }
      ],
      "name": "transfer",
      "outputs": [
        {
          "internalType": "bool",
          "name": "",
          "type": "bool"
        }
      ],
      "stateMutability": "nonpayable",
      "type": "function"
    },
    {
      "inputs": [
        {
          "internalType": "address[]",
          "name": "tos",
          "type": "address[]"
        },
        {
          "internalType": "uint256[]",
          "name": "amounts",
          "type": "uint256[]"
        }
      ],
      "name": "transfer",
      "outputs": [
        {
          "internalType": "bool",
          "name": "",
          "type": "bool"
        }
      ],
      "stateMutability": "nonpayable",
      "type": "function"
    },
    {
      "inputs": [
        {
          "internalType": "address",
          "name": "from",
          "type": "address"
        },
        {
          "internalType": "address",
          "name": "to",
          "type": "address"
        },
        {
          "internalType": "uint256",
          "name": "amount",
          "type": "uint256"
        }
      ],
      "name": "transferFrom",
      "outputs": [
        {
          "internalType": "bool",
          "name": "",
          "type": "bool"
        }
      ],
      "stateMutability": "nonpayable",
      "type": "function"
    },
    {
      "inputs": [
        {
          "internalType": "address[]",
          "name": "froms",
          "type": "address[]"
        },
        {
          "internalType": "address[]",
          "name": "tos",
          "type": "address[]"
        },
        {
          "internalType": "uint256[]",
          "name": "amounts",
          "type": "uint256[]"
        }
      ],
      "name": "transferFrom",
      "outputs": [
        {
          "internalType": "bool",
          "name": "",
          "type": "bool"
        }
      ],
      "stateMutability": "nonpayable",
      "type": "function"
    },
    {
      "inputs": [
        {
          "internalType": "address",
          "name": "original",
          "type": "address"
        },
        {
          "internalType": "uint64",
          "name": "since",
          "type": "uint64"
        },
        {
          "internalType": "uint64",
          "name": "until",
          "type": "uint64"
        }
      ],
      "name": "updateClaimPeriod",
      "outputs": [],
      "stateMutability": "nonpayable",
      "type": "function"
    }
  ],
  "bytecode": "0x60806040523480156200001157600080fd5b5060405162002261380380620022618339810160408190526200003491620001eb565b604080518082018252600c81526b5374616b61626c65204f415360a01b602080830191825283518085019094526004845263534f415360e01b9084015281519192916200008491600391620000ba565b5080516200009a906004906020840190620000ba565b50508151620000b29150600590602084019062000149565b5050620002fa565b828054620000c890620002bd565b90600052602060002090601f016020900481019282620000ec576000855562000137565b82601f106200010757805160ff191683800117855562000137565b8280016001018555821562000137579182015b82811115620001375782518255916020019190600101906200011a565b5062000145929150620001a1565b5090565b82805482825590600052602060002090810192821562000137579160200282015b828111156200013757825182546001600160a01b0319166001600160a01b039091161782556020909201916001909101906200016a565b5b80821115620001455760008155600101620001a2565b634e487b7160e01b600052604160045260246000fd5b80516001600160a01b0381168114620001e657600080fd5b919050565b60006020808385031215620001ff57600080fd5b82516001600160401b03808211156200021757600080fd5b818501915085601f8301126200022c57600080fd5b815181811115620002415762000241620001b8565b8060051b604051601f19603f83011681018181108582111715620002695762000269620001b8565b6040529182528482019250838101850191888311156200028857600080fd5b938501935b82851015620002b157620002a185620001ce565b845293850193928501926200028d565b98975050505050505050565b600181811c90821680620002d257607f821691505b60208210811415620002f457634e487b7160e01b600052602260045260246000fd5b50919050565b611f57806200030a6000396000f3fe60806040526004361061014b5760003560e01c8063775ad527116100b6578063a9059cbb1161006f578063a9059cbb146103c9578063ac7f84fc146103e9578063d97830b114610409578063dd62ed3e146104ba578063f94a138b14610500578063ffc3a7691461052057600080fd5b8063775ad527146103095780637de6b1db1461032957806392de74821461034957806395d89b411461037f5780639635847514610394578063a457c2d7146103a957600080fd5b8063379607f511610108578063379607f5146102285780633950935114610248578063546cec3e1461026857806364b55bed1461027b5780636dec93f1146102b357806370a08231146102d357600080fd5b806306fdde0314610150578063095ea7b31461017b57806318160ddd146101ab57806323b872dd146101ca5780632e87d48c146101ea578063313ce5671461020c575b600080fd5b34801561015c57600080fd5b50610165610540565b6040516101729190611a0c565b60405180910390f35b34801561018757600080fd5b5061019b610196366004611a7d565b6105d2565b6040519015158152602001610172565b3480156101b757600080fd5b506002545b604051908152602001610172565b3480156101d657600080fd5b5061019b6101e5366004611aa7565b6105ec565b3480156101f657600080fd5b5061020a610205366004611bbe565b610610565b005b34801561021857600080fd5b5060405160128152602001610172565b34801561023457600080fd5b5061020a610243366004611c0b565b610693565b34801561025457600080fd5b5061019b610263366004611a7d565b610800565b61020a610276366004611c3b565b61083f565b34801561028757600080fd5b5061029b610296366004611c0b565b610aa4565b6040516001600160a01b039091168152602001610172565b3480156102bf57600080fd5b506101bc6102ce366004611c7e565b610ace565b3480156102df57600080fd5b506101bc6102ee366004611c7e565b6001600160a01b031660009081526020819052604090205490565b34801561031557600080fd5b5061020a610324366004611c99565b610bde565b34801561033557600080fd5b5061020a610344366004611c0b565b610c29565b34801561035557600080fd5b5061029b610364366004611c7e565b6007602052600090815260409020546001600160a01b031681565b34801561038b57600080fd5b50610165610d6a565b3480156103a057600080fd5b5061020a610d79565b3480156103b557600080fd5b5061019b6103c4366004611a7d565b610e56565b3480156103d557600080fd5b5061019b6103e4366004611a7d565b610eed565b3480156103f557600080fd5b5061020a610404366004611c3b565b610efb565b34801561041557600080fd5b50610475610424366004611c7e565b6006602052600090815260409020805460018201546002830154600390930154919290916001600160401b0380831692600160401b900416906001600160a01b03811690600160a01b900460ff1686565b6040805196875260208701959095526001600160401b0393841694860194909452911660608401526001600160a01b03166080830152151560a082015260c001610172565b3480156104c657600080fd5b506101bc6104d5366004611c99565b6001600160a01b03918216600090815260016020908152604080832093909416825291909152205490565b34801561050c57600080fd5b5061019b61051b366004611d27565b61104f565b34801561052c57600080fd5b5061019b61053b366004611dae565b611138565b60606003805461054f90611e07565b80601f016020809104026020016040519081016040528092919081815260200182805461057b90611e07565b80156105c85780601f1061059d576101008083540402835291602001916105c8565b820191906000526020600020905b8154815290600101906020018083116105ab57829003601f168201915b5050505050905090565b6000336105e08185856111f7565b60019150505b92915050565b6000336105fa85828561131b565b6106058585856113ad565b506001949350505050565b6001600160a01b0382811660009081526006602052604090206003015416331461064d5760405163d8d5894f60e01b815260040160405180910390fd5b60005b815181101561068e5761067c8383838151811061066f5761066f611e42565b6020026020010151611586565b8061068681611e6e565b915050610650565b505050565b806106b157604051637bc90c0560e11b815260040160405180910390fd5b336000818152600760208181526040808420546001600160a01b0316808552600683529084206001810154958552929091529092906106ef90610ace565b6106f99190611e89565b90508083111561071c576040516377dfdf2160e01b815260040160405180910390fd5b828260010160008282546107309190611ea0565b9091555061074090503384611619565b604051600090339085908381818185875af1925050503d8060008114610782576040519150601f19603f3d011682016040523d82523d6000602084013e610787565b606091505b50509050806107a9576040516312171d8360e31b815260040160405180910390fd5b336000908152600760209081526040918290205491518681526001600160a01b03909216917f47cee97cb7acd717b3c0aa1435d004cd5b3c8c57d70dbceb4e4458bbd60e39d491015b60405180910390a250505050565b3360008181526001602090815260408083206001600160a01b03871684529091528120549091906105e0908290869061083a908790611ea0565b6111f7565b6001600160a01b03831615806108b457506108b460058054806020026020016040519081016040528092919081815260200182805480156108a957602002820191906000526020600020905b81546001600160a01b0316815260019091019060200180831161088b575b505050505084611773565b156108d25760405163ac6b05f560e01b815260040160405180910390fd5b6001600160a01b03838116600090815260076020526040902054161561090b57604051630fb356f360e21b815260040160405180910390fd5b42826001600160401b03161115806109355750806001600160401b0316826001600160401b031610155b1561095357604051636385801560e11b815260040160405180910390fd5b3461097157604051637bc90c0560e11b815260040160405180910390fd5b61097b83346117d9565b6040805160c08101825234808252600060208084018281526001600160401b0380891686880190815288821660608801908152336080890190815260a089018781526001600160a01b038e8116808a52600689528c8a209b518c55965160018c0155935160028b01805494518716600160401b026001600160801b031990951691909616179290921790935591516003909701805492511515600160a01b026001600160a81b03199093169790911696909617179094556007905283902080546001600160a01b03191683179055915190917fb4c03061fb5b7fed76389d5af8f2e0ddb09f8c70d1333abbb62582835e10accb91610a979190869086909283526001600160401b03918216602084015216604082015260600190565b60405180910390a2505050565b60058181548110610ab457600080fd5b6000918252602090912001546001600160a01b0316905081565b6001600160a01b038181166000908152600660209081526040808320815160c081018352815480825260018301549482019490945260028201546001600160401b0380821694830194909452600160401b90049092166060830152600301549384166080820152600160a01b90930460ff16151560a0840152909190610b575750600092915050565b80604001516001600160401b0316421015610b755750600092915050565b600081604001518260600151610b8b9190611eb8565b6001600160401b031682604001516001600160401b031642610bad9190611e89565b8351610bb99190611ee0565b610bc39190611eff565b8251909150811115610bd757505192915050565b9392505050565b6001600160a01b03828116600090815260066020526040902060030154163314610c1b5760405163d8d5894f60e01b815260040160405180910390fd5b610c258282611586565b5050565b80610c4757604051637bc90c0560e11b815260040160405180910390fd5b336000908152600760209081526040808320546001600160a01b031683526006909152902060018101548154610c7d9190611e89565b821115610c9d576040516377dfdf2160e01b815260040160405180910390fd5b610ca73383611619565b60038101546040516000916001600160a01b03169084908381818185875af1925050503d8060008114610cf6576040519150601f19603f3d011682016040523d82523d6000602084013e610cfb565b606091505b5050905080610d1d576040516312171d8360e31b815260040160405180910390fd5b336000908152600760209081526040918290205491518581526001600160a01b03909216917f443630e54cc5dd8826c25d7467193a3b7a0a67b4ed73c14fb477e8e7eed3fd489101610a97565b60606004805461054f90611e07565b336000818152600760205260409020546001600160a01b031614610daf576040516208978560e71b815260040160405180910390fd5b3360009081526006602052604090206002810154426001600160401b0390911611610ded5760405163be08281560e01b815260040160405180910390fd5b60038101805460ff600160a01b808304821615810260ff60a01b19909316929092179283905560405133937f8724a540733241f1d02ef7cea5353deaa33be27379bcde5f7e82c02e7a5ef6a193610e4b939104161515815260200190565b60405180910390a250565b3360008181526001602090815260408083206001600160a01b038716845290915281205490919083811015610ee05760405162461bcd60e51b815260206004820152602560248201527f45524332303a2064656372656173656420616c6c6f77616e63652062656c6f77604482015264207a65726f60d81b60648201526084015b60405180910390fd5b61060582868684036111f7565b6000336105e08185856113ad565b42826001600160401b0316111580610f255750806001600160401b0316826001600160401b031610155b15610f4357604051636385801560e11b815260040160405180910390fd5b6001600160a01b03808416600090815260066020526040902060038101549091163314610f835760405163d8d5894f60e01b815260040160405180910390fd5b6003810154600160a01b900460ff1615610fb05760405163be08281560e01b815260040160405180910390fd5b6002810154426001600160401b0390911611610fdf5760405163be08281560e01b815260040160405180910390fd5b6002810180546001600160401b038581166001600160801b03199092168217600160401b918616918202179092556040805191825260208201929092526001600160a01b038616917fd2ef2ec7ca1dada801de91830a386e4212322ddf2f1267dbd1fff65b611f657791016107f2565b600082518451148015611063575081518351145b6110c35760405162461bcd60e51b815260206004820152602b60248201527f534f41533a2062756c6b207472616e7366657246726f6d2061726773206d757360448201526a7420626520657175616c7360a81b6064820152608401610ed7565b60005b8451811015610605576111258582815181106110e4576110e4611e42565b60200260200101518583815181106110fe576110fe611e42565b602002602001015185848151811061111857611118611e42565b60200260200101516105ec565b508061113081611e6e565b9150506110c6565b6000815183511461119b5760405162461bcd60e51b815260206004820152602760248201527f534f41533a2062756c6b207472616e736665722061726773206d75737420626560448201526620657175616c7360c81b6064820152608401610ed7565b3360005b8451811015610605576111e5828683815181106111be576111be611e42565b60200260200101518684815181106111d8576111d8611e42565b60200260200101516113ad565b806111ef81611e6e565b91505061119f565b6001600160a01b0383166112595760405162461bcd60e51b8152602060048201526024808201527f45524332303a20617070726f76652066726f6d20746865207a65726f206164646044820152637265737360e01b6064820152608401610ed7565b6001600160a01b0382166112ba5760405162461bcd60e51b815260206004820152602260248201527f45524332303a20617070726f766520746f20746865207a65726f206164647265604482015261737360f01b6064820152608401610ed7565b6001600160a01b0383811660008181526001602090815260408083209487168084529482529182902085905590518481527f8c5be1e5ebec7d5bd14f71427d1e84f3dd0314c0f7b2291e5b200ac8c7c3b925910160405180910390a3505050565b6001600160a01b0383811660009081526001602090815260408083209386168352929052205460001981146113a7578181101561139a5760405162461bcd60e51b815260206004820152601d60248201527f45524332303a20696e73756666696369656e7420616c6c6f77616e63650000006044820152606401610ed7565b6113a784848484036111f7565b50505050565b6001600160a01b0383166114115760405162461bcd60e51b815260206004820152602560248201527f45524332303a207472616e736665722066726f6d20746865207a65726f206164604482015264647265737360d81b6064820152608401610ed7565b6001600160a01b0382166114735760405162461bcd60e51b815260206004820152602360248201527f45524332303a207472616e7366657220746f20746865207a65726f206164647260448201526265737360e81b6064820152608401610ed7565b61147e8383836118c4565b6001600160a01b038316600090815260208190526040902054818110156114f65760405162461bcd60e51b815260206004820152602660248201527f45524332303a207472616e7366657220616d6f756e7420657863656564732062604482015265616c616e636560d01b6064820152608401610ed7565b6001600160a01b0380851660009081526020819052604080822085850390559185168152908120805484929061152d908490611ea0565b92505081905550826001600160a01b0316846001600160a01b03167fddf252ad1be2c89b69c2b068fc378daa952ba7f163c4a11628f55a4df523b3ef8460405161157991815260200190565b60405180910390a36113a7565b6001600160a01b0381811660009081526007602052604090205416156115bf57604051630fb356f360e21b815260040160405180910390fd5b6001600160a01b0381811660008181526007602052604080822080546001600160a01b0319169487169485179055519192917fdc5d0ac53741544fef2e2ae9b2c8006a9e56f9708377f300d8e825f8d411617d9190a35050565b6001600160a01b0382166116795760405162461bcd60e51b815260206004820152602160248201527f45524332303a206275726e2066726f6d20746865207a65726f206164647265736044820152607360f81b6064820152608401610ed7565b611685826000836118c4565b6001600160a01b038216600090815260208190526040902054818110156116f95760405162461bcd60e51b815260206004820152602260248201527f45524332303a206275726e20616d6f756e7420657863656564732062616c616e604482015261636560f01b6064820152608401610ed7565b6001600160a01b0383166000908152602081905260408120838303905560028054849290611728908490611e89565b90915550506040518281526000906001600160a01b038516907fddf252ad1be2c89b69c2b068fc378daa952ba7f163c4a11628f55a4df523b3ef9060200160405180910390a3505050565b6000805b83518110156117cf57826001600160a01b031684828151811061179c5761179c611e42565b60200260200101516001600160a01b031614156117bd5760019150506105e6565b806117c781611e6e565b915050611777565b5060009392505050565b6001600160a01b03821661182f5760405162461bcd60e51b815260206004820152601f60248201527f45524332303a206d696e7420746f20746865207a65726f2061646472657373006044820152606401610ed7565b61183b600083836118c4565b806002600082825461184d9190611ea0565b90915550506001600160a01b0382166000908152602081905260408120805483929061187a908490611ea0565b90915550506040518181526001600160a01b038316906000907fddf252ad1be2c89b69c2b068fc378daa952ba7f163c4a11628f55a4df523b3ef9060200160405180910390a35050565b6001600160a01b03831615806118e157506001600160a01b038216155b156118eb57505050565b61194d60058054806020026020016040519081016040528092919081815260200182805480156108a9576020028201919060005260206000209081546001600160a01b0316815260019091019060200180831161088b57505050505084611773565b806119b757506119b760058054806020026020016040519081016040528092919081815260200182805480156119ac57602002820191906000526020600020905b81546001600160a01b0316815260019091019060200180831161198e575b505050505083611773565b156119c157505050565b6001600160a01b038083166000908152600760205260408082205486841683529120548216911614156119f357505050565b6040516325cdf54f60e21b815260040160405180910390fd5b600060208083528351808285015260005b81811015611a3957858101830151858201604001528201611a1d565b81811115611a4b576000604083870101525b50601f01601f1916929092016040019392505050565b80356001600160a01b0381168114611a7857600080fd5b919050565b60008060408385031215611a9057600080fd5b611a9983611a61565b946020939093013593505050565b600080600060608486031215611abc57600080fd5b611ac584611a61565b9250611ad360208501611a61565b9150604084013590509250925092565b634e487b7160e01b600052604160045260246000fd5b604051601f8201601f191681016001600160401b0381118282101715611b2157611b21611ae3565b604052919050565b60006001600160401b03821115611b4257611b42611ae3565b5060051b60200190565b600082601f830112611b5d57600080fd5b81356020611b72611b6d83611b29565b611af9565b82815260059290921b84018101918181019086841115611b9157600080fd5b8286015b84811015611bb357611ba681611a61565b8352918301918301611b95565b509695505050505050565b60008060408385031215611bd157600080fd5b611bda83611a61565b915060208301356001600160401b03811115611bf557600080fd5b611c0185828601611b4c565b9150509250929050565b600060208284031215611c1d57600080fd5b5035919050565b80356001600160401b0381168114611a7857600080fd5b600080600060608486031215611c5057600080fd5b611c5984611a61565b9250611c6760208501611c24565b9150611c7560408501611c24565b90509250925092565b600060208284031215611c9057600080fd5b610bd782611a61565b60008060408385031215611cac57600080fd5b611cb583611a61565b9150611cc360208401611a61565b90509250929050565b600082601f830112611cdd57600080fd5b81356020611ced611b6d83611b29565b82815260059290921b84018101918181019086841115611d0c57600080fd5b8286015b84811015611bb35780358352918301918301611d10565b600080600060608486031215611d3c57600080fd5b83356001600160401b0380821115611d5357600080fd5b611d5f87838801611b4c565b94506020860135915080821115611d7557600080fd5b611d8187838801611b4c565b93506040860135915080821115611d9757600080fd5b50611da486828701611ccc565b9150509250925092565b60008060408385031215611dc157600080fd5b82356001600160401b0380821115611dd857600080fd5b611de486838701611b4c565b93506020850135915080821115611dfa57600080fd5b50611c0185828601611ccc565b600181811c90821680611e1b57607f821691505b60208210811415611e3c57634e487b7160e01b600052602260045260246000fd5b50919050565b634e487b7160e01b600052603260045260246000fd5b634e487b7160e01b600052601160045260246000fd5b6000600019821415611e8257611e82611e58565b5060010190565b600082821015611e9b57611e9b611e58565b500390565b60008219821115611eb357611eb3611e58565b500190565b60006001600160401b0383811690831681811015611ed857611ed8611e58565b039392505050565b6000816000190483118215151615611efa57611efa611e58565b500290565b600082611f1c57634e487b7160e01b600052601260045260246000fd5b50049056fea264697066735822122050b7c6c671ddaf3cf4429c882af7087dfb7d3f0171920ca56f15b93a98a8760164736f6c634300080c0033",
  "linkReferences": {},
  "deployedLinkReferences": {}
}