{
  "_format": "hh-sol-artifact-1",
  "contractName": "SOAS",
  "sourceName": "contracts/token/SOAS.sol",
  "abi": [
    {
      "inputs": [
        {
          "internalType": "address[]",
          "name": "_allowedAddresses",
          "type": "address[]"
        }
      ],
      "stateMutability": "nonpayable",
      "type": "constructor"
    },
    {
      "inputs": [],
      "name": "AlreadyClaimer",
      "type": "error"
    },
    {
      "inputs": [],
      "name": "InvalidClaimPeriod",
      "type": "error"
    },
    {
      "inputs": [],
      "name": "InvalidDestination",
      "type": "error"
    },
    {
      "inputs": [],
      "name": "InvalidMinter",
      "type": "error"
    },
    {
      "inputs": [],
      "name": "NoAmount",
      "type": "error"
    },
    {
      "inputs": [],
      "name": "NotUpdatable",
      "type": "error"
    },
    {
      "inputs": [],
      "name": "OverAmount",
      "type": "error"
    },
    {
      "inputs": [],
      "name": "TransferFailed",
      "type": "error"
    },
    {
      "inputs": [],
      "name": "UnauthorizedTransfer",
      "type": "error"
    },
    {
      "anonymous": false,
      "inputs": [
        {
          "indexed": true,
          "internalType": "address",
          "name": "original",
          "type": "address"
        },
        {
          "indexed": true,
          "internalType": "address",
          "name": "transferable",
          "type": "address"
        }
      ],
      "name": "Allow",
      "type": "event"
    },
    {
      "anonymous": false,
      "inputs": [
        {
          "indexed": true,
          "internalType": "address",
          "name": "owner",
          "type": "address"
        },
        {
          "indexed": true,
          "internalType": "address",
          "name": "spender",
          "type": "address"
        },
        {
          "indexed": false,
          "internalType": "uint256",
          "name": "value",
          "type": "uint256"
        }
      ],
      "name": "Approval",
      "type": "event"
    },
    {
      "anonymous": false,
      "inputs": [
        {
          "indexed": true,
          "internalType": "address",
          "name": "holder",
          "type": "address"
        },
        {
          "indexed": false,
          "internalType": "uint256",
          "name": "amount",
          "type": "uint256"
        }
      ],
      "name": "Claim",
      "type": "event"
    },
    {
      "anonymous": false,
      "inputs": [
        {
          "indexed": true,
          "internalType": "address",
          "name": "to",
          "type": "address"
        },
        {
          "indexed": false,
          "internalType": "uint256",
          "name": "amount",
          "type": "uint256"
        },
        {
          "indexed": false,
          "internalType": "uint256",
          "name": "since",
          "type": "uint256"
        },
        {
          "indexed": false,
          "internalType": "uint256",
          "name": "until",
          "type": "uint256"
        }
      ],
      "name": "Mint",
      "type": "event"
    },
    {
      "anonymous": false,
      "inputs": [
        {
          "indexed": true,
          "internalType": "address",
          "name": "holder",
          "type": "address"
        },
        {
          "indexed": false,
          "internalType": "uint256",
          "name": "amount",
          "type": "uint256"
        }
      ],
      "name": "Renounce",
      "type": "event"
    },
    {
      "anonymous": false,
      "inputs": [
        {
          "indexed": true,
          "internalType": "address",
          "name": "from",
          "type": "address"
        },
        {
          "indexed": true,
          "internalType": "address",
          "name": "to",
          "type": "address"
        },
        {
          "indexed": false,
          "internalType": "uint256",
          "name": "value",
          "type": "uint256"
        }
      ],
      "name": "Transfer",
      "type": "event"
    },
    {
      "anonymous": false,
      "inputs": [
        {
          "indexed": true,
          "internalType": "address",
          "name": "original",
          "type": "address"
        },
        {
          "indexed": false,
          "internalType": "uint256",
          "name": "since",
          "type": "uint256"
        },
        {
          "indexed": false,
          "internalType": "uint256",
          "name": "until",
          "type": "uint256"
        }
      ],
      "name": "UpdateClaimInfo",
      "type": "event"
    },
    {
      "inputs": [
        {
          "internalType": "address",
          "name": "original",
          "type": "address"
        },
        {
          "internalType": "address[]",
          "name": "alloweds",
          "type": "address[]"
        }
      ],
      "name": "allow",
      "outputs": [],
      "stateMutability": "nonpayable",
      "type": "function"
    },
    {
      "inputs": [
        {
          "internalType": "address",
          "name": "original",
          "type": "address"
        },
        {
          "internalType": "address",
          "name": "allowed",
          "type": "address"
        }
      ],
      "name": "allow",
      "outputs": [],
      "stateMutability": "nonpayable",
      "type": "function"
    },
    {
      "inputs": [
        {
          "internalType": "address",
          "name": "owner",
          "type": "address"
        },
        {
          "internalType": "address",
          "name": "spender",
          "type": "address"
        }
      ],
      "name": "allowance",
      "outputs": [
        {
          "internalType": "uint256",
          "name": "",
          "type": "uint256"
        }
      ],
      "stateMutability": "view",
      "type": "function"
    },
    {
      "inputs": [
        {
          "internalType": "uint256",
          "name": "",
          "type": "uint256"
        }
      ],
      "name": "allowedAddresses",
      "outputs": [
        {
          "internalType": "address",
          "name": "",
          "type": "address"
        }
      ],
      "stateMutability": "view",
      "type": "function"
    },
    {
      "inputs": [
        {
          "internalType": "address",
          "name": "spender",
          "type": "address"
        },
        {
          "internalType": "uint256",
          "name": "amount",
          "type": "uint256"
        }
      ],
      "name": "approve",
      "outputs": [
        {
          "internalType": "bool",
          "name": "",
          "type": "bool"
        }
      ],
      "stateMutability": "nonpayable",
      "type": "function"
    },
    {
      "inputs": [
        {
          "internalType": "address",
          "name": "account",
          "type": "address"
        }
      ],
      "name": "balanceOf",
      "outputs": [
        {
          "internalType": "uint256",
          "name": "",
          "type": "uint256"
        }
      ],
      "stateMutability": "view",
      "type": "function"
    },
    {
      "inputs": [
        {
          "internalType": "uint256",
          "name": "amount",
          "type": "uint256"
        }
      ],
      "name": "claim",
      "outputs": [],
      "stateMutability": "nonpayable",
      "type": "function"
    },
    {
      "inputs": [
        {
          "internalType": "address",
          "name": "",
          "type": "address"
        }
      ],
      "name": "claimInfo",
      "outputs": [
        {
          "internalType": "uint256",
          "name": "amount",
          "type": "uint256"
        },
        {
          "internalType": "uint256",
          "name": "claimed",
          "type": "uint256"
        },
        {
          "internalType": "uint64",
          "name": "since",
          "type": "uint64"
        },
        {
          "internalType": "uint64",
          "name": "until",
          "type": "uint64"
        },
        {
          "internalType": "address",
          "name": "from",
          "type": "address"
        }
      ],
      "stateMutability": "view",
      "type": "function"
    },
    {
      "inputs": [],
      "name": "decimals",
      "outputs": [
        {
          "internalType": "uint8",
          "name": "",
          "type": "uint8"
        }
      ],
      "stateMutability": "view",
      "type": "function"
    },
    {
      "inputs": [
        {
          "internalType": "address",
          "name": "spender",
          "type": "address"
        },
        {
          "internalType": "uint256",
          "name": "subtractedValue",
          "type": "uint256"
        }
      ],
      "name": "decreaseAllowance",
      "outputs": [
        {
          "internalType": "bool",
          "name": "",
          "type": "bool"
        }
      ],
      "stateMutability": "nonpayable",
      "type": "function"
    },
    {
      "inputs": [
        {
          "internalType": "address",
          "name": "original",
          "type": "address"
        }
      ],
      "name": "getClaimableOAS",
      "outputs": [
        {
          "internalType": "uint256",
          "name": "",
          "type": "uint256"
        }
      ],
      "stateMutability": "view",
      "type": "function"
    },
    {
      "inputs": [
        {
          "internalType": "address",
          "name": "spender",
          "type": "address"
        },
        {
          "internalType": "uint256",
          "name": "addedValue",
          "type": "uint256"
        }
      ],
      "name": "increaseAllowance",
      "outputs": [
        {
          "internalType": "bool",
          "name": "",
          "type": "bool"
        }
      ],
      "stateMutability": "nonpayable",
      "type": "function"
    },
    {
      "inputs": [
        {
          "internalType": "address",
          "name": "to",
          "type": "address"
        },
        {
          "internalType": "uint64",
          "name": "since",
          "type": "uint64"
        },
        {
          "internalType": "uint64",
          "name": "until",
          "type": "uint64"
        }
      ],
      "name": "mint",
      "outputs": [],
      "stateMutability": "payable",
      "type": "function"
    },
    {
      "inputs": [],
      "name": "name",
      "outputs": [
        {
          "internalType": "string",
          "name": "",
          "type": "string"
        }
      ],
      "stateMutability": "view",
      "type": "function"
    },
    {
      "inputs": [
        {
          "internalType": "address",
          "name": "",
          "type": "address"
        }
      ],
      "name": "originalClaimer",
      "outputs": [
        {
          "internalType": "address",
          "name": "",
          "type": "address"
        }
      ],
      "stateMutability": "view",
      "type": "function"
    },
    {
      "inputs": [
        {
          "internalType": "uint256",
          "name": "amount",
          "type": "uint256"
        }
      ],
      "name": "renounce",
      "outputs": [],
      "stateMutability": "nonpayable",
      "type": "function"
    },
    {
      "inputs": [],
      "name": "symbol",
      "outputs": [
        {
          "internalType": "string",
          "name": "",
          "type": "string"
        }
      ],
      "stateMutability": "view",
      "type": "function"
    },
    {
      "inputs": [],
      "name": "totalSupply",
      "outputs": [
        {
          "internalType": "uint256",
          "name": "",
          "type": "uint256"
        }
      ],
      "stateMutability": "view",
      "type": "function"
    },
    {
      "inputs": [
        {
          "internalType": "address",
          "name": "to",
          "type": "address"
        },
        {
          "internalType": "uint256",
          "name": "amount",
          "type": "uint256"
        }
      ],
      "name": "transfer",
      "outputs": [
        {
          "internalType": "bool",
          "name": "",
          "type": "bool"
        }
      ],
      "stateMutability": "nonpayable",
      "type": "function"
    },
    {
      "inputs": [
        {
          "internalType": "address[]",
          "name": "tos",
          "type": "address[]"
        },
        {
          "internalType": "uint256[]",
          "name": "amounts",
          "type": "uint256[]"
        }
      ],
      "name": "transfer",
      "outputs": [
        {
          "internalType": "bool",
          "name": "",
          "type": "bool"
        }
      ],
      "stateMutability": "nonpayable",
      "type": "function"
    },
    {
      "inputs": [
        {
          "internalType": "address",
          "name": "from",
          "type": "address"
        },
        {
          "internalType": "address",
          "name": "to",
          "type": "address"
        },
        {
          "internalType": "uint256",
          "name": "amount",
          "type": "uint256"
        }
      ],
      "name": "transferFrom",
      "outputs": [
        {
          "internalType": "bool",
          "name": "",
          "type": "bool"
        }
      ],
      "stateMutability": "nonpayable",
      "type": "function"
    },
    {
      "inputs": [
        {
          "internalType": "address[]",
          "name": "froms",
          "type": "address[]"
        },
        {
          "internalType": "address[]",
          "name": "tos",
          "type": "address[]"
        },
        {
          "internalType": "uint256[]",
          "name": "amounts",
          "type": "uint256[]"
        }
      ],
      "name": "transferFrom",
      "outputs": [
        {
          "internalType": "bool",
          "name": "",
          "type": "bool"
        }
      ],
      "stateMutability": "nonpayable",
      "type": "function"
    },
    {
      "inputs": [
        {
          "internalType": "address",
          "name": "original",
          "type": "address"
        },
        {
          "internalType": "uint64",
          "name": "since",
          "type": "uint64"
        },
        {
          "internalType": "uint64",
          "name": "until",
          "type": "uint64"
        }
      ],
      "name": "updateClaimInfo",
      "outputs": [],
      "stateMutability": "nonpayable",
      "type": "function"
    }
  ],
  "bytecode": "0x60806040523480156200001157600080fd5b5060405162002140380380620021408339810160408190526200003491620001eb565b604080518082018252600c81526b5374616b61626c65204f415360a01b602080830191825283518085019094526004845263534f415360e01b9084015281519192916200008491600391620000ba565b5080516200009a906004906020840190620000ba565b50508151620000b29150600590602084019062000149565b5050620002fa565b828054620000c890620002bd565b90600052602060002090601f016020900481019282620000ec576000855562000137565b82601f106200010757805160ff191683800117855562000137565b8280016001018555821562000137579182015b82811115620001375782518255916020019190600101906200011a565b5062000145929150620001a1565b5090565b82805482825590600052602060002090810192821562000137579160200282015b828111156200013757825182546001600160a01b0319166001600160a01b039091161782556020909201916001909101906200016a565b5b80821115620001455760008155600101620001a2565b634e487b7160e01b600052604160045260246000fd5b80516001600160a01b0381168114620001e657600080fd5b919050565b60006020808385031215620001ff57600080fd5b82516001600160401b03808211156200021757600080fd5b818501915085601f8301126200022c57600080fd5b815181811115620002415762000241620001b8565b8060051b604051601f19603f83011681018181108582111715620002695762000269620001b8565b6040529182528482019250838101850191888311156200028857600080fd5b938501935b82851015620002b157620002a185620001ce565b845293850193928501926200028d565b98975050505050505050565b600181811c90821680620002d257607f821691505b60208210811415620002f457634e487b7160e01b600052602260045260246000fd5b50919050565b611e36806200030a6000396000f3fe6080604052600436106101405760003560e01c80636dec93f1116100b6578063a457c2d71161006f578063a457c2d7146103a9578063a9059cbb146103c9578063d97830b1146103e9578063dd62ed3e14610486578063f94a138b146104cc578063ffc3a769146104ec57600080fd5b80636dec93f1146102c857806370a08231146102e8578063775ad5271461031e5780637de6b1db1461033e57806392de74821461035e57806395d89b411461039457600080fd5b8063313ce56711610108578063313ce56714610201578063379607f51461021d578063395093511461023d578063546cec3e1461025d57806360594f911461027057806364b55bed1461029057600080fd5b806306fdde0314610145578063095ea7b31461017057806318160ddd146101a057806323b872dd146101bf5780632e87d48c146101df575b600080fd5b34801561015157600080fd5b5061015a61050c565b60405161016791906118eb565b60405180910390f35b34801561017c57600080fd5b5061019061018b36600461195c565b61059e565b6040519015158152602001610167565b3480156101ac57600080fd5b506002545b604051908152602001610167565b3480156101cb57600080fd5b506101906101da366004611986565b6105b8565b3480156101eb57600080fd5b506101ff6101fa366004611a9d565b6105dc565b005b34801561020d57600080fd5b5060405160128152602001610167565b34801561022957600080fd5b506101ff610238366004611aea565b61065f565b34801561024957600080fd5b5061019061025836600461195c565b6107cb565b6101ff61026b366004611b1a565b61080a565b34801561027c57600080fd5b506101ff61028b366004611b1a565b610a55565b34801561029c57600080fd5b506102b06102ab366004611aea565b610bc6565b6040516001600160a01b039091168152602001610167565b3480156102d457600080fd5b506101b16102e3366004611b5d565b610bf0565b3480156102f457600080fd5b506101b1610303366004611b5d565b6001600160a01b031660009081526020819052604090205490565b34801561032a57600080fd5b506101ff610339366004611b78565b610cee565b34801561034a57600080fd5b506101ff610359366004611aea565b610d39565b34801561036a57600080fd5b506102b0610379366004611b5d565b6007602052600090815260409020546001600160a01b031681565b3480156103a057600080fd5b5061015a610e7a565b3480156103b557600080fd5b506101906103c436600461195c565b610e89565b3480156103d557600080fd5b506101906103e436600461195c565b610f20565b3480156103f557600080fd5b50610449610404366004611b5d565b6006602052600090815260409020805460018201546002830154600390930154919290916001600160401b0380831692600160401b900416906001600160a01b031685565b6040805195865260208601949094526001600160401b03928316938501939093521660608301526001600160a01b0316608082015260a001610167565b34801561049257600080fd5b506101b16104a1366004611b78565b6001600160a01b03918216600090815260016020908152604080832093909416825291909152205490565b3480156104d857600080fd5b506101906104e7366004611c06565b610f2e565b3480156104f857600080fd5b50610190610507366004611c8d565b611017565b60606003805461051b90611ce6565b80601f016020809104026020016040519081016040528092919081815260200182805461054790611ce6565b80156105945780601f1061056957610100808354040283529160200191610594565b820191906000526020600020905b81548152906001019060200180831161057757829003601f168201915b5050505050905090565b6000336105ac8185856110d6565b60019150505b92915050565b6000336105c68582856111fa565b6105d185858561128c565b506001949350505050565b6001600160a01b038281166000908152600660205260409020600301541633146106195760405163d8d5894f60e01b815260040160405180910390fd5b60005b815181101561065a576106488383838151811061063b5761063b611d21565b6020026020010151611465565b8061065281611d4d565b91505061061c565b505050565b8061067d57604051637bc90c0560e11b815260040160405180910390fd5b336000818152600760208181526040808420546001600160a01b0316808552600683529084206001810154958552929091529092906106bb90610bf0565b6106c59190611d68565b9050808311156106e8576040516377dfdf2160e01b815260040160405180910390fd5b828260010160008282546106fc9190611d7f565b9091555061070c905033846114f8565b604051600090339085908381818185875af1925050503d806000811461074e576040519150601f19603f3d011682016040523d82523d6000602084013e610753565b606091505b5050905080610775576040516312171d8360e31b815260040160405180910390fd5b336000908152600760209081526040918290205491518681526001600160a01b03909216917f47cee97cb7acd717b3c0aa1435d004cd5b3c8c57d70dbceb4e4458bbd60e39d4910160405180910390a250505050565b3360008181526001602090815260408083206001600160a01b03871684529091528120549091906105ac9082908690610805908790611d7f565b6110d6565b6001600160a01b038316158061087f575061087f600580548060200260200160405190810160405280929190818152602001828054801561087457602002820191906000526020600020905b81546001600160a01b03168152600190910190602001808311610856575b505050505084611652565b1561089d5760405163ac6b05f560e01b815260040160405180910390fd5b6001600160a01b0383811660009081526007602052604090205416156108d657604051630fb356f360e21b815260040160405180910390fd5b42826001600160401b03161115806109005750806001600160401b0316826001600160401b031610155b1561091e57604051636385801560e11b815260040160405180910390fd5b3461093c57604051637bc90c0560e11b815260040160405180910390fd5b61094683346116b8565b6040805160a08101825234808252600060208084018281526001600160401b038089168688019081528882166060880190815233608089019081526001600160a01b038d8116808952600688528b89209a518b55955160018b0155925160028a01805493518616600160401b026001600160801b0319909416919095161791909117909255905160039096018054969091166001600160a01b031996871617905560079091529084902080549093168117909255915190917fb4c03061fb5b7fed76389d5af8f2e0ddb09f8c70d1333abbb62582835e10accb91610a489190869086909283526001600160401b03918216602084015216604082015260600190565b60405180910390a2505050565b6001600160a01b03808416600090815260066020526040902060038101549091163314610a955760405163d8d5894f60e01b815260040160405180910390fd5b6002810154600160401b90046001600160401b03164210610ac95760405163be08281560e01b815260040160405180910390fd5b60008160010154610ad986610bf0565b610ae39190611d68565b90508015610b045760405163be08281560e01b815260040160405180910390fd5b42846001600160401b0316111580610b2e5750826001600160401b0316846001600160401b031610155b15610b4c57604051636385801560e11b815260040160405180910390fd5b6002820180546001600160401b038681166001600160801b03199092168217600160401b918716918202179092556040805191825260208201929092526001600160a01b038716917f90e9b5d875812f981bcc0df4768d48cedb9f3768bbd9de9e16f5aa7c235317d2910160405180910390a25050505050565b60058181548110610bd657600080fd5b6000918252602090912001546001600160a01b0316905081565b6001600160a01b038082166000908152600660209081526040808320815160a081018352815480825260018301549482019490945260028201546001600160401b0380821694830194909452600160401b90049092166060830152600301549093166080840152909190610c675750600092915050565b80604001516001600160401b0316421015610c855750600092915050565b600081604001518260600151610c9b9190611d97565b6001600160401b031682604001516001600160401b031642610cbd9190611d68565b8351610cc99190611dbf565b610cd39190611dde565b8251909150811115610ce757505192915050565b9392505050565b6001600160a01b03828116600090815260066020526040902060030154163314610d2b5760405163d8d5894f60e01b815260040160405180910390fd5b610d358282611465565b5050565b80610d5757604051637bc90c0560e11b815260040160405180910390fd5b336000908152600760209081526040808320546001600160a01b031683526006909152902060018101548154610d8d9190611d68565b821115610dad576040516377dfdf2160e01b815260040160405180910390fd5b610db733836114f8565b60038101546040516000916001600160a01b03169084908381818185875af1925050503d8060008114610e06576040519150601f19603f3d011682016040523d82523d6000602084013e610e0b565b606091505b5050905080610e2d576040516312171d8360e31b815260040160405180910390fd5b336000908152600760209081526040918290205491518581526001600160a01b03909216917f443630e54cc5dd8826c25d7467193a3b7a0a67b4ed73c14fb477e8e7eed3fd489101610a48565b60606004805461051b90611ce6565b3360008181526001602090815260408083206001600160a01b038716845290915281205490919083811015610f135760405162461bcd60e51b815260206004820152602560248201527f45524332303a2064656372656173656420616c6c6f77616e63652062656c6f77604482015264207a65726f60d81b60648201526084015b60405180910390fd5b6105d182868684036110d6565b6000336105ac81858561128c565b600082518451148015610f42575081518351145b610fa25760405162461bcd60e51b815260206004820152602b60248201527f534f41533a2062756c6b207472616e7366657246726f6d2061726773206d757360448201526a7420626520657175616c7360a81b6064820152608401610f0a565b60005b84518110156105d157611004858281518110610fc357610fc3611d21565b6020026020010151858381518110610fdd57610fdd611d21565b6020026020010151858481518110610ff757610ff7611d21565b60200260200101516105b8565b508061100f81611d4d565b915050610fa5565b6000815183511461107a5760405162461bcd60e51b815260206004820152602760248201527f534f41533a2062756c6b207472616e736665722061726773206d75737420626560448201526620657175616c7360c81b6064820152608401610f0a565b3360005b84518110156105d1576110c48286838151811061109d5761109d611d21565b60200260200101518684815181106110b7576110b7611d21565b602002602001015161128c565b806110ce81611d4d565b91505061107e565b6001600160a01b0383166111385760405162461bcd60e51b8152602060048201526024808201527f45524332303a20617070726f76652066726f6d20746865207a65726f206164646044820152637265737360e01b6064820152608401610f0a565b6001600160a01b0382166111995760405162461bcd60e51b815260206004820152602260248201527f45524332303a20617070726f766520746f20746865207a65726f206164647265604482015261737360f01b6064820152608401610f0a565b6001600160a01b0383811660008181526001602090815260408083209487168084529482529182902085905590518481527f8c5be1e5ebec7d5bd14f71427d1e84f3dd0314c0f7b2291e5b200ac8c7c3b925910160405180910390a3505050565b6001600160a01b03838116600090815260016020908152604080832093861683529290522054600019811461128657818110156112795760405162461bcd60e51b815260206004820152601d60248201527f45524332303a20696e73756666696369656e7420616c6c6f77616e63650000006044820152606401610f0a565b61128684848484036110d6565b50505050565b6001600160a01b0383166112f05760405162461bcd60e51b815260206004820152602560248201527f45524332303a207472616e736665722066726f6d20746865207a65726f206164604482015264647265737360d81b6064820152608401610f0a565b6001600160a01b0382166113525760405162461bcd60e51b815260206004820152602360248201527f45524332303a207472616e7366657220746f20746865207a65726f206164647260448201526265737360e81b6064820152608401610f0a565b61135d8383836117a3565b6001600160a01b038316600090815260208190526040902054818110156113d55760405162461bcd60e51b815260206004820152602660248201527f45524332303a207472616e7366657220616d6f756e7420657863656564732062604482015265616c616e636560d01b6064820152608401610f0a565b6001600160a01b0380851660009081526020819052604080822085850390559185168152908120805484929061140c908490611d7f565b92505081905550826001600160a01b0316846001600160a01b03167fddf252ad1be2c89b69c2b068fc378daa952ba7f163c4a11628f55a4df523b3ef8460405161145891815260200190565b60405180910390a3611286565b6001600160a01b03818116600090815260076020526040902054161561149e57604051630fb356f360e21b815260040160405180910390fd5b6001600160a01b0381811660008181526007602052604080822080546001600160a01b0319169487169485179055519192917fdc5d0ac53741544fef2e2ae9b2c8006a9e56f9708377f300d8e825f8d411617d9190a35050565b6001600160a01b0382166115585760405162461bcd60e51b815260206004820152602160248201527f45524332303a206275726e2066726f6d20746865207a65726f206164647265736044820152607360f81b6064820152608401610f0a565b611564826000836117a3565b6001600160a01b038216600090815260208190526040902054818110156115d85760405162461bcd60e51b815260206004820152602260248201527f45524332303a206275726e20616d6f756e7420657863656564732062616c616e604482015261636560f01b6064820152608401610f0a565b6001600160a01b0383166000908152602081905260408120838303905560028054849290611607908490611d68565b90915550506040518281526000906001600160a01b038516907fddf252ad1be2c89b69c2b068fc378daa952ba7f163c4a11628f55a4df523b3ef9060200160405180910390a3505050565b6000805b83518110156116ae57826001600160a01b031684828151811061167b5761167b611d21565b60200260200101516001600160a01b0316141561169c5760019150506105b2565b806116a681611d4d565b915050611656565b5060009392505050565b6001600160a01b03821661170e5760405162461bcd60e51b815260206004820152601f60248201527f45524332303a206d696e7420746f20746865207a65726f2061646472657373006044820152606401610f0a565b61171a600083836117a3565b806002600082825461172c9190611d7f565b90915550506001600160a01b03821660009081526020819052604081208054839290611759908490611d7f565b90915550506040518181526001600160a01b038316906000907fddf252ad1be2c89b69c2b068fc378daa952ba7f163c4a11628f55a4df523b3ef9060200160405180910390a35050565b6001600160a01b03831615806117c057506001600160a01b038216155b156117ca57505050565b61182c6005805480602002602001604051908101604052809291908181526020018280548015610874576020028201919060005260206000209081546001600160a01b0316815260019091019060200180831161085657505050505084611652565b806118965750611896600580548060200260200160405190810160405280929190818152602001828054801561188b57602002820191906000526020600020905b81546001600160a01b0316815260019091019060200180831161186d575b505050505083611652565b156118a057505050565b6001600160a01b038083166000908152600760205260408082205486841683529120548216911614156118d257505050565b6040516325cdf54f60e21b815260040160405180910390fd5b600060208083528351808285015260005b81811015611918578581018301518582016040015282016118fc565b8181111561192a576000604083870101525b50601f01601f1916929092016040019392505050565b80356001600160a01b038116811461195757600080fd5b919050565b6000806040838503121561196f57600080fd5b61197883611940565b946020939093013593505050565b60008060006060848603121561199b57600080fd5b6119a484611940565b92506119b260208501611940565b9150604084013590509250925092565b634e487b7160e01b600052604160045260246000fd5b604051601f8201601f191681016001600160401b0381118282101715611a0057611a006119c2565b604052919050565b60006001600160401b03821115611a2157611a216119c2565b5060051b60200190565b600082601f830112611a3c57600080fd5b81356020611a51611a4c83611a08565b6119d8565b82815260059290921b84018101918181019086841115611a7057600080fd5b8286015b84811015611a9257611a8581611940565b8352918301918301611a74565b509695505050505050565b60008060408385031215611ab057600080fd5b611ab983611940565b915060208301356001600160401b03811115611ad457600080fd5b611ae085828601611a2b565b9150509250929050565b600060208284031215611afc57600080fd5b5035919050565b80356001600160401b038116811461195757600080fd5b600080600060608486031215611b2f57600080fd5b611b3884611940565b9250611b4660208501611b03565b9150611b5460408501611b03565b90509250925092565b600060208284031215611b6f57600080fd5b610ce782611940565b60008060408385031215611b8b57600080fd5b611b9483611940565b9150611ba260208401611940565b90509250929050565b600082601f830112611bbc57600080fd5b81356020611bcc611a4c83611a08565b82815260059290921b84018101918181019086841115611beb57600080fd5b8286015b84811015611a925780358352918301918301611bef565b600080600060608486031215611c1b57600080fd5b83356001600160401b0380821115611c3257600080fd5b611c3e87838801611a2b565b94506020860135915080821115611c5457600080fd5b611c6087838801611a2b565b93506040860135915080821115611c7657600080fd5b50611c8386828701611bab565b9150509250925092565b60008060408385031215611ca057600080fd5b82356001600160401b0380821115611cb757600080fd5b611cc386838701611a2b565b93506020850135915080821115611cd957600080fd5b50611ae085828601611bab565b600181811c90821680611cfa57607f821691505b60208210811415611d1b57634e487b7160e01b600052602260045260246000fd5b50919050565b634e487b7160e01b600052603260045260246000fd5b634e487b7160e01b600052601160045260246000fd5b6000600019821415611d6157611d61611d37565b5060010190565b600082821015611d7a57611d7a611d37565b500390565b60008219821115611d9257611d92611d37565b500190565b60006001600160401b0383811690831681811015611db757611db7611d37565b039392505050565b6000816000190483118215151615611dd957611dd9611d37565b500290565b600082611dfb57634e487b7160e01b600052601260045260246000fd5b50049056fea2646970667358221220921389c93b01bf6ffbadcaf501e0ad3ef19e7c3456ef85eab63c5659c3d55b5164736f6c634300080c0033",
  "linkReferences": {},
  "deployedLinkReferences": {}
}