{
  "_format": "hh-sol-artifact-1",
  "contractName": "SOAS",
  "sourceName": "contracts/token/SOAS.sol",
  "abi": [
    {
      "inputs": [
        {
          "internalType": "address[]",
          "name": "_allowedAddresses",
          "type": "address[]"
        }
      ],
      "stateMutability": "nonpayable",
      "type": "constructor"
    },
    {
      "inputs": [],
      "name": "AlreadyClaimer",
      "type": "error"
    },
    {
      "inputs": [],
      "name": "InvalidClaimPeriod",
      "type": "error"
    },
    {
      "inputs": [],
      "name": "InvalidDestination",
      "type": "error"
    },
    {
      "inputs": [],
      "name": "InvalidMinter",
      "type": "error"
    },
    {
      "inputs": [],
      "name": "NoAmount",
      "type": "error"
    },
    {
      "inputs": [],
      "name": "OverAmount",
      "type": "error"
    },
    {
      "inputs": [],
      "name": "TransferFailed",
      "type": "error"
    },
    {
      "inputs": [],
      "name": "UnauthorizedTransfer",
      "type": "error"
    },
    {
      "anonymous": false,
      "inputs": [
        {
          "indexed": true,
          "internalType": "address",
          "name": "original",
          "type": "address"
        },
        {
          "indexed": true,
          "internalType": "address",
          "name": "transferable",
          "type": "address"
        }
      ],
      "name": "Allow",
      "type": "event"
    },
    {
      "anonymous": false,
      "inputs": [
        {
          "indexed": true,
          "internalType": "address",
          "name": "owner",
          "type": "address"
        },
        {
          "indexed": true,
          "internalType": "address",
          "name": "spender",
          "type": "address"
        },
        {
          "indexed": false,
          "internalType": "uint256",
          "name": "value",
          "type": "uint256"
        }
      ],
      "name": "Approval",
      "type": "event"
    },
    {
      "anonymous": false,
      "inputs": [
        {
          "indexed": true,
          "internalType": "address",
          "name": "holder",
          "type": "address"
        },
        {
          "indexed": false,
          "internalType": "uint256",
          "name": "amount",
          "type": "uint256"
        }
      ],
      "name": "Claim",
      "type": "event"
    },
    {
      "anonymous": false,
      "inputs": [
        {
          "indexed": true,
          "internalType": "address",
          "name": "to",
          "type": "address"
        },
        {
          "indexed": false,
          "internalType": "uint256",
          "name": "amount",
          "type": "uint256"
        },
        {
          "indexed": false,
          "internalType": "uint256",
          "name": "since",
          "type": "uint256"
        },
        {
          "indexed": false,
          "internalType": "uint256",
          "name": "until",
          "type": "uint256"
        }
      ],
      "name": "Mint",
      "type": "event"
    },
    {
      "anonymous": false,
      "inputs": [
        {
          "indexed": true,
          "internalType": "address",
          "name": "holder",
          "type": "address"
        },
        {
          "indexed": false,
          "internalType": "uint256",
          "name": "amount",
          "type": "uint256"
        }
      ],
      "name": "Renounce",
      "type": "event"
    },
    {
      "anonymous": false,
      "inputs": [
        {
          "indexed": true,
          "internalType": "address",
          "name": "from",
          "type": "address"
        },
        {
          "indexed": true,
          "internalType": "address",
          "name": "to",
          "type": "address"
        },
        {
          "indexed": false,
          "internalType": "uint256",
          "name": "value",
          "type": "uint256"
        }
      ],
      "name": "Transfer",
      "type": "event"
    },
    {
      "inputs": [
        {
          "internalType": "address",
          "name": "original",
          "type": "address"
        },
        {
          "internalType": "address[]",
          "name": "alloweds",
          "type": "address[]"
        }
      ],
      "name": "allow",
      "outputs": [],
      "stateMutability": "nonpayable",
      "type": "function"
    },
    {
      "inputs": [
        {
          "internalType": "address",
          "name": "original",
          "type": "address"
        },
        {
          "internalType": "address",
          "name": "allowed",
          "type": "address"
        }
      ],
      "name": "allow",
      "outputs": [],
      "stateMutability": "nonpayable",
      "type": "function"
    },
    {
      "inputs": [
        {
          "internalType": "address",
          "name": "owner",
          "type": "address"
        },
        {
          "internalType": "address",
          "name": "spender",
          "type": "address"
        }
      ],
      "name": "allowance",
      "outputs": [
        {
          "internalType": "uint256",
          "name": "",
          "type": "uint256"
        }
      ],
      "stateMutability": "view",
      "type": "function"
    },
    {
      "inputs": [
        {
          "internalType": "uint256",
          "name": "",
          "type": "uint256"
        }
      ],
      "name": "allowedAddresses",
      "outputs": [
        {
          "internalType": "address",
          "name": "",
          "type": "address"
        }
      ],
      "stateMutability": "view",
      "type": "function"
    },
    {
      "inputs": [
        {
          "internalType": "address",
          "name": "spender",
          "type": "address"
        },
        {
          "internalType": "uint256",
          "name": "amount",
          "type": "uint256"
        }
      ],
      "name": "approve",
      "outputs": [
        {
          "internalType": "bool",
          "name": "",
          "type": "bool"
        }
      ],
      "stateMutability": "nonpayable",
      "type": "function"
    },
    {
      "inputs": [
        {
          "internalType": "address",
          "name": "account",
          "type": "address"
        }
      ],
      "name": "balanceOf",
      "outputs": [
        {
          "internalType": "uint256",
          "name": "",
          "type": "uint256"
        }
      ],
      "stateMutability": "view",
      "type": "function"
    },
    {
      "inputs": [
        {
          "internalType": "uint256",
          "name": "amount",
          "type": "uint256"
        }
      ],
      "name": "claim",
      "outputs": [],
      "stateMutability": "nonpayable",
      "type": "function"
    },
    {
      "inputs": [
        {
          "internalType": "address",
          "name": "",
          "type": "address"
        }
      ],
      "name": "claimInfo",
      "outputs": [
        {
          "internalType": "uint256",
          "name": "amount",
          "type": "uint256"
        },
        {
          "internalType": "uint256",
          "name": "claimed",
          "type": "uint256"
        },
        {
          "internalType": "uint64",
          "name": "since",
          "type": "uint64"
        },
        {
          "internalType": "uint64",
          "name": "until",
          "type": "uint64"
        },
        {
          "internalType": "address",
          "name": "from",
          "type": "address"
        }
      ],
      "stateMutability": "view",
      "type": "function"
    },
    {
      "inputs": [],
      "name": "decimals",
      "outputs": [
        {
          "internalType": "uint8",
          "name": "",
          "type": "uint8"
        }
      ],
      "stateMutability": "view",
      "type": "function"
    },
    {
      "inputs": [
        {
          "internalType": "address",
          "name": "spender",
          "type": "address"
        },
        {
          "internalType": "uint256",
          "name": "subtractedValue",
          "type": "uint256"
        }
      ],
      "name": "decreaseAllowance",
      "outputs": [
        {
          "internalType": "bool",
          "name": "",
          "type": "bool"
        }
      ],
      "stateMutability": "nonpayable",
      "type": "function"
    },
    {
      "inputs": [
        {
          "internalType": "address",
          "name": "original",
          "type": "address"
        }
      ],
      "name": "getClaimableOAS",
      "outputs": [
        {
          "internalType": "uint256",
          "name": "",
          "type": "uint256"
        }
      ],
      "stateMutability": "view",
      "type": "function"
    },
    {
      "inputs": [
        {
          "internalType": "address",
          "name": "spender",
          "type": "address"
        },
        {
          "internalType": "uint256",
          "name": "addedValue",
          "type": "uint256"
        }
      ],
      "name": "increaseAllowance",
      "outputs": [
        {
          "internalType": "bool",
          "name": "",
          "type": "bool"
        }
      ],
      "stateMutability": "nonpayable",
      "type": "function"
    },
    {
      "inputs": [
        {
          "internalType": "address",
          "name": "to",
          "type": "address"
        },
        {
          "internalType": "uint64",
          "name": "since",
          "type": "uint64"
        },
        {
          "internalType": "uint64",
          "name": "until",
          "type": "uint64"
        }
      ],
      "name": "mint",
      "outputs": [],
      "stateMutability": "payable",
      "type": "function"
    },
    {
      "inputs": [],
      "name": "name",
      "outputs": [
        {
          "internalType": "string",
          "name": "",
          "type": "string"
        }
      ],
      "stateMutability": "view",
      "type": "function"
    },
    {
      "inputs": [
        {
          "internalType": "address",
          "name": "",
          "type": "address"
        }
      ],
      "name": "originalClaimer",
      "outputs": [
        {
          "internalType": "address",
          "name": "",
          "type": "address"
        }
      ],
      "stateMutability": "view",
      "type": "function"
    },
    {
      "inputs": [
        {
          "internalType": "uint256",
          "name": "amount",
          "type": "uint256"
        }
      ],
      "name": "renounce",
      "outputs": [],
      "stateMutability": "nonpayable",
      "type": "function"
    },
    {
      "inputs": [],
      "name": "symbol",
      "outputs": [
        {
          "internalType": "string",
          "name": "",
          "type": "string"
        }
      ],
      "stateMutability": "view",
      "type": "function"
    },
    {
      "inputs": [],
      "name": "totalSupply",
      "outputs": [
        {
          "internalType": "uint256",
          "name": "",
          "type": "uint256"
        }
      ],
      "stateMutability": "view",
      "type": "function"
    },
    {
      "inputs": [
        {
          "internalType": "address",
          "name": "to",
          "type": "address"
        },
        {
          "internalType": "uint256",
          "name": "amount",
          "type": "uint256"
        }
      ],
      "name": "transfer",
      "outputs": [
        {
          "internalType": "bool",
          "name": "",
          "type": "bool"
        }
      ],
      "stateMutability": "nonpayable",
      "type": "function"
    },
    {
      "inputs": [
        {
          "internalType": "address[]",
          "name": "tos",
          "type": "address[]"
        },
        {
          "internalType": "uint256[]",
          "name": "amounts",
          "type": "uint256[]"
        }
      ],
      "name": "transfer",
      "outputs": [
        {
          "internalType": "bool",
          "name": "",
          "type": "bool"
        }
      ],
      "stateMutability": "nonpayable",
      "type": "function"
    },
    {
      "inputs": [
        {
          "internalType": "address",
          "name": "from",
          "type": "address"
        },
        {
          "internalType": "address",
          "name": "to",
          "type": "address"
        },
        {
          "internalType": "uint256",
          "name": "amount",
          "type": "uint256"
        }
      ],
      "name": "transferFrom",
      "outputs": [
        {
          "internalType": "bool",
          "name": "",
          "type": "bool"
        }
      ],
      "stateMutability": "nonpayable",
      "type": "function"
    },
    {
      "inputs": [
        {
          "internalType": "address[]",
          "name": "froms",
          "type": "address[]"
        },
        {
          "internalType": "address[]",
          "name": "tos",
          "type": "address[]"
        },
        {
          "internalType": "uint256[]",
          "name": "amounts",
          "type": "uint256[]"
        }
      ],
      "name": "transferFrom",
      "outputs": [
        {
          "internalType": "bool",
          "name": "",
          "type": "bool"
        }
      ],
      "stateMutability": "nonpayable",
      "type": "function"
    }
  ],
  "bytecode": "0x60806040523480156200001157600080fd5b5060405162001fad38038062001fad8339810160408190526200003491620001eb565b604080518082018252600c81526b5374616b61626c65204f415360a01b602080830191825283518085019094526004845263534f415360e01b9084015281519192916200008491600391620000ba565b5080516200009a906004906020840190620000ba565b50508151620000b29150600590602084019062000149565b5050620002fa565b828054620000c890620002bd565b90600052602060002090601f016020900481019282620000ec576000855562000137565b82601f106200010757805160ff191683800117855562000137565b8280016001018555821562000137579182015b82811115620001375782518255916020019190600101906200011a565b5062000145929150620001a1565b5090565b82805482825590600052602060002090810192821562000137579160200282015b828111156200013757825182546001600160a01b0319166001600160a01b039091161782556020909201916001909101906200016a565b5b80821115620001455760008155600101620001a2565b634e487b7160e01b600052604160045260246000fd5b80516001600160a01b0381168114620001e657600080fd5b919050565b60006020808385031215620001ff57600080fd5b82516001600160401b03808211156200021757600080fd5b818501915085601f8301126200022c57600080fd5b815181811115620002415762000241620001b8565b8060051b604051601f19603f83011681018181108582111715620002695762000269620001b8565b6040529182528482019250838101850191888311156200028857600080fd5b938501935b82851015620002b157620002a185620001ce565b845293850193928501926200028d565b98975050505050505050565b600181811c90821680620002d257607f821691505b60208210811415620002f457634e487b7160e01b600052602260045260246000fd5b50919050565b611ca3806200030a6000396000f3fe6080604052600436106101355760003560e01c806370a08231116100ab578063a457c2d71161006f578063a457c2d71461037e578063a9059cbb1461039e578063d97830b1146103be578063dd62ed3e1461045b578063f94a138b146104a1578063ffc3a769146104c157600080fd5b806370a08231146102bd578063775ad527146102f35780637de6b1db1461031357806392de74821461033357806395d89b411461036957600080fd5b8063313ce567116100fd578063313ce567146101f6578063379607f5146102125780633950935114610232578063546cec3e1461025257806364b55bed146102655780636dec93f11461029d57600080fd5b806306fdde031461013a578063095ea7b31461016557806318160ddd1461019557806323b872dd146101b45780632e87d48c146101d4575b600080fd5b34801561014657600080fd5b5061014f6104e1565b60405161015c9190611758565b60405180910390f35b34801561017157600080fd5b506101856101803660046117c9565b610573565b604051901515815260200161015c565b3480156101a157600080fd5b506002545b60405190815260200161015c565b3480156101c057600080fd5b506101856101cf3660046117f3565b61058d565b3480156101e057600080fd5b506101f46101ef36600461190a565b6105b1565b005b34801561020257600080fd5b506040516012815260200161015c565b34801561021e57600080fd5b506101f461022d366004611957565b610634565b34801561023e57600080fd5b5061018561024d3660046117c9565b6107a0565b6101f4610260366004611987565b6107df565b34801561027157600080fd5b50610285610280366004611957565b610a33565b6040516001600160a01b03909116815260200161015c565b3480156102a957600080fd5b506101a66102b83660046119ca565b610a5d565b3480156102c957600080fd5b506101a66102d83660046119ca565b6001600160a01b031660009081526020819052604090205490565b3480156102ff57600080fd5b506101f461030e3660046119e5565b610b5b565b34801561031f57600080fd5b506101f461032e366004611957565b610ba6565b34801561033f57600080fd5b5061028561034e3660046119ca565b6007602052600090815260409020546001600160a01b031681565b34801561037557600080fd5b5061014f610ce7565b34801561038a57600080fd5b506101856103993660046117c9565b610cf6565b3480156103aa57600080fd5b506101856103b93660046117c9565b610d8d565b3480156103ca57600080fd5b5061041e6103d93660046119ca565b6006602052600090815260409020805460018201546002830154600390930154919290916001600160401b0380831692600160401b900416906001600160a01b031685565b6040805195865260208601949094526001600160401b03928316938501939093521660608301526001600160a01b0316608082015260a00161015c565b34801561046757600080fd5b506101a66104763660046119e5565b6001600160a01b03918216600090815260016020908152604080832093909416825291909152205490565b3480156104ad57600080fd5b506101856104bc366004611a73565b610d9b565b3480156104cd57600080fd5b506101856104dc366004611afa565b610e84565b6060600380546104f090611b53565b80601f016020809104026020016040519081016040528092919081815260200182805461051c90611b53565b80156105695780601f1061053e57610100808354040283529160200191610569565b820191906000526020600020905b81548152906001019060200180831161054c57829003601f168201915b5050505050905090565b600033610581818585610f43565b60019150505b92915050565b60003361059b858285611067565b6105a68585856110f9565b506001949350505050565b6001600160a01b038281166000908152600660205260409020600301541633146105ee5760405163d8d5894f60e01b815260040160405180910390fd5b60005b815181101561062f5761061d8383838151811061061057610610611b8e565b60200260200101516112d2565b8061062781611bba565b9150506105f1565b505050565b8061065257604051637bc90c0560e11b815260040160405180910390fd5b336000818152600760208181526040808420546001600160a01b03168085526006835290842060018101549585529290915290929061069090610a5d565b61069a9190611bd5565b9050808311156106bd576040516377dfdf2160e01b815260040160405180910390fd5b828260010160008282546106d19190611bec565b909155506106e190503384611365565b604051600090339085908381818185875af1925050503d8060008114610723576040519150601f19603f3d011682016040523d82523d6000602084013e610728565b606091505b505090508061074a576040516312171d8360e31b815260040160405180910390fd5b336000908152600760209081526040918290205491518681526001600160a01b03909216917f47cee97cb7acd717b3c0aa1435d004cd5b3c8c57d70dbceb4e4458bbd60e39d4910160405180910390a250505050565b3360008181526001602090815260408083206001600160a01b038716845290915281205490919061058190829086906107da908790611bec565b610f43565b6001600160a01b03831615806108545750610854600580548060200260200160405190810160405280929190818152602001828054801561084957602002820191906000526020600020905b81546001600160a01b0316815260019091019060200180831161082b575b5050505050846114bf565b156108725760405163ac6b05f560e01b815260040160405180910390fd5b6001600160a01b0383811660009081526007602052604090205416156108ab57604051630fb356f360e21b815260040160405180910390fd5b42826001600160401b03161115806108d55750806001600160401b0316826001600160401b031610155b156108f357604051636385801560e11b815260040160405180910390fd5b3461091157604051637bc90c0560e11b815260040160405180910390fd5b61091b8334611525565b6040805160a08101825234808252600060208084018281526001600160401b038089168688019081528882166060880190815233608089019081526001600160a01b038d8116808952600688528b89209a518b55955160018b0155925160028a01805493518616600160401b026fffffffffffffffffffffffffffffffff19909416919095161791909117909255905160039096018054969091166001600160a01b031996871617905560079091529084902080549093168117909255915190917fb4c03061fb5b7fed76389d5af8f2e0ddb09f8c70d1333abbb62582835e10accb91610a269190869086909283526001600160401b03918216602084015216604082015260600190565b60405180910390a2505050565b60058181548110610a4357600080fd5b6000918252602090912001546001600160a01b0316905081565b6001600160a01b038082166000908152600660209081526040808320815160a081018352815480825260018301549482019490945260028201546001600160401b0380821694830194909452600160401b90049092166060830152600301549093166080840152909190610ad45750600092915050565b80604001516001600160401b0316421015610af25750600092915050565b600081604001518260600151610b089190611c04565b6001600160401b031682604001516001600160401b031642610b2a9190611bd5565b8351610b369190611c2c565b610b409190611c4b565b8251909150811115610b5457505192915050565b9392505050565b6001600160a01b03828116600090815260066020526040902060030154163314610b985760405163d8d5894f60e01b815260040160405180910390fd5b610ba282826112d2565b5050565b80610bc457604051637bc90c0560e11b815260040160405180910390fd5b336000908152600760209081526040808320546001600160a01b031683526006909152902060018101548154610bfa9190611bd5565b821115610c1a576040516377dfdf2160e01b815260040160405180910390fd5b610c243383611365565b60038101546040516000916001600160a01b03169084908381818185875af1925050503d8060008114610c73576040519150601f19603f3d011682016040523d82523d6000602084013e610c78565b606091505b5050905080610c9a576040516312171d8360e31b815260040160405180910390fd5b336000908152600760209081526040918290205491518581526001600160a01b03909216917f443630e54cc5dd8826c25d7467193a3b7a0a67b4ed73c14fb477e8e7eed3fd489101610a26565b6060600480546104f090611b53565b3360008181526001602090815260408083206001600160a01b038716845290915281205490919083811015610d805760405162461bcd60e51b815260206004820152602560248201527f45524332303a2064656372656173656420616c6c6f77616e63652062656c6f77604482015264207a65726f60d81b60648201526084015b60405180910390fd5b6105a68286868403610f43565b6000336105818185856110f9565b600082518451148015610daf575081518351145b610e0f5760405162461bcd60e51b815260206004820152602b60248201527f534f41533a2062756c6b207472616e7366657246726f6d2061726773206d757360448201526a7420626520657175616c7360a81b6064820152608401610d77565b60005b84518110156105a657610e71858281518110610e3057610e30611b8e565b6020026020010151858381518110610e4a57610e4a611b8e565b6020026020010151858481518110610e6457610e64611b8e565b602002602001015161058d565b5080610e7c81611bba565b915050610e12565b60008151835114610ee75760405162461bcd60e51b815260206004820152602760248201527f534f41533a2062756c6b207472616e736665722061726773206d75737420626560448201526620657175616c7360c81b6064820152608401610d77565b3360005b84518110156105a657610f3182868381518110610f0a57610f0a611b8e565b6020026020010151868481518110610f2457610f24611b8e565b60200260200101516110f9565b80610f3b81611bba565b915050610eeb565b6001600160a01b038316610fa55760405162461bcd60e51b8152602060048201526024808201527f45524332303a20617070726f76652066726f6d20746865207a65726f206164646044820152637265737360e01b6064820152608401610d77565b6001600160a01b0382166110065760405162461bcd60e51b815260206004820152602260248201527f45524332303a20617070726f766520746f20746865207a65726f206164647265604482015261737360f01b6064820152608401610d77565b6001600160a01b0383811660008181526001602090815260408083209487168084529482529182902085905590518481527f8c5be1e5ebec7d5bd14f71427d1e84f3dd0314c0f7b2291e5b200ac8c7c3b925910160405180910390a3505050565b6001600160a01b0383811660009081526001602090815260408083209386168352929052205460001981146110f357818110156110e65760405162461bcd60e51b815260206004820152601d60248201527f45524332303a20696e73756666696369656e7420616c6c6f77616e63650000006044820152606401610d77565b6110f38484848403610f43565b50505050565b6001600160a01b03831661115d5760405162461bcd60e51b815260206004820152602560248201527f45524332303a207472616e736665722066726f6d20746865207a65726f206164604482015264647265737360d81b6064820152608401610d77565b6001600160a01b0382166111bf5760405162461bcd60e51b815260206004820152602360248201527f45524332303a207472616e7366657220746f20746865207a65726f206164647260448201526265737360e81b6064820152608401610d77565b6111ca838383611610565b6001600160a01b038316600090815260208190526040902054818110156112425760405162461bcd60e51b815260206004820152602660248201527f45524332303a207472616e7366657220616d6f756e7420657863656564732062604482015265616c616e636560d01b6064820152608401610d77565b6001600160a01b03808516600090815260208190526040808220858503905591851681529081208054849290611279908490611bec565b92505081905550826001600160a01b0316846001600160a01b03167fddf252ad1be2c89b69c2b068fc378daa952ba7f163c4a11628f55a4df523b3ef846040516112c591815260200190565b60405180910390a36110f3565b6001600160a01b03818116600090815260076020526040902054161561130b57604051630fb356f360e21b815260040160405180910390fd5b6001600160a01b0381811660008181526007602052604080822080546001600160a01b0319169487169485179055519192917fdc5d0ac53741544fef2e2ae9b2c8006a9e56f9708377f300d8e825f8d411617d9190a35050565b6001600160a01b0382166113c55760405162461bcd60e51b815260206004820152602160248201527f45524332303a206275726e2066726f6d20746865207a65726f206164647265736044820152607360f81b6064820152608401610d77565b6113d182600083611610565b6001600160a01b038216600090815260208190526040902054818110156114455760405162461bcd60e51b815260206004820152602260248201527f45524332303a206275726e20616d6f756e7420657863656564732062616c616e604482015261636560f01b6064820152608401610d77565b6001600160a01b0383166000908152602081905260408120838303905560028054849290611474908490611bd5565b90915550506040518281526000906001600160a01b038516907fddf252ad1be2c89b69c2b068fc378daa952ba7f163c4a11628f55a4df523b3ef9060200160405180910390a3505050565b6000805b835181101561151b57826001600160a01b03168482815181106114e8576114e8611b8e565b60200260200101516001600160a01b03161415611509576001915050610587565b8061151381611bba565b9150506114c3565b5060009392505050565b6001600160a01b03821661157b5760405162461bcd60e51b815260206004820152601f60248201527f45524332303a206d696e7420746f20746865207a65726f2061646472657373006044820152606401610d77565b61158760008383611610565b80600260008282546115999190611bec565b90915550506001600160a01b038216600090815260208190526040812080548392906115c6908490611bec565b90915550506040518181526001600160a01b038316906000907fddf252ad1be2c89b69c2b068fc378daa952ba7f163c4a11628f55a4df523b3ef9060200160405180910390a35050565b6001600160a01b038316158061162d57506001600160a01b038216155b1561163757505050565b6116996005805480602002602001604051908101604052809291908181526020018280548015610849576020028201919060005260206000209081546001600160a01b0316815260019091019060200180831161082b575050505050846114bf565b80611703575061170360058054806020026020016040519081016040528092919081815260200182805480156116f857602002820191906000526020600020905b81546001600160a01b031681526001909101906020018083116116da575b5050505050836114bf565b1561170d57505050565b6001600160a01b0380831660009081526007602052604080822054868416835291205482169116141561173f57505050565b6040516325cdf54f60e21b815260040160405180910390fd5b600060208083528351808285015260005b8181101561178557858101830151858201604001528201611769565b81811115611797576000604083870101525b50601f01601f1916929092016040019392505050565b80356001600160a01b03811681146117c457600080fd5b919050565b600080604083850312156117dc57600080fd5b6117e5836117ad565b946020939093013593505050565b60008060006060848603121561180857600080fd5b611811846117ad565b925061181f602085016117ad565b9150604084013590509250925092565b634e487b7160e01b600052604160045260246000fd5b604051601f8201601f191681016001600160401b038111828210171561186d5761186d61182f565b604052919050565b60006001600160401b0382111561188e5761188e61182f565b5060051b60200190565b600082601f8301126118a957600080fd5b813560206118be6118b983611875565b611845565b82815260059290921b840181019181810190868411156118dd57600080fd5b8286015b848110156118ff576118f2816117ad565b83529183019183016118e1565b509695505050505050565b6000806040838503121561191d57600080fd5b611926836117ad565b915060208301356001600160401b0381111561194157600080fd5b61194d85828601611898565b9150509250929050565b60006020828403121561196957600080fd5b5035919050565b80356001600160401b03811681146117c457600080fd5b60008060006060848603121561199c57600080fd5b6119a5846117ad565b92506119b360208501611970565b91506119c160408501611970565b90509250925092565b6000602082840312156119dc57600080fd5b610b54826117ad565b600080604083850312156119f857600080fd5b611a01836117ad565b9150611a0f602084016117ad565b90509250929050565b600082601f830112611a2957600080fd5b81356020611a396118b983611875565b82815260059290921b84018101918181019086841115611a5857600080fd5b8286015b848110156118ff5780358352918301918301611a5c565b600080600060608486031215611a8857600080fd5b83356001600160401b0380821115611a9f57600080fd5b611aab87838801611898565b94506020860135915080821115611ac157600080fd5b611acd87838801611898565b93506040860135915080821115611ae357600080fd5b50611af086828701611a18565b9150509250925092565b60008060408385031215611b0d57600080fd5b82356001600160401b0380821115611b2457600080fd5b611b3086838701611898565b93506020850135915080821115611b4657600080fd5b5061194d85828601611a18565b600181811c90821680611b6757607f821691505b60208210811415611b8857634e487b7160e01b600052602260045260246000fd5b50919050565b634e487b7160e01b600052603260045260246000fd5b634e487b7160e01b600052601160045260246000fd5b6000600019821415611bce57611bce611ba4565b5060010190565b600082821015611be757611be7611ba4565b500390565b60008219821115611bff57611bff611ba4565b500190565b60006001600160401b0383811690831681811015611c2457611c24611ba4565b039392505050565b6000816000190483118215151615611c4657611c46611ba4565b500290565b600082611c6857634e487b7160e01b600052601260045260246000fd5b50049056fea2646970667358221220028b793c926803692d49bd19d341046b43de3cc651a5bc2229afa9d2b0d94a8d64736f6c634300080c0033",
  "linkReferences": {},
  "deployedLinkReferences": {}
}