{
  "_format": "hh-sol-artifact-1",
  "contractName": "SOAS",
  "sourceName": "contracts/token/SOAS.sol",
  "abi": [
    {
      "inputs": [
        {
          "internalType": "address",
          "name": "_staking",
          "type": "address"
        }
      ],
      "stateMutability": "nonpayable",
      "type": "constructor"
    },
    {
      "anonymous": false,
      "inputs": [
        {
          "indexed": true,
          "internalType": "address",
          "name": "owner",
          "type": "address"
        },
        {
          "indexed": true,
          "internalType": "address",
          "name": "spender",
          "type": "address"
        },
        {
          "indexed": false,
          "internalType": "uint256",
          "name": "value",
          "type": "uint256"
        }
      ],
      "name": "Approval",
      "type": "event"
    },
    {
      "anonymous": false,
      "inputs": [
        {
          "indexed": true,
          "internalType": "address",
          "name": "holder",
          "type": "address"
        },
        {
          "indexed": false,
          "internalType": "uint256",
          "name": "amount",
          "type": "uint256"
        }
      ],
      "name": "Claim",
      "type": "event"
    },
    {
      "anonymous": false,
      "inputs": [
        {
          "indexed": true,
          "internalType": "address",
          "name": "to",
          "type": "address"
        },
        {
          "indexed": false,
          "internalType": "uint256",
          "name": "amount",
          "type": "uint256"
        },
        {
          "indexed": false,
          "internalType": "uint256",
          "name": "since",
          "type": "uint256"
        },
        {
          "indexed": false,
          "internalType": "uint256",
          "name": "until",
          "type": "uint256"
        }
      ],
      "name": "Mint",
      "type": "event"
    },
    {
      "anonymous": false,
      "inputs": [
        {
          "indexed": true,
          "internalType": "address",
          "name": "holder",
          "type": "address"
        },
        {
          "indexed": false,
          "internalType": "uint256",
          "name": "amount",
          "type": "uint256"
        }
      ],
      "name": "Renounce",
      "type": "event"
    },
    {
      "anonymous": false,
      "inputs": [
        {
          "indexed": true,
          "internalType": "address",
          "name": "from",
          "type": "address"
        },
        {
          "indexed": true,
          "internalType": "address",
          "name": "to",
          "type": "address"
        },
        {
          "indexed": false,
          "internalType": "uint256",
          "name": "value",
          "type": "uint256"
        }
      ],
      "name": "Transfer",
      "type": "event"
    },
    {
      "inputs": [
        {
          "internalType": "address",
          "name": "owner",
          "type": "address"
        },
        {
          "internalType": "address",
          "name": "spender",
          "type": "address"
        }
      ],
      "name": "allowance",
      "outputs": [
        {
          "internalType": "uint256",
          "name": "",
          "type": "uint256"
        }
      ],
      "stateMutability": "view",
      "type": "function"
    },
    {
      "inputs": [
        {
          "internalType": "address",
          "name": "spender",
          "type": "address"
        },
        {
          "internalType": "uint256",
          "name": "amount",
          "type": "uint256"
        }
      ],
      "name": "approve",
      "outputs": [
        {
          "internalType": "bool",
          "name": "",
          "type": "bool"
        }
      ],
      "stateMutability": "nonpayable",
      "type": "function"
    },
    {
      "inputs": [
        {
          "internalType": "address",
          "name": "account",
          "type": "address"
        }
      ],
      "name": "balanceOf",
      "outputs": [
        {
          "internalType": "uint256",
          "name": "",
          "type": "uint256"
        }
      ],
      "stateMutability": "view",
      "type": "function"
    },
    {
      "inputs": [
        {
          "internalType": "uint256",
          "name": "amount",
          "type": "uint256"
        }
      ],
      "name": "claim",
      "outputs": [],
      "stateMutability": "nonpayable",
      "type": "function"
    },
    {
      "inputs": [],
      "name": "decimals",
      "outputs": [
        {
          "internalType": "uint8",
          "name": "",
          "type": "uint8"
        }
      ],
      "stateMutability": "view",
      "type": "function"
    },
    {
      "inputs": [
        {
          "internalType": "address",
          "name": "spender",
          "type": "address"
        },
        {
          "internalType": "uint256",
          "name": "subtractedValue",
          "type": "uint256"
        }
      ],
      "name": "decreaseAllowance",
      "outputs": [
        {
          "internalType": "bool",
          "name": "",
          "type": "bool"
        }
      ],
      "stateMutability": "nonpayable",
      "type": "function"
    },
    {
      "inputs": [
        {
          "internalType": "address",
          "name": "holder",
          "type": "address"
        }
      ],
      "name": "getClaimInfo",
      "outputs": [
        {
          "components": [
            {
              "internalType": "uint256",
              "name": "amount",
              "type": "uint256"
            },
            {
              "internalType": "uint256",
              "name": "claimed",
              "type": "uint256"
            },
            {
              "internalType": "uint256",
              "name": "since",
              "type": "uint256"
            },
            {
              "internalType": "uint256",
              "name": "until",
              "type": "uint256"
            },
            {
              "internalType": "address",
              "name": "from",
              "type": "address"
            }
          ],
          "internalType": "struct SOAS.ClaimInfo",
          "name": "",
          "type": "tuple"
        }
      ],
      "stateMutability": "view",
      "type": "function"
    },
    {
      "inputs": [
        {
          "internalType": "address",
          "name": "holder",
          "type": "address"
        }
      ],
      "name": "getClaimableOAS",
      "outputs": [
        {
          "internalType": "uint256",
          "name": "",
          "type": "uint256"
        }
      ],
      "stateMutability": "view",
      "type": "function"
    },
    {
      "inputs": [
        {
          "internalType": "address",
          "name": "spender",
          "type": "address"
        },
        {
          "internalType": "uint256",
          "name": "addedValue",
          "type": "uint256"
        }
      ],
      "name": "increaseAllowance",
      "outputs": [
        {
          "internalType": "bool",
          "name": "",
          "type": "bool"
        }
      ],
      "stateMutability": "nonpayable",
      "type": "function"
    },
    {
      "inputs": [
        {
          "internalType": "address",
          "name": "to",
          "type": "address"
        },
        {
          "internalType": "uint256",
          "name": "since",
          "type": "uint256"
        },
        {
          "internalType": "uint256",
          "name": "until",
          "type": "uint256"
        }
      ],
      "name": "mint",
      "outputs": [],
      "stateMutability": "payable",
      "type": "function"
    },
    {
      "inputs": [],
      "name": "name",
      "outputs": [
        {
          "internalType": "string",
          "name": "",
          "type": "string"
        }
      ],
      "stateMutability": "view",
      "type": "function"
    },
    {
      "inputs": [
        {
          "internalType": "uint256",
          "name": "amount",
          "type": "uint256"
        }
      ],
      "name": "renounce",
      "outputs": [],
      "stateMutability": "nonpayable",
      "type": "function"
    },
    {
      "inputs": [],
      "name": "staking",
      "outputs": [
        {
          "internalType": "address",
          "name": "",
          "type": "address"
        }
      ],
      "stateMutability": "view",
      "type": "function"
    },
    {
      "inputs": [],
      "name": "symbol",
      "outputs": [
        {
          "internalType": "string",
          "name": "",
          "type": "string"
        }
      ],
      "stateMutability": "view",
      "type": "function"
    },
    {
      "inputs": [],
      "name": "totalSupply",
      "outputs": [
        {
          "internalType": "uint256",
          "name": "",
          "type": "uint256"
        }
      ],
      "stateMutability": "view",
      "type": "function"
    },
    {
      "inputs": [
        {
          "internalType": "address",
          "name": "to",
          "type": "address"
        },
        {
          "internalType": "uint256",
          "name": "amount",
          "type": "uint256"
        }
      ],
      "name": "transfer",
      "outputs": [
        {
          "internalType": "bool",
          "name": "",
          "type": "bool"
        }
      ],
      "stateMutability": "nonpayable",
      "type": "function"
    },
    {
      "inputs": [
        {
          "internalType": "address",
          "name": "from",
          "type": "address"
        },
        {
          "internalType": "address",
          "name": "to",
          "type": "address"
        },
        {
          "internalType": "uint256",
          "name": "amount",
          "type": "uint256"
        }
      ],
      "name": "transferFrom",
      "outputs": [
        {
          "internalType": "bool",
          "name": "",
          "type": "bool"
        }
      ],
      "stateMutability": "nonpayable",
      "type": "function"
    }
  ],
  "bytecode": "0x60806040523480156200001157600080fd5b506040516200174f3803806200174f83398101604081905262000034916200016a565b604080518082018252600c81526b5374616b61626c65204f415360a01b602080830191825283518085019094526004845263534f415360e01b9084015281519192916200008491600391620000c4565b5080516200009a906004906020840190620000c4565b5050600580546001600160a01b0319166001600160a01b03939093169290921790915550620001d9565b828054620000d2906200019c565b90600052602060002090601f016020900481019282620000f6576000855562000141565b82601f106200011157805160ff191683800117855562000141565b8280016001018555821562000141579182015b828111156200014157825182559160200191906001019062000124565b506200014f92915062000153565b5090565b5b808211156200014f576000815560010162000154565b6000602082840312156200017d57600080fd5b81516001600160a01b03811681146200019557600080fd5b9392505050565b600181811c90821680620001b157607f821691505b60208210811415620001d357634e487b7160e01b600052602260045260246000fd5b50919050565b61156680620001e96000396000f3fe6080604052600436106100fe5760003560e01c806339509351116100955780637de6b1db116100645780637de6b1db1461030257806395d89b4114610322578063a457c2d714610337578063a9059cbb14610357578063dd62ed3e1461037757600080fd5b806339509351146102545780634cf088d9146102745780636dec93f1146102ac57806370a08231146102cc57600080fd5b806318160ddd116100d157806318160ddd146101d957806323b872dd146101f8578063313ce56714610218578063379607f51461023457600080fd5b806306fdde03146101035780630835fe471461012e578063095ea7b314610194578063156e29f6146101c4575b600080fd5b34801561010f57600080fd5b506101186103bd565b6040516101259190611304565b60405180910390f35b34801561013a57600080fd5b5061014e610149366004611353565b61044f565b6040516101259190815181526020808301519082015260408083015190820152606080830151908201526080918201516001600160a01b03169181019190915260a00190565b3480156101a057600080fd5b506101b46101af36600461136e565b6104e7565b6040519015158152602001610125565b6101d76101d2366004611398565b6104ff565b005b3480156101e557600080fd5b506002545b604051908152602001610125565b34801561020457600080fd5b506101b46102133660046113cb565b610707565b34801561022457600080fd5b5060405160128152602001610125565b34801561024057600080fd5b506101d761024f366004611407565b61072b565b34801561026057600080fd5b506101b461026f36600461136e565b6108e9565b34801561028057600080fd5b50600554610294906001600160a01b031681565b6040516001600160a01b039091168152602001610125565b3480156102b857600080fd5b506101ea6102c7366004611353565b610928565b3480156102d857600080fd5b506101ea6102e7366004611353565b6001600160a01b031660009081526020819052604090205490565b34801561030e57600080fd5b506101d761031d366004611407565b6109fa565b34801561032e57600080fd5b50610118610bcd565b34801561034357600080fd5b506101b461035236600461136e565b610bdc565b34801561036357600080fd5b506101b461037236600461136e565b610c6e565b34801561038357600080fd5b506101ea610392366004611420565b6001600160a01b03918216600090815260016020908152604080832093909416825291909152205490565b6060600380546103cc90611453565b80601f01602080910402602001604051908101604052809291908181526020018280546103f890611453565b80156104455780601f1061041a57610100808354040283529160200191610445565b820191906000526020600020905b81548152906001019060200180831161042857829003601f168201915b5050505050905090565b61048a6040518060a001604052806000815260200160008152602001600081526020016000815260200160006001600160a01b031681525090565b506001600160a01b03908116600090815260066020908152604091829020825160a0810184528154815260018201549281019290925260028101549282019290925260038201546060820152600490910154909116608082015290565b6000336104f5818585610c7c565b5060019392505050565b6005546001600160a01b03848116911614156105625760405162461bcd60e51b815260206004820152601f60248201527f63616e6e6f74206d696e7420746f207374616b696e6720636f6e74726163740060448201526064015b60405180910390fd5b6001600160a01b038316600090815260066020526040902054156105b75760405162461bcd60e51b815260206004820152600c60248201526b185b1c9958591e481b5a5b9d60a21b6044820152606401610559565b81421080156105c557508082105b61060a5760405162461bcd60e51b81526020600482015260166024820152751a5b9d985b1a59081cda5b98d9481bdc881d5b9d1a5b60521b6044820152606401610559565b600034116106435760405162461bcd60e51b81526020600482015260066024820152656e6f204f415360d01b6044820152606401610559565b61064d8334610da1565b6040805160a0810182523480825260006020808401828152848601888152606080870189815233608089019081526001600160a01b038d811680895260068852978b902099518a55945160018a0155925160028901555160038801559051600490960180546001600160a01b03191696909216959095179055845192835282018690529281018490527fb4c03061fb5b7fed76389d5af8f2e0ddb09f8c70d1333abbb62582835e10accb91015b60405180910390a2505050565b600033610715858285610e8c565b610720858585610f1e565b506001949350505050565b6000811161076c5760405162461bcd60e51b815260206004820152600e60248201526d616d6f756e74206973207a65726f60901b6044820152606401610559565b33600081815260066020526040812060010154909161078a90610928565b61079491906114a4565b9050818110156107db5760405162461bcd60e51b81526020600482015260126024820152716f76657220636c61696d61626c65204f415360701b6044820152606401610559565b33600090815260066020526040812060010180548492906107fd9084906114bb565b9091555061080d905033836110f7565b604080516000808252602082019092523390849060405161082e91906114d3565b60006040518083038185875af1925050503d806000811461086b576040519150601f19603f3d011682016040523d82523d6000602084013e610870565b606091505b50509050806108b75760405162461bcd60e51b815260206004820152601360248201527213d054c81d1c985b9cd9995c8819985a5b1959606a1b6044820152606401610559565b60405183815233907f47cee97cb7acd717b3c0aa1435d004cd5b3c8c57d70dbceb4e4458bbd60e39d4906020016106fa565b3360008181526001602090815260408083206001600160a01b03871684529091528120549091906104f590829086906109239087906114bb565b610c7c565b6001600160a01b038082166000908152600660209081526040808320815160a08101835281548082526001830154948201949094526002820154928101929092526003810154606083015260040154909316608084015290919061098f5750600092915050565b80604001514210156109a45750600092915050565b6000816040015182606001516109ba91906114a4565b60408301516109c990426114a4565b83516109d591906114ef565b6109df919061150e565b82519091508111156109f357505192915050565b9392505050565b60008111610a3b5760405162461bcd60e51b815260206004820152600e60248201526d616d6f756e74206973207a65726f60901b6044820152606401610559565b33600090815260066020908152604091829020825160a08101845281548082526001830154938201849052600283015494820194909452600382015460608201526004909101546001600160a01b03166080820152918391610a9c916114a4565b1015610adc5760405162461bcd60e51b815260206004820152600f60248201526e63616e6e6f742072656e6f756e636560881b6044820152606401610559565b610ae633836110f7565b60808101516040805160008082526020820192839052926001600160a01b0316918591610b12916114d3565b60006040518083038185875af1925050503d8060008114610b4f576040519150601f19603f3d011682016040523d82523d6000602084013e610b54565b606091505b5050905080610b9b5760405162461bcd60e51b815260206004820152601360248201527213d054c81d1c985b9cd9995c8819985a5b1959606a1b6044820152606401610559565b60405183815233907f443630e54cc5dd8826c25d7467193a3b7a0a67b4ed73c14fb477e8e7eed3fd48906020016106fa565b6060600480546103cc90611453565b3360008181526001602090815260408083206001600160a01b038716845290915281205490919083811015610c615760405162461bcd60e51b815260206004820152602560248201527f45524332303a2064656372656173656420616c6c6f77616e63652062656c6f77604482015264207a65726f60d81b6064820152608401610559565b6107208286868403610c7c565b6000336104f5818585610f1e565b6001600160a01b038316610cde5760405162461bcd60e51b8152602060048201526024808201527f45524332303a20617070726f76652066726f6d20746865207a65726f206164646044820152637265737360e01b6064820152608401610559565b6001600160a01b038216610d3f5760405162461bcd60e51b815260206004820152602260248201527f45524332303a20617070726f766520746f20746865207a65726f206164647265604482015261737360f01b6064820152608401610559565b6001600160a01b0383811660008181526001602090815260408083209487168084529482529182902085905590518481527f8c5be1e5ebec7d5bd14f71427d1e84f3dd0314c0f7b2291e5b200ac8c7c3b92591015b60405180910390a3505050565b6001600160a01b038216610df75760405162461bcd60e51b815260206004820152601f60248201527f45524332303a206d696e7420746f20746865207a65726f2061646472657373006044820152606401610559565b610e036000838361124e565b8060026000828254610e1591906114bb565b90915550506001600160a01b03821660009081526020819052604081208054839290610e429084906114bb565b90915550506040518181526001600160a01b038316906000907fddf252ad1be2c89b69c2b068fc378daa952ba7f163c4a11628f55a4df523b3ef9060200160405180910390a35050565b6001600160a01b038381166000908152600160209081526040808320938616835292905220546000198114610f185781811015610f0b5760405162461bcd60e51b815260206004820152601d60248201527f45524332303a20696e73756666696369656e7420616c6c6f77616e63650000006044820152606401610559565b610f188484848403610c7c565b50505050565b6001600160a01b038316610f825760405162461bcd60e51b815260206004820152602560248201527f45524332303a207472616e736665722066726f6d20746865207a65726f206164604482015264647265737360d81b6064820152608401610559565b6001600160a01b038216610fe45760405162461bcd60e51b815260206004820152602360248201527f45524332303a207472616e7366657220746f20746865207a65726f206164647260448201526265737360e81b6064820152608401610559565b610fef83838361124e565b6001600160a01b038316600090815260208190526040902054818110156110675760405162461bcd60e51b815260206004820152602660248201527f45524332303a207472616e7366657220616d6f756e7420657863656564732062604482015265616c616e636560d01b6064820152608401610559565b6001600160a01b0380851660009081526020819052604080822085850390559185168152908120805484929061109e9084906114bb565b92505081905550826001600160a01b0316846001600160a01b03167fddf252ad1be2c89b69c2b068fc378daa952ba7f163c4a11628f55a4df523b3ef846040516110ea91815260200190565b60405180910390a3610f18565b6001600160a01b0382166111575760405162461bcd60e51b815260206004820152602160248201527f45524332303a206275726e2066726f6d20746865207a65726f206164647265736044820152607360f81b6064820152608401610559565b6111638260008361124e565b6001600160a01b038216600090815260208190526040902054818110156111d75760405162461bcd60e51b815260206004820152602260248201527f45524332303a206275726e20616d6f756e7420657863656564732062616c616e604482015261636560f01b6064820152608401610559565b6001600160a01b03831660009081526020819052604081208383039055600280548492906112069084906114a4565b90915550506040518281526000906001600160a01b038516907fddf252ad1be2c89b69c2b068fc378daa952ba7f163c4a11628f55a4df523b3ef90602001610d94565b505050565b6001600160a01b038316158061126b57506001600160a01b038216155b8061128357506005546001600160a01b038481169116145b8061129b57506005546001600160a01b038381169116145b6112495760405162461bcd60e51b815260206004820152600e60248201526d31b0b73737ba103a3930b9b332b960911b6044820152606401610559565b60005b838110156112f35781810151838201526020016112db565b83811115610f185750506000910152565b60208152600082518060208401526113238160408501602087016112d8565b601f01601f19169190910160400192915050565b80356001600160a01b038116811461134e57600080fd5b919050565b60006020828403121561136557600080fd5b6109f382611337565b6000806040838503121561138157600080fd5b61138a83611337565b946020939093013593505050565b6000806000606084860312156113ad57600080fd5b6113b684611337565b95602085013595506040909401359392505050565b6000806000606084860312156113e057600080fd5b6113e984611337565b92506113f760208501611337565b9150604084013590509250925092565b60006020828403121561141957600080fd5b5035919050565b6000806040838503121561143357600080fd5b61143c83611337565b915061144a60208401611337565b90509250929050565b600181811c9082168061146757607f821691505b6020821081141561148857634e487b7160e01b600052602260045260246000fd5b50919050565b634e487b7160e01b600052601160045260246000fd5b6000828210156114b6576114b661148e565b500390565b600082198211156114ce576114ce61148e565b500190565b600082516114e58184602087016112d8565b9190910192915050565b60008160001904831182151516156115095761150961148e565b500290565b60008261152b57634e487b7160e01b600052601260045260246000fd5b50049056fea2646970667358221220fbacb9f47777046c6b6fef48a7cd162cf44efff34599821175ff271c20da650864736f6c63430008090033",
  "linkReferences": {},
  "deployedLinkReferences": {}
}