{
  "_format": "hh-sol-artifact-1",
  "contractName": "SOAS",
  "sourceName": "contracts/token/SOAS.sol",
  "abi": [
    {
      "inputs": [
        {
          "internalType": "address",
          "name": "_staking",
          "type": "address"
        }
      ],
      "stateMutability": "nonpayable",
      "type": "constructor"
    },
    {
      "inputs": [],
      "name": "AlreadyMinted",
      "type": "error"
    },
    {
      "inputs": [],
      "name": "InvalidClaimPeriod",
      "type": "error"
    },
    {
      "inputs": [],
      "name": "InvalidDestination",
      "type": "error"
    },
    {
      "inputs": [],
      "name": "NoAmount",
      "type": "error"
    },
    {
      "inputs": [],
      "name": "OverAmount",
      "type": "error"
    },
    {
      "inputs": [],
      "name": "TransferFailed",
      "type": "error"
    },
    {
      "inputs": [],
      "name": "UnauthorizedTransfer",
      "type": "error"
    },
    {
      "anonymous": false,
      "inputs": [
        {
          "indexed": true,
          "internalType": "address",
          "name": "owner",
          "type": "address"
        },
        {
          "indexed": true,
          "internalType": "address",
          "name": "spender",
          "type": "address"
        },
        {
          "indexed": false,
          "internalType": "uint256",
          "name": "value",
          "type": "uint256"
        }
      ],
      "name": "Approval",
      "type": "event"
    },
    {
      "anonymous": false,
      "inputs": [
        {
          "indexed": true,
          "internalType": "address",
          "name": "holder",
          "type": "address"
        },
        {
          "indexed": false,
          "internalType": "uint256",
          "name": "amount",
          "type": "uint256"
        }
      ],
      "name": "Claim",
      "type": "event"
    },
    {
      "anonymous": false,
      "inputs": [
        {
          "indexed": true,
          "internalType": "address",
          "name": "to",
          "type": "address"
        },
        {
          "indexed": false,
          "internalType": "uint256",
          "name": "amount",
          "type": "uint256"
        },
        {
          "indexed": false,
          "internalType": "uint256",
          "name": "since",
          "type": "uint256"
        },
        {
          "indexed": false,
          "internalType": "uint256",
          "name": "until",
          "type": "uint256"
        }
      ],
      "name": "Mint",
      "type": "event"
    },
    {
      "anonymous": false,
      "inputs": [
        {
          "indexed": true,
          "internalType": "address",
          "name": "holder",
          "type": "address"
        },
        {
          "indexed": false,
          "internalType": "uint256",
          "name": "amount",
          "type": "uint256"
        }
      ],
      "name": "Renounce",
      "type": "event"
    },
    {
      "anonymous": false,
      "inputs": [
        {
          "indexed": true,
          "internalType": "address",
          "name": "from",
          "type": "address"
        },
        {
          "indexed": true,
          "internalType": "address",
          "name": "to",
          "type": "address"
        },
        {
          "indexed": false,
          "internalType": "uint256",
          "name": "value",
          "type": "uint256"
        }
      ],
      "name": "Transfer",
      "type": "event"
    },
    {
      "inputs": [
        {
          "internalType": "address",
          "name": "owner",
          "type": "address"
        },
        {
          "internalType": "address",
          "name": "spender",
          "type": "address"
        }
      ],
      "name": "allowance",
      "outputs": [
        {
          "internalType": "uint256",
          "name": "",
          "type": "uint256"
        }
      ],
      "stateMutability": "view",
      "type": "function"
    },
    {
      "inputs": [
        {
          "internalType": "address",
          "name": "spender",
          "type": "address"
        },
        {
          "internalType": "uint256",
          "name": "amount",
          "type": "uint256"
        }
      ],
      "name": "approve",
      "outputs": [
        {
          "internalType": "bool",
          "name": "",
          "type": "bool"
        }
      ],
      "stateMutability": "nonpayable",
      "type": "function"
    },
    {
      "inputs": [
        {
          "internalType": "address",
          "name": "account",
          "type": "address"
        }
      ],
      "name": "balanceOf",
      "outputs": [
        {
          "internalType": "uint256",
          "name": "",
          "type": "uint256"
        }
      ],
      "stateMutability": "view",
      "type": "function"
    },
    {
      "inputs": [
        {
          "internalType": "uint256",
          "name": "amount",
          "type": "uint256"
        }
      ],
      "name": "claim",
      "outputs": [],
      "stateMutability": "nonpayable",
      "type": "function"
    },
    {
      "inputs": [],
      "name": "decimals",
      "outputs": [
        {
          "internalType": "uint8",
          "name": "",
          "type": "uint8"
        }
      ],
      "stateMutability": "view",
      "type": "function"
    },
    {
      "inputs": [
        {
          "internalType": "address",
          "name": "spender",
          "type": "address"
        },
        {
          "internalType": "uint256",
          "name": "subtractedValue",
          "type": "uint256"
        }
      ],
      "name": "decreaseAllowance",
      "outputs": [
        {
          "internalType": "bool",
          "name": "",
          "type": "bool"
        }
      ],
      "stateMutability": "nonpayable",
      "type": "function"
    },
    {
      "inputs": [
        {
          "internalType": "address",
          "name": "holder",
          "type": "address"
        }
      ],
      "name": "getClaimInfo",
      "outputs": [
        {
          "components": [
            {
              "internalType": "uint256",
              "name": "amount",
              "type": "uint256"
            },
            {
              "internalType": "uint256",
              "name": "claimed",
              "type": "uint256"
            },
            {
              "internalType": "uint64",
              "name": "since",
              "type": "uint64"
            },
            {
              "internalType": "uint64",
              "name": "until",
              "type": "uint64"
            },
            {
              "internalType": "address",
              "name": "from",
              "type": "address"
            }
          ],
          "internalType": "struct SOAS.ClaimInfo",
          "name": "",
          "type": "tuple"
        }
      ],
      "stateMutability": "view",
      "type": "function"
    },
    {
      "inputs": [
        {
          "internalType": "address",
          "name": "holder",
          "type": "address"
        }
      ],
      "name": "getClaimableOAS",
      "outputs": [
        {
          "internalType": "uint256",
          "name": "",
          "type": "uint256"
        }
      ],
      "stateMutability": "view",
      "type": "function"
    },
    {
      "inputs": [
        {
          "internalType": "address",
          "name": "spender",
          "type": "address"
        },
        {
          "internalType": "uint256",
          "name": "addedValue",
          "type": "uint256"
        }
      ],
      "name": "increaseAllowance",
      "outputs": [
        {
          "internalType": "bool",
          "name": "",
          "type": "bool"
        }
      ],
      "stateMutability": "nonpayable",
      "type": "function"
    },
    {
      "inputs": [
        {
          "internalType": "address",
          "name": "to",
          "type": "address"
        },
        {
          "internalType": "uint64",
          "name": "since",
          "type": "uint64"
        },
        {
          "internalType": "uint64",
          "name": "until",
          "type": "uint64"
        }
      ],
      "name": "mint",
      "outputs": [],
      "stateMutability": "payable",
      "type": "function"
    },
    {
      "inputs": [],
      "name": "name",
      "outputs": [
        {
          "internalType": "string",
          "name": "",
          "type": "string"
        }
      ],
      "stateMutability": "view",
      "type": "function"
    },
    {
      "inputs": [
        {
          "internalType": "uint256",
          "name": "amount",
          "type": "uint256"
        }
      ],
      "name": "renounce",
      "outputs": [],
      "stateMutability": "nonpayable",
      "type": "function"
    },
    {
      "inputs": [],
      "name": "staking",
      "outputs": [
        {
          "internalType": "address",
          "name": "",
          "type": "address"
        }
      ],
      "stateMutability": "view",
      "type": "function"
    },
    {
      "inputs": [],
      "name": "symbol",
      "outputs": [
        {
          "internalType": "string",
          "name": "",
          "type": "string"
        }
      ],
      "stateMutability": "view",
      "type": "function"
    },
    {
      "inputs": [],
      "name": "totalSupply",
      "outputs": [
        {
          "internalType": "uint256",
          "name": "",
          "type": "uint256"
        }
      ],
      "stateMutability": "view",
      "type": "function"
    },
    {
      "inputs": [
        {
          "internalType": "address",
          "name": "to",
          "type": "address"
        },
        {
          "internalType": "uint256",
          "name": "amount",
          "type": "uint256"
        }
      ],
      "name": "transfer",
      "outputs": [
        {
          "internalType": "bool",
          "name": "",
          "type": "bool"
        }
      ],
      "stateMutability": "nonpayable",
      "type": "function"
    },
    {
      "inputs": [
        {
          "internalType": "address",
          "name": "from",
          "type": "address"
        },
        {
          "internalType": "address",
          "name": "to",
          "type": "address"
        },
        {
          "internalType": "uint256",
          "name": "amount",
          "type": "uint256"
        }
      ],
      "name": "transferFrom",
      "outputs": [
        {
          "internalType": "bool",
          "name": "",
          "type": "bool"
        }
      ],
      "stateMutability": "nonpayable",
      "type": "function"
    }
  ],
  "bytecode": "0x60806040523480156200001157600080fd5b506040516200167d3803806200167d83398101604081905262000034916200016a565b604080518082018252600c81526b5374616b61626c65204f415360a01b602080830191825283518085019094526004845263534f415360e01b9084015281519192916200008491600391620000c4565b5080516200009a906004906020840190620000c4565b5050600580546001600160a01b0319166001600160a01b03939093169290921790915550620001d9565b828054620000d2906200019c565b90600052602060002090601f016020900481019282620000f6576000855562000141565b82601f106200011157805160ff191683800117855562000141565b8280016001018555821562000141579182015b828111156200014157825182559160200191906001019062000124565b506200014f92915062000153565b5090565b5b808211156200014f576000815560010162000154565b6000602082840312156200017d57600080fd5b81516001600160a01b03811681146200019557600080fd5b9392505050565b600181811c90821680620001b157607f821691505b60208210811415620001d357634e487b7160e01b600052602260045260246000fd5b50919050565b61149480620001e96000396000f3fe6080604052600436106100fe5760003560e01c80634cf088d9116100955780637de6b1db116100645780637de6b1db146103a657806395d89b41146103c6578063a457c2d7146103db578063a9059cbb146103fb578063dd62ed3e1461041b57600080fd5b80634cf088d914610305578063546cec3e1461033d5780636dec93f11461035057806370a082311461037057600080fd5b806323b872dd116100d157806323b872dd14610287578063313ce567146102a7578063379607f5146102c357806339509351146102e557600080fd5b806306fdde03146101035780630835fe471461012e578063095ea7b31461023857806318160ddd14610268575b600080fd5b34801561010f57600080fd5b50610118610461565b60405161012591906111dd565b60405180910390f35b34801561013a57600080fd5b506101e161014936600461124e565b6040805160a081018252600080825260208201819052918101829052606081018290526080810191909152506001600160a01b03908116600090815260066020908152604091829020825160a0810184528154815260018201549281019290925260028101546001600160401b0380821694840194909452600160401b90049092166060820152600390910154909116608082015290565b604051610125919081518152602080830151908201526040808301516001600160401b0390811691830191909152606080840151909116908201526080918201516001600160a01b03169181019190915260a00190565b34801561024457600080fd5b50610258610253366004611269565b6104f3565b6040519015158152602001610125565b34801561027457600080fd5b506002545b604051908152602001610125565b34801561029357600080fd5b506102586102a2366004611293565b61050b565b3480156102b357600080fd5b5060405160128152602001610125565b3480156102cf57600080fd5b506102e36102de3660046112cf565b61052f565b005b3480156102f157600080fd5b50610258610300366004611269565b61066e565b34801561031157600080fd5b50600554610325906001600160a01b031681565b6040516001600160a01b039091168152602001610125565b6102e361034b3660046112ff565b6106ad565b34801561035c57600080fd5b5061027961036b36600461124e565b61088d565b34801561037c57600080fd5b5061027961038b36600461124e565b6001600160a01b031660009081526020819052604090205490565b3480156103b257600080fd5b506102e36103c13660046112cf565b61098b565b3480156103d257600080fd5b50610118610aed565b3480156103e757600080fd5b506102586103f6366004611269565b610afc565b34801561040757600080fd5b50610258610416366004611269565b610b93565b34801561042757600080fd5b50610279610436366004611342565b6001600160a01b03918216600090815260016020908152604080832093909416825291909152205490565b60606003805461047090611375565b80601f016020809104026020016040519081016040528092919081815260200182805461049c90611375565b80156104e95780601f106104be576101008083540402835291602001916104e9565b820191906000526020600020905b8154815290600101906020018083116104cc57829003601f168201915b5050505050905090565b600033610501818585610ba1565b5060019392505050565b600033610519858285610cc6565b610524858585610d58565b506001949350505050565b8061054d57604051637bc90c0560e11b815260040160405180910390fd5b33600081815260066020526040812060010154909161056b9061088d565b61057591906113c6565b905080821115610598576040516377dfdf2160e01b815260040160405180910390fd5b33600090815260066020526040812060010180548492906105ba9084906113dd565b909155506105ca90503383610f31565b604051600090339084908381818185875af1925050503d806000811461060c576040519150601f19603f3d011682016040523d82523d6000602084013e610611565b606091505b5050905080610633576040516312171d8360e31b815260040160405180910390fd5b60405183815233907f47cee97cb7acd717b3c0aa1435d004cd5b3c8c57d70dbceb4e4458bbd60e39d4906020015b60405180910390a2505050565b3360008181526001602090815260408083206001600160a01b038716845290915281205490919061050190829086906106a89087906113dd565b610ba1565b6001600160a01b03831615806106d057506005546001600160a01b038481169116145b156106ee5760405163ac6b05f560e01b815260040160405180910390fd5b6001600160a01b0383166000908152600660205260409020541561072557604051631bbdf5c560e31b815260040160405180910390fd5b42826001600160401b031611158061074f5750806001600160401b0316826001600160401b031610155b1561076d57604051636385801560e11b815260040160405180910390fd5b3461078b57604051637bc90c0560e11b815260040160405180910390fd5b6107958334611088565b6040805160a08101825234808252600060208084018281526001600160401b038089168688019081528882166060880190815233608089019081526001600160a01b038d81168089526006909752968a90209851895593516001890155905160028801805492518416600160401b026fffffffffffffffffffffffffffffffff1990931691909316171790555160039094018054949092166001600160a01b0319909416939093179055915190917fb4c03061fb5b7fed76389d5af8f2e0ddb09f8c70d1333abbb62582835e10accb916106619190869086909283526001600160401b03918216602084015216604082015260600190565b6001600160a01b038082166000908152600660209081526040808320815160a081018352815480825260018301549482019490945260028201546001600160401b0380821694830194909452600160401b900490921660608301526003015490931660808401529091906109045750600092915050565b80604001516001600160401b03164210156109225750600092915050565b60008160400151826060015161093891906113f5565b6001600160401b031682604001516001600160401b03164261095a91906113c6565b8351610966919061141d565b610970919061143c565b825190915081111561098457505192915050565b9392505050565b806109a957604051637bc90c0560e11b815260040160405180910390fd5b33600090815260066020908152604091829020825160a0810184528154808252600183015493820184905260028301546001600160401b0380821696840196909652600160401b900490941660608201526003909101546001600160a01b0316608082015291610a1991906113c6565b821115610a39576040516377dfdf2160e01b815260040160405180910390fd5b610a433383610f31565b600081608001516001600160a01b03168360405160006040518083038185875af1925050503d8060008114610a94576040519150601f19603f3d011682016040523d82523d6000602084013e610a99565b606091505b5050905080610abb576040516312171d8360e31b815260040160405180910390fd5b60405183815233907f443630e54cc5dd8826c25d7467193a3b7a0a67b4ed73c14fb477e8e7eed3fd4890602001610661565b60606004805461047090611375565b3360008181526001602090815260408083206001600160a01b038716845290915281205490919083811015610b865760405162461bcd60e51b815260206004820152602560248201527f45524332303a2064656372656173656420616c6c6f77616e63652062656c6f77604482015264207a65726f60d81b60648201526084015b60405180910390fd5b6105248286868403610ba1565b600033610501818585610d58565b6001600160a01b038316610c035760405162461bcd60e51b8152602060048201526024808201527f45524332303a20617070726f76652066726f6d20746865207a65726f206164646044820152637265737360e01b6064820152608401610b7d565b6001600160a01b038216610c645760405162461bcd60e51b815260206004820152602260248201527f45524332303a20617070726f766520746f20746865207a65726f206164647265604482015261737360f01b6064820152608401610b7d565b6001600160a01b0383811660008181526001602090815260408083209487168084529482529182902085905590518481527f8c5be1e5ebec7d5bd14f71427d1e84f3dd0314c0f7b2291e5b200ac8c7c3b92591015b60405180910390a3505050565b6001600160a01b038381166000908152600160209081526040808320938616835292905220546000198114610d525781811015610d455760405162461bcd60e51b815260206004820152601d60248201527f45524332303a20696e73756666696369656e7420616c6c6f77616e63650000006044820152606401610b7d565b610d528484848403610ba1565b50505050565b6001600160a01b038316610dbc5760405162461bcd60e51b815260206004820152602560248201527f45524332303a207472616e736665722066726f6d20746865207a65726f206164604482015264647265737360d81b6064820152608401610b7d565b6001600160a01b038216610e1e5760405162461bcd60e51b815260206004820152602360248201527f45524332303a207472616e7366657220746f20746865207a65726f206164647260448201526265737360e81b6064820152608401610b7d565b610e29838383611173565b6001600160a01b03831660009081526020819052604090205481811015610ea15760405162461bcd60e51b815260206004820152602660248201527f45524332303a207472616e7366657220616d6f756e7420657863656564732062604482015265616c616e636560d01b6064820152608401610b7d565b6001600160a01b03808516600090815260208190526040808220858503905591851681529081208054849290610ed89084906113dd565b92505081905550826001600160a01b0316846001600160a01b03167fddf252ad1be2c89b69c2b068fc378daa952ba7f163c4a11628f55a4df523b3ef84604051610f2491815260200190565b60405180910390a3610d52565b6001600160a01b038216610f915760405162461bcd60e51b815260206004820152602160248201527f45524332303a206275726e2066726f6d20746865207a65726f206164647265736044820152607360f81b6064820152608401610b7d565b610f9d82600083611173565b6001600160a01b038216600090815260208190526040902054818110156110115760405162461bcd60e51b815260206004820152602260248201527f45524332303a206275726e20616d6f756e7420657863656564732062616c616e604482015261636560f01b6064820152608401610b7d565b6001600160a01b03831660009081526020819052604081208383039055600280548492906110409084906113c6565b90915550506040518281526000906001600160a01b038516907fddf252ad1be2c89b69c2b068fc378daa952ba7f163c4a11628f55a4df523b3ef90602001610cb9565b505050565b6001600160a01b0382166110de5760405162461bcd60e51b815260206004820152601f60248201527f45524332303a206d696e7420746f20746865207a65726f2061646472657373006044820152606401610b7d565b6110ea60008383611173565b80600260008282546110fc91906113dd565b90915550506001600160a01b038216600090815260208190526040812080548392906111299084906113dd565b90915550506040518181526001600160a01b038316906000907fddf252ad1be2c89b69c2b068fc378daa952ba7f163c4a11628f55a4df523b3ef9060200160405180910390a35050565b6001600160a01b038316158061119057506001600160a01b038216155b806111a857506005546001600160a01b038481169116145b806111c057506005546001600160a01b038381169116145b611083576040516325cdf54f60e21b815260040160405180910390fd5b600060208083528351808285015260005b8181101561120a578581018301518582016040015282016111ee565b8181111561121c576000604083870101525b50601f01601f1916929092016040019392505050565b80356001600160a01b038116811461124957600080fd5b919050565b60006020828403121561126057600080fd5b61098482611232565b6000806040838503121561127c57600080fd5b61128583611232565b946020939093013593505050565b6000806000606084860312156112a857600080fd5b6112b184611232565b92506112bf60208501611232565b9150604084013590509250925092565b6000602082840312156112e157600080fd5b5035919050565b80356001600160401b038116811461124957600080fd5b60008060006060848603121561131457600080fd5b61131d84611232565b925061132b602085016112e8565b9150611339604085016112e8565b90509250925092565b6000806040838503121561135557600080fd5b61135e83611232565b915061136c60208401611232565b90509250929050565b600181811c9082168061138957607f821691505b602082108114156113aa57634e487b7160e01b600052602260045260246000fd5b50919050565b634e487b7160e01b600052601160045260246000fd5b6000828210156113d8576113d86113b0565b500390565b600082198211156113f0576113f06113b0565b500190565b60006001600160401b0383811690831681811015611415576114156113b0565b039392505050565b6000816000190483118215151615611437576114376113b0565b500290565b60008261145957634e487b7160e01b600052601260045260246000fd5b50049056fea264697066735822122036757a200d6086199337d4fe6e65a2681ae0d4b849c3481d3f12accba63ef01c64736f6c634300080c0033",
  "linkReferences": {},
  "deployedLinkReferences": {}
}