{
  "_format": "hh-sol-artifact-1",
  "contractName": "NFTBridgeRelayer",
  "sourceName": "contracts/nft-bridge/NFTBridgeRelayer.sol",
  "abi": [
    {
      "inputs": [
        {
          "internalType": "address",
          "name": "_mainchainBridge",
          "type": "address"
        },
        {
          "internalType": "address",
          "name": "_sidechainBridge",
          "type": "address"
        },
        {
          "internalType": "address[]",
          "name": "signers",
          "type": "address[]"
        },
        {
          "internalType": "uint256",
          "name": "threshold",
          "type": "uint256"
        }
      ],
      "stateMutability": "nonpayable",
      "type": "constructor"
    },
    {
      "anonymous": false,
      "inputs": [
        {
          "indexed": false,
          "internalType": "address",
          "name": "_address",
          "type": "address"
        }
      ],
      "name": "SignerAdded",
      "type": "event"
    },
    {
      "anonymous": false,
      "inputs": [
        {
          "indexed": false,
          "internalType": "address",
          "name": "_address",
          "type": "address"
        }
      ],
      "name": "SignerRemoved",
      "type": "event"
    },
    {
      "anonymous": false,
      "inputs": [
        {
          "indexed": false,
          "internalType": "uint256",
          "name": "_threshold",
          "type": "uint256"
        }
      ],
      "name": "ThresholdUpdated",
      "type": "event"
    },
    {
      "inputs": [
        {
          "internalType": "address",
          "name": "_address",
          "type": "address"
        },
        {
          "internalType": "bytes",
          "name": "signatures",
          "type": "bytes"
        }
      ],
      "name": "addSigner",
      "outputs": [],
      "stateMutability": "nonpayable",
      "type": "function"
    },
    {
      "inputs": [
        {
          "internalType": "uint256",
          "name": "sidechainId",
          "type": "uint256"
        },
        {
          "internalType": "uint256",
          "name": "mainchainId",
          "type": "uint256"
        },
        {
          "internalType": "address",
          "name": "mainERC721",
          "type": "address"
        },
        {
          "internalType": "string",
          "name": "name",
          "type": "string"
        },
        {
          "internalType": "string",
          "name": "symbol",
          "type": "string"
        },
        {
          "internalType": "bytes",
          "name": "signatures",
          "type": "bytes"
        }
      ],
      "name": "createSidechainERC721",
      "outputs": [],
      "stateMutability": "nonpayable",
      "type": "function"
    },
    {
      "inputs": [
        {
          "internalType": "uint256",
          "name": "sidechainId",
          "type": "uint256"
        },
        {
          "internalType": "uint256",
          "name": "mainchainId",
          "type": "uint256"
        },
        {
          "internalType": "uint256",
          "name": "depositIndex",
          "type": "uint256"
        },
        {
          "internalType": "address",
          "name": "mainERC721",
          "type": "address"
        },
        {
          "internalType": "uint256",
          "name": "tokenId",
          "type": "uint256"
        },
        {
          "internalType": "address",
          "name": "mainFrom",
          "type": "address"
        },
        {
          "internalType": "address",
          "name": "sideTo",
          "type": "address"
        },
        {
          "internalType": "bytes",
          "name": "signatures",
          "type": "bytes"
        }
      ],
      "name": "finalizeDeposit",
      "outputs": [],
      "stateMutability": "nonpayable",
      "type": "function"
    },
    {
      "inputs": [
        {
          "internalType": "uint256",
          "name": "mainchainId",
          "type": "uint256"
        },
        {
          "internalType": "uint256",
          "name": "depositIndex",
          "type": "uint256"
        },
        {
          "internalType": "uint256",
          "name": "sidechainId",
          "type": "uint256"
        },
        {
          "internalType": "uint256",
          "name": "withdrawalIndex",
          "type": "uint256"
        },
        {
          "internalType": "address",
          "name": "sideFrom",
          "type": "address"
        },
        {
          "internalType": "address",
          "name": "mainTo",
          "type": "address"
        },
        {
          "internalType": "bytes",
          "name": "signatures",
          "type": "bytes"
        }
      ],
      "name": "finalizeWithdrawal",
      "outputs": [],
      "stateMutability": "nonpayable",
      "type": "function"
    },
    {
      "inputs": [],
      "name": "getSigners",
      "outputs": [
        {
          "internalType": "address[]",
          "name": "",
          "type": "address[]"
        }
      ],
      "stateMutability": "view",
      "type": "function"
    },
    {
      "inputs": [],
      "name": "mainchainBridge",
      "outputs": [
        {
          "internalType": "address",
          "name": "",
          "type": "address"
        }
      ],
      "stateMutability": "view",
      "type": "function"
    },
    {
      "inputs": [
        {
          "internalType": "uint256",
          "name": "mainchainId",
          "type": "uint256"
        },
        {
          "internalType": "uint256",
          "name": "depositIndex",
          "type": "uint256"
        },
        {
          "internalType": "bytes",
          "name": "signatures",
          "type": "bytes"
        }
      ],
      "name": "rejectDeposit",
      "outputs": [],
      "stateMutability": "nonpayable",
      "type": "function"
    },
    {
      "inputs": [
        {
          "internalType": "uint256",
          "name": "sidechainId",
          "type": "uint256"
        },
        {
          "internalType": "uint256",
          "name": "withdrawalIndex",
          "type": "uint256"
        },
        {
          "internalType": "bytes",
          "name": "signatures",
          "type": "bytes"
        }
      ],
      "name": "rejectWithdrawal",
      "outputs": [],
      "stateMutability": "nonpayable",
      "type": "function"
    },
    {
      "inputs": [
        {
          "internalType": "address",
          "name": "_address",
          "type": "address"
        },
        {
          "internalType": "bytes",
          "name": "signatures",
          "type": "bytes"
        }
      ],
      "name": "removeSigner",
      "outputs": [],
      "stateMutability": "nonpayable",
      "type": "function"
    },
    {
      "inputs": [],
      "name": "sidechainBridge",
      "outputs": [
        {
          "internalType": "address",
          "name": "",
          "type": "address"
        }
      ],
      "stateMutability": "view",
      "type": "function"
    },
    {
      "inputs": [],
      "name": "threshold",
      "outputs": [
        {
          "internalType": "uint256",
          "name": "",
          "type": "uint256"
        }
      ],
      "stateMutability": "view",
      "type": "function"
    },
    {
      "inputs": [
        {
          "internalType": "uint256",
          "name": "mainchainId",
          "type": "uint256"
        },
        {
          "internalType": "address",
          "name": "newRelayer",
          "type": "address"
        },
        {
          "internalType": "bytes",
          "name": "signatures",
          "type": "bytes"
        }
      ],
      "name": "transferMainchainRelayer",
      "outputs": [],
      "stateMutability": "nonpayable",
      "type": "function"
    },
    {
      "inputs": [
        {
          "internalType": "uint256",
          "name": "sidechainId",
          "type": "uint256"
        },
        {
          "internalType": "address",
          "name": "newRelayer",
          "type": "address"
        },
        {
          "internalType": "bytes",
          "name": "signatures",
          "type": "bytes"
        }
      ],
      "name": "transferSidechainRelayer",
      "outputs": [],
      "stateMutability": "nonpayable",
      "type": "function"
    },
    {
      "inputs": [
        {
          "internalType": "uint256",
          "name": "_threshold",
          "type": "uint256"
        },
        {
          "internalType": "bytes",
          "name": "signatures",
          "type": "bytes"
        }
      ],
      "name": "updateThreshold",
      "outputs": [],
      "stateMutability": "nonpayable",
      "type": "function"
    },
    {
      "inputs": [
        {
          "internalType": "bytes32",
          "name": "_hash",
          "type": "bytes32"
        },
        {
          "internalType": "bytes",
          "name": "signatures",
          "type": "bytes"
        }
      ],
      "name": "verifySignatures",
      "outputs": [
        {
          "internalType": "bool",
          "name": "",
          "type": "bool"
        }
      ],
      "stateMutability": "view",
      "type": "function"
    }
  ],
  "bytecode": "0x60806040523480156200001157600080fd5b5060405162001a0d38038062001a0d833981016040819052620000349162000201565b818160005b8251811015620001105760008382815181106200005a576200005a62000301565b60209081029190910181015182546001810184556000938452919092200180546001600160a01b0319166001600160a01b0390921691909117905582517f47d1c22a25bb3a5d4e481b9b1e6944c2eade3181a0a20b495ed61d35b5323f2490849083908110620000ce57620000ce62000301565b6020026020010151604051620000f391906001600160a01b0391909116815260200190565b60405180910390a180620001078162000317565b91505062000039565b506000548111156200015b5760405162461bcd60e51b815260206004820152601060248201526f29b4b3b732b91039b437b93a30b3b29760811b604482015260640160405180910390fd5b60018190556040518181527fadfa8ecb21b6962ebcd0adbd9ab985b7b4c5b5eb3b0dead683171565c7bfe1719060200160405180910390a15050600280546001600160a01b039586166001600160a01b031991821617909155600380549490951693169290921790925550620003419050565b80516001600160a01b0381168114620001e657600080fd5b919050565b634e487b7160e01b600052604160045260246000fd5b600080600080608085870312156200021857600080fd5b6200022385620001ce565b9350602062000234818701620001ce565b60408701519094506001600160401b03808211156200025257600080fd5b818801915088601f8301126200026757600080fd5b8151818111156200027c576200027c620001eb565b8060051b604051601f19603f83011681018181108582111715620002a457620002a4620001eb565b60405291825284820192508381018501918b831115620002c357600080fd5b938501935b82851015620002ec57620002dc85620001ce565b84529385019392850192620002c8565b60609a909a0151989b979a5050505050505050565b634e487b7160e01b600052603260045260246000fd5b60006000198214156200033a57634e487b7160e01b600052601160045260246000fd5b5060010190565b6116bc80620003516000396000f3fe608060405234801561001057600080fd5b50600436106100f55760003560e01c8063806e7da311610097578063a3eec8fd11610066578063a3eec8fd146101f0578063b8dc522314610203578063c7a823e014610216578063f15ee1591461023957600080fd5b8063806e7da3146101a2578063821c0976146101b55780638529121e146101c857806394cf795e146101db57600080fd5b80634b544c1d116100d35780634b544c1d146101565780634b9a222f1461016957806367c552c61461017c5780637ebab1171461018f57600080fd5b8063044fd0f2146100fa5780631fd0f5e31461010f57806342cde4e81461013f575b600080fd5b61010d610108366004611155565b61024c565b005b600254610122906001600160a01b031681565b6040516001600160a01b0390911681526020015b60405180910390f35b61014860015481565b604051908152602001610136565b61010d6101643660046111c1565b61032a565b61010d61017736600461120f565b6104bc565b61010d61018a3660046112a5565b6105b8565b61010d61019d3660046111c1565b6106d6565b600354610122906001600160a01b031681565b61010d6101c336600461132a565b61094d565b61010d6101d636600461135b565b610a37565b6101e3610ae4565b604051610136919061139c565b61010d6101fe36600461135b565b610b46565b61010d6102113660046113e9565b610bf3565b61022961022436600461132a565b610ce5565b6040519015158152602001610136565b61010d610247366004611155565b610e13565b604080516024810185905260448082018590528251808303909101815260649091019091526020810180516001600160e01b03166318800b7160e31b178152905190206102998183610ce5565b6102be5760405162461bcd60e51b81526004016102b590611494565b60405180910390fd5b6003546040516318800b7160e31b815260048101869052602481018590526001600160a01b039091169063c4005b88906044015b600060405180830381600087803b15801561030c57600080fd5b505af1158015610320573d6000803e3d6000fd5b5050505050505050565b604080516001600160a01b0384166024808301919091528251808303909101815260449091019091526020810180516001600160e01b0316634b544c1d60e01b1781529051902061037b8183610ce5565b6103975760405162461bcd60e51b81526004016102b590611494565b6103fb60008054806020026020016040519081016040528092919081815260200182805480156103f057602002820191906000526020600020905b81546001600160a01b031681526001909101906020018083116103d2575b505050505084610eb4565b156104385760405162461bcd60e51b815260206004820152600d60248201526c185b1c9958591e481859191959609a1b60448201526064016102b5565b600080546001810182559080527f290decd9548b62a8d60345a988386fc84ba6bc95484008f6362f93160ef3e5630180546001600160a01b0319166001600160a01b0385169081179091556040519081527f47d1c22a25bb3a5d4e481b9b1e6944c2eade3181a0a20b495ed61d35b5323f24906020015b60405180910390a1505050565b600063aaf2686a60e01b898989898989896040516024016104e397969594939291906114c0565b60408051601f198184030181529190526020810180516001600160e01b03166001600160e01b031990931692909217825251902090506105238183610ce5565b61053f5760405162461bcd60e51b81526004016102b590611494565b600354604051635579343560e11b81526001600160a01b039091169063aaf2686a9061057b908c908c908c908c908c908c908c906004016114c0565b600060405180830381600087803b15801561059557600080fd5b505af11580156105a9573d6000803e3d6000fd5b50505050505050505050505050565b60408051602481018990526044810188905260648101879052608481018690526001600160a01b0385811660a4830152841660c4808301919091528251808303909101815260e49091019091526020810180516001600160e01b03166303c9dfb760e41b1781529051902061062d8183610ce5565b6106495760405162461bcd60e51b81526004016102b590611494565b6002546040516303c9dfb760e41b8152600481018a90526024810189905260448101889052606481018790526001600160a01b03868116608483015285811660a483015290911690633c9dfb709060c401600060405180830381600087803b1580156106b457600080fd5b505af11580156106c8573d6000803e3d6000fd5b505050505050505050505050565b604080516001600160a01b0384166024808301919091528251808303909101815260449091019091526020810180516001600160e01b0316634b544c1d60e01b178152905190206107278183610ce5565b6107435760405162461bcd60e51b81526004016102b590611494565b6107a560008054806020026020016040519081016040528092919081815260200182805480156103f0576020028201919060005260206000209081546001600160a01b031681526001909101906020018083116103d257505050505084610eb4565b6107e55760405162461bcd60e51b81526020600482015260116024820152701859191c995cdcc81b9bdd08199bdd5b99607a1b60448201526064016102b5565b6000805490805b6107f7600184611512565b8110156108d3578115801561083b5750856001600160a01b03166000828154811061082457610824611529565b6000918252602090912001546001600160a01b0316145b1561084557600191505b81156108c157600061085882600161153f565b8154811061086857610868611529565b600091825260208220015481546001600160a01b0390911691908390811061089257610892611529565b9060005260206000200160006101000a8154816001600160a01b0302191690836001600160a01b031602179055505b806108cb81611557565b9150506107ec565b5060008054806108e5576108e5611572565b6000828152602090819020600019908301810180546001600160a01b03191690559091019091556040516001600160a01b03871681527f3525e22824a8a7df2c9a6029941c824cf95b6447f1e13d5128fd3826d35afe8b910160405180910390a15050505050565b81600154141561095b575050565b6040805160248082018590528251808303909101815260449091019091526020810180516001600160e01b031663410e04bb60e11b178152905190206109a18183610ce5565b6109bd5760405162461bcd60e51b81526004016102b590611494565b600054831115610a025760405162461bcd60e51b815260206004820152601060248201526f29b4b3b732b91039b437b93a30b3b29760811b60448201526064016102b5565b60018390556040518381527fadfa8ecb21b6962ebcd0adbd9ab985b7b4c5b5eb3b0dead683171565c7bfe171906020016104af565b60408051602481018590526001600160a01b0384166044808301919091528251808303909101815260649091019091526020810180516001600160e01b0316637d82ea3360e01b17815290519020610a8f8183610ce5565b610aab5760405162461bcd60e51b81526004016102b590611494565b600354604051637d82ea3360e01b8152600481018690526001600160a01b03858116602483015290911690637d82ea33906044016102f2565b60606000805480602002602001604051908101604052809291908181526020018280548015610b3c57602002820191906000526020600020905b81546001600160a01b03168152600190910190602001808311610b1e575b5050505050905090565b60408051602481018590526001600160a01b0384166044808301919091528251808303909101815260649091019091526020810180516001600160e01b03166347b3f27160e11b17815290519020610b9e8183610ce5565b610bba5760405162461bcd60e51b81526004016102b590611494565b6002546040516347b3f27160e11b8152600481018690526001600160a01b03858116602483015290911690638f67e4e2906044016102f2565b6000638d532b6860e01b8787878787604051602401610c169594939291906115d5565b60408051601f198184030181529190526020810180516001600160e01b03166001600160e01b03199093169290921782525190209050610c568183610ce5565b610c725760405162461bcd60e51b81526004016102b590611494565b6003546040516311aa656d60e31b81526001600160a01b0390911690638d532b6890610caa908a908a908a908a908a906004016115d5565b600060405180830381600087803b158015610cc457600080fd5b505af1158015610cd8573d6000803e3d6000fd5b5050505050505050505050565b60008060418351610cf69190611620565b905060008060005b83811015610e02576000610d1d8888610d18856041611642565b610f1e565b9050610d836000805480602002602001604051908101604052809291908181526020018280548015610d7857602002820191906000526020600020905b81546001600160a01b03168152600190910190602001808311610d5a575b505050505082610eb4565b15610d965783610d9281611557565b9450505b826001600160a01b0316816001600160a01b031611610dee5760405162461bcd60e51b8152602060048201526014602482015273125b9d985b1a59081859191c995cdcc81cdbdc9d60621b60448201526064016102b5565b915080610dfa81611557565b915050610cfe565b505060015411159150505b92915050565b604080516024810185905260448082018590528251808303909101815260649091019091526020810180516001600160e01b0316631a13ed3d60e31b17815290519020610e608183610ce5565b610e7c5760405162461bcd60e51b81526004016102b590611494565b600254604051631a13ed3d60e31b815260048101869052602481018590526001600160a01b039091169063d09f69e8906044016102f2565b8151600090815b81811015610f1357836001600160a01b0316858281518110610edf57610edf611529565b60200260200101516001600160a01b03161415610f0157600192505050610e0d565b80610f0b81611557565b915050610ebb565b506000949350505050565b6000610f2b82604161153f565b83511015610f7b5760405162461bcd60e51b815260206004820152601860248201527f5369676e6174757265732073697a652073686f7274616765000000000000000060448201526064016102b5565b8282016020810151604082015160419092015190919060ff16601b811015610fab57610fa8601b82611661565b90505b8060ff16601b1480610fc057508060ff16601c145b6110015760405162461bcd60e51b81526020600482015260126024820152710ec40daeae6e840c4ca40646e40dee44064760731b60448201526064016102b5565b6040517f19457468657265756d205369676e6564204d6573736167653a0a3332000000006020820152603c8101889052605c0160408051601f1981840301815282825280516020918201206000845290830180835281905260ff8416918301919091526060820185905260808201849052975060019060a0016020604051602081039080840390855afa15801561109c573d6000803e3d6000fd5b5050604051601f19015198975050505050505050565b634e487b7160e01b600052604160045260246000fd5b600082601f8301126110d957600080fd5b813567ffffffffffffffff808211156110f4576110f46110b2565b604051601f8301601f19908116603f0116810190828211818310171561111c5761111c6110b2565b8160405283815286602085880101111561113557600080fd5b836020870160208301376000602085830101528094505050505092915050565b60008060006060848603121561116a57600080fd5b8335925060208401359150604084013567ffffffffffffffff81111561118f57600080fd5b61119b868287016110c8565b9150509250925092565b80356001600160a01b03811681146111bc57600080fd5b919050565b600080604083850312156111d457600080fd5b6111dd836111a5565b9150602083013567ffffffffffffffff8111156111f957600080fd5b611205858286016110c8565b9150509250929050565b600080600080600080600080610100898b03121561122c57600080fd5b88359750602089013596506040890135955061124a60608a016111a5565b94506080890135935061125f60a08a016111a5565b925061126d60c08a016111a5565b915060e089013567ffffffffffffffff81111561128957600080fd5b6112958b828c016110c8565b9150509295985092959890939650565b600080600080600080600060e0888a0312156112c057600080fd5b873596506020880135955060408801359450606088013593506112e5608089016111a5565b92506112f360a089016111a5565b915060c088013567ffffffffffffffff81111561130f57600080fd5b61131b8a828b016110c8565b91505092959891949750929550565b6000806040838503121561133d57600080fd5b82359150602083013567ffffffffffffffff8111156111f957600080fd5b60008060006060848603121561137057600080fd5b83359250611380602085016111a5565b9150604084013567ffffffffffffffff81111561118f57600080fd5b6020808252825182820181905260009190848201906040850190845b818110156113dd5783516001600160a01b0316835292840192918401916001016113b8565b50909695505050505050565b60008060008060008060c0878903121561140257600080fd5b8635955060208701359450611419604088016111a5565b9350606087013567ffffffffffffffff8082111561143657600080fd5b6114428a838b016110c8565b9450608089013591508082111561145857600080fd5b6114648a838b016110c8565b935060a089013591508082111561147a57600080fd5b5061148789828a016110c8565b9150509295509295509295565b602080825260129082015271496e76616c6964207369676e61747572657360701b604082015260600190565b968752602087019590955260408601939093526001600160a01b039182166060860152608085015290811660a08401521660c082015260e00190565b634e487b7160e01b600052601160045260246000fd5b600082821015611524576115246114fc565b500390565b634e487b7160e01b600052603260045260246000fd5b60008219821115611552576115526114fc565b500190565b600060001982141561156b5761156b6114fc565b5060010190565b634e487b7160e01b600052603160045260246000fd5b6000815180845260005b818110156115ae57602081850181015186830182015201611592565b818111156115c0576000602083870101525b50601f01601f19169290920160200192915050565b85815284602082015260018060a01b038416604082015260a06060820152600061160260a0830185611588565b82810360808401526116148185611588565b98975050505050505050565b60008261163d57634e487b7160e01b600052601260045260246000fd5b500490565b600081600019048311821515161561165c5761165c6114fc565b500290565b600060ff821660ff84168060ff0382111561167e5761167e6114fc565b01939250505056fea264697066735822122064452ce4de0da0d70d9f679514de2544b0dafc69dc7d852097b752db04ac32f364736f6c63430008090033",
  "linkReferences": {},
  "deployedLinkReferences": {}
}