{
  "_format": "hh-sol-artifact-1",
  "contractName": "NFTBridgeRelayer",
  "sourceName": "contracts/nft-bridge/NFTBridgeRelayer.sol",
  "abi": [
    {
      "inputs": [
        {
          "internalType": "address",
          "name": "_mainchainBridge",
          "type": "address"
        },
        {
          "internalType": "address",
          "name": "_sidechainBridge",
          "type": "address"
        },
        {
          "internalType": "address[]",
          "name": "signers",
          "type": "address[]"
        },
        {
          "internalType": "uint256",
          "name": "threshold",
          "type": "uint256"
        }
      ],
      "stateMutability": "nonpayable",
      "type": "constructor"
    },
    {
      "anonymous": false,
      "inputs": [
        {
          "indexed": true,
          "internalType": "address",
          "name": "_address",
          "type": "address"
        }
      ],
      "name": "SignerAdded",
      "type": "event"
    },
    {
      "anonymous": false,
      "inputs": [
        {
          "indexed": true,
          "internalType": "address",
          "name": "_address",
          "type": "address"
        }
      ],
      "name": "SignerRemoved",
      "type": "event"
    },
    {
      "anonymous": false,
      "inputs": [
        {
          "indexed": true,
          "internalType": "uint256",
          "name": "_threshold",
          "type": "uint256"
        }
      ],
      "name": "ThresholdUpdated",
      "type": "event"
    },
    {
      "inputs": [
        {
          "internalType": "address",
          "name": "_address",
          "type": "address"
        },
        {
          "internalType": "uint64",
          "name": "expiration",
          "type": "uint64"
        },
        {
          "internalType": "bytes",
          "name": "signatures",
          "type": "bytes"
        }
      ],
      "name": "addSigner",
      "outputs": [],
      "stateMutability": "nonpayable",
      "type": "function"
    },
    {
      "inputs": [
        {
          "internalType": "uint256",
          "name": "sidechainId",
          "type": "uint256"
        },
        {
          "internalType": "uint256",
          "name": "mainchainId",
          "type": "uint256"
        },
        {
          "internalType": "address",
          "name": "mainERC721",
          "type": "address"
        },
        {
          "internalType": "string",
          "name": "name",
          "type": "string"
        },
        {
          "internalType": "string",
          "name": "symbol",
          "type": "string"
        },
        {
          "internalType": "uint64",
          "name": "expiration",
          "type": "uint64"
        },
        {
          "internalType": "bytes",
          "name": "signatures",
          "type": "bytes"
        }
      ],
      "name": "createSidechainERC721",
      "outputs": [],
      "stateMutability": "nonpayable",
      "type": "function"
    },
    {
      "inputs": [
        {
          "internalType": "uint256",
          "name": "sidechainId",
          "type": "uint256"
        },
        {
          "internalType": "uint256",
          "name": "mainchainId",
          "type": "uint256"
        },
        {
          "internalType": "uint256",
          "name": "depositIndex",
          "type": "uint256"
        },
        {
          "internalType": "address",
          "name": "mainERC721",
          "type": "address"
        },
        {
          "internalType": "uint256",
          "name": "tokenId",
          "type": "uint256"
        },
        {
          "internalType": "address",
          "name": "mainFrom",
          "type": "address"
        },
        {
          "internalType": "address",
          "name": "sideTo",
          "type": "address"
        },
        {
          "internalType": "uint64",
          "name": "expiration",
          "type": "uint64"
        },
        {
          "internalType": "bytes",
          "name": "signatures",
          "type": "bytes"
        }
      ],
      "name": "finalizeDeposit",
      "outputs": [],
      "stateMutability": "nonpayable",
      "type": "function"
    },
    {
      "inputs": [
        {
          "internalType": "uint256",
          "name": "mainchainId",
          "type": "uint256"
        },
        {
          "internalType": "uint256",
          "name": "depositIndex",
          "type": "uint256"
        },
        {
          "internalType": "uint256",
          "name": "sidechainId",
          "type": "uint256"
        },
        {
          "internalType": "uint256",
          "name": "withdrawalIndex",
          "type": "uint256"
        },
        {
          "internalType": "address",
          "name": "sideFrom",
          "type": "address"
        },
        {
          "internalType": "address",
          "name": "mainTo",
          "type": "address"
        },
        {
          "internalType": "uint64",
          "name": "expiration",
          "type": "uint64"
        },
        {
          "internalType": "bytes",
          "name": "signatures",
          "type": "bytes"
        }
      ],
      "name": "finalizeWithdrawal",
      "outputs": [],
      "stateMutability": "nonpayable",
      "type": "function"
    },
    {
      "inputs": [],
      "name": "getSigners",
      "outputs": [
        {
          "internalType": "address[]",
          "name": "",
          "type": "address[]"
        }
      ],
      "stateMutability": "view",
      "type": "function"
    },
    {
      "inputs": [],
      "name": "mainchainBridge",
      "outputs": [
        {
          "internalType": "address",
          "name": "",
          "type": "address"
        }
      ],
      "stateMutability": "view",
      "type": "function"
    },
    {
      "inputs": [],
      "name": "nonce",
      "outputs": [
        {
          "internalType": "uint256",
          "name": "",
          "type": "uint256"
        }
      ],
      "stateMutability": "view",
      "type": "function"
    },
    {
      "inputs": [
        {
          "internalType": "uint256",
          "name": "mainchainId",
          "type": "uint256"
        },
        {
          "internalType": "uint256",
          "name": "depositIndex",
          "type": "uint256"
        },
        {
          "internalType": "uint64",
          "name": "expiration",
          "type": "uint64"
        },
        {
          "internalType": "bytes",
          "name": "signatures",
          "type": "bytes"
        }
      ],
      "name": "rejectDeposit",
      "outputs": [],
      "stateMutability": "nonpayable",
      "type": "function"
    },
    {
      "inputs": [
        {
          "internalType": "uint256",
          "name": "sidechainId",
          "type": "uint256"
        },
        {
          "internalType": "uint256",
          "name": "withdrawalIndex",
          "type": "uint256"
        },
        {
          "internalType": "uint64",
          "name": "expiration",
          "type": "uint64"
        },
        {
          "internalType": "bytes",
          "name": "signatures",
          "type": "bytes"
        }
      ],
      "name": "rejectWithdrawal",
      "outputs": [],
      "stateMutability": "nonpayable",
      "type": "function"
    },
    {
      "inputs": [
        {
          "internalType": "address",
          "name": "_address",
          "type": "address"
        },
        {
          "internalType": "uint64",
          "name": "expiration",
          "type": "uint64"
        },
        {
          "internalType": "bytes",
          "name": "signatures",
          "type": "bytes"
        }
      ],
      "name": "removeSigner",
      "outputs": [],
      "stateMutability": "nonpayable",
      "type": "function"
    },
    {
      "inputs": [],
      "name": "sidechainBridge",
      "outputs": [
        {
          "internalType": "address",
          "name": "",
          "type": "address"
        }
      ],
      "stateMutability": "view",
      "type": "function"
    },
    {
      "inputs": [],
      "name": "threshold",
      "outputs": [
        {
          "internalType": "uint256",
          "name": "",
          "type": "uint256"
        }
      ],
      "stateMutability": "view",
      "type": "function"
    },
    {
      "inputs": [
        {
          "internalType": "uint256",
          "name": "mainchainId",
          "type": "uint256"
        },
        {
          "internalType": "address",
          "name": "newRelayer",
          "type": "address"
        },
        {
          "internalType": "uint64",
          "name": "expiration",
          "type": "uint64"
        },
        {
          "internalType": "bytes",
          "name": "signatures",
          "type": "bytes"
        }
      ],
      "name": "transferMainchainRelayer",
      "outputs": [],
      "stateMutability": "nonpayable",
      "type": "function"
    },
    {
      "inputs": [
        {
          "internalType": "uint256",
          "name": "sidechainId",
          "type": "uint256"
        },
        {
          "internalType": "address",
          "name": "newRelayer",
          "type": "address"
        },
        {
          "internalType": "uint64",
          "name": "expiration",
          "type": "uint64"
        },
        {
          "internalType": "bytes",
          "name": "signatures",
          "type": "bytes"
        }
      ],
      "name": "transferSidechainRelayer",
      "outputs": [],
      "stateMutability": "nonpayable",
      "type": "function"
    },
    {
      "inputs": [
        {
          "internalType": "uint256",
          "name": "_threshold",
          "type": "uint256"
        },
        {
          "internalType": "uint64",
          "name": "expiration",
          "type": "uint64"
        },
        {
          "internalType": "bytes",
          "name": "signatures",
          "type": "bytes"
        }
      ],
      "name": "updateThreshold",
      "outputs": [],
      "stateMutability": "nonpayable",
      "type": "function"
    },
    {
      "inputs": [
        {
          "internalType": "bytes32",
          "name": "_hash",
          "type": "bytes32"
        },
        {
          "internalType": "uint64",
          "name": "expiration",
          "type": "uint64"
        },
        {
          "internalType": "bytes",
          "name": "signatures",
          "type": "bytes"
        }
      ],
      "name": "verifySignatures",
      "outputs": [
        {
          "internalType": "bool",
          "name": "",
          "type": "bool"
        }
      ],
      "stateMutability": "view",
      "type": "function"
    }
  ],
  "bytecode": "0x60806040523480156200001157600080fd5b5060405162001f8538038062001f858339810160408190526200003491620002ef565b818160005b8251811015620001c25760008382815181106200005a576200005a620003ef565b6020026020010151905060006001600160a01b0316816001600160a01b03161415620000cd5760405162461bcd60e51b815260206004820152601760248201527f5369676e6572206973207a65726f20616464726573732e00000000000000000060448201526064015b60405180910390fd5b6001600160a01b03811660009081526003602052604090205415620001295760405162461bcd60e51b8152602060048201526011602482015270223ab83634b1b0ba329039b4b3b732b91760791b6044820152606401620000c4565b600280546001810182557f405787fa12a823e0f2b7631cc41b3ba8828b3321ca811111fa75cd3aa3bb5ace0180546001600160a01b0319166001600160a01b03841690811790915590546000828152600360205260408082209290925590517f47d1c22a25bb3a5d4e481b9b1e6944c2eade3181a0a20b495ed61d35b5323f249190a25080620001b98162000405565b91505062000039565b50600081116200020a5760405162461bcd60e51b81526020600482015260126024820152712a343932b9b437b6321034b9903d32b9379760711b6044820152606401620000c4565b600254811115620002515760405162461bcd60e51b815260206004820152601060248201526f29b4b3b732b91039b437b93a30b3b29760811b6044820152606401620000c4565b600181905560405181907fadfa8ecb21b6962ebcd0adbd9ab985b7b4c5b5eb3b0dead683171565c7bfe17190600090a25050600480546001600160a01b039586166001600160a01b0319918216179091556005805494909516931692909217909255506200042f9050565b80516001600160a01b0381168114620002d457600080fd5b919050565b634e487b7160e01b600052604160045260246000fd5b600080600080608085870312156200030657600080fd5b6200031185620002bc565b9350602062000322818701620002bc565b60408701519094506001600160401b03808211156200034057600080fd5b818801915088601f8301126200035557600080fd5b8151818111156200036a576200036a620002d9565b8060051b604051601f19603f83011681018181108582111715620003925762000392620002d9565b60405291825284820192508381018501918b831115620003b157600080fd5b938501935b82851015620003da57620003ca85620002bc565b84529385019392850192620003b6565b60609a909a0151989b979a5050505050505050565b634e487b7160e01b600052603260045260246000fd5b60006000198214156200042857634e487b7160e01b600052601160045260246000fd5b5060010190565b611b46806200043f6000396000f3fe608060405234801561001057600080fd5b50600436106101005760003560e01c806394cf795e11610097578063c80a5b7111610066578063c80a5b7114610204578063e912c0c514610217578063ea9d36271461023a578063edba0d841461024d57600080fd5b806394cf795e146101c057806396393f0a146101d5578063aff9599b146101e8578063affed0e0146101fb57600080fd5b80634f98fcd4116100d35780634f98fcd4146101745780635bd95998146101875780635cfa537a1461019a578063806e7da3146101ad57600080fd5b8063171f6fac146101055780631fd0f5e31461011a5780632db51b0f1461014a57806342cde4e81461015d575b600080fd5b610118610113366004611563565b610260565b005b60045461012d906001600160a01b031681565b6040516001600160a01b0390911681526020015b60405180910390f35b6101186101583660046115db565b61033e565b61016660015481565b604051908152602001610141565b610118610182366004611671565b61045c565b610118610195366004611563565b61057a565b6101186101a83660046116a5565b61061c565b60055461012d906001600160a01b031681565b6101c8610710565b6040516101419190611762565b6101186101e33660046117af565b610772565b6101186101f6366004611856565b610870565b61016660005481565b610118610212366004611856565b610a57565b61022a6102253660046118b4565b610cdd565b6040519015158152602001610141565b6101186102483660046118b4565b610eb3565b61011861025b366004611671565b611021565b604080516024810186905260448082018690528251808303909101815260649091019091526020810180516001600160e01b0316631a13ed3d60e31b178152905190206102ae818484610cdd565b6102d35760405162461bcd60e51b81526004016102ca906118d9565b60405180910390fd5b60048054604051631a13ed3d60e31b8152918201879052602482018690526001600160a01b03169063d09f69e8906044015b600060405180830381600087803b15801561031f57600080fd5b505af1158015610333573d6000803e3d6000fd5b505050505050505050565b60408051602481018a90526044810189905260648101889052608481018790526001600160a01b0386811660a4830152851660c4808301919091528251808303909101815260e49091019091526020810180516001600160e01b03166303c9dfb760e41b178152905190206103b4818484610cdd565b6103d05760405162461bcd60e51b81526004016102ca906118d9565b600480546040516303c9dfb760e41b81529182018b9052602482018a905260448201899052606482018890526001600160a01b03878116608484015286811660a48401521690633c9dfb709060c401600060405180830381600087803b15801561043957600080fd5b505af115801561044d573d6000803e3d6000fd5b50505050505050505050505050565b6000805460408051602481018890526001600160a01b0387166044808301919091528251808303909101815260649091018252602080820180516001600160e01b03166347b3f27160e11b17905291516104ba939230929101611935565b6040516020818303038152906040528051906020012090506104dd818484610cdd565b6104f95760405162461bcd60e51b81526004016102ca906118d9565b600480546040516347b3f27160e11b81529182018790526001600160a01b0386811660248401521690638f67e4e2906044015b600060405180830381600087803b15801561054657600080fd5b505af115801561055a573d6000803e3d6000fd5b505060008054925090508061056e8361198a565b91905055505050505050565b604080516024810186905260448082018690528251808303909101815260649091019091526020810180516001600160e01b03166318800b7160e31b178152905190206105c8818484610cdd565b6105e45760405162461bcd60e51b81526004016102ca906118d9565b6005546040516318800b7160e31b815260048101879052602481018690526001600160a01b039091169063c4005b8890604401610305565b6000638d532b6860e01b888888888860405160240161063f9594939291906119d1565b60408051601f198184030181529190526020810180516001600160e01b03166001600160e01b03199093169290921782525190209050610680818484610cdd565b61069c5760405162461bcd60e51b81526004016102ca906118d9565b6005546040516311aa656d60e31b81526001600160a01b0390911690638d532b68906106d4908b908b908b908b908b906004016119d1565b600060405180830381600087803b1580156106ee57600080fd5b505af1158015610702573d6000803e3d6000fd5b505050505050505050505050565b6060600280548060200260200160405190810160405280929190818152602001828054801561076857602002820191906000526020600020905b81546001600160a01b0316815260019091019060200180831161074a575b5050505050905090565b600063aaf2686a60e01b8a8a8a8a8a8a8a6040516024016107999796959493929190611a1c565b60408051601f198184030181529190526020810180516001600160e01b03166001600160e01b031990931692909217825251902090506107da818484610cdd565b6107f65760405162461bcd60e51b81526004016102ca906118d9565b600554604051635579343560e11b81526001600160a01b039091169063aaf2686a90610832908d908d908d908d908d908d908d90600401611a1c565b600060405180830381600087803b15801561084c57600080fd5b505af1158015610860573d6000803e3d6000fd5b5050505050505050505050505050565b6001600160a01b0383166108c65760405162461bcd60e51b815260206004820152601760248201527f5369676e6572206973207a65726f20616464726573732e00000000000000000060448201526064016102ca565b60008054604080516001600160a01b0387166024808301919091528251808303909101815260449091018252602080820180516001600160e01b031663aff9599b60e01b179052915161091d939230929101611935565b604051602081830303815290604052805190602001209050610940818484610cdd565b61095c5760405162461bcd60e51b81526004016102ca906118d9565b6001600160a01b038416600090815260036020526040902054156109b25760405162461bcd60e51b815260206004820152600d60248201526c185b1c9958591e481859191959609a1b60448201526064016102ca565b600280546001810182557f405787fa12a823e0f2b7631cc41b3ba8828b3321ca811111fa75cd3aa3bb5ace0180546001600160a01b0319166001600160a01b038716908117909155905460009182526003602052604082205580549080610a188361198a565b90915550506040516001600160a01b038516907f47d1c22a25bb3a5d4e481b9b1e6944c2eade3181a0a20b495ed61d35b5323f2490600090a250505050565b60008054604080516001600160a01b0387166024808301919091528251808303909101815260449091018252602080820180516001600160e01b031663c80a5b7160e01b1790529151610aae939230929101611935565b604051602081830303815290604052805190602001209050610ad1818484610cdd565b610aed5760405162461bcd60e51b81526004016102ca906118d9565b6001600160a01b038416600090815260036020526040902054610b465760405162461bcd60e51b81526020600482015260116024820152701859191c995cdcc81b9bdd08199bdd5b99607a1b60448201526064016102ca565b6002546001805490610b589083611a58565b1015610b995760405162461bcd60e51b815260206004820152601060248201526f29b4b3b732b91039b437b93a30b3b29760811b60448201526064016102ca565b6001600160a01b038516600090815260036020526040812054906002610bc0600185611a58565b81548110610bd057610bd0611a6f565b6000918252602090912001546001600160a01b03169050806002610bf5600185611a58565b81548110610c0557610c05611a6f565b9060005260206000200160006101000a8154816001600160a01b0302191690836001600160a01b031602179055506002805480610c4457610c44611a85565b60008281526020808220830160001990810180546001600160a01b03191690559092019092556001600160a01b038381168352600390915260408083208590559089168252812081905580549080610c9b8361198a565b90915550506040516001600160a01b038816907f3525e22824a8a7df2c9a6029941c824cf95b6447f1e13d5128fd3826d35afe8b90600090a250505050505050565b600083610d1c5760405162461bcd60e51b815260206004820152600d60248201526c4861736820697320656d70747960981b60448201526064016102ca565b428367ffffffffffffffff161015610d6a5760405162461bcd60e51b815260206004820152601160248201527014da59db985d1d5c9948195e1c1a5c9959607a1b60448201526064016102ca565b60418251610d789190611ab1565b15610dc55760405162461bcd60e51b815260206004820152601960248201527f496e76616c6964207369676e617475726573206c656e6774680000000000000060448201526064016102ca565b600060418351610dd59190611ac5565b905060008046815b84811015610ea0576000610dfe838b8b8b610df9876041611ad9565b6110f7565b9050610e21816001600160a01b0316600090815260036020526040902054151590565b15610e345784610e308161198a565b9550505b836001600160a01b0316816001600160a01b031611610e8c5760405162461bcd60e51b8152602060048201526014602482015273125b9d985b1a59081859191c995cdcc81cdbdc9d60621b60448201526064016102ca565b925080610e988161198a565b915050610ddd565b5050600154909110159695505050505050565b60008311610ef85760405162461bcd60e51b81526020600482015260126024820152712a343932b9b437b6321034b9903d32b9379760711b60448201526064016102ca565b826001541415610f0757505050565b600080546040805160248082018890528251808303909101815260449091018252602080820180516001600160e01b031663ea9d362760e01b1790529151610f53939230929101611935565b604051602081830303815290604052805190602001209050610f76818484610cdd565b610f925760405162461bcd60e51b81526004016102ca906118d9565b600254841115610fd75760405162461bcd60e51b815260206004820152601060248201526f29b4b3b732b91039b437b93a30b3b29760811b60448201526064016102ca565b6001849055600080549080610feb8361198a565b909155505060405184907fadfa8ecb21b6962ebcd0adbd9ab985b7b4c5b5eb3b0dead683171565c7bfe17190600090a250505050565b6000805460408051602481018890526001600160a01b0387166044808301919091528251808303909101815260649091018252602080820180516001600160e01b0316637d82ea3360e01b179052915161107f939230929101611935565b6040516020818303038152906040528051906020012090506110a2818484610cdd565b6110be5760405162461bcd60e51b81526004016102ca906118d9565b600554604051637d82ea3360e01b8152600481018790526001600160a01b03868116602483015290911690637d82ea339060440161052c565b6000611104826041611af8565b835110156111545760405162461bcd60e51b815260206004820152601860248201527f5369676e6174757265732073697a652073686f7274616765000000000000000060448201526064016102ca565b60408051602081018890529081018690526001600160c01b031960c086901b16606082015260680160408051601f198184030181529082905280516020918201207f19457468657265756d205369676e6564204d6573736167653a0a33320000000091830191909152603c820152605c0160405160208183030381529060405280519060200120945060006111f4866111ef86866041611200565b61130d565b50979650505050505050565b60608161120e81601f611af8565b101561124d5760405162461bcd60e51b815260206004820152600e60248201526d736c6963655f6f766572666c6f7760901b60448201526064016102ca565b6112578284611af8565b8451101561129b5760405162461bcd60e51b8152602060048201526011602482015270736c6963655f6f75744f66426f756e647360781b60448201526064016102ca565b6060821580156112ba5760405191506000825260208201604052611304565b6040519150601f8416801560200281840101858101878315602002848b0101015b818310156112f35780518352602092830192016112db565b5050858452601f01601f1916604052505b50949350505050565b6000808251604114156113445760208301516040840151606085015160001a6113388782858561137d565b94509450505050611376565b82516040141561136e576020830151604084015161136386838361146a565b935093505050611376565b506000905060025b9250929050565b6000807f7fffffffffffffffffffffffffffffff5d576e7357a4501ddfe92f46681b20a08311156113b45750600090506003611461565b8460ff16601b141580156113cc57508460ff16601c14155b156113dd5750600090506004611461565b6040805160008082526020820180845289905260ff881692820192909252606081018690526080810185905260019060a0016020604051602081039080840390855afa158015611431573d6000803e3d6000fd5b5050604051601f1901519150506001600160a01b03811661145a57600060019250925050611461565b9150600090505b94509492505050565b6000806001600160ff1b0383168161148760ff86901c601b611af8565b90506114958782888561137d565b935093505050935093915050565b803567ffffffffffffffff811681146114bb57600080fd5b919050565b634e487b7160e01b600052604160045260246000fd5b600082601f8301126114e757600080fd5b813567ffffffffffffffff80821115611502576115026114c0565b604051601f8301601f19908116603f0116810190828211818310171561152a5761152a6114c0565b8160405283815286602085880101111561154357600080fd5b836020870160208301376000602085830101528094505050505092915050565b6000806000806080858703121561157957600080fd5b8435935060208501359250611590604086016114a3565b9150606085013567ffffffffffffffff8111156115ac57600080fd5b6115b8878288016114d6565b91505092959194509250565b80356001600160a01b03811681146114bb57600080fd5b600080600080600080600080610100898b0312156115f857600080fd5b8835975060208901359650604089013595506060890135945061161d60808a016115c4565b935061162b60a08a016115c4565b925061163960c08a016114a3565b915060e089013567ffffffffffffffff81111561165557600080fd5b6116618b828c016114d6565b9150509295985092959890939650565b6000806000806080858703121561168757600080fd5b84359350611697602086016115c4565b9250611590604086016114a3565b600080600080600080600060e0888a0312156116c057600080fd5b87359650602088013595506116d7604089016115c4565b9450606088013567ffffffffffffffff808211156116f457600080fd5b6117008b838c016114d6565b955060808a013591508082111561171657600080fd5b6117228b838c016114d6565b945061173060a08b016114a3565b935060c08a013591508082111561174657600080fd5b506117538a828b016114d6565b91505092959891949750929550565b6020808252825182820181905260009190848201906040850190845b818110156117a35783516001600160a01b03168352928401929184019160010161177e565b50909695505050505050565b60008060008060008060008060006101208a8c0312156117ce57600080fd5b8935985060208a0135975060408a013596506117ec60608b016115c4565b955060808a0135945061180160a08b016115c4565b935061180f60c08b016115c4565b925061181d60e08b016114a3565b91506101008a013567ffffffffffffffff81111561183a57600080fd5b6118468c828d016114d6565b9150509295985092959850929598565b60008060006060848603121561186b57600080fd5b611874846115c4565b9250611882602085016114a3565b9150604084013567ffffffffffffffff81111561189e57600080fd5b6118aa868287016114d6565b9150509250925092565b6000806000606084860312156118c957600080fd5b83359250611882602085016114a3565b602080825260129082015271496e76616c6964207369676e61747572657360701b604082015260600190565b60005b83811015611920578181015183820152602001611908565b8381111561192f576000848401525b50505050565b8381526bffffffffffffffffffffffff198360601b16602082015260008251611965816034850160208701611905565b91909101603401949350505050565b634e487b7160e01b600052601160045260246000fd5b600060001982141561199e5761199e611974565b5060010190565b600081518084526119bd816020860160208601611905565b601f01601f19169290920160200192915050565b85815284602082015260018060a01b038416604082015260a0606082015260006119fe60a08301856119a5565b8281036080840152611a1081856119a5565b98975050505050505050565b968752602087019590955260408601939093526001600160a01b039182166060860152608085015290811660a08401521660c082015260e00190565b600082821015611a6a57611a6a611974565b500390565b634e487b7160e01b600052603260045260246000fd5b634e487b7160e01b600052603160045260246000fd5b634e487b7160e01b600052601260045260246000fd5b600082611ac057611ac0611a9b565b500690565b600082611ad457611ad4611a9b565b500490565b6000816000190483118215151615611af357611af3611974565b500290565b60008219821115611b0b57611b0b611974565b50019056fea26469706673582212207eff3099a37a1236d5e9e18e82437f6f3855eea7c8a273b5741677925ab4a29d64736f6c634300080c0033",
  "linkReferences": {},
  "deployedLinkReferences": {}
}