{
  "_format": "hh-sol-artifact-1",
  "contractName": "Signers",
  "sourceName": "contracts/nft-bridge/Signers.sol",
  "abi": [
    {
      "inputs": [
        {
          "internalType": "address[]",
          "name": "signers",
          "type": "address[]"
        },
        {
          "internalType": "uint256",
          "name": "_threshold",
          "type": "uint256"
        }
      ],
      "stateMutability": "nonpayable",
      "type": "constructor"
    },
    {
      "anonymous": false,
      "inputs": [
        {
          "indexed": true,
          "internalType": "address",
          "name": "_address",
          "type": "address"
        }
      ],
      "name": "SignerAdded",
      "type": "event"
    },
    {
      "anonymous": false,
      "inputs": [
        {
          "indexed": true,
          "internalType": "address",
          "name": "_address",
          "type": "address"
        }
      ],
      "name": "SignerRemoved",
      "type": "event"
    },
    {
      "anonymous": false,
      "inputs": [
        {
          "indexed": true,
          "internalType": "uint256",
          "name": "_threshold",
          "type": "uint256"
        }
      ],
      "name": "ThresholdUpdated",
      "type": "event"
    },
    {
      "inputs": [
        {
          "internalType": "address",
          "name": "_address",
          "type": "address"
        },
        {
          "internalType": "uint64",
          "name": "expiration",
          "type": "uint64"
        },
        {
          "internalType": "bytes",
          "name": "signatures",
          "type": "bytes"
        }
      ],
      "name": "addSigner",
      "outputs": [],
      "stateMutability": "nonpayable",
      "type": "function"
    },
    {
      "inputs": [],
      "name": "getSigners",
      "outputs": [
        {
          "internalType": "address[]",
          "name": "",
          "type": "address[]"
        }
      ],
      "stateMutability": "view",
      "type": "function"
    },
    {
      "inputs": [],
      "name": "nonce",
      "outputs": [
        {
          "internalType": "uint256",
          "name": "",
          "type": "uint256"
        }
      ],
      "stateMutability": "view",
      "type": "function"
    },
    {
      "inputs": [
        {
          "internalType": "address",
          "name": "_address",
          "type": "address"
        },
        {
          "internalType": "uint64",
          "name": "expiration",
          "type": "uint64"
        },
        {
          "internalType": "bytes",
          "name": "signatures",
          "type": "bytes"
        }
      ],
      "name": "removeSigner",
      "outputs": [],
      "stateMutability": "nonpayable",
      "type": "function"
    },
    {
      "inputs": [],
      "name": "threshold",
      "outputs": [
        {
          "internalType": "uint256",
          "name": "",
          "type": "uint256"
        }
      ],
      "stateMutability": "view",
      "type": "function"
    },
    {
      "inputs": [
        {
          "internalType": "uint256",
          "name": "_threshold",
          "type": "uint256"
        },
        {
          "internalType": "uint64",
          "name": "expiration",
          "type": "uint64"
        },
        {
          "internalType": "bytes",
          "name": "signatures",
          "type": "bytes"
        }
      ],
      "name": "updateThreshold",
      "outputs": [],
      "stateMutability": "nonpayable",
      "type": "function"
    },
    {
      "inputs": [
        {
          "internalType": "bytes32",
          "name": "_hash",
          "type": "bytes32"
        },
        {
          "internalType": "uint64",
          "name": "expiration",
          "type": "uint64"
        },
        {
          "internalType": "bytes",
          "name": "signatures",
          "type": "bytes"
        }
      ],
      "name": "verifySignatures",
      "outputs": [
        {
          "internalType": "bool",
          "name": "",
          "type": "bool"
        }
      ],
      "stateMutability": "view",
      "type": "function"
    }
  ],
  "bytecode": "0x60806040523480156200001157600080fd5b506040516200140d3803806200140d8339810160408190526200003491620002ba565b60005b8251811015620001c057600083828151811062000058576200005862000394565b6020026020010151905060006001600160a01b0316816001600160a01b03161415620000cb5760405162461bcd60e51b815260206004820152601760248201527f5369676e6572206973207a65726f20616464726573732e00000000000000000060448201526064015b60405180910390fd5b6001600160a01b03811660009081526003602052604090205415620001275760405162461bcd60e51b8152602060048201526011602482015270223ab83634b1b0ba329039b4b3b732b91760791b6044820152606401620000c2565b600280546001810182557f405787fa12a823e0f2b7631cc41b3ba8828b3321ca811111fa75cd3aa3bb5ace0180546001600160a01b0319166001600160a01b03841690811790915590546000828152600360205260408082209290925590517f47d1c22a25bb3a5d4e481b9b1e6944c2eade3181a0a20b495ed61d35b5323f249190a25080620001b781620003aa565b91505062000037565b5060008111620002085760405162461bcd60e51b81526020600482015260126024820152712a343932b9b437b6321034b9903d32b9379760711b6044820152606401620000c2565b6002548111156200024f5760405162461bcd60e51b815260206004820152601060248201526f29b4b3b732b91039b437b93a30b3b29760811b6044820152606401620000c2565b600181905560405181907fadfa8ecb21b6962ebcd0adbd9ab985b7b4c5b5eb3b0dead683171565c7bfe17190600090a25050620003d4565b634e487b7160e01b600052604160045260246000fd5b80516001600160a01b0381168114620002b557600080fd5b919050565b60008060408385031215620002ce57600080fd5b82516001600160401b0380821115620002e657600080fd5b818501915085601f830112620002fb57600080fd5b815160208282111562000312576200031262000287565b8160051b604051601f19603f830116810181811086821117156200033a576200033a62000287565b6040529283528183019350848101820192898411156200035957600080fd5b948201945b83861015620003825762000372866200029d565b855294820194938201936200035e565b97909101519698969750505050505050565b634e487b7160e01b600052603260045260246000fd5b6000600019821415620003cd57634e487b7160e01b600052601160045260246000fd5b5060010190565b61102980620003e46000396000f3fe608060405234801561001057600080fd5b506004361061007d5760003560e01c8063affed0e01161005b578063affed0e0146100c8578063c80a5b71146100d1578063e912c0c5146100e4578063ea9d36271461010757600080fd5b806342cde4e81461008257806394cf795e1461009e578063aff9599b146100b3575b600080fd5b61008b60015481565b6040519081526020015b60405180910390f35b6100a661011a565b6040516100959190610cde565b6100c66100c1366004610deb565b61017c565b005b61008b60005481565b6100c66100df366004610deb565b610368565b6100f76100f2366004610e57565b6105ee565b6040519015158152602001610095565b6100c6610115366004610e57565b6107c4565b6060600280548060200260200160405190810160405280929190818152602001828054801561017257602002820191906000526020600020905b81546001600160a01b03168152600190910190602001808311610154575b5050505050905090565b6001600160a01b0383166101d75760405162461bcd60e51b815260206004820152601760248201527f5369676e6572206973207a65726f20616464726573732e00000000000000000060448201526064015b60405180910390fd5b60008054604080516001600160a01b0387166024808301919091528251808303909101815260449091018252602080820180516001600160e01b031663aff9599b60e01b179052915161022e939230929101610e7c565b6040516020818303038152906040528051906020012090506102518184846105ee565b61026d5760405162461bcd60e51b81526004016101ce90610ede565b6001600160a01b038416600090815260036020526040902054156102c35760405162461bcd60e51b815260206004820152600d60248201526c185b1c9958591e481859191959609a1b60448201526064016101ce565b600280546001810182557f405787fa12a823e0f2b7631cc41b3ba8828b3321ca811111fa75cd3aa3bb5ace0180546001600160a01b0319166001600160a01b03871690811790915590546000918252600360205260408220558054908061032983610f20565b90915550506040516001600160a01b038516907f47d1c22a25bb3a5d4e481b9b1e6944c2eade3181a0a20b495ed61d35b5323f2490600090a250505050565b60008054604080516001600160a01b0387166024808301919091528251808303909101815260449091018252602080820180516001600160e01b031663c80a5b7160e01b17905291516103bf939230929101610e7c565b6040516020818303038152906040528051906020012090506103e28184846105ee565b6103fe5760405162461bcd60e51b81526004016101ce90610ede565b6001600160a01b0384166000908152600360205260409020546104575760405162461bcd60e51b81526020600482015260116024820152701859191c995cdcc81b9bdd08199bdd5b99607a1b60448201526064016101ce565b60025460018054906104699083610f3b565b10156104aa5760405162461bcd60e51b815260206004820152601060248201526f29b4b3b732b91039b437b93a30b3b29760811b60448201526064016101ce565b6001600160a01b0385166000908152600360205260408120549060026104d1600185610f3b565b815481106104e1576104e1610f52565b6000918252602090912001546001600160a01b03169050806002610506600185610f3b565b8154811061051657610516610f52565b9060005260206000200160006101000a8154816001600160a01b0302191690836001600160a01b03160217905550600280548061055557610555610f68565b60008281526020808220830160001990810180546001600160a01b03191690559092019092556001600160a01b0383811683526003909152604080832085905590891682528120819055805490806105ac83610f20565b90915550506040516001600160a01b038816907f3525e22824a8a7df2c9a6029941c824cf95b6447f1e13d5128fd3826d35afe8b90600090a250505050505050565b60008361062d5760405162461bcd60e51b815260206004820152600d60248201526c4861736820697320656d70747960981b60448201526064016101ce565b428367ffffffffffffffff16101561067b5760405162461bcd60e51b815260206004820152601160248201527014da59db985d1d5c9948195e1c1a5c9959607a1b60448201526064016101ce565b604182516106899190610f94565b156106d65760405162461bcd60e51b815260206004820152601960248201527f496e76616c6964207369676e617475726573206c656e6774680000000000000060448201526064016101ce565b6000604183516106e69190610fa8565b905060008046815b848110156107b157600061070f838b8b8b61070a876041610fbc565b610932565b9050610732816001600160a01b0316600090815260036020526040902054151590565b15610745578461074181610f20565b9550505b836001600160a01b0316816001600160a01b03161161079d5760405162461bcd60e51b8152602060048201526014602482015273125b9d985b1a59081859191c995cdcc81cdbdc9d60621b60448201526064016101ce565b9250806107a981610f20565b9150506106ee565b5050600154909110159695505050505050565b600083116108095760405162461bcd60e51b81526020600482015260126024820152712a343932b9b437b6321034b9903d32b9379760711b60448201526064016101ce565b82600154141561081857505050565b600080546040805160248082018890528251808303909101815260449091018252602080820180516001600160e01b031663ea9d362760e01b1790529151610864939230929101610e7c565b6040516020818303038152906040528051906020012090506108878184846105ee565b6108a35760405162461bcd60e51b81526004016101ce90610ede565b6002548411156108e85760405162461bcd60e51b815260206004820152601060248201526f29b4b3b732b91039b437b93a30b3b29760811b60448201526064016101ce565b60018490556000805490806108fc83610f20565b909155505060405184907fadfa8ecb21b6962ebcd0adbd9ab985b7b4c5b5eb3b0dead683171565c7bfe17190600090a250505050565b600061093f826041610fdb565b8351101561098f5760405162461bcd60e51b815260206004820152601860248201527f5369676e6174757265732073697a652073686f7274616765000000000000000060448201526064016101ce565b60408051602081018890529081018690526001600160c01b031960c086901b16606082015260680160408051601f198184030181529082905280516020918201207f19457468657265756d205369676e6564204d6573736167653a0a33320000000091830191909152603c820152605c016040516020818303038152906040528051906020012094506000610a2f86610a2a86866041610a3b565b610b48565b50979650505050505050565b606081610a4981601f610fdb565b1015610a885760405162461bcd60e51b815260206004820152600e60248201526d736c6963655f6f766572666c6f7760901b60448201526064016101ce565b610a928284610fdb565b84511015610ad65760405162461bcd60e51b8152602060048201526011602482015270736c6963655f6f75744f66426f756e647360781b60448201526064016101ce565b606082158015610af55760405191506000825260208201604052610b3f565b6040519150601f8416801560200281840101858101878315602002848b0101015b81831015610b2e578051835260209283019201610b16565b5050858452601f01601f1916604052505b50949350505050565b600080825160411415610b7f5760208301516040840151606085015160001a610b7387828585610bb8565b94509450505050610bb1565b825160401415610ba95760208301516040840151610b9e868383610ca5565b935093505050610bb1565b506000905060025b9250929050565b6000807f7fffffffffffffffffffffffffffffff5d576e7357a4501ddfe92f46681b20a0831115610bef5750600090506003610c9c565b8460ff16601b14158015610c0757508460ff16601c14155b15610c185750600090506004610c9c565b6040805160008082526020820180845289905260ff881692820192909252606081018690526080810185905260019060a0016020604051602081039080840390855afa158015610c6c573d6000803e3d6000fd5b5050604051601f1901519150506001600160a01b038116610c9557600060019250925050610c9c565b9150600090505b94509492505050565b6000806001600160ff1b03831681610cc260ff86901c601b610fdb565b9050610cd087828885610bb8565b935093505050935093915050565b6020808252825182820181905260009190848201906040850190845b81811015610d1f5783516001600160a01b031683529284019291840191600101610cfa565b50909695505050505050565b803567ffffffffffffffff81168114610d4357600080fd5b919050565b634e487b7160e01b600052604160045260246000fd5b600082601f830112610d6f57600080fd5b813567ffffffffffffffff80821115610d8a57610d8a610d48565b604051601f8301601f19908116603f01168101908282118183101715610db257610db2610d48565b81604052838152866020858801011115610dcb57600080fd5b836020870160208301376000602085830101528094505050505092915050565b600080600060608486031215610e0057600080fd5b83356001600160a01b0381168114610e1757600080fd5b9250610e2560208501610d2b565b9150604084013567ffffffffffffffff811115610e4157600080fd5b610e4d86828701610d5e565b9150509250925092565b600080600060608486031215610e6c57600080fd5b83359250610e2560208501610d2b565b838152600060206bffffffffffffffffffffffff198560601b1681840152835160005b81811015610ebb57858101830151858201603401528201610e9f565b81811115610ecd576000603483870101525b509290920160340195945050505050565b602080825260129082015271496e76616c6964207369676e61747572657360701b604082015260600190565b634e487b7160e01b600052601160045260246000fd5b6000600019821415610f3457610f34610f0a565b5060010190565b600082821015610f4d57610f4d610f0a565b500390565b634e487b7160e01b600052603260045260246000fd5b634e487b7160e01b600052603160045260246000fd5b634e487b7160e01b600052601260045260246000fd5b600082610fa357610fa3610f7e565b500690565b600082610fb757610fb7610f7e565b500490565b6000816000190483118215151615610fd657610fd6610f0a565b500290565b60008219821115610fee57610fee610f0a565b50019056fea2646970667358221220e10f8243fbd051b6dfa03599de9ccb68c37c4d4b07c23f57b9358c7114ecdf6764736f6c634300080c0033",
  "linkReferences": {},
  "deployedLinkReferences": {}
}