{
  "_format": "hh-sol-artifact-1",
  "contractName": "Signers",
  "sourceName": "contracts/nft-bridge/Signers.sol",
  "abi": [
    {
      "inputs": [
        {
          "internalType": "address[]",
          "name": "_signers",
          "type": "address[]"
        },
        {
          "internalType": "uint256",
          "name": "_threshold",
          "type": "uint256"
        }
      ],
      "stateMutability": "nonpayable",
      "type": "constructor"
    },
    {
      "anonymous": false,
      "inputs": [
        {
          "indexed": false,
          "internalType": "address",
          "name": "_address",
          "type": "address"
        }
      ],
      "name": "SignerAdded",
      "type": "event"
    },
    {
      "anonymous": false,
      "inputs": [
        {
          "indexed": false,
          "internalType": "address",
          "name": "_address",
          "type": "address"
        }
      ],
      "name": "SignerRemoved",
      "type": "event"
    },
    {
      "anonymous": false,
      "inputs": [
        {
          "indexed": false,
          "internalType": "uint256",
          "name": "_threshold",
          "type": "uint256"
        }
      ],
      "name": "ThresholdUpdated",
      "type": "event"
    },
    {
      "inputs": [
        {
          "internalType": "address",
          "name": "_address",
          "type": "address"
        },
        {
          "internalType": "bytes",
          "name": "signatures",
          "type": "bytes"
        }
      ],
      "name": "addSigner",
      "outputs": [],
      "stateMutability": "nonpayable",
      "type": "function"
    },
    {
      "inputs": [],
      "name": "getSigners",
      "outputs": [
        {
          "internalType": "address[]",
          "name": "",
          "type": "address[]"
        }
      ],
      "stateMutability": "view",
      "type": "function"
    },
    {
      "inputs": [
        {
          "internalType": "address",
          "name": "_address",
          "type": "address"
        },
        {
          "internalType": "bytes",
          "name": "signatures",
          "type": "bytes"
        }
      ],
      "name": "removeSigner",
      "outputs": [],
      "stateMutability": "nonpayable",
      "type": "function"
    },
    {
      "inputs": [],
      "name": "threshold",
      "outputs": [
        {
          "internalType": "uint256",
          "name": "",
          "type": "uint256"
        }
      ],
      "stateMutability": "view",
      "type": "function"
    },
    {
      "inputs": [
        {
          "internalType": "uint256",
          "name": "_threshold",
          "type": "uint256"
        },
        {
          "internalType": "bytes",
          "name": "signatures",
          "type": "bytes"
        }
      ],
      "name": "updateThreshold",
      "outputs": [],
      "stateMutability": "nonpayable",
      "type": "function"
    },
    {
      "inputs": [
        {
          "internalType": "bytes32",
          "name": "_hash",
          "type": "bytes32"
        },
        {
          "internalType": "bytes",
          "name": "signatures",
          "type": "bytes"
        }
      ],
      "name": "verifySignatures",
      "outputs": [
        {
          "internalType": "bool",
          "name": "",
          "type": "bool"
        }
      ],
      "stateMutability": "view",
      "type": "function"
    }
  ],
  "bytecode": "0x60806040523480156200001157600080fd5b5060405162000f4738038062000f478339810160408190526200003491620001cc565b60005b82518110156200010e576000838281518110620000585762000058620002a6565b60209081029190910181015182546001810184556000938452919092200180546001600160a01b0319166001600160a01b0390921691909117905582517f47d1c22a25bb3a5d4e481b9b1e6944c2eade3181a0a20b495ed61d35b5323f2490849083908110620000cc57620000cc620002a6565b6020026020010151604051620000f191906001600160a01b0391909116815260200190565b60405180910390a1806200010581620002bc565b91505062000037565b50600054811115620001595760405162461bcd60e51b815260206004820152601060248201526f29b4b3b732b91039b437b93a30b3b29760811b604482015260640160405180910390fd5b60018190556040518181527fadfa8ecb21b6962ebcd0adbd9ab985b7b4c5b5eb3b0dead683171565c7bfe1719060200160405180910390a15050620002e6565b634e487b7160e01b600052604160045260246000fd5b80516001600160a01b0381168114620001c757600080fd5b919050565b60008060408385031215620001e057600080fd5b82516001600160401b0380821115620001f857600080fd5b818501915085601f8301126200020d57600080fd5b815160208282111562000224576200022462000199565b8160051b604051601f19603f830116810181811086821117156200024c576200024c62000199565b6040529283528183019350848101820192898411156200026b57600080fd5b948201945b8386101562000294576200028486620001af565b8552948201949382019362000270565b97909101519698969750505050505050565b634e487b7160e01b600052603260045260246000fd5b6000600019821415620002df57634e487b7160e01b600052601160045260246000fd5b5060010190565b610c5180620002f66000396000f3fe608060405234801561001057600080fd5b50600436106100625760003560e01c806342cde4e8146100675780634b544c1d146100835780637ebab11714610098578063821c0976146100ab57806394cf795e146100be578063c7a823e0146100d3575b600080fd5b61007060015481565b6040519081526020015b60405180910390f35b610096610091366004610a23565b6100f6565b005b6100966100a6366004610a23565b610291565b6100966100b9366004610a7f565b610508565b6100c66105f2565b60405161007a9190610ab0565b6100e66100e1366004610a7f565b610654565b604051901515815260200161007a565b604080516001600160a01b0384166024808301919091528251808303909101815260449091019091526020810180516001600160e01b0316634b544c1d60e01b178152905190206101478183610654565b61016c5760405162461bcd60e51b815260040161016390610afd565b60405180910390fd5b6101d060008054806020026020016040519081016040528092919081815260200182805480156101c557602002820191906000526020600020905b81546001600160a01b031681526001909101906020018083116101a7575b505050505084610782565b1561020d5760405162461bcd60e51b815260206004820152600d60248201526c185b1c9958591e481859191959609a1b6044820152606401610163565b600080546001810182559080527f290decd9548b62a8d60345a988386fc84ba6bc95484008f6362f93160ef3e5630180546001600160a01b0319166001600160a01b0385169081179091556040519081527f47d1c22a25bb3a5d4e481b9b1e6944c2eade3181a0a20b495ed61d35b5323f24906020015b60405180910390a1505050565b604080516001600160a01b0384166024808301919091528251808303909101815260449091019091526020810180516001600160e01b0316634b544c1d60e01b178152905190206102e28183610654565b6102fe5760405162461bcd60e51b815260040161016390610afd565b61036060008054806020026020016040519081016040528092919081815260200182805480156101c5576020028201919060005260206000209081546001600160a01b031681526001909101906020018083116101a757505050505084610782565b6103a05760405162461bcd60e51b81526020600482015260116024820152701859191c995cdcc81b9bdd08199bdd5b99607a1b6044820152606401610163565b6000805490805b6103b2600184610b3f565b81101561048e57811580156103f65750856001600160a01b0316600082815481106103df576103df610b56565b6000918252602090912001546001600160a01b0316145b1561040057600191505b811561047c576000610413826001610b6c565b8154811061042357610423610b56565b600091825260208220015481546001600160a01b0390911691908390811061044d5761044d610b56565b9060005260206000200160006101000a8154816001600160a01b0302191690836001600160a01b031602179055505b8061048681610b84565b9150506103a7565b5060008054806104a0576104a0610b9f565b6000828152602090819020600019908301810180546001600160a01b03191690559091019091556040516001600160a01b03871681527f3525e22824a8a7df2c9a6029941c824cf95b6447f1e13d5128fd3826d35afe8b910160405180910390a15050505050565b816001541415610516575050565b6040805160248082018590528251808303909101815260449091019091526020810180516001600160e01b031663410e04bb60e11b1781529051902061055c8183610654565b6105785760405162461bcd60e51b815260040161016390610afd565b6000548311156105bd5760405162461bcd60e51b815260206004820152601060248201526f29b4b3b732b91039b437b93a30b3b29760811b6044820152606401610163565b60018390556040518381527fadfa8ecb21b6962ebcd0adbd9ab985b7b4c5b5eb3b0dead683171565c7bfe17190602001610284565b6060600080548060200260200160405190810160405280929190818152602001828054801561064a57602002820191906000526020600020905b81546001600160a01b0316815260019091019060200180831161062c575b5050505050905090565b600080604183516106659190610bb5565b905060008060005b8381101561077157600061068c8888610687856041610bd7565b6107ec565b90506106f260008054806020026020016040519081016040528092919081815260200182805480156106e757602002820191906000526020600020905b81546001600160a01b031681526001909101906020018083116106c9575b505050505082610782565b15610705578361070181610b84565b9450505b826001600160a01b0316816001600160a01b03161161075d5760405162461bcd60e51b8152602060048201526014602482015273125b9d985b1a59081859191c995cdcc81cdbdc9d60621b6044820152606401610163565b91508061076981610b84565b91505061066d565b505060015411159150505b92915050565b8151600090815b818110156107e157836001600160a01b03168582815181106107ad576107ad610b56565b60200260200101516001600160a01b031614156107cf5760019250505061077c565b806107d981610b84565b915050610789565b506000949350505050565b60006107f9826041610b6c565b835110156108495760405162461bcd60e51b815260206004820152601860248201527f5369676e6174757265732073697a652073686f727461676500000000000000006044820152606401610163565b8282016020810151604082015160419092015190919060ff16601b81101561087957610876601b82610bf6565b90505b8060ff16601b148061088e57508060ff16601c145b6108cf5760405162461bcd60e51b81526020600482015260126024820152710ec40daeae6e840c4ca40646e40dee44064760731b6044820152606401610163565b6040517f19457468657265756d205369676e6564204d6573736167653a0a3332000000006020820152603c8101889052605c0160408051601f1981840301815282825280516020918201206000845290830180835281905260ff8416918301919091526060820185905260808201849052975060019060a0016020604051602081039080840390855afa15801561096a573d6000803e3d6000fd5b5050604051601f19015198975050505050505050565b634e487b7160e01b600052604160045260246000fd5b600082601f8301126109a757600080fd5b813567ffffffffffffffff808211156109c2576109c2610980565b604051601f8301601f19908116603f011681019082821181831017156109ea576109ea610980565b81604052838152866020858801011115610a0357600080fd5b836020870160208301376000602085830101528094505050505092915050565b60008060408385031215610a3657600080fd5b82356001600160a01b0381168114610a4d57600080fd5b9150602083013567ffffffffffffffff811115610a6957600080fd5b610a7585828601610996565b9150509250929050565b60008060408385031215610a9257600080fd5b82359150602083013567ffffffffffffffff811115610a6957600080fd5b6020808252825182820181905260009190848201906040850190845b81811015610af15783516001600160a01b031683529284019291840191600101610acc565b50909695505050505050565b602080825260129082015271496e76616c6964207369676e61747572657360701b604082015260600190565b634e487b7160e01b600052601160045260246000fd5b600082821015610b5157610b51610b29565b500390565b634e487b7160e01b600052603260045260246000fd5b60008219821115610b7f57610b7f610b29565b500190565b6000600019821415610b9857610b98610b29565b5060010190565b634e487b7160e01b600052603160045260246000fd5b600082610bd257634e487b7160e01b600052601260045260246000fd5b500490565b6000816000190483118215151615610bf157610bf1610b29565b500290565b600060ff821660ff84168060ff03821115610c1357610c13610b29565b01939250505056fea2646970667358221220c584fbb04d3483a9c06649c33dfe5e8e8fbda375833b577aa63556ec08e7ea1364736f6c63430008090033",
  "linkReferences": {},
  "deployedLinkReferences": {}
}