{
  "_format": "hh-sol-artifact-1",
  "contractName": "NFTBridgeMainchain",
  "sourceName": "contracts/nft-bridge/NFTBridgeMainchain.sol",
  "abi": [
    {
      "anonymous": false,
      "inputs": [
        {
          "indexed": true,
          "internalType": "uint256",
          "name": "depositIndex",
          "type": "uint256"
        },
        {
          "indexed": true,
          "internalType": "address",
          "name": "mainchainERC721",
          "type": "address"
        },
        {
          "indexed": true,
          "internalType": "uint256",
          "name": "tokenId",
          "type": "uint256"
        },
        {
          "indexed": false,
          "internalType": "uint256",
          "name": "sidechainId",
          "type": "uint256"
        },
        {
          "indexed": false,
          "internalType": "address",
          "name": "mainFrom",
          "type": "address"
        },
        {
          "indexed": false,
          "internalType": "address",
          "name": "sideTo",
          "type": "address"
        }
      ],
      "name": "DepositeInitiated",
      "type": "event"
    },
    {
      "anonymous": false,
      "inputs": [
        {
          "indexed": true,
          "internalType": "uint256",
          "name": "depositIndex",
          "type": "uint256"
        }
      ],
      "name": "DepositeRejected",
      "type": "event"
    },
    {
      "anonymous": false,
      "inputs": [
        {
          "indexed": true,
          "internalType": "address",
          "name": "previousOwner",
          "type": "address"
        },
        {
          "indexed": true,
          "internalType": "address",
          "name": "newOwner",
          "type": "address"
        }
      ],
      "name": "OwnershipTransferred",
      "type": "event"
    },
    {
      "anonymous": false,
      "inputs": [
        {
          "indexed": true,
          "internalType": "uint256",
          "name": "depositIndex",
          "type": "uint256"
        },
        {
          "indexed": true,
          "internalType": "uint256",
          "name": "sidechainId",
          "type": "uint256"
        },
        {
          "indexed": true,
          "internalType": "uint256",
          "name": "withdrawalIndex",
          "type": "uint256"
        },
        {
          "indexed": false,
          "internalType": "address",
          "name": "mainchainERC721",
          "type": "address"
        },
        {
          "indexed": false,
          "internalType": "address",
          "name": "sideFrom",
          "type": "address"
        },
        {
          "indexed": false,
          "internalType": "address",
          "name": "mainTo",
          "type": "address"
        }
      ],
      "name": "WithdrawalFailed",
      "type": "event"
    },
    {
      "anonymous": false,
      "inputs": [
        {
          "indexed": true,
          "internalType": "uint256",
          "name": "depositIndex",
          "type": "uint256"
        },
        {
          "indexed": true,
          "internalType": "uint256",
          "name": "sidechainId",
          "type": "uint256"
        },
        {
          "indexed": true,
          "internalType": "uint256",
          "name": "withdrawalIndex",
          "type": "uint256"
        },
        {
          "indexed": false,
          "internalType": "address",
          "name": "mainchainERC721",
          "type": "address"
        },
        {
          "indexed": false,
          "internalType": "address",
          "name": "sideFrom",
          "type": "address"
        },
        {
          "indexed": false,
          "internalType": "address",
          "name": "mainTo",
          "type": "address"
        }
      ],
      "name": "WithdrawalFinalized",
      "type": "event"
    },
    {
      "inputs": [
        {
          "internalType": "address",
          "name": "mainchainERC721",
          "type": "address"
        },
        {
          "internalType": "uint256",
          "name": "tokenId",
          "type": "uint256"
        },
        {
          "internalType": "uint256",
          "name": "sidechainId",
          "type": "uint256"
        },
        {
          "internalType": "address",
          "name": "sideTo",
          "type": "address"
        }
      ],
      "name": "deposit",
      "outputs": [],
      "stateMutability": "nonpayable",
      "type": "function"
    },
    {
      "inputs": [
        {
          "internalType": "uint256",
          "name": "mainchainId",
          "type": "uint256"
        },
        {
          "internalType": "uint256",
          "name": "depositIndex",
          "type": "uint256"
        },
        {
          "internalType": "uint256",
          "name": "sidechainId",
          "type": "uint256"
        },
        {
          "internalType": "uint256",
          "name": "withdrawalIndex",
          "type": "uint256"
        },
        {
          "internalType": "address",
          "name": "sideFrom",
          "type": "address"
        },
        {
          "internalType": "address",
          "name": "mainTo",
          "type": "address"
        }
      ],
      "name": "finalizeWithdrawal",
      "outputs": [],
      "stateMutability": "nonpayable",
      "type": "function"
    },
    {
      "inputs": [
        {
          "internalType": "uint256",
          "name": "depositIndex",
          "type": "uint256"
        }
      ],
      "name": "getDepositInfo",
      "outputs": [
        {
          "components": [
            {
              "internalType": "address",
              "name": "mainchainERC721",
              "type": "address"
            },
            {
              "internalType": "uint256",
              "name": "tokenId",
              "type": "uint256"
            },
            {
              "internalType": "address",
              "name": "mainFrom",
              "type": "address"
            },
            {
              "internalType": "address",
              "name": "mainTo",
              "type": "address"
            }
          ],
          "internalType": "struct INFTBridgeMainchain.DepositInfo",
          "name": "",
          "type": "tuple"
        }
      ],
      "stateMutability": "view",
      "type": "function"
    },
    {
      "inputs": [],
      "name": "owner",
      "outputs": [
        {
          "internalType": "address",
          "name": "",
          "type": "address"
        }
      ],
      "stateMutability": "view",
      "type": "function"
    },
    {
      "inputs": [
        {
          "internalType": "uint256",
          "name": "mainchainId",
          "type": "uint256"
        },
        {
          "internalType": "uint256",
          "name": "depositIndex",
          "type": "uint256"
        }
      ],
      "name": "rejectDeposit",
      "outputs": [],
      "stateMutability": "nonpayable",
      "type": "function"
    },
    {
      "inputs": [],
      "name": "renounceOwnership",
      "outputs": [],
      "stateMutability": "nonpayable",
      "type": "function"
    },
    {
      "inputs": [
        {
          "internalType": "uint256",
          "name": "mainchainId",
          "type": "uint256"
        },
        {
          "internalType": "address",
          "name": "newRelayer",
          "type": "address"
        }
      ],
      "name": "transferMainchainRelayer",
      "outputs": [],
      "stateMutability": "nonpayable",
      "type": "function"
    },
    {
      "inputs": [
        {
          "internalType": "address",
          "name": "newOwner",
          "type": "address"
        }
      ],
      "name": "transferOwnership",
      "outputs": [],
      "stateMutability": "nonpayable",
      "type": "function"
    }
  ],
  "bytecode": "0x608060405234801561001057600080fd5b5061001a3361001f565b61006f565b600080546001600160a01b038381166001600160a01b0319831681178455604051919092169283917f8be0079c531659141344cd1fd0a4f28419497f9722a3daafe3b4186f6b6457e09190a35050565b610ad68061007e6000396000f3fe608060405234801561001057600080fd5b50600436106100885760003560e01c80638da5cb5b1161005b5780638da5cb5b1461011a5780638f67e4e214610135578063d09f69e814610148578063f2fde38b1461015b57600080fd5b80633c9dfb701461008d5780635328c2bf146100a2578063715018a6146100ff5780638b6099db14610107575b600080fd5b6100a061009b3660046108d9565b61016e565b005b6100b56100b0366004610931565b610373565b6040516100f6919081516001600160a01b03908116825260208084015190830152604080840151821690830152606092830151169181019190915260800190565b60405180910390f35b6100a0610402565b6100a061011536600461094a565b610438565b6000546040516001600160a01b0390911681526020016100f6565b6100a0610143366004610990565b610601565b6100a06101563660046109bc565b610657565b6100a06101693660046109de565b6107d2565b6000546001600160a01b031633146101a15760405162461bcd60e51b815260040161019890610a00565b60405180910390fd5b4686146101c05760405162461bcd60e51b815260040161019890610a35565b6000600186815481106101d5576101d5610a65565b6000918252602090912060049091020160038101549091506001600160a01b0316156102365760405162461bcd60e51b815260206004820152601060248201526f616c726561647920776974686472617760801b6044820152606401610198565b6003810180546001600160a01b0319166001600160a01b0384811691821790925582546001840154604051632142170760e11b815230600482015260248101939093526044830152909116906342842e0e90606401600060405180830381600087803b1580156102a557600080fd5b505af19250505080156102b6575060015b610314578054604080516001600160a01b0392831681528583166020820152918416908201528490869088907fff82188c7a604e133377334d10ea0202a3253d32cd7e453e3ef1908e8d870d5b9060600160405180910390a461036a565b8054604080516001600160a01b0392831681528583166020820152918416908201528490869088907fed4ea6f5c215136f3a31e7148d0657029d9255811234dd845ccfcc4a7088fd179060600160405180910390a45b50505050505050565b604080516080810182526000808252602082018190529181018290526060810191909152600182815481106103aa576103aa610a65565b600091825260209182902060408051608081018252600490930290910180546001600160a01b039081168452600182015494840194909452600281015484169183019190915260030154909116606082015292915050565b6000546001600160a01b0316331461042c5760405162461bcd60e51b815260040161019890610a00565b610436600061086d565b565b6040516323b872dd60e01b8152336004820152306024820152604481018490526001600160a01b038516906323b872dd90606401600060405180830381600087803b15801561048657600080fd5b505af115801561049a573d6000803e3d6000fd5b5050604080516080810182526001600160a01b03808916808352602083018981523394840194855260006060850181815260018054808201825592819052955160049092027fb10e2d527612073b26eecdfd717e6a320cf44b4afac2b0732d9fcbe2b7fa0cf6810180549387166001600160a01b031994851617905592517fb10e2d527612073b26eecdfd717e6a320cf44b4afac2b0732d9fcbe2b7fa0cf784015595517fb10e2d527612073b26eecdfd717e6a320cf44b4afac2b0732d9fcbe2b7fa0cf88301805491861691831691909117905594517fb10e2d527612073b26eecdfd717e6a320cf44b4afac2b0732d9fcbe2b7fa0cf9909101805491909316941693909317905580548794509192506105b491610a7b565b604080518681523360208201526001600160a01b0386168183015290517ffa8fc68732922e854b3837a56c07845bbce2bf0e9d8f46801ca231b69c5edebd9181900360600190a450505050565b6000546001600160a01b0316331461062b5760405162461bcd60e51b815260040161019890610a00565b46821461064a5760405162461bcd60e51b815260040161019890610a35565b610653816107d2565b5050565b6000546001600160a01b031633146106815760405162461bcd60e51b815260040161019890610a00565b4682146106a05760405162461bcd60e51b815260040161019890610a35565b6000600182815481106106b5576106b5610a65565b6000918252602090912060049091020160038101549091506001600160a01b0316156107165760405162461bcd60e51b815260206004820152601060248201526f185b1c9958591e481c995a9958dd195960821b6044820152606401610198565b60028101546003820180546001600160a01b0319166001600160a01b03928316908117909155825460018401546040516323b872dd60e01b815230600482015260248101939093526044830152909116906323b872dd90606401600060405180830381600087803b15801561078a57600080fd5b505af115801561079e573d6000803e3d6000fd5b50506040518492507f39c42b40d91e10b8461e2f84592f1e0eeae67c1284f088d8304dc0bfe7c316419150600090a2505050565b6000546001600160a01b031633146107fc5760405162461bcd60e51b815260040161019890610a00565b6001600160a01b0381166108615760405162461bcd60e51b815260206004820152602660248201527f4f776e61626c653a206e6577206f776e657220697320746865207a65726f206160448201526564647265737360d01b6064820152608401610198565b61086a8161086d565b50565b600080546001600160a01b038381166001600160a01b0319831681178455604051919092169283917f8be0079c531659141344cd1fd0a4f28419497f9722a3daafe3b4186f6b6457e09190a35050565b80356001600160a01b03811681146108d457600080fd5b919050565b60008060008060008060c087890312156108f257600080fd5b86359550602087013594506040870135935060608701359250610917608088016108bd565b915061092560a088016108bd565b90509295509295509295565b60006020828403121561094357600080fd5b5035919050565b6000806000806080858703121561096057600080fd5b610969856108bd565b93506020850135925060408501359150610985606086016108bd565b905092959194509250565b600080604083850312156109a357600080fd5b823591506109b3602084016108bd565b90509250929050565b600080604083850312156109cf57600080fd5b50508035926020909101359150565b6000602082840312156109f057600080fd5b6109f9826108bd565b9392505050565b6020808252818101527f4f776e61626c653a2063616c6c6572206973206e6f7420746865206f776e6572604082015260600190565b60208082526016908201527524b73b30b634b21036b0b4b71031b430b4b71034b21760511b604082015260600190565b634e487b7160e01b600052603260045260246000fd5b600082821015610a9b57634e487b7160e01b600052601160045260246000fd5b50039056fea2646970667358221220f67da771c382bdb29ad95a57bedaf4b8b11a2e80a166ff749933e96b71da549c64736f6c634300080c0033",
  "linkReferences": {},
  "deployedLinkReferences": {}
}