{
  "_format": "hh-sol-artifact-1",
  "contractName": "PrecompileDoubleSign",
  "sourceName": "contracts/test/PrecompileDoubleSign.sol",
  "abi": [
    {
      "stateMutability": "nonpayable",
      "type": "fallback"
    },
    {
      "inputs": [],
      "name": "flgRevert",
      "outputs": [
        {
          "internalType": "bool",
          "name": "",
          "type": "bool"
        }
      ],
      "stateMutability": "view",
      "type": "function"
    },
    {
      "inputs": [],
      "name": "returnValue",
      "outputs": [
        {
          "internalType": "bytes",
          "name": "",
          "type": "bytes"
        }
      ],
      "stateMutability": "view",
      "type": "function"
    },
    {
      "inputs": [
        {
          "internalType": "address",
          "name": "signer",
          "type": "address"
        },
        {
          "internalType": "uint256",
          "name": "evidenceHeight",
          "type": "uint256"
        },
        {
          "internalType": "bool",
          "name": "flgRevert_",
          "type": "bool"
        }
      ],
      "name": "set",
      "outputs": [],
      "stateMutability": "nonpayable",
      "type": "function"
    }
  ],
  "bytecode": "0x608060405234801561001057600080fd5b5061041d806100206000396000f3fe608060405234801561001057600080fd5b50600436106100415760003560e01c80630b1391941461012d578063990c8f7914610142578063a919d6c314610160575b600154600090369060609060ff16156100955760405162461bcd60e51b8152602060048201526012602482015271195e1958dd5d1a5bdb881c995d995c9d195960721b604482015260640160405180910390fd5b600080546100a290610304565b80601f01602080910402602001604051908101604052809291908181526020018280546100ce90610304565b801561011b5780601f106100f05761010080835404028352916020019161011b565b820191906000526020600020905b8154815290600101906020018083116100fe57829003601f168201915b50505050509050915050805190602001f35b61014061013b36600461033f565b61017d565b005b61014a6101dd565b6040516101579190610392565b60405180910390f35b60015461016d9060ff1681565b6040519015158152602001610157565b6040516bffffffffffffffffffffffff19606085901b16602082015260348101839052605401604051602081830303815290604052600090805190602001906101c792919061026b565b506001805460ff19169115159190911790555050565b600080546101ea90610304565b80601f016020809104026020016040519081016040528092919081815260200182805461021690610304565b80156102635780601f1061023857610100808354040283529160200191610263565b820191906000526020600020905b81548152906001019060200180831161024657829003601f168201915b505050505081565b82805461027790610304565b90600052602060002090601f01602090048101928261029957600085556102df565b82601f106102b257805160ff19168380011785556102df565b828001600101855582156102df579182015b828111156102df5782518255916020019190600101906102c4565b506102eb9291506102ef565b5090565b5b808211156102eb57600081556001016102f0565b600181811c9082168061031857607f821691505b6020821081141561033957634e487b7160e01b600052602260045260246000fd5b50919050565b60008060006060848603121561035457600080fd5b83356001600160a01b038116811461036b57600080fd5b9250602084013591506040840135801515811461038757600080fd5b809150509250925092565b600060208083528351808285015260005b818110156103bf578581018301518582016040015282016103a3565b818111156103d1576000604083870101525b50601f01601f191692909201604001939250505056fea264697066735822122038e3aaab823e70e28205487ec1d1e0759697a5878baf9d0f0fa5c0da6326421964736f6c634300080c0033",
  "linkReferences": {},
  "deployedLinkReferences": {}
}