{
  "_format": "hh-sol-artifact-1",
  "contractName": "SlashIndicator",
  "sourceName": "contracts/SlashIndicator.sol",
  "abi": [
    {
      "inputs": [
        {
          "internalType": "address",
          "name": "_environment",
          "type": "address"
        },
        {
          "internalType": "address",
          "name": "_stakeManager",
          "type": "address"
        },
        {
          "internalType": "uint16",
          "name": "chainId_",
          "type": "uint16"
        }
      ],
      "stateMutability": "nonpayable",
      "type": "constructor"
    },
    {
      "inputs": [],
      "name": "EmptyHeader",
      "type": "error"
    },
    {
      "inputs": [
        {
          "internalType": "uint256",
          "name": "evidenceHeight",
          "type": "uint256"
        },
        {
          "internalType": "uint256",
          "name": "currentBlock",
          "type": "uint256"
        },
        {
          "internalType": "uint256",
          "name": "slashScope",
          "type": "uint256"
        }
      ],
      "name": "EvidenceTooOld",
      "type": "error"
    },
    {
      "inputs": [],
      "name": "NoViolationOfVoteRules",
      "type": "error"
    },
    {
      "inputs": [],
      "name": "NullAddress",
      "type": "error"
    },
    {
      "inputs": [
        {
          "internalType": "uint256",
          "name": "srcNumA",
          "type": "uint256"
        },
        {
          "internalType": "uint256",
          "name": "tarNumA",
          "type": "uint256"
        },
        {
          "internalType": "uint256",
          "name": "srcNumB",
          "type": "uint256"
        },
        {
          "internalType": "uint256",
          "name": "tarNumB",
          "type": "uint256"
        }
      ],
      "name": "SrcNumBiggerThanTarNum",
      "type": "error"
    },
    {
      "inputs": [
        {
          "internalType": "uint256",
          "name": "targetBlockA",
          "type": "uint256"
        },
        {
          "internalType": "uint256",
          "name": "targetBlockB",
          "type": "uint256"
        },
        {
          "internalType": "uint256",
          "name": "currentBlock",
          "type": "uint256"
        },
        {
          "internalType": "uint256",
          "name": "slashScope",
          "type": "uint256"
        }
      ],
      "name": "TargetBlockTooOld",
      "type": "error"
    },
    {
      "inputs": [],
      "name": "TwoIdenticalVotes",
      "type": "error"
    },
    {
      "inputs": [],
      "name": "VerifySignatureFailed",
      "type": "error"
    },
    {
      "anonymous": false,
      "inputs": [
        {
          "indexed": true,
          "internalType": "address",
          "name": "signer",
          "type": "address"
        },
        {
          "indexed": false,
          "internalType": "bytes",
          "name": "header1",
          "type": "bytes"
        },
        {
          "indexed": false,
          "internalType": "bytes",
          "name": "header2",
          "type": "bytes"
        },
        {
          "indexed": false,
          "internalType": "uint256",
          "name": "evidenceHeight",
          "type": "uint256"
        },
        {
          "indexed": false,
          "internalType": "uint256",
          "name": "blockNumber",
          "type": "uint256"
        }
      ],
      "name": "DoubleSignEvidenceSubmitted",
      "type": "event"
    },
    {
      "anonymous": false,
      "inputs": [
        {
          "indexed": false,
          "internalType": "bytes",
          "name": "voteAddr",
          "type": "bytes"
        },
        {
          "components": [
            {
              "internalType": "uint256",
              "name": "srcNum",
              "type": "uint256"
            },
            {
              "internalType": "bytes32",
              "name": "srcHash",
              "type": "bytes32"
            },
            {
              "internalType": "uint256",
              "name": "tarNum",
              "type": "uint256"
            },
            {
              "internalType": "bytes32",
              "name": "tarHash",
              "type": "bytes32"
            },
            {
              "internalType": "bytes",
              "name": "sig",
              "type": "bytes"
            }
          ],
          "indexed": false,
          "internalType": "struct ISlashIndicator.VoteData",
          "name": "voteA",
          "type": "tuple"
        },
        {
          "components": [
            {
              "internalType": "uint256",
              "name": "srcNum",
              "type": "uint256"
            },
            {
              "internalType": "bytes32",
              "name": "srcHash",
              "type": "bytes32"
            },
            {
              "internalType": "uint256",
              "name": "tarNum",
              "type": "uint256"
            },
            {
              "internalType": "bytes32",
              "name": "tarHash",
              "type": "bytes32"
            },
            {
              "internalType": "bytes",
              "name": "sig",
              "type": "bytes"
            }
          ],
          "indexed": false,
          "internalType": "struct ISlashIndicator.VoteData",
          "name": "voteB",
          "type": "tuple"
        }
      ],
      "name": "FinalityViolationEvidenceSubmitted",
      "type": "event"
    },
    {
      "inputs": [],
      "name": "DOUBLE_SIGN_PENALTY_PERIOD",
      "outputs": [
        {
          "internalType": "uint256",
          "name": "",
          "type": "uint256"
        }
      ],
      "stateMutability": "view",
      "type": "function"
    },
    {
      "inputs": [],
      "name": "FINALITY_VIOLATION_PENALTY_PERIOD",
      "outputs": [
        {
          "internalType": "uint256",
          "name": "",
          "type": "uint256"
        }
      ],
      "stateMutability": "view",
      "type": "function"
    },
    {
      "inputs": [],
      "name": "chainId",
      "outputs": [
        {
          "internalType": "uint16",
          "name": "",
          "type": "uint16"
        }
      ],
      "stateMutability": "view",
      "type": "function"
    },
    {
      "inputs": [],
      "name": "environment",
      "outputs": [
        {
          "internalType": "contract IEnvironment",
          "name": "",
          "type": "address"
        }
      ],
      "stateMutability": "view",
      "type": "function"
    },
    {
      "inputs": [],
      "name": "stakeManager",
      "outputs": [
        {
          "internalType": "contract IStakeManager",
          "name": "",
          "type": "address"
        }
      ],
      "stateMutability": "view",
      "type": "function"
    },
    {
      "inputs": [
        {
          "internalType": "bytes",
          "name": "header1",
          "type": "bytes"
        },
        {
          "internalType": "bytes",
          "name": "header2",
          "type": "bytes"
        }
      ],
      "name": "submitDoubleSignEvidence",
      "outputs": [],
      "stateMutability": "nonpayable",
      "type": "function"
    },
    {
      "inputs": [
        {
          "components": [
            {
              "components": [
                {
                  "internalType": "uint256",
                  "name": "srcNum",
                  "type": "uint256"
                },
                {
                  "internalType": "bytes32",
                  "name": "srcHash",
                  "type": "bytes32"
                },
                {
                  "internalType": "uint256",
                  "name": "tarNum",
                  "type": "uint256"
                },
                {
                  "internalType": "bytes32",
                  "name": "tarHash",
                  "type": "bytes32"
                },
                {
                  "internalType": "bytes",
                  "name": "sig",
                  "type": "bytes"
                }
              ],
              "internalType": "struct ISlashIndicator.VoteData",
              "name": "voteA",
              "type": "tuple"
            },
            {
              "components": [
                {
                  "internalType": "uint256",
                  "name": "srcNum",
                  "type": "uint256"
                },
                {
                  "internalType": "bytes32",
                  "name": "srcHash",
                  "type": "bytes32"
                },
                {
                  "internalType": "uint256",
                  "name": "tarNum",
                  "type": "uint256"
                },
                {
                  "internalType": "bytes32",
                  "name": "tarHash",
                  "type": "bytes32"
                },
                {
                  "internalType": "bytes",
                  "name": "sig",
                  "type": "bytes"
                }
              ],
              "internalType": "struct ISlashIndicator.VoteData",
              "name": "voteB",
              "type": "tuple"
            },
            {
              "internalType": "bytes",
              "name": "voteAddr",
              "type": "bytes"
            }
          ],
          "internalType": "struct ISlashIndicator.FinalityEvidence",
          "name": "_evidence",
          "type": "tuple"
        }
      ],
      "name": "submitFinalityViolationEvidence",
      "outputs": [],
      "stateMutability": "nonpayable",
      "type": "function"
    }
  ],
  "bytecode": "0x60e06040523480156200001157600080fd5b50604051620015a7380380620015a78339810160408190526200003491620000c1565b6001600160a01b0383166200005c5760405163e99d5ac560e01b815260040160405180910390fd5b6001600160a01b038216620000845760405163e99d5ac560e01b815260040160405180910390fd5b6001600160a01b03928316608052911660a05261ffff1660c05262000115565b80516001600160a01b0381168114620000bc57600080fd5b919050565b600080600060608486031215620000d757600080fd5b620000e284620000a4565b9250620000f260208501620000a4565b9150604084015161ffff811681146200010a57600080fd5b809150509250925092565b60805160a05160c0516114486200015f6000396000818161011d01526101c901526000818160e001528181610398015261074a015260008181609c015261094f01526114486000f3fe608060405234801561001057600080fd5b506004361061007d5760003560e01c806395bc989d1161005b57806395bc989d146101025780639a8a059214610118578063cc844b7314610152578063e99bbfaa1461016557600080fd5b8063279621181461008257806374e2b63c146100975780637542ff95146100db575b600080fd5b610095610090366004610fe7565b61016d565b005b6100be7f000000000000000000000000000000000000000000000000000000000000000081565b6040516001600160a01b0390911681526020015b60405180910390f35b6100be7f000000000000000000000000000000000000000000000000000000000000000081565b61010a600181565b6040519081526020016100d2565b61013f7f000000000000000000000000000000000000000000000000000000000000000081565b60405161ffff90911681526020016100d2565b610095610160366004611053565b610459565b61010a600381565b821580610178575080155b15610195576040516233519360e11b815260040160405180910390fd5b60408051600380825260808201909252600091816020015b60608152602001906001900390816101ad5790505090506101f17f000000000000000000000000000000000000000000000000000000000000000061ffff16610835565b81600081518110610204576102046110a4565b602002602001018190525061024e85858080601f01602080910402602001604051908101604052809392919081815260200183838082843760009201919091525061084e92505050565b81600181518110610261576102616110a4565b60200260200101819052506102ab83838080601f01602080910402602001604051908101604052809392919081815260200183838082843760009201919091525061084e92505050565b816002815181106102be576102be6110a4565b602002602001018190525060006102d4826108a7565b6040805160348082526060820190925291925060009190602082018180368337019050509050815160346020830182602086016068600019fa61031657600080fd5b50601481015160348201514361032a61094b565b61033490836110d0565b101561037357804361034461094b565b604051630182e80760e71b81526004810193909352602483019190915260448201526064015b60405180910390fd5b6040805160008082526020820192839052622665a760e81b9092526001600160a01b037f00000000000000000000000000000000000000000000000000000000000000001691632665a700916103d1919086906003602482016110e8565b600060405180830381600087803b1580156103eb57600080fd5b505af11580156103ff573d6000803e3d6000fd5b50505050816001600160a01b03167f416f2a54dbc4bc9f8447591684a243b9bf8a058798f6b04f4492871fb9dcf9248a8a8a8a86436040516104469695949392919061118a565b60405180910390a2505050505050505050565b4361046261094b565b61046c83806111c7565b6040013561047a91906110d0565b1115806104a957504361048b61094b565b61049860208401846111c7565b604001356104a691906110d0565b11155b15610505576104b881806111c7565b604001356104c960208301836111c7565b60400135436104d661094b565b604051636d33298d60e01b8152600481019490945260248401929092526044830152606482015260840161036a565b61051260208201826111c7565b6020013561052082806111c7565b6020013514801561054d575061053960208201826111c7565b6060013561054782806111c7565b60600135145b1561056b57604051630a298d5160e21b815260040160405180910390fd5b61057581806111c7565b3561058082806111c7565b604001351115806105ae575061059960208201826111c7565b356105a760208301836111c7565b6040013511155b1561061c576105bd81806111c7565b356105c882806111c7565b604001356105d960208401846111c7565b356105e760208501856111c7565b60408051630321016360e61b81526004810195909552602485019390935260448401919091520135606482015260840161036a565b61062960208201826111c7565b3561063482806111c7565b3510801561065e575061064781806111c7565b6040013561065860208301836111c7565b60400135105b806106a6575061066e81806111c7565b3561067c60208301836111c7565b351080156106a6575061069260208201826111c7565b604001356106a082806111c7565b60400135105b806106cd57506106b960208201826111c7565b604001356106c782806111c7565b60400135145b6106ea5760405163a2dde58760e01b815260040160405180910390fd5b6107096106f782806111c7565b61070460408401846111e7565b6109d9565b158061072257506107206106f760208301836111c7565b155b156107405760405163694bf28d60e11b815260040160405180910390fd5b6001600160a01b037f000000000000000000000000000000000000000000000000000000000000000016632665a70060008061077f60408601866111e7565b60016040518663ffffffff1660e01b81526004016107a195949392919061122e565b600060405180830381600087803b1580156107bb57600080fd5b505af11580156107cf573d6000803e3d6000fd5b507fd4398b9ace041382d6b9179a7561d36e690bdc7cfe1e548a9eaa9f7fec0b5227925061080391505060408301836111e7565b61080d84806111c7565b61081a60208601866111c7565b60405161082a94939291906112e8565b60405180910390a150565b606061084861084383610c5c565b61084e565b92915050565b6060815160011480156108865750607f60f81b82600081518110610874576108746110a4565b01602001516001600160f81b03191611155b1561088f575090565b6108486108a18351608060ff16610d70565b83610e87565b60608151600014156108c757505060408051600081526020810190915290565b6000826000815181106108dc576108dc6110a4565b602002602001015190506000600190505b835181101561092b576109198285838151811061090c5761090c6110a4565b6020026020010151610e87565b91506109248161132d565b90506108ed565b5061094461093e825160c060ff16610d70565b82610e87565b9392505050565b60007f00000000000000000000000000000000000000000000000000000000000000006001600160a01b0316633fa4f2456040518163ffffffff1660e01b815260040161012060405180830381865afa1580156109ac573d6000803e3d6000fd5b505050506040513d601f19601f820116820180604052508101906109d09190611380565b60600151905090565b60408051600480825260a08201909252600091829190816020015b60608152602001906001900390816109f4575050604080516020808252818301909252919250600091908082018180368337019050509050610a368635610835565b82600081518110610a4957610a496110a4565b6020026020010181905250610a6f60208760200135839091018181526020918201910152565b610a788161084e565b82600181518110610a8b57610a8b6110a4565b6020026020010181905250610aa38660400135610835565b82600281518110610ab657610ab66110a4565b6020026020010181905250610adc60208760600135839091018181526020918201910152565b610ae58161084e565b82600381518110610af857610af86110a4565b6020026020010181905250610b276020610b11846108a7565b8051602091820120918401828152918101910152565b6040805160b080825260e08201909252600091602082018180368337019050509050610b57818360006020610f04565b610ba881610b6860808a018a6111e7565b8080601f0160208091040260200160405190810160405280939291908181526020018383808284376000920191909152506020925060609150610f049050565b610bee8187878080601f0160208091040260200160405190810160405280939291908181526020018383808284376000920191909152506080925060309150610f049050565b604080516001808252818301909252600091602082018180368337019050509050815160016020830182602086016066600019fa610c2b57600080fd5b506001610c39826000610f7b565b60ff1614610c4e576000945050505050610944565b506001979650505050505050565b60408051602080825281830190925260609160009190602082018180368337505050602081018490529050600067ffffffffffffffff198416610ca157506018610cc5565b6fffffffffffffffffffffffffffffffff198416610cc157506010610cc5565b5060005b6020811015610d0957818181518110610ce057610ce06110a4565b01602001516001600160f81b03191615610cf957610d09565b610d028161132d565b9050610cc5565b6000610d168260206113fb565b905060008167ffffffffffffffff811115610d3357610d3361108e565b6040519080825280601f01601f191660200182016040528015610d5d576020820181803683370190505b5082810196909652508452509192915050565b6060680100000000000000008310610dbb5760405162461bcd60e51b815260206004820152600e60248201526d696e70757420746f6f206c6f6e6760901b604482015260640161036a565b60408051600180825281830190925260009160208201818036833701905050905060378411610e2257610dee83856110d0565b60f81b81600081518110610e0457610e046110a4565b60200101906001600160f81b031916908160001a9053509050610848565b6000610e2d85610c5c565b9050838151610e3c91906110d0565b610e479060376110d0565b60f81b82600081518110610e5d57610e5d6110a4565b60200101906001600160f81b031916908160001a905350610e7e8282610e87565b95945050505050565b6060806040519050835180825260208201818101602087015b81831015610eb8578051835260209283019201610ea0565b50855184518101855292509050808201602086015b81831015610ee5578051835260209283019201610ecd565b508651929092011591909101601f01601f191660405250905092915050565b60005b81811015610f7457838181518110610f2157610f216110a4565b01602001516001600160f81b0319168584610f3b8161132d565b955081518110610f4d57610f4d6110a4565b60200101906001600160f81b031916908160001a905350610f6d8161132d565b9050610f07565b5050505050565b6000610f888260016110d0565b83511015610f9557600080fd5b50016001015190565b60008083601f840112610fb057600080fd5b50813567ffffffffffffffff811115610fc857600080fd5b602083019150836020828501011115610fe057600080fd5b9250929050565b60008060008060408587031215610ffd57600080fd5b843567ffffffffffffffff8082111561101557600080fd5b61102188838901610f9e565b9096509450602087013591508082111561103a57600080fd5b5061104787828801610f9e565b95989497509550505050565b60006020828403121561106557600080fd5b813567ffffffffffffffff81111561107c57600080fd5b82016060818503121561094457600080fd5b634e487b7160e01b600052604160045260246000fd5b634e487b7160e01b600052603260045260246000fd5b634e487b7160e01b600052601160045260246000fd5b600082198211156110e3576110e36110ba565b500190565b600060018060a01b038087168352602081871681850152608060408501528551915081608085015260005b8281101561112f5786810182015185820160a001528101611113565b8281111561114157600060a084870101525b5050606083019390935250601f91909101601f19160160a0019392505050565b81835281816020850137506000828201602090810191909152601f909101601f19169091010190565b60808152600061119e60808301888a611161565b82810360208401526111b1818789611161565b6040840195909552505060600152949350505050565b60008235609e198336030181126111dd57600080fd5b9190910192915050565b6000808335601e198436030181126111fe57600080fd5b83018035915067ffffffffffffffff82111561121957600080fd5b602001915036819003821315610fe057600080fd5b6001600160a01b0386811682528516602082015260806040820181905260009061125b9083018587611161565b90508260608301529695505050505050565b8035825260208101356020830152604081013560408301526060810135606083015260006080820135601e198336030181126112a857600080fd5b8201803567ffffffffffffffff8111156112c157600080fd5b8036038413156112d057600080fd5b60a06080860152610e7e60a086018260208501611161565b6060815260006112fc606083018688611161565b828103602084015261130e818661126d565b90508281036040840152611322818561126d565b979650505050505050565b6000600019821415611341576113416110ba565b5060010190565b604051610120810167ffffffffffffffff8111828210171561137a57634e487b7160e01b600052604160045260246000fd5b60405290565b6000610120828403121561139357600080fd5b61139b611348565b825181526020830151602082015260408301516040820152606083015160608201526080830151608082015260a083015160a082015260c083015160c082015260e083015160e08201526101008084015181830152508091505092915050565b60008282101561140d5761140d6110ba565b50039056fea26469706673582212202ca9da21dec8d34a57fb32b1c9e6f8b6cf4eab7b40b3d99d0896cee00bfcf1f064736f6c634300080c0033",
  "linkReferences": {},
  "deployedLinkReferences": {}
}