{
  "_format": "hh-sol-artifact-1",
  "contractName": "StakeManager",
  "sourceName": "contracts/StakeManager.sol",
  "abi": [
    {
      "inputs": [],
      "name": "AlreadyClaimed",
      "type": "error"
    },
    {
      "inputs": [],
      "name": "AlreadyInUse",
      "type": "error"
    },
    {
      "inputs": [],
      "name": "AlreadyInitialized",
      "type": "error"
    },
    {
      "inputs": [],
      "name": "AlreadyJoined",
      "type": "error"
    },
    {
      "inputs": [],
      "name": "AmountMismatched",
      "type": "error"
    },
    {
      "inputs": [],
      "name": "EmptyAddress",
      "type": "error"
    },
    {
      "inputs": [],
      "name": "EmptyBLS",
      "type": "error"
    },
    {
      "inputs": [],
      "name": "InvalidBLSLength",
      "type": "error"
    },
    {
      "inputs": [],
      "name": "Locked",
      "type": "error"
    },
    {
      "inputs": [],
      "name": "NoAmount",
      "type": "error"
    },
    {
      "inputs": [],
      "name": "NotZeroAmount",
      "type": "error"
    },
    {
      "inputs": [],
      "name": "ObsoletedMethod",
      "type": "error"
    },
    {
      "inputs": [],
      "name": "OnlyBlockProducer",
      "type": "error"
    },
    {
      "inputs": [],
      "name": "OnlyNotLastBlock",
      "type": "error"
    },
    {
      "inputs": [],
      "name": "PastEpoch",
      "type": "error"
    },
    {
      "inputs": [],
      "name": "SameAsOwner",
      "type": "error"
    },
    {
      "inputs": [],
      "name": "StakerDoesNotExist",
      "type": "error"
    },
    {
      "inputs": [
        {
          "internalType": "enum Token.Type",
          "name": "token",
          "type": "uint8"
        }
      ],
      "name": "TransferFailed",
      "type": "error"
    },
    {
      "inputs": [],
      "name": "UnauthorizedSender",
      "type": "error"
    },
    {
      "inputs": [],
      "name": "UnknownToken",
      "type": "error"
    },
    {
      "inputs": [],
      "name": "ValidatorDoesNotExist",
      "type": "error"
    },
    {
      "anonymous": false,
      "inputs": [
        {
          "indexed": false,
          "internalType": "uint256",
          "name": "amount",
          "type": "uint256"
        }
      ],
      "name": "AddedRewardBalance",
      "type": "event"
    },
    {
      "anonymous": false,
      "inputs": [
        {
          "indexed": true,
          "internalType": "address",
          "name": "validator",
          "type": "address"
        },
        {
          "indexed": false,
          "internalType": "bytes",
          "name": "oldBLSPublicKey",
          "type": "bytes"
        },
        {
          "indexed": false,
          "internalType": "bytes",
          "name": "newBLSPublicKey",
          "type": "bytes"
        }
      ],
      "name": "BLSPublicKeyUpdated",
      "type": "event"
    },
    {
      "anonymous": false,
      "inputs": [
        {
          "indexed": true,
          "internalType": "address",
          "name": "validator",
          "type": "address"
        },
        {
          "indexed": false,
          "internalType": "uint256",
          "name": "amount",
          "type": "uint256"
        }
      ],
      "name": "ClaimedCommissions",
      "type": "event"
    },
    {
      "anonymous": false,
      "inputs": [
        {
          "indexed": true,
          "internalType": "address",
          "name": "staker",
          "type": "address"
        },
        {
          "indexed": false,
          "internalType": "uint256",
          "name": "lockedUnstake",
          "type": "uint256"
        }
      ],
      "name": "ClaimedLockedUnstake",
      "type": "event"
    },
    {
      "anonymous": false,
      "inputs": [
        {
          "indexed": true,
          "internalType": "address",
          "name": "staker",
          "type": "address"
        },
        {
          "indexed": false,
          "internalType": "address",
          "name": "validator",
          "type": "address"
        },
        {
          "indexed": false,
          "internalType": "uint256",
          "name": "amount",
          "type": "uint256"
        }
      ],
      "name": "ClaimedRewards",
      "type": "event"
    },
    {
      "anonymous": false,
      "inputs": [
        {
          "indexed": true,
          "internalType": "address",
          "name": "validator",
          "type": "address"
        },
        {
          "indexed": false,
          "internalType": "address",
          "name": "oldOperator",
          "type": "address"
        },
        {
          "indexed": false,
          "internalType": "address",
          "name": "newOperator",
          "type": "address"
        }
      ],
      "name": "OperatorUpdated",
      "type": "event"
    },
    {
      "anonymous": false,
      "inputs": [
        {
          "indexed": true,
          "internalType": "address",
          "name": "staker",
          "type": "address"
        },
        {
          "indexed": true,
          "internalType": "address",
          "name": "validator",
          "type": "address"
        },
        {
          "indexed": false,
          "internalType": "uint256",
          "name": "amount",
          "type": "uint256"
        }
      ],
      "name": "ReStaked",
      "type": "event"
    },
    {
      "anonymous": false,
      "inputs": [
        {
          "indexed": true,
          "internalType": "address",
          "name": "staker",
          "type": "address"
        },
        {
          "indexed": true,
          "internalType": "address",
          "name": "validator",
          "type": "address"
        },
        {
          "indexed": false,
          "internalType": "enum Token.Type",
          "name": "token",
          "type": "uint8"
        },
        {
          "indexed": false,
          "internalType": "uint256",
          "name": "amount",
          "type": "uint256"
        }
      ],
      "name": "Staked",
      "type": "event"
    },
    {
      "anonymous": false,
      "inputs": [
        {
          "indexed": true,
          "internalType": "address",
          "name": "staker",
          "type": "address"
        },
        {
          "indexed": true,
          "internalType": "address",
          "name": "validator",
          "type": "address"
        },
        {
          "indexed": false,
          "internalType": "enum Token.Type",
          "name": "token",
          "type": "uint8"
        },
        {
          "indexed": false,
          "internalType": "uint256",
          "name": "amount",
          "type": "uint256"
        }
      ],
      "name": "Unstaked",
      "type": "event"
    },
    {
      "anonymous": false,
      "inputs": [
        {
          "indexed": true,
          "internalType": "address",
          "name": "staker",
          "type": "address"
        },
        {
          "indexed": true,
          "internalType": "address",
          "name": "validator",
          "type": "address"
        },
        {
          "indexed": false,
          "internalType": "uint256",
          "name": "lockedUnstake",
          "type": "uint256"
        }
      ],
      "name": "UnstakedV2",
      "type": "event"
    },
    {
      "anonymous": false,
      "inputs": [
        {
          "indexed": true,
          "internalType": "address",
          "name": "validator",
          "type": "address"
        },
        {
          "indexed": false,
          "internalType": "uint256[]",
          "name": "epochs",
          "type": "uint256[]"
        }
      ],
      "name": "ValidatorActivated",
      "type": "event"
    },
    {
      "anonymous": false,
      "inputs": [
        {
          "indexed": true,
          "internalType": "address",
          "name": "validator",
          "type": "address"
        },
        {
          "indexed": false,
          "internalType": "uint256[]",
          "name": "epochs",
          "type": "uint256[]"
        }
      ],
      "name": "ValidatorDeactivated",
      "type": "event"
    },
    {
      "anonymous": false,
      "inputs": [
        {
          "indexed": true,
          "internalType": "address",
          "name": "validator",
          "type": "address"
        },
        {
          "indexed": false,
          "internalType": "uint256",
          "name": "until",
          "type": "uint256"
        }
      ],
      "name": "ValidatorJailed",
      "type": "event"
    },
    {
      "anonymous": false,
      "inputs": [
        {
          "indexed": false,
          "internalType": "address",
          "name": "validator",
          "type": "address"
        }
      ],
      "name": "ValidatorJoined",
      "type": "event"
    },
    {
      "anonymous": false,
      "inputs": [
        {
          "indexed": true,
          "internalType": "address",
          "name": "validator",
          "type": "address"
        }
      ],
      "name": "ValidatorSlashed",
      "type": "event"
    },
    {
      "inputs": [
        {
          "internalType": "address",
          "name": "validator",
          "type": "address"
        },
        {
          "internalType": "uint256[]",
          "name": "epochs",
          "type": "uint256[]"
        }
      ],
      "name": "activateValidator",
      "outputs": [],
      "stateMutability": "nonpayable",
      "type": "function"
    },
    {
      "inputs": [],
      "name": "addRewardBalance",
      "outputs": [],
      "stateMutability": "payable",
      "type": "function"
    },
    {
      "inputs": [],
      "name": "allowlist",
      "outputs": [
        {
          "internalType": "contract IAllowlist",
          "name": "",
          "type": "address"
        }
      ],
      "stateMutability": "view",
      "type": "function"
    },
    {
      "inputs": [],
      "name": "candidateManager",
      "outputs": [
        {
          "internalType": "contract ICandidateValidatorManager",
          "name": "",
          "type": "address"
        }
      ],
      "stateMutability": "view",
      "type": "function"
    },
    {
      "inputs": [
        {
          "internalType": "address",
          "name": "",
          "type": "address"
        },
        {
          "internalType": "uint256",
          "name": "epochs",
          "type": "uint256"
        }
      ],
      "name": "claimCommissions",
      "outputs": [],
      "stateMutability": "nonpayable",
      "type": "function"
    },
    {
      "inputs": [
        {
          "internalType": "uint256",
          "name": "lockedUnstake",
          "type": "uint256"
        }
      ],
      "name": "claimLockedUnstake",
      "outputs": [],
      "stateMutability": "nonpayable",
      "type": "function"
    },
    {
      "inputs": [
        {
          "internalType": "address",
          "name": "",
          "type": "address"
        },
        {
          "internalType": "address",
          "name": "validator",
          "type": "address"
        },
        {
          "internalType": "uint256",
          "name": "epochs",
          "type": "uint256"
        }
      ],
      "name": "claimRewards",
      "outputs": [],
      "stateMutability": "nonpayable",
      "type": "function"
    },
    {
      "inputs": [
        {
          "internalType": "address",
          "name": "",
          "type": "address"
        }
      ],
      "name": "claimUnstakes",
      "outputs": [],
      "stateMutability": "nonpayable",
      "type": "function"
    },
    {
      "inputs": [
        {
          "internalType": "address",
          "name": "validator",
          "type": "address"
        },
        {
          "internalType": "uint256[]",
          "name": "epochs",
          "type": "uint256[]"
        }
      ],
      "name": "deactivateValidator",
      "outputs": [],
      "stateMutability": "nonpayable",
      "type": "function"
    },
    {
      "inputs": [],
      "name": "environment",
      "outputs": [
        {
          "internalType": "contract IEnvironment",
          "name": "",
          "type": "address"
        }
      ],
      "stateMutability": "view",
      "type": "function"
    },
    {
      "inputs": [
        {
          "internalType": "address",
          "name": "validator",
          "type": "address"
        },
        {
          "internalType": "uint256",
          "name": "epoch",
          "type": "uint256"
        }
      ],
      "name": "getBlockAndSlashes",
      "outputs": [
        {
          "internalType": "uint256",
          "name": "blocks",
          "type": "uint256"
        },
        {
          "internalType": "uint256",
          "name": "slashes",
          "type": "uint256"
        }
      ],
      "stateMutability": "view",
      "type": "function"
    },
    {
      "inputs": [
        {
          "internalType": "address",
          "name": "validator",
          "type": "address"
        },
        {
          "internalType": "uint256",
          "name": "epochs",
          "type": "uint256"
        }
      ],
      "name": "getCommissions",
      "outputs": [
        {
          "internalType": "uint256",
          "name": "commissions",
          "type": "uint256"
        }
      ],
      "stateMutability": "view",
      "type": "function"
    },
    {
      "inputs": [
        {
          "internalType": "address",
          "name": "staker",
          "type": "address"
        },
        {
          "internalType": "uint256",
          "name": "lockedUnstake",
          "type": "uint256"
        }
      ],
      "name": "getLockedUnstake",
      "outputs": [
        {
          "internalType": "enum Token.Type",
          "name": "token",
          "type": "uint8"
        },
        {
          "internalType": "uint256",
          "name": "amount",
          "type": "uint256"
        },
        {
          "internalType": "uint256",
          "name": "unlockTime",
          "type": "uint256"
        },
        {
          "internalType": "bool",
          "name": "claimable",
          "type": "bool"
        }
      ],
      "stateMutability": "view",
      "type": "function"
    },
    {
      "inputs": [
        {
          "internalType": "address",
          "name": "staker",
          "type": "address"
        }
      ],
      "name": "getLockedUnstakeCount",
      "outputs": [
        {
          "internalType": "uint256",
          "name": "count",
          "type": "uint256"
        }
      ],
      "stateMutability": "view",
      "type": "function"
    },
    {
      "inputs": [
        {
          "internalType": "address",
          "name": "staker",
          "type": "address"
        },
        {
          "internalType": "uint256",
          "name": "cursor",
          "type": "uint256"
        },
        {
          "internalType": "uint256",
          "name": "howMany",
          "type": "uint256"
        }
      ],
      "name": "getLockedUnstakes",
      "outputs": [
        {
          "internalType": "enum Token.Type[]",
          "name": "tokens",
          "type": "uint8[]"
        },
        {
          "internalType": "uint256[]",
          "name": "amounts",
          "type": "uint256[]"
        },
        {
          "internalType": "uint256[]",
          "name": "unlockTimes",
          "type": "uint256[]"
        },
        {
          "internalType": "bool[]",
          "name": "claimable",
          "type": "bool[]"
        },
        {
          "internalType": "uint256",
          "name": "newCursor",
          "type": "uint256"
        }
      ],
      "stateMutability": "view",
      "type": "function"
    },
    {
      "inputs": [
        {
          "internalType": "address",
          "name": "operator",
          "type": "address"
        },
        {
          "internalType": "uint256",
          "name": "epoch",
          "type": "uint256"
        }
      ],
      "name": "getOperatorStakes",
      "outputs": [
        {
          "internalType": "uint256",
          "name": "stakes",
          "type": "uint256"
        }
      ],
      "stateMutability": "view",
      "type": "function"
    },
    {
      "inputs": [
        {
          "internalType": "address",
          "name": "staker",
          "type": "address"
        },
        {
          "internalType": "address",
          "name": "validator",
          "type": "address"
        },
        {
          "internalType": "uint256",
          "name": "epochs",
          "type": "uint256"
        }
      ],
      "name": "getRewards",
      "outputs": [
        {
          "internalType": "uint256",
          "name": "rewards",
          "type": "uint256"
        }
      ],
      "stateMutability": "view",
      "type": "function"
    },
    {
      "inputs": [
        {
          "internalType": "address",
          "name": "staker",
          "type": "address"
        },
        {
          "internalType": "uint256",
          "name": "epoch",
          "type": "uint256"
        },
        {
          "internalType": "uint256",
          "name": "cursor",
          "type": "uint256"
        },
        {
          "internalType": "uint256",
          "name": "howMany",
          "type": "uint256"
        }
      ],
      "name": "getStakerStakes",
      "outputs": [
        {
          "internalType": "address[]",
          "name": "_validators",
          "type": "address[]"
        },
        {
          "internalType": "uint256[]",
          "name": "oasStakes",
          "type": "uint256[]"
        },
        {
          "internalType": "uint256[]",
          "name": "woasStakes",
          "type": "uint256[]"
        },
        {
          "internalType": "uint256[]",
          "name": "soasStakes",
          "type": "uint256[]"
        },
        {
          "internalType": "uint256",
          "name": "newCursor",
          "type": "uint256"
        }
      ],
      "stateMutability": "view",
      "type": "function"
    },
    {
      "inputs": [
        {
          "internalType": "uint256",
          "name": "cursor",
          "type": "uint256"
        },
        {
          "internalType": "uint256",
          "name": "howMany",
          "type": "uint256"
        }
      ],
      "name": "getStakers",
      "outputs": [
        {
          "internalType": "address[]",
          "name": "_stakers",
          "type": "address[]"
        },
        {
          "internalType": "uint256",
          "name": "newCursor",
          "type": "uint256"
        }
      ],
      "stateMutability": "view",
      "type": "function"
    },
    {
      "inputs": [
        {
          "internalType": "address[]",
          "name": "_validators",
          "type": "address[]"
        },
        {
          "internalType": "uint256",
          "name": "epochs",
          "type": "uint256"
        }
      ],
      "name": "getTotalRewards",
      "outputs": [
        {
          "internalType": "uint256",
          "name": "rewards",
          "type": "uint256"
        }
      ],
      "stateMutability": "view",
      "type": "function"
    },
    {
      "inputs": [
        {
          "internalType": "uint256",
          "name": "epoch",
          "type": "uint256"
        }
      ],
      "name": "getTotalStake",
      "outputs": [
        {
          "internalType": "uint256",
          "name": "amounts",
          "type": "uint256"
        }
      ],
      "stateMutability": "view",
      "type": "function"
    },
    {
      "inputs": [
        {
          "internalType": "address",
          "name": "staker",
          "type": "address"
        }
      ],
      "name": "getUnstakes",
      "outputs": [
        {
          "internalType": "uint256",
          "name": "oasUnstakes",
          "type": "uint256"
        },
        {
          "internalType": "uint256",
          "name": "woasUnstakes",
          "type": "uint256"
        },
        {
          "internalType": "uint256",
          "name": "soasUnstakes",
          "type": "uint256"
        }
      ],
      "stateMutability": "view",
      "type": "function"
    },
    {
      "inputs": [
        {
          "internalType": "address",
          "name": "validator",
          "type": "address"
        },
        {
          "internalType": "uint256",
          "name": "epoch",
          "type": "uint256"
        }
      ],
      "name": "getValidatorInfo",
      "outputs": [
        {
          "internalType": "address",
          "name": "operator",
          "type": "address"
        },
        {
          "internalType": "bool",
          "name": "active",
          "type": "bool"
        },
        {
          "internalType": "bool",
          "name": "jailed",
          "type": "bool"
        },
        {
          "internalType": "bool",
          "name": "candidate",
          "type": "bool"
        },
        {
          "internalType": "uint256",
          "name": "stakes",
          "type": "uint256"
        },
        {
          "internalType": "bytes",
          "name": "blsPublicKey",
          "type": "bytes"
        }
      ],
      "stateMutability": "view",
      "type": "function"
    },
    {
      "inputs": [
        {
          "internalType": "uint256",
          "name": "cursor",
          "type": "uint256"
        },
        {
          "internalType": "uint256",
          "name": "howMany",
          "type": "uint256"
        }
      ],
      "name": "getValidatorOwners",
      "outputs": [
        {
          "internalType": "address[]",
          "name": "owners",
          "type": "address[]"
        },
        {
          "internalType": "uint256",
          "name": "newCursor",
          "type": "uint256"
        }
      ],
      "stateMutability": "view",
      "type": "function"
    },
    {
      "inputs": [
        {
          "internalType": "address",
          "name": "validator",
          "type": "address"
        },
        {
          "internalType": "uint256",
          "name": "epoch",
          "type": "uint256"
        }
      ],
      "name": "getValidatorStakes",
      "outputs": [
        {
          "internalType": "uint256",
          "name": "stakes",
          "type": "uint256"
        }
      ],
      "stateMutability": "view",
      "type": "function"
    },
    {
      "inputs": [
        {
          "internalType": "address",
          "name": "validator",
          "type": "address"
        },
        {
          "internalType": "uint256",
          "name": "epoch",
          "type": "uint256"
        },
        {
          "internalType": "uint256",
          "name": "cursor",
          "type": "uint256"
        },
        {
          "internalType": "uint256",
          "name": "howMany",
          "type": "uint256"
        }
      ],
      "name": "getValidatorStakes",
      "outputs": [
        {
          "internalType": "address[]",
          "name": "_stakers",
          "type": "address[]"
        },
        {
          "internalType": "uint256[]",
          "name": "stakes",
          "type": "uint256[]"
        },
        {
          "internalType": "uint256",
          "name": "newCursor",
          "type": "uint256"
        }
      ],
      "stateMutability": "view",
      "type": "function"
    },
    {
      "inputs": [
        {
          "internalType": "uint256",
          "name": "epoch",
          "type": "uint256"
        },
        {
          "internalType": "uint256",
          "name": "cursor",
          "type": "uint256"
        },
        {
          "internalType": "uint256",
          "name": "howMany",
          "type": "uint256"
        }
      ],
      "name": "getValidators",
      "outputs": [
        {
          "internalType": "address[]",
          "name": "owners",
          "type": "address[]"
        },
        {
          "internalType": "address[]",
          "name": "operators",
          "type": "address[]"
        },
        {
          "internalType": "uint256[]",
          "name": "stakes",
          "type": "uint256[]"
        },
        {
          "internalType": "bytes[]",
          "name": "blsPublicKeys",
          "type": "bytes[]"
        },
        {
          "internalType": "bool[]",
          "name": "candidates",
          "type": "bool[]"
        },
        {
          "internalType": "uint256",
          "name": "newCursor",
          "type": "uint256"
        }
      ],
      "stateMutability": "view",
      "type": "function"
    },
    {
      "inputs": [
        {
          "internalType": "contract IEnvironment",
          "name": "_environment",
          "type": "address"
        },
        {
          "internalType": "contract IAllowlist",
          "name": "_allowlist",
          "type": "address"
        }
      ],
      "name": "initialize",
      "outputs": [],
      "stateMutability": "nonpayable",
      "type": "function"
    },
    {
      "inputs": [],
      "name": "initialized",
      "outputs": [
        {
          "internalType": "bool",
          "name": "",
          "type": "bool"
        }
      ],
      "stateMutability": "view",
      "type": "function"
    },
    {
      "inputs": [
        {
          "internalType": "address",
          "name": "operator",
          "type": "address"
        }
      ],
      "name": "joinValidator",
      "outputs": [],
      "stateMutability": "nonpayable",
      "type": "function"
    },
    {
      "inputs": [
        {
          "internalType": "address",
          "name": "",
          "type": "address"
        }
      ],
      "name": "operatorToOwner",
      "outputs": [
        {
          "internalType": "address",
          "name": "",
          "type": "address"
        }
      ],
      "stateMutability": "view",
      "type": "function"
    },
    {
      "inputs": [
        {
          "internalType": "uint256",
          "name": "epochs",
          "type": "uint256"
        }
      ],
      "name": "restakeCommissions",
      "outputs": [],
      "stateMutability": "nonpayable",
      "type": "function"
    },
    {
      "inputs": [
        {
          "internalType": "address",
          "name": "validator",
          "type": "address"
        },
        {
          "internalType": "uint256",
          "name": "epochs",
          "type": "uint256"
        }
      ],
      "name": "restakeRewards",
      "outputs": [],
      "stateMutability": "nonpayable",
      "type": "function"
    },
    {
      "inputs": [
        {
          "internalType": "address",
          "name": "operator",
          "type": "address"
        },
        {
          "internalType": "uint256",
          "name": "blocks",
          "type": "uint256"
        }
      ],
      "name": "slash",
      "outputs": [],
      "stateMutability": "nonpayable",
      "type": "function"
    },
    {
      "inputs": [
        {
          "internalType": "address",
          "name": "validator",
          "type": "address"
        },
        {
          "internalType": "enum Token.Type",
          "name": "token",
          "type": "uint8"
        },
        {
          "internalType": "uint256",
          "name": "amount",
          "type": "uint256"
        }
      ],
      "name": "stake",
      "outputs": [],
      "stateMutability": "payable",
      "type": "function"
    },
    {
      "inputs": [
        {
          "internalType": "uint256",
          "name": "",
          "type": "uint256"
        }
      ],
      "name": "stakeAmounts",
      "outputs": [
        {
          "internalType": "uint256",
          "name": "",
          "type": "uint256"
        }
      ],
      "stateMutability": "view",
      "type": "function"
    },
    {
      "inputs": [
        {
          "internalType": "uint256",
          "name": "",
          "type": "uint256"
        }
      ],
      "name": "stakeUpdates",
      "outputs": [
        {
          "internalType": "uint256",
          "name": "",
          "type": "uint256"
        }
      ],
      "stateMutability": "view",
      "type": "function"
    },
    {
      "inputs": [
        {
          "internalType": "uint256",
          "name": "",
          "type": "uint256"
        }
      ],
      "name": "stakerSigners",
      "outputs": [
        {
          "internalType": "address",
          "name": "",
          "type": "address"
        }
      ],
      "stateMutability": "view",
      "type": "function"
    },
    {
      "inputs": [
        {
          "internalType": "address",
          "name": "",
          "type": "address"
        }
      ],
      "name": "stakers",
      "outputs": [
        {
          "internalType": "address",
          "name": "signer",
          "type": "address"
        }
      ],
      "stateMutability": "view",
      "type": "function"
    },
    {
      "inputs": [
        {
          "internalType": "address",
          "name": "",
          "type": "address"
        },
        {
          "internalType": "enum Token.Type",
          "name": "",
          "type": "uint8"
        },
        {
          "internalType": "uint256",
          "name": "",
          "type": "uint256"
        }
      ],
      "name": "unstake",
      "outputs": [],
      "stateMutability": "nonpayable",
      "type": "function"
    },
    {
      "inputs": [
        {
          "internalType": "address",
          "name": "validator",
          "type": "address"
        },
        {
          "internalType": "enum Token.Type",
          "name": "token",
          "type": "uint8"
        },
        {
          "internalType": "uint256",
          "name": "amount",
          "type": "uint256"
        }
      ],
      "name": "unstakeV2",
      "outputs": [],
      "stateMutability": "nonpayable",
      "type": "function"
    },
    {
      "inputs": [
        {
          "internalType": "bytes",
          "name": "blsPublicKey",
          "type": "bytes"
        }
      ],
      "name": "updateBLSPublicKey",
      "outputs": [],
      "stateMutability": "nonpayable",
      "type": "function"
    },
    {
      "inputs": [
        {
          "internalType": "address",
          "name": "operator",
          "type": "address"
        }
      ],
      "name": "updateOperator",
      "outputs": [],
      "stateMutability": "nonpayable",
      "type": "function"
    },
    {
      "inputs": [
        {
          "internalType": "uint256",
          "name": "",
          "type": "uint256"
        }
      ],
      "name": "validatorOwners",
      "outputs": [
        {
          "internalType": "address",
          "name": "",
          "type": "address"
        }
      ],
      "stateMutability": "view",
      "type": "function"
    },
    {
      "inputs": [
        {
          "internalType": "address",
          "name": "",
          "type": "address"
        }
      ],
      "name": "validators",
      "outputs": [
        {
          "internalType": "address",
          "name": "owner",
          "type": "address"
        },
        {
          "internalType": "address",
          "name": "operator",
          "type": "address"
        },
        {
          "internalType": "uint256",
          "name": "lastClaimCommission",
          "type": "uint256"
        },
        {
          "internalType": "bytes",
          "name": "blsPublicKey",
          "type": "bytes"
        }
      ],
      "stateMutability": "view",
      "type": "function"
    }
  ],
  "bytecode": "0x608060405234801561001057600080fd5b5061609580620000216000396000f3fe6080604052600436106102715760003560e01c8063724319911161014f578063cbc0fac6116100c1578063e1aca3411161007a578063e1aca34114610855578063f3621e4314610875578063f65a5ed214610895578063f8d6b1ab146108b5578063fa52c7d8146108d5578063ff3d3f601461090557600080fd5b8063cbc0fac614610759578063cf5c13db14610779578063d0051adf14610799578063d1f18ee1146107ca578063dbd61d87146107fc578063df93c8421461081c57600080fd5b80639043150b116101135780639043150b1461069b5780639168ae72146106a35780639c508219146106d9578063a6a41f44146106f9578063ac7475ed14610719578063ad71bd361461073957600080fd5b806372431991146105c057806374e2b63c146105f25780637b520aa8146106175780637befa74f1461064d578063883252341461066057600080fd5b80632b47da52116101e857806346dfce7b116101ac57806346dfce7b146104e1578063485cc955146105105780635c4fc4c5146105305780635d94ccf6146105605780635efc766e146105805780636b2b3369146105a057600080fd5b80632b47da52146104295780632ee462b31461046157806333f32d7814610481578063428e8562146104a157806345367f23146104c157600080fd5b8063190b92571161023a578063190b925714610327578063195afea1146103555780631c1b4f3a146103755780632168e8b41461039557806322226367146103c35780632b42ed8c146103f857600080fd5b8062c8ae891461027657806302fb4d85146102985780630ddda63c146102b8578063158ef93e146102d85780631903cf1614610307575b600080fd5b34801561028257600080fd5b506102966102913660046150d0565b610925565b005b3480156102a457600080fd5b506102966102b3366004615156565b610b14565b3480156102c457600080fd5b506102966102d3366004615182565b610d1a565b3480156102e457600080fd5b506000546102f29060ff1681565b60405190151581526020015b60405180910390f35b34801561031357600080fd5b5061029661032236600461522d565b610f25565b34801561033357600080fd5b50610347610342366004615182565b61111e565b6040519081526020016102fe565b34801561036157600080fd5b50610347610370366004615156565b61113f565b34801561038157600080fd5b50610347610390366004615182565b611176565b3480156103a157600080fd5b506103b56103b03660046152d7565b611186565b6040516102fe92919061533d565b3480156103cf57600080fd5b506103e36103de366004615156565b61126c565b604080519283526020830191909152016102fe565b34801561040457600080fd5b5061041861041336600461535f565b61133a565b6040516102fe9594939291906153ca565b34801561043557600080fd5b50600154610449906001600160a01b031681565b6040516001600160a01b0390911681526020016102fe565b34801561046d57600080fd5b5061034761047c366004615156565b611687565b34801561048d57600080fd5b5061034761049c36600461542a565b61173a565b3480156104ad57600080fd5b506102966104bc36600461522d565b611900565b3480156104cd57600080fd5b506103476104dc366004615182565b611af9565b3480156104ed57600080fd5b506105016104fc36600461535f565b611b8f565b6040516102fe939291906154c9565b34801561051c57600080fd5b5061029661052b3660046154ff565b611dec565b34801561053c57600080fd5b5061055061054b366004615156565b611e6b565b6040516102fe9493929190615570565b34801561056c57600080fd5b5061029661057b366004615182565b611f37565b34801561058c57600080fd5b5061044961059b366004615182565b612041565b3480156105ac57600080fd5b506102966105bb36600461559b565b61206b565b3480156105cc57600080fd5b506105e06105db3660046155b8565b612164565b6040516102fe9695949392919061566e565b3480156105fe57600080fd5b506000546104499061010090046001600160a01b031681565b34801561062357600080fd5b5061044961063236600461559b565b6006602052600090815260409020546001600160a01b031681565b61029661065b366004615725565b612220565b34801561066c57600080fd5b5061068061067b36600461559b565b6123eb565b604080519384526020840192909252908201526060016102fe565b61029661246b565b3480156106af57600080fd5b506104496106be36600461559b565b6007602052600090815260409020546001600160a01b031681565b3480156106e557600080fd5b506103476106f4366004615156565b6124a0565b34801561070557600080fd5b50600954610449906001600160a01b031681565b34801561072557600080fd5b5061029661073436600461559b565b61257c565b34801561074557600080fd5b506103b56107543660046152d7565b612682565b34801561076557600080fd5b50610296610774366004615156565b612760565b34801561078557600080fd5b50610296610794366004615156565b612808565b3480156107a557600080fd5b506107b96107b436600461576a565b612a07565b6040516102fe95949392919061579f565b3480156107d657600080fd5b506107ea6107e5366004615156565b612cbf565b6040516102fe9695949392919061581c565b34801561080857600080fd5b50610347610817366004615867565b612eca565b34801561082857600080fd5b5061034761083736600461559b565b6001600160a01b031660009081526007602052604090206006015490565b34801561086157600080fd5b50610296610870366004615725565b612f10565b34801561088157600080fd5b50610296610890366004615867565b612f29565b3480156108a157600080fd5b506104496108b0366004615182565b613035565b3480156108c157600080fd5b506102966108d036600461559b565b613045565b3480156108e157600080fd5b506108f56108f036600461559b565b6130a7565b6040516102fe9493929190615897565b34801561091157600080fd5b50610296610920366004615725565b613166565b336000818152600460205260409020546001600160a01b031661095b576040516372898ae960e11b815260040160405180910390fd5b3360005b600554811015610a075784846040516109799291906158d4565b60405180910390206004600060058481548110610998576109986158e4565b60009182526020808320909101546001600160a01b03168352820192909252604090810190912090516109ce91600b0190615935565b604051809103902014156109f55760405163055ee1f160e31b815260040160405180910390fd5b806109ff816159e7565b91505061095f565b506001600160a01b0381166000908152600460205260408120600b81018054919291610a32906158fa565b80601f0160208091040260200160405190810160405280929190818152602001828054610a5e906158fa565b8015610aab5780601f10610a8057610100808354040283529160200191610aab565b820191906000526020600020905b815481529060010190602001808311610a8e57829003601f168201915b50505050509050610ac78686846134a69092919063ffffffff16565b826001600160a01b03167f7ea7e12060119574f657de08c5ef0970a24d7734612fb00c418ad40c7d4a84fd828888604051610b0493929190615a02565b60405180910390a2505050505050565b6001600160a01b038083166000908152600660209081526040808320548416808452600490925290912054909116610b5f576040516372898ae960e11b815260040160405180910390fd5b334114610b7f57604051631cf4735960e01b815260040160405180910390fd5b6001600160a01b038084166000908152600660209081526040808320548416835260049182905280832083548251633fa4f24560e01b815292519195610c92946101009092041692633fa4f2459281830192610120928290030181865afa158015610bee573d6000803e3d6000fd5b505050506040513d601f19601f82011682018060405250810190610c129190615a48565b600060019054906101000a90046001600160a01b03166001600160a01b031663900cf0cf6040518163ffffffff1660e01b8152600401602060405180830381865afa158015610c65573d6000803e3d6000fd5b505050506040513d601f19601f82011682018060405250810190610c899190615ac3565b8491908761352e565b82546040519192506001600160a01b0316907f1647efd0ce9727dc31dc201c9d8d35ac687f7370adcacbd454afc6485ddabfda90600090a28015610d135781546040518281526001600160a01b03909116907feb7d7a49847ec491969db21a0e31b234565a9923145a2d1b56a75c9e95825802906020015b60405180910390a25b5050505050565b336000818152600460205260409020546001600160a01b0316610d50576040516372898ae960e11b815260040160405180910390fd5b336000818152600760205260409020546001600160a01b0316610d865760405163cf83d93d60e01b815260040160405180910390fd5b600060019054906101000a90046001600160a01b03166001600160a01b031663d4a536866040518163ffffffff1660e01b8152600401602060405180830381865afa158015610dd9573d6000803e3d6000fd5b505050506040513d601f19601f82011682018060405250810190610dfd9190615af1565b15610e1b57604051631e59ccd960e01b815260040160405180910390fd5b60008054338252600460205260408220610e439161010090046001600160a01b03168661360d565b905080610e6357604051637bc90c0560e11b815260040160405180910390fd5b610ee73333600060019054906101000a90046001600160a01b03166001600160a01b031663900cf0cf6040518163ffffffff1660e01b8152600401602060405180830381865afa158015610ebb573d6000803e3d6000fd5b505050506040513d601f19601f82011682018060405250810190610edf9190615ac3565b60008561362d565b604051818152339081907fddd8e3ffe5c76cd1a7cca4b98662cb0a4e3da53ee24a873da632d28ba1043836906020015b60405180910390a350505050565b6001600160a01b03828116600090815260046020526040902080548492163314801590610f5f575060018101546001600160a01b03163314155b15610f7d57604051630101292160e31b815260040160405180910390fd5b6001600160a01b03808516600090815260046020526040902054859116610fb7576040516372898ae960e11b815260040160405180910390fd5b600060019054906101000a90046001600160a01b03166001600160a01b031663d4a536866040518163ffffffff1660e01b8152600401602060405180830381865afa15801561100a573d6000803e3d6000fd5b505050506040513d601f19601f8201168201806040525081019061102e9190615af1565b1561104c57604051631e59ccd960e01b815260040160405180910390fd5b6110e5600060019054906101000a90046001600160a01b03166001600160a01b031663900cf0cf6040518163ffffffff1660e01b8152600401602060405180830381865afa1580156110a2573d6000803e3d6000fd5b505050506040513d601f19601f820116820180604052508101906110c69190615ac3565b6001600160a01b03871660009081526004602052604090209086613742565b846001600160a01b03167fc11dfc9c24621433bb10587dc4bbae26a33a4aff53914e0d4c9fddf224a8cb7d85604051610d0a9190615b0c565b6002818154811061112e57600080fd5b600091825260209091200154905081565b600080546001600160a01b03848116835260046020526040832061116c9290916101009091041684613754565b5090505b92915050565b6003818154811061112e57600080fd5b6060600061119a84846005805490506138e8565b9093509050826001600160401b038111156111b7576111b761519b565b6040519080825280602002602001820160405280156111e0578160200160208202803683370190505b50915060005b838110156112645760056111fa8287615b1f565b8154811061120a5761120a6158e4565b9060005260206000200160009054906101000a90046001600160a01b031683828151811061123a5761123a6158e4565b6001600160a01b03909216602092830291909101909101528061125c816159e7565b9150506111e6565b509250929050565b60008061132f600084116112f657600060019054906101000a90046001600160a01b03166001600160a01b031663900cf0cf6040518163ffffffff1660e01b8152600401602060405180830381865afa1580156112cd573d6000803e3d6000fd5b505050506040513d601f19601f820116820180604052508101906112f19190615ac3565b6112f8565b835b6001600160a01b038616600090815260046020908152604080832093835260098401825280832054600a9094019091529020549091565b909590945092505050565b6001600160a01b0384166000908152600760205260408120606091829182918291886113dc57600060019054906101000a90046001600160a01b03166001600160a01b031663900cf0cf6040518163ffffffff1660e01b8152600401602060405180830381865afa1580156113b3573d6000803e3d6000fd5b505050506040513d601f19601f820116820180604052508101906113d79190615ac3565b6113de565b885b98506113f088886005805490506138e8565b9097509150866001600160401b0381111561140d5761140d61519b565b604051908082528060200260200182016040528015611436578160200160208202803683370190505b509550866001600160401b038111156114515761145161519b565b60405190808252806020026020018201604052801561147a578160200160208202803683370190505b509450866001600160401b038111156114955761149561519b565b6040519080825280602002602001820160405280156114be578160200160208202803683370190505b509350866001600160401b038111156114d9576114d961519b565b604051908082528060200260200182016040528015611502578160200160208202803683370190505b50925060005b8781101561167a57600561151c828b615b1f565b8154811061152c5761152c6158e4565b9060005260206000200160009054906101000a90046001600160a01b031687828151811061155c5761155c6158e4565b60200260200101906001600160a01b031690816001600160a01b0316815250506115ad878281518110611591576115916158e4565b602002602001015160008c85613920909392919063ffffffff16565b8682815181106115bf576115bf6158e4565b6020026020010181815250506115fc8782815181106115e0576115e06158e4565b602002602001015160018c85613920909392919063ffffffff16565b85828151811061160e5761160e6158e4565b60200260200101818152505061164b87828151811061162f5761162f6158e4565b602002602001015160028c85613920909392919063ffffffff16565b84828151811061165d5761165d6158e4565b602090810291909101015280611672816159e7565b915050611508565b5050945094509450945094565b600080821161170c57600060019054906101000a90046001600160a01b03166001600160a01b031663900cf0cf6040518163ffffffff1660e01b8152600401602060405180830381865afa1580156116e3573d6000803e3d6000fd5b505050506040513d601f19601f820116820180604052508101906117079190615ac3565b61170e565b815b6001600160a01b038416600090815260046020526040902090925061173390836139df565b9392505050565b600080600183600060019054906101000a90046001600160a01b03166001600160a01b031663900cf0cf6040518163ffffffff1660e01b8152600401602060405180830381865afa158015611793573d6000803e3d6000fd5b505050506040513d601f19601f820116820180604052508101906117b79190615ac3565b6117c19190615b37565b6117cb9190615b37565b845190915060005b848110156118f7576117e6600184615b1f565b6000805460405163fcbb371b60e01b81526004810184905292955090916101009091046001600160a01b03169063fcbb371b9060240161012060405180830381865afa15801561183a573d6000803e3d6000fd5b505050506040513d601f19601f8201168201806040525081019061185e9190615a48565b905060005b838110156118e25760006118bf8387600460008d8781518110611888576118886158e4565b60200260200101516001600160a01b03166001600160a01b031681526020019081526020016000206139f29092919063ffffffff16565b5090506118cc8188615b1f565b96505080806118da906159e7565b915050611863565b505080806118ef906159e7565b9150506117d3565b50505092915050565b6001600160a01b0382811660009081526004602052604090208054849216331480159061193a575060018101546001600160a01b03163314155b1561195857604051630101292160e31b815260040160405180910390fd5b6001600160a01b03808516600090815260046020526040902054859116611992576040516372898ae960e11b815260040160405180910390fd5b600060019054906101000a90046001600160a01b03166001600160a01b031663d4a536866040518163ffffffff1660e01b8152600401602060405180830381865afa1580156119e5573d6000803e3d6000fd5b505050506040513d601f19601f82011682018060405250810190611a099190615af1565b15611a2757604051631e59ccd960e01b815260040160405180910390fd5b611ac0600060019054906101000a90046001600160a01b03166001600160a01b031663900cf0cf6040518163ffffffff1660e01b8152600401602060405180830381865afa158015611a7d573d6000803e3d6000fd5b505050506040513d601f19601f82011682018060405250810190611aa19190615ac3565b6001600160a01b03871660009081526004602052604090209086613b61565b846001600160a01b03167f0ad9bf1b8c026a174a2f30954417002a6ea00c9b08c1b8846c7951c687be809585604051610d0a9190615b0c565b6000808211611b7e57600060019054906101000a90046001600160a01b03166001600160a01b031663900cf0cf6040518163ffffffff1660e01b8152600401602060405180830381865afa158015611b55573d6000803e3d6000fd5b505050506040513d601f19601f82011682018060405250810190611b799190615ac3565b611b80565b815b91506111706002600384613b6e565b6001600160a01b0384166000908152600460205260408120606091829186611c2d57600060019054906101000a90046001600160a01b03166001600160a01b031663900cf0cf6040518163ffffffff1660e01b8152600401602060405180830381865afa158015611c04573d6000803e3d6000fd5b505050506040513d601f19601f82011682018060405250810190611c289190615ac3565b611c2f565b865b9650611c43868683600701805490506138e8565b9095509150846001600160401b03811115611c6057611c6061519b565b604051908082528060200260200182016040528015611c89578160200160208202803683370190505b509350846001600160401b03811115611ca457611ca461519b565b604051908082528060200260200182016040528015611ccd578160200160208202803683370190505b50925060005b85811015611de0576000600781848201611ced858c615b1f565b81548110611cfd57611cfd6158e4565b60009182526020808320909101546001600160a01b03908116845290830193909352604090910190208054885191935090911690879084908110611d4357611d436158e4565b6001600160a01b0392831660209182029290920101528354611d6a9183911660028c613920565b8354611d839083906001600160a01b031660018d613920565b8454611d9c9084906001600160a01b031660008e613920565b611da69190615b1f565b611db09190615b1f565b858381518110611dc257611dc26158e4565b60209081029190910101525080611dd8816159e7565b915050611cd3565b50509450945094915050565b334114611e0c57604051631cf4735960e01b815260040160405180910390fd5b60005460ff1615611e2f5760405162dc149f60e41b815260040160405180910390fd5b6000805460016001600160a81b03199091166101006001600160a01b039586160217811790915580546001600160a01b03191691909216179055565b6001600160a01b03821660009081526007602052604081206006018054829182918291829187908110611ea057611ea06158e4565b6000918252602090912060408051606081019091526003909202018054829060ff166002811115611ed357611ed3615538565b6002811115611ee457611ee4615538565b81526020016001820154815260200160028201548152505090508060000151816020015182604001518360400151600014158015611f26575083604001514210155b929a91995097509095509350505050565b336000818152600760205260409020546001600160a01b0316611f6d5760405163cf83d93d60e01b815260040160405180910390fd5b336000908152600760205260408120600601805484908110611f9157611f916158e4565b9060005260206000209060030201905060008160020154905080421015611fcb576040516303cb96db60e21b815260040160405180910390fd5b80611fe957604051630c8d9eab60e31b815260040160405180910390fd5b6000600283015560405184815233907fbf5f92dc2b945251eadf78c2ca629ae64053d979bfbc43a7b17a463707906bf99060200160405180910390a28154600183015461203b9160ff16903390613c87565b50505050565b6005818154811061205157600080fd5b6000918252602090912001546001600160a01b0316905081565b6001600160a01b03818116600090815260066020526040902054339116156120a65760405163055ee1f160e31b815260040160405180910390fd5b6001600160a01b03811660009081526004602052604090206120c89083613da6565b60058054600181019091557f036b6384b5eca791c62761152d0c79bb0604c104a5fb6f4eb0703f3154bb3db00180546001600160a01b038381166001600160a01b03199283168117909355841660009081526006602090815260409182902080549093168417909255519182527fd5828184f48f65962d10eac907318df85953d4e3542a0f09b5932ee3fe398bdd910160405180910390a15050565b600954604051632d73a02f60e01b815260048101859052602481018490526044810183905260609182918291829182916000916001600160a01b0390911690632d73a02f90606401600060405180830381865afa1580156121c9573d6000803e3d6000fd5b505050506040513d6000823e601f3d908101601f191682016040526121f19190810190615d51565b9091929394509091929350809650819750829850839950849a50859b5050505050505093975093979195509350565b6001600160a01b0380841660009081526004602052604090205484911661225a576040516372898ae960e11b815260040160405180910390fd5b600060019054906101000a90046001600160a01b03166001600160a01b031663d4a536866040518163ffffffff1660e01b8152600401602060405180830381865afa1580156122ad573d6000803e3d6000fd5b505050506040513d601f19601f820116820180604052508101906122d19190615af1565b156122ef57604051631e59ccd960e01b815260040160405180910390fd5b8161230d57604051637bc90c0560e11b815260040160405180910390fd5b612318833384613de8565b6123a63385600060019054906101000a90046001600160a01b03166001600160a01b031663900cf0cf6040518163ffffffff1660e01b8152600401602060405180830381865afa158015612370573d6000803e3d6000fd5b505050506040513d601f19601f820116820180604052508101906123949190615ac3565b61239f906001615b1f565b868661362d565b836001600160a01b0316336001600160a01b03167f8fc656e319452025372383dc27d933046d412b8253de50a10739eeaa59862be68585604051610f17929190615e75565b6001600160a01b0380821660009081526007602052604081208154919283928392916124209183916101009091041684613e89565b60005490945061244190829061010090046001600160a01b03166001613e89565b60005490935061246290829061010090046001600160a01b03166002613e89565b93959294505050565b6040513481527f1de49774d094a85fc1bbbd16e8d09a865fb848218f41e2da4369f528c42ee42e9060200160405180910390a1565b6001600160a01b0380831660008181526006602090815260408083205485168352600490915281206001810154919390929116146124e2576000915050611170565b6000831161256657600060019054906101000a90046001600160a01b03166001600160a01b031663900cf0cf6040518163ffffffff1660e01b8152600401602060405180830381865afa15801561253d573d6000803e3d6000fd5b505050506040513d601f19601f820116820180604052508101906125619190615ac3565b612568565b825b925061257481846139df565b949350505050565b336000818152600460205260409020546001600160a01b03166125b2576040516372898ae960e11b815260040160405180910390fd5b6001600160a01b03828116600090815260066020526040902054339116156125ed5760405163055ee1f160e31b815260040160405180910390fd5b6001600160a01b038082166000908152600460205260409020600181015490911661261882866140af565b6001600160a01b0385811660008181526006602090815260409182902080546001600160a01b031916888616908117909155825194861685529084019290925290917f758820d0b14a01c1fa60b8d2bbef25ed1b6a5af4802e5dec3f08679255ba8bf39101610d0a565b6060600061269684846008805490506138e8565b9093509050826001600160401b038111156126b3576126b361519b565b6040519080825280602002602001820160405280156126dc578160200160208202803683370190505b50915060005b838110156112645760086126f68287615b1f565b81548110612706576127066158e4565b9060005260206000200160009054906101000a90046001600160a01b0316838281518110612736576127366158e4565b6001600160a01b039092166020928302919091019091015280612758816159e7565b9150506126e2565b336000818152600460205260409020546001600160a01b0316612796576040516372898ae960e11b815260040160405180910390fd5b600080543382526004602052604082206127be9161010090046001600160a01b03168561360d565b60405181815290915033907f882d5671e5b36af50883197c33d48ba56ce337589958e871ba82fb0a54adf3e89060200160405180910390a2801561203b5761203b60003383613c87565b6001600160a01b03808316600090815260046020526040902054839116612842576040516372898ae960e11b815260040160405180910390fd5b336000818152600760205260409020546001600160a01b03166128785760405163cf83d93d60e01b815260040160405180910390fd5b600060019054906101000a90046001600160a01b03166001600160a01b031663d4a536866040518163ffffffff1660e01b8152600401602060405180830381865afa1580156128cb573d6000803e3d6000fd5b505050506040513d601f19601f820116820180604052508101906128ef9190615af1565b1561290d57604051631e59ccd960e01b815260040160405180910390fd5b600080546001600160a01b03868116835260046020908152604080852033865260079092528420612948939092610100909104169087614129565b90508061296857604051637bc90c0560e11b815260040160405180910390fd5b6129c03386600060019054906101000a90046001600160a01b03166001600160a01b031663900cf0cf6040518163ffffffff1660e01b8152600401602060405180830381865afa158015610ebb573d6000803e3d6000fd5b6040518181526001600160a01b0386169033907fddd8e3ffe5c76cd1a7cca4b98662cb0a4e3da53ee24a873da632d28ba10438369060200160405180910390a35050505050565b6001600160a01b038316600090815260076020526040812060068101546060928392839283929190612a3c90899089906138e8565b9097509150866001600160401b03811115612a5957612a5961519b565b604051908082528060200260200182016040528015612a82578160200160208202803683370190505b509550866001600160401b03811115612a9d57612a9d61519b565b604051908082528060200260200182016040528015612ac6578160200160208202803683370190505b509450866001600160401b03811115612ae157612ae161519b565b604051908082528060200260200182016040528015612b0a578160200160208202803683370190505b509350866001600160401b03811115612b2557612b2561519b565b604051908082528060200260200182016040528015612b4e578160200160208202803683370190505b50925060005b87811015612cb257600060068301612b6c838c615b1f565b81548110612b7c57612b7c6158e4565b6000918252602090912060408051606081019091526003909202018054829060ff166002811115612baf57612baf615538565b6002811115612bc057612bc0615538565b81526020016001820154815260200160028201548152505090508060000151888381518110612bf157612bf16158e4565b60200260200101906002811115612c0a57612c0a615538565b90816002811115612c1d57612c1d615538565b815250508060200151878381518110612c3857612c386158e4565b6020026020010181815250508060400151868381518110612c5b57612c5b6158e4565b6020908102919091010152604081015115801590612c7d575080604001514210155b858381518110612c8f57612c8f6158e4565b911515602092830291909101909101525080612caa816159e7565b915050612b54565b5050939792965093509350565b600080808080606086612d4657600060019054906101000a90046001600160a01b03166001600160a01b031663900cf0cf6040518163ffffffff1660e01b8152600401602060405180830381865afa158015612d1f573d6000803e3d6000fd5b505050506040513d601f19601f82011682018060405250810190612d439190615ac3565b96505b6001600160a01b03888116600090815260046020908152604080832060018101548c855260028201909352922054921697509060ff1660008981526003830160205260409020549015965060ff169450612da081896139df565b925080600b018054612db1906158fa565b80601f0160208091040260200160405190810160405280929190818152602001828054612ddd906158fa565b8015612e2a5780601f10612dff57610100808354040283529160200191612e2a565b820191906000526020600020905b815481529060010190602001808311612e0d57829003601f168201915b50505050509150858015612e3c575084155b8015612ebd575060005460405163fcbb371b60e01b8152600481018a90526101009091046001600160a01b03169063fcbb371b9060240161012060405180830381865afa158015612e91573d6000803e3d6000fd5b505050506040513d601f19601f82011682018060405250810190612eb59190615a48565b60c001518310155b9350509295509295509295565b600080546001600160a01b038481168352600460209081526040808520888416865260079092528420612f07939092610100909104169085614162565b50949350505050565b604051634ee5a1b960e01b815260040160405180910390fd5b6001600160a01b03808316600090815260046020526040902054839116612f63576040516372898ae960e11b815260040160405180910390fd5b336000818152600760205260409020546001600160a01b0316612f995760405163cf83d93d60e01b815260040160405180910390fd5b600080546001600160a01b03868116835260046020908152604080852033865260079092528420612fd4939092610100909104169087614129565b604080516001600160a01b03881681526020810183905291925033917f2ef606d064225d24c1514dc94907c134faee1237445c2f63f410cce0852b2054910160405180910390a2801561302d5761302d60003383613c87565b505050505050565b6008818154811061205157600080fd5b336000818152600760205260409020546001600160a01b031661307b5760405163cf83d93d60e01b815260040160405180910390fd5b60008054338252600760205260409091206130a39161010090046001600160a01b0316614370565b5050565b6004602052600090815260409020805460018201546006830154600b840180546001600160a01b0394851695949093169391926130e3906158fa565b80601f016020809104026020016040519081016040528092919081815260200182805461310f906158fa565b801561315c5780601f106131315761010080835404028352916020019161315c565b820191906000526020600020905b81548152906001019060200180831161313f57829003601f168201915b5050505050905084565b6001600160a01b038084166000908152600460205260409020548491166131a0576040516372898ae960e11b815260040160405180910390fd5b336000818152600760205260409020546001600160a01b03166131d65760405163cf83d93d60e01b815260040160405180910390fd5b600060019054906101000a90046001600160a01b03166001600160a01b031663d4a536866040518163ffffffff1660e01b8152600401602060405180830381865afa158015613229573d6000803e3d6000fd5b505050506040513d601f19601f8201168201806040525081019061324d9190615af1565b1561326b57604051631e59ccd960e01b815260040160405180910390fd5b33600090815260076020908152604080832083546001600160a01b038a811686526004909452919093206132a9928492610100900416908888614394565b9350836132c957604051637bc90c0560e11b815260040160405180910390fd5b8060060160405180606001604052808760028111156132ea576132ea615538565b81526020810187905260400161330342620d2f00615b1f565b9052815460018181018455600093845260209093208251600390920201805492939092839160ff199091169083600281111561334157613341615538565b0217905550602082015181600101556040820151816002015550506133ed6003600060019054906101000a90046001600160a01b03166001600160a01b031663900cf0cf6040518163ffffffff1660e01b8152600401602060405180830381865afa1580156133b4573d6000803e3d6000fd5b505050506040513d601f19601f820116820180604052508101906133d89190615ac3565b6133e3906001615b1f565b60029190876144ca565b50600954604051635692619d60e11b81526001600160a01b0388811660048301529091169063ad24c33a90602401600060405180830381600087803b15801561343557600080fd5b505af1158015613449573d6000803e3d6000fd5b50505060068201546001600160a01b038816915033907fb649014faa7a0e23357e091fb8a67a128c33dc9480f846f7e41cb3a6c9d806109061348d90600190615b37565b60405190815260200160405180910390a3505050505050565b603081146134c757604051637477579960e11b815260040160405180910390fd5b6134d5602060008385615e90565b6134de91615eba565b15801561350257506134f4603060208385615e90565b6134fd91615ed8565b60801c155b1561352057604051634ee9493360e11b815260040160405180910390fd5b61203b600b84018383614fdb565b600082815260098501602052604081205461355757600083815260098601602052604090208290555b6000838152600a86016020526040812054613573906001615b1f565b6000858152600a88016020526040902081905560e086015190915081108015906135bf57506003860160006135a9866001615b1f565b815260208101919091526040016000205460ff16155b15612f07576101008501516135d49085615b1f565b91505b81841015612f0757836135e9816159e7565b60008181526003890160205260409020805460ff1916600117905594506135d79050565b600080600061361d868686613754565b6006880155925050509392505050565b6001600160a01b03808616600090815260076020526040902080549091166136a65780546001600160a01b0387166001600160a01b031991821681178355600880546001810182556000919091527ff3f7a9fe364faab93b216da50a3214154f22a0a2b415b23a84c8169e8b636ee30180549092161790555b6001600160a01b03851660009081526004602052604090206136cd908290869086866145a5565b6136db60026003868561466d565b600954604051635692619d60e11b81526001600160a01b0387811660048301529091169063ad24c33a90602401600060405180830381600087803b15801561372257600080fd5b505af1158015613736573d6000803e3d6000fd5b50505050505050505050565b61374f8383836000614753565b505050565b6000808460060154905060006001856001600160a01b031663900cf0cf6040518163ffffffff1660e01b8152600401602060405180830381865afa1580156137a0573d6000803e3d6000fd5b505050506040513d601f19601f820116820180604052508101906137c49190615ac3565b6137ce9190615b37565b90508315806137e55750806137e38386615b1f565b115b156137f7576137f48282615b37565b93505b60005b848110156138de5761380d600184615b1f565b60405163fcbb371b60e01b8152600481018290529093506000906001600160a01b0388169063fcbb371b9060240161012060405180830381865afa158015613859573d6000803e3d6000fd5b505050506040513d601f19601f8201168201806040525081019061387d9190615a48565b9050600061388c8983876139f2565b5090508061389b5750506138cc565b60a08201516138ab5750506138cc565b6138bd818360a00151606460196147d9565b6138c79087615b1f565b955050505b806138d6816159e7565b9150506137fa565b5050935093915050565b600080826138f68587615b1f565b10613908576139058584615b37565b93505b836139138187615b1f565b915091505b935093915050565b60006139d685600201600085600281111561393d5761393d615538565b600281111561394e5761394e615538565b81526020019081526020016000206000866001600160a01b03166001600160a01b031681526020019081526020016000208387600101600087600281111561399857613998615538565b60028111156139a9576139a9615538565b8152602080820192909252604090810160009081206001600160a01b038b16825290925290209190613b6e565b95945050505050565b6000611733600484016005850184613b6e565b6000818152600284016020526040812054819060ff1680613a235750600083815260038601602052604090205460ff165b15613a3357506000905080613918565b613a3d85846139df565b905060498310613a7d578360c00151811015613a5c5760009150613918565b62989680613a6c82610a34615f11565b613a769190615f30565b9150613b16565b80613a8d57506000905080613918565b613a996019600a61602e565b613aaa856080015160646019614805565b613ab49083615f11565b613abe9190615f30565b915081613ace5760009150613918565b613af184606001518560400151613ae59190615f11565b6301e133806019614805565b613afb9083615f11565b9150613b096019600a61602e565b613b139083615f30565b91505b6000838152600a860160205260409020548015613b58576000848152600987016020526040902054613b5484613b4c8484615b37565b8360196147d9565b9350505b50935093915050565b61374f8383836001614753565b8254600090801580613b9c57508285600081548110613b8f57613b8f6158e4565b9060005260206000200154115b15613bab576000915050611733565b8285613bb8600184615b37565b81548110613bc857613bc86158e4565b906000526020600020015411613c075783613be4600183615b37565b81548110613bf457613bf46158e4565b9060005260206000200154915050611733565b600181118015613c3d57508285613c1f600284615b37565b81548110613c2f57613c2f6158e4565b906000526020600020015411155b15613c4e5783613be4600283615b37565b6000613c5d8685600085614841565b9050848181548110613c7157613c716158e4565b9060005260206000200154925050509392505050565b600080846002811115613c9c57613c9c615538565b1415613cfb576040516001600160a01b038416908390600081818185875af1925050503d8060008114613ceb576040519150601f19603f3d011682016040523d82523d6000602084013e613cf0565b606091505b505080915050613d7d565b613d04846148e9565b60405163a9059cbb60e01b81526001600160a01b03858116600483015260248201859052919091169063a9059cbb906044015b6020604051808303816000875af1158015613d56573d6000803e3d6000fd5b505050506040513d601f19601f82011682018060405250810190613d7a9190615af1565b90505b8061203b5783604051630db5347560e11b8152600401613d9d919061603a565b60405180910390fd5b81546001600160a01b031615613dce57604051621d934160e11b815260040160405180910390fd5b81546001600160a01b031916331782556130a382826140af565b6000836002811115613dfc57613dfc615538565b1415613e225780341461374f57604051630fe5b06560e11b815260040160405180910390fd5b3415613e415760405163a745ac8560e01b815260040160405180910390fd5b6000613e4c846148e9565b6040516323b872dd60e01b81526001600160a01b0385811660048301523060248301526044820185905291909116906323b872dd90606401613d37565b600080846003016000846002811115613ea457613ea4615538565b6002811115613eb557613eb5615538565b8152602081019190915260400160002054905080613ed7576000915050611733565b6000846001600160a01b031663900cf0cf6040518163ffffffff1660e01b8152600401602060405180830381865afa158015613f17573d6000803e3d6000fd5b505050506040513d601f19601f82011682018060405250810190613f3b9190615ac3565b90506000613f4a600184615b37565b9050600081118015613fad575081876003016000876002811115613f7057613f70615538565b6002811115613f8157613f81615538565b81526020019081526020016000208281548110613fa057613fa06158e4565b9060005260206000200154115b15613fc05780613fbc81616048565b9150505b81876003016000876002811115613fd957613fd9615538565b6002811115613fea57613fea615538565b81526020019081526020016000208281548110614009576140096158e4565b906000526020600020015411156140265760009350505050611733565b6000805b8281116140a35788600401600088600281111561404957614049615538565b600281111561405a5761405a615538565b81526020019081526020016000208181548110614079576140796158e4565b90600052602060002001548261408f9190615b1f565b91508061409b816159e7565b91505061402a565b50979650505050505050565b6001600160a01b0381166140d657604051637138356f60e01b815260040160405180910390fd5b81546001600160a01b03828116911614156141045760405163e037058f60e01b815260040160405180910390fd5b60019190910180546001600160a01b0319166001600160a01b03909216919091179055565b600080600061413a87878787614162565b86546001600160a01b0316600090815260058a01602052604090205592505050949350505050565b81546001600160a01b039081166000908152600586016020908152604080832054815163900cf0cf60e01b81529151939490938593600193928a169263900cf0cf92600480830193928290030181865afa1580156141c4573d6000803e3d6000fd5b505050506040513d601f19601f820116820180604052508101906141e89190615ac3565b6141f29190615b37565b90508315806142095750806142078386615b1f565b115b1561421b576142188282615b37565b93505b60005b8481101561436557614231600184615b1f565b8654909350600090614250908a906001600160a01b0316600287613920565b8754614269908b906001600160a01b0316600188613920565b8854614282908c906001600160a01b0316600089613920565b61428c9190615b1f565b6142969190615b1f565b9050806142a35750614353565b6000806143218a6001600160a01b031663fcbb371b886040518263ffffffff1660e01b81526004016142d791815260200190565b61012060405180830381865afa1580156142f5573d6000803e3d6000fd5b505050506040513d601f19601f820116820180604052508101906143199190615a48565b8a9088614954565b91509150816000141561433657505050614353565b61434382848360196147d9565b61434d9088615b1f565b96505050505b8061435d816159e7565b91505061421e565b505094509492505050565b61437c828260016149a5565b614388828260026149a5565b6130a3828260006149a5565b60006144b08660020160008560028111156143b1576143b1615538565b60028111156143c2576143c2615538565b81526020808201929092526040908101600090812088546001600160a01b03908116835290845290829020825163900cf0cf60e01b815292519093918a169263900cf0cf9260048083019391928290030181865afa158015614428573d6000803e3d6000fd5b505050506040513d601f19601f8201168201806040525081019061444c9190615ac3565b614457906001615b1f565b8489600101600088600281111561447057614470615538565b600281111561448157614481615538565b8152602080820192909252604090810160009081208b546001600160a01b0316825290925290209291906144ca565b9150816144bf575060006139d6565b612f07848684614ccb565b83546000908015806145015750856144e3600183615b37565b815481106144f3576144f36158e4565b906000526020600020015484105b1561451f57604051630eae4c9760e01b815260040160405180910390fd5b600061452c878787614d4b565b90506000868281548110614542576145426158e4565b906000526020600020015490508085111561455d578061455f565b845b94508415614599578487838154811061457a5761457a6158e4565b9060005260206000200160008282546145939190615b37565b90915550505b50929695505050505050565b6146548560020160008460028111156145c0576145c0615538565b60028111156145d1576145d1615538565b81526020808201929092526040908101600090812087546001600160a01b031682529092528120908690849060018a019087600281111561461457614614615538565b600281111561462557614625615538565b8152602080820192909252604090810160009081208a546001600160a01b03168252909252902092919061466d565b8454610d1390849086906001600160a01b031684614f5b565b83546001811180156146a4575084614686600183615b37565b81548110614696576146966158e4565b906000526020600020015483105b80156146d55750846146b7600283615b37565b815481106146c7576146c76158e4565b906000526020600020015483105b156146f357604051630eae4c9760e01b815260040160405180910390fd5b6000614700868686614d4b565b8654925090505b8181101561302d5782858281548110614722576147226158e4565b90600052602060002001600082825461473b9190615b1f565b9091555081905061474b816159e7565b915050614707565b815160005b8181101561302d576000848281518110614774576147746158e4565b6020026020010151905085811180156147a45750600081815260028801602052604090205460ff16151584151514155b156147c65760008181526002880160205260409020805460ff19168515151790555b50806147d1816159e7565b915050614758565b60006147e682600a61602e565b6147f1858585614805565b6147fb9087615f11565b6139d69190615f30565b600080614813836001615b1f565b61481e90600a61602e565b6148289086615f11565b9050600a6148368583615f30565b6147fb906005615b1f565b60008183141561485d57614856600183615b37565b9050612574565b6000600261486b8486615b1f565b6148759190615f30565b90508486828154811061488a5761488a6158e4565b906000526020600020015411156148af576148a786868684614841565b915050612574565b848682815481106148c2576148c26158e4565b906000526020600020015410156139d6576148a786866148e3846001615b1f565b86614841565b600060018260028111156148ff576148ff615538565b141561491357506001602960991b01919050565b600282600281111561492757614927615538565b141561493b57506002602960991b01919050565b604051638698bf3760e01b815260040160405180910390fd5b6000806149628585856139f2565b9092509050816149755760009150613918565b60a08401511561391857614991828560a00151606460196147d9565b61499b9083615b37565b9150935093915050565b60006149b2848484613e89565b9050806149bf5750505050565b60008460030160008460028111156149d9576149d9615538565b60028111156149ea576149ea615538565b8152602001908152602001600020805490509050836001600160a01b031663900cf0cf6040518163ffffffff1660e01b8152600401602060405180830381865afa158015614a3c573d6000803e3d6000fd5b505050506040513d601f19601f82011682018060405250810190614a609190615ac3565b856003016000856002811115614a7857614a78615538565b6002811115614a8957614a89615538565b8152602001908152602001600020600183614aa49190615b37565b81548110614ab457614ab46158e4565b906000526020600020015411614b4f57846003016000846002811115614adc57614adc615538565b6002811115614aed57614aed615538565b81526020019081526020016000206000614b07919061505f565b846004016000846002811115614b1f57614b1f615538565b6002811115614b3057614b30615538565b81526020019081526020016000206000614b4a919061505f565b614cb4565b6040518060200160405280866003016000866002811115614b7257614b72615538565b6002811115614b8357614b83615538565b8152602001908152602001600020600184614b9e9190615b37565b81548110614bae57614bae6158e4565b9060005260206000200154815250856003016000856002811115614bd457614bd4615538565b6002811115614be557614be5615538565b81526020810191909152604001600020614c00916001615080565b506040518060200160405280866004016000866002811115614c2457614c24615538565b6002811115614c3557614c35615538565b8152602001908152602001600020600184614c509190615b37565b81548110614c6057614c606158e4565b9060005260206000200154815250856004016000856002811115614c8657614c86615538565b6002811115614c9757614c97615538565b81526020810191909152604001600020614cb2916001615080565b505b8454610d139084906001600160a01b031684613c87565b61203b83600501836001600160a01b031663900cf0cf6040518163ffffffff1660e01b8152600401602060405180830381865afa158015614d10573d6000803e3d6000fd5b505050506040513d601f19601f82011682018060405250810190614d349190615ac3565b614d3f906001615b1f565b600486019190846144ca565b825460009080614d86575050825460018181018555600085815260208082209093018490558454918201855584815291822001819055611733565b6000614d93600183615b37565b90506000868281548110614da957614da96158e4565b9060005260206000200154905080851415614dc8575091506117339050565b80851115614e305786546001810188556000888152602090200185905585548690819084908110614dfb57614dfb6158e4565b6000918252602080832090910154835460018181018655948452919092200155614e26908390615b1f565b9350505050611733565b600082118015614e65575086614e47600184615b37565b81548110614e5757614e576158e4565b906000526020600020015485145b15614e7557614e26600183615b37565b86878381548110614e8857614e886158e4565b6000918252602080832090910154835460018101855593835291209091015585548690819084908110614ebd57614ebd6158e4565b6000918252602080832090910154835460018101855593835291209091015586548590889084908110614ef257614ef26158e4565b6000918252602090912001558115614f305785614f10600184615b37565b81548110614f2057614f206158e4565b9060005260206000200154614f33565b60005b868381548110614f4557614f456158e4565b6000918252602090912001555091506117339050565b6001600160a01b038216600090815260088501602052604090205460ff16614fc9576001600160a01b038216600081815260088601602090815260408220805460ff191660019081179091556007880180549182018155835291200180546001600160a01b03191690911790555b61203b6004850160058601858461466d565b828054614fe7906158fa565b90600052602060002090601f016020900481019282615009576000855561504f565b82601f106150225782800160ff1982351617855561504f565b8280016001018555821561504f579182015b8281111561504f578235825591602001919060010190615034565b5061505b9291506150bb565b5090565b508054600082559060005260206000209081019061507d91906150bb565b50565b82805482825590600052602060002090810192821561504f579160200282015b8281111561504f5782518255916020019190600101906150a0565b5b8082111561505b57600081556001016150bc565b600080602083850312156150e357600080fd5b82356001600160401b03808211156150fa57600080fd5b818501915085601f83011261510e57600080fd5b81358181111561511d57600080fd5b86602082850101111561512f57600080fd5b60209290920196919550909350505050565b6001600160a01b038116811461507d57600080fd5b6000806040838503121561516957600080fd5b823561517481615141565b946020939093013593505050565b60006020828403121561519457600080fd5b5035919050565b634e487b7160e01b600052604160045260246000fd5b60405161012081016001600160401b03811182821017156151d4576151d461519b565b60405290565b604051601f8201601f191681016001600160401b03811182821017156152025761520261519b565b604052919050565b60006001600160401b038211156152235761522361519b565b5060051b60200190565b6000806040838503121561524057600080fd5b823561524b81615141565b91506020838101356001600160401b0381111561526757600080fd5b8401601f8101861361527857600080fd5b803561528b6152868261520a565b6151da565b81815260059190911b820183019083810190888311156152aa57600080fd5b928401925b828410156152c8578335825292840192908401906152af565b80955050505050509250929050565b600080604083850312156152ea57600080fd5b50508035926020909101359150565b600081518084526020808501945080840160005b838110156153325781516001600160a01b03168752958201959082019060010161530d565b509495945050505050565b60408152600061535060408301856152f9565b90508260208301529392505050565b6000806000806080858703121561537557600080fd5b843561538081615141565b966020860135965060408601359560600135945092505050565b600081518084526020808501945080840160005b83811015615332578151875295820195908201906001016153ae565b60a0815260006153dd60a08301886152f9565b82810360208401526153ef818861539a565b90508281036040840152615403818761539a565b90508281036060840152615417818661539a565b9150508260808301529695505050505050565b6000806040838503121561543d57600080fd5b82356001600160401b0381111561545357600080fd5b8301601f8101851361546457600080fd5b803560206154746152868361520a565b82815260059290921b8301810191818101908884111561549357600080fd5b938201935b838510156154ba5784356154ab81615141565b82529382019390820190615498565b98969091013596505050505050565b6060815260006154dc60608301866152f9565b82810360208401526154ee818661539a565b915050826040830152949350505050565b6000806040838503121561551257600080fd5b823561551d81615141565b9150602083013561552d81615141565b809150509250929050565b634e487b7160e01b600052602160045260246000fd5b6003811061556c57634e487b7160e01b600052602160045260246000fd5b9052565b6080810161557e828761554e565b846020830152836040830152821515606083015295945050505050565b6000602082840312156155ad57600080fd5b813561173381615141565b6000806000606084860312156155cd57600080fd5b505081359360208301359350604090920135919050565b60005b838110156155ff5781810151838201526020016155e7565b8381111561203b5750506000910152565b600081518084526156288160208601602086016155e4565b601f01601f19169290920160200192915050565b600081518084526020808501945080840160005b83811015615332578151151587529582019590820190600101615650565b60c08152600061568160c08301896152f9565b602083820381850152615694828a6152f9565b915083820360408501526156a8828961539a565b915083820360608501528187518084528284019150828160051b850101838a0160005b838110156156f957601f198784030185526156e7838351615610565b948601949250908501906001016156cb565b5050868103608088015261570d818a61563c565b955050505050508260a0830152979650505050505050565b60008060006060848603121561573a57600080fd5b833561574581615141565b925060208401356003811061575957600080fd5b929592945050506040919091013590565b60008060006060848603121561577f57600080fd5b833561578a81615141565b95602085013595506040909401359392505050565b60a0808252865190820181905260009060209060c0840190828a01845b828110156157df576157cf84835161554e565b92840192908401906001016157bc565b505050838103828501526157f3818961539a565b9150508281036040840152615808818761539a565b90508281036060840152615417818661563c565b60018060a01b038716815285151560208201528415156040820152831515606082015282608082015260c060a0820152600061585b60c0830184615610565b98975050505050505050565b60008060006060848603121561587c57600080fd5b833561588781615141565b9250602084013561575981615141565b6001600160a01b03858116825284166020820152604081018390526080606082018190526000906158ca90830184615610565b9695505050505050565b8183823760009101908152919050565b634e487b7160e01b600052603260045260246000fd5b600181811c9082168061590e57607f821691505b6020821081141561592f57634e487b7160e01b600052602260045260246000fd5b50919050565b600080835481600182811c91508083168061595157607f831692505b602080841082141561597157634e487b7160e01b86526022600452602486fd5b8180156159855760018114615996576159c3565b60ff198616895284890196506159c3565b60008a81526020902060005b868110156159bb5781548b8201529085019083016159a2565b505084890196505b509498975050505050505050565b634e487b7160e01b600052601160045260246000fd5b60006000198214156159fb576159fb6159d1565b5060010190565b604081526000615a156040830186615610565b8281036020840152838152838560208301376000602085830101526020601f19601f860116820101915050949350505050565b60006101208284031215615a5b57600080fd5b615a636151b1565b825181526020830151602082015260408301516040820152606083015160608201526080830151608082015260a083015160a082015260c083015160c082015260e083015160e08201526101008084015181830152508091505092915050565b600060208284031215615ad557600080fd5b5051919050565b80518015158114615aec57600080fd5b919050565b600060208284031215615b0357600080fd5b61173382615adc565b602081526000611733602083018461539a565b60008219821115615b3257615b326159d1565b500190565b600082821015615b4957615b496159d1565b500390565b600082601f830112615b5f57600080fd5b81516020615b6f6152868361520a565b82815260059290921b84018101918181019086841115615b8e57600080fd5b8286015b84811015615bb2578051615ba581615141565b8352918301918301615b92565b509695505050505050565b600082601f830112615bce57600080fd5b81516020615bde6152868361520a565b82815260059290921b84018101918181019086841115615bfd57600080fd5b8286015b84811015615bb257615c1281615adc565b8352918301918301615c01565b600082601f830112615c3057600080fd5b81516020615c406152868361520a565b82815260059290921b84018101918181019086841115615c5f57600080fd5b8286015b84811015615bb25780518352918301918301615c63565b6000601f8381840112615c8c57600080fd5b82516020615c9c6152868361520a565b82815260059290921b85018101918181019087841115615cbb57600080fd5b8287015b848110156140a35780516001600160401b0380821115615cdf5760008081fd5b818a0191508a603f830112615cf45760008081fd5b85820151604082821115615d0a57615d0a61519b565b615d1b828b01601f191689016151da565b92508183528c81838601011115615d325760008081fd5b615d41828985018387016155e4565b5050845250918301918301615cbf565b600080600080600080600080610100898b031215615d6e57600080fd5b88516001600160401b0380821115615d8557600080fd5b615d918c838d01615b4e565b995060208b0151915080821115615da757600080fd5b615db38c838d01615b4e565b985060408b0151915080821115615dc957600080fd5b615dd58c838d01615bbd565b975060608b0151915080821115615deb57600080fd5b615df78c838d01615bbd565b965060808b0151915080821115615e0d57600080fd5b615e198c838d01615c1f565b955060a08b0151915080821115615e2f57600080fd5b615e3b8c838d01615c7a565b945060c08b0151915080821115615e5157600080fd5b50615e5e8b828c01615bbd565b92505060e089015190509295985092959890939650565b60408101615e83828561554e565b8260208301529392505050565b60008085851115615ea057600080fd5b83861115615ead57600080fd5b5050820193919092039150565b8035602083101561117057600019602084900360031b1b1692915050565b6fffffffffffffffffffffffffffffffff198135818116916010851015615f095780818660100360031b1b83161692505b505092915050565b6000816000190483118215151615615f2b57615f2b6159d1565b500290565b600082615f4d57634e487b7160e01b600052601260045260246000fd5b500490565b600181815b80851115611264578160001904821115615f7357615f736159d1565b80851615615f8057918102915b93841c9390800290615f57565b600082615f9c57506001611170565b81615fa957506000611170565b8160018114615fbf5760028114615fc957615fe5565b6001915050611170565b60ff841115615fda57615fda6159d1565b50506001821b611170565b5060208310610133831016604e8410600b8410161715616008575081810a611170565b6160128383615f52565b8060001904821115616026576160266159d1565b029392505050565b60006117338383615f8d565b60208101611170828461554e565b600081616057576160576159d1565b50600019019056fea264697066735822122090a31088898f9db89260da9138dff2dd907c98d276b3d41e803d60b3ae57481b64736f6c634300080c0033",
  "linkReferences": {},
  "deployedLinkReferences": {}
}