{
  "_format": "hh-sol-artifact-1",
  "contractName": "StakeManager",
  "sourceName": "contracts/StakeManager.sol",
  "abi": [
    {
      "inputs": [],
      "name": "AlreadyClaimed",
      "type": "error"
    },
    {
      "inputs": [],
      "name": "AlreadyInUse",
      "type": "error"
    },
    {
      "inputs": [],
      "name": "AlreadyInitialized",
      "type": "error"
    },
    {
      "inputs": [],
      "name": "AlreadyJoined",
      "type": "error"
    },
    {
      "inputs": [],
      "name": "AmountMismatched",
      "type": "error"
    },
    {
      "inputs": [],
      "name": "EmptyAddress",
      "type": "error"
    },
    {
      "inputs": [],
      "name": "EmptyBLS",
      "type": "error"
    },
    {
      "inputs": [],
      "name": "InvalidBLSLength",
      "type": "error"
    },
    {
      "inputs": [],
      "name": "Locked",
      "type": "error"
    },
    {
      "inputs": [],
      "name": "NoAmount",
      "type": "error"
    },
    {
      "inputs": [],
      "name": "NotZeroAmount",
      "type": "error"
    },
    {
      "inputs": [],
      "name": "ObsoletedMethod",
      "type": "error"
    },
    {
      "inputs": [],
      "name": "OnlyBlockProducer",
      "type": "error"
    },
    {
      "inputs": [],
      "name": "OnlyNotLastBlock",
      "type": "error"
    },
    {
      "inputs": [],
      "name": "PastEpoch",
      "type": "error"
    },
    {
      "inputs": [],
      "name": "SameAsOwner",
      "type": "error"
    },
    {
      "inputs": [],
      "name": "StakerDoesNotExist",
      "type": "error"
    },
    {
      "inputs": [
        {
          "internalType": "enum Token.Type",
          "name": "token",
          "type": "uint8"
        }
      ],
      "name": "TransferFailed",
      "type": "error"
    },
    {
      "inputs": [],
      "name": "UnauthorizedSender",
      "type": "error"
    },
    {
      "inputs": [],
      "name": "UnknownToken",
      "type": "error"
    },
    {
      "inputs": [],
      "name": "ValidatorDoesNotExist",
      "type": "error"
    },
    {
      "anonymous": false,
      "inputs": [
        {
          "indexed": false,
          "internalType": "uint256",
          "name": "amount",
          "type": "uint256"
        }
      ],
      "name": "AddedRewardBalance",
      "type": "event"
    },
    {
      "anonymous": false,
      "inputs": [
        {
          "indexed": true,
          "internalType": "address",
          "name": "validator",
          "type": "address"
        },
        {
          "indexed": false,
          "internalType": "bytes",
          "name": "oldBLSPublicKey",
          "type": "bytes"
        },
        {
          "indexed": false,
          "internalType": "bytes",
          "name": "newBLSPublicKey",
          "type": "bytes"
        }
      ],
      "name": "BLSPublicKeyUpdated",
      "type": "event"
    },
    {
      "anonymous": false,
      "inputs": [
        {
          "indexed": true,
          "internalType": "address",
          "name": "validator",
          "type": "address"
        },
        {
          "indexed": false,
          "internalType": "uint256",
          "name": "amount",
          "type": "uint256"
        }
      ],
      "name": "ClaimedCommissions",
      "type": "event"
    },
    {
      "anonymous": false,
      "inputs": [
        {
          "indexed": true,
          "internalType": "address",
          "name": "staker",
          "type": "address"
        },
        {
          "indexed": false,
          "internalType": "uint256",
          "name": "lockedUnstake",
          "type": "uint256"
        }
      ],
      "name": "ClaimedLockedUnstake",
      "type": "event"
    },
    {
      "anonymous": false,
      "inputs": [
        {
          "indexed": true,
          "internalType": "address",
          "name": "staker",
          "type": "address"
        },
        {
          "indexed": false,
          "internalType": "address",
          "name": "validator",
          "type": "address"
        },
        {
          "indexed": false,
          "internalType": "uint256",
          "name": "amount",
          "type": "uint256"
        }
      ],
      "name": "ClaimedRewards",
      "type": "event"
    },
    {
      "anonymous": false,
      "inputs": [
        {
          "indexed": true,
          "internalType": "address",
          "name": "validator",
          "type": "address"
        },
        {
          "indexed": false,
          "internalType": "address",
          "name": "oldOperator",
          "type": "address"
        },
        {
          "indexed": false,
          "internalType": "address",
          "name": "newOperator",
          "type": "address"
        }
      ],
      "name": "OperatorUpdated",
      "type": "event"
    },
    {
      "anonymous": false,
      "inputs": [
        {
          "indexed": true,
          "internalType": "address",
          "name": "staker",
          "type": "address"
        },
        {
          "indexed": true,
          "internalType": "address",
          "name": "validator",
          "type": "address"
        },
        {
          "indexed": false,
          "internalType": "uint256",
          "name": "amount",
          "type": "uint256"
        }
      ],
      "name": "ReStaked",
      "type": "event"
    },
    {
      "anonymous": false,
      "inputs": [
        {
          "indexed": true,
          "internalType": "address",
          "name": "staker",
          "type": "address"
        },
        {
          "indexed": true,
          "internalType": "address",
          "name": "validator",
          "type": "address"
        },
        {
          "indexed": false,
          "internalType": "enum Token.Type",
          "name": "token",
          "type": "uint8"
        },
        {
          "indexed": false,
          "internalType": "uint256",
          "name": "amount",
          "type": "uint256"
        }
      ],
      "name": "Staked",
      "type": "event"
    },
    {
      "anonymous": false,
      "inputs": [
        {
          "indexed": true,
          "internalType": "address",
          "name": "staker",
          "type": "address"
        },
        {
          "indexed": true,
          "internalType": "address",
          "name": "validator",
          "type": "address"
        },
        {
          "indexed": false,
          "internalType": "enum Token.Type",
          "name": "token",
          "type": "uint8"
        },
        {
          "indexed": false,
          "internalType": "uint256",
          "name": "amount",
          "type": "uint256"
        }
      ],
      "name": "Unstaked",
      "type": "event"
    },
    {
      "anonymous": false,
      "inputs": [
        {
          "indexed": true,
          "internalType": "address",
          "name": "staker",
          "type": "address"
        },
        {
          "indexed": true,
          "internalType": "address",
          "name": "validator",
          "type": "address"
        },
        {
          "indexed": false,
          "internalType": "uint256",
          "name": "lockedUnstake",
          "type": "uint256"
        }
      ],
      "name": "UnstakedV2",
      "type": "event"
    },
    {
      "anonymous": false,
      "inputs": [
        {
          "indexed": true,
          "internalType": "address",
          "name": "validator",
          "type": "address"
        },
        {
          "indexed": false,
          "internalType": "uint256[]",
          "name": "epochs",
          "type": "uint256[]"
        }
      ],
      "name": "ValidatorActivated",
      "type": "event"
    },
    {
      "anonymous": false,
      "inputs": [
        {
          "indexed": true,
          "internalType": "address",
          "name": "validator",
          "type": "address"
        },
        {
          "indexed": false,
          "internalType": "uint256[]",
          "name": "epochs",
          "type": "uint256[]"
        }
      ],
      "name": "ValidatorDeactivated",
      "type": "event"
    },
    {
      "anonymous": false,
      "inputs": [
        {
          "indexed": true,
          "internalType": "address",
          "name": "validator",
          "type": "address"
        },
        {
          "indexed": false,
          "internalType": "uint256",
          "name": "until",
          "type": "uint256"
        }
      ],
      "name": "ValidatorJailed",
      "type": "event"
    },
    {
      "anonymous": false,
      "inputs": [
        {
          "indexed": false,
          "internalType": "address",
          "name": "validator",
          "type": "address"
        }
      ],
      "name": "ValidatorJoined",
      "type": "event"
    },
    {
      "anonymous": false,
      "inputs": [
        {
          "indexed": true,
          "internalType": "address",
          "name": "validator",
          "type": "address"
        }
      ],
      "name": "ValidatorSlashed",
      "type": "event"
    },
    {
      "inputs": [
        {
          "internalType": "address",
          "name": "validator",
          "type": "address"
        },
        {
          "internalType": "uint256[]",
          "name": "epochs",
          "type": "uint256[]"
        }
      ],
      "name": "activateValidator",
      "outputs": [],
      "stateMutability": "nonpayable",
      "type": "function"
    },
    {
      "inputs": [],
      "name": "addRewardBalance",
      "outputs": [],
      "stateMutability": "payable",
      "type": "function"
    },
    {
      "inputs": [],
      "name": "allowlist",
      "outputs": [
        {
          "internalType": "contract IAllowlist",
          "name": "",
          "type": "address"
        }
      ],
      "stateMutability": "view",
      "type": "function"
    },
    {
      "inputs": [],
      "name": "candidateManager",
      "outputs": [
        {
          "internalType": "contract ICandidateValidatorManager",
          "name": "",
          "type": "address"
        }
      ],
      "stateMutability": "view",
      "type": "function"
    },
    {
      "inputs": [
        {
          "internalType": "address",
          "name": "validator",
          "type": "address"
        },
        {
          "internalType": "uint256",
          "name": "epochs",
          "type": "uint256"
        }
      ],
      "name": "claimCommissions",
      "outputs": [],
      "stateMutability": "nonpayable",
      "type": "function"
    },
    {
      "inputs": [
        {
          "internalType": "uint256",
          "name": "lockedUnstake",
          "type": "uint256"
        }
      ],
      "name": "claimLockedUnstake",
      "outputs": [],
      "stateMutability": "nonpayable",
      "type": "function"
    },
    {
      "inputs": [
        {
          "internalType": "address",
          "name": "staker",
          "type": "address"
        },
        {
          "internalType": "address",
          "name": "validator",
          "type": "address"
        },
        {
          "internalType": "uint256",
          "name": "epochs",
          "type": "uint256"
        }
      ],
      "name": "claimRewards",
      "outputs": [],
      "stateMutability": "nonpayable",
      "type": "function"
    },
    {
      "inputs": [
        {
          "internalType": "address",
          "name": "staker",
          "type": "address"
        }
      ],
      "name": "claimUnstakes",
      "outputs": [],
      "stateMutability": "nonpayable",
      "type": "function"
    },
    {
      "inputs": [
        {
          "internalType": "address",
          "name": "validator",
          "type": "address"
        },
        {
          "internalType": "uint256[]",
          "name": "epochs",
          "type": "uint256[]"
        }
      ],
      "name": "deactivateValidator",
      "outputs": [],
      "stateMutability": "nonpayable",
      "type": "function"
    },
    {
      "inputs": [],
      "name": "environment",
      "outputs": [
        {
          "internalType": "contract IEnvironment",
          "name": "",
          "type": "address"
        }
      ],
      "stateMutability": "view",
      "type": "function"
    },
    {
      "inputs": [
        {
          "internalType": "address",
          "name": "validator",
          "type": "address"
        },
        {
          "internalType": "uint256",
          "name": "epoch",
          "type": "uint256"
        }
      ],
      "name": "getBlockAndSlashes",
      "outputs": [
        {
          "internalType": "uint256",
          "name": "blocks",
          "type": "uint256"
        },
        {
          "internalType": "uint256",
          "name": "slashes",
          "type": "uint256"
        }
      ],
      "stateMutability": "view",
      "type": "function"
    },
    {
      "inputs": [
        {
          "internalType": "address",
          "name": "validator",
          "type": "address"
        },
        {
          "internalType": "uint256",
          "name": "epochs",
          "type": "uint256"
        }
      ],
      "name": "getCommissions",
      "outputs": [
        {
          "internalType": "uint256",
          "name": "commissions",
          "type": "uint256"
        }
      ],
      "stateMutability": "view",
      "type": "function"
    },
    {
      "inputs": [
        {
          "internalType": "address",
          "name": "staker",
          "type": "address"
        },
        {
          "internalType": "uint256",
          "name": "lockedUnstake",
          "type": "uint256"
        }
      ],
      "name": "getLockedUnstake",
      "outputs": [
        {
          "internalType": "enum Token.Type",
          "name": "token",
          "type": "uint8"
        },
        {
          "internalType": "uint256",
          "name": "amount",
          "type": "uint256"
        },
        {
          "internalType": "uint256",
          "name": "unlockTime",
          "type": "uint256"
        },
        {
          "internalType": "bool",
          "name": "claimable",
          "type": "bool"
        }
      ],
      "stateMutability": "view",
      "type": "function"
    },
    {
      "inputs": [
        {
          "internalType": "address",
          "name": "staker",
          "type": "address"
        }
      ],
      "name": "getLockedUnstakeCount",
      "outputs": [
        {
          "internalType": "uint256",
          "name": "count",
          "type": "uint256"
        }
      ],
      "stateMutability": "view",
      "type": "function"
    },
    {
      "inputs": [
        {
          "internalType": "address",
          "name": "staker",
          "type": "address"
        },
        {
          "internalType": "uint256",
          "name": "cursor",
          "type": "uint256"
        },
        {
          "internalType": "uint256",
          "name": "howMany",
          "type": "uint256"
        }
      ],
      "name": "getLockedUnstakes",
      "outputs": [
        {
          "internalType": "enum Token.Type[]",
          "name": "tokens",
          "type": "uint8[]"
        },
        {
          "internalType": "uint256[]",
          "name": "amounts",
          "type": "uint256[]"
        },
        {
          "internalType": "uint256[]",
          "name": "unlockTimes",
          "type": "uint256[]"
        },
        {
          "internalType": "bool[]",
          "name": "claimable",
          "type": "bool[]"
        },
        {
          "internalType": "uint256",
          "name": "newCursor",
          "type": "uint256"
        }
      ],
      "stateMutability": "view",
      "type": "function"
    },
    {
      "inputs": [
        {
          "internalType": "address",
          "name": "operator",
          "type": "address"
        },
        {
          "internalType": "uint256",
          "name": "epoch",
          "type": "uint256"
        }
      ],
      "name": "getOperatorStakes",
      "outputs": [
        {
          "internalType": "uint256",
          "name": "stakes",
          "type": "uint256"
        }
      ],
      "stateMutability": "view",
      "type": "function"
    },
    {
      "inputs": [
        {
          "internalType": "address",
          "name": "staker",
          "type": "address"
        },
        {
          "internalType": "address",
          "name": "validator",
          "type": "address"
        },
        {
          "internalType": "uint256",
          "name": "epochs",
          "type": "uint256"
        }
      ],
      "name": "getRewards",
      "outputs": [
        {
          "internalType": "uint256",
          "name": "rewards",
          "type": "uint256"
        }
      ],
      "stateMutability": "view",
      "type": "function"
    },
    {
      "inputs": [
        {
          "internalType": "address",
          "name": "staker",
          "type": "address"
        },
        {
          "internalType": "uint256",
          "name": "epoch",
          "type": "uint256"
        },
        {
          "internalType": "uint256",
          "name": "cursor",
          "type": "uint256"
        },
        {
          "internalType": "uint256",
          "name": "howMany",
          "type": "uint256"
        }
      ],
      "name": "getStakerStakes",
      "outputs": [
        {
          "internalType": "address[]",
          "name": "_validators",
          "type": "address[]"
        },
        {
          "internalType": "uint256[]",
          "name": "oasStakes",
          "type": "uint256[]"
        },
        {
          "internalType": "uint256[]",
          "name": "woasStakes",
          "type": "uint256[]"
        },
        {
          "internalType": "uint256[]",
          "name": "soasStakes",
          "type": "uint256[]"
        },
        {
          "internalType": "uint256",
          "name": "newCursor",
          "type": "uint256"
        }
      ],
      "stateMutability": "view",
      "type": "function"
    },
    {
      "inputs": [
        {
          "internalType": "uint256",
          "name": "cursor",
          "type": "uint256"
        },
        {
          "internalType": "uint256",
          "name": "howMany",
          "type": "uint256"
        }
      ],
      "name": "getStakers",
      "outputs": [
        {
          "internalType": "address[]",
          "name": "_stakers",
          "type": "address[]"
        },
        {
          "internalType": "uint256",
          "name": "newCursor",
          "type": "uint256"
        }
      ],
      "stateMutability": "view",
      "type": "function"
    },
    {
      "inputs": [
        {
          "internalType": "address[]",
          "name": "_validators",
          "type": "address[]"
        },
        {
          "internalType": "uint256",
          "name": "epochs",
          "type": "uint256"
        }
      ],
      "name": "getTotalRewards",
      "outputs": [
        {
          "internalType": "uint256",
          "name": "rewards",
          "type": "uint256"
        }
      ],
      "stateMutability": "view",
      "type": "function"
    },
    {
      "inputs": [
        {
          "internalType": "uint256",
          "name": "epoch",
          "type": "uint256"
        }
      ],
      "name": "getTotalStake",
      "outputs": [
        {
          "internalType": "uint256",
          "name": "amounts",
          "type": "uint256"
        }
      ],
      "stateMutability": "view",
      "type": "function"
    },
    {
      "inputs": [
        {
          "internalType": "address",
          "name": "staker",
          "type": "address"
        }
      ],
      "name": "getUnstakes",
      "outputs": [
        {
          "internalType": "uint256",
          "name": "oasUnstakes",
          "type": "uint256"
        },
        {
          "internalType": "uint256",
          "name": "woasUnstakes",
          "type": "uint256"
        },
        {
          "internalType": "uint256",
          "name": "soasUnstakes",
          "type": "uint256"
        }
      ],
      "stateMutability": "view",
      "type": "function"
    },
    {
      "inputs": [
        {
          "internalType": "address",
          "name": "validator",
          "type": "address"
        },
        {
          "internalType": "uint256",
          "name": "epoch",
          "type": "uint256"
        }
      ],
      "name": "getValidatorInfo",
      "outputs": [
        {
          "internalType": "address",
          "name": "operator",
          "type": "address"
        },
        {
          "internalType": "bool",
          "name": "active",
          "type": "bool"
        },
        {
          "internalType": "bool",
          "name": "jailed",
          "type": "bool"
        },
        {
          "internalType": "bool",
          "name": "candidate",
          "type": "bool"
        },
        {
          "internalType": "uint256",
          "name": "stakes",
          "type": "uint256"
        },
        {
          "internalType": "bytes",
          "name": "blsPublicKey",
          "type": "bytes"
        }
      ],
      "stateMutability": "view",
      "type": "function"
    },
    {
      "inputs": [
        {
          "internalType": "uint256",
          "name": "cursor",
          "type": "uint256"
        },
        {
          "internalType": "uint256",
          "name": "howMany",
          "type": "uint256"
        }
      ],
      "name": "getValidatorOwners",
      "outputs": [
        {
          "internalType": "address[]",
          "name": "owners",
          "type": "address[]"
        },
        {
          "internalType": "uint256",
          "name": "newCursor",
          "type": "uint256"
        }
      ],
      "stateMutability": "view",
      "type": "function"
    },
    {
      "inputs": [
        {
          "internalType": "address",
          "name": "validator",
          "type": "address"
        },
        {
          "internalType": "uint256",
          "name": "epoch",
          "type": "uint256"
        }
      ],
      "name": "getValidatorStakes",
      "outputs": [
        {
          "internalType": "uint256",
          "name": "stakes",
          "type": "uint256"
        }
      ],
      "stateMutability": "view",
      "type": "function"
    },
    {
      "inputs": [
        {
          "internalType": "address",
          "name": "validator",
          "type": "address"
        },
        {
          "internalType": "uint256",
          "name": "epoch",
          "type": "uint256"
        },
        {
          "internalType": "uint256",
          "name": "cursor",
          "type": "uint256"
        },
        {
          "internalType": "uint256",
          "name": "howMany",
          "type": "uint256"
        }
      ],
      "name": "getValidatorStakes",
      "outputs": [
        {
          "internalType": "address[]",
          "name": "_stakers",
          "type": "address[]"
        },
        {
          "internalType": "uint256[]",
          "name": "stakes",
          "type": "uint256[]"
        },
        {
          "internalType": "uint256",
          "name": "newCursor",
          "type": "uint256"
        }
      ],
      "stateMutability": "view",
      "type": "function"
    },
    {
      "inputs": [
        {
          "internalType": "uint256",
          "name": "epoch",
          "type": "uint256"
        },
        {
          "internalType": "uint256",
          "name": "cursor",
          "type": "uint256"
        },
        {
          "internalType": "uint256",
          "name": "howMany",
          "type": "uint256"
        }
      ],
      "name": "getValidators",
      "outputs": [
        {
          "internalType": "address[]",
          "name": "owners",
          "type": "address[]"
        },
        {
          "internalType": "address[]",
          "name": "operators",
          "type": "address[]"
        },
        {
          "internalType": "uint256[]",
          "name": "stakes",
          "type": "uint256[]"
        },
        {
          "internalType": "bytes[]",
          "name": "blsPublicKeys",
          "type": "bytes[]"
        },
        {
          "internalType": "bool[]",
          "name": "candidates",
          "type": "bool[]"
        },
        {
          "internalType": "uint256",
          "name": "newCursor",
          "type": "uint256"
        }
      ],
      "stateMutability": "view",
      "type": "function"
    },
    {
      "inputs": [
        {
          "internalType": "contract IEnvironment",
          "name": "_environment",
          "type": "address"
        },
        {
          "internalType": "contract IAllowlist",
          "name": "_allowlist",
          "type": "address"
        }
      ],
      "name": "initialize",
      "outputs": [],
      "stateMutability": "nonpayable",
      "type": "function"
    },
    {
      "inputs": [],
      "name": "initialized",
      "outputs": [
        {
          "internalType": "bool",
          "name": "",
          "type": "bool"
        }
      ],
      "stateMutability": "view",
      "type": "function"
    },
    {
      "inputs": [
        {
          "internalType": "address",
          "name": "operator",
          "type": "address"
        }
      ],
      "name": "joinValidator",
      "outputs": [],
      "stateMutability": "nonpayable",
      "type": "function"
    },
    {
      "inputs": [
        {
          "internalType": "address",
          "name": "",
          "type": "address"
        }
      ],
      "name": "operatorToOwner",
      "outputs": [
        {
          "internalType": "address",
          "name": "",
          "type": "address"
        }
      ],
      "stateMutability": "view",
      "type": "function"
    },
    {
      "inputs": [
        {
          "internalType": "uint256",
          "name": "epochs",
          "type": "uint256"
        }
      ],
      "name": "restakeCommissions",
      "outputs": [],
      "stateMutability": "nonpayable",
      "type": "function"
    },
    {
      "inputs": [
        {
          "internalType": "address",
          "name": "validator",
          "type": "address"
        },
        {
          "internalType": "uint256",
          "name": "epochs",
          "type": "uint256"
        }
      ],
      "name": "restakeRewards",
      "outputs": [],
      "stateMutability": "nonpayable",
      "type": "function"
    },
    {
      "inputs": [
        {
          "internalType": "address",
          "name": "operator",
          "type": "address"
        },
        {
          "internalType": "uint256",
          "name": "blocks",
          "type": "uint256"
        }
      ],
      "name": "slash",
      "outputs": [],
      "stateMutability": "nonpayable",
      "type": "function"
    },
    {
      "inputs": [
        {
          "internalType": "address",
          "name": "validator",
          "type": "address"
        },
        {
          "internalType": "enum Token.Type",
          "name": "token",
          "type": "uint8"
        },
        {
          "internalType": "uint256",
          "name": "amount",
          "type": "uint256"
        }
      ],
      "name": "stake",
      "outputs": [],
      "stateMutability": "payable",
      "type": "function"
    },
    {
      "inputs": [
        {
          "internalType": "uint256",
          "name": "",
          "type": "uint256"
        }
      ],
      "name": "stakeAmounts",
      "outputs": [
        {
          "internalType": "uint256",
          "name": "",
          "type": "uint256"
        }
      ],
      "stateMutability": "view",
      "type": "function"
    },
    {
      "inputs": [
        {
          "internalType": "uint256",
          "name": "",
          "type": "uint256"
        }
      ],
      "name": "stakeUpdates",
      "outputs": [
        {
          "internalType": "uint256",
          "name": "",
          "type": "uint256"
        }
      ],
      "stateMutability": "view",
      "type": "function"
    },
    {
      "inputs": [
        {
          "internalType": "uint256",
          "name": "",
          "type": "uint256"
        }
      ],
      "name": "stakerSigners",
      "outputs": [
        {
          "internalType": "address",
          "name": "",
          "type": "address"
        }
      ],
      "stateMutability": "view",
      "type": "function"
    },
    {
      "inputs": [
        {
          "internalType": "address",
          "name": "",
          "type": "address"
        }
      ],
      "name": "stakers",
      "outputs": [
        {
          "internalType": "address",
          "name": "signer",
          "type": "address"
        }
      ],
      "stateMutability": "view",
      "type": "function"
    },
    {
      "inputs": [
        {
          "internalType": "address",
          "name": "validator",
          "type": "address"
        },
        {
          "internalType": "enum Token.Type",
          "name": "token",
          "type": "uint8"
        },
        {
          "internalType": "uint256",
          "name": "amount",
          "type": "uint256"
        }
      ],
      "name": "unstake",
      "outputs": [],
      "stateMutability": "nonpayable",
      "type": "function"
    },
    {
      "inputs": [
        {
          "internalType": "address",
          "name": "validator",
          "type": "address"
        },
        {
          "internalType": "enum Token.Type",
          "name": "token",
          "type": "uint8"
        },
        {
          "internalType": "uint256",
          "name": "amount",
          "type": "uint256"
        }
      ],
      "name": "unstakeV2",
      "outputs": [],
      "stateMutability": "nonpayable",
      "type": "function"
    },
    {
      "inputs": [
        {
          "internalType": "bytes",
          "name": "blsPublicKey",
          "type": "bytes"
        }
      ],
      "name": "updateBLSPublicKey",
      "outputs": [],
      "stateMutability": "nonpayable",
      "type": "function"
    },
    {
      "inputs": [
        {
          "internalType": "address",
          "name": "operator",
          "type": "address"
        }
      ],
      "name": "updateOperator",
      "outputs": [],
      "stateMutability": "nonpayable",
      "type": "function"
    },
    {
      "inputs": [
        {
          "internalType": "uint256",
          "name": "",
          "type": "uint256"
        }
      ],
      "name": "validatorOwners",
      "outputs": [
        {
          "internalType": "address",
          "name": "",
          "type": "address"
        }
      ],
      "stateMutability": "view",
      "type": "function"
    },
    {
      "inputs": [
        {
          "internalType": "address",
          "name": "",
          "type": "address"
        }
      ],
      "name": "validators",
      "outputs": [
        {
          "internalType": "address",
          "name": "owner",
          "type": "address"
        },
        {
          "internalType": "address",
          "name": "operator",
          "type": "address"
        },
        {
          "internalType": "uint256",
          "name": "lastClaimCommission",
          "type": "uint256"
        },
        {
          "internalType": "bytes",
          "name": "blsPublicKey",
          "type": "bytes"
        }
      ],
      "stateMutability": "view",
      "type": "function"
    }
  ],
  "bytecode": "0x608060405234801561001057600080fd5b50615f1e80620000216000396000f3fe6080604052600436106102715760003560e01c8063724319911161014f578063cbc0fac6116100c1578063e1aca3411161007a578063e1aca34114610855578063f3621e4314610875578063f65a5ed214610895578063f8d6b1ab146108b5578063fa52c7d8146108d5578063ff3d3f601461090557600080fd5b8063cbc0fac614610759578063cf5c13db14610779578063d0051adf14610799578063d1f18ee1146107ca578063dbd61d87146107fc578063df93c8421461081c57600080fd5b80639043150b116101135780639043150b1461069b5780639168ae72146106a35780639c508219146106d9578063a6a41f44146106f9578063ac7475ed14610719578063ad71bd361461073957600080fd5b806372431991146105c057806374e2b63c146105f25780637b520aa8146106175780637befa74f1461064d578063883252341461066057600080fd5b80632b47da52116101e857806346dfce7b116101ac57806346dfce7b146104e1578063485cc955146105105780635c4fc4c5146105305780635d94ccf6146105605780635efc766e146105805780636b2b3369146105a057600080fd5b80632b47da52146104295780632ee462b31461046157806333f32d7814610481578063428e8562146104a157806345367f23146104c157600080fd5b8063190b92571161023a578063190b925714610327578063195afea1146103555780631c1b4f3a146103755780632168e8b41461039557806322226367146103c35780632b42ed8c146103f857600080fd5b8062c8ae891461027657806302fb4d85146102985780630ddda63c146102b8578063158ef93e146102d85780631903cf1614610307575b600080fd5b34801561028257600080fd5b50610296610291366004615005565b610925565b005b3480156102a457600080fd5b506102966102b336600461508b565b610a5e565b3480156102c457600080fd5b506102966102d33660046150b7565b610c64565b3480156102e457600080fd5b506000546102f29060ff1681565b60405190151581526020015b60405180910390f35b34801561031357600080fd5b50610296610322366004615162565b610e6f565b34801561033357600080fd5b506103476103423660046150b7565b611068565b6040519081526020016102fe565b34801561036157600080fd5b5061034761037036600461508b565b611089565b34801561038157600080fd5b506103476103903660046150b7565b6110c0565b3480156103a157600080fd5b506103b56103b036600461520c565b6110d0565b6040516102fe929190615272565b3480156103cf57600080fd5b506103e36103de36600461508b565b6111b6565b604080519283526020830191909152016102fe565b34801561040457600080fd5b50610418610413366004615294565b611284565b6040516102fe9594939291906152ff565b34801561043557600080fd5b50600154610449906001600160a01b031681565b6040516001600160a01b0390911681526020016102fe565b34801561046d57600080fd5b5061034761047c36600461508b565b6115d1565b34801561048d57600080fd5b5061034761049c36600461535f565b611684565b3480156104ad57600080fd5b506102966104bc366004615162565b611843565b3480156104cd57600080fd5b506103476104dc3660046150b7565b611a3c565b3480156104ed57600080fd5b506105016104fc366004615294565b611ad2565b6040516102fe939291906153fe565b34801561051c57600080fd5b5061029661052b366004615434565b611d2f565b34801561053c57600080fd5b5061055061054b36600461508b565b611dae565b6040516102fe94939291906154a5565b34801561056c57600080fd5b5061029661057b3660046150b7565b611e7a565b34801561058c57600080fd5b5061044961059b3660046150b7565b611f84565b3480156105ac57600080fd5b506102966105bb3660046154d0565b611fae565b3480156105cc57600080fd5b506105e06105db3660046154ed565b6120a7565b6040516102fe969594939291906155a3565b3480156105fe57600080fd5b506000546104499061010090046001600160a01b031681565b34801561062357600080fd5b506104496106323660046154d0565b6006602052600090815260409020546001600160a01b031681565b61029661065b36600461565a565b612163565b34801561066c57600080fd5b5061068061067b3660046154d0565b61232e565b604080519384526020840192909252908201526060016102fe565b6102966123ae565b3480156106af57600080fd5b506104496106be3660046154d0565b6007602052600090815260409020546001600160a01b031681565b3480156106e557600080fd5b506103476106f436600461508b565b6123e3565b34801561070557600080fd5b50600954610449906001600160a01b031681565b34801561072557600080fd5b506102966107343660046154d0565b6124bf565b34801561074557600080fd5b506103b561075436600461520c565b6125c5565b34801561076557600080fd5b5061029661077436600461508b565b6126a3565b34801561078557600080fd5b5061029661079436600461508b565b61274b565b3480156107a557600080fd5b506107b96107b436600461569f565b61294a565b6040516102fe9594939291906156d4565b3480156107d657600080fd5b506107ea6107e536600461508b565b612c02565b6040516102fe96959493929190615751565b34801561080857600080fd5b5061034761081736600461579c565b612e0d565b34801561082857600080fd5b506103476108373660046154d0565b6001600160a01b031660009081526007602052604090206006015490565b34801561086157600080fd5b5061029661087036600461565a565b612e53565b34801561088157600080fd5b5061029661089036600461579c565b612e6c565b3480156108a157600080fd5b506104496108b03660046150b7565b612f78565b3480156108c157600080fd5b506102966108d03660046154d0565b612f88565b3480156108e157600080fd5b506108f56108f03660046154d0565b612fea565b6040516102fe94939291906157cc565b34801561091157600080fd5b5061029661092036600461565a565b6130a9565b336000818152600460205260409020546001600160a01b031661095b576040516372898ae960e11b815260040160405180910390fd5b336000818152600460205260408120600b8101805491929161097c90615809565b80601f01602080910402602001604051908101604052809291908181526020018280546109a890615809565b80156109f55780601f106109ca576101008083540402835291602001916109f5565b820191906000526020600020905b8154815290600101906020018083116109d857829003601f168201915b50505050509050610a118686846133e99092919063ffffffff16565b826001600160a01b03167f7ea7e12060119574f657de08c5ef0970a24d7734612fb00c418ad40c7d4a84fd828888604051610a4e93929190615844565b60405180910390a2505050505050565b6001600160a01b038083166000908152600660209081526040808320548416808452600490925290912054909116610aa9576040516372898ae960e11b815260040160405180910390fd5b334114610ac957604051631cf4735960e01b815260040160405180910390fd5b6001600160a01b038084166000908152600660209081526040808320548416835260049182905280832083548251633fa4f24560e01b815292519195610bdc946101009092041692633fa4f2459281830192610120928290030181865afa158015610b38573d6000803e3d6000fd5b505050506040513d601f19601f82011682018060405250810190610b5c919061588a565b600060019054906101000a90046001600160a01b03166001600160a01b031663900cf0cf6040518163ffffffff1660e01b8152600401602060405180830381865afa158015610baf573d6000803e3d6000fd5b505050506040513d601f19601f82011682018060405250810190610bd39190615905565b84919087613471565b82546040519192506001600160a01b0316907f1647efd0ce9727dc31dc201c9d8d35ac687f7370adcacbd454afc6485ddabfda90600090a28015610c5d5781546040518281526001600160a01b03909116907feb7d7a49847ec491969db21a0e31b234565a9923145a2d1b56a75c9e95825802906020015b60405180910390a25b5050505050565b336000818152600460205260409020546001600160a01b0316610c9a576040516372898ae960e11b815260040160405180910390fd5b336000818152600760205260409020546001600160a01b0316610cd05760405163cf83d93d60e01b815260040160405180910390fd5b600060019054906101000a90046001600160a01b03166001600160a01b031663d4a536866040518163ffffffff1660e01b8152600401602060405180830381865afa158015610d23573d6000803e3d6000fd5b505050506040513d601f19601f82011682018060405250810190610d479190615933565b15610d6557604051631e59ccd960e01b815260040160405180910390fd5b60008054338252600460205260408220610d8d9161010090046001600160a01b031686613550565b905080610dad57604051637bc90c0560e11b815260040160405180910390fd5b610e313333600060019054906101000a90046001600160a01b03166001600160a01b031663900cf0cf6040518163ffffffff1660e01b8152600401602060405180830381865afa158015610e05573d6000803e3d6000fd5b505050506040513d601f19601f82011682018060405250810190610e299190615905565b600085613570565b604051818152339081907fddd8e3ffe5c76cd1a7cca4b98662cb0a4e3da53ee24a873da632d28ba1043836906020015b60405180910390a350505050565b6001600160a01b03828116600090815260046020526040902080548492163314801590610ea9575060018101546001600160a01b03163314155b15610ec757604051630101292160e31b815260040160405180910390fd5b6001600160a01b03808516600090815260046020526040902054859116610f01576040516372898ae960e11b815260040160405180910390fd5b600060019054906101000a90046001600160a01b03166001600160a01b031663d4a536866040518163ffffffff1660e01b8152600401602060405180830381865afa158015610f54573d6000803e3d6000fd5b505050506040513d601f19601f82011682018060405250810190610f789190615933565b15610f9657604051631e59ccd960e01b815260040160405180910390fd5b61102f600060019054906101000a90046001600160a01b03166001600160a01b031663900cf0cf6040518163ffffffff1660e01b8152600401602060405180830381865afa158015610fec573d6000803e3d6000fd5b505050506040513d601f19601f820116820180604052508101906110109190615905565b6001600160a01b03871660009081526004602052604090209086613685565b846001600160a01b03167fc11dfc9c24621433bb10587dc4bbae26a33a4aff53914e0d4c9fddf224a8cb7d85604051610c54919061594e565b6002818154811061107857600080fd5b600091825260209091200154905081565b600080546001600160a01b0384811683526004602052604083206110b69290916101009091041684613697565b5090505b92915050565b6003818154811061107857600080fd5b606060006110e4848460058054905061382a565b9093509050826001600160401b03811115611101576111016150d0565b60405190808252806020026020018201604052801561112a578160200160208202803683370190505b50915060005b838110156111ae5760056111448287615977565b815481106111545761115461598f565b9060005260206000200160009054906101000a90046001600160a01b03168382815181106111845761118461598f565b6001600160a01b0390921660209283029190910190910152806111a6816159a5565b915050611130565b509250929050565b6000806112796000841161124057600060019054906101000a90046001600160a01b03166001600160a01b031663900cf0cf6040518163ffffffff1660e01b8152600401602060405180830381865afa158015611217573d6000803e3d6000fd5b505050506040513d601f19601f8201168201806040525081019061123b9190615905565b611242565b835b6001600160a01b038616600090815260046020908152604080832093835260098401825280832054600a9094019091529020549091565b909590945092505050565b6001600160a01b03841660009081526007602052604081206060918291829182918861132657600060019054906101000a90046001600160a01b03166001600160a01b031663900cf0cf6040518163ffffffff1660e01b8152600401602060405180830381865afa1580156112fd573d6000803e3d6000fd5b505050506040513d601f19601f820116820180604052508101906113219190615905565b611328565b885b985061133a888860058054905061382a565b9097509150866001600160401b03811115611357576113576150d0565b604051908082528060200260200182016040528015611380578160200160208202803683370190505b509550866001600160401b0381111561139b5761139b6150d0565b6040519080825280602002602001820160405280156113c4578160200160208202803683370190505b509450866001600160401b038111156113df576113df6150d0565b604051908082528060200260200182016040528015611408578160200160208202803683370190505b509350866001600160401b03811115611423576114236150d0565b60405190808252806020026020018201604052801561144c578160200160208202803683370190505b50925060005b878110156115c4576005611466828b615977565b815481106114765761147661598f565b9060005260206000200160009054906101000a90046001600160a01b03168782815181106114a6576114a661598f565b60200260200101906001600160a01b031690816001600160a01b0316815250506114f78782815181106114db576114db61598f565b602002602001015160008c85613861909392919063ffffffff16565b8682815181106115095761150961598f565b60200260200101818152505061154687828151811061152a5761152a61598f565b602002602001015160018c85613861909392919063ffffffff16565b8582815181106115585761155861598f565b6020026020010181815250506115958782815181106115795761157961598f565b602002602001015160028c85613861909392919063ffffffff16565b8482815181106115a7576115a761598f565b6020908102919091010152806115bc816159a5565b915050611452565b5050945094509450945094565b600080821161165657600060019054906101000a90046001600160a01b03166001600160a01b031663900cf0cf6040518163ffffffff1660e01b8152600401602060405180830381865afa15801561162d573d6000803e3d6000fd5b505050506040513d601f19601f820116820180604052508101906116519190615905565b611658565b815b6001600160a01b038416600090815260046020526040902090925061167d9083613920565b9392505050565b600080600183600060019054906101000a90046001600160a01b03166001600160a01b031663900cf0cf6040518163ffffffff1660e01b8152600401602060405180830381865afa1580156116dd573d6000803e3d6000fd5b505050506040513d601f19601f820116820180604052508101906117019190615905565b61170b91906159c0565b61171591906159c0565b845190915060005b8481101561183a57611730600184615977565b6000805460405163fcbb371b60e01b81526004810184905292955090916101009091046001600160a01b03169063fcbb371b9060240161012060405180830381865afa158015611784573d6000803e3d6000fd5b505050506040513d601f19601f820116820180604052508101906117a8919061588a565b905060005b83811015611825576118078286600460008c86815181106117d0576117d061598f565b60200260200101516001600160a01b03166001600160a01b031681526020019081526020016000206139339092919063ffffffff16565b6118119087615977565b95508061181d816159a5565b9150506117ad565b50508080611832906159a5565b91505061171d565b50505092915050565b6001600160a01b0382811660009081526004602052604090208054849216331480159061187d575060018101546001600160a01b03163314155b1561189b57604051630101292160e31b815260040160405180910390fd5b6001600160a01b038085166000908152600460205260409020548591166118d5576040516372898ae960e11b815260040160405180910390fd5b600060019054906101000a90046001600160a01b03166001600160a01b031663d4a536866040518163ffffffff1660e01b8152600401602060405180830381865afa158015611928573d6000803e3d6000fd5b505050506040513d601f19601f8201168201806040525081019061194c9190615933565b1561196a57604051631e59ccd960e01b815260040160405180910390fd5b611a03600060019054906101000a90046001600160a01b03166001600160a01b031663900cf0cf6040518163ffffffff1660e01b8152600401602060405180830381865afa1580156119c0573d6000803e3d6000fd5b505050506040513d601f19601f820116820180604052508101906119e49190615905565b6001600160a01b03871660009081526004602052604090209086613aa0565b846001600160a01b03167f0ad9bf1b8c026a174a2f30954417002a6ea00c9b08c1b8846c7951c687be809585604051610c54919061594e565b6000808211611ac157600060019054906101000a90046001600160a01b03166001600160a01b031663900cf0cf6040518163ffffffff1660e01b8152600401602060405180830381865afa158015611a98573d6000803e3d6000fd5b505050506040513d601f19601f82011682018060405250810190611abc9190615905565b611ac3565b815b91506110ba6002600384613aad565b6001600160a01b0384166000908152600460205260408120606091829186611b7057600060019054906101000a90046001600160a01b03166001600160a01b031663900cf0cf6040518163ffffffff1660e01b8152600401602060405180830381865afa158015611b47573d6000803e3d6000fd5b505050506040513d601f19601f82011682018060405250810190611b6b9190615905565b611b72565b865b9650611b868686836007018054905061382a565b9095509150846001600160401b03811115611ba357611ba36150d0565b604051908082528060200260200182016040528015611bcc578160200160208202803683370190505b509350846001600160401b03811115611be757611be76150d0565b604051908082528060200260200182016040528015611c10578160200160208202803683370190505b50925060005b85811015611d23576000600781848201611c30858c615977565b81548110611c4057611c4061598f565b60009182526020808320909101546001600160a01b03908116845290830193909352604090910190208054885191935090911690879084908110611c8657611c8661598f565b6001600160a01b0392831660209182029290920101528354611cad9183911660028c613861565b8354611cc69083906001600160a01b031660018d613861565b8454611cdf9084906001600160a01b031660008e613861565b611ce99190615977565b611cf39190615977565b858381518110611d0557611d0561598f565b60209081029190910101525080611d1b816159a5565b915050611c16565b50509450945094915050565b334114611d4f57604051631cf4735960e01b815260040160405180910390fd5b60005460ff1615611d725760405162dc149f60e41b815260040160405180910390fd5b6000805460016001600160a81b03199091166101006001600160a01b039586160217811790915580546001600160a01b03191691909216179055565b6001600160a01b03821660009081526007602052604081206006018054829182918291829187908110611de357611de361598f565b6000918252602090912060408051606081019091526003909202018054829060ff166002811115611e1657611e1661546d565b6002811115611e2757611e2761546d565b81526020016001820154815260200160028201548152505090508060000151816020015182604001518360400151600014158015611e69575083604001514210155b929a91995097509095509350505050565b336000818152600760205260409020546001600160a01b0316611eb05760405163cf83d93d60e01b815260040160405180910390fd5b336000908152600760205260408120600601805484908110611ed457611ed461598f565b9060005260206000209060030201905060008160020154905080421015611f0e576040516303cb96db60e21b815260040160405180910390fd5b80611f2c57604051630c8d9eab60e31b815260040160405180910390fd5b6000600283015560405184815233907fbf5f92dc2b945251eadf78c2ca629ae64053d979bfbc43a7b17a463707906bf99060200160405180910390a281546001830154611f7e9160ff16903390613bc6565b50505050565b60058181548110611f9457600080fd5b6000918252602090912001546001600160a01b0316905081565b6001600160a01b0381811660009081526006602052604090205433911615611fe95760405163055ee1f160e31b815260040160405180910390fd5b6001600160a01b038116600090815260046020526040902061200b9083613ce5565b60058054600181019091557f036b6384b5eca791c62761152d0c79bb0604c104a5fb6f4eb0703f3154bb3db00180546001600160a01b038381166001600160a01b03199283168117909355841660009081526006602090815260409182902080549093168417909255519182527fd5828184f48f65962d10eac907318df85953d4e3542a0f09b5932ee3fe398bdd910160405180910390a15050565b600954604051632d73a02f60e01b815260048101859052602481018490526044810183905260609182918291829182916000916001600160a01b0390911690632d73a02f90606401600060405180830381865afa15801561210c573d6000803e3d6000fd5b505050506040513d6000823e601f3d908101601f191682016040526121349190810190615bda565b9091929394509091929350809650819750829850839950849a50859b5050505050505093975093979195509350565b6001600160a01b0380841660009081526004602052604090205484911661219d576040516372898ae960e11b815260040160405180910390fd5b600060019054906101000a90046001600160a01b03166001600160a01b031663d4a536866040518163ffffffff1660e01b8152600401602060405180830381865afa1580156121f0573d6000803e3d6000fd5b505050506040513d601f19601f820116820180604052508101906122149190615933565b1561223257604051631e59ccd960e01b815260040160405180910390fd5b8161225057604051637bc90c0560e11b815260040160405180910390fd5b61225b833384613d27565b6122e93385600060019054906101000a90046001600160a01b03166001600160a01b031663900cf0cf6040518163ffffffff1660e01b8152600401602060405180830381865afa1580156122b3573d6000803e3d6000fd5b505050506040513d601f19601f820116820180604052508101906122d79190615905565b6122e2906001615977565b8686613570565b836001600160a01b0316336001600160a01b03167f8fc656e319452025372383dc27d933046d412b8253de50a10739eeaa59862be68585604051610e61929190615cfe565b6001600160a01b0380821660009081526007602052604081208154919283928392916123639183916101009091041684613dc8565b60005490945061238490829061010090046001600160a01b03166001613dc8565b6000549093506123a590829061010090046001600160a01b03166002613dc8565b93959294505050565b6040513481527f1de49774d094a85fc1bbbd16e8d09a865fb848218f41e2da4369f528c42ee42e9060200160405180910390a1565b6001600160a01b0380831660008181526006602090815260408083205485168352600490915281206001810154919390929116146124255760009150506110ba565b600083116124a957600060019054906101000a90046001600160a01b03166001600160a01b031663900cf0cf6040518163ffffffff1660e01b8152600401602060405180830381865afa158015612480573d6000803e3d6000fd5b505050506040513d601f19601f820116820180604052508101906124a49190615905565b6124ab565b825b92506124b78184613920565b949350505050565b336000818152600460205260409020546001600160a01b03166124f5576040516372898ae960e11b815260040160405180910390fd5b6001600160a01b03828116600090815260066020526040902054339116156125305760405163055ee1f160e31b815260040160405180910390fd5b6001600160a01b038082166000908152600460205260409020600181015490911661255b8286613fee565b6001600160a01b0385811660008181526006602090815260409182902080546001600160a01b031916888616908117909155825194861685529084019290925290917f758820d0b14a01c1fa60b8d2bbef25ed1b6a5af4802e5dec3f08679255ba8bf39101610c54565b606060006125d9848460088054905061382a565b9093509050826001600160401b038111156125f6576125f66150d0565b60405190808252806020026020018201604052801561261f578160200160208202803683370190505b50915060005b838110156111ae5760086126398287615977565b815481106126495761264961598f565b9060005260206000200160009054906101000a90046001600160a01b03168382815181106126795761267961598f565b6001600160a01b03909216602092830291909101909101528061269b816159a5565b915050612625565b336000818152600460205260409020546001600160a01b03166126d9576040516372898ae960e11b815260040160405180910390fd5b600080543382526004602052604082206127019161010090046001600160a01b031685613550565b60405181815290915033907f882d5671e5b36af50883197c33d48ba56ce337589958e871ba82fb0a54adf3e89060200160405180910390a28015611f7e57611f7e60003383613bc6565b6001600160a01b03808316600090815260046020526040902054839116612785576040516372898ae960e11b815260040160405180910390fd5b336000818152600760205260409020546001600160a01b03166127bb5760405163cf83d93d60e01b815260040160405180910390fd5b600060019054906101000a90046001600160a01b03166001600160a01b031663d4a536866040518163ffffffff1660e01b8152600401602060405180830381865afa15801561280e573d6000803e3d6000fd5b505050506040513d601f19601f820116820180604052508101906128329190615933565b1561285057604051631e59ccd960e01b815260040160405180910390fd5b600080546001600160a01b0386811683526004602090815260408085203386526007909252842061288b939092610100909104169087614068565b9050806128ab57604051637bc90c0560e11b815260040160405180910390fd5b6129033386600060019054906101000a90046001600160a01b03166001600160a01b031663900cf0cf6040518163ffffffff1660e01b8152600401602060405180830381865afa158015610e05573d6000803e3d6000fd5b6040518181526001600160a01b0386169033907fddd8e3ffe5c76cd1a7cca4b98662cb0a4e3da53ee24a873da632d28ba10438369060200160405180910390a35050505050565b6001600160a01b03831660009081526007602052604081206006810154606092839283928392919061297f908990899061382a565b9097509150866001600160401b0381111561299c5761299c6150d0565b6040519080825280602002602001820160405280156129c5578160200160208202803683370190505b509550866001600160401b038111156129e0576129e06150d0565b604051908082528060200260200182016040528015612a09578160200160208202803683370190505b509450866001600160401b03811115612a2457612a246150d0565b604051908082528060200260200182016040528015612a4d578160200160208202803683370190505b509350866001600160401b03811115612a6857612a686150d0565b604051908082528060200260200182016040528015612a91578160200160208202803683370190505b50925060005b87811015612bf557600060068301612aaf838c615977565b81548110612abf57612abf61598f565b6000918252602090912060408051606081019091526003909202018054829060ff166002811115612af257612af261546d565b6002811115612b0357612b0361546d565b81526020016001820154815260200160028201548152505090508060000151888381518110612b3457612b3461598f565b60200260200101906002811115612b4d57612b4d61546d565b90816002811115612b6057612b6061546d565b815250508060200151878381518110612b7b57612b7b61598f565b6020026020010181815250508060400151868381518110612b9e57612b9e61598f565b6020908102919091010152604081015115801590612bc0575080604001514210155b858381518110612bd257612bd261598f565b911515602092830291909101909101525080612bed816159a5565b915050612a97565b5050939792965093509350565b600080808080606086612c8957600060019054906101000a90046001600160a01b03166001600160a01b031663900cf0cf6040518163ffffffff1660e01b8152600401602060405180830381865afa158015612c62573d6000803e3d6000fd5b505050506040513d601f19601f82011682018060405250810190612c869190615905565b96505b6001600160a01b03888116600090815260046020908152604080832060018101548c855260028201909352922054921697509060ff1660008981526003830160205260409020549015965060ff169450612ce38189613920565b925080600b018054612cf490615809565b80601f0160208091040260200160405190810160405280929190818152602001828054612d2090615809565b8015612d6d5780601f10612d4257610100808354040283529160200191612d6d565b820191906000526020600020905b815481529060010190602001808311612d5057829003601f168201915b50505050509150858015612d7f575084155b8015612e00575060005460405163fcbb371b60e01b8152600481018a90526101009091046001600160a01b03169063fcbb371b9060240161012060405180830381865afa158015612dd4573d6000803e3d6000fd5b505050506040513d601f19601f82011682018060405250810190612df8919061588a565b60c001518310155b9350509295509295509295565b600080546001600160a01b038481168352600460209081526040808520888416865260079092528420612e4a9390926101009091041690856140a1565b50949350505050565b604051634ee5a1b960e01b815260040160405180910390fd5b6001600160a01b03808316600090815260046020526040902054839116612ea6576040516372898ae960e11b815260040160405180910390fd5b336000818152600760205260409020546001600160a01b0316612edc5760405163cf83d93d60e01b815260040160405180910390fd5b600080546001600160a01b03868116835260046020908152604080852033865260079092528420612f17939092610100909104169087614068565b604080516001600160a01b03881681526020810183905291925033917f2ef606d064225d24c1514dc94907c134faee1237445c2f63f410cce0852b2054910160405180910390a28015612f7057612f7060003383613bc6565b505050505050565b60088181548110611f9457600080fd5b336000818152600760205260409020546001600160a01b0316612fbe5760405163cf83d93d60e01b815260040160405180910390fd5b6000805433825260076020526040909120612fe69161010090046001600160a01b03166142ab565b5050565b6004602052600090815260409020805460018201546006830154600b840180546001600160a01b03948516959490931693919261302690615809565b80601f016020809104026020016040519081016040528092919081815260200182805461305290615809565b801561309f5780601f106130745761010080835404028352916020019161309f565b820191906000526020600020905b81548152906001019060200180831161308257829003601f168201915b5050505050905084565b6001600160a01b038084166000908152600460205260409020548491166130e3576040516372898ae960e11b815260040160405180910390fd5b336000818152600760205260409020546001600160a01b03166131195760405163cf83d93d60e01b815260040160405180910390fd5b600060019054906101000a90046001600160a01b03166001600160a01b031663d4a536866040518163ffffffff1660e01b8152600401602060405180830381865afa15801561316c573d6000803e3d6000fd5b505050506040513d601f19601f820116820180604052508101906131909190615933565b156131ae57604051631e59ccd960e01b815260040160405180910390fd5b33600090815260076020908152604080832083546001600160a01b038a811686526004909452919093206131ec9284926101009004169088886142cf565b93508361320c57604051637bc90c0560e11b815260040160405180910390fd5b80600601604051806060016040528087600281111561322d5761322d61546d565b81526020810187905260400161324642620d2f00615977565b9052815460018181018455600093845260209093208251600390920201805492939092839160ff19909116908360028111156132845761328461546d565b0217905550602082015181600101556040820151816002015550506133306003600060019054906101000a90046001600160a01b03166001600160a01b031663900cf0cf6040518163ffffffff1660e01b8152600401602060405180830381865afa1580156132f7573d6000803e3d6000fd5b505050506040513d601f19601f8201168201806040525081019061331b9190615905565b613326906001615977565b6002919087614405565b50600954604051635692619d60e11b81526001600160a01b0388811660048301529091169063ad24c33a90602401600060405180830381600087803b15801561337857600080fd5b505af115801561338c573d6000803e3d6000fd5b50505060068201546001600160a01b038816915033907fb649014faa7a0e23357e091fb8a67a128c33dc9480f846f7e41cb3a6c9d80610906133d0906001906159c0565b60405190815260200160405180910390a3505050505050565b6030811461340a57604051637477579960e11b815260040160405180910390fd5b613418602060008385615d19565b61342191615d43565b1580156134455750613437603060208385615d19565b61344091615d61565b60801c155b1561346357604051634ee9493360e11b815260040160405180910390fd5b611f7e600b84018383614f10565b600082815260098501602052604081205461349a57600083815260098601602052604090208290555b6000838152600a860160205260408120546134b6906001615977565b6000858152600a88016020526040902081905560e0860151909150811080159061350257506003860160006134ec866001615977565b815260208101919091526040016000205460ff16155b15612e4a576101008501516135179085615977565b91505b81841015612e4a578361352c816159a5565b60008181526003890160205260409020805460ff19166001179055945061351a9050565b6000806000613560868686613697565b6006880155925050509392505050565b6001600160a01b03808616600090815260076020526040902080549091166135e95780546001600160a01b0387166001600160a01b031991821681178355600880546001810182556000919091527ff3f7a9fe364faab93b216da50a3214154f22a0a2b415b23a84c8169e8b636ee30180549092161790555b6001600160a01b0385166000908152600460205260409020613610908290869086866144e0565b61361e6002600386856145a8565b600954604051635692619d60e11b81526001600160a01b0387811660048301529091169063ad24c33a90602401600060405180830381600087803b15801561366557600080fd5b505af1158015613679573d6000803e3d6000fd5b50505050505050505050565b613692838383600061468e565b505050565b6000808460060154905060006001856001600160a01b031663900cf0cf6040518163ffffffff1660e01b8152600401602060405180830381865afa1580156136e3573d6000803e3d6000fd5b505050506040513d601f19601f820116820180604052508101906137079190615905565b61371191906159c0565b90508315806137285750806137268386615977565b115b1561373a5761373782826159c0565b93505b60005b8481101561382057613750600184615977565b60405163fcbb371b60e01b8152600481018290529093506000906001600160a01b0388169063fcbb371b9060240161012060405180830381865afa15801561379c573d6000803e3d6000fd5b505050506040513d601f19601f820116820180604052508101906137c0919061588a565b905060006137cf898387613933565b9050806137dd57505061380e565b60a08201516137ed57505061380e565b6137ff818360a0015160646019614714565b6138099087615977565b955050505b80613818816159a5565b91505061373d565b5050935093915050565b600080826138388587615977565b1061384a5761384785846159c0565b93505b836138558187615977565b91509150935093915050565b600061391785600201600085600281111561387e5761387e61546d565b600281111561388f5761388f61546d565b81526020019081526020016000206000866001600160a01b03166001600160a01b03168152602001908152602001600020838760010160008760028111156138d9576138d961546d565b60028111156138ea576138ea61546d565b8152602080820192909252604090810160009081206001600160a01b038b16825290925290209190613aad565b95945050505050565b600061167d600484016005850184613aad565b600081815260028401602052604081205460ff16806139625750600082815260038501602052604090205460ff165b1561396f5750600061167d565b600061397b8584613920565b9050604983106139bc578360c0015181101561399b57600091505061167d565b629896806139ab82610a34615d9a565b6139b59190615db9565b9150613a55565b806139cb57600091505061167d565b6139d76019600a615eb7565b6139e8856080015160646019614740565b6139f29083615d9a565b6139fc9190615db9565b915081613a0d57600091505061167d565b613a3084606001518560400151613a249190615d9a565b6301e133806019614740565b613a3a9083615d9a565b9150613a486019600a615eb7565b613a529083615db9565b91505b6000838152600a860160205260409020548015613a97576000848152600987016020526040902054613a9384613a8b84846159c0565b836019614714565b9350505b50509392505050565b613692838383600161468e565b8254600090801580613adb57508285600081548110613ace57613ace61598f565b9060005260206000200154115b15613aea57600091505061167d565b8285613af76001846159c0565b81548110613b0757613b0761598f565b906000526020600020015411613b465783613b236001836159c0565b81548110613b3357613b3361598f565b906000526020600020015491505061167d565b600181118015613b7c57508285613b5e6002846159c0565b81548110613b6e57613b6e61598f565b906000526020600020015411155b15613b8d5783613b236002836159c0565b6000613b9c868560008561477c565b9050848181548110613bb057613bb061598f565b9060005260206000200154925050509392505050565b600080846002811115613bdb57613bdb61546d565b1415613c3a576040516001600160a01b038416908390600081818185875af1925050503d8060008114613c2a576040519150601f19603f3d011682016040523d82523d6000602084013e613c2f565b606091505b505080915050613cbc565b613c4384614824565b60405163a9059cbb60e01b81526001600160a01b03858116600483015260248201859052919091169063a9059cbb906044015b6020604051808303816000875af1158015613c95573d6000803e3d6000fd5b505050506040513d601f19601f82011682018060405250810190613cb99190615933565b90505b80611f7e5783604051630db5347560e11b8152600401613cdc9190615ec3565b60405180910390fd5b81546001600160a01b031615613d0d57604051621d934160e11b815260040160405180910390fd5b81546001600160a01b03191633178255612fe68282613fee565b6000836002811115613d3b57613d3b61546d565b1415613d615780341461369257604051630fe5b06560e11b815260040160405180910390fd5b3415613d805760405163a745ac8560e01b815260040160405180910390fd5b6000613d8b84614824565b6040516323b872dd60e01b81526001600160a01b0385811660048301523060248301526044820185905291909116906323b872dd90606401613c76565b600080846003016000846002811115613de357613de361546d565b6002811115613df457613df461546d565b8152602081019190915260400160002054905080613e1657600091505061167d565b6000846001600160a01b031663900cf0cf6040518163ffffffff1660e01b8152600401602060405180830381865afa158015613e56573d6000803e3d6000fd5b505050506040513d601f19601f82011682018060405250810190613e7a9190615905565b90506000613e896001846159c0565b9050600081118015613eec575081876003016000876002811115613eaf57613eaf61546d565b6002811115613ec057613ec061546d565b81526020019081526020016000208281548110613edf57613edf61598f565b9060005260206000200154115b15613eff5780613efb81615ed1565b9150505b81876003016000876002811115613f1857613f1861546d565b6002811115613f2957613f2961546d565b81526020019081526020016000208281548110613f4857613f4861598f565b90600052602060002001541115613f65576000935050505061167d565b6000805b828111613fe257886004016000886002811115613f8857613f8861546d565b6002811115613f9957613f9961546d565b81526020019081526020016000208181548110613fb857613fb861598f565b906000526020600020015482613fce9190615977565b915080613fda816159a5565b915050613f69565b50979650505050505050565b6001600160a01b03811661401557604051637138356f60e01b815260040160405180910390fd5b81546001600160a01b03828116911614156140435760405163e037058f60e01b815260040160405180910390fd5b60019190910180546001600160a01b0319166001600160a01b03909216919091179055565b6000806000614079878787876140a1565b86546001600160a01b0316600090815260058a01602052604090205592505050949350505050565b81546001600160a01b039081166000908152600586016020908152604080832054815163900cf0cf60e01b81529151939490938593600193928a169263900cf0cf92600480830193928290030181865afa158015614103573d6000803e3d6000fd5b505050506040513d601f19601f820116820180604052508101906141279190615905565b61413191906159c0565b90508315806141485750806141468386615977565b115b1561415a5761415782826159c0565b93505b60005b848110156142a057614170600184615977565b865490935060009061418f908a906001600160a01b0316600287613861565b87546141a8908b906001600160a01b0316600188613861565b88546141c1908c906001600160a01b0316600089613861565b6141cb9190615977565b6141d59190615977565b9050806141e2575061428e565b60405163fcbb371b60e01b81526004810185905260009061425b906001600160a01b038b169063fcbb371b9060240161012060405180830381865afa15801561422f573d6000803e3d6000fd5b505050506040513d601f19601f82011682018060405250810190614253919061588a565b89908761488f565b90508061426957505061428e565b61427f81836142788b89613920565b6019614714565b6142899087615977565b955050505b80614298816159a5565b91505061415d565b505094509492505050565b6142b7828260016148da565b6142c3828260026148da565b612fe6828260006148da565b60006143eb8660020160008560028111156142ec576142ec61546d565b60028111156142fd576142fd61546d565b81526020808201929092526040908101600090812088546001600160a01b03908116835290845290829020825163900cf0cf60e01b815292519093918a169263900cf0cf9260048083019391928290030181865afa158015614363573d6000803e3d6000fd5b505050506040513d601f19601f820116820180604052508101906143879190615905565b614392906001615977565b848960010160008860028111156143ab576143ab61546d565b60028111156143bc576143bc61546d565b8152602080820192909252604090810160009081208b546001600160a01b031682529092529020929190614405565b9150816143fa57506000613917565b612e4a848684614c00565b835460009080158061443c57508561441e6001836159c0565b8154811061442e5761442e61598f565b906000526020600020015484105b1561445a57604051630eae4c9760e01b815260040160405180910390fd5b6000614467878787614c80565b9050600086828154811061447d5761447d61598f565b9060005260206000200154905080851115614498578061449a565b845b945084156144d457848783815481106144b5576144b561598f565b9060005260206000200160008282546144ce91906159c0565b90915550505b50929695505050505050565b61458f8560020160008460028111156144fb576144fb61546d565b600281111561450c5761450c61546d565b81526020808201929092526040908101600090812087546001600160a01b031682529092528120908690849060018a019087600281111561454f5761454f61546d565b60028111156145605761456061546d565b8152602080820192909252604090810160009081208a546001600160a01b0316825290925290209291906145a8565b8454610c5d90849086906001600160a01b031684614e90565b83546001811180156145df5750846145c16001836159c0565b815481106145d1576145d161598f565b906000526020600020015483105b80156146105750846145f26002836159c0565b815481106146025761460261598f565b906000526020600020015483105b1561462e57604051630eae4c9760e01b815260040160405180910390fd5b600061463b868686614c80565b8654925090505b81811015612f70578285828154811061465d5761465d61598f565b9060005260206000200160008282546146769190615977565b90915550819050614686816159a5565b915050614642565b815160005b81811015612f705760008482815181106146af576146af61598f565b6020026020010151905085811180156146df5750600081815260028801602052604090205460ff16151584151514155b156147015760008181526002880160205260409020805460ff19168515151790555b508061470c816159a5565b915050614693565b600061472182600a615eb7565b61472c858585614740565b6147369087615d9a565b6139179190615db9565b60008061474e836001615977565b61475990600a615eb7565b6147639086615d9a565b9050600a6147718583615db9565b614736906005615977565b600081831415614798576147916001836159c0565b90506124b7565b600060026147a68486615977565b6147b09190615db9565b9050848682815481106147c5576147c561598f565b906000526020600020015411156147ea576147e28686868461477c565b9150506124b7565b848682815481106147fd576147fd61598f565b90600052602060002001541015613917576147e2868661481e846001615977565b8661477c565b6000600182600281111561483a5761483a61546d565b141561484e57506001602960991b01919050565b60028260028111156148625761486261546d565b141561487657506002602960991b01919050565b604051638698bf3760e01b815260040160405180910390fd5b60008061489d858585613933565b9050806148ae57600091505061167d565b60a08401516148be57905061167d565b6148d0818560a0015160646019614714565b61391790826159c0565b60006148e7848484613dc8565b9050806148f45750505050565b600084600301600084600281111561490e5761490e61546d565b600281111561491f5761491f61546d565b8152602001908152602001600020805490509050836001600160a01b031663900cf0cf6040518163ffffffff1660e01b8152600401602060405180830381865afa158015614971573d6000803e3d6000fd5b505050506040513d601f19601f820116820180604052508101906149959190615905565b8560030160008560028111156149ad576149ad61546d565b60028111156149be576149be61546d565b81526020019081526020016000206001836149d991906159c0565b815481106149e9576149e961598f565b906000526020600020015411614a8457846003016000846002811115614a1157614a1161546d565b6002811115614a2257614a2261546d565b81526020019081526020016000206000614a3c9190614f94565b846004016000846002811115614a5457614a5461546d565b6002811115614a6557614a6561546d565b81526020019081526020016000206000614a7f9190614f94565b614be9565b6040518060200160405280866003016000866002811115614aa757614aa761546d565b6002811115614ab857614ab861546d565b8152602001908152602001600020600184614ad391906159c0565b81548110614ae357614ae361598f565b9060005260206000200154815250856003016000856002811115614b0957614b0961546d565b6002811115614b1a57614b1a61546d565b81526020810191909152604001600020614b35916001614fb5565b506040518060200160405280866004016000866002811115614b5957614b5961546d565b6002811115614b6a57614b6a61546d565b8152602001908152602001600020600184614b8591906159c0565b81548110614b9557614b9561598f565b9060005260206000200154815250856004016000856002811115614bbb57614bbb61546d565b6002811115614bcc57614bcc61546d565b81526020810191909152604001600020614be7916001614fb5565b505b8454610c5d9084906001600160a01b031684613bc6565b611f7e83600501836001600160a01b031663900cf0cf6040518163ffffffff1660e01b8152600401602060405180830381865afa158015614c45573d6000803e3d6000fd5b505050506040513d601f19601f82011682018060405250810190614c699190615905565b614c74906001615977565b60048601919084614405565b825460009080614cbb57505082546001818101855560008581526020808220909301849055845491820185558481529182200181905561167d565b6000614cc86001836159c0565b90506000868281548110614cde57614cde61598f565b9060005260206000200154905080851415614cfd5750915061167d9050565b80851115614d655786546001810188556000888152602090200185905585548690819084908110614d3057614d3061598f565b6000918252602080832090910154835460018181018655948452919092200155614d5b908390615977565b935050505061167d565b600082118015614d9a575086614d7c6001846159c0565b81548110614d8c57614d8c61598f565b906000526020600020015485145b15614daa57614d5b6001836159c0565b86878381548110614dbd57614dbd61598f565b6000918252602080832090910154835460018101855593835291209091015585548690819084908110614df257614df261598f565b6000918252602080832090910154835460018101855593835291209091015586548590889084908110614e2757614e2761598f565b6000918252602090912001558115614e655785614e456001846159c0565b81548110614e5557614e5561598f565b9060005260206000200154614e68565b60005b868381548110614e7a57614e7a61598f565b60009182526020909120015550915061167d9050565b6001600160a01b038216600090815260088501602052604090205460ff16614efe576001600160a01b038216600081815260088601602090815260408220805460ff191660019081179091556007880180549182018155835291200180546001600160a01b03191690911790555b611f7e600485016005860185846145a8565b828054614f1c90615809565b90600052602060002090601f016020900481019282614f3e5760008555614f84565b82601f10614f575782800160ff19823516178555614f84565b82800160010185558215614f84579182015b82811115614f84578235825591602001919060010190614f69565b50614f90929150614ff0565b5090565b5080546000825590600052602060002090810190614fb29190614ff0565b50565b828054828255906000526020600020908101928215614f84579160200282015b82811115614f84578251825591602001919060010190614fd5565b5b80821115614f905760008155600101614ff1565b6000806020838503121561501857600080fd5b82356001600160401b038082111561502f57600080fd5b818501915085601f83011261504357600080fd5b81358181111561505257600080fd5b86602082850101111561506457600080fd5b60209290920196919550909350505050565b6001600160a01b0381168114614fb257600080fd5b6000806040838503121561509e57600080fd5b82356150a981615076565b946020939093013593505050565b6000602082840312156150c957600080fd5b5035919050565b634e487b7160e01b600052604160045260246000fd5b60405161012081016001600160401b0381118282101715615109576151096150d0565b60405290565b604051601f8201601f191681016001600160401b0381118282101715615137576151376150d0565b604052919050565b60006001600160401b03821115615158576151586150d0565b5060051b60200190565b6000806040838503121561517557600080fd5b823561518081615076565b91506020838101356001600160401b0381111561519c57600080fd5b8401601f810186136151ad57600080fd5b80356151c06151bb8261513f565b61510f565b81815260059190911b820183019083810190888311156151df57600080fd5b928401925b828410156151fd578335825292840192908401906151e4565b80955050505050509250929050565b6000806040838503121561521f57600080fd5b50508035926020909101359150565b600081518084526020808501945080840160005b838110156152675781516001600160a01b031687529582019590820190600101615242565b509495945050505050565b604081526000615285604083018561522e565b90508260208301529392505050565b600080600080608085870312156152aa57600080fd5b84356152b581615076565b966020860135965060408601359560600135945092505050565b600081518084526020808501945080840160005b83811015615267578151875295820195908201906001016152e3565b60a08152600061531260a083018861522e565b828103602084015261532481886152cf565b9050828103604084015261533881876152cf565b9050828103606084015261534c81866152cf565b9150508260808301529695505050505050565b6000806040838503121561537257600080fd5b82356001600160401b0381111561538857600080fd5b8301601f8101851361539957600080fd5b803560206153a96151bb8361513f565b82815260059290921b830181019181810190888411156153c857600080fd5b938201935b838510156153ef5784356153e081615076565b825293820193908201906153cd565b98969091013596505050505050565b606081526000615411606083018661522e565b828103602084015261542381866152cf565b915050826040830152949350505050565b6000806040838503121561544757600080fd5b823561545281615076565b9150602083013561546281615076565b809150509250929050565b634e487b7160e01b600052602160045260246000fd5b600381106154a157634e487b7160e01b600052602160045260246000fd5b9052565b608081016154b38287615483565b846020830152836040830152821515606083015295945050505050565b6000602082840312156154e257600080fd5b813561167d81615076565b60008060006060848603121561550257600080fd5b505081359360208301359350604090920135919050565b60005b8381101561553457818101518382015260200161551c565b83811115611f7e5750506000910152565b6000815180845261555d816020860160208601615519565b601f01601f19169290920160200192915050565b600081518084526020808501945080840160005b83811015615267578151151587529582019590820190600101615585565b60c0815260006155b660c083018961522e565b6020838203818501526155c9828a61522e565b915083820360408501526155dd82896152cf565b915083820360608501528187518084528284019150828160051b850101838a0160005b8381101561562e57601f1987840301855261561c838351615545565b94860194925090850190600101615600565b50508681036080880152615642818a615571565b955050505050508260a0830152979650505050505050565b60008060006060848603121561566f57600080fd5b833561567a81615076565b925060208401356003811061568e57600080fd5b929592945050506040919091013590565b6000806000606084860312156156b457600080fd5b83356156bf81615076565b95602085013595506040909401359392505050565b60a0808252865190820181905260009060209060c0840190828a01845b8281101561571457615704848351615483565b92840192908401906001016156f1565b5050508381038285015261572881896152cf565b915050828103604084015261573d81876152cf565b9050828103606084015261534c8186615571565b60018060a01b038716815285151560208201528415156040820152831515606082015282608082015260c060a0820152600061579060c0830184615545565b98975050505050505050565b6000806000606084860312156157b157600080fd5b83356157bc81615076565b9250602084013561568e81615076565b6001600160a01b03858116825284166020820152604081018390526080606082018190526000906157ff90830184615545565b9695505050505050565b600181811c9082168061581d57607f821691505b6020821081141561583e57634e487b7160e01b600052602260045260246000fd5b50919050565b6040815260006158576040830186615545565b8281036020840152838152838560208301376000602085830101526020601f19601f860116820101915050949350505050565b6000610120828403121561589d57600080fd5b6158a56150e6565b825181526020830151602082015260408301516040820152606083015160608201526080830151608082015260a083015160a082015260c083015160c082015260e083015160e08201526101008084015181830152508091505092915050565b60006020828403121561591757600080fd5b5051919050565b8051801515811461592e57600080fd5b919050565b60006020828403121561594557600080fd5b61167d8261591e565b60208152600061167d60208301846152cf565b634e487b7160e01b600052601160045260246000fd5b6000821982111561598a5761598a615961565b500190565b634e487b7160e01b600052603260045260246000fd5b60006000198214156159b9576159b9615961565b5060010190565b6000828210156159d2576159d2615961565b500390565b600082601f8301126159e857600080fd5b815160206159f86151bb8361513f565b82815260059290921b84018101918181019086841115615a1757600080fd5b8286015b84811015615a3b578051615a2e81615076565b8352918301918301615a1b565b509695505050505050565b600082601f830112615a5757600080fd5b81516020615a676151bb8361513f565b82815260059290921b84018101918181019086841115615a8657600080fd5b8286015b84811015615a3b57615a9b8161591e565b8352918301918301615a8a565b600082601f830112615ab957600080fd5b81516020615ac96151bb8361513f565b82815260059290921b84018101918181019086841115615ae857600080fd5b8286015b84811015615a3b5780518352918301918301615aec565b6000601f8381840112615b1557600080fd5b82516020615b256151bb8361513f565b82815260059290921b85018101918181019087841115615b4457600080fd5b8287015b84811015613fe25780516001600160401b0380821115615b685760008081fd5b818a0191508a603f830112615b7d5760008081fd5b85820151604082821115615b9357615b936150d0565b615ba4828b01601f1916890161510f565b92508183528c81838601011115615bbb5760008081fd5b615bca82898501838701615519565b5050845250918301918301615b48565b600080600080600080600080610100898b031215615bf757600080fd5b88516001600160401b0380821115615c0e57600080fd5b615c1a8c838d016159d7565b995060208b0151915080821115615c3057600080fd5b615c3c8c838d016159d7565b985060408b0151915080821115615c5257600080fd5b615c5e8c838d01615a46565b975060608b0151915080821115615c7457600080fd5b615c808c838d01615a46565b965060808b0151915080821115615c9657600080fd5b615ca28c838d01615aa8565b955060a08b0151915080821115615cb857600080fd5b615cc48c838d01615b03565b945060c08b0151915080821115615cda57600080fd5b50615ce78b828c01615a46565b92505060e089015190509295985092959890939650565b60408101615d0c8285615483565b8260208301529392505050565b60008085851115615d2957600080fd5b83861115615d3657600080fd5b5050820193919092039150565b803560208310156110ba57600019602084900360031b1b1692915050565b6fffffffffffffffffffffffffffffffff198135818116916010851015615d925780818660100360031b1b83161692505b505092915050565b6000816000190483118215151615615db457615db4615961565b500290565b600082615dd657634e487b7160e01b600052601260045260246000fd5b500490565b600181815b808511156111ae578160001904821115615dfc57615dfc615961565b80851615615e0957918102915b93841c9390800290615de0565b600082615e25575060016110ba565b81615e32575060006110ba565b8160018114615e485760028114615e5257615e6e565b60019150506110ba565b60ff841115615e6357615e63615961565b50506001821b6110ba565b5060208310610133831016604e8410600b8410161715615e91575081810a6110ba565b615e9b8383615ddb565b8060001904821115615eaf57615eaf615961565b029392505050565b600061167d8383615e16565b602081016110ba8284615483565b600081615ee057615ee0615961565b50600019019056fea264697066735822122009bbb577a240e10f1214ce0204a6c87f40ff8318997cf612d3f7a2079ff775c464736f6c634300080c0033",
  "linkReferences": {},
  "deployedLinkReferences": {}
}