{
  "_format": "hh-sol-artifact-1",
  "contractName": "StakeManager",
  "sourceName": "contracts/StakeManager.sol",
  "abi": [
    {
      "inputs": [],
      "name": "AlreadyInitialized",
      "type": "error"
    },
    {
      "inputs": [],
      "name": "AlreadyJoined",
      "type": "error"
    },
    {
      "inputs": [],
      "name": "AmountMismatched",
      "type": "error"
    },
    {
      "inputs": [],
      "name": "EmptyAddress",
      "type": "error"
    },
    {
      "inputs": [],
      "name": "NoAmount",
      "type": "error"
    },
    {
      "inputs": [],
      "name": "NotZeroAmount",
      "type": "error"
    },
    {
      "inputs": [],
      "name": "OnlyBlockProducer",
      "type": "error"
    },
    {
      "inputs": [],
      "name": "OnlyNotLastBlock",
      "type": "error"
    },
    {
      "inputs": [],
      "name": "SameAsOwner",
      "type": "error"
    },
    {
      "inputs": [],
      "name": "StakerDoesNotExist",
      "type": "error"
    },
    {
      "inputs": [
        {
          "internalType": "enum Token.Type",
          "name": "token",
          "type": "uint8"
        }
      ],
      "name": "TransferFailed",
      "type": "error"
    },
    {
      "inputs": [],
      "name": "UnauthorizedSender",
      "type": "error"
    },
    {
      "inputs": [],
      "name": "UnauthorizedValidator",
      "type": "error"
    },
    {
      "inputs": [],
      "name": "UnknownToken",
      "type": "error"
    },
    {
      "inputs": [],
      "name": "ValidatorDoesNotExist",
      "type": "error"
    },
    {
      "anonymous": false,
      "inputs": [
        {
          "indexed": false,
          "internalType": "uint256",
          "name": "amount",
          "type": "uint256"
        }
      ],
      "name": "AddedRewardBalance",
      "type": "event"
    },
    {
      "anonymous": false,
      "inputs": [
        {
          "indexed": true,
          "internalType": "address",
          "name": "validator",
          "type": "address"
        },
        {
          "indexed": false,
          "internalType": "uint256",
          "name": "amount",
          "type": "uint256"
        }
      ],
      "name": "ClaimedCommissions",
      "type": "event"
    },
    {
      "anonymous": false,
      "inputs": [
        {
          "indexed": true,
          "internalType": "address",
          "name": "staker",
          "type": "address"
        },
        {
          "indexed": false,
          "internalType": "address",
          "name": "validator",
          "type": "address"
        },
        {
          "indexed": false,
          "internalType": "uint256",
          "name": "amount",
          "type": "uint256"
        }
      ],
      "name": "ClaimedRewards",
      "type": "event"
    },
    {
      "anonymous": false,
      "inputs": [
        {
          "indexed": true,
          "internalType": "address",
          "name": "validator",
          "type": "address"
        },
        {
          "indexed": false,
          "internalType": "address",
          "name": "oldOperator",
          "type": "address"
        },
        {
          "indexed": false,
          "internalType": "address",
          "name": "newOperator",
          "type": "address"
        }
      ],
      "name": "OperatorUpdated",
      "type": "event"
    },
    {
      "anonymous": false,
      "inputs": [
        {
          "indexed": true,
          "internalType": "address",
          "name": "staker",
          "type": "address"
        },
        {
          "indexed": true,
          "internalType": "address",
          "name": "validator",
          "type": "address"
        },
        {
          "indexed": false,
          "internalType": "enum Token.Type",
          "name": "token",
          "type": "uint8"
        },
        {
          "indexed": false,
          "internalType": "uint256",
          "name": "amount",
          "type": "uint256"
        }
      ],
      "name": "Staked",
      "type": "event"
    },
    {
      "anonymous": false,
      "inputs": [
        {
          "indexed": true,
          "internalType": "address",
          "name": "staker",
          "type": "address"
        },
        {
          "indexed": true,
          "internalType": "address",
          "name": "validator",
          "type": "address"
        },
        {
          "indexed": false,
          "internalType": "enum Token.Type",
          "name": "token",
          "type": "uint8"
        },
        {
          "indexed": false,
          "internalType": "uint256",
          "name": "amount",
          "type": "uint256"
        }
      ],
      "name": "Unstaked",
      "type": "event"
    },
    {
      "anonymous": false,
      "inputs": [
        {
          "indexed": true,
          "internalType": "address",
          "name": "validator",
          "type": "address"
        },
        {
          "indexed": false,
          "internalType": "uint256[]",
          "name": "epochs",
          "type": "uint256[]"
        }
      ],
      "name": "ValidatorActivated",
      "type": "event"
    },
    {
      "anonymous": false,
      "inputs": [
        {
          "indexed": true,
          "internalType": "address",
          "name": "validator",
          "type": "address"
        },
        {
          "indexed": false,
          "internalType": "uint256[]",
          "name": "epochs",
          "type": "uint256[]"
        }
      ],
      "name": "ValidatorDeactivated",
      "type": "event"
    },
    {
      "anonymous": false,
      "inputs": [
        {
          "indexed": true,
          "internalType": "address",
          "name": "validator",
          "type": "address"
        },
        {
          "indexed": false,
          "internalType": "uint256",
          "name": "until",
          "type": "uint256"
        }
      ],
      "name": "ValidatorJailed",
      "type": "event"
    },
    {
      "anonymous": false,
      "inputs": [
        {
          "indexed": false,
          "internalType": "address",
          "name": "validator",
          "type": "address"
        }
      ],
      "name": "ValidatorJoined",
      "type": "event"
    },
    {
      "anonymous": false,
      "inputs": [
        {
          "indexed": true,
          "internalType": "address",
          "name": "validator",
          "type": "address"
        }
      ],
      "name": "ValidatorSlashed",
      "type": "event"
    },
    {
      "inputs": [
        {
          "internalType": "address",
          "name": "validator",
          "type": "address"
        },
        {
          "internalType": "uint256[]",
          "name": "epochs",
          "type": "uint256[]"
        }
      ],
      "name": "activateValidator",
      "outputs": [],
      "stateMutability": "nonpayable",
      "type": "function"
    },
    {
      "inputs": [],
      "name": "addRewardBalance",
      "outputs": [],
      "stateMutability": "payable",
      "type": "function"
    },
    {
      "inputs": [],
      "name": "allowlist",
      "outputs": [
        {
          "internalType": "contract IAllowlist",
          "name": "",
          "type": "address"
        }
      ],
      "stateMutability": "view",
      "type": "function"
    },
    {
      "inputs": [
        {
          "internalType": "address",
          "name": "validator",
          "type": "address"
        },
        {
          "internalType": "uint256",
          "name": "epochs",
          "type": "uint256"
        }
      ],
      "name": "claimCommissions",
      "outputs": [],
      "stateMutability": "nonpayable",
      "type": "function"
    },
    {
      "inputs": [
        {
          "internalType": "address",
          "name": "staker",
          "type": "address"
        },
        {
          "internalType": "address",
          "name": "validator",
          "type": "address"
        },
        {
          "internalType": "uint256",
          "name": "epochs",
          "type": "uint256"
        }
      ],
      "name": "claimRewards",
      "outputs": [],
      "stateMutability": "nonpayable",
      "type": "function"
    },
    {
      "inputs": [
        {
          "internalType": "address",
          "name": "staker",
          "type": "address"
        }
      ],
      "name": "claimUnstakes",
      "outputs": [],
      "stateMutability": "nonpayable",
      "type": "function"
    },
    {
      "inputs": [
        {
          "internalType": "address",
          "name": "validator",
          "type": "address"
        },
        {
          "internalType": "uint256[]",
          "name": "epochs",
          "type": "uint256[]"
        }
      ],
      "name": "deactivateValidator",
      "outputs": [],
      "stateMutability": "nonpayable",
      "type": "function"
    },
    {
      "inputs": [],
      "name": "environment",
      "outputs": [
        {
          "internalType": "contract IEnvironment",
          "name": "",
          "type": "address"
        }
      ],
      "stateMutability": "view",
      "type": "function"
    },
    {
      "inputs": [
        {
          "internalType": "address",
          "name": "validator",
          "type": "address"
        },
        {
          "internalType": "uint256",
          "name": "epoch",
          "type": "uint256"
        }
      ],
      "name": "getBlockAndSlashes",
      "outputs": [
        {
          "internalType": "uint256",
          "name": "blocks",
          "type": "uint256"
        },
        {
          "internalType": "uint256",
          "name": "slashes",
          "type": "uint256"
        }
      ],
      "stateMutability": "view",
      "type": "function"
    },
    {
      "inputs": [
        {
          "internalType": "address",
          "name": "validator",
          "type": "address"
        },
        {
          "internalType": "uint256",
          "name": "epochs",
          "type": "uint256"
        }
      ],
      "name": "getCommissions",
      "outputs": [
        {
          "internalType": "uint256",
          "name": "commissions",
          "type": "uint256"
        }
      ],
      "stateMutability": "view",
      "type": "function"
    },
    {
      "inputs": [
        {
          "internalType": "address",
          "name": "staker",
          "type": "address"
        },
        {
          "internalType": "address",
          "name": "validator",
          "type": "address"
        },
        {
          "internalType": "uint256",
          "name": "epochs",
          "type": "uint256"
        }
      ],
      "name": "getRewards",
      "outputs": [
        {
          "internalType": "uint256",
          "name": "rewards",
          "type": "uint256"
        }
      ],
      "stateMutability": "view",
      "type": "function"
    },
    {
      "inputs": [
        {
          "internalType": "address",
          "name": "staker",
          "type": "address"
        },
        {
          "internalType": "uint256",
          "name": "epoch",
          "type": "uint256"
        },
        {
          "internalType": "uint256",
          "name": "cursor",
          "type": "uint256"
        },
        {
          "internalType": "uint256",
          "name": "howMany",
          "type": "uint256"
        }
      ],
      "name": "getStakerStakes",
      "outputs": [
        {
          "internalType": "address[]",
          "name": "_validators",
          "type": "address[]"
        },
        {
          "internalType": "uint256[]",
          "name": "oasStakes",
          "type": "uint256[]"
        },
        {
          "internalType": "uint256[]",
          "name": "woasStakes",
          "type": "uint256[]"
        },
        {
          "internalType": "uint256[]",
          "name": "soasStakes",
          "type": "uint256[]"
        },
        {
          "internalType": "uint256",
          "name": "newCursor",
          "type": "uint256"
        }
      ],
      "stateMutability": "view",
      "type": "function"
    },
    {
      "inputs": [
        {
          "internalType": "uint256",
          "name": "cursor",
          "type": "uint256"
        },
        {
          "internalType": "uint256",
          "name": "howMany",
          "type": "uint256"
        }
      ],
      "name": "getStakers",
      "outputs": [
        {
          "internalType": "address[]",
          "name": "_stakers",
          "type": "address[]"
        },
        {
          "internalType": "uint256",
          "name": "newCursor",
          "type": "uint256"
        }
      ],
      "stateMutability": "view",
      "type": "function"
    },
    {
      "inputs": [
        {
          "internalType": "address[]",
          "name": "_validators",
          "type": "address[]"
        },
        {
          "internalType": "uint256",
          "name": "epochs",
          "type": "uint256"
        }
      ],
      "name": "getTotalRewards",
      "outputs": [
        {
          "internalType": "uint256",
          "name": "rewards",
          "type": "uint256"
        }
      ],
      "stateMutability": "view",
      "type": "function"
    },
    {
      "inputs": [
        {
          "internalType": "uint256",
          "name": "epoch",
          "type": "uint256"
        }
      ],
      "name": "getTotalStake",
      "outputs": [
        {
          "internalType": "uint256",
          "name": "amounts",
          "type": "uint256"
        }
      ],
      "stateMutability": "view",
      "type": "function"
    },
    {
      "inputs": [
        {
          "internalType": "address",
          "name": "staker",
          "type": "address"
        }
      ],
      "name": "getUnstakes",
      "outputs": [
        {
          "internalType": "uint256",
          "name": "oasUnstakes",
          "type": "uint256"
        },
        {
          "internalType": "uint256",
          "name": "woasUnstakes",
          "type": "uint256"
        },
        {
          "internalType": "uint256",
          "name": "soasUnstakes",
          "type": "uint256"
        }
      ],
      "stateMutability": "view",
      "type": "function"
    },
    {
      "inputs": [
        {
          "internalType": "address",
          "name": "validator",
          "type": "address"
        },
        {
          "internalType": "uint256",
          "name": "epoch",
          "type": "uint256"
        }
      ],
      "name": "getValidatorInfo",
      "outputs": [
        {
          "internalType": "address",
          "name": "operator",
          "type": "address"
        },
        {
          "internalType": "bool",
          "name": "active",
          "type": "bool"
        },
        {
          "internalType": "bool",
          "name": "jailed",
          "type": "bool"
        },
        {
          "internalType": "bool",
          "name": "candidate",
          "type": "bool"
        },
        {
          "internalType": "uint256",
          "name": "stakes",
          "type": "uint256"
        }
      ],
      "stateMutability": "view",
      "type": "function"
    },
    {
      "inputs": [
        {
          "internalType": "uint256",
          "name": "cursor",
          "type": "uint256"
        },
        {
          "internalType": "uint256",
          "name": "howMany",
          "type": "uint256"
        }
      ],
      "name": "getValidatorOwners",
      "outputs": [
        {
          "internalType": "address[]",
          "name": "owners",
          "type": "address[]"
        },
        {
          "internalType": "uint256",
          "name": "newCursor",
          "type": "uint256"
        }
      ],
      "stateMutability": "view",
      "type": "function"
    },
    {
      "inputs": [
        {
          "internalType": "address",
          "name": "validator",
          "type": "address"
        },
        {
          "internalType": "uint256",
          "name": "epoch",
          "type": "uint256"
        },
        {
          "internalType": "uint256",
          "name": "cursor",
          "type": "uint256"
        },
        {
          "internalType": "uint256",
          "name": "howMany",
          "type": "uint256"
        }
      ],
      "name": "getValidatorStakes",
      "outputs": [
        {
          "internalType": "address[]",
          "name": "_stakers",
          "type": "address[]"
        },
        {
          "internalType": "uint256[]",
          "name": "stakes",
          "type": "uint256[]"
        },
        {
          "internalType": "uint256",
          "name": "newCursor",
          "type": "uint256"
        }
      ],
      "stateMutability": "view",
      "type": "function"
    },
    {
      "inputs": [
        {
          "internalType": "uint256",
          "name": "epoch",
          "type": "uint256"
        },
        {
          "internalType": "uint256",
          "name": "cursor",
          "type": "uint256"
        },
        {
          "internalType": "uint256",
          "name": "howMany",
          "type": "uint256"
        }
      ],
      "name": "getValidators",
      "outputs": [
        {
          "internalType": "address[]",
          "name": "owners",
          "type": "address[]"
        },
        {
          "internalType": "address[]",
          "name": "operators",
          "type": "address[]"
        },
        {
          "internalType": "uint256[]",
          "name": "stakes",
          "type": "uint256[]"
        },
        {
          "internalType": "bool[]",
          "name": "candidates",
          "type": "bool[]"
        },
        {
          "internalType": "uint256",
          "name": "newCursor",
          "type": "uint256"
        }
      ],
      "stateMutability": "view",
      "type": "function"
    },
    {
      "inputs": [
        {
          "internalType": "contract IEnvironment",
          "name": "_environment",
          "type": "address"
        },
        {
          "internalType": "contract IAllowlist",
          "name": "_allowlist",
          "type": "address"
        }
      ],
      "name": "initialize",
      "outputs": [],
      "stateMutability": "nonpayable",
      "type": "function"
    },
    {
      "inputs": [],
      "name": "initialized",
      "outputs": [
        {
          "internalType": "bool",
          "name": "",
          "type": "bool"
        }
      ],
      "stateMutability": "view",
      "type": "function"
    },
    {
      "inputs": [
        {
          "internalType": "address",
          "name": "operator",
          "type": "address"
        }
      ],
      "name": "joinValidator",
      "outputs": [],
      "stateMutability": "nonpayable",
      "type": "function"
    },
    {
      "inputs": [
        {
          "internalType": "address",
          "name": "",
          "type": "address"
        }
      ],
      "name": "operatorToOwner",
      "outputs": [
        {
          "internalType": "address",
          "name": "",
          "type": "address"
        }
      ],
      "stateMutability": "view",
      "type": "function"
    },
    {
      "inputs": [
        {
          "internalType": "address",
          "name": "operator",
          "type": "address"
        },
        {
          "internalType": "uint256",
          "name": "blocks",
          "type": "uint256"
        }
      ],
      "name": "slash",
      "outputs": [],
      "stateMutability": "nonpayable",
      "type": "function"
    },
    {
      "inputs": [
        {
          "internalType": "address",
          "name": "validator",
          "type": "address"
        },
        {
          "internalType": "enum Token.Type",
          "name": "token",
          "type": "uint8"
        },
        {
          "internalType": "uint256",
          "name": "amount",
          "type": "uint256"
        }
      ],
      "name": "stake",
      "outputs": [],
      "stateMutability": "payable",
      "type": "function"
    },
    {
      "inputs": [
        {
          "internalType": "uint256",
          "name": "",
          "type": "uint256"
        }
      ],
      "name": "stakeAmounts",
      "outputs": [
        {
          "internalType": "uint256",
          "name": "",
          "type": "uint256"
        }
      ],
      "stateMutability": "view",
      "type": "function"
    },
    {
      "inputs": [
        {
          "internalType": "uint256",
          "name": "",
          "type": "uint256"
        }
      ],
      "name": "stakeUpdates",
      "outputs": [
        {
          "internalType": "uint256",
          "name": "",
          "type": "uint256"
        }
      ],
      "stateMutability": "view",
      "type": "function"
    },
    {
      "inputs": [
        {
          "internalType": "uint256",
          "name": "",
          "type": "uint256"
        }
      ],
      "name": "stakerSigners",
      "outputs": [
        {
          "internalType": "address",
          "name": "",
          "type": "address"
        }
      ],
      "stateMutability": "view",
      "type": "function"
    },
    {
      "inputs": [
        {
          "internalType": "address",
          "name": "",
          "type": "address"
        }
      ],
      "name": "stakers",
      "outputs": [
        {
          "internalType": "address",
          "name": "signer",
          "type": "address"
        }
      ],
      "stateMutability": "view",
      "type": "function"
    },
    {
      "inputs": [
        {
          "internalType": "address",
          "name": "validator",
          "type": "address"
        },
        {
          "internalType": "enum Token.Type",
          "name": "token",
          "type": "uint8"
        },
        {
          "internalType": "uint256",
          "name": "amount",
          "type": "uint256"
        }
      ],
      "name": "unstake",
      "outputs": [],
      "stateMutability": "nonpayable",
      "type": "function"
    },
    {
      "inputs": [
        {
          "internalType": "address",
          "name": "operator",
          "type": "address"
        }
      ],
      "name": "updateOperator",
      "outputs": [],
      "stateMutability": "nonpayable",
      "type": "function"
    },
    {
      "inputs": [
        {
          "internalType": "uint256",
          "name": "",
          "type": "uint256"
        }
      ],
      "name": "validatorOwners",
      "outputs": [
        {
          "internalType": "address",
          "name": "",
          "type": "address"
        }
      ],
      "stateMutability": "view",
      "type": "function"
    },
    {
      "inputs": [
        {
          "internalType": "address",
          "name": "",
          "type": "address"
        }
      ],
      "name": "validators",
      "outputs": [
        {
          "internalType": "address",
          "name": "owner",
          "type": "address"
        },
        {
          "internalType": "address",
          "name": "operator",
          "type": "address"
        },
        {
          "internalType": "uint256",
          "name": "lastClaimCommission",
          "type": "uint256"
        }
      ],
      "stateMutability": "view",
      "type": "function"
    }
  ],
  "bytecode": "0x608060405234801561001057600080fd5b50614c47806100206000396000f3fe6080604052600436106101f95760003560e01c8063724319911161010d578063ad71bd36116100a0578063e1aca3411161006f578063e1aca34114610688578063f3621e43146106a8578063f65a5ed2146106c8578063f8d6b1ab146106e8578063fa52c7d81461070857600080fd5b8063ad71bd36146105d0578063cbc0fac6146105f0578063d1f18ee114610610578063dbd61d871461066857600080fd5b806388325234116100dc57806388325234146105375780639043150b146105725780639168ae721461057a578063ac7475ed146105b057600080fd5b8063724319911461049857806374e2b63c146104c95780637b520aa8146104ee5780637befa74f1461052457600080fd5b80632b42ed8c1161019057806345367f231161015f57806345367f23146103e957806346dfce7b14610409578063485cc955146104385780635efc766e146104585780636b2b33691461047857600080fd5b80632b42ed8c146103405780632b47da521461037157806333f32d78146103a9578063428e8562146103c957600080fd5b8063195afea1116101cc578063195afea11461029d5780631c1b4f3a146102bd5780632168e8b4146102dd578063222263671461030b57600080fd5b806302fb4d85146101fe578063158ef93e146102205780631903cf161461024f578063190b92571461026f575b600080fd5b34801561020a57600080fd5b5061021e610219366004614408565b610777565b005b34801561022c57600080fd5b5060005461023a9060ff1681565b60405190151581526020015b60405180910390f35b34801561025b57600080fd5b5061021e61026a3660046144c6565b61097d565b34801561027b57600080fd5b5061028f61028a366004614570565b610b76565b604051908152602001610246565b3480156102a957600080fd5b5061028f6102b8366004614408565b610b97565b3480156102c957600080fd5b5061028f6102d8366004614570565b610bce565b3480156102e957600080fd5b506102fd6102f8366004614589565b610bde565b6040516102469291906145ef565b34801561031757600080fd5b5061032b610326366004614408565b610cc4565b60408051928352602083019190915201610246565b34801561034c57600080fd5b5061036061035b366004614611565b610d92565b60405161024695949392919061467c565b34801561037d57600080fd5b50600154610391906001600160a01b031681565b6040516001600160a01b039091168152602001610246565b3480156103b557600080fd5b5061028f6103c43660046146dc565b6110df565b3480156103d557600080fd5b5061021e6103e43660046144c6565b61129e565b3480156103f557600080fd5b5061028f610404366004614570565b611497565b34801561041557600080fd5b50610429610424366004614611565b61152d565b6040516102469392919061477b565b34801561044457600080fd5b5061021e6104533660046147b1565b61178a565b34801561046457600080fd5b50610391610473366004614570565b611809565b34801561048457600080fd5b5061021e6104933660046147ea565b611833565b3480156104a457600080fd5b506104b86104b3366004614807565b61197b565b604051610246959493929190614833565b3480156104d557600080fd5b506000546103919061010090046001600160a01b031681565b3480156104fa57600080fd5b506103916105093660046147ea565b6006602052600090815260409020546001600160a01b031681565b61021e6105323660046148bc565b611d37565b34801561054357600080fd5b506105576105523660046147ea565b611faf565b60408051938452602084019290925290820152606001610246565b61021e61202f565b34801561058657600080fd5b506103916105953660046147ea565b6007602052600090815260409020546001600160a01b031681565b3480156105bc57600080fd5b5061021e6105cb3660046147ea565b612064565b3480156105dc57600080fd5b506102fd6105eb366004614589565b61212b565b3480156105fc57600080fd5b5061021e61060b366004614408565b612209565b34801561061c57600080fd5b5061063061062b366004614408565b6122bb565b604080516001600160a01b0390961686529315156020860152911515928401929092529015156060830152608082015260a001610246565b34801561067457600080fd5b5061028f610683366004614901565b61244b565b34801561069457600080fd5b5061021e6106a33660046148bc565b612493565b3480156106b457600080fd5b5061021e6106c3366004614901565b6126cd565b3480156106d457600080fd5b506103916106e3366004614570565b6127d0565b3480156106f457600080fd5b5061021e6107033660046147ea565b6127e0565b34801561071457600080fd5b506107516107233660046147ea565b6004602052600090815260409020805460018201546006909201546001600160a01b03918216929091169083565b604080516001600160a01b03948516815293909216602084015290820152606001610246565b6001600160a01b0380831660009081526006602090815260408083205484168084526004909252909120549091166107c2576040516372898ae960e11b815260040160405180910390fd5b3341146107e257604051631cf4735960e01b815260040160405180910390fd5b6001600160a01b038084166000908152600660209081526040808320548416835260049182905280832083548251633fa4f24560e01b8152925191956108f5946101009092041692633fa4f2459281830192610120928290030181865afa158015610851573d6000803e3d6000fd5b505050506040513d601f19601f820116820180604052508101906108759190614931565b600060019054906101000a90046001600160a01b03166001600160a01b031663900cf0cf6040518163ffffffff1660e01b8152600401602060405180830381865afa1580156108c8573d6000803e3d6000fd5b505050506040513d601f19601f820116820180604052508101906108ec91906149ac565b8491908761284a565b82546040519192506001600160a01b0316907f1647efd0ce9727dc31dc201c9d8d35ac687f7370adcacbd454afc6485ddabfda90600090a280156109765781546040518281526001600160a01b03909116907feb7d7a49847ec491969db21a0e31b234565a9923145a2d1b56a75c9e95825802906020015b60405180910390a25b5050505050565b6001600160a01b038281166000908152600460205260409020805484921633148015906109b7575060018101546001600160a01b03163314155b156109d557604051630101292160e31b815260040160405180910390fd5b6001600160a01b03808516600090815260046020526040902054859116610a0f576040516372898ae960e11b815260040160405180910390fd5b600060019054906101000a90046001600160a01b03166001600160a01b031663d4a536866040518163ffffffff1660e01b8152600401602060405180830381865afa158015610a62573d6000803e3d6000fd5b505050506040513d601f19601f82011682018060405250810190610a8691906149c5565b15610aa457604051631e59ccd960e01b815260040160405180910390fd5b610b3d600060019054906101000a90046001600160a01b03166001600160a01b031663900cf0cf6040518163ffffffff1660e01b8152600401602060405180830381865afa158015610afa573d6000803e3d6000fd5b505050506040513d601f19601f82011682018060405250810190610b1e91906149ac565b6001600160a01b03871660009081526004602052604090209086612932565b846001600160a01b03167fc11dfc9c24621433bb10587dc4bbae26a33a4aff53914e0d4c9fddf224a8cb7d8560405161096d91906149e7565b60028181548110610b8657600080fd5b600091825260209091200154905081565b600080546001600160a01b038481168352600460205260408320610bc49290916101009091041684612944565b5090505b92915050565b60038181548110610b8657600080fd5b60606000610bf28484600580549050612ad7565b9093509050826001600160401b03811115610c0f57610c0f614434565b604051908082528060200260200182016040528015610c38578160200160208202803683370190505b50915060005b83811015610cbc576005610c528287614a10565b81548110610c6257610c62614a28565b9060005260206000200160009054906101000a90046001600160a01b0316838281518110610c9257610c92614a28565b6001600160a01b039092166020928302919091019091015280610cb481614a3e565b915050610c3e565b509250929050565b600080610d8760008411610d4e57600060019054906101000a90046001600160a01b03166001600160a01b031663900cf0cf6040518163ffffffff1660e01b8152600401602060405180830381865afa158015610d25573d6000803e3d6000fd5b505050506040513d601f19601f82011682018060405250810190610d4991906149ac565b610d50565b835b6001600160a01b038616600090815260046020908152604080832093835260098401825280832054600a9094019091529020549091565b909590945092505050565b6001600160a01b038416600090815260076020526040812060609182918291829188610e3457600060019054906101000a90046001600160a01b03166001600160a01b031663900cf0cf6040518163ffffffff1660e01b8152600401602060405180830381865afa158015610e0b573d6000803e3d6000fd5b505050506040513d601f19601f82011682018060405250810190610e2f91906149ac565b610e36565b885b9850610e488888600580549050612ad7565b9097509150866001600160401b03811115610e6557610e65614434565b604051908082528060200260200182016040528015610e8e578160200160208202803683370190505b509550866001600160401b03811115610ea957610ea9614434565b604051908082528060200260200182016040528015610ed2578160200160208202803683370190505b509450866001600160401b03811115610eed57610eed614434565b604051908082528060200260200182016040528015610f16578160200160208202803683370190505b509350866001600160401b03811115610f3157610f31614434565b604051908082528060200260200182016040528015610f5a578160200160208202803683370190505b50925060005b878110156110d2576005610f74828b614a10565b81548110610f8457610f84614a28565b9060005260206000200160009054906101000a90046001600160a01b0316878281518110610fb457610fb4614a28565b60200260200101906001600160a01b031690816001600160a01b031681525050611005878281518110610fe957610fe9614a28565b602002602001015160008c85612b0e909392919063ffffffff16565b86828151811061101757611017614a28565b60200260200101818152505061105487828151811061103857611038614a28565b602002602001015160018c85612b0e909392919063ffffffff16565b85828151811061106657611066614a28565b6020026020010181815250506110a387828151811061108757611087614a28565b602002602001015160028c85612b0e909392919063ffffffff16565b8482815181106110b5576110b5614a28565b6020908102919091010152806110ca81614a3e565b915050610f60565b5050945094509450945094565b600080600183600060019054906101000a90046001600160a01b03166001600160a01b031663900cf0cf6040518163ffffffff1660e01b8152600401602060405180830381865afa158015611138573d6000803e3d6000fd5b505050506040513d601f19601f8201168201806040525081019061115c91906149ac565b6111669190614a59565b6111709190614a59565b845190915060005b848110156112955761118b600184614a10565b6000805460405163fcbb371b60e01b81526004810184905292955090916101009091046001600160a01b03169063fcbb371b9060240161012060405180830381865afa1580156111df573d6000803e3d6000fd5b505050506040513d601f19601f820116820180604052508101906112039190614931565b905060005b83811015611280576112628286600460008c868151811061122b5761122b614a28565b60200260200101516001600160a01b03166001600160a01b03168152602001908152602001600020612bcf9092919063ffffffff16565b61126c9087614a10565b95508061127881614a3e565b915050611208565b5050808061128d90614a3e565b915050611178565b50505092915050565b6001600160a01b038281166000908152600460205260409020805484921633148015906112d8575060018101546001600160a01b03163314155b156112f657604051630101292160e31b815260040160405180910390fd5b6001600160a01b03808516600090815260046020526040902054859116611330576040516372898ae960e11b815260040160405180910390fd5b600060019054906101000a90046001600160a01b03166001600160a01b031663d4a536866040518163ffffffff1660e01b8152600401602060405180830381865afa158015611383573d6000803e3d6000fd5b505050506040513d601f19601f820116820180604052508101906113a791906149c5565b156113c557604051631e59ccd960e01b815260040160405180910390fd5b61145e600060019054906101000a90046001600160a01b03166001600160a01b031663900cf0cf6040518163ffffffff1660e01b8152600401602060405180830381865afa15801561141b573d6000803e3d6000fd5b505050506040513d601f19601f8201168201806040525081019061143f91906149ac565b6001600160a01b03871660009081526004602052604090209086612d01565b846001600160a01b03167f0ad9bf1b8c026a174a2f30954417002a6ea00c9b08c1b8846c7951c687be80958560405161096d91906149e7565b600080821161151c57600060019054906101000a90046001600160a01b03166001600160a01b031663900cf0cf6040518163ffffffff1660e01b8152600401602060405180830381865afa1580156114f3573d6000803e3d6000fd5b505050506040513d601f19601f8201168201806040525081019061151791906149ac565b61151e565b815b9150610bc86002600384612d0e565b6001600160a01b03841660009081526004602052604081206060918291866115cb57600060019054906101000a90046001600160a01b03166001600160a01b031663900cf0cf6040518163ffffffff1660e01b8152600401602060405180830381865afa1580156115a2573d6000803e3d6000fd5b505050506040513d601f19601f820116820180604052508101906115c691906149ac565b6115cd565b865b96506115e186868360070180549050612ad7565b9095509150846001600160401b038111156115fe576115fe614434565b604051908082528060200260200182016040528015611627578160200160208202803683370190505b509350846001600160401b0381111561164257611642614434565b60405190808252806020026020018201604052801561166b578160200160208202803683370190505b50925060005b8581101561177e57600060078184820161168b858c614a10565b8154811061169b5761169b614a28565b60009182526020808320909101546001600160a01b039081168452908301939093526040909101902080548851919350909116908790849081106116e1576116e1614a28565b6001600160a01b03928316602091820292909201015283546117089183911660028c612b0e565b83546117219083906001600160a01b031660018d612b0e565b845461173a9084906001600160a01b031660008e612b0e565b6117449190614a10565b61174e9190614a10565b85838151811061176057611760614a28565b6020908102919091010152508061177681614a3e565b915050611671565b50509450945094915050565b3341146117aa57604051631cf4735960e01b815260040160405180910390fd5b60005460ff16156117cd5760405162dc149f60e41b815260040160405180910390fd5b6000805460016001600160a81b03199091166101006001600160a01b039586160217811790915580546001600160a01b03191691909216179055565b6005818154811061181957600080fd5b6000918252602090912001546001600160a01b0316905081565b60015460405163322433e360e01b81523360048201819052916001600160a01b03169063322433e390602401602060405180830381865afa15801561187c573d6000803e3d6000fd5b505050506040513d601f19601f820116820180604052508101906118a091906149c5565b6118bd5760405163423057c560e11b815260040160405180910390fd5b6001600160a01b03811660009081526004602052604090206118df9083612de0565b60058054600181019091557f036b6384b5eca791c62761152d0c79bb0604c104a5fb6f4eb0703f3154bb3db00180546001600160a01b038381166001600160a01b03199283168117909355841660009081526006602090815260409182902080549093168417909255519182527fd5828184f48f65962d10eac907318df85953d4e3542a0f09b5932ee3fe398bdd910160405180910390a15050565b606080606080600080600060019054906101000a90046001600160a01b03166001600160a01b031663900cf0cf6040518163ffffffff1660e01b8152600401602060405180830381865afa1580156119d7573d6000803e3d6000fd5b505050506040513d601f19601f820116820180604052508101906119fb91906149ac565b905060008911611a0b5780611a0d565b885b6000805460405163fcbb371b60e01b815260048101849052929b5090916101009091046001600160a01b03169063fcbb371b9060240161012060405180830381865afa158015611a61573d6000803e3d6000fd5b505050506040513d601f19601f82011682018060405250810190611a859190614931565b9050611a978989600580549050612ad7565b9098509250876001600160401b03811115611ab457611ab4614434565b604051908082528060200260200182016040528015611add578160200160208202803683370190505b509650876001600160401b03811115611af857611af8614434565b604051908082528060200260200182016040528015611b21578160200160208202803683370190505b509550876001600160401b03811115611b3c57611b3c614434565b604051908082528060200260200182016040528015611b65578160200160208202803683370190505b509450876001600160401b03811115611b8057611b80614434565b604051908082528060200260200182016040528015611ba9578160200160208202803683370190505b50935060005b88811015611d295760006004816005611bc8858f614a10565b81548110611bd857611bd8614a28565b60009182526020808320909101546001600160a01b039081168452908301939093526040909101902080548b51919350909116908a9084908110611c1e57611c1e614a28565b6001600160a01b03928316602091820292909201015260018201548951911690899084908110611c5057611c50614a28565b6001600160a01b0390921660209283029190910190910152611c72818d612e22565b878381518110611c8457611c84614a28565b6020908102919091010152611cad818d6000908152600291909101602052604090205460ff1690565b158015611ccb575060008c815260038201602052604090205460ff16155b8015611cf457508260c00151878381518110611ce957611ce9614a28565b602002602001015110155b868381518110611d0657611d06614a28565b911515602092830291909101909101525080611d2181614a3e565b915050611baf565b505050939792965093509350565b6001600160a01b03808416600090815260046020526040902054849116611d71576040516372898ae960e11b815260040160405180910390fd5b600060019054906101000a90046001600160a01b03166001600160a01b031663d4a536866040518163ffffffff1660e01b8152600401602060405180830381865afa158015611dc4573d6000803e3d6000fd5b505050506040513d601f19601f82011682018060405250810190611de891906149c5565b15611e0657604051631e59ccd960e01b815260040160405180910390fd5b81611e2457604051637bc90c0560e11b815260040160405180910390fd5b611eb56003600060019054906101000a90046001600160a01b03166001600160a01b031663900cf0cf6040518163ffffffff1660e01b8152600401602060405180830381865afa158015611e7c573d6000803e3d6000fd5b505050506040513d601f19601f82011682018060405250810190611ea091906149ac565b611eab906001614a10565b6002919085612e35565b611ec0833384612e86565b33600090815260076020526040902080546001600160a01b0316611f2c578054336001600160a01b031991821681178355600880546001810182556000919091527ff3f7a9fe364faab93b216da50a3214154f22a0a2b415b23a84c8169e8b636ee30180549092161790555b600080546001600160a01b03878116835260046020526040909220611f5b928492610100900416908787612f97565b846001600160a01b0316336001600160a01b03167f8fc656e319452025372383dc27d933046d412b8253de50a10739eeaa59862be68686604051611fa0929190614aa8565b60405180910390a35050505050565b6001600160a01b038082166000908152600760205260408120815491928392839291611fe491839161010090910416846130ca565b60005490945061200590829061010090046001600160a01b031660016130ca565b60005490935061202690829061010090046001600160a01b031660026130ca565b93959294505050565b6040513481527f1de49774d094a85fc1bbbd16e8d09a865fb848218f41e2da4369f528c42ee42e9060200160405180910390a1565b336000818152600460205260409020546001600160a01b031661209a576040516372898ae960e11b815260040160405180910390fd5b33600081815260046020526040902060018101546001600160a01b03166120c182866132f0565b6001600160a01b0385811660008181526006602090815260409182902080546001600160a01b031916888616908117909155825194861685529084019290925290917f758820d0b14a01c1fa60b8d2bbef25ed1b6a5af4802e5dec3f08679255ba8bf3910161096d565b6060600061213f8484600880549050612ad7565b9093509050826001600160401b0381111561215c5761215c614434565b604051908082528060200260200182016040528015612185578160200160208202803683370190505b50915060005b83811015610cbc57600861219f8287614a10565b815481106121af576121af614a28565b9060005260206000200160009054906101000a90046001600160a01b03168382815181106121df576121df614a28565b6001600160a01b03909216602092830291909101909101528061220181614a3e565b91505061218b565b6001600160a01b03808316600090815260046020526040902054839116612243576040516372898ae960e11b815260040160405180910390fd5b600080546001600160a01b038581168352600460205260408320612270929091610100909104168561336a565b9050836001600160a01b03167f882d5671e5b36af50883197c33d48ba56ce337589958e871ba82fb0a54adf3e8826040516122ad91815260200190565b60405180910390a250505050565b600080600080600080600060019054906101000a90046001600160a01b03166001600160a01b031663900cf0cf6040518163ffffffff1660e01b8152600401602060405180830381865afa158015612317573d6000803e3d6000fd5b505050506040513d601f19601f8201168201806040525081019061233b91906149ac565b90506000871161234b578061234d565b865b6000805460405163fcbb371b60e01b81526004810184905292995090916101009091046001600160a01b03169063fcbb371b9060240161012060405180830381865afa1580156123a1573d6000803e3d6000fd5b505050506040513d601f19601f820116820180604052508101906123c59190614931565b6001600160a01b038a1660009081526004602090815260408083208c8452600281018352818420546003820190935292205460ff91821615995016965090915061240f818a612e22565b935086801561241c575085155b801561242c57508160c001518410155b6001909101546001600160a01b03169750935050509295509295909350565b600080546001600160a01b0384811683526004602090815260408085208884168652600790925284206124889390926101009091041690856133a4565b5090505b9392505050565b6001600160a01b038084166000908152600460205260409020548491166124cd576040516372898ae960e11b815260040160405180910390fd5b336000818152600760205260409020546001600160a01b03166125035760405163cf83d93d60e01b815260040160405180910390fd5b600060019054906101000a90046001600160a01b03166001600160a01b031663d4a536866040518163ffffffff1660e01b8152600401602060405180830381865afa158015612556573d6000803e3d6000fd5b505050506040513d601f19601f8201168201806040525081019061257a91906149c5565b1561259857604051631e59ccd960e01b815260040160405180910390fd5b826125b657604051637bc90c0560e11b815260040160405180910390fd5b6126476003600060019054906101000a90046001600160a01b03166001600160a01b031663900cf0cf6040518163ffffffff1660e01b8152600401602060405180830381865afa15801561260e573d6000803e3d6000fd5b505050506040513d601f19601f8201168201806040525081019061263291906149ac565b61263d906001614a10565b60029190866135ae565b50600080546001600160a01b03878116835260046020908152604080852033865260079092529093206126869390926101009004909116908787613647565b9250846001600160a01b0316336001600160a01b03167ff2812c3df2511a467cbe777b1ee98b1ddb9918bb0f09568a269d2fb58233cb528686604051611fa0929190614aa8565b6001600160a01b03808316600090815260046020526040902054839116612707576040516372898ae960e11b815260040160405180910390fd5b6001600160a01b038085166000908152600760205260409020548591166127415760405163cf83d93d60e01b815260040160405180910390fd5b600080546001600160a01b0386811683526004602090815260408085208a841686526007909252842061277e93909261010090910416908761383f565b604080516001600160a01b03888116825260208201849052929350918816917f2ef606d064225d24c1514dc94907c134faee1237445c2f63f410cce0852b2054910160405180910390a2505050505050565b6008818154811061181957600080fd5b6001600160a01b0380821660009081526007602052604090205482911661281a5760405163cf83d93d60e01b815260040160405180910390fd5b600080546001600160a01b03848116835260076020526040909220612846929091610100900416613891565b5050565b600082815260098501602052604081205461287357600083815260098601602052604090208290555b6000838152600a8601602052604081205461288f906001614a10565b6000858152600a88016020526040902081905560e086015190915081108015906128db57506003860160006128c5866001614a10565b815260208101919091526040016000205460ff16155b15612929576101008501516128f09085614a10565b91505b81841015612929578361290581614a3e565b60008181526003890160205260409020805460ff1916600117905594506128f39050565b50949350505050565b61293f83838360006138b5565b505050565b6000808460060154905060006001856001600160a01b031663900cf0cf6040518163ffffffff1660e01b8152600401602060405180830381865afa158015612990573d6000803e3d6000fd5b505050506040513d601f19601f820116820180604052508101906129b491906149ac565b6129be9190614a59565b90508315806129d55750806129d38386614a10565b115b156129e7576129e48282614a59565b93505b60005b84811015612acd576129fd600184614a10565b60405163fcbb371b60e01b8152600481018290529093506000906001600160a01b0388169063fcbb371b9060240161012060405180830381865afa158015612a49573d6000803e3d6000fd5b505050506040513d601f19601f82011682018060405250810190612a6d9190614931565b90506000612a7c898387612bcf565b905080612a8a575050612abb565b60a0820151612a9a575050612abb565b612aac818360a0015160646019613943565b612ab69087614a10565b955050505b80612ac581614a3e565b9150506129ea565b5050935093915050565b60008082612ae58587614a10565b10612af757612af48584614a59565b93505b83612b028187614a10565b91509150935093915050565b6000612bc4856002016000856002811115612b2b57612b2b614a70565b6002811115612b3c57612b3c614a70565b81526020019081526020016000206000866001600160a01b03166001600160a01b0316815260200190815260200160002083876001016000876002811115612b8657612b86614a70565b6002811115612b9757612b97614a70565b8152602080820192909252604090810160009081206001600160a01b038b16825290925290209190612d0e565b90505b949350505050565b600081815260028401602052604081205460ff1680612bfe5750600082815260038501602052604090205460ff165b15612c0b5750600061248c565b6000612c178584612e22565b905080612c2857600091505061248c565b6000612c366019600a614b9f565b612c4786608001516064601961396f565b612c519084614bab565b612c5b9190614bca565b905080612c6d5760009250505061248c565b612c9085606001518660400151612c849190614bab565b6301e13380601961396f565b612c9a9082614bab565b9050612ca86019600a614b9f565b612cb29082614bca565b6000858152600a880160205260409020549091508015612cf7576000858152600988016020526040902054612cf383612ceb8484614a59565b836019613943565b9250505b5095945050505050565b61293f83838360016138b5565b8254600090801580612d3c57508285600081548110612d2f57612d2f614a28565b9060005260206000200154115b15612d4b57600091505061248c565b8285612d58600184614a59565b81548110612d6857612d68614a28565b906000526020600020015411612da75783612d84600183614a59565b81548110612d9457612d94614a28565b906000526020600020015491505061248c565b6000612db686856000856139b5565b9050848181548110612dca57612dca614a28565b9060005260206000200154925050509392505050565b81546001600160a01b031615612e0857604051621d934160e11b815260040160405180910390fd5b81546001600160a01b0319163317825561284682826132f0565b600061248c600484016005850184612d0e565b612e40848484613a5d565b835481908490612e5290600190614a59565b81548110612e6257612e62614a28565b906000526020600020016000828254612e7b9190614a10565b909155505050505050565b6000836002811115612e9a57612e9a614a70565b1415612ec05780341461293f57604051630fe5b06560e11b815260040160405180910390fd5b3415612edf5760405163a745ac8560e01b815260040160405180910390fd5b6000612eea84613b15565b6040516323b872dd60e01b81526001600160a01b0385811660048301523060248301526044820185905291909116906323b872dd906064015b6020604051808303816000875af1158015612f42573d6000803e3d6000fd5b505050506040513d601f19601f82011682018060405250810190612f6691906149c5565b905080612f915783604051630db5347560e11b8152600401612f889190614bec565b60405180910390fd5b50505050565b6130b1856002016000846002811115612fb257612fb2614a70565b6002811115612fc357612fc3614a70565b81526020808201929092526040908101600090812087546001600160a01b03908116835290845290829020825163900cf0cf60e01b8152925190939189169263900cf0cf9260048083019391928290030181865afa158015613029573d6000803e3d6000fd5b505050506040513d601f19601f8201168201806040525081019061304d91906149ac565b613058906001614a10565b8388600101600087600281111561307157613071614a70565b600281111561308257613082614a70565b8152602080820192909252604090810160009081208a546001600160a01b031682529092529020929190612e35565b845461097690849086906001600160a01b031684613b80565b6000808460030160008460028111156130e5576130e5614a70565b60028111156130f6576130f6614a70565b815260208101919091526040016000205490508061311857600091505061248c565b6000846001600160a01b031663900cf0cf6040518163ffffffff1660e01b8152600401602060405180830381865afa158015613158573d6000803e3d6000fd5b505050506040513d601f19601f8201168201806040525081019061317c91906149ac565b9050600061318b600184614a59565b90506000811180156131ee5750818760030160008760028111156131b1576131b1614a70565b60028111156131c2576131c2614a70565b815260200190815260200160002082815481106131e1576131e1614a28565b9060005260206000200154115b1561320157806131fd81614bfa565b9150505b8187600301600087600281111561321a5761321a614a70565b600281111561322b5761322b614a70565b8152602001908152602001600020828154811061324a5761324a614a28565b90600052602060002001541115613267576000935050505061248c565b6000805b8281116132e45788600401600088600281111561328a5761328a614a70565b600281111561329b5761329b614a70565b815260200190815260200160002081815481106132ba576132ba614a28565b9060005260206000200154826132d09190614a10565b9150806132dc81614a3e565b91505061326b565b50979650505050505050565b6001600160a01b03811661331757604051637138356f60e01b815260040160405180910390fd5b81546001600160a01b03828116911614156133455760405163e037058f60e01b815260040160405180910390fd5b60019190910180546001600160a01b0319166001600160a01b03909216919091179055565b600080600061337a868686612944565b6006880181905590925090508115612488578554612488906000906001600160a01b031684613c6e565b81546001600160a01b039081166000908152600586016020908152604080832054815163900cf0cf60e01b81529151939490938593600193928a169263900cf0cf92600480830193928290030181865afa158015613406573d6000803e3d6000fd5b505050506040513d601f19601f8201168201806040525081019061342a91906149ac565b6134349190614a59565b905083158061344b5750806134498386614a10565b115b1561345d5761345a8282614a59565b93505b60005b848110156135a357613473600184614a10565b8654909350600090613492908a906001600160a01b0316600287612b0e565b87546134ab908b906001600160a01b0316600188612b0e565b88546134c4908c906001600160a01b0316600089612b0e565b6134ce9190614a10565b6134d89190614a10565b9050806134e55750613591565b60405163fcbb371b60e01b81526004810185905260009061355e906001600160a01b038b169063fcbb371b9060240161012060405180830381865afa158015613532573d6000803e3d6000fd5b505050506040513d601f19601f820116820180604052508101906135569190614931565b899087613d42565b90508061356c575050613591565b613582818361357b8b89612e22565b6019613943565b61358c9087614a10565b955050505b8061359b81614a3e565b915050613460565b505094509492505050565b60006135bb858585613a5d565b84546000856135cb600184614a59565b815481106135db576135db614a28565b90600052602060002001549050808411156135f657806135f8565b835b9350831561363c57838661360d600185614a59565b8154811061361d5761361d614a28565b9060005260206000200160008282546136369190614a59565b90915550505b509195945050505050565b600080856001600160a01b031663900cf0cf6040518163ffffffff1660e01b8152600401602060405180830381865afa158015613688573d6000803e3d6000fd5b505050506040513d601f19601f820116820180604052508101906136ac91906149ac565b85549091506000906136ca9089906001600160a01b03168785612b0e565b86549091506000906136f2908a906001600160a01b0316886136ed876001614a10565b612b0e565b90506137ab89600201600088600281111561370f5761370f614a70565b600281111561372057613720614a70565b8152602080820192909252604090810160009081208b546001600160a01b031682529092529020613752856001614a10565b878c60010160008b600281111561376b5761376b614a70565b600281111561377c5761377c614a70565b8152602080820192909252604090810160009081208e546001600160a01b0316825290925290209291906135ae565b9450846137be5760009350505050613836565b6137c9878987613d8d565b846000838311156137fe576137de8484614a59565b90508087106137ed57806137ef565b865b90506137fb8183614a59565b91505b8115613810576138108b8b8a85613e0d565b801561382d578a5461382d9089906001600160a01b031683613c6e565b86955050505050505b95945050505050565b6000806000613850878787876133a4565b86546001600160a01b0316600090815260058a016020526040902081905590925090508115612cf7578654612cf7906000906001600160a01b031684613c6e565b61389d8282600161404c565b6138a98282600261404c565b6128468282600061404c565b815160005b8181101561393b5760008482815181106138d6576138d6614a28565b6020026020010151905085811180156139065750600081815260028801602052604090205460ff16151584151514155b156139285760008181526002880160205260409020805460ff19168515151790555b508061393381614a3e565b9150506138ba565b505050505050565b600061395082600a614b9f565b61395b85858561396f565b6139659087614bab565b612bc49190614bca565b60008061397d836001614a10565b61398890600a614b9f565b6139929086614bab565b9050600a6139a08583614bca565b6139ab906005614a10565b6138369190614bca565b6000818314156139d1576139ca600183614a59565b9050612bc7565b600060026139df8486614a10565b6139e99190614bca565b9050848682815481106139fe576139fe614a28565b90600052602060002001541115613a2357613a1b868686846139b5565b915050612bc7565b84868281548110613a3657613a36614a28565b90600052602060002001541015612bc457613a1b8686613a57846001614a10565b866139b5565b825480613a8757508254600181810185556000948552602085209091019190915581540181559052565b600084613a95600184614a59565b81548110613aa557613aa5614a28565b906000526020600020015490508281146109765784546001818101875560008781526020902090910184905584908190613adf9085614a59565b81548110613aef57613aef614a28565b600091825260208083209091015483546001810185559383529120909101555050505050565b60006001826002811115613b2b57613b2b614a70565b1415613b3f57506001602960991b01919050565b6002826002811115613b5357613b53614a70565b1415613b6757506002602960991b01919050565b604051638698bf3760e01b815260040160405180910390fd5b6001600160a01b038216600090815260088501602052604090205460ff16613bee576001600160a01b038216600081815260088601602090815260408220805460ff191660019081179091556007880180549182018155835291200180546001600160a01b03191690911790555b612f9184600501846001600160a01b031663900cf0cf6040518163ffffffff1660e01b8152600401602060405180830381865afa158015613c33573d6000803e3d6000fd5b505050506040513d601f19601f82011682018060405250810190613c5791906149ac565b613c62906001614a10565b60048701919084612e35565b600080846002811115613c8357613c83614a70565b1415613ce2576040516001600160a01b038416908390600081818185875af1925050503d8060008114613cd2576040519150601f19603f3d011682016040523d82523d6000602084013e613cd7565b606091505b505080915050613d22565b613ceb84613b15565b60405163a9059cbb60e01b81526001600160a01b03858116600483015260248201859052919091169063a9059cbb90604401612f23565b80612f915783604051630db5347560e11b8152600401612f889190614bec565b600080613d50858585612bcf565b905080613d6157600091505061248c565b60a0840151613d7157905061248c565b613d83818560a0015160646019613943565b6138369082614a59565b612f9183600501836001600160a01b031663900cf0cf6040518163ffffffff1660e01b8152600401602060405180830381865afa158015613dd2573d6000803e3d6000fd5b505050506040513d601f19601f82011682018060405250810190613df691906149ac565b613e01906001614a10565b600486019190846135ae565b6000836001600160a01b031663900cf0cf6040518163ffffffff1660e01b8152600401602060405180830381865afa158015613e4d573d6000803e3d6000fd5b505050506040513d601f19601f82011682018060405250810190613e7191906149ac565b613e7c906001614a10565b90506000856003016000856002811115613e9857613e98614a70565b6002811115613ea957613ea9614a70565b81526020810191909152604001600020549050801580613f27575081866003016000866002811115613edd57613edd614a70565b6002811115613eee57613eee614a70565b8152602001908152602001600020600183613f099190614a59565b81548110613f1957613f19614a28565b906000526020600020015414155b15613fd157856003016000856002811115613f4457613f44614a70565b6002811115613f5557613f55614a70565b8152602080820192909252604001600090812080546001810182559082529181209091018390556004870190856002811115613f9357613f93614a70565b6002811115613fa457613fa4614a70565b8152602080820192909252604001600090812080546001810182559082529190200183905550612f919050565b82866004016000866002811115613fea57613fea614a70565b6002811115613ffb57613ffb614a70565b81526020019081526020016000206001836140169190614a59565b8154811061402657614026614a28565b90600052602060002001600082825461403f9190614a10565b9091555050505050505050565b60006140598484846130ca565b9050806140665750505050565b600084600301600084600281111561408057614080614a70565b600281111561409157614091614a70565b8152602001908152602001600020805490509050836001600160a01b031663900cf0cf6040518163ffffffff1660e01b8152600401602060405180830381865afa1580156140e3573d6000803e3d6000fd5b505050506040513d601f19601f8201168201806040525081019061410791906149ac565b85600301600085600281111561411f5761411f614a70565b600281111561413057614130614a70565b815260200190815260200160002060018361414b9190614a59565b8154811061415b5761415b614a28565b9060005260206000200154116141f65784600301600084600281111561418357614183614a70565b600281111561419457614194614a70565b815260200190815260200160002060006141ae9190614372565b8460040160008460028111156141c6576141c6614a70565b60028111156141d7576141d7614a70565b815260200190815260200160002060006141f19190614372565b61435b565b604051806020016040528086600301600086600281111561421957614219614a70565b600281111561422a5761422a614a70565b81526020019081526020016000206001846142459190614a59565b8154811061425557614255614a28565b906000526020600020015481525085600301600085600281111561427b5761427b614a70565b600281111561428c5761428c614a70565b815260208101919091526040016000206142a7916001614393565b5060405180602001604052808660040160008660028111156142cb576142cb614a70565b60028111156142dc576142dc614a70565b81526020019081526020016000206001846142f79190614a59565b8154811061430757614307614a28565b906000526020600020015481525085600401600085600281111561432d5761432d614a70565b600281111561433e5761433e614a70565b81526020810191909152604001600020614359916001614393565b505b84546109769084906001600160a01b031684613c6e565b508054600082559060005260206000209081019061439091906143de565b50565b8280548282559060005260206000209081019282156143ce579160200282015b828111156143ce5782518255916020019190600101906143b3565b506143da9291506143de565b5090565b5b808211156143da57600081556001016143df565b6001600160a01b038116811461439057600080fd5b6000806040838503121561441b57600080fd5b8235614426816143f3565b946020939093013593505050565b634e487b7160e01b600052604160045260246000fd5b60405161012081016001600160401b038111828210171561446d5761446d614434565b60405290565b604051601f8201601f191681016001600160401b038111828210171561449b5761449b614434565b604052919050565b60006001600160401b038211156144bc576144bc614434565b5060051b60200190565b600080604083850312156144d957600080fd5b82356144e4816143f3565b91506020838101356001600160401b0381111561450057600080fd5b8401601f8101861361451157600080fd5b803561452461451f826144a3565b614473565b81815260059190911b8201830190838101908883111561454357600080fd5b928401925b8284101561456157833582529284019290840190614548565b80955050505050509250929050565b60006020828403121561458257600080fd5b5035919050565b6000806040838503121561459c57600080fd5b50508035926020909101359150565b600081518084526020808501945080840160005b838110156145e45781516001600160a01b0316875295820195908201906001016145bf565b509495945050505050565b60408152600061460260408301856145ab565b90508260208301529392505050565b6000806000806080858703121561462757600080fd5b8435614632816143f3565b966020860135965060408601359560600135945092505050565b600081518084526020808501945080840160005b838110156145e457815187529582019590820190600101614660565b60a08152600061468f60a08301886145ab565b82810360208401526146a1818861464c565b905082810360408401526146b5818761464c565b905082810360608401526146c9818661464c565b9150508260808301529695505050505050565b600080604083850312156146ef57600080fd5b82356001600160401b0381111561470557600080fd5b8301601f8101851361471657600080fd5b8035602061472661451f836144a3565b82815260059290921b8301810191818101908884111561474557600080fd5b938201935b8385101561476c57843561475d816143f3565b8252938201939082019061474a565b98969091013596505050505050565b60608152600061478e60608301866145ab565b82810360208401526147a0818661464c565b915050826040830152949350505050565b600080604083850312156147c457600080fd5b82356147cf816143f3565b915060208301356147df816143f3565b809150509250929050565b6000602082840312156147fc57600080fd5b813561248c816143f3565b60008060006060848603121561481c57600080fd5b505081359360208301359350604090920135919050565b60a08152600061484660a08301886145ab565b60208382038185015261485982896145ab565b9150838203604085015261486d828861464c565b8481036060860152865180825282880193509082019060005b818110156148a4578451151583529383019391830191600101614886565b50508093505050508260808301529695505050505050565b6000806000606084860312156148d157600080fd5b83356148dc816143f3565b92506020840135600381106148f057600080fd5b929592945050506040919091013590565b60008060006060848603121561491657600080fd5b8335614921816143f3565b925060208401356148f0816143f3565b6000610120828403121561494457600080fd5b61494c61444a565b825181526020830151602082015260408301516040820152606083015160608201526080830151608082015260a083015160a082015260c083015160c082015260e083015160e08201526101008084015181830152508091505092915050565b6000602082840312156149be57600080fd5b5051919050565b6000602082840312156149d757600080fd5b8151801515811461248c57600080fd5b60208152600061248c602083018461464c565b634e487b7160e01b600052601160045260246000fd5b60008219821115614a2357614a236149fa565b500190565b634e487b7160e01b600052603260045260246000fd5b6000600019821415614a5257614a526149fa565b5060010190565b600082821015614a6b57614a6b6149fa565b500390565b634e487b7160e01b600052602160045260246000fd5b60038110614aa457634e487b7160e01b600052602160045260246000fd5b9052565b60408101614ab68285614a86565b8260208301529392505050565b600181815b80851115610cbc578160001904821115614ae457614ae46149fa565b80851615614af157918102915b93841c9390800290614ac8565b600082614b0d57506001610bc8565b81614b1a57506000610bc8565b8160018114614b305760028114614b3a57614b56565b6001915050610bc8565b60ff841115614b4b57614b4b6149fa565b50506001821b610bc8565b5060208310610133831016604e8410600b8410161715614b79575081810a610bc8565b614b838383614ac3565b8060001904821115614b9757614b976149fa565b029392505050565b600061248c8383614afe565b6000816000190483118215151615614bc557614bc56149fa565b500290565b600082614be757634e487b7160e01b600052601260045260246000fd5b500490565b60208101610bc88284614a86565b600081614c0957614c096149fa565b50600019019056fea26469706673582212205f926883f5ba045108b667c46a75c1d10523ca1f0a147c50e9da04438be700d764736f6c634300080c0033",
  "linkReferences": {},
  "deployedLinkReferences": {}
}