{
  "_format": "hh-sol-artifact-1",
  "contractName": "StakeManager",
  "sourceName": "contracts/StakeManager.sol",
  "abi": [
    {
      "inputs": [],
      "name": "AlreadyClaimed",
      "type": "error"
    },
    {
      "inputs": [],
      "name": "AlreadyInUse",
      "type": "error"
    },
    {
      "inputs": [],
      "name": "AlreadyInitialized",
      "type": "error"
    },
    {
      "inputs": [],
      "name": "AlreadyJoined",
      "type": "error"
    },
    {
      "inputs": [],
      "name": "AmountMismatched",
      "type": "error"
    },
    {
      "inputs": [],
      "name": "EmptyAddress",
      "type": "error"
    },
    {
      "inputs": [],
      "name": "Locked",
      "type": "error"
    },
    {
      "inputs": [],
      "name": "NoAmount",
      "type": "error"
    },
    {
      "inputs": [],
      "name": "NotZeroAmount",
      "type": "error"
    },
    {
      "inputs": [],
      "name": "ObsoletedMethod",
      "type": "error"
    },
    {
      "inputs": [],
      "name": "OnlyBlockProducer",
      "type": "error"
    },
    {
      "inputs": [],
      "name": "OnlyNotLastBlock",
      "type": "error"
    },
    {
      "inputs": [],
      "name": "PastEpoch",
      "type": "error"
    },
    {
      "inputs": [],
      "name": "SameAsOwner",
      "type": "error"
    },
    {
      "inputs": [],
      "name": "SameAsValidatorId",
      "type": "error"
    },
    {
      "inputs": [],
      "name": "StakerDoesNotExist",
      "type": "error"
    },
    {
      "inputs": [
        {
          "internalType": "enum Token.Type",
          "name": "token",
          "type": "uint8"
        }
      ],
      "name": "TransferFailed",
      "type": "error"
    },
    {
      "inputs": [],
      "name": "UnauthorizedSender",
      "type": "error"
    },
    {
      "inputs": [],
      "name": "UnknownToken",
      "type": "error"
    },
    {
      "inputs": [],
      "name": "ValidatorDoesNotExist",
      "type": "error"
    },
    {
      "anonymous": false,
      "inputs": [
        {
          "indexed": false,
          "internalType": "uint256",
          "name": "amount",
          "type": "uint256"
        }
      ],
      "name": "AddedRewardBalance",
      "type": "event"
    },
    {
      "anonymous": false,
      "inputs": [
        {
          "indexed": true,
          "internalType": "address",
          "name": "validator",
          "type": "address"
        },
        {
          "indexed": false,
          "internalType": "uint256",
          "name": "amount",
          "type": "uint256"
        }
      ],
      "name": "ClaimedCommissions",
      "type": "event"
    },
    {
      "anonymous": false,
      "inputs": [
        {
          "indexed": true,
          "internalType": "address",
          "name": "staker",
          "type": "address"
        },
        {
          "indexed": false,
          "internalType": "uint256",
          "name": "lockedUnstake",
          "type": "uint256"
        }
      ],
      "name": "ClaimedLockedUnstake",
      "type": "event"
    },
    {
      "anonymous": false,
      "inputs": [
        {
          "indexed": true,
          "internalType": "address",
          "name": "staker",
          "type": "address"
        },
        {
          "indexed": false,
          "internalType": "address",
          "name": "validator",
          "type": "address"
        },
        {
          "indexed": false,
          "internalType": "uint256",
          "name": "amount",
          "type": "uint256"
        }
      ],
      "name": "ClaimedRewards",
      "type": "event"
    },
    {
      "anonymous": false,
      "inputs": [
        {
          "indexed": true,
          "internalType": "address",
          "name": "validator",
          "type": "address"
        },
        {
          "indexed": false,
          "internalType": "address",
          "name": "oldOperator",
          "type": "address"
        },
        {
          "indexed": false,
          "internalType": "address",
          "name": "newOperator",
          "type": "address"
        }
      ],
      "name": "OperatorUpdated",
      "type": "event"
    },
    {
      "anonymous": false,
      "inputs": [
        {
          "indexed": true,
          "internalType": "address",
          "name": "staker",
          "type": "address"
        },
        {
          "indexed": true,
          "internalType": "address",
          "name": "validator",
          "type": "address"
        },
        {
          "indexed": false,
          "internalType": "uint256",
          "name": "amount",
          "type": "uint256"
        }
      ],
      "name": "ReStaked",
      "type": "event"
    },
    {
      "anonymous": false,
      "inputs": [
        {
          "indexed": true,
          "internalType": "address",
          "name": "staker",
          "type": "address"
        },
        {
          "indexed": true,
          "internalType": "address",
          "name": "validator",
          "type": "address"
        },
        {
          "indexed": false,
          "internalType": "enum Token.Type",
          "name": "token",
          "type": "uint8"
        },
        {
          "indexed": false,
          "internalType": "uint256",
          "name": "amount",
          "type": "uint256"
        }
      ],
      "name": "Staked",
      "type": "event"
    },
    {
      "anonymous": false,
      "inputs": [
        {
          "indexed": true,
          "internalType": "address",
          "name": "staker",
          "type": "address"
        },
        {
          "indexed": true,
          "internalType": "address",
          "name": "validator",
          "type": "address"
        },
        {
          "indexed": false,
          "internalType": "enum Token.Type",
          "name": "token",
          "type": "uint8"
        },
        {
          "indexed": false,
          "internalType": "uint256",
          "name": "amount",
          "type": "uint256"
        }
      ],
      "name": "Unstaked",
      "type": "event"
    },
    {
      "anonymous": false,
      "inputs": [
        {
          "indexed": true,
          "internalType": "address",
          "name": "staker",
          "type": "address"
        },
        {
          "indexed": true,
          "internalType": "address",
          "name": "validator",
          "type": "address"
        },
        {
          "indexed": false,
          "internalType": "uint256",
          "name": "lockedUnstake",
          "type": "uint256"
        }
      ],
      "name": "UnstakedV2",
      "type": "event"
    },
    {
      "anonymous": false,
      "inputs": [
        {
          "indexed": true,
          "internalType": "address",
          "name": "validator",
          "type": "address"
        },
        {
          "indexed": false,
          "internalType": "uint256[]",
          "name": "epochs",
          "type": "uint256[]"
        }
      ],
      "name": "ValidatorActivated",
      "type": "event"
    },
    {
      "anonymous": false,
      "inputs": [
        {
          "indexed": true,
          "internalType": "address",
          "name": "validator",
          "type": "address"
        },
        {
          "indexed": false,
          "internalType": "uint256[]",
          "name": "epochs",
          "type": "uint256[]"
        }
      ],
      "name": "ValidatorDeactivated",
      "type": "event"
    },
    {
      "anonymous": false,
      "inputs": [
        {
          "indexed": true,
          "internalType": "address",
          "name": "validator",
          "type": "address"
        },
        {
          "indexed": false,
          "internalType": "uint256",
          "name": "until",
          "type": "uint256"
        }
      ],
      "name": "ValidatorJailed",
      "type": "event"
    },
    {
      "anonymous": false,
      "inputs": [
        {
          "indexed": false,
          "internalType": "address",
          "name": "validator",
          "type": "address"
        }
      ],
      "name": "ValidatorJoined",
      "type": "event"
    },
    {
      "anonymous": false,
      "inputs": [
        {
          "indexed": true,
          "internalType": "address",
          "name": "validator",
          "type": "address"
        },
        {
          "indexed": true,
          "internalType": "address",
          "name": "oldOwner",
          "type": "address"
        },
        {
          "indexed": false,
          "internalType": "address",
          "name": "newOwner",
          "type": "address"
        }
      ],
      "name": "ValidatorOwnerUpdated",
      "type": "event"
    },
    {
      "anonymous": false,
      "inputs": [
        {
          "indexed": true,
          "internalType": "address",
          "name": "validator",
          "type": "address"
        }
      ],
      "name": "ValidatorSlashed",
      "type": "event"
    },
    {
      "inputs": [
        {
          "internalType": "address",
          "name": "validator",
          "type": "address"
        },
        {
          "internalType": "uint256[]",
          "name": "epochs",
          "type": "uint256[]"
        }
      ],
      "name": "activateValidator",
      "outputs": [],
      "stateMutability": "nonpayable",
      "type": "function"
    },
    {
      "inputs": [],
      "name": "addRewardBalance",
      "outputs": [],
      "stateMutability": "payable",
      "type": "function"
    },
    {
      "inputs": [],
      "name": "allowlist",
      "outputs": [
        {
          "internalType": "contract IAllowlist",
          "name": "",
          "type": "address"
        }
      ],
      "stateMutability": "view",
      "type": "function"
    },
    {
      "inputs": [],
      "name": "candidateManager",
      "outputs": [
        {
          "internalType": "contract ICandidateValidatorManager",
          "name": "",
          "type": "address"
        }
      ],
      "stateMutability": "view",
      "type": "function"
    },
    {
      "inputs": [
        {
          "internalType": "address",
          "name": "validator",
          "type": "address"
        },
        {
          "internalType": "uint256",
          "name": "epochs",
          "type": "uint256"
        }
      ],
      "name": "claimCommissions",
      "outputs": [],
      "stateMutability": "nonpayable",
      "type": "function"
    },
    {
      "inputs": [
        {
          "internalType": "uint256",
          "name": "lockedUnstake",
          "type": "uint256"
        }
      ],
      "name": "claimLockedUnstake",
      "outputs": [],
      "stateMutability": "nonpayable",
      "type": "function"
    },
    {
      "inputs": [
        {
          "internalType": "address",
          "name": "",
          "type": "address"
        },
        {
          "internalType": "address",
          "name": "validator",
          "type": "address"
        },
        {
          "internalType": "uint256",
          "name": "epochs",
          "type": "uint256"
        }
      ],
      "name": "claimRewards",
      "outputs": [],
      "stateMutability": "nonpayable",
      "type": "function"
    },
    {
      "inputs": [
        {
          "internalType": "address",
          "name": "",
          "type": "address"
        }
      ],
      "name": "claimUnstakes",
      "outputs": [],
      "stateMutability": "nonpayable",
      "type": "function"
    },
    {
      "inputs": [
        {
          "internalType": "address",
          "name": "validator",
          "type": "address"
        },
        {
          "internalType": "uint256[]",
          "name": "epochs",
          "type": "uint256[]"
        }
      ],
      "name": "deactivateValidator",
      "outputs": [],
      "stateMutability": "nonpayable",
      "type": "function"
    },
    {
      "inputs": [],
      "name": "environment",
      "outputs": [
        {
          "internalType": "contract IEnvironment",
          "name": "",
          "type": "address"
        }
      ],
      "stateMutability": "view",
      "type": "function"
    },
    {
      "inputs": [
        {
          "internalType": "address",
          "name": "validator",
          "type": "address"
        },
        {
          "internalType": "uint256",
          "name": "epoch",
          "type": "uint256"
        }
      ],
      "name": "getBlockAndSlashes",
      "outputs": [
        {
          "internalType": "uint256",
          "name": "blocks",
          "type": "uint256"
        },
        {
          "internalType": "uint256",
          "name": "slashes",
          "type": "uint256"
        }
      ],
      "stateMutability": "view",
      "type": "function"
    },
    {
      "inputs": [
        {
          "internalType": "address",
          "name": "validator",
          "type": "address"
        },
        {
          "internalType": "uint256",
          "name": "epochs",
          "type": "uint256"
        }
      ],
      "name": "getCommissions",
      "outputs": [
        {
          "internalType": "uint256",
          "name": "commissions",
          "type": "uint256"
        }
      ],
      "stateMutability": "view",
      "type": "function"
    },
    {
      "inputs": [
        {
          "internalType": "address",
          "name": "staker",
          "type": "address"
        },
        {
          "internalType": "uint256",
          "name": "lockedUnstake",
          "type": "uint256"
        }
      ],
      "name": "getLockedUnstake",
      "outputs": [
        {
          "internalType": "enum Token.Type",
          "name": "token",
          "type": "uint8"
        },
        {
          "internalType": "uint256",
          "name": "amount",
          "type": "uint256"
        },
        {
          "internalType": "uint256",
          "name": "unlockTime",
          "type": "uint256"
        },
        {
          "internalType": "bool",
          "name": "claimable",
          "type": "bool"
        }
      ],
      "stateMutability": "view",
      "type": "function"
    },
    {
      "inputs": [
        {
          "internalType": "address",
          "name": "staker",
          "type": "address"
        }
      ],
      "name": "getLockedUnstakeCount",
      "outputs": [
        {
          "internalType": "uint256",
          "name": "count",
          "type": "uint256"
        }
      ],
      "stateMutability": "view",
      "type": "function"
    },
    {
      "inputs": [
        {
          "internalType": "address",
          "name": "staker",
          "type": "address"
        },
        {
          "internalType": "uint256",
          "name": "cursor",
          "type": "uint256"
        },
        {
          "internalType": "uint256",
          "name": "howMany",
          "type": "uint256"
        }
      ],
      "name": "getLockedUnstakes",
      "outputs": [
        {
          "internalType": "enum Token.Type[]",
          "name": "tokens",
          "type": "uint8[]"
        },
        {
          "internalType": "uint256[]",
          "name": "amounts",
          "type": "uint256[]"
        },
        {
          "internalType": "uint256[]",
          "name": "unlockTimes",
          "type": "uint256[]"
        },
        {
          "internalType": "bool[]",
          "name": "claimable",
          "type": "bool[]"
        },
        {
          "internalType": "uint256",
          "name": "newCursor",
          "type": "uint256"
        }
      ],
      "stateMutability": "view",
      "type": "function"
    },
    {
      "inputs": [
        {
          "internalType": "address",
          "name": "operator",
          "type": "address"
        },
        {
          "internalType": "uint256",
          "name": "epoch",
          "type": "uint256"
        }
      ],
      "name": "getOperatorStakes",
      "outputs": [
        {
          "internalType": "uint256",
          "name": "stakes",
          "type": "uint256"
        }
      ],
      "stateMutability": "view",
      "type": "function"
    },
    {
      "inputs": [
        {
          "internalType": "address",
          "name": "staker",
          "type": "address"
        },
        {
          "internalType": "address",
          "name": "validator",
          "type": "address"
        },
        {
          "internalType": "uint256",
          "name": "epochs",
          "type": "uint256"
        }
      ],
      "name": "getRewards",
      "outputs": [
        {
          "internalType": "uint256",
          "name": "rewards",
          "type": "uint256"
        }
      ],
      "stateMutability": "view",
      "type": "function"
    },
    {
      "inputs": [
        {
          "internalType": "address",
          "name": "staker",
          "type": "address"
        },
        {
          "internalType": "uint256",
          "name": "epoch",
          "type": "uint256"
        },
        {
          "internalType": "uint256",
          "name": "cursor",
          "type": "uint256"
        },
        {
          "internalType": "uint256",
          "name": "howMany",
          "type": "uint256"
        }
      ],
      "name": "getStakerStakes",
      "outputs": [
        {
          "internalType": "address[]",
          "name": "_validators",
          "type": "address[]"
        },
        {
          "internalType": "uint256[]",
          "name": "oasStakes",
          "type": "uint256[]"
        },
        {
          "internalType": "uint256[]",
          "name": "woasStakes",
          "type": "uint256[]"
        },
        {
          "internalType": "uint256[]",
          "name": "soasStakes",
          "type": "uint256[]"
        },
        {
          "internalType": "uint256",
          "name": "newCursor",
          "type": "uint256"
        }
      ],
      "stateMutability": "view",
      "type": "function"
    },
    {
      "inputs": [
        {
          "internalType": "uint256",
          "name": "cursor",
          "type": "uint256"
        },
        {
          "internalType": "uint256",
          "name": "howMany",
          "type": "uint256"
        }
      ],
      "name": "getStakers",
      "outputs": [
        {
          "internalType": "address[]",
          "name": "_stakers",
          "type": "address[]"
        },
        {
          "internalType": "uint256",
          "name": "newCursor",
          "type": "uint256"
        }
      ],
      "stateMutability": "view",
      "type": "function"
    },
    {
      "inputs": [
        {
          "internalType": "address[]",
          "name": "_validators",
          "type": "address[]"
        },
        {
          "internalType": "uint256",
          "name": "epochs",
          "type": "uint256"
        }
      ],
      "name": "getTotalRewards",
      "outputs": [
        {
          "internalType": "uint256",
          "name": "rewards",
          "type": "uint256"
        }
      ],
      "stateMutability": "view",
      "type": "function"
    },
    {
      "inputs": [
        {
          "internalType": "uint256",
          "name": "epoch",
          "type": "uint256"
        }
      ],
      "name": "getTotalStake",
      "outputs": [
        {
          "internalType": "uint256",
          "name": "amounts",
          "type": "uint256"
        }
      ],
      "stateMutability": "view",
      "type": "function"
    },
    {
      "inputs": [
        {
          "internalType": "address",
          "name": "staker",
          "type": "address"
        }
      ],
      "name": "getUnstakes",
      "outputs": [
        {
          "internalType": "uint256",
          "name": "oasUnstakes",
          "type": "uint256"
        },
        {
          "internalType": "uint256",
          "name": "woasUnstakes",
          "type": "uint256"
        },
        {
          "internalType": "uint256",
          "name": "soasUnstakes",
          "type": "uint256"
        }
      ],
      "stateMutability": "view",
      "type": "function"
    },
    {
      "inputs": [
        {
          "internalType": "uint256",
          "name": "cursor",
          "type": "uint256"
        },
        {
          "internalType": "uint256",
          "name": "howMany",
          "type": "uint256"
        }
      ],
      "name": "getValidatorIds",
      "outputs": [
        {
          "internalType": "address[]",
          "name": "ids",
          "type": "address[]"
        },
        {
          "internalType": "uint256",
          "name": "newCursor",
          "type": "uint256"
        }
      ],
      "stateMutability": "view",
      "type": "function"
    },
    {
      "inputs": [
        {
          "internalType": "address",
          "name": "validator",
          "type": "address"
        },
        {
          "internalType": "uint256",
          "name": "epoch",
          "type": "uint256"
        }
      ],
      "name": "getValidatorInfo",
      "outputs": [
        {
          "internalType": "address",
          "name": "operator",
          "type": "address"
        },
        {
          "internalType": "bool",
          "name": "active",
          "type": "bool"
        },
        {
          "internalType": "bool",
          "name": "jailed",
          "type": "bool"
        },
        {
          "internalType": "bool",
          "name": "candidate",
          "type": "bool"
        },
        {
          "internalType": "uint256",
          "name": "stakes",
          "type": "uint256"
        }
      ],
      "stateMutability": "view",
      "type": "function"
    },
    {
      "inputs": [
        {
          "internalType": "address",
          "name": "validator",
          "type": "address"
        },
        {
          "internalType": "uint256",
          "name": "epoch",
          "type": "uint256"
        }
      ],
      "name": "getValidatorInfoV2",
      "outputs": [
        {
          "internalType": "address",
          "name": "owner",
          "type": "address"
        },
        {
          "internalType": "address",
          "name": "operator",
          "type": "address"
        },
        {
          "internalType": "bool",
          "name": "active",
          "type": "bool"
        },
        {
          "internalType": "bool",
          "name": "jailed",
          "type": "bool"
        },
        {
          "internalType": "bool",
          "name": "candidate",
          "type": "bool"
        },
        {
          "internalType": "uint256",
          "name": "stakes",
          "type": "uint256"
        }
      ],
      "stateMutability": "view",
      "type": "function"
    },
    {
      "inputs": [
        {
          "internalType": "uint256",
          "name": "cursor",
          "type": "uint256"
        },
        {
          "internalType": "uint256",
          "name": "howMany",
          "type": "uint256"
        }
      ],
      "name": "getValidatorOwners",
      "outputs": [
        {
          "internalType": "address[]",
          "name": "owners",
          "type": "address[]"
        },
        {
          "internalType": "uint256",
          "name": "newCursor",
          "type": "uint256"
        }
      ],
      "stateMutability": "view",
      "type": "function"
    },
    {
      "inputs": [
        {
          "internalType": "address",
          "name": "validator",
          "type": "address"
        },
        {
          "internalType": "uint256",
          "name": "epoch",
          "type": "uint256"
        }
      ],
      "name": "getValidatorStakes",
      "outputs": [
        {
          "internalType": "uint256",
          "name": "stakes",
          "type": "uint256"
        }
      ],
      "stateMutability": "view",
      "type": "function"
    },
    {
      "inputs": [
        {
          "internalType": "address",
          "name": "validator",
          "type": "address"
        },
        {
          "internalType": "uint256",
          "name": "epoch",
          "type": "uint256"
        },
        {
          "internalType": "uint256",
          "name": "cursor",
          "type": "uint256"
        },
        {
          "internalType": "uint256",
          "name": "howMany",
          "type": "uint256"
        }
      ],
      "name": "getValidatorStakes",
      "outputs": [
        {
          "internalType": "address[]",
          "name": "_stakers",
          "type": "address[]"
        },
        {
          "internalType": "uint256[]",
          "name": "stakes",
          "type": "uint256[]"
        },
        {
          "internalType": "uint256",
          "name": "newCursor",
          "type": "uint256"
        }
      ],
      "stateMutability": "view",
      "type": "function"
    },
    {
      "inputs": [
        {
          "internalType": "uint256",
          "name": "epoch",
          "type": "uint256"
        },
        {
          "internalType": "uint256",
          "name": "cursor",
          "type": "uint256"
        },
        {
          "internalType": "uint256",
          "name": "howMany",
          "type": "uint256"
        }
      ],
      "name": "getValidators",
      "outputs": [
        {
          "internalType": "address[]",
          "name": "owners",
          "type": "address[]"
        },
        {
          "internalType": "address[]",
          "name": "operators",
          "type": "address[]"
        },
        {
          "internalType": "uint256[]",
          "name": "stakes",
          "type": "uint256[]"
        },
        {
          "internalType": "bool[]",
          "name": "candidates",
          "type": "bool[]"
        },
        {
          "internalType": "uint256",
          "name": "newCursor",
          "type": "uint256"
        }
      ],
      "stateMutability": "view",
      "type": "function"
    },
    {
      "inputs": [
        {
          "internalType": "contract IEnvironment",
          "name": "_environment",
          "type": "address"
        },
        {
          "internalType": "contract IAllowlist",
          "name": "_allowlist",
          "type": "address"
        }
      ],
      "name": "initialize",
      "outputs": [],
      "stateMutability": "nonpayable",
      "type": "function"
    },
    {
      "inputs": [],
      "name": "initialized",
      "outputs": [
        {
          "internalType": "bool",
          "name": "",
          "type": "bool"
        }
      ],
      "stateMutability": "view",
      "type": "function"
    },
    {
      "inputs": [
        {
          "internalType": "address",
          "name": "operator",
          "type": "address"
        }
      ],
      "name": "joinValidator",
      "outputs": [],
      "stateMutability": "nonpayable",
      "type": "function"
    },
    {
      "inputs": [
        {
          "internalType": "address",
          "name": "",
          "type": "address"
        }
      ],
      "name": "operatorToValidatorId",
      "outputs": [
        {
          "internalType": "address",
          "name": "",
          "type": "address"
        }
      ],
      "stateMutability": "view",
      "type": "function"
    },
    {
      "inputs": [
        {
          "internalType": "uint256",
          "name": "epochs",
          "type": "uint256"
        }
      ],
      "name": "restakeCommissions",
      "outputs": [],
      "stateMutability": "nonpayable",
      "type": "function"
    },
    {
      "inputs": [
        {
          "internalType": "address",
          "name": "validator",
          "type": "address"
        },
        {
          "internalType": "uint256",
          "name": "epochs",
          "type": "uint256"
        }
      ],
      "name": "restakeCommissionsV2",
      "outputs": [],
      "stateMutability": "nonpayable",
      "type": "function"
    },
    {
      "inputs": [
        {
          "internalType": "address",
          "name": "validator",
          "type": "address"
        },
        {
          "internalType": "uint256",
          "name": "epochs",
          "type": "uint256"
        }
      ],
      "name": "restakeRewards",
      "outputs": [],
      "stateMutability": "nonpayable",
      "type": "function"
    },
    {
      "inputs": [
        {
          "internalType": "address",
          "name": "operator",
          "type": "address"
        },
        {
          "internalType": "uint256",
          "name": "blocks",
          "type": "uint256"
        }
      ],
      "name": "slash",
      "outputs": [],
      "stateMutability": "nonpayable",
      "type": "function"
    },
    {
      "inputs": [
        {
          "internalType": "address",
          "name": "validator",
          "type": "address"
        },
        {
          "internalType": "enum Token.Type",
          "name": "token",
          "type": "uint8"
        },
        {
          "internalType": "uint256",
          "name": "amount",
          "type": "uint256"
        }
      ],
      "name": "stake",
      "outputs": [],
      "stateMutability": "payable",
      "type": "function"
    },
    {
      "inputs": [
        {
          "internalType": "uint256",
          "name": "",
          "type": "uint256"
        }
      ],
      "name": "stakeAmounts",
      "outputs": [
        {
          "internalType": "uint256",
          "name": "",
          "type": "uint256"
        }
      ],
      "stateMutability": "view",
      "type": "function"
    },
    {
      "inputs": [
        {
          "internalType": "uint256",
          "name": "",
          "type": "uint256"
        }
      ],
      "name": "stakeUpdates",
      "outputs": [
        {
          "internalType": "uint256",
          "name": "",
          "type": "uint256"
        }
      ],
      "stateMutability": "view",
      "type": "function"
    },
    {
      "inputs": [
        {
          "internalType": "uint256",
          "name": "",
          "type": "uint256"
        }
      ],
      "name": "stakerSigners",
      "outputs": [
        {
          "internalType": "address",
          "name": "",
          "type": "address"
        }
      ],
      "stateMutability": "view",
      "type": "function"
    },
    {
      "inputs": [
        {
          "internalType": "address",
          "name": "",
          "type": "address"
        }
      ],
      "name": "stakers",
      "outputs": [
        {
          "internalType": "address",
          "name": "signer",
          "type": "address"
        }
      ],
      "stateMutability": "view",
      "type": "function"
    },
    {
      "inputs": [
        {
          "internalType": "address",
          "name": "",
          "type": "address"
        },
        {
          "internalType": "enum Token.Type",
          "name": "",
          "type": "uint8"
        },
        {
          "internalType": "uint256",
          "name": "",
          "type": "uint256"
        }
      ],
      "name": "unstake",
      "outputs": [],
      "stateMutability": "nonpayable",
      "type": "function"
    },
    {
      "inputs": [
        {
          "internalType": "address",
          "name": "validator",
          "type": "address"
        },
        {
          "internalType": "enum Token.Type",
          "name": "token",
          "type": "uint8"
        },
        {
          "internalType": "uint256",
          "name": "amount",
          "type": "uint256"
        }
      ],
      "name": "unstakeV2",
      "outputs": [],
      "stateMutability": "nonpayable",
      "type": "function"
    },
    {
      "inputs": [
        {
          "internalType": "address",
          "name": "validator_",
          "type": "address"
        },
        {
          "internalType": "address",
          "name": "operator",
          "type": "address"
        }
      ],
      "name": "updateOperator",
      "outputs": [],
      "stateMutability": "nonpayable",
      "type": "function"
    },
    {
      "inputs": [
        {
          "internalType": "address",
          "name": "validator_",
          "type": "address"
        },
        {
          "internalType": "address",
          "name": "newOwner",
          "type": "address"
        }
      ],
      "name": "updateValidatorOwner",
      "outputs": [],
      "stateMutability": "nonpayable",
      "type": "function"
    },
    {
      "inputs": [
        {
          "internalType": "uint256",
          "name": "",
          "type": "uint256"
        }
      ],
      "name": "validatorIds",
      "outputs": [
        {
          "internalType": "address",
          "name": "",
          "type": "address"
        }
      ],
      "stateMutability": "view",
      "type": "function"
    },
    {
      "inputs": [],
      "name": "validatorOwners",
      "outputs": [
        {
          "internalType": "address[]",
          "name": "",
          "type": "address[]"
        }
      ],
      "stateMutability": "view",
      "type": "function"
    },
    {
      "inputs": [
        {
          "internalType": "address",
          "name": "",
          "type": "address"
        }
      ],
      "name": "validators",
      "outputs": [
        {
          "internalType": "address",
          "name": "id",
          "type": "address"
        },
        {
          "internalType": "address",
          "name": "operator",
          "type": "address"
        },
        {
          "internalType": "uint256",
          "name": "lastClaimCommission",
          "type": "uint256"
        },
        {
          "internalType": "address",
          "name": "owner",
          "type": "address"
        }
      ],
      "stateMutability": "view",
      "type": "function"
    }
  ],
  "bytecode": "0x608060405234801561001057600080fd5b50615e2f80620000216000396000f3fe6080604052600436106102ae5760003560e01c80637243199111610175578063c2ed1b67116100dc578063df93c84211610095578063f65a5ed21161006f578063f65a5ed2146109b9578063f8d6b1ab146109d9578063fa52c7d8146109f9578063ff3d3f6014610a7757600080fd5b8063df93c84214610940578063e1aca34114610979578063f3621e431461099957600080fd5b8063c2ed1b6714610837578063cbc0fac614610857578063cf5c13db14610877578063d0051adf14610897578063d1f18ee1146108c8578063dbd61d871461092057600080fd5b80639168ae721161012e5780639168ae721461075f578063919165aa146107955780639869cf68146107b55780639c508219146107d7578063a6a41f44146107f7578063ad71bd361461081757600080fd5b8063724319911461069357806374e2b63c146106c45780637befa74f146106e957806388325234146106fc5780638cd2d73e146107375780639043150b1461075757600080fd5b80632b47da5211610219578063485cc955116101d2578063485cc955146105835780635c4fc4c5146105a35780635d94ccf6146105d35780635e4afedd146105f35780636583b38e146106135780636b2b33691461067357600080fd5b80632b47da52146104b45780632ee462b3146104d457806333f32d78146104f4578063428e85621461051457806345367f231461053457806346dfce7b1461055457600080fd5b8063190b92571161026b578063190b9257146103c0578063195afea1146103ee5780631c1b4f3a1461040e5780632168e8b41461042e578063222263671461044e5780632b42ed8c1461048357600080fd5b806302fb4d85146102b3578063038df43d146102d55780630b85ce17146103285780630ddda63c14610356578063158ef93e146103765780631903cf16146103a0575b600080fd5b3480156102bf57600080fd5b506102d36102ce3660046152e5565b610a97565b005b3480156102e157600080fd5b5061030b6102f0366004615311565b6006602052600090815260409020546001600160a01b031681565b6040516001600160a01b0390911681526020015b60405180910390f35b34801561033457600080fd5b5061034861034336600461532e565b610c9d565b60405161031f929190615394565b34801561036257600080fd5b506102d36103713660046153b6565b610d83565b34801561038257600080fd5b506000546103909060ff1681565b604051901515815260200161031f565b3480156103ac57600080fd5b506102d36103bb366004615461565b610e93565b3480156103cc57600080fd5b506103e06103db3660046153b6565b6110a3565b60405190815260200161031f565b3480156103fa57600080fd5b506103e06104093660046152e5565b6110c4565b34801561041a57600080fd5b506103e06104293660046153b6565b6110fb565b34801561043a57600080fd5b5061034861044936600461532e565b61110b565b34801561045a57600080fd5b5061046e6104693660046152e5565b6111fb565b6040805192835260208301919091520161031f565b34801561048f57600080fd5b506104a361049e36600461550b565b6112c9565b60405161031f959493929190615576565b3480156104c057600080fd5b5060015461030b906001600160a01b031681565b3480156104e057600080fd5b506103e06104ef3660046152e5565b611616565b34801561050057600080fd5b506103e061050f3660046155d6565b6116c9565b34801561052057600080fd5b506102d361052f366004615461565b611888565b34801561054057600080fd5b506103e061054f3660046153b6565b611a98565b34801561056057600080fd5b5061057461056f36600461550b565b611b2e565b60405161031f93929190615675565b34801561058f57600080fd5b506102d361059e3660046156ab565b611d8b565b3480156105af57600080fd5b506105c36105be3660046152e5565b611e0a565b60405161031f949392919061571c565b3480156105df57600080fd5b506102d36105ee3660046153b6565b611ed6565b3480156105ff57600080fd5b506102d361060e3660046152e5565b611fe0565b34801561061f57600080fd5b5061063361062e3660046152e5565b6120cb565b604080516001600160a01b0397881681529690951660208701529215159385019390935215156060840152901515608083015260a082015260c00161031f565b34801561067f57600080fd5b506102d361068e366004615311565b612118565b34801561069f57600080fd5b506106b36106ae366004615747565b612211565b60405161031f9594939291906157a5565b3480156106d057600080fd5b5060005461030b9061010090046001600160a01b031681565b6102d36106f73660046157f2565b6122b1565b34801561070857600080fd5b5061071c610717366004615311565b61248a565b6040805193845260208401929092529082015260600161031f565b34801561074357600080fd5b506102d36107523660046156ab565b61250a565b6102d36125fe565b34801561076b57600080fd5b5061030b61077a366004615311565b6007602052600090815260409020546001600160a01b031681565b3480156107a157600080fd5b5061030b6107b03660046153b6565b612633565b3480156107c157600080fd5b506107ca61265d565b60405161031f9190615837565b3480156107e357600080fd5b506103e06107f23660046152e5565b612712565b34801561080357600080fd5b5060095461030b906001600160a01b031681565b34801561082357600080fd5b5061034861083236600461532e565b6127ee565b34801561084357600080fd5b506102d36108523660046156ab565b6128cc565b34801561086357600080fd5b506102d36108723660046152e5565b612988565b34801561088357600080fd5b506102d36108923660046152e5565b612a4b565b3480156108a357600080fd5b506108b76108b236600461584a565b612c6c565b60405161031f95949392919061587f565b3480156108d457600080fd5b506108e86108e33660046152e5565b612f24565b604080516001600160a01b0390961686529315156020860152911515928401929092529015156060830152608082015260a00161031f565b34801561092c57600080fd5b506103e061093b3660046158e8565b61309e565b34801561094c57600080fd5b506103e061095b366004615311565b6001600160a01b031660009081526007602052604090206006015490565b34801561098557600080fd5b506102d36109943660046157f2565b6130e4565b3480156109a557600080fd5b506102d36109b43660046158e8565b6130fd565b3480156109c557600080fd5b5061030b6109d43660046153b6565b613209565b3480156109e557600080fd5b506102d36109f4366004615311565b613219565b348015610a0557600080fd5b50610a48610a14366004615311565b6004602052600090815260409020805460018201546006830154600b909301546001600160a01b0392831693918316921684565b604080516001600160a01b0395861681529385166020850152830191909152909116606082015260800161031f565b348015610a8357600080fd5b506102d3610a923660046157f2565b61327b565b6001600160a01b038083166000908152600660209081526040808320548416808452600490925290912054909116610ae2576040516372898ae960e11b815260040160405180910390fd5b334114610b0257604051631cf4735960e01b815260040160405180910390fd5b6001600160a01b038084166000908152600660209081526040808320548416835260049182905280832083548251633fa4f24560e01b815292519195610c15946101009092041692633fa4f2459281830192610120928290030181865afa158015610b71573d6000803e3d6000fd5b505050506040513d601f19601f82011682018060405250810190610b959190615918565b600060019054906101000a90046001600160a01b03166001600160a01b031663900cf0cf6040518163ffffffff1660e01b8152600401602060405180830381865afa158015610be8573d6000803e3d6000fd5b505050506040513d601f19601f82011682018060405250810190610c0c9190615993565b849190876135bb565b82546040519192506001600160a01b0316907f1647efd0ce9727dc31dc201c9d8d35ac687f7370adcacbd454afc6485ddabfda90600090a28015610c965781546040518281526001600160a01b03909116907feb7d7a49847ec491969db21a0e31b234565a9923145a2d1b56a75c9e95825802906020015b60405180910390a25b5050505050565b60606000610cb1848460058054905061369a565b9093509050826001600160401b03811115610cce57610cce6153cf565b604051908082528060200260200182016040528015610cf7578160200160208202803683370190505b50915060005b83811015610d7b576005610d1182876159c2565b81548110610d2157610d216159da565b9060005260206000200160009054906101000a90046001600160a01b0316838281518110610d5157610d516159da565b6001600160a01b039092166020928302919091019091015280610d73816159f0565b915050610cfd565b509250929050565b336000818152600460205260409020546001600160a01b0316610db9576040516372898ae960e11b815260040160405180910390fd5b336000818152600760205260409020546001600160a01b0316610def5760405163cf83d93d60e01b815260040160405180910390fd5b600060019054906101000a90046001600160a01b03166001600160a01b031663d4a536866040518163ffffffff1660e01b8152600401602060405180830381865afa158015610e42573d6000803e3d6000fd5b505050506040513d601f19601f82011682018060405250810190610e669190615a20565b15610e8457604051631e59ccd960e01b815260040160405180910390fd5b610e8e33846136d1565b505050565b6001600160a01b03821660009081526004602052604090208290610eb6816137bb565b6001600160a01b0316336001600160a01b031614158015610ee4575060018101546001600160a01b03163314155b15610f0257604051630101292160e31b815260040160405180910390fd5b6001600160a01b03808516600090815260046020526040902054859116610f3c576040516372898ae960e11b815260040160405180910390fd5b600060019054906101000a90046001600160a01b03166001600160a01b031663d4a536866040518163ffffffff1660e01b8152600401602060405180830381865afa158015610f8f573d6000803e3d6000fd5b505050506040513d601f19601f82011682018060405250810190610fb39190615a20565b15610fd157604051631e59ccd960e01b815260040160405180910390fd5b61106a600060019054906101000a90046001600160a01b03166001600160a01b031663900cf0cf6040518163ffffffff1660e01b8152600401602060405180830381865afa158015611027573d6000803e3d6000fd5b505050506040513d601f19601f8201168201806040525081019061104b9190615993565b6001600160a01b038716600090815260046020526040902090866137ef565b846001600160a01b03167fc11dfc9c24621433bb10587dc4bbae26a33a4aff53914e0d4c9fddf224a8cb7d85604051610c8d9190615a3b565b600281815481106110b357600080fd5b600091825260209091200154905081565b600080546001600160a01b0384811683526004602052604083206110f192909161010090910416846137fc565b5090505b92915050565b600381815481106110b357600080fd5b6060600061111f848460058054905061369a565b9093509050826001600160401b0381111561113c5761113c6153cf565b604051908082528060200260200182016040528015611165578160200160208202803683370190505b50915060005b83811015610d7b576111bf600460006005611186858a6159c2565b81548110611196576111966159da565b60009182526020808320909101546001600160a01b0316835282019290925260400190206137bb565b8382815181106111d1576111d16159da565b6001600160a01b0390921660209283029190910190910152806111f3816159f0565b91505061116b565b6000806112be6000841161128557600060019054906101000a90046001600160a01b03166001600160a01b031663900cf0cf6040518163ffffffff1660e01b8152600401602060405180830381865afa15801561125c573d6000803e3d6000fd5b505050506040513d601f19601f820116820180604052508101906112809190615993565b611287565b835b6001600160a01b038616600090815260046020908152604080832093835260098401825280832054600a9094019091529020549091565b909590945092505050565b6001600160a01b03841660009081526007602052604081206060918291829182918861136b57600060019054906101000a90046001600160a01b03166001600160a01b031663900cf0cf6040518163ffffffff1660e01b8152600401602060405180830381865afa158015611342573d6000803e3d6000fd5b505050506040513d601f19601f820116820180604052508101906113669190615993565b61136d565b885b985061137f888860058054905061369a565b9097509150866001600160401b0381111561139c5761139c6153cf565b6040519080825280602002602001820160405280156113c5578160200160208202803683370190505b509550866001600160401b038111156113e0576113e06153cf565b604051908082528060200260200182016040528015611409578160200160208202803683370190505b509450866001600160401b03811115611424576114246153cf565b60405190808252806020026020018201604052801561144d578160200160208202803683370190505b509350866001600160401b03811115611468576114686153cf565b604051908082528060200260200182016040528015611491578160200160208202803683370190505b50925060005b878110156116095760056114ab828b6159c2565b815481106114bb576114bb6159da565b9060005260206000200160009054906101000a90046001600160a01b03168782815181106114eb576114eb6159da565b60200260200101906001600160a01b031690816001600160a01b03168152505061153c878281518110611520576115206159da565b602002602001015160008c8561398f909392919063ffffffff16565b86828151811061154e5761154e6159da565b60200260200101818152505061158b87828151811061156f5761156f6159da565b602002602001015160018c8561398f909392919063ffffffff16565b85828151811061159d5761159d6159da565b6020026020010181815250506115da8782815181106115be576115be6159da565b602002602001015160028c8561398f909392919063ffffffff16565b8482815181106115ec576115ec6159da565b602090810291909101015280611601816159f0565b915050611497565b5050945094509450945094565b600080821161169b57600060019054906101000a90046001600160a01b03166001600160a01b031663900cf0cf6040518163ffffffff1660e01b8152600401602060405180830381865afa158015611672573d6000803e3d6000fd5b505050506040513d601f19601f820116820180604052508101906116969190615993565b61169d565b815b6001600160a01b03841660009081526004602052604090209092506116c29083613a4e565b9392505050565b600080600183600060019054906101000a90046001600160a01b03166001600160a01b031663900cf0cf6040518163ffffffff1660e01b8152600401602060405180830381865afa158015611722573d6000803e3d6000fd5b505050506040513d601f19601f820116820180604052508101906117469190615993565b6117509190615a4e565b61175a9190615a4e565b845190915060005b8481101561187f576117756001846159c2565b6000805460405163fcbb371b60e01b81526004810184905292955090916101009091046001600160a01b03169063fcbb371b9060240161012060405180830381865afa1580156117c9573d6000803e3d6000fd5b505050506040513d601f19601f820116820180604052508101906117ed9190615918565b905060005b8381101561186a5761184c8286600460008c8681518110611815576118156159da565b60200260200101516001600160a01b03166001600160a01b03168152602001908152602001600020613a619092919063ffffffff16565b61185690876159c2565b955080611862816159f0565b9150506117f2565b50508080611877906159f0565b915050611762565b50505092915050565b6001600160a01b038216600090815260046020526040902082906118ab816137bb565b6001600160a01b0316336001600160a01b0316141580156118d9575060018101546001600160a01b03163314155b156118f757604051630101292160e31b815260040160405180910390fd5b6001600160a01b03808516600090815260046020526040902054859116611931576040516372898ae960e11b815260040160405180910390fd5b600060019054906101000a90046001600160a01b03166001600160a01b031663d4a536866040518163ffffffff1660e01b8152600401602060405180830381865afa158015611984573d6000803e3d6000fd5b505050506040513d601f19601f820116820180604052508101906119a89190615a20565b156119c657604051631e59ccd960e01b815260040160405180910390fd5b611a5f600060019054906101000a90046001600160a01b03166001600160a01b031663900cf0cf6040518163ffffffff1660e01b8152600401602060405180830381865afa158015611a1c573d6000803e3d6000fd5b505050506040513d601f19601f82011682018060405250810190611a409190615993565b6001600160a01b03871660009081526004602052604090209086613bce565b846001600160a01b03167f0ad9bf1b8c026a174a2f30954417002a6ea00c9b08c1b8846c7951c687be809585604051610c8d9190615a3b565b6000808211611b1d57600060019054906101000a90046001600160a01b03166001600160a01b031663900cf0cf6040518163ffffffff1660e01b8152600401602060405180830381865afa158015611af4573d6000803e3d6000fd5b505050506040513d601f19601f82011682018060405250810190611b189190615993565b611b1f565b815b91506110f56002600384613bdb565b6001600160a01b0384166000908152600460205260408120606091829186611bcc57600060019054906101000a90046001600160a01b03166001600160a01b031663900cf0cf6040518163ffffffff1660e01b8152600401602060405180830381865afa158015611ba3573d6000803e3d6000fd5b505050506040513d601f19601f82011682018060405250810190611bc79190615993565b611bce565b865b9650611be28686836007018054905061369a565b9095509150846001600160401b03811115611bff57611bff6153cf565b604051908082528060200260200182016040528015611c28578160200160208202803683370190505b509350846001600160401b03811115611c4357611c436153cf565b604051908082528060200260200182016040528015611c6c578160200160208202803683370190505b50925060005b85811015611d7f576000600781848201611c8c858c6159c2565b81548110611c9c57611c9c6159da565b60009182526020808320909101546001600160a01b03908116845290830193909352604090910190208054885191935090911690879084908110611ce257611ce26159da565b6001600160a01b0392831660209182029290920101528354611d099183911660028c61398f565b8354611d229083906001600160a01b031660018d61398f565b8454611d3b9084906001600160a01b031660008e61398f565b611d4591906159c2565b611d4f91906159c2565b858381518110611d6157611d616159da565b60209081029190910101525080611d77816159f0565b915050611c72565b50509450945094915050565b334114611dab57604051631cf4735960e01b815260040160405180910390fd5b60005460ff1615611dce5760405162dc149f60e41b815260040160405180910390fd5b6000805460016001600160a81b03199091166101006001600160a01b039586160217811790915580546001600160a01b03191691909216179055565b6001600160a01b03821660009081526007602052604081206006018054829182918291829187908110611e3f57611e3f6159da565b6000918252602090912060408051606081019091526003909202018054829060ff166002811115611e7257611e726156e4565b6002811115611e8357611e836156e4565b81526020016001820154815260200160028201548152505090508060000151816020015182604001518360400151600014158015611ec5575083604001514210155b929a91995097509095509350505050565b336000818152600760205260409020546001600160a01b0316611f0c5760405163cf83d93d60e01b815260040160405180910390fd5b336000908152600760205260408120600601805484908110611f3057611f306159da565b9060005260206000209060030201905060008160020154905080421015611f6a576040516303cb96db60e21b815260040160405180910390fd5b80611f8857604051630c8d9eab60e31b815260040160405180910390fd5b6000600283015560405184815233907fbf5f92dc2b945251eadf78c2ca629ae64053d979bfbc43a7b17a463707906bf99060200160405180910390a281546001830154611fda9160ff16903390613cf4565b50505050565b6001600160a01b038216600090815260046020526040902082903390612005906137bb565b6001600160a01b03161461202c57604051630101292160e31b815260040160405180910390fd5b600060019054906101000a90046001600160a01b03166001600160a01b031663d4a536866040518163ffffffff1660e01b8152600401602060405180830381865afa15801561207f573d6000803e3d6000fd5b505050506040513d601f19601f820116820180604052508101906120a39190615a20565b156120c157604051631e59ccd960e01b815260040160405180910390fd5b610e8e83836136d1565b6000806000806000806120de8888612f24565b6001600160a01b038d1660009081526004602052604090209499509297509095509350915061210c906137bb565b95509295509295509295565b6001600160a01b03818116600090815260066020526040902054339116156121535760405163055ee1f160e31b815260040160405180910390fd5b6001600160a01b03811660009081526004602052604090206121759083613e13565b60058054600181019091557f036b6384b5eca791c62761152d0c79bb0604c104a5fb6f4eb0703f3154bb3db00180546001600160a01b038381166001600160a01b03199283168117909355841660009081526006602090815260409182902080549093168417909255519182527fd5828184f48f65962d10eac907318df85953d4e3542a0f09b5932ee3fe398bdd910160405180910390a15050565b600954604051632d73a02f60e01b81526004810185905260248101849052604481018390526060918291829182916000916001600160a01b031690632d73a02f90606401600060405180830381865afa158015612272573d6000803e3d6000fd5b505050506040513d6000823e601f3d908101601f1916820160405261229a9190810190615b91565b959e949d50909b5099509297509095505050505050565b6001600160a01b038084166000908152600460205260409020548491166122eb576040516372898ae960e11b815260040160405180910390fd5b600060019054906101000a90046001600160a01b03166001600160a01b031663d4a536866040518163ffffffff1660e01b8152600401602060405180830381865afa15801561233e573d6000803e3d6000fd5b505050506040513d601f19601f820116820180604052508101906123629190615a20565b1561238057604051631e59ccd960e01b815260040160405180910390fd5b8161239e57604051637bc90c0560e11b815260040160405180910390fd5b6123a9833384613e55565b6124373385600060019054906101000a90046001600160a01b03166001600160a01b031663900cf0cf6040518163ffffffff1660e01b8152600401602060405180830381865afa158015612401573d6000803e3d6000fd5b505050506040513d601f19601f820116820180604052508101906124259190615993565b6124309060016159c2565b8686613ef6565b836001600160a01b0316336001600160a01b03167f8fc656e319452025372383dc27d933046d412b8253de50a10739eeaa59862be6858560405161247c929190615c90565b60405180910390a350505050565b6001600160a01b0380821660009081526007602052604081208154919283928392916124bf918391610100909104168461400b565b6000549094506124e090829061010090046001600160a01b0316600161400b565b60005490935061250190829061010090046001600160a01b0316600261400b565b93959294505050565b6001600160a01b03821660009081526004602052604090208290339061252f906137bb565b6001600160a01b03161461255657604051630101292160e31b815260040160405180910390fd5b6001600160a01b03828116600090815260066020526040902054161561258f5760405163055ee1f160e31b815260040160405180910390fd5b6001600160a01b03808416600090815260046020526040902060018101549091166125ba8285614231565b604080516001600160a01b03838116825286811660208301528716917f758820d0b14a01c1fa60b8d2bbef25ed1b6a5af4802e5dec3f08679255ba8bf39101610c8d565b6040513481527f1de49774d094a85fc1bbbd16e8d09a865fb848218f41e2da4369f528c42ee42e9060200160405180910390a1565b6005818154811061264357600080fd5b6000918252602090912001546001600160a01b0316905081565b6005546060906000906001600160401b0381111561267d5761267d6153cf565b6040519080825280602002602001820160405280156126a6578160200160208202803683370190505b50905060005b60055481101561270c576126d06004600060058481548110611196576111966159da565b8282815181106126e2576126e26159da565b6001600160a01b039092166020928302919091019091015280612704816159f0565b9150506126ac565b50919050565b6001600160a01b0380831660008181526006602090815260408083205485168352600490915281206001810154919390929116146127545760009150506110f5565b600083116127d857600060019054906101000a90046001600160a01b03166001600160a01b031663900cf0cf6040518163ffffffff1660e01b8152600401602060405180830381865afa1580156127af573d6000803e3d6000fd5b505050506040513d601f19601f820116820180604052508101906127d39190615993565b6127da565b825b92506127e68184613a4e565b949350505050565b60606000612802848460088054905061369a565b9093509050826001600160401b0381111561281f5761281f6153cf565b604051908082528060200260200182016040528015612848578160200160208202803683370190505b50915060005b83811015610d7b57600861286282876159c2565b81548110612872576128726159da565b9060005260206000200160009054906101000a90046001600160a01b03168382815181106128a2576128a26159da565b6001600160a01b0390921660209283029190910190910152806128c4816159f0565b91505061284e565b6001600160a01b0382166000908152600460205260409020829033906128f1906137bb565b6001600160a01b03161461291857604051630101292160e31b815260040160405180910390fd5b6001600160a01b03831660009081526004602052604090203361293b82856142dc565b6040516001600160a01b03858116825280831691908716907fc5dea76e50d26af1650796f1bc14cb6279045a4e82df07eda6a81417cd4ec6a8906020015b60405180910390a35050505050565b6001600160a01b0382166000908152600460205260409020829033906129ad906137bb565b6001600160a01b0316146129d457604051630101292160e31b815260040160405180910390fd5b600080546001600160a01b038581168352600460205260408320612a019290916101009091041685614387565b60405181815290915033907f882d5671e5b36af50883197c33d48ba56ce337589958e871ba82fb0a54adf3e89060200160405180910390a28015611fda57611fda60003383613cf4565b6001600160a01b03808316600090815260046020526040902054839116612a85576040516372898ae960e11b815260040160405180910390fd5b336000818152600760205260409020546001600160a01b0316612abb5760405163cf83d93d60e01b815260040160405180910390fd5b600060019054906101000a90046001600160a01b03166001600160a01b031663d4a536866040518163ffffffff1660e01b8152600401602060405180830381865afa158015612b0e573d6000803e3d6000fd5b505050506040513d601f19601f82011682018060405250810190612b329190615a20565b15612b5057604051631e59ccd960e01b815260040160405180910390fd5b600080546001600160a01b03868116835260046020908152604080852033865260079092528420612b8b9390926101009091041690876143a7565b905080612bab57604051637bc90c0560e11b815260040160405180910390fd5b612c2f3386600060019054906101000a90046001600160a01b03166001600160a01b031663900cf0cf6040518163ffffffff1660e01b8152600401602060405180830381865afa158015612c03573d6000803e3d6000fd5b505050506040513d601f19601f82011682018060405250810190612c279190615993565b600085613ef6565b6040518181526001600160a01b0386169033907fddd8e3ffe5c76cd1a7cca4b98662cb0a4e3da53ee24a873da632d28ba104383690602001612979565b6001600160a01b038316600090815260076020526040812060068101546060928392839283929190612ca1908990899061369a565b9097509150866001600160401b03811115612cbe57612cbe6153cf565b604051908082528060200260200182016040528015612ce7578160200160208202803683370190505b509550866001600160401b03811115612d0257612d026153cf565b604051908082528060200260200182016040528015612d2b578160200160208202803683370190505b509450866001600160401b03811115612d4657612d466153cf565b604051908082528060200260200182016040528015612d6f578160200160208202803683370190505b509350866001600160401b03811115612d8a57612d8a6153cf565b604051908082528060200260200182016040528015612db3578160200160208202803683370190505b50925060005b87811015612f1757600060068301612dd1838c6159c2565b81548110612de157612de16159da565b6000918252602090912060408051606081019091526003909202018054829060ff166002811115612e1457612e146156e4565b6002811115612e2557612e256156e4565b81526020016001820154815260200160028201548152505090508060000151888381518110612e5657612e566159da565b60200260200101906002811115612e6f57612e6f6156e4565b90816002811115612e8257612e826156e4565b815250508060200151878381518110612e9d57612e9d6159da565b6020026020010181815250508060400151868381518110612ec057612ec06159da565b6020908102919091010152604081015115801590612ee2575080604001514210155b858381518110612ef457612ef46159da565b911515602092830291909101909101525080612f0f816159f0565b915050612db9565b5050939792965093509350565b60008080808085612fa957600060019054906101000a90046001600160a01b03166001600160a01b031663900cf0cf6040518163ffffffff1660e01b8152600401602060405180830381865afa158015612f82573d6000803e3d6000fd5b505050506040513d601f19601f82011682018060405250810190612fa69190615993565b95505b6001600160a01b03878116600090815260046020908152604080832060018101548b855260028201909352922054921696509060ff1660008881526003830160205260409020549015955060ff1693506130038188613a4e565b9150848015613010575083155b8015613091575060005460405163fcbb371b60e01b8152600481018990526101009091046001600160a01b03169063fcbb371b9060240161012060405180830381865afa158015613065573d6000803e3d6000fd5b505050506040513d601f19601f820116820180604052508101906130899190615918565b60c001518210155b9250509295509295909350565b600080546001600160a01b0384811683526004602090815260408085208884168652600790925284206130db9390926101009091041690856143e0565b50949350505050565b604051634ee5a1b960e01b815260040160405180910390fd5b6001600160a01b03808316600090815260046020526040902054839116613137576040516372898ae960e11b815260040160405180910390fd5b336000818152600760205260409020546001600160a01b031661316d5760405163cf83d93d60e01b815260040160405180910390fd5b600080546001600160a01b038681168352600460209081526040808520338652600790925284206131a89390926101009091041690876143a7565b604080516001600160a01b03881681526020810183905291925033917f2ef606d064225d24c1514dc94907c134faee1237445c2f63f410cce0852b2054910160405180910390a280156132015761320160003383613cf4565b505050505050565b6008818154811061264357600080fd5b336000818152600760205260409020546001600160a01b031661324f5760405163cf83d93d60e01b815260040160405180910390fd5b60008054338252600760205260409091206132779161010090046001600160a01b03166145ea565b5050565b6001600160a01b038084166000908152600460205260409020548491166132b5576040516372898ae960e11b815260040160405180910390fd5b336000818152600760205260409020546001600160a01b03166132eb5760405163cf83d93d60e01b815260040160405180910390fd5b600060019054906101000a90046001600160a01b03166001600160a01b031663d4a536866040518163ffffffff1660e01b8152600401602060405180830381865afa15801561333e573d6000803e3d6000fd5b505050506040513d601f19601f820116820180604052508101906133629190615a20565b1561338057604051631e59ccd960e01b815260040160405180910390fd5b33600090815260076020908152604080832083546001600160a01b038a811686526004909452919093206133be92849261010090041690888861460e565b9350836133de57604051637bc90c0560e11b815260040160405180910390fd5b8060060160405180606001604052808760028111156133ff576133ff6156e4565b81526020810187905260400161341842620d2f006159c2565b9052815460018181018455600093845260209093208251600390920201805492939092839160ff1990911690836002811115613456576134566156e4565b0217905550602082015181600101556040820151816002015550506135026003600060019054906101000a90046001600160a01b03166001600160a01b031663900cf0cf6040518163ffffffff1660e01b8152600401602060405180830381865afa1580156134c9573d6000803e3d6000fd5b505050506040513d601f19601f820116820180604052508101906134ed9190615993565b6134f89060016159c2565b6002919087614744565b50600954604051635692619d60e11b81526001600160a01b0388811660048301529091169063ad24c33a90602401600060405180830381600087803b15801561354a57600080fd5b505af115801561355e573d6000803e3d6000fd5b50505060068201546001600160a01b038816915033907fb649014faa7a0e23357e091fb8a67a128c33dc9480f846f7e41cb3a6c9d80610906135a290600190615a4e565b60405190815260200160405180910390a3505050505050565b60008281526009850160205260408120546135e457600083815260098601602052604090208290555b6000838152600a860160205260408120546136009060016159c2565b6000858152600a88016020526040902081905560e0860151909150811080159061364c57506003860160006136368660016159c2565b815260208101919091526040016000205460ff16155b156130db5761010085015161366190856159c2565b91505b818410156130db5783613676816159f0565b60008181526003890160205260409020805460ff1916600117905594506136649050565b600080826136a885876159c2565b106136ba576136b78584615a4e565b93505b836136c581876159c2565b91509150935093915050565b600080546001600160a01b0384811683526004602052604083206136fe9290916101009091041684614387565b90508061371e57604051637bc90c0560e11b815260040160405180910390fd5b6137763384600060019054906101000a90046001600160a01b03166001600160a01b031663900cf0cf6040518163ffffffff1660e01b8152600401602060405180830381865afa158015612c03573d6000803e3d6000fd5b6040518181526001600160a01b0384169033907fddd8e3ffe5c76cd1a7cca4b98662cb0a4e3da53ee24a873da632d28ba10438369060200160405180910390a3505050565b600b8101546000906001600160a01b03166137de5750546001600160a01b031690565b50600b01546001600160a01b031690565b610e8e838383600061481f565b6000808460060154905060006001856001600160a01b031663900cf0cf6040518163ffffffff1660e01b8152600401602060405180830381865afa158015613848573d6000803e3d6000fd5b505050506040513d601f19601f8201168201806040525081019061386c9190615993565b6138769190615a4e565b905083158061388d57508061388b83866159c2565b115b1561389f5761389c8282615a4e565b93505b60005b84811015613985576138b56001846159c2565b60405163fcbb371b60e01b8152600481018290529093506000906001600160a01b0388169063fcbb371b9060240161012060405180830381865afa158015613901573d6000803e3d6000fd5b505050506040513d601f19601f820116820180604052508101906139259190615918565b90506000613934898387613a61565b905080613942575050613973565b60a0820151613952575050613973565b613964818360a00151606460196148a5565b61396e90876159c2565b955050505b8061397d816159f0565b9150506138a2565b5050935093915050565b6000613a458560020160008560028111156139ac576139ac6156e4565b60028111156139bd576139bd6156e4565b81526020019081526020016000206000866001600160a01b03166001600160a01b0316815260200190815260200160002083876001016000876002811115613a0757613a076156e4565b6002811115613a1857613a186156e4565b8152602080820192909252604090810160009081206001600160a01b038b16825290925290209190613bdb565b95945050505050565b60006116c2600484016005850184613bdb565b600081815260028401602052604081205460ff1680613a905750600082815260038501602052604090205460ff165b15613a9d575060006116c2565b6000613aa98584613a4e565b905060498310613aea578360c00151811015613ac95760009150506116c2565b62989680613ad982610a34615cab565b613ae39190615cca565b9150613b83565b80613af95760009150506116c2565b613b056019600a615dc8565b613b168560800151606460196148d1565b613b209083615cab565b613b2a9190615cca565b915081613b3b5760009150506116c2565b613b5e84606001518560400151613b529190615cab565b6301e1338060196148d1565b613b689083615cab565b9150613b766019600a615dc8565b613b809083615cca565b91505b6000838152600a860160205260409020548015613bc5576000848152600987016020526040902054613bc184613bb98484615a4e565b8360196148a5565b9350505b50509392505050565b610e8e838383600161481f565b8254600090801580613c0957508285600081548110613bfc57613bfc6159da565b9060005260206000200154115b15613c185760009150506116c2565b8285613c25600184615a4e565b81548110613c3557613c356159da565b906000526020600020015411613c745783613c51600183615a4e565b81548110613c6157613c616159da565b90600052602060002001549150506116c2565b600181118015613caa57508285613c8c600284615a4e565b81548110613c9c57613c9c6159da565b906000526020600020015411155b15613cbb5783613c51600283615a4e565b6000613cca868560008561490d565b9050848181548110613cde57613cde6159da565b9060005260206000200154925050509392505050565b600080846002811115613d0957613d096156e4565b1415613d68576040516001600160a01b038416908390600081818185875af1925050503d8060008114613d58576040519150601f19603f3d011682016040523d82523d6000602084013e613d5d565b606091505b505080915050613dea565b613d71846149b5565b60405163a9059cbb60e01b81526001600160a01b03858116600483015260248201859052919091169063a9059cbb906044015b6020604051808303816000875af1158015613dc3573d6000803e3d6000fd5b505050506040513d601f19601f82011682018060405250810190613de79190615a20565b90505b80611fda5783604051630db5347560e11b8152600401613e0a9190615dd4565b60405180910390fd5b81546001600160a01b031615613e3b57604051621d934160e11b815260040160405180910390fd5b81546001600160a01b031916331782556132778282614231565b6000836002811115613e6957613e696156e4565b1415613e8f57803414610e8e57604051630fe5b06560e11b815260040160405180910390fd5b3415613eae5760405163a745ac8560e01b815260040160405180910390fd5b6000613eb9846149b5565b6040516323b872dd60e01b81526001600160a01b0385811660048301523060248301526044820185905291909116906323b872dd90606401613da4565b6001600160a01b0380861660009081526007602052604090208054909116613f6f5780546001600160a01b0387166001600160a01b031991821681178355600880546001810182556000919091527ff3f7a9fe364faab93b216da50a3214154f22a0a2b415b23a84c8169e8b636ee30180549092161790555b6001600160a01b0385166000908152600460205260409020613f9690829086908686614a20565b613fa4600260038685614ae8565b600954604051635692619d60e11b81526001600160a01b0387811660048301529091169063ad24c33a90602401600060405180830381600087803b158015613feb57600080fd5b505af1158015613fff573d6000803e3d6000fd5b50505050505050505050565b600080846003016000846002811115614026576140266156e4565b6002811115614037576140376156e4565b81526020810191909152604001600020549050806140595760009150506116c2565b6000846001600160a01b031663900cf0cf6040518163ffffffff1660e01b8152600401602060405180830381865afa158015614099573d6000803e3d6000fd5b505050506040513d601f19601f820116820180604052508101906140bd9190615993565b905060006140cc600184615a4e565b905060008111801561412f5750818760030160008760028111156140f2576140f26156e4565b6002811115614103576141036156e4565b81526020019081526020016000208281548110614122576141226159da565b9060005260206000200154115b15614142578061413e81615de2565b9150505b8187600301600087600281111561415b5761415b6156e4565b600281111561416c5761416c6156e4565b8152602001908152602001600020828154811061418b5761418b6159da565b906000526020600020015411156141a857600093505050506116c2565b6000805b828111614225578860040160008860028111156141cb576141cb6156e4565b60028111156141dc576141dc6156e4565b815260200190815260200160002081815481106141fb576141fb6159da565b90600052602060002001548261421191906159c2565b91508061421d816159f0565b9150506141ac565b50979650505050505050565b6001600160a01b03811661425857604051637138356f60e01b815260040160405180910390fd5b81546001600160a01b03828116911614156142865760405163abf8eb2360e01b815260040160405180910390fd5b600b8201546001600160a01b03828116911614156142b75760405163e037058f60e01b815260040160405180910390fd5b60019190910180546001600160a01b0319166001600160a01b03909216919091179055565b6001600160a01b03811661430357604051637138356f60e01b815260040160405180910390fd5b81546001600160a01b03828116911614156143315760405163abf8eb2360e01b815260040160405180910390fd5b600b8201546001600160a01b03828116911614156143625760405163e037058f60e01b815260040160405180910390fd5b600b9190910180546001600160a01b0319166001600160a01b03909216919091179055565b60008060006143978686866137fc565b6006880155925050509392505050565b60008060006143b8878787876143e0565b86546001600160a01b0316600090815260058a01602052604090205592505050949350505050565b81546001600160a01b039081166000908152600586016020908152604080832054815163900cf0cf60e01b81529151939490938593600193928a169263900cf0cf92600480830193928290030181865afa158015614442573d6000803e3d6000fd5b505050506040513d601f19601f820116820180604052508101906144669190615993565b6144709190615a4e565b905083158061448757508061448583866159c2565b115b15614499576144968282615a4e565b93505b60005b848110156145df576144af6001846159c2565b86549093506000906144ce908a906001600160a01b031660028761398f565b87546144e7908b906001600160a01b031660018861398f565b8854614500908c906001600160a01b031660008961398f565b61450a91906159c2565b61451491906159c2565b90508061452157506145cd565b60405163fcbb371b60e01b81526004810185905260009061459a906001600160a01b038b169063fcbb371b9060240161012060405180830381865afa15801561456e573d6000803e3d6000fd5b505050506040513d601f19601f820116820180604052508101906145929190615918565b899087614bce565b9050806145a85750506145cd565b6145be81836145b78b89613a4e565b60196148a5565b6145c890876159c2565b955050505b806145d7816159f0565b91505061449c565b505094509492505050565b6145f682826001614c19565b61460282826002614c19565b61327782826000614c19565b600061472a86600201600085600281111561462b5761462b6156e4565b600281111561463c5761463c6156e4565b81526020808201929092526040908101600090812088546001600160a01b03908116835290845290829020825163900cf0cf60e01b815292519093918a169263900cf0cf9260048083019391928290030181865afa1580156146a2573d6000803e3d6000fd5b505050506040513d601f19601f820116820180604052508101906146c69190615993565b6146d19060016159c2565b848960010160008860028111156146ea576146ea6156e4565b60028111156146fb576146fb6156e4565b8152602080820192909252604090810160009081208b546001600160a01b031682529092529020929190614744565b91508161473957506000613a45565b6130db848684614f3f565b835460009080158061477b57508561475d600183615a4e565b8154811061476d5761476d6159da565b906000526020600020015484105b1561479957604051630eae4c9760e01b815260040160405180910390fd5b60006147a6878787614fbf565b905060008682815481106147bc576147bc6159da565b90600052602060002001549050808511156147d757806147d9565b845b9450841561481357848783815481106147f4576147f46159da565b90600052602060002001600082825461480d9190615a4e565b90915550505b50929695505050505050565b815160005b81811015613201576000848281518110614840576148406159da565b6020026020010151905085811180156148705750600081815260028801602052604090205460ff16151584151514155b156148925760008181526002880160205260409020805460ff19168515151790555b508061489d816159f0565b915050614824565b60006148b282600a615dc8565b6148bd8585856148d1565b6148c79087615cab565b613a459190615cca565b6000806148df8360016159c2565b6148ea90600a615dc8565b6148f49086615cab565b9050600a6149028583615cca565b6148c79060056159c2565b60008183141561492957614922600183615a4e565b90506127e6565b6000600261493784866159c2565b6149419190615cca565b905084868281548110614956576149566159da565b9060005260206000200154111561497b576149738686868461490d565b9150506127e6565b8486828154811061498e5761498e6159da565b90600052602060002001541015613a455761497386866149af8460016159c2565b8661490d565b600060018260028111156149cb576149cb6156e4565b14156149df57506001602960991b01919050565b60028260028111156149f3576149f36156e4565b1415614a0757506002602960991b01919050565b604051638698bf3760e01b815260040160405180910390fd5b614acf856002016000846002811115614a3b57614a3b6156e4565b6002811115614a4c57614a4c6156e4565b81526020808201929092526040908101600090812087546001600160a01b031682529092528120908690849060018a0190876002811115614a8f57614a8f6156e4565b6002811115614aa057614aa06156e4565b8152602080820192909252604090810160009081208a546001600160a01b031682529092529020929190614ae8565b8454610c9690849086906001600160a01b0316846151cf565b8354600181118015614b1f575084614b01600183615a4e565b81548110614b1157614b116159da565b906000526020600020015483105b8015614b50575084614b32600283615a4e565b81548110614b4257614b426159da565b906000526020600020015483105b15614b6e57604051630eae4c9760e01b815260040160405180910390fd5b6000614b7b868686614fbf565b8654925090505b818110156132015782858281548110614b9d57614b9d6159da565b906000526020600020016000828254614bb691906159c2565b90915550819050614bc6816159f0565b915050614b82565b600080614bdc858585613a61565b905080614bed5760009150506116c2565b60a0840151614bfd5790506116c2565b614c0f818560a00151606460196148a5565b613a459082615a4e565b6000614c2684848461400b565b905080614c335750505050565b6000846003016000846002811115614c4d57614c4d6156e4565b6002811115614c5e57614c5e6156e4565b8152602001908152602001600020805490509050836001600160a01b031663900cf0cf6040518163ffffffff1660e01b8152600401602060405180830381865afa158015614cb0573d6000803e3d6000fd5b505050506040513d601f19601f82011682018060405250810190614cd49190615993565b856003016000856002811115614cec57614cec6156e4565b6002811115614cfd57614cfd6156e4565b8152602001908152602001600020600183614d189190615a4e565b81548110614d2857614d286159da565b906000526020600020015411614dc357846003016000846002811115614d5057614d506156e4565b6002811115614d6157614d616156e4565b81526020019081526020016000206000614d7b919061524f565b846004016000846002811115614d9357614d936156e4565b6002811115614da457614da46156e4565b81526020019081526020016000206000614dbe919061524f565b614f28565b6040518060200160405280866003016000866002811115614de657614de66156e4565b6002811115614df757614df76156e4565b8152602001908152602001600020600184614e129190615a4e565b81548110614e2257614e226159da565b9060005260206000200154815250856003016000856002811115614e4857614e486156e4565b6002811115614e5957614e596156e4565b81526020810191909152604001600020614e74916001615270565b506040518060200160405280866004016000866002811115614e9857614e986156e4565b6002811115614ea957614ea96156e4565b8152602001908152602001600020600184614ec49190615a4e565b81548110614ed457614ed46159da565b9060005260206000200154815250856004016000856002811115614efa57614efa6156e4565b6002811115614f0b57614f0b6156e4565b81526020810191909152604001600020614f26916001615270565b505b8454610c969084906001600160a01b031684613cf4565b611fda83600501836001600160a01b031663900cf0cf6040518163ffffffff1660e01b8152600401602060405180830381865afa158015614f84573d6000803e3d6000fd5b505050506040513d601f19601f82011682018060405250810190614fa89190615993565b614fb39060016159c2565b60048601919084614744565b825460009080614ffa5750508254600181810185556000858152602080822090930184905584549182018555848152918220018190556116c2565b6000615007600183615a4e565b9050600086828154811061501d5761501d6159da565b906000526020600020015490508085141561503c575091506116c29050565b808511156150a4578654600181018855600088815260209020018590558554869081908490811061506f5761506f6159da565b600091825260208083209091015483546001818101865594845291909220015561509a9083906159c2565b93505050506116c2565b6000821180156150d95750866150bb600184615a4e565b815481106150cb576150cb6159da565b906000526020600020015485145b156150e95761509a600183615a4e565b868783815481106150fc576150fc6159da565b6000918252602080832090910154835460018101855593835291209091015585548690819084908110615131576151316159da565b6000918252602080832090910154835460018101855593835291209091015586548590889084908110615166576151666159da565b60009182526020909120015581156151a45785615184600184615a4e565b81548110615194576151946159da565b90600052602060002001546151a7565b60005b8683815481106151b9576151b96159da565b6000918252602090912001555091506116c29050565b6001600160a01b038216600090815260088501602052604090205460ff1661523d576001600160a01b038216600081815260088601602090815260408220805460ff191660019081179091556007880180549182018155835291200180546001600160a01b03191690911790555b611fda60048501600586018584614ae8565b508054600082559060005260206000209081019061526d91906152bb565b50565b8280548282559060005260206000209081019282156152ab579160200282015b828111156152ab578251825591602001919060010190615290565b506152b79291506152bb565b5090565b5b808211156152b757600081556001016152bc565b6001600160a01b038116811461526d57600080fd5b600080604083850312156152f857600080fd5b8235615303816152d0565b946020939093013593505050565b60006020828403121561532357600080fd5b81356116c2816152d0565b6000806040838503121561534157600080fd5b50508035926020909101359150565b600081518084526020808501945080840160005b838110156153895781516001600160a01b031687529582019590820190600101615364565b509495945050505050565b6040815260006153a76040830185615350565b90508260208301529392505050565b6000602082840312156153c857600080fd5b5035919050565b634e487b7160e01b600052604160045260246000fd5b60405161012081016001600160401b0381118282101715615408576154086153cf565b60405290565b604051601f8201601f191681016001600160401b0381118282101715615436576154366153cf565b604052919050565b60006001600160401b03821115615457576154576153cf565b5060051b60200190565b6000806040838503121561547457600080fd5b823561547f816152d0565b91506020838101356001600160401b0381111561549b57600080fd5b8401601f810186136154ac57600080fd5b80356154bf6154ba8261543e565b61540e565b81815260059190911b820183019083810190888311156154de57600080fd5b928401925b828410156154fc578335825292840192908401906154e3565b80955050505050509250929050565b6000806000806080858703121561552157600080fd5b843561552c816152d0565b966020860135965060408601359560600135945092505050565b600081518084526020808501945080840160005b838110156153895781518752958201959082019060010161555a565b60a08152600061558960a0830188615350565b828103602084015261559b8188615546565b905082810360408401526155af8187615546565b905082810360608401526155c38186615546565b9150508260808301529695505050505050565b600080604083850312156155e957600080fd5b82356001600160401b038111156155ff57600080fd5b8301601f8101851361561057600080fd5b803560206156206154ba8361543e565b82815260059290921b8301810191818101908884111561563f57600080fd5b938201935b83851015615666578435615657816152d0565b82529382019390820190615644565b98969091013596505050505050565b6060815260006156886060830186615350565b828103602084015261569a8186615546565b915050826040830152949350505050565b600080604083850312156156be57600080fd5b82356156c9816152d0565b915060208301356156d9816152d0565b809150509250929050565b634e487b7160e01b600052602160045260246000fd5b6003811061571857634e487b7160e01b600052602160045260246000fd5b9052565b6080810161572a82876156fa565b846020830152836040830152821515606083015295945050505050565b60008060006060848603121561575c57600080fd5b505081359360208301359350604090920135919050565b600081518084526020808501945080840160005b83811015615389578151151587529582019590820190600101615787565b60a0815260006157b860a0830188615350565b82810360208401526157ca8188615350565b905082810360408401526157de8187615546565b905082810360608401526155c38186615773565b60008060006060848603121561580757600080fd5b8335615812816152d0565b925060208401356003811061582657600080fd5b929592945050506040919091013590565b6020815260006116c26020830184615350565b60008060006060848603121561585f57600080fd5b833561586a816152d0565b95602085013595506040909401359392505050565b60a0808252865190820181905260009060209060c0840190828a01845b828110156158bf576158af8483516156fa565b928401929084019060010161589c565b505050838103828501526158d38189615546565b91505082810360408401526157de8187615546565b6000806000606084860312156158fd57600080fd5b8335615908816152d0565b92506020840135615826816152d0565b6000610120828403121561592b57600080fd5b6159336153e5565b825181526020830151602082015260408301516040820152606083015160608201526080830151608082015260a083015160a082015260c083015160c082015260e083015160e08201526101008084015181830152508091505092915050565b6000602082840312156159a557600080fd5b5051919050565b634e487b7160e01b600052601160045260246000fd5b600082198211156159d5576159d56159ac565b500190565b634e487b7160e01b600052603260045260246000fd5b6000600019821415615a0457615a046159ac565b5060010190565b80518015158114615a1b57600080fd5b919050565b600060208284031215615a3257600080fd5b6116c282615a0b565b6020815260006116c26020830184615546565b600082821015615a6057615a606159ac565b500390565b600082601f830112615a7657600080fd5b81516020615a866154ba8361543e565b82815260059290921b84018101918181019086841115615aa557600080fd5b8286015b84811015615ac9578051615abc816152d0565b8352918301918301615aa9565b509695505050505050565b600082601f830112615ae557600080fd5b81516020615af56154ba8361543e565b82815260059290921b84018101918181019086841115615b1457600080fd5b8286015b84811015615ac957615b2981615a0b565b8352918301918301615b18565b600082601f830112615b4757600080fd5b81516020615b576154ba8361543e565b82815260059290921b84018101918181019086841115615b7657600080fd5b8286015b84811015615ac95780518352918301918301615b7a565b600080600080600080600060e0888a031215615bac57600080fd5b87516001600160401b0380821115615bc357600080fd5b615bcf8b838c01615a65565b985060208a0151915080821115615be557600080fd5b615bf18b838c01615a65565b975060408a0151915080821115615c0757600080fd5b615c138b838c01615ad4565b965060608a0151915080821115615c2957600080fd5b615c358b838c01615ad4565b955060808a0151915080821115615c4b57600080fd5b615c578b838c01615b36565b945060a08a0151915080821115615c6d57600080fd5b50615c7a8a828b01615ad4565b92505060c0880151905092959891949750929550565b60408101615c9e82856156fa565b8260208301529392505050565b6000816000190483118215151615615cc557615cc56159ac565b500290565b600082615ce757634e487b7160e01b600052601260045260246000fd5b500490565b600181815b80851115610d7b578160001904821115615d0d57615d0d6159ac565b80851615615d1a57918102915b93841c9390800290615cf1565b600082615d36575060016110f5565b81615d43575060006110f5565b8160018114615d595760028114615d6357615d7f565b60019150506110f5565b60ff841115615d7457615d746159ac565b50506001821b6110f5565b5060208310610133831016604e8410600b8410161715615da2575081810a6110f5565b615dac8383615cec565b8060001904821115615dc057615dc06159ac565b029392505050565b60006116c28383615d27565b602081016110f582846156fa565b600081615df157615df16159ac565b50600019019056fea2646970667358221220dbd5133aa5db9953247393fcff5bc173bef42d9a643f707e526715b07eed530064736f6c634300080c0033",
  "linkReferences": {},
  "deployedLinkReferences": {}
}