{
  "_format": "hh-sol-artifact-1",
  "contractName": "StakeManager",
  "sourceName": "contracts/StakeManager.sol",
  "abi": [
    {
      "inputs": [],
      "name": "AlreadyClaimed",
      "type": "error"
    },
    {
      "inputs": [],
      "name": "AlreadyInitialized",
      "type": "error"
    },
    {
      "inputs": [],
      "name": "AlreadyJoined",
      "type": "error"
    },
    {
      "inputs": [],
      "name": "AmountMismatched",
      "type": "error"
    },
    {
      "inputs": [],
      "name": "EmptyAddress",
      "type": "error"
    },
    {
      "inputs": [],
      "name": "Locked",
      "type": "error"
    },
    {
      "inputs": [],
      "name": "NoAmount",
      "type": "error"
    },
    {
      "inputs": [],
      "name": "NotZeroAmount",
      "type": "error"
    },
    {
      "inputs": [],
      "name": "ObsoletedMethod",
      "type": "error"
    },
    {
      "inputs": [],
      "name": "OnlyBlockProducer",
      "type": "error"
    },
    {
      "inputs": [],
      "name": "OnlyNotLastBlock",
      "type": "error"
    },
    {
      "inputs": [],
      "name": "PastEpoch",
      "type": "error"
    },
    {
      "inputs": [],
      "name": "SameAsOwner",
      "type": "error"
    },
    {
      "inputs": [],
      "name": "StakerDoesNotExist",
      "type": "error"
    },
    {
      "inputs": [
        {
          "internalType": "enum Token.Type",
          "name": "token",
          "type": "uint8"
        }
      ],
      "name": "TransferFailed",
      "type": "error"
    },
    {
      "inputs": [],
      "name": "UnauthorizedSender",
      "type": "error"
    },
    {
      "inputs": [],
      "name": "UnknownToken",
      "type": "error"
    },
    {
      "inputs": [],
      "name": "ValidatorDoesNotExist",
      "type": "error"
    },
    {
      "anonymous": false,
      "inputs": [
        {
          "indexed": false,
          "internalType": "uint256",
          "name": "amount",
          "type": "uint256"
        }
      ],
      "name": "AddedRewardBalance",
      "type": "event"
    },
    {
      "anonymous": false,
      "inputs": [
        {
          "indexed": true,
          "internalType": "address",
          "name": "validator",
          "type": "address"
        },
        {
          "indexed": false,
          "internalType": "uint256",
          "name": "amount",
          "type": "uint256"
        }
      ],
      "name": "ClaimedCommissions",
      "type": "event"
    },
    {
      "anonymous": false,
      "inputs": [
        {
          "indexed": true,
          "internalType": "address",
          "name": "staker",
          "type": "address"
        },
        {
          "indexed": false,
          "internalType": "uint256",
          "name": "lockedUnstake",
          "type": "uint256"
        }
      ],
      "name": "ClaimedLockedUnstake",
      "type": "event"
    },
    {
      "anonymous": false,
      "inputs": [
        {
          "indexed": true,
          "internalType": "address",
          "name": "staker",
          "type": "address"
        },
        {
          "indexed": false,
          "internalType": "address",
          "name": "validator",
          "type": "address"
        },
        {
          "indexed": false,
          "internalType": "uint256",
          "name": "amount",
          "type": "uint256"
        }
      ],
      "name": "ClaimedRewards",
      "type": "event"
    },
    {
      "anonymous": false,
      "inputs": [
        {
          "indexed": true,
          "internalType": "address",
          "name": "validator",
          "type": "address"
        },
        {
          "indexed": false,
          "internalType": "address",
          "name": "oldOperator",
          "type": "address"
        },
        {
          "indexed": false,
          "internalType": "address",
          "name": "newOperator",
          "type": "address"
        }
      ],
      "name": "OperatorUpdated",
      "type": "event"
    },
    {
      "anonymous": false,
      "inputs": [
        {
          "indexed": true,
          "internalType": "address",
          "name": "staker",
          "type": "address"
        },
        {
          "indexed": true,
          "internalType": "address",
          "name": "validator",
          "type": "address"
        },
        {
          "indexed": false,
          "internalType": "uint256",
          "name": "amount",
          "type": "uint256"
        }
      ],
      "name": "ReStaked",
      "type": "event"
    },
    {
      "anonymous": false,
      "inputs": [
        {
          "indexed": true,
          "internalType": "address",
          "name": "staker",
          "type": "address"
        },
        {
          "indexed": true,
          "internalType": "address",
          "name": "validator",
          "type": "address"
        },
        {
          "indexed": false,
          "internalType": "enum Token.Type",
          "name": "token",
          "type": "uint8"
        },
        {
          "indexed": false,
          "internalType": "uint256",
          "name": "amount",
          "type": "uint256"
        }
      ],
      "name": "Staked",
      "type": "event"
    },
    {
      "anonymous": false,
      "inputs": [
        {
          "indexed": true,
          "internalType": "address",
          "name": "staker",
          "type": "address"
        },
        {
          "indexed": true,
          "internalType": "address",
          "name": "validator",
          "type": "address"
        },
        {
          "indexed": false,
          "internalType": "enum Token.Type",
          "name": "token",
          "type": "uint8"
        },
        {
          "indexed": false,
          "internalType": "uint256",
          "name": "amount",
          "type": "uint256"
        }
      ],
      "name": "Unstaked",
      "type": "event"
    },
    {
      "anonymous": false,
      "inputs": [
        {
          "indexed": true,
          "internalType": "address",
          "name": "staker",
          "type": "address"
        },
        {
          "indexed": true,
          "internalType": "address",
          "name": "validator",
          "type": "address"
        },
        {
          "indexed": false,
          "internalType": "uint256",
          "name": "lockedUnstake",
          "type": "uint256"
        }
      ],
      "name": "UnstakedV2",
      "type": "event"
    },
    {
      "anonymous": false,
      "inputs": [
        {
          "indexed": true,
          "internalType": "address",
          "name": "validator",
          "type": "address"
        },
        {
          "indexed": false,
          "internalType": "uint256[]",
          "name": "epochs",
          "type": "uint256[]"
        }
      ],
      "name": "ValidatorActivated",
      "type": "event"
    },
    {
      "anonymous": false,
      "inputs": [
        {
          "indexed": true,
          "internalType": "address",
          "name": "validator",
          "type": "address"
        },
        {
          "indexed": false,
          "internalType": "uint256[]",
          "name": "epochs",
          "type": "uint256[]"
        }
      ],
      "name": "ValidatorDeactivated",
      "type": "event"
    },
    {
      "anonymous": false,
      "inputs": [
        {
          "indexed": true,
          "internalType": "address",
          "name": "validator",
          "type": "address"
        },
        {
          "indexed": false,
          "internalType": "uint256",
          "name": "until",
          "type": "uint256"
        }
      ],
      "name": "ValidatorJailed",
      "type": "event"
    },
    {
      "anonymous": false,
      "inputs": [
        {
          "indexed": false,
          "internalType": "address",
          "name": "validator",
          "type": "address"
        }
      ],
      "name": "ValidatorJoined",
      "type": "event"
    },
    {
      "anonymous": false,
      "inputs": [
        {
          "indexed": true,
          "internalType": "address",
          "name": "validator",
          "type": "address"
        }
      ],
      "name": "ValidatorSlashed",
      "type": "event"
    },
    {
      "inputs": [
        {
          "internalType": "address",
          "name": "validator",
          "type": "address"
        },
        {
          "internalType": "uint256[]",
          "name": "epochs",
          "type": "uint256[]"
        }
      ],
      "name": "activateValidator",
      "outputs": [],
      "stateMutability": "nonpayable",
      "type": "function"
    },
    {
      "inputs": [],
      "name": "addRewardBalance",
      "outputs": [],
      "stateMutability": "payable",
      "type": "function"
    },
    {
      "inputs": [],
      "name": "allowlist",
      "outputs": [
        {
          "internalType": "contract IAllowlist",
          "name": "",
          "type": "address"
        }
      ],
      "stateMutability": "view",
      "type": "function"
    },
    {
      "inputs": [],
      "name": "candidateManager",
      "outputs": [
        {
          "internalType": "contract ICandidateValidatorManager",
          "name": "",
          "type": "address"
        }
      ],
      "stateMutability": "view",
      "type": "function"
    },
    {
      "inputs": [
        {
          "internalType": "address",
          "name": "validator",
          "type": "address"
        },
        {
          "internalType": "uint256",
          "name": "epochs",
          "type": "uint256"
        }
      ],
      "name": "claimCommissions",
      "outputs": [],
      "stateMutability": "nonpayable",
      "type": "function"
    },
    {
      "inputs": [
        {
          "internalType": "uint256",
          "name": "lockedUnstake",
          "type": "uint256"
        }
      ],
      "name": "claimLockedUnstake",
      "outputs": [],
      "stateMutability": "nonpayable",
      "type": "function"
    },
    {
      "inputs": [
        {
          "internalType": "address",
          "name": "staker",
          "type": "address"
        },
        {
          "internalType": "address",
          "name": "validator",
          "type": "address"
        },
        {
          "internalType": "uint256",
          "name": "epochs",
          "type": "uint256"
        }
      ],
      "name": "claimRewards",
      "outputs": [],
      "stateMutability": "nonpayable",
      "type": "function"
    },
    {
      "inputs": [
        {
          "internalType": "address",
          "name": "staker",
          "type": "address"
        }
      ],
      "name": "claimUnstakes",
      "outputs": [],
      "stateMutability": "nonpayable",
      "type": "function"
    },
    {
      "inputs": [
        {
          "internalType": "address",
          "name": "validator",
          "type": "address"
        },
        {
          "internalType": "uint256[]",
          "name": "epochs",
          "type": "uint256[]"
        }
      ],
      "name": "deactivateValidator",
      "outputs": [],
      "stateMutability": "nonpayable",
      "type": "function"
    },
    {
      "inputs": [],
      "name": "environment",
      "outputs": [
        {
          "internalType": "contract IEnvironment",
          "name": "",
          "type": "address"
        }
      ],
      "stateMutability": "view",
      "type": "function"
    },
    {
      "inputs": [
        {
          "internalType": "address",
          "name": "validator",
          "type": "address"
        },
        {
          "internalType": "uint256",
          "name": "epoch",
          "type": "uint256"
        }
      ],
      "name": "getBlockAndSlashes",
      "outputs": [
        {
          "internalType": "uint256",
          "name": "blocks",
          "type": "uint256"
        },
        {
          "internalType": "uint256",
          "name": "slashes",
          "type": "uint256"
        }
      ],
      "stateMutability": "view",
      "type": "function"
    },
    {
      "inputs": [
        {
          "internalType": "address",
          "name": "validator",
          "type": "address"
        },
        {
          "internalType": "uint256",
          "name": "epochs",
          "type": "uint256"
        }
      ],
      "name": "getCommissions",
      "outputs": [
        {
          "internalType": "uint256",
          "name": "commissions",
          "type": "uint256"
        }
      ],
      "stateMutability": "view",
      "type": "function"
    },
    {
      "inputs": [
        {
          "internalType": "address",
          "name": "staker",
          "type": "address"
        },
        {
          "internalType": "uint256",
          "name": "lockedUnstake",
          "type": "uint256"
        }
      ],
      "name": "getLockedUnstake",
      "outputs": [
        {
          "internalType": "enum Token.Type",
          "name": "token",
          "type": "uint8"
        },
        {
          "internalType": "uint256",
          "name": "amount",
          "type": "uint256"
        },
        {
          "internalType": "uint256",
          "name": "unlockTime",
          "type": "uint256"
        },
        {
          "internalType": "bool",
          "name": "claimable",
          "type": "bool"
        }
      ],
      "stateMutability": "view",
      "type": "function"
    },
    {
      "inputs": [
        {
          "internalType": "address",
          "name": "staker",
          "type": "address"
        }
      ],
      "name": "getLockedUnstakeCount",
      "outputs": [
        {
          "internalType": "uint256",
          "name": "count",
          "type": "uint256"
        }
      ],
      "stateMutability": "view",
      "type": "function"
    },
    {
      "inputs": [
        {
          "internalType": "address",
          "name": "staker",
          "type": "address"
        },
        {
          "internalType": "uint256",
          "name": "cursor",
          "type": "uint256"
        },
        {
          "internalType": "uint256",
          "name": "howMany",
          "type": "uint256"
        }
      ],
      "name": "getLockedUnstakes",
      "outputs": [
        {
          "internalType": "enum Token.Type[]",
          "name": "tokens",
          "type": "uint8[]"
        },
        {
          "internalType": "uint256[]",
          "name": "amounts",
          "type": "uint256[]"
        },
        {
          "internalType": "uint256[]",
          "name": "unlockTimes",
          "type": "uint256[]"
        },
        {
          "internalType": "bool[]",
          "name": "claimable",
          "type": "bool[]"
        },
        {
          "internalType": "uint256",
          "name": "newCursor",
          "type": "uint256"
        }
      ],
      "stateMutability": "view",
      "type": "function"
    },
    {
      "inputs": [
        {
          "internalType": "address",
          "name": "operator",
          "type": "address"
        },
        {
          "internalType": "uint256",
          "name": "epoch",
          "type": "uint256"
        }
      ],
      "name": "getOperatorStakes",
      "outputs": [
        {
          "internalType": "uint256",
          "name": "stakes",
          "type": "uint256"
        }
      ],
      "stateMutability": "view",
      "type": "function"
    },
    {
      "inputs": [
        {
          "internalType": "address",
          "name": "staker",
          "type": "address"
        },
        {
          "internalType": "address",
          "name": "validator",
          "type": "address"
        },
        {
          "internalType": "uint256",
          "name": "epochs",
          "type": "uint256"
        }
      ],
      "name": "getRewards",
      "outputs": [
        {
          "internalType": "uint256",
          "name": "rewards",
          "type": "uint256"
        }
      ],
      "stateMutability": "view",
      "type": "function"
    },
    {
      "inputs": [
        {
          "internalType": "address",
          "name": "staker",
          "type": "address"
        },
        {
          "internalType": "uint256",
          "name": "epoch",
          "type": "uint256"
        },
        {
          "internalType": "uint256",
          "name": "cursor",
          "type": "uint256"
        },
        {
          "internalType": "uint256",
          "name": "howMany",
          "type": "uint256"
        }
      ],
      "name": "getStakerStakes",
      "outputs": [
        {
          "internalType": "address[]",
          "name": "_validators",
          "type": "address[]"
        },
        {
          "internalType": "uint256[]",
          "name": "oasStakes",
          "type": "uint256[]"
        },
        {
          "internalType": "uint256[]",
          "name": "woasStakes",
          "type": "uint256[]"
        },
        {
          "internalType": "uint256[]",
          "name": "soasStakes",
          "type": "uint256[]"
        },
        {
          "internalType": "uint256",
          "name": "newCursor",
          "type": "uint256"
        }
      ],
      "stateMutability": "view",
      "type": "function"
    },
    {
      "inputs": [
        {
          "internalType": "uint256",
          "name": "cursor",
          "type": "uint256"
        },
        {
          "internalType": "uint256",
          "name": "howMany",
          "type": "uint256"
        }
      ],
      "name": "getStakers",
      "outputs": [
        {
          "internalType": "address[]",
          "name": "_stakers",
          "type": "address[]"
        },
        {
          "internalType": "uint256",
          "name": "newCursor",
          "type": "uint256"
        }
      ],
      "stateMutability": "view",
      "type": "function"
    },
    {
      "inputs": [
        {
          "internalType": "address[]",
          "name": "_validators",
          "type": "address[]"
        },
        {
          "internalType": "uint256",
          "name": "epochs",
          "type": "uint256"
        }
      ],
      "name": "getTotalRewards",
      "outputs": [
        {
          "internalType": "uint256",
          "name": "rewards",
          "type": "uint256"
        }
      ],
      "stateMutability": "view",
      "type": "function"
    },
    {
      "inputs": [
        {
          "internalType": "uint256",
          "name": "epoch",
          "type": "uint256"
        }
      ],
      "name": "getTotalStake",
      "outputs": [
        {
          "internalType": "uint256",
          "name": "amounts",
          "type": "uint256"
        }
      ],
      "stateMutability": "view",
      "type": "function"
    },
    {
      "inputs": [
        {
          "internalType": "address",
          "name": "staker",
          "type": "address"
        }
      ],
      "name": "getUnstakes",
      "outputs": [
        {
          "internalType": "uint256",
          "name": "oasUnstakes",
          "type": "uint256"
        },
        {
          "internalType": "uint256",
          "name": "woasUnstakes",
          "type": "uint256"
        },
        {
          "internalType": "uint256",
          "name": "soasUnstakes",
          "type": "uint256"
        }
      ],
      "stateMutability": "view",
      "type": "function"
    },
    {
      "inputs": [
        {
          "internalType": "address",
          "name": "validator",
          "type": "address"
        },
        {
          "internalType": "uint256",
          "name": "epoch",
          "type": "uint256"
        }
      ],
      "name": "getValidatorInfo",
      "outputs": [
        {
          "internalType": "address",
          "name": "operator",
          "type": "address"
        },
        {
          "internalType": "bool",
          "name": "active",
          "type": "bool"
        },
        {
          "internalType": "bool",
          "name": "jailed",
          "type": "bool"
        },
        {
          "internalType": "bool",
          "name": "candidate",
          "type": "bool"
        },
        {
          "internalType": "uint256",
          "name": "stakes",
          "type": "uint256"
        }
      ],
      "stateMutability": "view",
      "type": "function"
    },
    {
      "inputs": [
        {
          "internalType": "uint256",
          "name": "cursor",
          "type": "uint256"
        },
        {
          "internalType": "uint256",
          "name": "howMany",
          "type": "uint256"
        }
      ],
      "name": "getValidatorOwners",
      "outputs": [
        {
          "internalType": "address[]",
          "name": "owners",
          "type": "address[]"
        },
        {
          "internalType": "uint256",
          "name": "newCursor",
          "type": "uint256"
        }
      ],
      "stateMutability": "view",
      "type": "function"
    },
    {
      "inputs": [
        {
          "internalType": "address",
          "name": "validator",
          "type": "address"
        },
        {
          "internalType": "uint256",
          "name": "epoch",
          "type": "uint256"
        }
      ],
      "name": "getValidatorStakes",
      "outputs": [
        {
          "internalType": "uint256",
          "name": "stakes",
          "type": "uint256"
        }
      ],
      "stateMutability": "view",
      "type": "function"
    },
    {
      "inputs": [
        {
          "internalType": "address",
          "name": "validator",
          "type": "address"
        },
        {
          "internalType": "uint256",
          "name": "epoch",
          "type": "uint256"
        },
        {
          "internalType": "uint256",
          "name": "cursor",
          "type": "uint256"
        },
        {
          "internalType": "uint256",
          "name": "howMany",
          "type": "uint256"
        }
      ],
      "name": "getValidatorStakes",
      "outputs": [
        {
          "internalType": "address[]",
          "name": "_stakers",
          "type": "address[]"
        },
        {
          "internalType": "uint256[]",
          "name": "stakes",
          "type": "uint256[]"
        },
        {
          "internalType": "uint256",
          "name": "newCursor",
          "type": "uint256"
        }
      ],
      "stateMutability": "view",
      "type": "function"
    },
    {
      "inputs": [
        {
          "internalType": "uint256",
          "name": "epoch",
          "type": "uint256"
        },
        {
          "internalType": "uint256",
          "name": "cursor",
          "type": "uint256"
        },
        {
          "internalType": "uint256",
          "name": "howMany",
          "type": "uint256"
        }
      ],
      "name": "getValidators",
      "outputs": [
        {
          "internalType": "address[]",
          "name": "owners",
          "type": "address[]"
        },
        {
          "internalType": "address[]",
          "name": "operators",
          "type": "address[]"
        },
        {
          "internalType": "uint256[]",
          "name": "stakes",
          "type": "uint256[]"
        },
        {
          "internalType": "bool[]",
          "name": "candidates",
          "type": "bool[]"
        },
        {
          "internalType": "uint256",
          "name": "newCursor",
          "type": "uint256"
        }
      ],
      "stateMutability": "view",
      "type": "function"
    },
    {
      "inputs": [
        {
          "internalType": "contract IEnvironment",
          "name": "_environment",
          "type": "address"
        },
        {
          "internalType": "contract IAllowlist",
          "name": "_allowlist",
          "type": "address"
        }
      ],
      "name": "initialize",
      "outputs": [],
      "stateMutability": "nonpayable",
      "type": "function"
    },
    {
      "inputs": [],
      "name": "initialized",
      "outputs": [
        {
          "internalType": "bool",
          "name": "",
          "type": "bool"
        }
      ],
      "stateMutability": "view",
      "type": "function"
    },
    {
      "inputs": [
        {
          "internalType": "address",
          "name": "operator",
          "type": "address"
        }
      ],
      "name": "joinValidator",
      "outputs": [],
      "stateMutability": "nonpayable",
      "type": "function"
    },
    {
      "inputs": [
        {
          "internalType": "address",
          "name": "",
          "type": "address"
        }
      ],
      "name": "operatorToOwner",
      "outputs": [
        {
          "internalType": "address",
          "name": "",
          "type": "address"
        }
      ],
      "stateMutability": "view",
      "type": "function"
    },
    {
      "inputs": [
        {
          "internalType": "uint256",
          "name": "epochs",
          "type": "uint256"
        }
      ],
      "name": "restakeCommissions",
      "outputs": [],
      "stateMutability": "nonpayable",
      "type": "function"
    },
    {
      "inputs": [
        {
          "internalType": "address",
          "name": "validator",
          "type": "address"
        },
        {
          "internalType": "uint256",
          "name": "epochs",
          "type": "uint256"
        }
      ],
      "name": "restakeRewards",
      "outputs": [],
      "stateMutability": "nonpayable",
      "type": "function"
    },
    {
      "inputs": [
        {
          "internalType": "address",
          "name": "operator",
          "type": "address"
        },
        {
          "internalType": "uint256",
          "name": "blocks",
          "type": "uint256"
        }
      ],
      "name": "slash",
      "outputs": [],
      "stateMutability": "nonpayable",
      "type": "function"
    },
    {
      "inputs": [
        {
          "internalType": "address",
          "name": "validator",
          "type": "address"
        },
        {
          "internalType": "enum Token.Type",
          "name": "token",
          "type": "uint8"
        },
        {
          "internalType": "uint256",
          "name": "amount",
          "type": "uint256"
        }
      ],
      "name": "stake",
      "outputs": [],
      "stateMutability": "payable",
      "type": "function"
    },
    {
      "inputs": [
        {
          "internalType": "uint256",
          "name": "",
          "type": "uint256"
        }
      ],
      "name": "stakeAmounts",
      "outputs": [
        {
          "internalType": "uint256",
          "name": "",
          "type": "uint256"
        }
      ],
      "stateMutability": "view",
      "type": "function"
    },
    {
      "inputs": [
        {
          "internalType": "uint256",
          "name": "",
          "type": "uint256"
        }
      ],
      "name": "stakeUpdates",
      "outputs": [
        {
          "internalType": "uint256",
          "name": "",
          "type": "uint256"
        }
      ],
      "stateMutability": "view",
      "type": "function"
    },
    {
      "inputs": [
        {
          "internalType": "uint256",
          "name": "",
          "type": "uint256"
        }
      ],
      "name": "stakerSigners",
      "outputs": [
        {
          "internalType": "address",
          "name": "",
          "type": "address"
        }
      ],
      "stateMutability": "view",
      "type": "function"
    },
    {
      "inputs": [
        {
          "internalType": "address",
          "name": "",
          "type": "address"
        }
      ],
      "name": "stakers",
      "outputs": [
        {
          "internalType": "address",
          "name": "signer",
          "type": "address"
        }
      ],
      "stateMutability": "view",
      "type": "function"
    },
    {
      "inputs": [
        {
          "internalType": "address",
          "name": "validator",
          "type": "address"
        },
        {
          "internalType": "enum Token.Type",
          "name": "token",
          "type": "uint8"
        },
        {
          "internalType": "uint256",
          "name": "amount",
          "type": "uint256"
        }
      ],
      "name": "unstake",
      "outputs": [],
      "stateMutability": "nonpayable",
      "type": "function"
    },
    {
      "inputs": [
        {
          "internalType": "address",
          "name": "validator",
          "type": "address"
        },
        {
          "internalType": "enum Token.Type",
          "name": "token",
          "type": "uint8"
        },
        {
          "internalType": "uint256",
          "name": "amount",
          "type": "uint256"
        }
      ],
      "name": "unstakeV2",
      "outputs": [],
      "stateMutability": "nonpayable",
      "type": "function"
    },
    {
      "inputs": [
        {
          "internalType": "address",
          "name": "operator",
          "type": "address"
        }
      ],
      "name": "updateOperator",
      "outputs": [],
      "stateMutability": "nonpayable",
      "type": "function"
    },
    {
      "inputs": [
        {
          "internalType": "uint256",
          "name": "",
          "type": "uint256"
        }
      ],
      "name": "validatorOwners",
      "outputs": [
        {
          "internalType": "address",
          "name": "",
          "type": "address"
        }
      ],
      "stateMutability": "view",
      "type": "function"
    },
    {
      "inputs": [
        {
          "internalType": "address",
          "name": "",
          "type": "address"
        }
      ],
      "name": "validators",
      "outputs": [
        {
          "internalType": "address",
          "name": "owner",
          "type": "address"
        },
        {
          "internalType": "address",
          "name": "operator",
          "type": "address"
        },
        {
          "internalType": "uint256",
          "name": "lastClaimCommission",
          "type": "uint256"
        }
      ],
      "stateMutability": "view",
      "type": "function"
    }
  ],
  "bytecode": "0x608060405234801561001057600080fd5b5061576780620000216000396000f3fe6080604052600436106102675760003560e01c806374e2b63c11610144578063cf5c13db116100b6578063e1aca3411161007a578063e1aca34114610850578063f3621e4314610870578063f65a5ed214610890578063f8d6b1ab146108b0578063fa52c7d8146108d0578063ff3d3f601461093f57600080fd5b8063cf5c13db1461074e578063d0051adf1461076e578063d1f18ee11461079f578063dbd61d87146107f7578063df93c8421461081757600080fd5b80639168ae72116101085780639168ae72146106785780639c508219146106ae578063a6a41f44146106ce578063ac7475ed146106ee578063ad71bd361461070e578063cbc0fac61461072e57600080fd5b806374e2b63c146105c75780637b520aa8146105ec5780637befa74f1461062257806388325234146106355780639043150b1461067057600080fd5b80632ee462b3116101dd578063485cc955116101a1578063485cc955146104e65780635c4fc4c5146105065780635d94ccf6146105365780635efc766e146105565780636b2b336914610576578063724319911461059657600080fd5b80632ee462b31461043757806333f32d7814610457578063428e85621461047757806345367f231461049757806346dfce7b146104b757600080fd5b8063195afea11161022f578063195afea11461032b5780631c1b4f3a1461034b5780632168e8b41461036b57806322226367146103995780632b42ed8c146103ce5780632b47da52146103ff57600080fd5b806302fb4d851461026c5780630ddda63c1461028e578063158ef93e146102ae5780631903cf16146102dd578063190b9257146102fd575b600080fd5b34801561027857600080fd5b5061028c610287366004614c30565b61095f565b005b34801561029a57600080fd5b5061028c6102a9366004614c5c565b610b65565b3480156102ba57600080fd5b506000546102c89060ff1681565b60405190151581526020015b60405180910390f35b3480156102e957600080fd5b5061028c6102f8366004614d07565b610d70565b34801561030957600080fd5b5061031d610318366004614c5c565b610f69565b6040519081526020016102d4565b34801561033757600080fd5b5061031d610346366004614c30565b610f8a565b34801561035757600080fd5b5061031d610366366004614c5c565b610fc1565b34801561037757600080fd5b5061038b610386366004614db1565b610fd1565b6040516102d4929190614e17565b3480156103a557600080fd5b506103b96103b4366004614c30565b6110b7565b604080519283526020830191909152016102d4565b3480156103da57600080fd5b506103ee6103e9366004614e39565b611185565b6040516102d4959493929190614ea4565b34801561040b57600080fd5b5060015461041f906001600160a01b031681565b6040516001600160a01b0390911681526020016102d4565b34801561044357600080fd5b5061031d610452366004614c30565b6114d2565b34801561046357600080fd5b5061031d610472366004614f04565b611585565b34801561048357600080fd5b5061028c610492366004614d07565b611744565b3480156104a357600080fd5b5061031d6104b2366004614c5c565b61193d565b3480156104c357600080fd5b506104d76104d2366004614e39565b6119d3565b6040516102d493929190614fa3565b3480156104f257600080fd5b5061028c610501366004614fd9565b611c30565b34801561051257600080fd5b50610526610521366004614c30565b611caf565b6040516102d4949392919061504a565b34801561054257600080fd5b5061028c610551366004614c5c565b611d7b565b34801561056257600080fd5b5061041f610571366004614c5c565b611e85565b34801561058257600080fd5b5061028c610591366004615075565b611eaf565b3480156105a257600080fd5b506105b66105b1366004615092565b611f64565b6040516102d49594939291906150f0565b3480156105d357600080fd5b5060005461041f9061010090046001600160a01b031681565b3480156105f857600080fd5b5061041f610607366004615075565b6006602052600090815260409020546001600160a01b031681565b61028c61063036600461513d565b612004565b34801561064157600080fd5b50610655610650366004615075565b6121cf565b604080519384526020840192909252908201526060016102d4565b61028c61224f565b34801561068457600080fd5b5061041f610693366004615075565b6007602052600090815260409020546001600160a01b031681565b3480156106ba57600080fd5b5061031d6106c9366004614c30565b612284565b3480156106da57600080fd5b5060095461041f906001600160a01b031681565b3480156106fa57600080fd5b5061028c610709366004615075565b612360565b34801561071a57600080fd5b5061038b610729366004614db1565b612427565b34801561073a57600080fd5b5061028c610749366004614c30565b612505565b34801561075a57600080fd5b5061028c610769366004614c30565b6125ad565b34801561077a57600080fd5b5061078e610789366004615182565b6127ac565b6040516102d49594939291906151b7565b3480156107ab57600080fd5b506107bf6107ba366004614c30565b612a64565b604080516001600160a01b0390961686529315156020860152911515928401929092529015156060830152608082015260a0016102d4565b34801561080357600080fd5b5061031d610812366004615220565b612bde565b34801561082357600080fd5b5061031d610832366004615075565b6001600160a01b031660009081526007602052604090206006015490565b34801561085c57600080fd5b5061028c61086b36600461513d565b612c24565b34801561087c57600080fd5b5061028c61088b366004615220565b612c3d565b34801561089c57600080fd5b5061041f6108ab366004614c5c565b612d49565b3480156108bc57600080fd5b5061028c6108cb366004615075565b612d59565b3480156108dc57600080fd5b506109196108eb366004615075565b6004602052600090815260409020805460018201546006909201546001600160a01b03918216929091169083565b604080516001600160a01b039485168152939092166020840152908201526060016102d4565b34801561094b57600080fd5b5061028c61095a36600461513d565b612dbb565b6001600160a01b0380831660009081526006602090815260408083205484168084526004909252909120549091166109aa576040516372898ae960e11b815260040160405180910390fd5b3341146109ca57604051631cf4735960e01b815260040160405180910390fd5b6001600160a01b038084166000908152600660209081526040808320548416835260049182905280832083548251633fa4f24560e01b815292519195610add946101009092041692633fa4f2459281830192610120928290030181865afa158015610a39573d6000803e3d6000fd5b505050506040513d601f19601f82011682018060405250810190610a5d9190615250565b600060019054906101000a90046001600160a01b03166001600160a01b031663900cf0cf6040518163ffffffff1660e01b8152600401602060405180830381865afa158015610ab0573d6000803e3d6000fd5b505050506040513d601f19601f82011682018060405250810190610ad491906152cb565b849190876130fb565b82546040519192506001600160a01b0316907f1647efd0ce9727dc31dc201c9d8d35ac687f7370adcacbd454afc6485ddabfda90600090a28015610b5e5781546040518281526001600160a01b03909116907feb7d7a49847ec491969db21a0e31b234565a9923145a2d1b56a75c9e95825802906020015b60405180910390a25b5050505050565b336000818152600460205260409020546001600160a01b0316610b9b576040516372898ae960e11b815260040160405180910390fd5b336000818152600760205260409020546001600160a01b0316610bd15760405163cf83d93d60e01b815260040160405180910390fd5b600060019054906101000a90046001600160a01b03166001600160a01b031663d4a536866040518163ffffffff1660e01b8152600401602060405180830381865afa158015610c24573d6000803e3d6000fd5b505050506040513d601f19601f82011682018060405250810190610c4891906152f9565b15610c6657604051631e59ccd960e01b815260040160405180910390fd5b60008054338252600460205260408220610c8e9161010090046001600160a01b0316866131da565b905080610cae57604051637bc90c0560e11b815260040160405180910390fd5b610d323333600060019054906101000a90046001600160a01b03166001600160a01b031663900cf0cf6040518163ffffffff1660e01b8152600401602060405180830381865afa158015610d06573d6000803e3d6000fd5b505050506040513d601f19601f82011682018060405250810190610d2a91906152cb565b6000856131fa565b604051818152339081907fddd8e3ffe5c76cd1a7cca4b98662cb0a4e3da53ee24a873da632d28ba1043836906020015b60405180910390a350505050565b6001600160a01b03828116600090815260046020526040902080548492163314801590610daa575060018101546001600160a01b03163314155b15610dc857604051630101292160e31b815260040160405180910390fd5b6001600160a01b03808516600090815260046020526040902054859116610e02576040516372898ae960e11b815260040160405180910390fd5b600060019054906101000a90046001600160a01b03166001600160a01b031663d4a536866040518163ffffffff1660e01b8152600401602060405180830381865afa158015610e55573d6000803e3d6000fd5b505050506040513d601f19601f82011682018060405250810190610e7991906152f9565b15610e9757604051631e59ccd960e01b815260040160405180910390fd5b610f30600060019054906101000a90046001600160a01b03166001600160a01b031663900cf0cf6040518163ffffffff1660e01b8152600401602060405180830381865afa158015610eed573d6000803e3d6000fd5b505050506040513d601f19601f82011682018060405250810190610f1191906152cb565b6001600160a01b0387166000908152600460205260409020908661330f565b846001600160a01b03167fc11dfc9c24621433bb10587dc4bbae26a33a4aff53914e0d4c9fddf224a8cb7d85604051610b559190615314565b60028181548110610f7957600080fd5b600091825260209091200154905081565b600080546001600160a01b038481168352600460205260408320610fb79290916101009091041684613321565b5090505b92915050565b60038181548110610f7957600080fd5b60606000610fe584846005805490506134b4565b9093509050826001600160401b0381111561100257611002614c75565b60405190808252806020026020018201604052801561102b578160200160208202803683370190505b50915060005b838110156110af576005611045828761533d565b8154811061105557611055615355565b9060005260206000200160009054906101000a90046001600160a01b031683828151811061108557611085615355565b6001600160a01b0390921660209283029190910190910152806110a78161536b565b915050611031565b509250929050565b60008061117a6000841161114157600060019054906101000a90046001600160a01b03166001600160a01b031663900cf0cf6040518163ffffffff1660e01b8152600401602060405180830381865afa158015611118573d6000803e3d6000fd5b505050506040513d601f19601f8201168201806040525081019061113c91906152cb565b611143565b835b6001600160a01b038616600090815260046020908152604080832093835260098401825280832054600a9094019091529020549091565b909590945092505050565b6001600160a01b03841660009081526007602052604081206060918291829182918861122757600060019054906101000a90046001600160a01b03166001600160a01b031663900cf0cf6040518163ffffffff1660e01b8152600401602060405180830381865afa1580156111fe573d6000803e3d6000fd5b505050506040513d601f19601f8201168201806040525081019061122291906152cb565b611229565b885b985061123b88886005805490506134b4565b9097509150866001600160401b0381111561125857611258614c75565b604051908082528060200260200182016040528015611281578160200160208202803683370190505b509550866001600160401b0381111561129c5761129c614c75565b6040519080825280602002602001820160405280156112c5578160200160208202803683370190505b509450866001600160401b038111156112e0576112e0614c75565b604051908082528060200260200182016040528015611309578160200160208202803683370190505b509350866001600160401b0381111561132457611324614c75565b60405190808252806020026020018201604052801561134d578160200160208202803683370190505b50925060005b878110156114c5576005611367828b61533d565b8154811061137757611377615355565b9060005260206000200160009054906101000a90046001600160a01b03168782815181106113a7576113a7615355565b60200260200101906001600160a01b031690816001600160a01b0316815250506113f88782815181106113dc576113dc615355565b602002602001015160008c856134eb909392919063ffffffff16565b86828151811061140a5761140a615355565b60200260200101818152505061144787828151811061142b5761142b615355565b602002602001015160018c856134eb909392919063ffffffff16565b85828151811061145957611459615355565b60200260200101818152505061149687828151811061147a5761147a615355565b602002602001015160028c856134eb909392919063ffffffff16565b8482815181106114a8576114a8615355565b6020908102919091010152806114bd8161536b565b915050611353565b5050945094509450945094565b600080821161155757600060019054906101000a90046001600160a01b03166001600160a01b031663900cf0cf6040518163ffffffff1660e01b8152600401602060405180830381865afa15801561152e573d6000803e3d6000fd5b505050506040513d601f19601f8201168201806040525081019061155291906152cb565b611559565b815b6001600160a01b038416600090815260046020526040902090925061157e90836135aa565b9392505050565b600080600183600060019054906101000a90046001600160a01b03166001600160a01b031663900cf0cf6040518163ffffffff1660e01b8152600401602060405180830381865afa1580156115de573d6000803e3d6000fd5b505050506040513d601f19601f8201168201806040525081019061160291906152cb565b61160c9190615386565b6116169190615386565b845190915060005b8481101561173b5761163160018461533d565b6000805460405163fcbb371b60e01b81526004810184905292955090916101009091046001600160a01b03169063fcbb371b9060240161012060405180830381865afa158015611685573d6000803e3d6000fd5b505050506040513d601f19601f820116820180604052508101906116a99190615250565b905060005b83811015611726576117088286600460008c86815181106116d1576116d1615355565b60200260200101516001600160a01b03166001600160a01b031681526020019081526020016000206135bd9092919063ffffffff16565b611712908761533d565b95508061171e8161536b565b9150506116ae565b505080806117339061536b565b91505061161e565b50505092915050565b6001600160a01b0382811660009081526004602052604090208054849216331480159061177e575060018101546001600160a01b03163314155b1561179c57604051630101292160e31b815260040160405180910390fd5b6001600160a01b038085166000908152600460205260409020548591166117d6576040516372898ae960e11b815260040160405180910390fd5b600060019054906101000a90046001600160a01b03166001600160a01b031663d4a536866040518163ffffffff1660e01b8152600401602060405180830381865afa158015611829573d6000803e3d6000fd5b505050506040513d601f19601f8201168201806040525081019061184d91906152f9565b1561186b57604051631e59ccd960e01b815260040160405180910390fd5b611904600060019054906101000a90046001600160a01b03166001600160a01b031663900cf0cf6040518163ffffffff1660e01b8152600401602060405180830381865afa1580156118c1573d6000803e3d6000fd5b505050506040513d601f19601f820116820180604052508101906118e591906152cb565b6001600160a01b0387166000908152600460205260409020908661372a565b846001600160a01b03167f0ad9bf1b8c026a174a2f30954417002a6ea00c9b08c1b8846c7951c687be809585604051610b559190615314565b60008082116119c257600060019054906101000a90046001600160a01b03166001600160a01b031663900cf0cf6040518163ffffffff1660e01b8152600401602060405180830381865afa158015611999573d6000803e3d6000fd5b505050506040513d601f19601f820116820180604052508101906119bd91906152cb565b6119c4565b815b9150610fbb6002600384613737565b6001600160a01b0384166000908152600460205260408120606091829186611a7157600060019054906101000a90046001600160a01b03166001600160a01b031663900cf0cf6040518163ffffffff1660e01b8152600401602060405180830381865afa158015611a48573d6000803e3d6000fd5b505050506040513d601f19601f82011682018060405250810190611a6c91906152cb565b611a73565b865b9650611a87868683600701805490506134b4565b9095509150846001600160401b03811115611aa457611aa4614c75565b604051908082528060200260200182016040528015611acd578160200160208202803683370190505b509350846001600160401b03811115611ae857611ae8614c75565b604051908082528060200260200182016040528015611b11578160200160208202803683370190505b50925060005b85811015611c24576000600781848201611b31858c61533d565b81548110611b4157611b41615355565b60009182526020808320909101546001600160a01b03908116845290830193909352604090910190208054885191935090911690879084908110611b8757611b87615355565b6001600160a01b0392831660209182029290920101528354611bae9183911660028c6134eb565b8354611bc79083906001600160a01b031660018d6134eb565b8454611be09084906001600160a01b031660008e6134eb565b611bea919061533d565b611bf4919061533d565b858381518110611c0657611c06615355565b60209081029190910101525080611c1c8161536b565b915050611b17565b50509450945094915050565b334114611c5057604051631cf4735960e01b815260040160405180910390fd5b60005460ff1615611c735760405162dc149f60e41b815260040160405180910390fd5b6000805460016001600160a81b03199091166101006001600160a01b039586160217811790915580546001600160a01b03191691909216179055565b6001600160a01b03821660009081526007602052604081206006018054829182918291829187908110611ce457611ce4615355565b6000918252602090912060408051606081019091526003909202018054829060ff166002811115611d1757611d17615012565b6002811115611d2857611d28615012565b81526020016001820154815260200160028201548152505090508060000151816020015182604001518360400151600014158015611d6a575083604001514210155b929a91995097509095509350505050565b336000818152600760205260409020546001600160a01b0316611db15760405163cf83d93d60e01b815260040160405180910390fd5b336000908152600760205260408120600601805484908110611dd557611dd5615355565b9060005260206000209060030201905060008160020154905080421015611e0f576040516303cb96db60e21b815260040160405180910390fd5b80611e2d57604051630c8d9eab60e31b815260040160405180910390fd5b6000600283015560405184815233907fbf5f92dc2b945251eadf78c2ca629ae64053d979bfbc43a7b17a463707906bf99060200160405180910390a281546001830154611e7f9160ff16903390613850565b50505050565b60058181548110611e9557600080fd5b6000918252602090912001546001600160a01b0316905081565b336000818152600460205260409020611ec8908361396f565b60058054600181019091557f036b6384b5eca791c62761152d0c79bb0604c104a5fb6f4eb0703f3154bb3db00180546001600160a01b038381166001600160a01b03199283168117909355841660009081526006602090815260409182902080549093168417909255519182527fd5828184f48f65962d10eac907318df85953d4e3542a0f09b5932ee3fe398bdd910160405180910390a15050565b600954604051632d73a02f60e01b81526004810185905260248101849052604481018390526060918291829182916000916001600160a01b031690632d73a02f90606401600060405180830381865afa158015611fc5573d6000803e3d6000fd5b505050506040513d6000823e601f3d908101601f19168201604052611fed91908101906154c9565b959e949d50909b5099509297509095505050505050565b6001600160a01b0380841660009081526004602052604090205484911661203e576040516372898ae960e11b815260040160405180910390fd5b600060019054906101000a90046001600160a01b03166001600160a01b031663d4a536866040518163ffffffff1660e01b8152600401602060405180830381865afa158015612091573d6000803e3d6000fd5b505050506040513d601f19601f820116820180604052508101906120b591906152f9565b156120d357604051631e59ccd960e01b815260040160405180910390fd5b816120f157604051637bc90c0560e11b815260040160405180910390fd5b6120fc8333846139b1565b61218a3385600060019054906101000a90046001600160a01b03166001600160a01b031663900cf0cf6040518163ffffffff1660e01b8152600401602060405180830381865afa158015612154573d6000803e3d6000fd5b505050506040513d601f19601f8201168201806040525081019061217891906152cb565b61218390600161533d565b86866131fa565b836001600160a01b0316336001600160a01b03167f8fc656e319452025372383dc27d933046d412b8253de50a10739eeaa59862be68585604051610d629291906155c8565b6001600160a01b0380821660009081526007602052604081208154919283928392916122049183916101009091041684613a52565b60005490945061222590829061010090046001600160a01b03166001613a52565b60005490935061224690829061010090046001600160a01b03166002613a52565b93959294505050565b6040513481527f1de49774d094a85fc1bbbd16e8d09a865fb848218f41e2da4369f528c42ee42e9060200160405180910390a1565b6001600160a01b0380831660008181526006602090815260408083205485168352600490915281206001810154919390929116146122c6576000915050610fbb565b6000831161234a57600060019054906101000a90046001600160a01b03166001600160a01b031663900cf0cf6040518163ffffffff1660e01b8152600401602060405180830381865afa158015612321573d6000803e3d6000fd5b505050506040513d601f19601f8201168201806040525081019061234591906152cb565b61234c565b825b925061235881846135aa565b949350505050565b336000818152600460205260409020546001600160a01b0316612396576040516372898ae960e11b815260040160405180910390fd5b33600081815260046020526040902060018101546001600160a01b03166123bd8286613c78565b6001600160a01b0385811660008181526006602090815260409182902080546001600160a01b031916888616908117909155825194861685529084019290925290917f758820d0b14a01c1fa60b8d2bbef25ed1b6a5af4802e5dec3f08679255ba8bf39101610b55565b6060600061243b84846008805490506134b4565b9093509050826001600160401b0381111561245857612458614c75565b604051908082528060200260200182016040528015612481578160200160208202803683370190505b50915060005b838110156110af57600861249b828761533d565b815481106124ab576124ab615355565b9060005260206000200160009054906101000a90046001600160a01b03168382815181106124db576124db615355565b6001600160a01b0390921660209283029190910190910152806124fd8161536b565b915050612487565b336000818152600460205260409020546001600160a01b031661253b576040516372898ae960e11b815260040160405180910390fd5b600080543382526004602052604082206125639161010090046001600160a01b0316856131da565b60405181815290915033907f882d5671e5b36af50883197c33d48ba56ce337589958e871ba82fb0a54adf3e89060200160405180910390a28015611e7f57611e7f60003383613850565b6001600160a01b038083166000908152600460205260409020548391166125e7576040516372898ae960e11b815260040160405180910390fd5b336000818152600760205260409020546001600160a01b031661261d5760405163cf83d93d60e01b815260040160405180910390fd5b600060019054906101000a90046001600160a01b03166001600160a01b031663d4a536866040518163ffffffff1660e01b8152600401602060405180830381865afa158015612670573d6000803e3d6000fd5b505050506040513d601f19601f8201168201806040525081019061269491906152f9565b156126b257604051631e59ccd960e01b815260040160405180910390fd5b600080546001600160a01b038681168352600460209081526040808520338652600790925284206126ed939092610100909104169087613cf2565b90508061270d57604051637bc90c0560e11b815260040160405180910390fd5b6127653386600060019054906101000a90046001600160a01b03166001600160a01b031663900cf0cf6040518163ffffffff1660e01b8152600401602060405180830381865afa158015610d06573d6000803e3d6000fd5b6040518181526001600160a01b0386169033907fddd8e3ffe5c76cd1a7cca4b98662cb0a4e3da53ee24a873da632d28ba10438369060200160405180910390a35050505050565b6001600160a01b0383166000908152600760205260408120600681015460609283928392839291906127e190899089906134b4565b9097509150866001600160401b038111156127fe576127fe614c75565b604051908082528060200260200182016040528015612827578160200160208202803683370190505b509550866001600160401b0381111561284257612842614c75565b60405190808252806020026020018201604052801561286b578160200160208202803683370190505b509450866001600160401b0381111561288657612886614c75565b6040519080825280602002602001820160405280156128af578160200160208202803683370190505b509350866001600160401b038111156128ca576128ca614c75565b6040519080825280602002602001820160405280156128f3578160200160208202803683370190505b50925060005b87811015612a5757600060068301612911838c61533d565b8154811061292157612921615355565b6000918252602090912060408051606081019091526003909202018054829060ff16600281111561295457612954615012565b600281111561296557612965615012565b8152602001600182015481526020016002820154815250509050806000015188838151811061299657612996615355565b602002602001019060028111156129af576129af615012565b908160028111156129c2576129c2615012565b8152505080602001518783815181106129dd576129dd615355565b6020026020010181815250508060400151868381518110612a0057612a00615355565b6020908102919091010152604081015115801590612a22575080604001514210155b858381518110612a3457612a34615355565b911515602092830291909101909101525080612a4f8161536b565b9150506128f9565b5050939792965093509350565b60008080808085612ae957600060019054906101000a90046001600160a01b03166001600160a01b031663900cf0cf6040518163ffffffff1660e01b8152600401602060405180830381865afa158015612ac2573d6000803e3d6000fd5b505050506040513d601f19601f82011682018060405250810190612ae691906152cb565b95505b6001600160a01b03878116600090815260046020908152604080832060018101548b855260028201909352922054921696509060ff1660008881526003830160205260409020549015955060ff169350612b4381886135aa565b9150848015612b50575083155b8015612bd1575060005460405163fcbb371b60e01b8152600481018990526101009091046001600160a01b03169063fcbb371b9060240161012060405180830381865afa158015612ba5573d6000803e3d6000fd5b505050506040513d601f19601f82011682018060405250810190612bc99190615250565b60c001518210155b9250509295509295909350565b600080546001600160a01b038481168352600460209081526040808520888416865260079092528420612c1b939092610100909104169085613d2b565b50949350505050565b604051634ee5a1b960e01b815260040160405180910390fd5b6001600160a01b03808316600090815260046020526040902054839116612c77576040516372898ae960e11b815260040160405180910390fd5b336000818152600760205260409020546001600160a01b0316612cad5760405163cf83d93d60e01b815260040160405180910390fd5b600080546001600160a01b03868116835260046020908152604080852033865260079092528420612ce8939092610100909104169087613cf2565b604080516001600160a01b03881681526020810183905291925033917f2ef606d064225d24c1514dc94907c134faee1237445c2f63f410cce0852b2054910160405180910390a28015612d4157612d4160003383613850565b505050505050565b60088181548110611e9557600080fd5b336000818152600760205260409020546001600160a01b0316612d8f5760405163cf83d93d60e01b815260040160405180910390fd5b6000805433825260076020526040909120612db79161010090046001600160a01b0316613f35565b5050565b6001600160a01b03808416600090815260046020526040902054849116612df5576040516372898ae960e11b815260040160405180910390fd5b336000818152600760205260409020546001600160a01b0316612e2b5760405163cf83d93d60e01b815260040160405180910390fd5b600060019054906101000a90046001600160a01b03166001600160a01b031663d4a536866040518163ffffffff1660e01b8152600401602060405180830381865afa158015612e7e573d6000803e3d6000fd5b505050506040513d601f19601f82011682018060405250810190612ea291906152f9565b15612ec057604051631e59ccd960e01b815260040160405180910390fd5b33600090815260076020908152604080832083546001600160a01b038a81168652600490945291909320612efe928492610100900416908888613f59565b935083612f1e57604051637bc90c0560e11b815260040160405180910390fd5b806006016040518060600160405280876002811115612f3f57612f3f615012565b815260208101879052604001612f5842620d2f0061533d565b9052815460018181018455600093845260209093208251600390920201805492939092839160ff1990911690836002811115612f9657612f96615012565b0217905550602082015181600101556040820151816002015550506130426003600060019054906101000a90046001600160a01b03166001600160a01b031663900cf0cf6040518163ffffffff1660e01b8152600401602060405180830381865afa158015613009573d6000803e3d6000fd5b505050506040513d601f19601f8201168201806040525081019061302d91906152cb565b61303890600161533d565b600291908761408f565b50600954604051635692619d60e11b81526001600160a01b0388811660048301529091169063ad24c33a90602401600060405180830381600087803b15801561308a57600080fd5b505af115801561309e573d6000803e3d6000fd5b50505060068201546001600160a01b038816915033907fb649014faa7a0e23357e091fb8a67a128c33dc9480f846f7e41cb3a6c9d80610906130e290600190615386565b60405190815260200160405180910390a3505050505050565b600082815260098501602052604081205461312457600083815260098601602052604090208290555b6000838152600a8601602052604081205461314090600161533d565b6000858152600a88016020526040902081905560e0860151909150811080159061318c575060038601600061317686600161533d565b815260208101919091526040016000205460ff16155b15612c1b576101008501516131a1908561533d565b91505b81841015612c1b57836131b68161536b565b60008181526003890160205260409020805460ff1916600117905594506131a49050565b60008060006131ea868686613321565b6006880155925050509392505050565b6001600160a01b03808616600090815260076020526040902080549091166132735780546001600160a01b0387166001600160a01b031991821681178355600880546001810182556000919091527ff3f7a9fe364faab93b216da50a3214154f22a0a2b415b23a84c8169e8b636ee30180549092161790555b6001600160a01b038516600090815260046020526040902061329a9082908690868661416a565b6132a8600260038685614232565b600954604051635692619d60e11b81526001600160a01b0387811660048301529091169063ad24c33a90602401600060405180830381600087803b1580156132ef57600080fd5b505af1158015613303573d6000803e3d6000fd5b50505050505050505050565b61331c8383836000614318565b505050565b6000808460060154905060006001856001600160a01b031663900cf0cf6040518163ffffffff1660e01b8152600401602060405180830381865afa15801561336d573d6000803e3d6000fd5b505050506040513d601f19601f8201168201806040525081019061339191906152cb565b61339b9190615386565b90508315806133b25750806133b0838661533d565b115b156133c4576133c18282615386565b93505b60005b848110156134aa576133da60018461533d565b60405163fcbb371b60e01b8152600481018290529093506000906001600160a01b0388169063fcbb371b9060240161012060405180830381865afa158015613426573d6000803e3d6000fd5b505050506040513d601f19601f8201168201806040525081019061344a9190615250565b905060006134598983876135bd565b905080613467575050613498565b60a0820151613477575050613498565b613489818360a001516064601961439e565b613493908761533d565b955050505b806134a28161536b565b9150506133c7565b5050935093915050565b600080826134c2858761533d565b106134d4576134d18584615386565b93505b836134df818761533d565b91509150935093915050565b60006135a185600201600085600281111561350857613508615012565b600281111561351957613519615012565b81526020019081526020016000206000866001600160a01b03166001600160a01b031681526020019081526020016000208387600101600087600281111561356357613563615012565b600281111561357457613574615012565b8152602080820192909252604090810160009081206001600160a01b038b16825290925290209190613737565b95945050505050565b600061157e600484016005850184613737565b600081815260028401602052604081205460ff16806135ec5750600082815260038501602052604090205460ff165b156135f95750600061157e565b600061360585846135aa565b905060498310613646578360c0015181101561362557600091505061157e565b6298968061363582610a346155e3565b61363f9190615602565b91506136df565b8061365557600091505061157e565b6136616019600a615700565b6136728560800151606460196143ca565b61367c90836155e3565b6136869190615602565b91508161369757600091505061157e565b6136ba846060015185604001516136ae91906155e3565b6301e1338060196143ca565b6136c490836155e3565b91506136d26019600a615700565b6136dc9083615602565b91505b6000838152600a86016020526040902054801561372157600084815260098701602052604090205461371d846137158484615386565b83601961439e565b9350505b50509392505050565b61331c8383836001614318565b82546000908015806137655750828560008154811061375857613758615355565b9060005260206000200154115b1561377457600091505061157e565b8285613781600184615386565b8154811061379157613791615355565b9060005260206000200154116137d057836137ad600183615386565b815481106137bd576137bd615355565b906000526020600020015491505061157e565b600181118015613806575082856137e8600284615386565b815481106137f8576137f8615355565b906000526020600020015411155b1561381757836137ad600283615386565b60006138268685600085614406565b905084818154811061383a5761383a615355565b9060005260206000200154925050509392505050565b60008084600281111561386557613865615012565b14156138c4576040516001600160a01b038416908390600081818185875af1925050503d80600081146138b4576040519150601f19603f3d011682016040523d82523d6000602084013e6138b9565b606091505b505080915050613946565b6138cd846144ae565b60405163a9059cbb60e01b81526001600160a01b03858116600483015260248201859052919091169063a9059cbb906044015b6020604051808303816000875af115801561391f573d6000803e3d6000fd5b505050506040513d601f19601f8201168201806040525081019061394391906152f9565b90505b80611e7f5783604051630db5347560e11b8152600401613966919061570c565b60405180910390fd5b81546001600160a01b03161561399757604051621d934160e11b815260040160405180910390fd5b81546001600160a01b03191633178255612db78282613c78565b60008360028111156139c5576139c5615012565b14156139eb5780341461331c57604051630fe5b06560e11b815260040160405180910390fd5b3415613a0a5760405163a745ac8560e01b815260040160405180910390fd5b6000613a15846144ae565b6040516323b872dd60e01b81526001600160a01b0385811660048301523060248301526044820185905291909116906323b872dd90606401613900565b600080846003016000846002811115613a6d57613a6d615012565b6002811115613a7e57613a7e615012565b8152602081019190915260400160002054905080613aa057600091505061157e565b6000846001600160a01b031663900cf0cf6040518163ffffffff1660e01b8152600401602060405180830381865afa158015613ae0573d6000803e3d6000fd5b505050506040513d601f19601f82011682018060405250810190613b0491906152cb565b90506000613b13600184615386565b9050600081118015613b76575081876003016000876002811115613b3957613b39615012565b6002811115613b4a57613b4a615012565b81526020019081526020016000208281548110613b6957613b69615355565b9060005260206000200154115b15613b895780613b858161571a565b9150505b81876003016000876002811115613ba257613ba2615012565b6002811115613bb357613bb3615012565b81526020019081526020016000208281548110613bd257613bd2615355565b90600052602060002001541115613bef576000935050505061157e565b6000805b828111613c6c57886004016000886002811115613c1257613c12615012565b6002811115613c2357613c23615012565b81526020019081526020016000208181548110613c4257613c42615355565b906000526020600020015482613c58919061533d565b915080613c648161536b565b915050613bf3565b50979650505050505050565b6001600160a01b038116613c9f57604051637138356f60e01b815260040160405180910390fd5b81546001600160a01b0382811691161415613ccd5760405163e037058f60e01b815260040160405180910390fd5b60019190910180546001600160a01b0319166001600160a01b03909216919091179055565b6000806000613d0387878787613d2b565b86546001600160a01b0316600090815260058a01602052604090205592505050949350505050565b81546001600160a01b039081166000908152600586016020908152604080832054815163900cf0cf60e01b81529151939490938593600193928a169263900cf0cf92600480830193928290030181865afa158015613d8d573d6000803e3d6000fd5b505050506040513d601f19601f82011682018060405250810190613db191906152cb565b613dbb9190615386565b9050831580613dd2575080613dd0838661533d565b115b15613de457613de18282615386565b93505b60005b84811015613f2a57613dfa60018461533d565b8654909350600090613e19908a906001600160a01b03166002876134eb565b8754613e32908b906001600160a01b03166001886134eb565b8854613e4b908c906001600160a01b03166000896134eb565b613e55919061533d565b613e5f919061533d565b905080613e6c5750613f18565b60405163fcbb371b60e01b815260048101859052600090613ee5906001600160a01b038b169063fcbb371b9060240161012060405180830381865afa158015613eb9573d6000803e3d6000fd5b505050506040513d601f19601f82011682018060405250810190613edd9190615250565b899087614519565b905080613ef3575050613f18565b613f098183613f028b896135aa565b601961439e565b613f13908761533d565b955050505b80613f228161536b565b915050613de7565b505094509492505050565b613f4182826001614564565b613f4d82826002614564565b612db782826000614564565b6000614075866002016000856002811115613f7657613f76615012565b6002811115613f8757613f87615012565b81526020808201929092526040908101600090812088546001600160a01b03908116835290845290829020825163900cf0cf60e01b815292519093918a169263900cf0cf9260048083019391928290030181865afa158015613fed573d6000803e3d6000fd5b505050506040513d601f19601f8201168201806040525081019061401191906152cb565b61401c90600161533d565b8489600101600088600281111561403557614035615012565b600281111561404657614046615012565b8152602080820192909252604090810160009081208b546001600160a01b03168252909252902092919061408f565b915081614084575060006135a1565b612c1b84868461488a565b83546000908015806140c65750856140a8600183615386565b815481106140b8576140b8615355565b906000526020600020015484105b156140e457604051630eae4c9760e01b815260040160405180910390fd5b60006140f187878761490a565b9050600086828154811061410757614107615355565b90600052602060002001549050808511156141225780614124565b845b9450841561415e578487838154811061413f5761413f615355565b9060005260206000200160008282546141589190615386565b90915550505b50929695505050505050565b61421985600201600084600281111561418557614185615012565b600281111561419657614196615012565b81526020808201929092526040908101600090812087546001600160a01b031682529092528120908690849060018a01908760028111156141d9576141d9615012565b60028111156141ea576141ea615012565b8152602080820192909252604090810160009081208a546001600160a01b031682529092529020929190614232565b8454610b5e90849086906001600160a01b031684614b1a565b835460018111801561426957508461424b600183615386565b8154811061425b5761425b615355565b906000526020600020015483105b801561429a57508461427c600283615386565b8154811061428c5761428c615355565b906000526020600020015483105b156142b857604051630eae4c9760e01b815260040160405180910390fd5b60006142c586868661490a565b8654925090505b81811015612d4157828582815481106142e7576142e7615355565b906000526020600020016000828254614300919061533d565b909155508190506143108161536b565b9150506142cc565b815160005b81811015612d4157600084828151811061433957614339615355565b6020026020010151905085811180156143695750600081815260028801602052604090205460ff16151584151514155b1561438b5760008181526002880160205260409020805460ff19168515151790555b50806143968161536b565b91505061431d565b60006143ab82600a615700565b6143b68585856143ca565b6143c090876155e3565b6135a19190615602565b6000806143d883600161533d565b6143e390600a615700565b6143ed90866155e3565b9050600a6143fb8583615602565b6143c090600561533d565b6000818314156144225761441b600183615386565b9050612358565b60006002614430848661533d565b61443a9190615602565b90508486828154811061444f5761444f615355565b906000526020600020015411156144745761446c86868684614406565b915050612358565b8486828154811061448757614487615355565b906000526020600020015410156135a15761446c86866144a884600161533d565b86614406565b600060018260028111156144c4576144c4615012565b14156144d857506001602960991b01919050565b60028260028111156144ec576144ec615012565b141561450057506002602960991b01919050565b604051638698bf3760e01b815260040160405180910390fd5b6000806145278585856135bd565b90508061453857600091505061157e565b60a084015161454857905061157e565b61455a818560a001516064601961439e565b6135a19082615386565b6000614571848484613a52565b90508061457e5750505050565b600084600301600084600281111561459857614598615012565b60028111156145a9576145a9615012565b8152602001908152602001600020805490509050836001600160a01b031663900cf0cf6040518163ffffffff1660e01b8152600401602060405180830381865afa1580156145fb573d6000803e3d6000fd5b505050506040513d601f19601f8201168201806040525081019061461f91906152cb565b85600301600085600281111561463757614637615012565b600281111561464857614648615012565b81526020019081526020016000206001836146639190615386565b8154811061467357614673615355565b90600052602060002001541161470e5784600301600084600281111561469b5761469b615012565b60028111156146ac576146ac615012565b815260200190815260200160002060006146c69190614b9a565b8460040160008460028111156146de576146de615012565b60028111156146ef576146ef615012565b815260200190815260200160002060006147099190614b9a565b614873565b604051806020016040528086600301600086600281111561473157614731615012565b600281111561474257614742615012565b815260200190815260200160002060018461475d9190615386565b8154811061476d5761476d615355565b906000526020600020015481525085600301600085600281111561479357614793615012565b60028111156147a4576147a4615012565b815260208101919091526040016000206147bf916001614bbb565b5060405180602001604052808660040160008660028111156147e3576147e3615012565b60028111156147f4576147f4615012565b815260200190815260200160002060018461480f9190615386565b8154811061481f5761481f615355565b906000526020600020015481525085600401600085600281111561484557614845615012565b600281111561485657614856615012565b81526020810191909152604001600020614871916001614bbb565b505b8454610b5e9084906001600160a01b031684613850565b611e7f83600501836001600160a01b031663900cf0cf6040518163ffffffff1660e01b8152600401602060405180830381865afa1580156148cf573d6000803e3d6000fd5b505050506040513d601f19601f820116820180604052508101906148f391906152cb565b6148fe90600161533d565b6004860191908461408f565b82546000908061494557505082546001818101855560008581526020808220909301849055845491820185558481529182200181905561157e565b6000614952600183615386565b9050600086828154811061496857614968615355565b90600052602060002001549050808514156149875750915061157e9050565b808511156149ef57865460018101885560008881526020902001859055855486908190849081106149ba576149ba615355565b60009182526020808320909101548354600181810186559484529190922001556149e590839061533d565b935050505061157e565b600082118015614a24575086614a06600184615386565b81548110614a1657614a16615355565b906000526020600020015485145b15614a34576149e5600183615386565b86878381548110614a4757614a47615355565b6000918252602080832090910154835460018101855593835291209091015585548690819084908110614a7c57614a7c615355565b6000918252602080832090910154835460018101855593835291209091015586548590889084908110614ab157614ab1615355565b6000918252602090912001558115614aef5785614acf600184615386565b81548110614adf57614adf615355565b9060005260206000200154614af2565b60005b868381548110614b0457614b04615355565b60009182526020909120015550915061157e9050565b6001600160a01b038216600090815260088501602052604090205460ff16614b88576001600160a01b038216600081815260088601602090815260408220805460ff191660019081179091556007880180549182018155835291200180546001600160a01b03191690911790555b611e7f60048501600586018584614232565b5080546000825590600052602060002090810190614bb89190614c06565b50565b828054828255906000526020600020908101928215614bf6579160200282015b82811115614bf6578251825591602001919060010190614bdb565b50614c02929150614c06565b5090565b5b80821115614c025760008155600101614c07565b6001600160a01b0381168114614bb857600080fd5b60008060408385031215614c4357600080fd5b8235614c4e81614c1b565b946020939093013593505050565b600060208284031215614c6e57600080fd5b5035919050565b634e487b7160e01b600052604160045260246000fd5b60405161012081016001600160401b0381118282101715614cae57614cae614c75565b60405290565b604051601f8201601f191681016001600160401b0381118282101715614cdc57614cdc614c75565b604052919050565b60006001600160401b03821115614cfd57614cfd614c75565b5060051b60200190565b60008060408385031215614d1a57600080fd5b8235614d2581614c1b565b91506020838101356001600160401b03811115614d4157600080fd5b8401601f81018613614d5257600080fd5b8035614d65614d6082614ce4565b614cb4565b81815260059190911b82018301908381019088831115614d8457600080fd5b928401925b82841015614da257833582529284019290840190614d89565b80955050505050509250929050565b60008060408385031215614dc457600080fd5b50508035926020909101359150565b600081518084526020808501945080840160005b83811015614e0c5781516001600160a01b031687529582019590820190600101614de7565b509495945050505050565b604081526000614e2a6040830185614dd3565b90508260208301529392505050565b60008060008060808587031215614e4f57600080fd5b8435614e5a81614c1b565b966020860135965060408601359560600135945092505050565b600081518084526020808501945080840160005b83811015614e0c57815187529582019590820190600101614e88565b60a081526000614eb760a0830188614dd3565b8281036020840152614ec98188614e74565b90508281036040840152614edd8187614e74565b90508281036060840152614ef18186614e74565b9150508260808301529695505050505050565b60008060408385031215614f1757600080fd5b82356001600160401b03811115614f2d57600080fd5b8301601f81018513614f3e57600080fd5b80356020614f4e614d6083614ce4565b82815260059290921b83018101918181019088841115614f6d57600080fd5b938201935b83851015614f94578435614f8581614c1b565b82529382019390820190614f72565b98969091013596505050505050565b606081526000614fb66060830186614dd3565b8281036020840152614fc88186614e74565b915050826040830152949350505050565b60008060408385031215614fec57600080fd5b8235614ff781614c1b565b9150602083013561500781614c1b565b809150509250929050565b634e487b7160e01b600052602160045260246000fd5b6003811061504657634e487b7160e01b600052602160045260246000fd5b9052565b608081016150588287615028565b846020830152836040830152821515606083015295945050505050565b60006020828403121561508757600080fd5b813561157e81614c1b565b6000806000606084860312156150a757600080fd5b505081359360208301359350604090920135919050565b600081518084526020808501945080840160005b83811015614e0c5781511515875295820195908201906001016150d2565b60a08152600061510360a0830188614dd3565b82810360208401526151158188614dd3565b905082810360408401526151298187614e74565b90508281036060840152614ef181866150be565b60008060006060848603121561515257600080fd5b833561515d81614c1b565b925060208401356003811061517157600080fd5b929592945050506040919091013590565b60008060006060848603121561519757600080fd5b83356151a281614c1b565b95602085013595506040909401359392505050565b60a0808252865190820181905260009060209060c0840190828a01845b828110156151f7576151e7848351615028565b92840192908401906001016151d4565b5050508381038285015261520b8189614e74565b91505082810360408401526151298187614e74565b60008060006060848603121561523557600080fd5b833561524081614c1b565b9250602084013561517181614c1b565b6000610120828403121561526357600080fd5b61526b614c8b565b825181526020830151602082015260408301516040820152606083015160608201526080830151608082015260a083015160a082015260c083015160c082015260e083015160e08201526101008084015181830152508091505092915050565b6000602082840312156152dd57600080fd5b5051919050565b805180151581146152f457600080fd5b919050565b60006020828403121561530b57600080fd5b61157e826152e4565b60208152600061157e6020830184614e74565b634e487b7160e01b600052601160045260246000fd5b6000821982111561535057615350615327565b500190565b634e487b7160e01b600052603260045260246000fd5b600060001982141561537f5761537f615327565b5060010190565b60008282101561539857615398615327565b500390565b600082601f8301126153ae57600080fd5b815160206153be614d6083614ce4565b82815260059290921b840181019181810190868411156153dd57600080fd5b8286015b848110156154015780516153f481614c1b565b83529183019183016153e1565b509695505050505050565b600082601f83011261541d57600080fd5b8151602061542d614d6083614ce4565b82815260059290921b8401810191818101908684111561544c57600080fd5b8286015b8481101561540157615461816152e4565b8352918301918301615450565b600082601f83011261547f57600080fd5b8151602061548f614d6083614ce4565b82815260059290921b840181019181810190868411156154ae57600080fd5b8286015b8481101561540157805183529183019183016154b2565b600080600080600080600060e0888a0312156154e457600080fd5b87516001600160401b03808211156154fb57600080fd5b6155078b838c0161539d565b985060208a015191508082111561551d57600080fd5b6155298b838c0161539d565b975060408a015191508082111561553f57600080fd5b61554b8b838c0161540c565b965060608a015191508082111561556157600080fd5b61556d8b838c0161540c565b955060808a015191508082111561558357600080fd5b61558f8b838c0161546e565b945060a08a01519150808211156155a557600080fd5b506155b28a828b0161540c565b92505060c0880151905092959891949750929550565b604081016155d68285615028565b8260208301529392505050565b60008160001904831182151516156155fd576155fd615327565b500290565b60008261561f57634e487b7160e01b600052601260045260246000fd5b500490565b600181815b808511156110af57816000190482111561564557615645615327565b8085161561565257918102915b93841c9390800290615629565b60008261566e57506001610fbb565b8161567b57506000610fbb565b8160018114615691576002811461569b576156b7565b6001915050610fbb565b60ff8411156156ac576156ac615327565b50506001821b610fbb565b5060208310610133831016604e8410600b84101617156156da575081810a610fbb565b6156e48383615624565b80600019048211156156f8576156f8615327565b029392505050565b600061157e838361565f565b60208101610fbb8284615028565b60008161572957615729615327565b50600019019056fea2646970667358221220a63a3f60912ddede145545d029b7f5b0f278ad0e38962dfa523c445dcead41e664736f6c634300080c0033",
  "linkReferences": {},
  "deployedLinkReferences": {}
}