{
  "_format": "hh-sol-artifact-1",
  "contractName": "StakeManager",
  "sourceName": "contracts/StakeManager.sol",
  "abi": [
    {
      "inputs": [],
      "name": "AlreadyClaimed",
      "type": "error"
    },
    {
      "inputs": [],
      "name": "AlreadyInitialized",
      "type": "error"
    },
    {
      "inputs": [],
      "name": "AlreadyJoined",
      "type": "error"
    },
    {
      "inputs": [],
      "name": "AmountMismatched",
      "type": "error"
    },
    {
      "inputs": [],
      "name": "EmptyAddress",
      "type": "error"
    },
    {
      "inputs": [],
      "name": "Locked",
      "type": "error"
    },
    {
      "inputs": [],
      "name": "NoAmount",
      "type": "error"
    },
    {
      "inputs": [],
      "name": "NotZeroAmount",
      "type": "error"
    },
    {
      "inputs": [],
      "name": "ObsoletedMethod",
      "type": "error"
    },
    {
      "inputs": [],
      "name": "OnlyBlockProducer",
      "type": "error"
    },
    {
      "inputs": [],
      "name": "OnlyNotLastBlock",
      "type": "error"
    },
    {
      "inputs": [],
      "name": "PastEpoch",
      "type": "error"
    },
    {
      "inputs": [],
      "name": "SameAsOwner",
      "type": "error"
    },
    {
      "inputs": [],
      "name": "StakerDoesNotExist",
      "type": "error"
    },
    {
      "inputs": [
        {
          "internalType": "enum Token.Type",
          "name": "token",
          "type": "uint8"
        }
      ],
      "name": "TransferFailed",
      "type": "error"
    },
    {
      "inputs": [],
      "name": "UnauthorizedSender",
      "type": "error"
    },
    {
      "inputs": [],
      "name": "UnauthorizedValidator",
      "type": "error"
    },
    {
      "inputs": [],
      "name": "UnknownToken",
      "type": "error"
    },
    {
      "inputs": [],
      "name": "ValidatorDoesNotExist",
      "type": "error"
    },
    {
      "anonymous": false,
      "inputs": [
        {
          "indexed": false,
          "internalType": "uint256",
          "name": "amount",
          "type": "uint256"
        }
      ],
      "name": "AddedRewardBalance",
      "type": "event"
    },
    {
      "anonymous": false,
      "inputs": [
        {
          "indexed": true,
          "internalType": "address",
          "name": "validator",
          "type": "address"
        },
        {
          "indexed": false,
          "internalType": "uint256",
          "name": "amount",
          "type": "uint256"
        }
      ],
      "name": "ClaimedCommissions",
      "type": "event"
    },
    {
      "anonymous": false,
      "inputs": [
        {
          "indexed": true,
          "internalType": "address",
          "name": "staker",
          "type": "address"
        },
        {
          "indexed": false,
          "internalType": "uint256",
          "name": "lockedUnstake",
          "type": "uint256"
        }
      ],
      "name": "ClaimedLockedUnstake",
      "type": "event"
    },
    {
      "anonymous": false,
      "inputs": [
        {
          "indexed": true,
          "internalType": "address",
          "name": "staker",
          "type": "address"
        },
        {
          "indexed": false,
          "internalType": "address",
          "name": "validator",
          "type": "address"
        },
        {
          "indexed": false,
          "internalType": "uint256",
          "name": "amount",
          "type": "uint256"
        }
      ],
      "name": "ClaimedRewards",
      "type": "event"
    },
    {
      "anonymous": false,
      "inputs": [
        {
          "indexed": true,
          "internalType": "address",
          "name": "validator",
          "type": "address"
        },
        {
          "indexed": false,
          "internalType": "address",
          "name": "oldOperator",
          "type": "address"
        },
        {
          "indexed": false,
          "internalType": "address",
          "name": "newOperator",
          "type": "address"
        }
      ],
      "name": "OperatorUpdated",
      "type": "event"
    },
    {
      "anonymous": false,
      "inputs": [
        {
          "indexed": true,
          "internalType": "address",
          "name": "staker",
          "type": "address"
        },
        {
          "indexed": true,
          "internalType": "address",
          "name": "validator",
          "type": "address"
        },
        {
          "indexed": false,
          "internalType": "uint256",
          "name": "amount",
          "type": "uint256"
        }
      ],
      "name": "ReStaked",
      "type": "event"
    },
    {
      "anonymous": false,
      "inputs": [
        {
          "indexed": true,
          "internalType": "address",
          "name": "staker",
          "type": "address"
        },
        {
          "indexed": true,
          "internalType": "address",
          "name": "validator",
          "type": "address"
        },
        {
          "indexed": false,
          "internalType": "enum Token.Type",
          "name": "token",
          "type": "uint8"
        },
        {
          "indexed": false,
          "internalType": "uint256",
          "name": "amount",
          "type": "uint256"
        }
      ],
      "name": "Staked",
      "type": "event"
    },
    {
      "anonymous": false,
      "inputs": [
        {
          "indexed": true,
          "internalType": "address",
          "name": "staker",
          "type": "address"
        },
        {
          "indexed": true,
          "internalType": "address",
          "name": "validator",
          "type": "address"
        },
        {
          "indexed": false,
          "internalType": "enum Token.Type",
          "name": "token",
          "type": "uint8"
        },
        {
          "indexed": false,
          "internalType": "uint256",
          "name": "amount",
          "type": "uint256"
        }
      ],
      "name": "Unstaked",
      "type": "event"
    },
    {
      "anonymous": false,
      "inputs": [
        {
          "indexed": true,
          "internalType": "address",
          "name": "staker",
          "type": "address"
        },
        {
          "indexed": true,
          "internalType": "address",
          "name": "validator",
          "type": "address"
        },
        {
          "indexed": false,
          "internalType": "uint256",
          "name": "lockedUnstake",
          "type": "uint256"
        }
      ],
      "name": "UnstakedV2",
      "type": "event"
    },
    {
      "anonymous": false,
      "inputs": [
        {
          "indexed": true,
          "internalType": "address",
          "name": "validator",
          "type": "address"
        },
        {
          "indexed": false,
          "internalType": "uint256[]",
          "name": "epochs",
          "type": "uint256[]"
        }
      ],
      "name": "ValidatorActivated",
      "type": "event"
    },
    {
      "anonymous": false,
      "inputs": [
        {
          "indexed": true,
          "internalType": "address",
          "name": "validator",
          "type": "address"
        },
        {
          "indexed": false,
          "internalType": "uint256[]",
          "name": "epochs",
          "type": "uint256[]"
        }
      ],
      "name": "ValidatorDeactivated",
      "type": "event"
    },
    {
      "anonymous": false,
      "inputs": [
        {
          "indexed": true,
          "internalType": "address",
          "name": "validator",
          "type": "address"
        },
        {
          "indexed": false,
          "internalType": "uint256",
          "name": "until",
          "type": "uint256"
        }
      ],
      "name": "ValidatorJailed",
      "type": "event"
    },
    {
      "anonymous": false,
      "inputs": [
        {
          "indexed": false,
          "internalType": "address",
          "name": "validator",
          "type": "address"
        }
      ],
      "name": "ValidatorJoined",
      "type": "event"
    },
    {
      "anonymous": false,
      "inputs": [
        {
          "indexed": true,
          "internalType": "address",
          "name": "validator",
          "type": "address"
        }
      ],
      "name": "ValidatorSlashed",
      "type": "event"
    },
    {
      "inputs": [
        {
          "internalType": "address",
          "name": "validator",
          "type": "address"
        },
        {
          "internalType": "uint256[]",
          "name": "epochs",
          "type": "uint256[]"
        }
      ],
      "name": "activateValidator",
      "outputs": [],
      "stateMutability": "nonpayable",
      "type": "function"
    },
    {
      "inputs": [],
      "name": "addRewardBalance",
      "outputs": [],
      "stateMutability": "payable",
      "type": "function"
    },
    {
      "inputs": [],
      "name": "allowlist",
      "outputs": [
        {
          "internalType": "contract IAllowlist",
          "name": "",
          "type": "address"
        }
      ],
      "stateMutability": "view",
      "type": "function"
    },
    {
      "inputs": [],
      "name": "candidateManager",
      "outputs": [
        {
          "internalType": "contract ICandidateValidatorManager",
          "name": "",
          "type": "address"
        }
      ],
      "stateMutability": "view",
      "type": "function"
    },
    {
      "inputs": [
        {
          "internalType": "address",
          "name": "validator",
          "type": "address"
        },
        {
          "internalType": "uint256",
          "name": "epochs",
          "type": "uint256"
        }
      ],
      "name": "claimCommissions",
      "outputs": [],
      "stateMutability": "nonpayable",
      "type": "function"
    },
    {
      "inputs": [
        {
          "internalType": "uint256",
          "name": "lockedUnstake",
          "type": "uint256"
        }
      ],
      "name": "claimLockedUnstake",
      "outputs": [],
      "stateMutability": "nonpayable",
      "type": "function"
    },
    {
      "inputs": [
        {
          "internalType": "address",
          "name": "staker",
          "type": "address"
        },
        {
          "internalType": "address",
          "name": "validator",
          "type": "address"
        },
        {
          "internalType": "uint256",
          "name": "epochs",
          "type": "uint256"
        }
      ],
      "name": "claimRewards",
      "outputs": [],
      "stateMutability": "nonpayable",
      "type": "function"
    },
    {
      "inputs": [
        {
          "internalType": "address",
          "name": "staker",
          "type": "address"
        }
      ],
      "name": "claimUnstakes",
      "outputs": [],
      "stateMutability": "nonpayable",
      "type": "function"
    },
    {
      "inputs": [
        {
          "internalType": "address",
          "name": "validator",
          "type": "address"
        },
        {
          "internalType": "uint256[]",
          "name": "epochs",
          "type": "uint256[]"
        }
      ],
      "name": "deactivateValidator",
      "outputs": [],
      "stateMutability": "nonpayable",
      "type": "function"
    },
    {
      "inputs": [],
      "name": "environment",
      "outputs": [
        {
          "internalType": "contract IEnvironment",
          "name": "",
          "type": "address"
        }
      ],
      "stateMutability": "view",
      "type": "function"
    },
    {
      "inputs": [
        {
          "internalType": "address",
          "name": "validator",
          "type": "address"
        },
        {
          "internalType": "uint256",
          "name": "epoch",
          "type": "uint256"
        }
      ],
      "name": "getBlockAndSlashes",
      "outputs": [
        {
          "internalType": "uint256",
          "name": "blocks",
          "type": "uint256"
        },
        {
          "internalType": "uint256",
          "name": "slashes",
          "type": "uint256"
        }
      ],
      "stateMutability": "view",
      "type": "function"
    },
    {
      "inputs": [
        {
          "internalType": "address",
          "name": "validator",
          "type": "address"
        },
        {
          "internalType": "uint256",
          "name": "epochs",
          "type": "uint256"
        }
      ],
      "name": "getCommissions",
      "outputs": [
        {
          "internalType": "uint256",
          "name": "commissions",
          "type": "uint256"
        }
      ],
      "stateMutability": "view",
      "type": "function"
    },
    {
      "inputs": [
        {
          "internalType": "address",
          "name": "staker",
          "type": "address"
        },
        {
          "internalType": "uint256",
          "name": "lockedUnstake",
          "type": "uint256"
        }
      ],
      "name": "getLockedUnstake",
      "outputs": [
        {
          "internalType": "enum Token.Type",
          "name": "token",
          "type": "uint8"
        },
        {
          "internalType": "uint256",
          "name": "amount",
          "type": "uint256"
        },
        {
          "internalType": "uint256",
          "name": "unlockTime",
          "type": "uint256"
        },
        {
          "internalType": "bool",
          "name": "claimable",
          "type": "bool"
        }
      ],
      "stateMutability": "view",
      "type": "function"
    },
    {
      "inputs": [
        {
          "internalType": "address",
          "name": "staker",
          "type": "address"
        }
      ],
      "name": "getLockedUnstakeCount",
      "outputs": [
        {
          "internalType": "uint256",
          "name": "count",
          "type": "uint256"
        }
      ],
      "stateMutability": "view",
      "type": "function"
    },
    {
      "inputs": [
        {
          "internalType": "address",
          "name": "staker",
          "type": "address"
        },
        {
          "internalType": "uint256",
          "name": "cursor",
          "type": "uint256"
        },
        {
          "internalType": "uint256",
          "name": "howMany",
          "type": "uint256"
        }
      ],
      "name": "getLockedUnstakes",
      "outputs": [
        {
          "internalType": "enum Token.Type[]",
          "name": "tokens",
          "type": "uint8[]"
        },
        {
          "internalType": "uint256[]",
          "name": "amounts",
          "type": "uint256[]"
        },
        {
          "internalType": "uint256[]",
          "name": "unlockTimes",
          "type": "uint256[]"
        },
        {
          "internalType": "bool[]",
          "name": "claimable",
          "type": "bool[]"
        },
        {
          "internalType": "uint256",
          "name": "newCursor",
          "type": "uint256"
        }
      ],
      "stateMutability": "view",
      "type": "function"
    },
    {
      "inputs": [
        {
          "internalType": "address",
          "name": "operator",
          "type": "address"
        },
        {
          "internalType": "uint256",
          "name": "epoch",
          "type": "uint256"
        }
      ],
      "name": "getOperatorStakes",
      "outputs": [
        {
          "internalType": "uint256",
          "name": "stakes",
          "type": "uint256"
        }
      ],
      "stateMutability": "view",
      "type": "function"
    },
    {
      "inputs": [
        {
          "internalType": "address",
          "name": "staker",
          "type": "address"
        },
        {
          "internalType": "address",
          "name": "validator",
          "type": "address"
        },
        {
          "internalType": "uint256",
          "name": "epochs",
          "type": "uint256"
        }
      ],
      "name": "getRewards",
      "outputs": [
        {
          "internalType": "uint256",
          "name": "rewards",
          "type": "uint256"
        }
      ],
      "stateMutability": "view",
      "type": "function"
    },
    {
      "inputs": [
        {
          "internalType": "address",
          "name": "staker",
          "type": "address"
        },
        {
          "internalType": "uint256",
          "name": "epoch",
          "type": "uint256"
        },
        {
          "internalType": "uint256",
          "name": "cursor",
          "type": "uint256"
        },
        {
          "internalType": "uint256",
          "name": "howMany",
          "type": "uint256"
        }
      ],
      "name": "getStakerStakes",
      "outputs": [
        {
          "internalType": "address[]",
          "name": "_validators",
          "type": "address[]"
        },
        {
          "internalType": "uint256[]",
          "name": "oasStakes",
          "type": "uint256[]"
        },
        {
          "internalType": "uint256[]",
          "name": "woasStakes",
          "type": "uint256[]"
        },
        {
          "internalType": "uint256[]",
          "name": "soasStakes",
          "type": "uint256[]"
        },
        {
          "internalType": "uint256",
          "name": "newCursor",
          "type": "uint256"
        }
      ],
      "stateMutability": "view",
      "type": "function"
    },
    {
      "inputs": [
        {
          "internalType": "uint256",
          "name": "cursor",
          "type": "uint256"
        },
        {
          "internalType": "uint256",
          "name": "howMany",
          "type": "uint256"
        }
      ],
      "name": "getStakers",
      "outputs": [
        {
          "internalType": "address[]",
          "name": "_stakers",
          "type": "address[]"
        },
        {
          "internalType": "uint256",
          "name": "newCursor",
          "type": "uint256"
        }
      ],
      "stateMutability": "view",
      "type": "function"
    },
    {
      "inputs": [
        {
          "internalType": "address[]",
          "name": "_validators",
          "type": "address[]"
        },
        {
          "internalType": "uint256",
          "name": "epochs",
          "type": "uint256"
        }
      ],
      "name": "getTotalRewards",
      "outputs": [
        {
          "internalType": "uint256",
          "name": "rewards",
          "type": "uint256"
        }
      ],
      "stateMutability": "view",
      "type": "function"
    },
    {
      "inputs": [
        {
          "internalType": "uint256",
          "name": "epoch",
          "type": "uint256"
        }
      ],
      "name": "getTotalStake",
      "outputs": [
        {
          "internalType": "uint256",
          "name": "amounts",
          "type": "uint256"
        }
      ],
      "stateMutability": "view",
      "type": "function"
    },
    {
      "inputs": [
        {
          "internalType": "address",
          "name": "staker",
          "type": "address"
        }
      ],
      "name": "getUnstakes",
      "outputs": [
        {
          "internalType": "uint256",
          "name": "oasUnstakes",
          "type": "uint256"
        },
        {
          "internalType": "uint256",
          "name": "woasUnstakes",
          "type": "uint256"
        },
        {
          "internalType": "uint256",
          "name": "soasUnstakes",
          "type": "uint256"
        }
      ],
      "stateMutability": "view",
      "type": "function"
    },
    {
      "inputs": [
        {
          "internalType": "address",
          "name": "validator",
          "type": "address"
        },
        {
          "internalType": "uint256",
          "name": "epoch",
          "type": "uint256"
        }
      ],
      "name": "getValidatorInfo",
      "outputs": [
        {
          "internalType": "address",
          "name": "operator",
          "type": "address"
        },
        {
          "internalType": "bool",
          "name": "active",
          "type": "bool"
        },
        {
          "internalType": "bool",
          "name": "jailed",
          "type": "bool"
        },
        {
          "internalType": "bool",
          "name": "candidate",
          "type": "bool"
        },
        {
          "internalType": "uint256",
          "name": "stakes",
          "type": "uint256"
        }
      ],
      "stateMutability": "view",
      "type": "function"
    },
    {
      "inputs": [
        {
          "internalType": "uint256",
          "name": "cursor",
          "type": "uint256"
        },
        {
          "internalType": "uint256",
          "name": "howMany",
          "type": "uint256"
        }
      ],
      "name": "getValidatorOwners",
      "outputs": [
        {
          "internalType": "address[]",
          "name": "owners",
          "type": "address[]"
        },
        {
          "internalType": "uint256",
          "name": "newCursor",
          "type": "uint256"
        }
      ],
      "stateMutability": "view",
      "type": "function"
    },
    {
      "inputs": [
        {
          "internalType": "address",
          "name": "validator",
          "type": "address"
        },
        {
          "internalType": "uint256",
          "name": "epoch",
          "type": "uint256"
        }
      ],
      "name": "getValidatorStakes",
      "outputs": [
        {
          "internalType": "uint256",
          "name": "stakes",
          "type": "uint256"
        }
      ],
      "stateMutability": "view",
      "type": "function"
    },
    {
      "inputs": [
        {
          "internalType": "address",
          "name": "validator",
          "type": "address"
        },
        {
          "internalType": "uint256",
          "name": "epoch",
          "type": "uint256"
        },
        {
          "internalType": "uint256",
          "name": "cursor",
          "type": "uint256"
        },
        {
          "internalType": "uint256",
          "name": "howMany",
          "type": "uint256"
        }
      ],
      "name": "getValidatorStakes",
      "outputs": [
        {
          "internalType": "address[]",
          "name": "_stakers",
          "type": "address[]"
        },
        {
          "internalType": "uint256[]",
          "name": "stakes",
          "type": "uint256[]"
        },
        {
          "internalType": "uint256",
          "name": "newCursor",
          "type": "uint256"
        }
      ],
      "stateMutability": "view",
      "type": "function"
    },
    {
      "inputs": [
        {
          "internalType": "uint256",
          "name": "epoch",
          "type": "uint256"
        },
        {
          "internalType": "uint256",
          "name": "cursor",
          "type": "uint256"
        },
        {
          "internalType": "uint256",
          "name": "howMany",
          "type": "uint256"
        }
      ],
      "name": "getValidators",
      "outputs": [
        {
          "internalType": "address[]",
          "name": "owners",
          "type": "address[]"
        },
        {
          "internalType": "address[]",
          "name": "operators",
          "type": "address[]"
        },
        {
          "internalType": "uint256[]",
          "name": "stakes",
          "type": "uint256[]"
        },
        {
          "internalType": "bool[]",
          "name": "candidates",
          "type": "bool[]"
        },
        {
          "internalType": "uint256",
          "name": "newCursor",
          "type": "uint256"
        }
      ],
      "stateMutability": "view",
      "type": "function"
    },
    {
      "inputs": [
        {
          "internalType": "contract IEnvironment",
          "name": "_environment",
          "type": "address"
        },
        {
          "internalType": "contract IAllowlist",
          "name": "_allowlist",
          "type": "address"
        }
      ],
      "name": "initialize",
      "outputs": [],
      "stateMutability": "nonpayable",
      "type": "function"
    },
    {
      "inputs": [],
      "name": "initialized",
      "outputs": [
        {
          "internalType": "bool",
          "name": "",
          "type": "bool"
        }
      ],
      "stateMutability": "view",
      "type": "function"
    },
    {
      "inputs": [
        {
          "internalType": "address",
          "name": "operator",
          "type": "address"
        }
      ],
      "name": "joinValidator",
      "outputs": [],
      "stateMutability": "nonpayable",
      "type": "function"
    },
    {
      "inputs": [
        {
          "internalType": "address",
          "name": "",
          "type": "address"
        }
      ],
      "name": "operatorToOwner",
      "outputs": [
        {
          "internalType": "address",
          "name": "",
          "type": "address"
        }
      ],
      "stateMutability": "view",
      "type": "function"
    },
    {
      "inputs": [
        {
          "internalType": "uint256",
          "name": "epochs",
          "type": "uint256"
        }
      ],
      "name": "restakeCommissions",
      "outputs": [],
      "stateMutability": "nonpayable",
      "type": "function"
    },
    {
      "inputs": [
        {
          "internalType": "address",
          "name": "validator",
          "type": "address"
        },
        {
          "internalType": "uint256",
          "name": "epochs",
          "type": "uint256"
        }
      ],
      "name": "restakeRewards",
      "outputs": [],
      "stateMutability": "nonpayable",
      "type": "function"
    },
    {
      "inputs": [
        {
          "internalType": "address",
          "name": "operator",
          "type": "address"
        },
        {
          "internalType": "uint256",
          "name": "blocks",
          "type": "uint256"
        }
      ],
      "name": "slash",
      "outputs": [],
      "stateMutability": "nonpayable",
      "type": "function"
    },
    {
      "inputs": [
        {
          "internalType": "address",
          "name": "validator",
          "type": "address"
        },
        {
          "internalType": "enum Token.Type",
          "name": "token",
          "type": "uint8"
        },
        {
          "internalType": "uint256",
          "name": "amount",
          "type": "uint256"
        }
      ],
      "name": "stake",
      "outputs": [],
      "stateMutability": "payable",
      "type": "function"
    },
    {
      "inputs": [
        {
          "internalType": "uint256",
          "name": "",
          "type": "uint256"
        }
      ],
      "name": "stakeAmounts",
      "outputs": [
        {
          "internalType": "uint256",
          "name": "",
          "type": "uint256"
        }
      ],
      "stateMutability": "view",
      "type": "function"
    },
    {
      "inputs": [
        {
          "internalType": "uint256",
          "name": "",
          "type": "uint256"
        }
      ],
      "name": "stakeUpdates",
      "outputs": [
        {
          "internalType": "uint256",
          "name": "",
          "type": "uint256"
        }
      ],
      "stateMutability": "view",
      "type": "function"
    },
    {
      "inputs": [
        {
          "internalType": "uint256",
          "name": "",
          "type": "uint256"
        }
      ],
      "name": "stakerSigners",
      "outputs": [
        {
          "internalType": "address",
          "name": "",
          "type": "address"
        }
      ],
      "stateMutability": "view",
      "type": "function"
    },
    {
      "inputs": [
        {
          "internalType": "address",
          "name": "",
          "type": "address"
        }
      ],
      "name": "stakers",
      "outputs": [
        {
          "internalType": "address",
          "name": "signer",
          "type": "address"
        }
      ],
      "stateMutability": "view",
      "type": "function"
    },
    {
      "inputs": [
        {
          "internalType": "address",
          "name": "validator",
          "type": "address"
        },
        {
          "internalType": "enum Token.Type",
          "name": "token",
          "type": "uint8"
        },
        {
          "internalType": "uint256",
          "name": "amount",
          "type": "uint256"
        }
      ],
      "name": "unstake",
      "outputs": [],
      "stateMutability": "nonpayable",
      "type": "function"
    },
    {
      "inputs": [
        {
          "internalType": "address",
          "name": "validator",
          "type": "address"
        },
        {
          "internalType": "enum Token.Type",
          "name": "token",
          "type": "uint8"
        },
        {
          "internalType": "uint256",
          "name": "amount",
          "type": "uint256"
        }
      ],
      "name": "unstakeV2",
      "outputs": [],
      "stateMutability": "nonpayable",
      "type": "function"
    },
    {
      "inputs": [
        {
          "internalType": "address",
          "name": "operator",
          "type": "address"
        }
      ],
      "name": "updateOperator",
      "outputs": [],
      "stateMutability": "nonpayable",
      "type": "function"
    },
    {
      "inputs": [
        {
          "internalType": "uint256",
          "name": "",
          "type": "uint256"
        }
      ],
      "name": "validatorOwners",
      "outputs": [
        {
          "internalType": "address",
          "name": "",
          "type": "address"
        }
      ],
      "stateMutability": "view",
      "type": "function"
    },
    {
      "inputs": [
        {
          "internalType": "address",
          "name": "",
          "type": "address"
        }
      ],
      "name": "validators",
      "outputs": [
        {
          "internalType": "address",
          "name": "owner",
          "type": "address"
        },
        {
          "internalType": "address",
          "name": "operator",
          "type": "address"
        },
        {
          "internalType": "uint256",
          "name": "lastClaimCommission",
          "type": "uint256"
        }
      ],
      "stateMutability": "view",
      "type": "function"
    }
  ],
  "bytecode": "0x608060405234801561001057600080fd5b506157fa80620000216000396000f3fe6080604052600436106102675760003560e01c806374e2b63c11610144578063cf5c13db116100b6578063e1aca3411161007a578063e1aca34114610850578063f3621e4314610870578063f65a5ed214610890578063f8d6b1ab146108b0578063fa52c7d8146108d0578063ff3d3f601461093f57600080fd5b8063cf5c13db1461074e578063d0051adf1461076e578063d1f18ee11461079f578063dbd61d87146107f7578063df93c8421461081757600080fd5b80639168ae72116101085780639168ae72146106785780639c508219146106ae578063a6a41f44146106ce578063ac7475ed146106ee578063ad71bd361461070e578063cbc0fac61461072e57600080fd5b806374e2b63c146105c75780637b520aa8146105ec5780637befa74f1461062257806388325234146106355780639043150b1461067057600080fd5b80632ee462b3116101dd578063485cc955116101a1578063485cc955146104e65780635c4fc4c5146105065780635d94ccf6146105365780635efc766e146105565780636b2b336914610576578063724319911461059657600080fd5b80632ee462b31461043757806333f32d7814610457578063428e85621461047757806345367f231461049757806346dfce7b146104b757600080fd5b8063195afea11161022f578063195afea11461032b5780631c1b4f3a1461034b5780632168e8b41461036b57806322226367146103995780632b42ed8c146103ce5780632b47da52146103ff57600080fd5b806302fb4d851461026c5780630ddda63c1461028e578063158ef93e146102ae5780631903cf16146102dd578063190b9257146102fd575b600080fd5b34801561027857600080fd5b5061028c610287366004614cc3565b61095f565b005b34801561029a57600080fd5b5061028c6102a9366004614cef565b610b65565b3480156102ba57600080fd5b506000546102c89060ff1681565b60405190151581526020015b60405180910390f35b3480156102e957600080fd5b5061028c6102f8366004614d9a565b610d70565b34801561030957600080fd5b5061031d610318366004614cef565b610f69565b6040519081526020016102d4565b34801561033757600080fd5b5061031d610346366004614cc3565b610f8a565b34801561035757600080fd5b5061031d610366366004614cef565b610fc1565b34801561037757600080fd5b5061038b610386366004614e44565b610fd1565b6040516102d4929190614eaa565b3480156103a557600080fd5b506103b96103b4366004614cc3565b6110b7565b604080519283526020830191909152016102d4565b3480156103da57600080fd5b506103ee6103e9366004614ecc565b611185565b6040516102d4959493929190614f37565b34801561040b57600080fd5b5060015461041f906001600160a01b031681565b6040516001600160a01b0390911681526020016102d4565b34801561044357600080fd5b5061031d610452366004614cc3565b6114d2565b34801561046357600080fd5b5061031d610472366004614f97565b611585565b34801561048357600080fd5b5061028c610492366004614d9a565b611744565b3480156104a357600080fd5b5061031d6104b2366004614cef565b61193d565b3480156104c357600080fd5b506104d76104d2366004614ecc565b6119d3565b6040516102d493929190615036565b3480156104f257600080fd5b5061028c61050136600461506c565b611c30565b34801561051257600080fd5b50610526610521366004614cc3565b611caf565b6040516102d494939291906150dd565b34801561054257600080fd5b5061028c610551366004614cef565b611d7b565b34801561056257600080fd5b5061041f610571366004614cef565b611e85565b34801561058257600080fd5b5061028c610591366004615108565b611eaf565b3480156105a257600080fd5b506105b66105b1366004615125565b611ff7565b6040516102d4959493929190615183565b3480156105d357600080fd5b5060005461041f9061010090046001600160a01b031681565b3480156105f857600080fd5b5061041f610607366004615108565b6006602052600090815260409020546001600160a01b031681565b61028c6106303660046151d0565b612097565b34801561064157600080fd5b50610655610650366004615108565b612262565b604080519384526020840192909252908201526060016102d4565b61028c6122e2565b34801561068457600080fd5b5061041f610693366004615108565b6007602052600090815260409020546001600160a01b031681565b3480156106ba57600080fd5b5061031d6106c9366004614cc3565b612317565b3480156106da57600080fd5b5060095461041f906001600160a01b031681565b3480156106fa57600080fd5b5061028c610709366004615108565b6123f3565b34801561071a57600080fd5b5061038b610729366004614e44565b6124ba565b34801561073a57600080fd5b5061028c610749366004614cc3565b612598565b34801561075a57600080fd5b5061028c610769366004614cc3565b612640565b34801561077a57600080fd5b5061078e610789366004615215565b61283f565b6040516102d495949392919061524a565b3480156107ab57600080fd5b506107bf6107ba366004614cc3565b612af7565b604080516001600160a01b0390961686529315156020860152911515928401929092529015156060830152608082015260a0016102d4565b34801561080357600080fd5b5061031d6108123660046152b3565b612c71565b34801561082357600080fd5b5061031d610832366004615108565b6001600160a01b031660009081526007602052604090206006015490565b34801561085c57600080fd5b5061028c61086b3660046151d0565b612cb7565b34801561087c57600080fd5b5061028c61088b3660046152b3565b612cd0565b34801561089c57600080fd5b5061041f6108ab366004614cef565b612ddc565b3480156108bc57600080fd5b5061028c6108cb366004615108565b612dec565b3480156108dc57600080fd5b506109196108eb366004615108565b6004602052600090815260409020805460018201546006909201546001600160a01b03918216929091169083565b604080516001600160a01b039485168152939092166020840152908201526060016102d4565b34801561094b57600080fd5b5061028c61095a3660046151d0565b612e4e565b6001600160a01b0380831660009081526006602090815260408083205484168084526004909252909120549091166109aa576040516372898ae960e11b815260040160405180910390fd5b3341146109ca57604051631cf4735960e01b815260040160405180910390fd5b6001600160a01b038084166000908152600660209081526040808320548416835260049182905280832083548251633fa4f24560e01b815292519195610add946101009092041692633fa4f2459281830192610120928290030181865afa158015610a39573d6000803e3d6000fd5b505050506040513d601f19601f82011682018060405250810190610a5d91906152e3565b600060019054906101000a90046001600160a01b03166001600160a01b031663900cf0cf6040518163ffffffff1660e01b8152600401602060405180830381865afa158015610ab0573d6000803e3d6000fd5b505050506040513d601f19601f82011682018060405250810190610ad4919061535e565b8491908761318e565b82546040519192506001600160a01b0316907f1647efd0ce9727dc31dc201c9d8d35ac687f7370adcacbd454afc6485ddabfda90600090a28015610b5e5781546040518281526001600160a01b03909116907feb7d7a49847ec491969db21a0e31b234565a9923145a2d1b56a75c9e95825802906020015b60405180910390a25b5050505050565b336000818152600460205260409020546001600160a01b0316610b9b576040516372898ae960e11b815260040160405180910390fd5b336000818152600760205260409020546001600160a01b0316610bd15760405163cf83d93d60e01b815260040160405180910390fd5b600060019054906101000a90046001600160a01b03166001600160a01b031663d4a536866040518163ffffffff1660e01b8152600401602060405180830381865afa158015610c24573d6000803e3d6000fd5b505050506040513d601f19601f82011682018060405250810190610c48919061538c565b15610c6657604051631e59ccd960e01b815260040160405180910390fd5b60008054338252600460205260408220610c8e9161010090046001600160a01b03168661326d565b905080610cae57604051637bc90c0560e11b815260040160405180910390fd5b610d323333600060019054906101000a90046001600160a01b03166001600160a01b031663900cf0cf6040518163ffffffff1660e01b8152600401602060405180830381865afa158015610d06573d6000803e3d6000fd5b505050506040513d601f19601f82011682018060405250810190610d2a919061535e565b60008561328d565b604051818152339081907fddd8e3ffe5c76cd1a7cca4b98662cb0a4e3da53ee24a873da632d28ba1043836906020015b60405180910390a350505050565b6001600160a01b03828116600090815260046020526040902080548492163314801590610daa575060018101546001600160a01b03163314155b15610dc857604051630101292160e31b815260040160405180910390fd5b6001600160a01b03808516600090815260046020526040902054859116610e02576040516372898ae960e11b815260040160405180910390fd5b600060019054906101000a90046001600160a01b03166001600160a01b031663d4a536866040518163ffffffff1660e01b8152600401602060405180830381865afa158015610e55573d6000803e3d6000fd5b505050506040513d601f19601f82011682018060405250810190610e79919061538c565b15610e9757604051631e59ccd960e01b815260040160405180910390fd5b610f30600060019054906101000a90046001600160a01b03166001600160a01b031663900cf0cf6040518163ffffffff1660e01b8152600401602060405180830381865afa158015610eed573d6000803e3d6000fd5b505050506040513d601f19601f82011682018060405250810190610f11919061535e565b6001600160a01b038716600090815260046020526040902090866133a2565b846001600160a01b03167fc11dfc9c24621433bb10587dc4bbae26a33a4aff53914e0d4c9fddf224a8cb7d85604051610b5591906153a7565b60028181548110610f7957600080fd5b600091825260209091200154905081565b600080546001600160a01b038481168352600460205260408320610fb792909161010090910416846133b4565b5090505b92915050565b60038181548110610f7957600080fd5b60606000610fe58484600580549050613547565b9093509050826001600160401b0381111561100257611002614d08565b60405190808252806020026020018201604052801561102b578160200160208202803683370190505b50915060005b838110156110af57600561104582876153d0565b81548110611055576110556153e8565b9060005260206000200160009054906101000a90046001600160a01b0316838281518110611085576110856153e8565b6001600160a01b0390921660209283029190910190910152806110a7816153fe565b915050611031565b509250929050565b60008061117a6000841161114157600060019054906101000a90046001600160a01b03166001600160a01b031663900cf0cf6040518163ffffffff1660e01b8152600401602060405180830381865afa158015611118573d6000803e3d6000fd5b505050506040513d601f19601f8201168201806040525081019061113c919061535e565b611143565b835b6001600160a01b038616600090815260046020908152604080832093835260098401825280832054600a9094019091529020549091565b909590945092505050565b6001600160a01b03841660009081526007602052604081206060918291829182918861122757600060019054906101000a90046001600160a01b03166001600160a01b031663900cf0cf6040518163ffffffff1660e01b8152600401602060405180830381865afa1580156111fe573d6000803e3d6000fd5b505050506040513d601f19601f82011682018060405250810190611222919061535e565b611229565b885b985061123b8888600580549050613547565b9097509150866001600160401b0381111561125857611258614d08565b604051908082528060200260200182016040528015611281578160200160208202803683370190505b509550866001600160401b0381111561129c5761129c614d08565b6040519080825280602002602001820160405280156112c5578160200160208202803683370190505b509450866001600160401b038111156112e0576112e0614d08565b604051908082528060200260200182016040528015611309578160200160208202803683370190505b509350866001600160401b0381111561132457611324614d08565b60405190808252806020026020018201604052801561134d578160200160208202803683370190505b50925060005b878110156114c5576005611367828b6153d0565b81548110611377576113776153e8565b9060005260206000200160009054906101000a90046001600160a01b03168782815181106113a7576113a76153e8565b60200260200101906001600160a01b031690816001600160a01b0316815250506113f88782815181106113dc576113dc6153e8565b602002602001015160008c8561357e909392919063ffffffff16565b86828151811061140a5761140a6153e8565b60200260200101818152505061144787828151811061142b5761142b6153e8565b602002602001015160018c8561357e909392919063ffffffff16565b858281518110611459576114596153e8565b60200260200101818152505061149687828151811061147a5761147a6153e8565b602002602001015160028c8561357e909392919063ffffffff16565b8482815181106114a8576114a86153e8565b6020908102919091010152806114bd816153fe565b915050611353565b5050945094509450945094565b600080821161155757600060019054906101000a90046001600160a01b03166001600160a01b031663900cf0cf6040518163ffffffff1660e01b8152600401602060405180830381865afa15801561152e573d6000803e3d6000fd5b505050506040513d601f19601f82011682018060405250810190611552919061535e565b611559565b815b6001600160a01b038416600090815260046020526040902090925061157e908361363d565b9392505050565b600080600183600060019054906101000a90046001600160a01b03166001600160a01b031663900cf0cf6040518163ffffffff1660e01b8152600401602060405180830381865afa1580156115de573d6000803e3d6000fd5b505050506040513d601f19601f82011682018060405250810190611602919061535e565b61160c9190615419565b6116169190615419565b845190915060005b8481101561173b576116316001846153d0565b6000805460405163fcbb371b60e01b81526004810184905292955090916101009091046001600160a01b03169063fcbb371b9060240161012060405180830381865afa158015611685573d6000803e3d6000fd5b505050506040513d601f19601f820116820180604052508101906116a991906152e3565b905060005b83811015611726576117088286600460008c86815181106116d1576116d16153e8565b60200260200101516001600160a01b03166001600160a01b031681526020019081526020016000206136509092919063ffffffff16565b61171290876153d0565b95508061171e816153fe565b9150506116ae565b50508080611733906153fe565b91505061161e565b50505092915050565b6001600160a01b0382811660009081526004602052604090208054849216331480159061177e575060018101546001600160a01b03163314155b1561179c57604051630101292160e31b815260040160405180910390fd5b6001600160a01b038085166000908152600460205260409020548591166117d6576040516372898ae960e11b815260040160405180910390fd5b600060019054906101000a90046001600160a01b03166001600160a01b031663d4a536866040518163ffffffff1660e01b8152600401602060405180830381865afa158015611829573d6000803e3d6000fd5b505050506040513d601f19601f8201168201806040525081019061184d919061538c565b1561186b57604051631e59ccd960e01b815260040160405180910390fd5b611904600060019054906101000a90046001600160a01b03166001600160a01b031663900cf0cf6040518163ffffffff1660e01b8152600401602060405180830381865afa1580156118c1573d6000803e3d6000fd5b505050506040513d601f19601f820116820180604052508101906118e5919061535e565b6001600160a01b038716600090815260046020526040902090866137bd565b846001600160a01b03167f0ad9bf1b8c026a174a2f30954417002a6ea00c9b08c1b8846c7951c687be809585604051610b5591906153a7565b60008082116119c257600060019054906101000a90046001600160a01b03166001600160a01b031663900cf0cf6040518163ffffffff1660e01b8152600401602060405180830381865afa158015611999573d6000803e3d6000fd5b505050506040513d601f19601f820116820180604052508101906119bd919061535e565b6119c4565b815b9150610fbb60026003846137ca565b6001600160a01b0384166000908152600460205260408120606091829186611a7157600060019054906101000a90046001600160a01b03166001600160a01b031663900cf0cf6040518163ffffffff1660e01b8152600401602060405180830381865afa158015611a48573d6000803e3d6000fd5b505050506040513d601f19601f82011682018060405250810190611a6c919061535e565b611a73565b865b9650611a8786868360070180549050613547565b9095509150846001600160401b03811115611aa457611aa4614d08565b604051908082528060200260200182016040528015611acd578160200160208202803683370190505b509350846001600160401b03811115611ae857611ae8614d08565b604051908082528060200260200182016040528015611b11578160200160208202803683370190505b50925060005b85811015611c24576000600781848201611b31858c6153d0565b81548110611b4157611b416153e8565b60009182526020808320909101546001600160a01b03908116845290830193909352604090910190208054885191935090911690879084908110611b8757611b876153e8565b6001600160a01b0392831660209182029290920101528354611bae9183911660028c61357e565b8354611bc79083906001600160a01b031660018d61357e565b8454611be09084906001600160a01b031660008e61357e565b611bea91906153d0565b611bf491906153d0565b858381518110611c0657611c066153e8565b60209081029190910101525080611c1c816153fe565b915050611b17565b50509450945094915050565b334114611c5057604051631cf4735960e01b815260040160405180910390fd5b60005460ff1615611c735760405162dc149f60e41b815260040160405180910390fd5b6000805460016001600160a81b03199091166101006001600160a01b039586160217811790915580546001600160a01b03191691909216179055565b6001600160a01b03821660009081526007602052604081206006018054829182918291829187908110611ce457611ce46153e8565b6000918252602090912060408051606081019091526003909202018054829060ff166002811115611d1757611d176150a5565b6002811115611d2857611d286150a5565b81526020016001820154815260200160028201548152505090508060000151816020015182604001518360400151600014158015611d6a575083604001514210155b929a91995097509095509350505050565b336000818152600760205260409020546001600160a01b0316611db15760405163cf83d93d60e01b815260040160405180910390fd5b336000908152600760205260408120600601805484908110611dd557611dd56153e8565b9060005260206000209060030201905060008160020154905080421015611e0f576040516303cb96db60e21b815260040160405180910390fd5b80611e2d57604051630c8d9eab60e31b815260040160405180910390fd5b6000600283015560405184815233907fbf5f92dc2b945251eadf78c2ca629ae64053d979bfbc43a7b17a463707906bf99060200160405180910390a281546001830154611e7f9160ff169033906138e3565b50505050565b60058181548110611e9557600080fd5b6000918252602090912001546001600160a01b0316905081565b60015460405163322433e360e01b81523360048201819052916001600160a01b03169063322433e390602401602060405180830381865afa158015611ef8573d6000803e3d6000fd5b505050506040513d601f19601f82011682018060405250810190611f1c919061538c565b611f395760405163423057c560e11b815260040160405180910390fd5b6001600160a01b0381166000908152600460205260409020611f5b9083613a02565b60058054600181019091557f036b6384b5eca791c62761152d0c79bb0604c104a5fb6f4eb0703f3154bb3db00180546001600160a01b038381166001600160a01b03199283168117909355841660009081526006602090815260409182902080549093168417909255519182527fd5828184f48f65962d10eac907318df85953d4e3542a0f09b5932ee3fe398bdd910160405180910390a15050565b600954604051632d73a02f60e01b81526004810185905260248101849052604481018390526060918291829182916000916001600160a01b031690632d73a02f90606401600060405180830381865afa158015612058573d6000803e3d6000fd5b505050506040513d6000823e601f3d908101601f19168201604052612080919081019061555c565b959e949d50909b5099509297509095505050505050565b6001600160a01b038084166000908152600460205260409020548491166120d1576040516372898ae960e11b815260040160405180910390fd5b600060019054906101000a90046001600160a01b03166001600160a01b031663d4a536866040518163ffffffff1660e01b8152600401602060405180830381865afa158015612124573d6000803e3d6000fd5b505050506040513d601f19601f82011682018060405250810190612148919061538c565b1561216657604051631e59ccd960e01b815260040160405180910390fd5b8161218457604051637bc90c0560e11b815260040160405180910390fd5b61218f833384613a44565b61221d3385600060019054906101000a90046001600160a01b03166001600160a01b031663900cf0cf6040518163ffffffff1660e01b8152600401602060405180830381865afa1580156121e7573d6000803e3d6000fd5b505050506040513d601f19601f8201168201806040525081019061220b919061535e565b6122169060016153d0565b868661328d565b836001600160a01b0316336001600160a01b03167f8fc656e319452025372383dc27d933046d412b8253de50a10739eeaa59862be68585604051610d6292919061565b565b6001600160a01b0380821660009081526007602052604081208154919283928392916122979183916101009091041684613ae5565b6000549094506122b890829061010090046001600160a01b03166001613ae5565b6000549093506122d990829061010090046001600160a01b03166002613ae5565b93959294505050565b6040513481527f1de49774d094a85fc1bbbd16e8d09a865fb848218f41e2da4369f528c42ee42e9060200160405180910390a1565b6001600160a01b038083166000818152600660209081526040808320548516835260049091528120600181015491939092911614612359576000915050610fbb565b600083116123dd57600060019054906101000a90046001600160a01b03166001600160a01b031663900cf0cf6040518163ffffffff1660e01b8152600401602060405180830381865afa1580156123b4573d6000803e3d6000fd5b505050506040513d601f19601f820116820180604052508101906123d8919061535e565b6123df565b825b92506123eb818461363d565b949350505050565b336000818152600460205260409020546001600160a01b0316612429576040516372898ae960e11b815260040160405180910390fd5b33600081815260046020526040902060018101546001600160a01b03166124508286613d0b565b6001600160a01b0385811660008181526006602090815260409182902080546001600160a01b031916888616908117909155825194861685529084019290925290917f758820d0b14a01c1fa60b8d2bbef25ed1b6a5af4802e5dec3f08679255ba8bf39101610b55565b606060006124ce8484600880549050613547565b9093509050826001600160401b038111156124eb576124eb614d08565b604051908082528060200260200182016040528015612514578160200160208202803683370190505b50915060005b838110156110af57600861252e82876153d0565b8154811061253e5761253e6153e8565b9060005260206000200160009054906101000a90046001600160a01b031683828151811061256e5761256e6153e8565b6001600160a01b039092166020928302919091019091015280612590816153fe565b91505061251a565b336000818152600460205260409020546001600160a01b03166125ce576040516372898ae960e11b815260040160405180910390fd5b600080543382526004602052604082206125f69161010090046001600160a01b03168561326d565b60405181815290915033907f882d5671e5b36af50883197c33d48ba56ce337589958e871ba82fb0a54adf3e89060200160405180910390a28015611e7f57611e7f600033836138e3565b6001600160a01b0380831660009081526004602052604090205483911661267a576040516372898ae960e11b815260040160405180910390fd5b336000818152600760205260409020546001600160a01b03166126b05760405163cf83d93d60e01b815260040160405180910390fd5b600060019054906101000a90046001600160a01b03166001600160a01b031663d4a536866040518163ffffffff1660e01b8152600401602060405180830381865afa158015612703573d6000803e3d6000fd5b505050506040513d601f19601f82011682018060405250810190612727919061538c565b1561274557604051631e59ccd960e01b815260040160405180910390fd5b600080546001600160a01b03868116835260046020908152604080852033865260079092528420612780939092610100909104169087613d85565b9050806127a057604051637bc90c0560e11b815260040160405180910390fd5b6127f83386600060019054906101000a90046001600160a01b03166001600160a01b031663900cf0cf6040518163ffffffff1660e01b8152600401602060405180830381865afa158015610d06573d6000803e3d6000fd5b6040518181526001600160a01b0386169033907fddd8e3ffe5c76cd1a7cca4b98662cb0a4e3da53ee24a873da632d28ba10438369060200160405180910390a35050505050565b6001600160a01b0383166000908152600760205260408120600681015460609283928392839291906128749089908990613547565b9097509150866001600160401b0381111561289157612891614d08565b6040519080825280602002602001820160405280156128ba578160200160208202803683370190505b509550866001600160401b038111156128d5576128d5614d08565b6040519080825280602002602001820160405280156128fe578160200160208202803683370190505b509450866001600160401b0381111561291957612919614d08565b604051908082528060200260200182016040528015612942578160200160208202803683370190505b509350866001600160401b0381111561295d5761295d614d08565b604051908082528060200260200182016040528015612986578160200160208202803683370190505b50925060005b87811015612aea576000600683016129a4838c6153d0565b815481106129b4576129b46153e8565b6000918252602090912060408051606081019091526003909202018054829060ff1660028111156129e7576129e76150a5565b60028111156129f8576129f86150a5565b81526020016001820154815260200160028201548152505090508060000151888381518110612a2957612a296153e8565b60200260200101906002811115612a4257612a426150a5565b90816002811115612a5557612a556150a5565b815250508060200151878381518110612a7057612a706153e8565b6020026020010181815250508060400151868381518110612a9357612a936153e8565b6020908102919091010152604081015115801590612ab5575080604001514210155b858381518110612ac757612ac76153e8565b911515602092830291909101909101525080612ae2816153fe565b91505061298c565b5050939792965093509350565b60008080808085612b7c57600060019054906101000a90046001600160a01b03166001600160a01b031663900cf0cf6040518163ffffffff1660e01b8152600401602060405180830381865afa158015612b55573d6000803e3d6000fd5b505050506040513d601f19601f82011682018060405250810190612b79919061535e565b95505b6001600160a01b03878116600090815260046020908152604080832060018101548b855260028201909352922054921696509060ff1660008881526003830160205260409020549015955060ff169350612bd6818861363d565b9150848015612be3575083155b8015612c64575060005460405163fcbb371b60e01b8152600481018990526101009091046001600160a01b03169063fcbb371b9060240161012060405180830381865afa158015612c38573d6000803e3d6000fd5b505050506040513d601f19601f82011682018060405250810190612c5c91906152e3565b60c001518210155b9250509295509295909350565b600080546001600160a01b038481168352600460209081526040808520888416865260079092528420612cae939092610100909104169085613dbe565b50949350505050565b604051634ee5a1b960e01b815260040160405180910390fd5b6001600160a01b03808316600090815260046020526040902054839116612d0a576040516372898ae960e11b815260040160405180910390fd5b336000818152600760205260409020546001600160a01b0316612d405760405163cf83d93d60e01b815260040160405180910390fd5b600080546001600160a01b03868116835260046020908152604080852033865260079092528420612d7b939092610100909104169087613d85565b604080516001600160a01b03881681526020810183905291925033917f2ef606d064225d24c1514dc94907c134faee1237445c2f63f410cce0852b2054910160405180910390a28015612dd457612dd4600033836138e3565b505050505050565b60088181548110611e9557600080fd5b336000818152600760205260409020546001600160a01b0316612e225760405163cf83d93d60e01b815260040160405180910390fd5b6000805433825260076020526040909120612e4a9161010090046001600160a01b0316613fc8565b5050565b6001600160a01b03808416600090815260046020526040902054849116612e88576040516372898ae960e11b815260040160405180910390fd5b336000818152600760205260409020546001600160a01b0316612ebe5760405163cf83d93d60e01b815260040160405180910390fd5b600060019054906101000a90046001600160a01b03166001600160a01b031663d4a536866040518163ffffffff1660e01b8152600401602060405180830381865afa158015612f11573d6000803e3d6000fd5b505050506040513d601f19601f82011682018060405250810190612f35919061538c565b15612f5357604051631e59ccd960e01b815260040160405180910390fd5b33600090815260076020908152604080832083546001600160a01b038a81168652600490945291909320612f91928492610100900416908888613fec565b935083612fb157604051637bc90c0560e11b815260040160405180910390fd5b806006016040518060600160405280876002811115612fd257612fd26150a5565b815260208101879052604001612feb42620d2f006153d0565b9052815460018181018455600093845260209093208251600390920201805492939092839160ff1990911690836002811115613029576130296150a5565b0217905550602082015181600101556040820151816002015550506130d56003600060019054906101000a90046001600160a01b03166001600160a01b031663900cf0cf6040518163ffffffff1660e01b8152600401602060405180830381865afa15801561309c573d6000803e3d6000fd5b505050506040513d601f19601f820116820180604052508101906130c0919061535e565b6130cb9060016153d0565b6002919087614122565b50600954604051635692619d60e11b81526001600160a01b0388811660048301529091169063ad24c33a90602401600060405180830381600087803b15801561311d57600080fd5b505af1158015613131573d6000803e3d6000fd5b50505060068201546001600160a01b038816915033907fb649014faa7a0e23357e091fb8a67a128c33dc9480f846f7e41cb3a6c9d806109061317590600190615419565b60405190815260200160405180910390a3505050505050565b60008281526009850160205260408120546131b757600083815260098601602052604090208290555b6000838152600a860160205260408120546131d39060016153d0565b6000858152600a88016020526040902081905560e0860151909150811080159061321f57506003860160006132098660016153d0565b815260208101919091526040016000205460ff16155b15612cae5761010085015161323490856153d0565b91505b81841015612cae5783613249816153fe565b60008181526003890160205260409020805460ff1916600117905594506132379050565b600080600061327d8686866133b4565b6006880155925050509392505050565b6001600160a01b03808616600090815260076020526040902080549091166133065780546001600160a01b0387166001600160a01b031991821681178355600880546001810182556000919091527ff3f7a9fe364faab93b216da50a3214154f22a0a2b415b23a84c8169e8b636ee30180549092161790555b6001600160a01b038516600090815260046020526040902061332d908290869086866141fd565b61333b6002600386856142c5565b600954604051635692619d60e11b81526001600160a01b0387811660048301529091169063ad24c33a90602401600060405180830381600087803b15801561338257600080fd5b505af1158015613396573d6000803e3d6000fd5b50505050505050505050565b6133af83838360006143ab565b505050565b6000808460060154905060006001856001600160a01b031663900cf0cf6040518163ffffffff1660e01b8152600401602060405180830381865afa158015613400573d6000803e3d6000fd5b505050506040513d601f19601f82011682018060405250810190613424919061535e565b61342e9190615419565b905083158061344557508061344383866153d0565b115b15613457576134548282615419565b93505b60005b8481101561353d5761346d6001846153d0565b60405163fcbb371b60e01b8152600481018290529093506000906001600160a01b0388169063fcbb371b9060240161012060405180830381865afa1580156134b9573d6000803e3d6000fd5b505050506040513d601f19601f820116820180604052508101906134dd91906152e3565b905060006134ec898387613650565b9050806134fa57505061352b565b60a082015161350a57505061352b565b61351c818360a0015160646019614431565b61352690876153d0565b955050505b80613535816153fe565b91505061345a565b5050935093915050565b6000808261355585876153d0565b10613567576135648584615419565b93505b8361357281876153d0565b91509150935093915050565b600061363485600201600085600281111561359b5761359b6150a5565b60028111156135ac576135ac6150a5565b81526020019081526020016000206000866001600160a01b03166001600160a01b03168152602001908152602001600020838760010160008760028111156135f6576135f66150a5565b6002811115613607576136076150a5565b8152602080820192909252604090810160009081206001600160a01b038b168252909252902091906137ca565b95945050505050565b600061157e6004840160058501846137ca565b600081815260028401602052604081205460ff168061367f5750600082815260038501602052604090205460ff165b1561368c5750600061157e565b6000613698858461363d565b9050604983106136d9578360c001518110156136b857600091505061157e565b629896806136c882610a34615676565b6136d29190615695565b9150613772565b806136e857600091505061157e565b6136f46019600a615793565b61370585608001516064601961445d565b61370f9083615676565b6137199190615695565b91508161372a57600091505061157e565b61374d846060015185604001516137419190615676565b6301e13380601961445d565b6137579083615676565b91506137656019600a615793565b61376f9083615695565b91505b6000838152600a8601602052604090205480156137b45760008481526009870160205260409020546137b0846137a88484615419565b836019614431565b9350505b50509392505050565b6133af83838360016143ab565b82546000908015806137f8575082856000815481106137eb576137eb6153e8565b9060005260206000200154115b1561380757600091505061157e565b8285613814600184615419565b81548110613824576138246153e8565b9060005260206000200154116138635783613840600183615419565b81548110613850576138506153e8565b906000526020600020015491505061157e565b6001811180156138995750828561387b600284615419565b8154811061388b5761388b6153e8565b906000526020600020015411155b156138aa5783613840600283615419565b60006138b98685600085614499565b90508481815481106138cd576138cd6153e8565b9060005260206000200154925050509392505050565b6000808460028111156138f8576138f86150a5565b1415613957576040516001600160a01b038416908390600081818185875af1925050503d8060008114613947576040519150601f19603f3d011682016040523d82523d6000602084013e61394c565b606091505b5050809150506139d9565b61396084614541565b60405163a9059cbb60e01b81526001600160a01b03858116600483015260248201859052919091169063a9059cbb906044015b6020604051808303816000875af11580156139b2573d6000803e3d6000fd5b505050506040513d601f19601f820116820180604052508101906139d6919061538c565b90505b80611e7f5783604051630db5347560e11b81526004016139f9919061579f565b60405180910390fd5b81546001600160a01b031615613a2a57604051621d934160e11b815260040160405180910390fd5b81546001600160a01b03191633178255612e4a8282613d0b565b6000836002811115613a5857613a586150a5565b1415613a7e578034146133af57604051630fe5b06560e11b815260040160405180910390fd5b3415613a9d5760405163a745ac8560e01b815260040160405180910390fd5b6000613aa884614541565b6040516323b872dd60e01b81526001600160a01b0385811660048301523060248301526044820185905291909116906323b872dd90606401613993565b600080846003016000846002811115613b0057613b006150a5565b6002811115613b1157613b116150a5565b8152602081019190915260400160002054905080613b3357600091505061157e565b6000846001600160a01b031663900cf0cf6040518163ffffffff1660e01b8152600401602060405180830381865afa158015613b73573d6000803e3d6000fd5b505050506040513d601f19601f82011682018060405250810190613b97919061535e565b90506000613ba6600184615419565b9050600081118015613c09575081876003016000876002811115613bcc57613bcc6150a5565b6002811115613bdd57613bdd6150a5565b81526020019081526020016000208281548110613bfc57613bfc6153e8565b9060005260206000200154115b15613c1c5780613c18816157ad565b9150505b81876003016000876002811115613c3557613c356150a5565b6002811115613c4657613c466150a5565b81526020019081526020016000208281548110613c6557613c656153e8565b90600052602060002001541115613c82576000935050505061157e565b6000805b828111613cff57886004016000886002811115613ca557613ca56150a5565b6002811115613cb657613cb66150a5565b81526020019081526020016000208181548110613cd557613cd56153e8565b906000526020600020015482613ceb91906153d0565b915080613cf7816153fe565b915050613c86565b50979650505050505050565b6001600160a01b038116613d3257604051637138356f60e01b815260040160405180910390fd5b81546001600160a01b0382811691161415613d605760405163e037058f60e01b815260040160405180910390fd5b60019190910180546001600160a01b0319166001600160a01b03909216919091179055565b6000806000613d9687878787613dbe565b86546001600160a01b0316600090815260058a01602052604090205592505050949350505050565b81546001600160a01b039081166000908152600586016020908152604080832054815163900cf0cf60e01b81529151939490938593600193928a169263900cf0cf92600480830193928290030181865afa158015613e20573d6000803e3d6000fd5b505050506040513d601f19601f82011682018060405250810190613e44919061535e565b613e4e9190615419565b9050831580613e65575080613e6383866153d0565b115b15613e7757613e748282615419565b93505b60005b84811015613fbd57613e8d6001846153d0565b8654909350600090613eac908a906001600160a01b031660028761357e565b8754613ec5908b906001600160a01b031660018861357e565b8854613ede908c906001600160a01b031660008961357e565b613ee891906153d0565b613ef291906153d0565b905080613eff5750613fab565b60405163fcbb371b60e01b815260048101859052600090613f78906001600160a01b038b169063fcbb371b9060240161012060405180830381865afa158015613f4c573d6000803e3d6000fd5b505050506040513d601f19601f82011682018060405250810190613f7091906152e3565b8990876145ac565b905080613f86575050613fab565b613f9c8183613f958b8961363d565b6019614431565b613fa690876153d0565b955050505b80613fb5816153fe565b915050613e7a565b505094509492505050565b613fd4828260016145f7565b613fe0828260026145f7565b612e4a828260006145f7565b6000614108866002016000856002811115614009576140096150a5565b600281111561401a5761401a6150a5565b81526020808201929092526040908101600090812088546001600160a01b03908116835290845290829020825163900cf0cf60e01b815292519093918a169263900cf0cf9260048083019391928290030181865afa158015614080573d6000803e3d6000fd5b505050506040513d601f19601f820116820180604052508101906140a4919061535e565b6140af9060016153d0565b848960010160008860028111156140c8576140c86150a5565b60028111156140d9576140d96150a5565b8152602080820192909252604090810160009081208b546001600160a01b031682529092529020929190614122565b91508161411757506000613634565b612cae84868461491d565b835460009080158061415957508561413b600183615419565b8154811061414b5761414b6153e8565b906000526020600020015484105b1561417757604051630eae4c9760e01b815260040160405180910390fd5b600061418487878761499d565b9050600086828154811061419a5761419a6153e8565b90600052602060002001549050808511156141b557806141b7565b845b945084156141f157848783815481106141d2576141d26153e8565b9060005260206000200160008282546141eb9190615419565b90915550505b50929695505050505050565b6142ac856002016000846002811115614218576142186150a5565b6002811115614229576142296150a5565b81526020808201929092526040908101600090812087546001600160a01b031682529092528120908690849060018a019087600281111561426c5761426c6150a5565b600281111561427d5761427d6150a5565b8152602080820192909252604090810160009081208a546001600160a01b0316825290925290209291906142c5565b8454610b5e90849086906001600160a01b031684614bad565b83546001811180156142fc5750846142de600183615419565b815481106142ee576142ee6153e8565b906000526020600020015483105b801561432d57508461430f600283615419565b8154811061431f5761431f6153e8565b906000526020600020015483105b1561434b57604051630eae4c9760e01b815260040160405180910390fd5b600061435886868661499d565b8654925090505b81811015612dd4578285828154811061437a5761437a6153e8565b90600052602060002001600082825461439391906153d0565b909155508190506143a3816153fe565b91505061435f565b815160005b81811015612dd45760008482815181106143cc576143cc6153e8565b6020026020010151905085811180156143fc5750600081815260028801602052604090205460ff16151584151514155b1561441e5760008181526002880160205260409020805460ff19168515151790555b5080614429816153fe565b9150506143b0565b600061443e82600a615793565b61444985858561445d565b6144539087615676565b6136349190615695565b60008061446b8360016153d0565b61447690600a615793565b6144809086615676565b9050600a61448e8583615695565b6144539060056153d0565b6000818314156144b5576144ae600183615419565b90506123eb565b600060026144c384866153d0565b6144cd9190615695565b9050848682815481106144e2576144e26153e8565b90600052602060002001541115614507576144ff86868684614499565b9150506123eb565b8486828154811061451a5761451a6153e8565b90600052602060002001541015613634576144ff868661453b8460016153d0565b86614499565b60006001826002811115614557576145576150a5565b141561456b57506001602960991b01919050565b600282600281111561457f5761457f6150a5565b141561459357506002602960991b01919050565b604051638698bf3760e01b815260040160405180910390fd5b6000806145ba858585613650565b9050806145cb57600091505061157e565b60a08401516145db57905061157e565b6145ed818560a0015160646019614431565b6136349082615419565b6000614604848484613ae5565b9050806146115750505050565b600084600301600084600281111561462b5761462b6150a5565b600281111561463c5761463c6150a5565b8152602001908152602001600020805490509050836001600160a01b031663900cf0cf6040518163ffffffff1660e01b8152600401602060405180830381865afa15801561468e573d6000803e3d6000fd5b505050506040513d601f19601f820116820180604052508101906146b2919061535e565b8560030160008560028111156146ca576146ca6150a5565b60028111156146db576146db6150a5565b81526020019081526020016000206001836146f69190615419565b81548110614706576147066153e8565b9060005260206000200154116147a15784600301600084600281111561472e5761472e6150a5565b600281111561473f5761473f6150a5565b815260200190815260200160002060006147599190614c2d565b846004016000846002811115614771576147716150a5565b6002811115614782576147826150a5565b8152602001908152602001600020600061479c9190614c2d565b614906565b60405180602001604052808660030160008660028111156147c4576147c46150a5565b60028111156147d5576147d56150a5565b81526020019081526020016000206001846147f09190615419565b81548110614800576148006153e8565b9060005260206000200154815250856003016000856002811115614826576148266150a5565b6002811115614837576148376150a5565b81526020810191909152604001600020614852916001614c4e565b506040518060200160405280866004016000866002811115614876576148766150a5565b6002811115614887576148876150a5565b81526020019081526020016000206001846148a29190615419565b815481106148b2576148b26153e8565b90600052602060002001548152508560040160008560028111156148d8576148d86150a5565b60028111156148e9576148e96150a5565b81526020810191909152604001600020614904916001614c4e565b505b8454610b5e9084906001600160a01b0316846138e3565b611e7f83600501836001600160a01b031663900cf0cf6040518163ffffffff1660e01b8152600401602060405180830381865afa158015614962573d6000803e3d6000fd5b505050506040513d601f19601f82011682018060405250810190614986919061535e565b6149919060016153d0565b60048601919084614122565b8254600090806149d857505082546001818101855560008581526020808220909301849055845491820185558481529182200181905561157e565b60006149e5600183615419565b905060008682815481106149fb576149fb6153e8565b9060005260206000200154905080851415614a1a5750915061157e9050565b80851115614a825786546001810188556000888152602090200185905585548690819084908110614a4d57614a4d6153e8565b6000918252602080832090910154835460018181018655948452919092200155614a789083906153d0565b935050505061157e565b600082118015614ab7575086614a99600184615419565b81548110614aa957614aa96153e8565b906000526020600020015485145b15614ac757614a78600183615419565b86878381548110614ada57614ada6153e8565b6000918252602080832090910154835460018101855593835291209091015585548690819084908110614b0f57614b0f6153e8565b6000918252602080832090910154835460018101855593835291209091015586548590889084908110614b4457614b446153e8565b6000918252602090912001558115614b825785614b62600184615419565b81548110614b7257614b726153e8565b9060005260206000200154614b85565b60005b868381548110614b9757614b976153e8565b60009182526020909120015550915061157e9050565b6001600160a01b038216600090815260088501602052604090205460ff16614c1b576001600160a01b038216600081815260088601602090815260408220805460ff191660019081179091556007880180549182018155835291200180546001600160a01b03191690911790555b611e7f600485016005860185846142c5565b5080546000825590600052602060002090810190614c4b9190614c99565b50565b828054828255906000526020600020908101928215614c89579160200282015b82811115614c89578251825591602001919060010190614c6e565b50614c95929150614c99565b5090565b5b80821115614c955760008155600101614c9a565b6001600160a01b0381168114614c4b57600080fd5b60008060408385031215614cd657600080fd5b8235614ce181614cae565b946020939093013593505050565b600060208284031215614d0157600080fd5b5035919050565b634e487b7160e01b600052604160045260246000fd5b60405161012081016001600160401b0381118282101715614d4157614d41614d08565b60405290565b604051601f8201601f191681016001600160401b0381118282101715614d6f57614d6f614d08565b604052919050565b60006001600160401b03821115614d9057614d90614d08565b5060051b60200190565b60008060408385031215614dad57600080fd5b8235614db881614cae565b91506020838101356001600160401b03811115614dd457600080fd5b8401601f81018613614de557600080fd5b8035614df8614df382614d77565b614d47565b81815260059190911b82018301908381019088831115614e1757600080fd5b928401925b82841015614e3557833582529284019290840190614e1c565b80955050505050509250929050565b60008060408385031215614e5757600080fd5b50508035926020909101359150565b600081518084526020808501945080840160005b83811015614e9f5781516001600160a01b031687529582019590820190600101614e7a565b509495945050505050565b604081526000614ebd6040830185614e66565b90508260208301529392505050565b60008060008060808587031215614ee257600080fd5b8435614eed81614cae565b966020860135965060408601359560600135945092505050565b600081518084526020808501945080840160005b83811015614e9f57815187529582019590820190600101614f1b565b60a081526000614f4a60a0830188614e66565b8281036020840152614f5c8188614f07565b90508281036040840152614f708187614f07565b90508281036060840152614f848186614f07565b9150508260808301529695505050505050565b60008060408385031215614faa57600080fd5b82356001600160401b03811115614fc057600080fd5b8301601f81018513614fd157600080fd5b80356020614fe1614df383614d77565b82815260059290921b8301810191818101908884111561500057600080fd5b938201935b8385101561502757843561501881614cae565b82529382019390820190615005565b98969091013596505050505050565b6060815260006150496060830186614e66565b828103602084015261505b8186614f07565b915050826040830152949350505050565b6000806040838503121561507f57600080fd5b823561508a81614cae565b9150602083013561509a81614cae565b809150509250929050565b634e487b7160e01b600052602160045260246000fd5b600381106150d957634e487b7160e01b600052602160045260246000fd5b9052565b608081016150eb82876150bb565b846020830152836040830152821515606083015295945050505050565b60006020828403121561511a57600080fd5b813561157e81614cae565b60008060006060848603121561513a57600080fd5b505081359360208301359350604090920135919050565b600081518084526020808501945080840160005b83811015614e9f578151151587529582019590820190600101615165565b60a08152600061519660a0830188614e66565b82810360208401526151a88188614e66565b905082810360408401526151bc8187614f07565b90508281036060840152614f848186615151565b6000806000606084860312156151e557600080fd5b83356151f081614cae565b925060208401356003811061520457600080fd5b929592945050506040919091013590565b60008060006060848603121561522a57600080fd5b833561523581614cae565b95602085013595506040909401359392505050565b60a0808252865190820181905260009060209060c0840190828a01845b8281101561528a5761527a8483516150bb565b9284019290840190600101615267565b5050508381038285015261529e8189614f07565b91505082810360408401526151bc8187614f07565b6000806000606084860312156152c857600080fd5b83356152d381614cae565b9250602084013561520481614cae565b600061012082840312156152f657600080fd5b6152fe614d1e565b825181526020830151602082015260408301516040820152606083015160608201526080830151608082015260a083015160a082015260c083015160c082015260e083015160e08201526101008084015181830152508091505092915050565b60006020828403121561537057600080fd5b5051919050565b8051801515811461538757600080fd5b919050565b60006020828403121561539e57600080fd5b61157e82615377565b60208152600061157e6020830184614f07565b634e487b7160e01b600052601160045260246000fd5b600082198211156153e3576153e36153ba565b500190565b634e487b7160e01b600052603260045260246000fd5b6000600019821415615412576154126153ba565b5060010190565b60008282101561542b5761542b6153ba565b500390565b600082601f83011261544157600080fd5b81516020615451614df383614d77565b82815260059290921b8401810191818101908684111561547057600080fd5b8286015b8481101561549457805161548781614cae565b8352918301918301615474565b509695505050505050565b600082601f8301126154b057600080fd5b815160206154c0614df383614d77565b82815260059290921b840181019181810190868411156154df57600080fd5b8286015b84811015615494576154f481615377565b83529183019183016154e3565b600082601f83011261551257600080fd5b81516020615522614df383614d77565b82815260059290921b8401810191818101908684111561554157600080fd5b8286015b848110156154945780518352918301918301615545565b600080600080600080600060e0888a03121561557757600080fd5b87516001600160401b038082111561558e57600080fd5b61559a8b838c01615430565b985060208a01519150808211156155b057600080fd5b6155bc8b838c01615430565b975060408a01519150808211156155d257600080fd5b6155de8b838c0161549f565b965060608a01519150808211156155f457600080fd5b6156008b838c0161549f565b955060808a015191508082111561561657600080fd5b6156228b838c01615501565b945060a08a015191508082111561563857600080fd5b506156458a828b0161549f565b92505060c0880151905092959891949750929550565b6040810161566982856150bb565b8260208301529392505050565b6000816000190483118215151615615690576156906153ba565b500290565b6000826156b257634e487b7160e01b600052601260045260246000fd5b500490565b600181815b808511156110af5781600019048211156156d8576156d86153ba565b808516156156e557918102915b93841c93908002906156bc565b60008261570157506001610fbb565b8161570e57506000610fbb565b8160018114615724576002811461572e5761574a565b6001915050610fbb565b60ff84111561573f5761573f6153ba565b50506001821b610fbb565b5060208310610133831016604e8410600b841016171561576d575081810a610fbb565b61577783836156b7565b806000190482111561578b5761578b6153ba565b029392505050565b600061157e83836156f2565b60208101610fbb82846150bb565b6000816157bc576157bc6153ba565b50600019019056fea2646970667358221220f5fb8565c8cf8597bba2b30e99ed30633ed54c15136c7555df2460bd2e37d60e64736f6c634300080c0033",
  "linkReferences": {},
  "deployedLinkReferences": {}
}