{
  "_format": "hh-sol-artifact-1",
  "contractName": "StakeManager",
  "sourceName": "contracts/StakeManager.sol",
  "abi": [
    {
      "inputs": [],
      "name": "AlreadyClaimed",
      "type": "error"
    },
    {
      "inputs": [],
      "name": "AlreadyInUse",
      "type": "error"
    },
    {
      "inputs": [],
      "name": "AlreadyInitialized",
      "type": "error"
    },
    {
      "inputs": [],
      "name": "AlreadyJoined",
      "type": "error"
    },
    {
      "inputs": [],
      "name": "AmountMismatched",
      "type": "error"
    },
    {
      "inputs": [],
      "name": "EmptyAddress",
      "type": "error"
    },
    {
      "inputs": [],
      "name": "Locked",
      "type": "error"
    },
    {
      "inputs": [],
      "name": "NoAmount",
      "type": "error"
    },
    {
      "inputs": [],
      "name": "NotZeroAmount",
      "type": "error"
    },
    {
      "inputs": [],
      "name": "ObsoletedMethod",
      "type": "error"
    },
    {
      "inputs": [],
      "name": "OnlyBlockProducer",
      "type": "error"
    },
    {
      "inputs": [],
      "name": "OnlyNotLastBlock",
      "type": "error"
    },
    {
      "inputs": [],
      "name": "PastEpoch",
      "type": "error"
    },
    {
      "inputs": [],
      "name": "SameAsOwner",
      "type": "error"
    },
    {
      "inputs": [],
      "name": "SameAsValidatorId",
      "type": "error"
    },
    {
      "inputs": [],
      "name": "StakerDoesNotExist",
      "type": "error"
    },
    {
      "inputs": [
        {
          "internalType": "enum Token.Type",
          "name": "token",
          "type": "uint8"
        }
      ],
      "name": "TransferFailed",
      "type": "error"
    },
    {
      "inputs": [],
      "name": "UnauthorizedSender",
      "type": "error"
    },
    {
      "inputs": [],
      "name": "UnknownToken",
      "type": "error"
    },
    {
      "inputs": [],
      "name": "ValidatorDoesNotExist",
      "type": "error"
    },
    {
      "anonymous": false,
      "inputs": [
        {
          "indexed": false,
          "internalType": "uint256",
          "name": "amount",
          "type": "uint256"
        }
      ],
      "name": "AddedRewardBalance",
      "type": "event"
    },
    {
      "anonymous": false,
      "inputs": [
        {
          "indexed": true,
          "internalType": "address",
          "name": "validator",
          "type": "address"
        },
        {
          "indexed": false,
          "internalType": "uint256",
          "name": "amount",
          "type": "uint256"
        }
      ],
      "name": "ClaimedCommissions",
      "type": "event"
    },
    {
      "anonymous": false,
      "inputs": [
        {
          "indexed": true,
          "internalType": "address",
          "name": "staker",
          "type": "address"
        },
        {
          "indexed": false,
          "internalType": "uint256",
          "name": "lockedUnstake",
          "type": "uint256"
        }
      ],
      "name": "ClaimedLockedUnstake",
      "type": "event"
    },
    {
      "anonymous": false,
      "inputs": [
        {
          "indexed": true,
          "internalType": "address",
          "name": "staker",
          "type": "address"
        },
        {
          "indexed": false,
          "internalType": "address",
          "name": "validator",
          "type": "address"
        },
        {
          "indexed": false,
          "internalType": "uint256",
          "name": "amount",
          "type": "uint256"
        }
      ],
      "name": "ClaimedRewards",
      "type": "event"
    },
    {
      "anonymous": false,
      "inputs": [
        {
          "indexed": true,
          "internalType": "address",
          "name": "validator",
          "type": "address"
        },
        {
          "indexed": false,
          "internalType": "address",
          "name": "oldOperator",
          "type": "address"
        },
        {
          "indexed": false,
          "internalType": "address",
          "name": "newOperator",
          "type": "address"
        }
      ],
      "name": "OperatorUpdated",
      "type": "event"
    },
    {
      "anonymous": false,
      "inputs": [
        {
          "indexed": true,
          "internalType": "address",
          "name": "staker",
          "type": "address"
        },
        {
          "indexed": true,
          "internalType": "address",
          "name": "validator",
          "type": "address"
        },
        {
          "indexed": false,
          "internalType": "uint256",
          "name": "amount",
          "type": "uint256"
        }
      ],
      "name": "ReStaked",
      "type": "event"
    },
    {
      "anonymous": false,
      "inputs": [
        {
          "indexed": true,
          "internalType": "address",
          "name": "staker",
          "type": "address"
        },
        {
          "indexed": true,
          "internalType": "address",
          "name": "validator",
          "type": "address"
        },
        {
          "indexed": false,
          "internalType": "enum Token.Type",
          "name": "token",
          "type": "uint8"
        },
        {
          "indexed": false,
          "internalType": "uint256",
          "name": "amount",
          "type": "uint256"
        }
      ],
      "name": "Staked",
      "type": "event"
    },
    {
      "anonymous": false,
      "inputs": [
        {
          "indexed": true,
          "internalType": "address",
          "name": "staker",
          "type": "address"
        },
        {
          "indexed": true,
          "internalType": "address",
          "name": "validator",
          "type": "address"
        },
        {
          "indexed": false,
          "internalType": "enum Token.Type",
          "name": "token",
          "type": "uint8"
        },
        {
          "indexed": false,
          "internalType": "uint256",
          "name": "amount",
          "type": "uint256"
        }
      ],
      "name": "Unstaked",
      "type": "event"
    },
    {
      "anonymous": false,
      "inputs": [
        {
          "indexed": true,
          "internalType": "address",
          "name": "staker",
          "type": "address"
        },
        {
          "indexed": true,
          "internalType": "address",
          "name": "validator",
          "type": "address"
        },
        {
          "indexed": false,
          "internalType": "uint256",
          "name": "lockedUnstake",
          "type": "uint256"
        }
      ],
      "name": "UnstakedV2",
      "type": "event"
    },
    {
      "anonymous": false,
      "inputs": [
        {
          "indexed": true,
          "internalType": "address",
          "name": "validator",
          "type": "address"
        },
        {
          "indexed": false,
          "internalType": "uint256[]",
          "name": "epochs",
          "type": "uint256[]"
        }
      ],
      "name": "ValidatorActivated",
      "type": "event"
    },
    {
      "anonymous": false,
      "inputs": [
        {
          "indexed": true,
          "internalType": "address",
          "name": "validator",
          "type": "address"
        },
        {
          "indexed": false,
          "internalType": "uint256[]",
          "name": "epochs",
          "type": "uint256[]"
        }
      ],
      "name": "ValidatorDeactivated",
      "type": "event"
    },
    {
      "anonymous": false,
      "inputs": [
        {
          "indexed": true,
          "internalType": "address",
          "name": "validator",
          "type": "address"
        },
        {
          "indexed": false,
          "internalType": "uint256",
          "name": "until",
          "type": "uint256"
        }
      ],
      "name": "ValidatorJailed",
      "type": "event"
    },
    {
      "anonymous": false,
      "inputs": [
        {
          "indexed": false,
          "internalType": "address",
          "name": "validator",
          "type": "address"
        }
      ],
      "name": "ValidatorJoined",
      "type": "event"
    },
    {
      "anonymous": false,
      "inputs": [
        {
          "indexed": true,
          "internalType": "address",
          "name": "validator",
          "type": "address"
        },
        {
          "indexed": true,
          "internalType": "address",
          "name": "oldOwner",
          "type": "address"
        },
        {
          "indexed": false,
          "internalType": "address",
          "name": "newOwner",
          "type": "address"
        }
      ],
      "name": "ValidatorOwnerUpdated",
      "type": "event"
    },
    {
      "anonymous": false,
      "inputs": [
        {
          "indexed": true,
          "internalType": "address",
          "name": "validator",
          "type": "address"
        }
      ],
      "name": "ValidatorSlashed",
      "type": "event"
    },
    {
      "inputs": [
        {
          "internalType": "address",
          "name": "validator",
          "type": "address"
        },
        {
          "internalType": "uint256[]",
          "name": "epochs",
          "type": "uint256[]"
        }
      ],
      "name": "activateValidator",
      "outputs": [],
      "stateMutability": "nonpayable",
      "type": "function"
    },
    {
      "inputs": [],
      "name": "addRewardBalance",
      "outputs": [],
      "stateMutability": "payable",
      "type": "function"
    },
    {
      "inputs": [],
      "name": "allowlist",
      "outputs": [
        {
          "internalType": "contract IAllowlist",
          "name": "",
          "type": "address"
        }
      ],
      "stateMutability": "view",
      "type": "function"
    },
    {
      "inputs": [],
      "name": "candidateManager",
      "outputs": [
        {
          "internalType": "contract ICandidateValidatorManager",
          "name": "",
          "type": "address"
        }
      ],
      "stateMutability": "view",
      "type": "function"
    },
    {
      "inputs": [
        {
          "internalType": "address",
          "name": "validator",
          "type": "address"
        },
        {
          "internalType": "uint256",
          "name": "epochs",
          "type": "uint256"
        }
      ],
      "name": "claimCommissions",
      "outputs": [],
      "stateMutability": "nonpayable",
      "type": "function"
    },
    {
      "inputs": [
        {
          "internalType": "uint256",
          "name": "lockedUnstake",
          "type": "uint256"
        }
      ],
      "name": "claimLockedUnstake",
      "outputs": [],
      "stateMutability": "nonpayable",
      "type": "function"
    },
    {
      "inputs": [
        {
          "internalType": "address",
          "name": "",
          "type": "address"
        },
        {
          "internalType": "address",
          "name": "validator",
          "type": "address"
        },
        {
          "internalType": "uint256",
          "name": "epochs",
          "type": "uint256"
        }
      ],
      "name": "claimRewards",
      "outputs": [],
      "stateMutability": "nonpayable",
      "type": "function"
    },
    {
      "inputs": [
        {
          "internalType": "address",
          "name": "",
          "type": "address"
        }
      ],
      "name": "claimUnstakes",
      "outputs": [],
      "stateMutability": "nonpayable",
      "type": "function"
    },
    {
      "inputs": [
        {
          "internalType": "address",
          "name": "validator",
          "type": "address"
        },
        {
          "internalType": "uint256[]",
          "name": "epochs",
          "type": "uint256[]"
        }
      ],
      "name": "deactivateValidator",
      "outputs": [],
      "stateMutability": "nonpayable",
      "type": "function"
    },
    {
      "inputs": [],
      "name": "environment",
      "outputs": [
        {
          "internalType": "contract IEnvironment",
          "name": "",
          "type": "address"
        }
      ],
      "stateMutability": "view",
      "type": "function"
    },
    {
      "inputs": [
        {
          "internalType": "address",
          "name": "validator",
          "type": "address"
        },
        {
          "internalType": "uint256",
          "name": "epoch",
          "type": "uint256"
        }
      ],
      "name": "getBlockAndSlashes",
      "outputs": [
        {
          "internalType": "uint256",
          "name": "blocks",
          "type": "uint256"
        },
        {
          "internalType": "uint256",
          "name": "slashes",
          "type": "uint256"
        }
      ],
      "stateMutability": "view",
      "type": "function"
    },
    {
      "inputs": [
        {
          "internalType": "address",
          "name": "validator",
          "type": "address"
        },
        {
          "internalType": "uint256",
          "name": "epochs",
          "type": "uint256"
        }
      ],
      "name": "getCommissions",
      "outputs": [
        {
          "internalType": "uint256",
          "name": "commissions",
          "type": "uint256"
        }
      ],
      "stateMutability": "view",
      "type": "function"
    },
    {
      "inputs": [
        {
          "internalType": "address",
          "name": "staker",
          "type": "address"
        },
        {
          "internalType": "uint256",
          "name": "lockedUnstake",
          "type": "uint256"
        }
      ],
      "name": "getLockedUnstake",
      "outputs": [
        {
          "internalType": "enum Token.Type",
          "name": "token",
          "type": "uint8"
        },
        {
          "internalType": "uint256",
          "name": "amount",
          "type": "uint256"
        },
        {
          "internalType": "uint256",
          "name": "unlockTime",
          "type": "uint256"
        },
        {
          "internalType": "bool",
          "name": "claimable",
          "type": "bool"
        }
      ],
      "stateMutability": "view",
      "type": "function"
    },
    {
      "inputs": [
        {
          "internalType": "address",
          "name": "staker",
          "type": "address"
        }
      ],
      "name": "getLockedUnstakeCount",
      "outputs": [
        {
          "internalType": "uint256",
          "name": "count",
          "type": "uint256"
        }
      ],
      "stateMutability": "view",
      "type": "function"
    },
    {
      "inputs": [
        {
          "internalType": "address",
          "name": "staker",
          "type": "address"
        },
        {
          "internalType": "uint256",
          "name": "cursor",
          "type": "uint256"
        },
        {
          "internalType": "uint256",
          "name": "howMany",
          "type": "uint256"
        }
      ],
      "name": "getLockedUnstakes",
      "outputs": [
        {
          "internalType": "enum Token.Type[]",
          "name": "tokens",
          "type": "uint8[]"
        },
        {
          "internalType": "uint256[]",
          "name": "amounts",
          "type": "uint256[]"
        },
        {
          "internalType": "uint256[]",
          "name": "unlockTimes",
          "type": "uint256[]"
        },
        {
          "internalType": "bool[]",
          "name": "claimable",
          "type": "bool[]"
        },
        {
          "internalType": "uint256",
          "name": "newCursor",
          "type": "uint256"
        }
      ],
      "stateMutability": "view",
      "type": "function"
    },
    {
      "inputs": [
        {
          "internalType": "address",
          "name": "operator",
          "type": "address"
        },
        {
          "internalType": "uint256",
          "name": "epoch",
          "type": "uint256"
        }
      ],
      "name": "getOperatorStakes",
      "outputs": [
        {
          "internalType": "uint256",
          "name": "stakes",
          "type": "uint256"
        }
      ],
      "stateMutability": "view",
      "type": "function"
    },
    {
      "inputs": [
        {
          "internalType": "address",
          "name": "staker",
          "type": "address"
        },
        {
          "internalType": "address",
          "name": "validator",
          "type": "address"
        },
        {
          "internalType": "uint256",
          "name": "epochs",
          "type": "uint256"
        }
      ],
      "name": "getRewards",
      "outputs": [
        {
          "internalType": "uint256",
          "name": "rewards",
          "type": "uint256"
        }
      ],
      "stateMutability": "view",
      "type": "function"
    },
    {
      "inputs": [
        {
          "internalType": "address",
          "name": "staker",
          "type": "address"
        },
        {
          "internalType": "uint256",
          "name": "epoch",
          "type": "uint256"
        },
        {
          "internalType": "uint256",
          "name": "cursor",
          "type": "uint256"
        },
        {
          "internalType": "uint256",
          "name": "howMany",
          "type": "uint256"
        }
      ],
      "name": "getStakerStakes",
      "outputs": [
        {
          "internalType": "address[]",
          "name": "_validators",
          "type": "address[]"
        },
        {
          "internalType": "uint256[]",
          "name": "oasStakes",
          "type": "uint256[]"
        },
        {
          "internalType": "uint256[]",
          "name": "woasStakes",
          "type": "uint256[]"
        },
        {
          "internalType": "uint256[]",
          "name": "soasStakes",
          "type": "uint256[]"
        },
        {
          "internalType": "uint256",
          "name": "newCursor",
          "type": "uint256"
        }
      ],
      "stateMutability": "view",
      "type": "function"
    },
    {
      "inputs": [
        {
          "internalType": "uint256",
          "name": "cursor",
          "type": "uint256"
        },
        {
          "internalType": "uint256",
          "name": "howMany",
          "type": "uint256"
        }
      ],
      "name": "getStakers",
      "outputs": [
        {
          "internalType": "address[]",
          "name": "_stakers",
          "type": "address[]"
        },
        {
          "internalType": "uint256",
          "name": "newCursor",
          "type": "uint256"
        }
      ],
      "stateMutability": "view",
      "type": "function"
    },
    {
      "inputs": [
        {
          "internalType": "address[]",
          "name": "_validators",
          "type": "address[]"
        },
        {
          "internalType": "uint256",
          "name": "epochs",
          "type": "uint256"
        }
      ],
      "name": "getTotalRewards",
      "outputs": [
        {
          "internalType": "uint256",
          "name": "rewards",
          "type": "uint256"
        }
      ],
      "stateMutability": "view",
      "type": "function"
    },
    {
      "inputs": [
        {
          "internalType": "uint256",
          "name": "epoch",
          "type": "uint256"
        }
      ],
      "name": "getTotalStake",
      "outputs": [
        {
          "internalType": "uint256",
          "name": "amounts",
          "type": "uint256"
        }
      ],
      "stateMutability": "view",
      "type": "function"
    },
    {
      "inputs": [
        {
          "internalType": "address",
          "name": "staker",
          "type": "address"
        }
      ],
      "name": "getUnstakes",
      "outputs": [
        {
          "internalType": "uint256",
          "name": "oasUnstakes",
          "type": "uint256"
        },
        {
          "internalType": "uint256",
          "name": "woasUnstakes",
          "type": "uint256"
        },
        {
          "internalType": "uint256",
          "name": "soasUnstakes",
          "type": "uint256"
        }
      ],
      "stateMutability": "view",
      "type": "function"
    },
    {
      "inputs": [
        {
          "internalType": "address",
          "name": "validator",
          "type": "address"
        },
        {
          "internalType": "uint256",
          "name": "epoch",
          "type": "uint256"
        }
      ],
      "name": "getValidatorInfo",
      "outputs": [
        {
          "internalType": "address",
          "name": "operator",
          "type": "address"
        },
        {
          "internalType": "bool",
          "name": "active",
          "type": "bool"
        },
        {
          "internalType": "bool",
          "name": "jailed",
          "type": "bool"
        },
        {
          "internalType": "bool",
          "name": "candidate",
          "type": "bool"
        },
        {
          "internalType": "uint256",
          "name": "stakes",
          "type": "uint256"
        }
      ],
      "stateMutability": "view",
      "type": "function"
    },
    {
      "inputs": [
        {
          "internalType": "uint256",
          "name": "cursor",
          "type": "uint256"
        },
        {
          "internalType": "uint256",
          "name": "howMany",
          "type": "uint256"
        }
      ],
      "name": "getValidatorOwners",
      "outputs": [
        {
          "internalType": "address[]",
          "name": "owners",
          "type": "address[]"
        },
        {
          "internalType": "uint256",
          "name": "newCursor",
          "type": "uint256"
        }
      ],
      "stateMutability": "view",
      "type": "function"
    },
    {
      "inputs": [
        {
          "internalType": "address",
          "name": "validator",
          "type": "address"
        },
        {
          "internalType": "uint256",
          "name": "epoch",
          "type": "uint256"
        }
      ],
      "name": "getValidatorStakes",
      "outputs": [
        {
          "internalType": "uint256",
          "name": "stakes",
          "type": "uint256"
        }
      ],
      "stateMutability": "view",
      "type": "function"
    },
    {
      "inputs": [
        {
          "internalType": "address",
          "name": "validator",
          "type": "address"
        },
        {
          "internalType": "uint256",
          "name": "epoch",
          "type": "uint256"
        },
        {
          "internalType": "uint256",
          "name": "cursor",
          "type": "uint256"
        },
        {
          "internalType": "uint256",
          "name": "howMany",
          "type": "uint256"
        }
      ],
      "name": "getValidatorStakes",
      "outputs": [
        {
          "internalType": "address[]",
          "name": "_stakers",
          "type": "address[]"
        },
        {
          "internalType": "uint256[]",
          "name": "stakes",
          "type": "uint256[]"
        },
        {
          "internalType": "uint256",
          "name": "newCursor",
          "type": "uint256"
        }
      ],
      "stateMutability": "view",
      "type": "function"
    },
    {
      "inputs": [
        {
          "internalType": "uint256",
          "name": "epoch",
          "type": "uint256"
        },
        {
          "internalType": "uint256",
          "name": "cursor",
          "type": "uint256"
        },
        {
          "internalType": "uint256",
          "name": "howMany",
          "type": "uint256"
        }
      ],
      "name": "getValidators",
      "outputs": [
        {
          "internalType": "address[]",
          "name": "owners",
          "type": "address[]"
        },
        {
          "internalType": "address[]",
          "name": "operators",
          "type": "address[]"
        },
        {
          "internalType": "uint256[]",
          "name": "stakes",
          "type": "uint256[]"
        },
        {
          "internalType": "bool[]",
          "name": "candidates",
          "type": "bool[]"
        },
        {
          "internalType": "uint256",
          "name": "newCursor",
          "type": "uint256"
        }
      ],
      "stateMutability": "view",
      "type": "function"
    },
    {
      "inputs": [
        {
          "internalType": "contract IEnvironment",
          "name": "_environment",
          "type": "address"
        },
        {
          "internalType": "contract IAllowlist",
          "name": "_allowlist",
          "type": "address"
        }
      ],
      "name": "initialize",
      "outputs": [],
      "stateMutability": "nonpayable",
      "type": "function"
    },
    {
      "inputs": [],
      "name": "initialized",
      "outputs": [
        {
          "internalType": "bool",
          "name": "",
          "type": "bool"
        }
      ],
      "stateMutability": "view",
      "type": "function"
    },
    {
      "inputs": [
        {
          "internalType": "address",
          "name": "operator",
          "type": "address"
        }
      ],
      "name": "joinValidator",
      "outputs": [],
      "stateMutability": "nonpayable",
      "type": "function"
    },
    {
      "inputs": [
        {
          "internalType": "address",
          "name": "",
          "type": "address"
        }
      ],
      "name": "operatorToOwner",
      "outputs": [
        {
          "internalType": "address",
          "name": "",
          "type": "address"
        }
      ],
      "stateMutability": "view",
      "type": "function"
    },
    {
      "inputs": [
        {
          "internalType": "uint256",
          "name": "epochs",
          "type": "uint256"
        }
      ],
      "name": "restakeCommissions",
      "outputs": [],
      "stateMutability": "nonpayable",
      "type": "function"
    },
    {
      "inputs": [
        {
          "internalType": "address",
          "name": "validator",
          "type": "address"
        },
        {
          "internalType": "uint256",
          "name": "epochs",
          "type": "uint256"
        }
      ],
      "name": "restakeCommissionsV2",
      "outputs": [],
      "stateMutability": "nonpayable",
      "type": "function"
    },
    {
      "inputs": [
        {
          "internalType": "address",
          "name": "validator",
          "type": "address"
        },
        {
          "internalType": "uint256",
          "name": "epochs",
          "type": "uint256"
        }
      ],
      "name": "restakeRewards",
      "outputs": [],
      "stateMutability": "nonpayable",
      "type": "function"
    },
    {
      "inputs": [
        {
          "internalType": "address",
          "name": "operator",
          "type": "address"
        },
        {
          "internalType": "uint256",
          "name": "blocks",
          "type": "uint256"
        }
      ],
      "name": "slash",
      "outputs": [],
      "stateMutability": "nonpayable",
      "type": "function"
    },
    {
      "inputs": [
        {
          "internalType": "address",
          "name": "validator",
          "type": "address"
        },
        {
          "internalType": "enum Token.Type",
          "name": "token",
          "type": "uint8"
        },
        {
          "internalType": "uint256",
          "name": "amount",
          "type": "uint256"
        }
      ],
      "name": "stake",
      "outputs": [],
      "stateMutability": "payable",
      "type": "function"
    },
    {
      "inputs": [
        {
          "internalType": "uint256",
          "name": "",
          "type": "uint256"
        }
      ],
      "name": "stakeAmounts",
      "outputs": [
        {
          "internalType": "uint256",
          "name": "",
          "type": "uint256"
        }
      ],
      "stateMutability": "view",
      "type": "function"
    },
    {
      "inputs": [
        {
          "internalType": "uint256",
          "name": "",
          "type": "uint256"
        }
      ],
      "name": "stakeUpdates",
      "outputs": [
        {
          "internalType": "uint256",
          "name": "",
          "type": "uint256"
        }
      ],
      "stateMutability": "view",
      "type": "function"
    },
    {
      "inputs": [
        {
          "internalType": "uint256",
          "name": "",
          "type": "uint256"
        }
      ],
      "name": "stakerSigners",
      "outputs": [
        {
          "internalType": "address",
          "name": "",
          "type": "address"
        }
      ],
      "stateMutability": "view",
      "type": "function"
    },
    {
      "inputs": [
        {
          "internalType": "address",
          "name": "",
          "type": "address"
        }
      ],
      "name": "stakers",
      "outputs": [
        {
          "internalType": "address",
          "name": "signer",
          "type": "address"
        }
      ],
      "stateMutability": "view",
      "type": "function"
    },
    {
      "inputs": [
        {
          "internalType": "address",
          "name": "",
          "type": "address"
        },
        {
          "internalType": "enum Token.Type",
          "name": "",
          "type": "uint8"
        },
        {
          "internalType": "uint256",
          "name": "",
          "type": "uint256"
        }
      ],
      "name": "unstake",
      "outputs": [],
      "stateMutability": "nonpayable",
      "type": "function"
    },
    {
      "inputs": [
        {
          "internalType": "address",
          "name": "validator",
          "type": "address"
        },
        {
          "internalType": "enum Token.Type",
          "name": "token",
          "type": "uint8"
        },
        {
          "internalType": "uint256",
          "name": "amount",
          "type": "uint256"
        }
      ],
      "name": "unstakeV2",
      "outputs": [],
      "stateMutability": "nonpayable",
      "type": "function"
    },
    {
      "inputs": [
        {
          "internalType": "address",
          "name": "operator",
          "type": "address"
        }
      ],
      "name": "updateOperator",
      "outputs": [],
      "stateMutability": "nonpayable",
      "type": "function"
    },
    {
      "inputs": [
        {
          "internalType": "address",
          "name": "validator_",
          "type": "address"
        },
        {
          "internalType": "address",
          "name": "newOwner",
          "type": "address"
        }
      ],
      "name": "updateValidatorOwner",
      "outputs": [],
      "stateMutability": "nonpayable",
      "type": "function"
    },
    {
      "inputs": [
        {
          "internalType": "uint256",
          "name": "",
          "type": "uint256"
        }
      ],
      "name": "validatorOwners",
      "outputs": [
        {
          "internalType": "address",
          "name": "",
          "type": "address"
        }
      ],
      "stateMutability": "view",
      "type": "function"
    },
    {
      "inputs": [
        {
          "internalType": "address",
          "name": "",
          "type": "address"
        }
      ],
      "name": "validators",
      "outputs": [
        {
          "internalType": "address",
          "name": "id",
          "type": "address"
        },
        {
          "internalType": "address",
          "name": "operator",
          "type": "address"
        },
        {
          "internalType": "uint256",
          "name": "lastClaimCommission",
          "type": "uint256"
        },
        {
          "internalType": "address",
          "name": "owner",
          "type": "address"
        }
      ],
      "stateMutability": "view",
      "type": "function"
    }
  ],
  "bytecode": "0x608060405234801561001057600080fd5b50615ca280620000216000396000f3fe60806040526004361061027d5760003560e01c806374e2b63c1161014f578063cbc0fac6116100c1578063e1aca3411161007a578063e1aca341146108a6578063f3621e43146108c6578063f65a5ed2146108e6578063f8d6b1ab14610906578063fa52c7d814610926578063ff3d3f60146109a457600080fd5b8063cbc0fac614610784578063cf5c13db146107a4578063d0051adf146107c4578063d1f18ee1146107f5578063dbd61d871461084d578063df93c8421461086d57600080fd5b80639168ae72116101135780639168ae72146106ae5780639c508219146106e4578063a6a41f4414610704578063ac7475ed14610724578063ad71bd3614610744578063c2ed1b671461076457600080fd5b806374e2b63c146105fd5780637b520aa8146106225780637befa74f14610658578063883252341461066b5780639043150b146106a657600080fd5b80632ee462b3116101f35780635c4fc4c5116101ac5780635c4fc4c51461051c5780635d94ccf61461054c5780635e4afedd1461056c5780635efc766e1461058c5780636b2b3369146105ac57806372431991146105cc57600080fd5b80632ee462b31461044d57806333f32d781461046d578063428e85621461048d57806345367f23146104ad57806346dfce7b146104cd578063485cc955146104fc57600080fd5b8063195afea111610245578063195afea1146103415780631c1b4f3a146103615780632168e8b41461038157806322226367146103af5780632b42ed8c146103e45780632b47da521461041557600080fd5b806302fb4d85146102825780630ddda63c146102a4578063158ef93e146102c45780631903cf16146102f3578063190b925714610313575b600080fd5b34801561028e57600080fd5b506102a261029d36600461516b565b6109c4565b005b3480156102b057600080fd5b506102a26102bf366004615197565b610bca565b3480156102d057600080fd5b506000546102de9060ff1681565b60405190151581526020015b60405180910390f35b3480156102ff57600080fd5b506102a261030e366004615242565b610dd5565b34801561031f57600080fd5b5061033361032e366004615197565b610fe5565b6040519081526020016102ea565b34801561034d57600080fd5b5061033361035c36600461516b565b611006565b34801561036d57600080fd5b5061033361037c366004615197565b61103d565b34801561038d57600080fd5b506103a161039c3660046152ec565b61104d565b6040516102ea929190615352565b3480156103bb57600080fd5b506103cf6103ca36600461516b565b611133565b604080519283526020830191909152016102ea565b3480156103f057600080fd5b506104046103ff366004615374565b611201565b6040516102ea9594939291906153df565b34801561042157600080fd5b50600154610435906001600160a01b031681565b6040516001600160a01b0390911681526020016102ea565b34801561045957600080fd5b5061033361046836600461516b565b61154e565b34801561047957600080fd5b5061033361048836600461543f565b611601565b34801561049957600080fd5b506102a26104a8366004615242565b6117c0565b3480156104b957600080fd5b506103336104c8366004615197565b6119d0565b3480156104d957600080fd5b506104ed6104e8366004615374565b611a66565b6040516102ea939291906154de565b34801561050857600080fd5b506102a2610517366004615514565b611cc3565b34801561052857600080fd5b5061053c61053736600461516b565b611d42565b6040516102ea9493929190615585565b34801561055857600080fd5b506102a2610567366004615197565b611e0e565b34801561057857600080fd5b506102a261058736600461516b565b611f18565b34801561059857600080fd5b506104356105a7366004615197565b61209e565b3480156105b857600080fd5b506102a26105c73660046155b0565b6120c8565b3480156105d857600080fd5b506105ec6105e73660046155cd565b6121c1565b6040516102ea95949392919061562b565b34801561060957600080fd5b506000546104359061010090046001600160a01b031681565b34801561062e57600080fd5b5061043561063d3660046155b0565b6006602052600090815260409020546001600160a01b031681565b6102a2610666366004615678565b612261565b34801561067757600080fd5b5061068b6106863660046155b0565b61242c565b604080519384526020840192909252908201526060016102ea565b6102a26124ac565b3480156106ba57600080fd5b506104356106c93660046155b0565b6007602052600090815260409020546001600160a01b031681565b3480156106f057600080fd5b506103336106ff36600461516b565b6124e1565b34801561071057600080fd5b50600954610435906001600160a01b031681565b34801561073057600080fd5b506102a261073f3660046155b0565b6125bd565b34801561075057600080fd5b506103a161075f3660046152ec565b6126c3565b34801561077057600080fd5b506102a261077f366004615514565b6127a1565b34801561079057600080fd5b506102a261079f36600461516b565b612920565b3480156107b057600080fd5b506102a26107bf36600461516b565b6129e3565b3480156107d057600080fd5b506107e46107df3660046156bd565b612be2565b6040516102ea9594939291906156f2565b34801561080157600080fd5b5061081561081036600461516b565b612e9a565b604080516001600160a01b0390961686529315156020860152911515928401929092529015156060830152608082015260a0016102ea565b34801561085957600080fd5b5061033361086836600461575b565b613014565b34801561087957600080fd5b506103336108883660046155b0565b6001600160a01b031660009081526007602052604090206006015490565b3480156108b257600080fd5b506102a26108c1366004615678565b61305a565b3480156108d257600080fd5b506102a26108e136600461575b565b613073565b3480156108f257600080fd5b50610435610901366004615197565b61317f565b34801561091257600080fd5b506102a26109213660046155b0565b61318f565b34801561093257600080fd5b506109756109413660046155b0565b6004602052600090815260409020805460018201546006830154600b909301546001600160a01b0392831693918316921684565b604080516001600160a01b039586168152938516602085015283019190915290911660608201526080016102ea565b3480156109b057600080fd5b506102a26109bf366004615678565b6131f1565b6001600160a01b038083166000908152600660209081526040808320548416808452600490925290912054909116610a0f576040516372898ae960e11b815260040160405180910390fd5b334114610a2f57604051631cf4735960e01b815260040160405180910390fd5b6001600160a01b038084166000908152600660209081526040808320548416835260049182905280832083548251633fa4f24560e01b815292519195610b42946101009092041692633fa4f2459281830192610120928290030181865afa158015610a9e573d6000803e3d6000fd5b505050506040513d601f19601f82011682018060405250810190610ac2919061578b565b600060019054906101000a90046001600160a01b03166001600160a01b031663900cf0cf6040518163ffffffff1660e01b8152600401602060405180830381865afa158015610b15573d6000803e3d6000fd5b505050506040513d601f19601f82011682018060405250810190610b399190615806565b84919087613526565b82546040519192506001600160a01b0316907f1647efd0ce9727dc31dc201c9d8d35ac687f7370adcacbd454afc6485ddabfda90600090a28015610bc35781546040518281526001600160a01b03909116907feb7d7a49847ec491969db21a0e31b234565a9923145a2d1b56a75c9e95825802906020015b60405180910390a25b5050505050565b336000818152600460205260409020546001600160a01b0316610c00576040516372898ae960e11b815260040160405180910390fd5b336000818152600760205260409020546001600160a01b0316610c365760405163cf83d93d60e01b815260040160405180910390fd5b600060019054906101000a90046001600160a01b03166001600160a01b031663d4a536866040518163ffffffff1660e01b8152600401602060405180830381865afa158015610c89573d6000803e3d6000fd5b505050506040513d601f19601f82011682018060405250810190610cad9190615834565b15610ccb57604051631e59ccd960e01b815260040160405180910390fd5b60008054338252600460205260408220610cf39161010090046001600160a01b031686613605565b905080610d1357604051637bc90c0560e11b815260040160405180910390fd5b610d973333600060019054906101000a90046001600160a01b03166001600160a01b031663900cf0cf6040518163ffffffff1660e01b8152600401602060405180830381865afa158015610d6b573d6000803e3d6000fd5b505050506040513d601f19601f82011682018060405250810190610d8f9190615806565b600085613625565b604051818152339081907fddd8e3ffe5c76cd1a7cca4b98662cb0a4e3da53ee24a873da632d28ba1043836906020015b60405180910390a350505050565b6001600160a01b03821660009081526004602052604090208290610df88161373a565b6001600160a01b0316336001600160a01b031614158015610e26575060018101546001600160a01b03163314155b15610e4457604051630101292160e31b815260040160405180910390fd5b6001600160a01b03808516600090815260046020526040902054859116610e7e576040516372898ae960e11b815260040160405180910390fd5b600060019054906101000a90046001600160a01b03166001600160a01b031663d4a536866040518163ffffffff1660e01b8152600401602060405180830381865afa158015610ed1573d6000803e3d6000fd5b505050506040513d601f19601f82011682018060405250810190610ef59190615834565b15610f1357604051631e59ccd960e01b815260040160405180910390fd5b610fac600060019054906101000a90046001600160a01b03166001600160a01b031663900cf0cf6040518163ffffffff1660e01b8152600401602060405180830381865afa158015610f69573d6000803e3d6000fd5b505050506040513d601f19601f82011682018060405250810190610f8d9190615806565b6001600160a01b0387166000908152600460205260409020908661376e565b846001600160a01b03167fc11dfc9c24621433bb10587dc4bbae26a33a4aff53914e0d4c9fddf224a8cb7d85604051610bba919061584f565b60028181548110610ff557600080fd5b600091825260209091200154905081565b600080546001600160a01b0384811683526004602052604083206110339290916101009091041684613780565b5090505b92915050565b60038181548110610ff557600080fd5b606060006110618484600580549050613913565b9093509050826001600160401b0381111561107e5761107e6151b0565b6040519080825280602002602001820160405280156110a7578160200160208202803683370190505b50915060005b8381101561112b5760056110c18287615878565b815481106110d1576110d1615890565b9060005260206000200160009054906101000a90046001600160a01b031683828151811061110157611101615890565b6001600160a01b039092166020928302919091019091015280611123816158a6565b9150506110ad565b509250929050565b6000806111f6600084116111bd57600060019054906101000a90046001600160a01b03166001600160a01b031663900cf0cf6040518163ffffffff1660e01b8152600401602060405180830381865afa158015611194573d6000803e3d6000fd5b505050506040513d601f19601f820116820180604052508101906111b89190615806565b6111bf565b835b6001600160a01b038616600090815260046020908152604080832093835260098401825280832054600a9094019091529020549091565b909590945092505050565b6001600160a01b0384166000908152600760205260408120606091829182918291886112a357600060019054906101000a90046001600160a01b03166001600160a01b031663900cf0cf6040518163ffffffff1660e01b8152600401602060405180830381865afa15801561127a573d6000803e3d6000fd5b505050506040513d601f19601f8201168201806040525081019061129e9190615806565b6112a5565b885b98506112b78888600580549050613913565b9097509150866001600160401b038111156112d4576112d46151b0565b6040519080825280602002602001820160405280156112fd578160200160208202803683370190505b509550866001600160401b03811115611318576113186151b0565b604051908082528060200260200182016040528015611341578160200160208202803683370190505b509450866001600160401b0381111561135c5761135c6151b0565b604051908082528060200260200182016040528015611385578160200160208202803683370190505b509350866001600160401b038111156113a0576113a06151b0565b6040519080825280602002602001820160405280156113c9578160200160208202803683370190505b50925060005b878110156115415760056113e3828b615878565b815481106113f3576113f3615890565b9060005260206000200160009054906101000a90046001600160a01b031687828151811061142357611423615890565b60200260200101906001600160a01b031690816001600160a01b03168152505061147487828151811061145857611458615890565b602002602001015160008c8561394a909392919063ffffffff16565b86828151811061148657611486615890565b6020026020010181815250506114c38782815181106114a7576114a7615890565b602002602001015160018c8561394a909392919063ffffffff16565b8582815181106114d5576114d5615890565b6020026020010181815250506115128782815181106114f6576114f6615890565b602002602001015160028c8561394a909392919063ffffffff16565b84828151811061152457611524615890565b602090810291909101015280611539816158a6565b9150506113cf565b5050945094509450945094565b60008082116115d357600060019054906101000a90046001600160a01b03166001600160a01b031663900cf0cf6040518163ffffffff1660e01b8152600401602060405180830381865afa1580156115aa573d6000803e3d6000fd5b505050506040513d601f19601f820116820180604052508101906115ce9190615806565b6115d5565b815b6001600160a01b03841660009081526004602052604090209092506115fa9083613a09565b9392505050565b600080600183600060019054906101000a90046001600160a01b03166001600160a01b031663900cf0cf6040518163ffffffff1660e01b8152600401602060405180830381865afa15801561165a573d6000803e3d6000fd5b505050506040513d601f19601f8201168201806040525081019061167e9190615806565b61168891906158c1565b61169291906158c1565b845190915060005b848110156117b7576116ad600184615878565b6000805460405163fcbb371b60e01b81526004810184905292955090916101009091046001600160a01b03169063fcbb371b9060240161012060405180830381865afa158015611701573d6000803e3d6000fd5b505050506040513d601f19601f82011682018060405250810190611725919061578b565b905060005b838110156117a2576117848286600460008c868151811061174d5761174d615890565b60200260200101516001600160a01b03166001600160a01b03168152602001908152602001600020613a1c9092919063ffffffff16565b61178e9087615878565b95508061179a816158a6565b91505061172a565b505080806117af906158a6565b91505061169a565b50505092915050565b6001600160a01b038216600090815260046020526040902082906117e38161373a565b6001600160a01b0316336001600160a01b031614158015611811575060018101546001600160a01b03163314155b1561182f57604051630101292160e31b815260040160405180910390fd5b6001600160a01b03808516600090815260046020526040902054859116611869576040516372898ae960e11b815260040160405180910390fd5b600060019054906101000a90046001600160a01b03166001600160a01b031663d4a536866040518163ffffffff1660e01b8152600401602060405180830381865afa1580156118bc573d6000803e3d6000fd5b505050506040513d601f19601f820116820180604052508101906118e09190615834565b156118fe57604051631e59ccd960e01b815260040160405180910390fd5b611997600060019054906101000a90046001600160a01b03166001600160a01b031663900cf0cf6040518163ffffffff1660e01b8152600401602060405180830381865afa158015611954573d6000803e3d6000fd5b505050506040513d601f19601f820116820180604052508101906119789190615806565b6001600160a01b03871660009081526004602052604090209086613b89565b846001600160a01b03167f0ad9bf1b8c026a174a2f30954417002a6ea00c9b08c1b8846c7951c687be809585604051610bba919061584f565b6000808211611a5557600060019054906101000a90046001600160a01b03166001600160a01b031663900cf0cf6040518163ffffffff1660e01b8152600401602060405180830381865afa158015611a2c573d6000803e3d6000fd5b505050506040513d601f19601f82011682018060405250810190611a509190615806565b611a57565b815b91506110376002600384613b96565b6001600160a01b0384166000908152600460205260408120606091829186611b0457600060019054906101000a90046001600160a01b03166001600160a01b031663900cf0cf6040518163ffffffff1660e01b8152600401602060405180830381865afa158015611adb573d6000803e3d6000fd5b505050506040513d601f19601f82011682018060405250810190611aff9190615806565b611b06565b865b9650611b1a86868360070180549050613913565b9095509150846001600160401b03811115611b3757611b376151b0565b604051908082528060200260200182016040528015611b60578160200160208202803683370190505b509350846001600160401b03811115611b7b57611b7b6151b0565b604051908082528060200260200182016040528015611ba4578160200160208202803683370190505b50925060005b85811015611cb7576000600781848201611bc4858c615878565b81548110611bd457611bd4615890565b60009182526020808320909101546001600160a01b03908116845290830193909352604090910190208054885191935090911690879084908110611c1a57611c1a615890565b6001600160a01b0392831660209182029290920101528354611c419183911660028c61394a565b8354611c5a9083906001600160a01b031660018d61394a565b8454611c739084906001600160a01b031660008e61394a565b611c7d9190615878565b611c879190615878565b858381518110611c9957611c99615890565b60209081029190910101525080611caf816158a6565b915050611baa565b50509450945094915050565b334114611ce357604051631cf4735960e01b815260040160405180910390fd5b60005460ff1615611d065760405162dc149f60e41b815260040160405180910390fd5b6000805460016001600160a81b03199091166101006001600160a01b039586160217811790915580546001600160a01b03191691909216179055565b6001600160a01b03821660009081526007602052604081206006018054829182918291829187908110611d7757611d77615890565b6000918252602090912060408051606081019091526003909202018054829060ff166002811115611daa57611daa61554d565b6002811115611dbb57611dbb61554d565b81526020016001820154815260200160028201548152505090508060000151816020015182604001518360400151600014158015611dfd575083604001514210155b929a91995097509095509350505050565b336000818152600760205260409020546001600160a01b0316611e445760405163cf83d93d60e01b815260040160405180910390fd5b336000908152600760205260408120600601805484908110611e6857611e68615890565b9060005260206000209060030201905060008160020154905080421015611ea2576040516303cb96db60e21b815260040160405180910390fd5b80611ec057604051630c8d9eab60e31b815260040160405180910390fd5b6000600283015560405184815233907fbf5f92dc2b945251eadf78c2ca629ae64053d979bfbc43a7b17a463707906bf99060200160405180910390a281546001830154611f129160ff16903390613caf565b50505050565b6001600160a01b038216600090815260046020526040902082903390611f3d9061373a565b6001600160a01b031614611f6457604051630101292160e31b815260040160405180910390fd5b600060019054906101000a90046001600160a01b03166001600160a01b031663d4a536866040518163ffffffff1660e01b8152600401602060405180830381865afa158015611fb7573d6000803e3d6000fd5b505050506040513d601f19601f82011682018060405250810190611fdb9190615834565b15611ff957604051631e59ccd960e01b815260040160405180910390fd5b600080546001600160a01b0385811683526004602052604083206120269290916101009091041685613605565b90508061204657604051637bc90c0560e11b815260040160405180910390fd5b610d973385600060019054906101000a90046001600160a01b03166001600160a01b031663900cf0cf6040518163ffffffff1660e01b8152600401602060405180830381865afa158015610d6b573d6000803e3d6000fd5b600581815481106120ae57600080fd5b6000918252602090912001546001600160a01b0316905081565b6001600160a01b03818116600090815260066020526040902054339116156121035760405163055ee1f160e31b815260040160405180910390fd5b6001600160a01b03811660009081526004602052604090206121259083613dce565b60058054600181019091557f036b6384b5eca791c62761152d0c79bb0604c104a5fb6f4eb0703f3154bb3db00180546001600160a01b038381166001600160a01b03199283168117909355841660009081526006602090815260409182902080549093168417909255519182527fd5828184f48f65962d10eac907318df85953d4e3542a0f09b5932ee3fe398bdd910160405180910390a15050565b600954604051632d73a02f60e01b81526004810185905260248101849052604481018390526060918291829182916000916001600160a01b031690632d73a02f90606401600060405180830381865afa158015612222573d6000803e3d6000fd5b505050506040513d6000823e601f3d908101601f1916820160405261224a9190810190615a04565b959e949d50909b5099509297509095505050505050565b6001600160a01b0380841660009081526004602052604090205484911661229b576040516372898ae960e11b815260040160405180910390fd5b600060019054906101000a90046001600160a01b03166001600160a01b031663d4a536866040518163ffffffff1660e01b8152600401602060405180830381865afa1580156122ee573d6000803e3d6000fd5b505050506040513d601f19601f820116820180604052508101906123129190615834565b1561233057604051631e59ccd960e01b815260040160405180910390fd5b8161234e57604051637bc90c0560e11b815260040160405180910390fd5b612359833384613e10565b6123e73385600060019054906101000a90046001600160a01b03166001600160a01b031663900cf0cf6040518163ffffffff1660e01b8152600401602060405180830381865afa1580156123b1573d6000803e3d6000fd5b505050506040513d601f19601f820116820180604052508101906123d59190615806565b6123e0906001615878565b8686613625565b836001600160a01b0316336001600160a01b03167f8fc656e319452025372383dc27d933046d412b8253de50a10739eeaa59862be68585604051610dc7929190615b03565b6001600160a01b0380821660009081526007602052604081208154919283928392916124619183916101009091041684613eb1565b60005490945061248290829061010090046001600160a01b03166001613eb1565b6000549093506124a390829061010090046001600160a01b03166002613eb1565b93959294505050565b6040513481527f1de49774d094a85fc1bbbd16e8d09a865fb848218f41e2da4369f528c42ee42e9060200160405180910390a1565b6001600160a01b038083166000818152600660209081526040808320548516835260049091528120600181015491939092911614612523576000915050611037565b600083116125a757600060019054906101000a90046001600160a01b03166001600160a01b031663900cf0cf6040518163ffffffff1660e01b8152600401602060405180830381865afa15801561257e573d6000803e3d6000fd5b505050506040513d601f19601f820116820180604052508101906125a29190615806565b6125a9565b825b92506125b58184613a09565b949350505050565b336000818152600460205260409020546001600160a01b03166125f3576040516372898ae960e11b815260040160405180910390fd5b6001600160a01b038281166000908152600660205260409020543391161561262e5760405163055ee1f160e31b815260040160405180910390fd5b6001600160a01b038082166000908152600460205260409020600181015490911661265982866140d7565b6001600160a01b0385811660008181526006602090815260409182902080546001600160a01b031916888616908117909155825194861685529084019290925290917f758820d0b14a01c1fa60b8d2bbef25ed1b6a5af4802e5dec3f08679255ba8bf39101610bba565b606060006126d78484600880549050613913565b9093509050826001600160401b038111156126f4576126f46151b0565b60405190808252806020026020018201604052801561271d578160200160208202803683370190505b50915060005b8381101561112b5760086127378287615878565b8154811061274757612747615890565b9060005260206000200160009054906101000a90046001600160a01b031683828151811061277757612777615890565b6001600160a01b039092166020928302919091019091015280612799816158a6565b915050612723565b6001600160a01b0382166000908152600460205260409020829033906127c69061373a565b6001600160a01b0316146127ed57604051630101292160e31b815260040160405180910390fd5b6001600160a01b0383166000908152600460205260409020336128108285614182565b6000805b6005548110156128b357826001600160a01b03166005828154811061283b5761283b615890565b6000918252602090912001546001600160a01b031614156128a157856005828154811061286a5761286a615890565b9060005260206000200160006101000a8154816001600160a01b0302191690836001600160a01b03160217905550600191506128b3565b806128ab816158a6565b915050612814565b50806128d2576040516372898ae960e11b815260040160405180910390fd5b6040516001600160a01b03868116825280841691908816907fc5dea76e50d26af1650796f1bc14cb6279045a4e82df07eda6a81417cd4ec6a8906020015b60405180910390a3505050505050565b6001600160a01b0382166000908152600460205260409020829033906129459061373a565b6001600160a01b03161461296c57604051630101292160e31b815260040160405180910390fd5b600080546001600160a01b0385811683526004602052604083206129999290916101009091041685613605565b60405181815290915033907f882d5671e5b36af50883197c33d48ba56ce337589958e871ba82fb0a54adf3e89060200160405180910390a28015611f1257611f1260003383613caf565b6001600160a01b03808316600090815260046020526040902054839116612a1d576040516372898ae960e11b815260040160405180910390fd5b336000818152600760205260409020546001600160a01b0316612a535760405163cf83d93d60e01b815260040160405180910390fd5b600060019054906101000a90046001600160a01b03166001600160a01b031663d4a536866040518163ffffffff1660e01b8152600401602060405180830381865afa158015612aa6573d6000803e3d6000fd5b505050506040513d601f19601f82011682018060405250810190612aca9190615834565b15612ae857604051631e59ccd960e01b815260040160405180910390fd5b600080546001600160a01b03868116835260046020908152604080852033865260079092528420612b2393909261010090910416908761422d565b905080612b4357604051637bc90c0560e11b815260040160405180910390fd5b612b9b3386600060019054906101000a90046001600160a01b03166001600160a01b031663900cf0cf6040518163ffffffff1660e01b8152600401602060405180830381865afa158015610d6b573d6000803e3d6000fd5b6040518181526001600160a01b0386169033907fddd8e3ffe5c76cd1a7cca4b98662cb0a4e3da53ee24a873da632d28ba10438369060200160405180910390a35050505050565b6001600160a01b038316600090815260076020526040812060068101546060928392839283929190612c179089908990613913565b9097509150866001600160401b03811115612c3457612c346151b0565b604051908082528060200260200182016040528015612c5d578160200160208202803683370190505b509550866001600160401b03811115612c7857612c786151b0565b604051908082528060200260200182016040528015612ca1578160200160208202803683370190505b509450866001600160401b03811115612cbc57612cbc6151b0565b604051908082528060200260200182016040528015612ce5578160200160208202803683370190505b509350866001600160401b03811115612d0057612d006151b0565b604051908082528060200260200182016040528015612d29578160200160208202803683370190505b50925060005b87811015612e8d57600060068301612d47838c615878565b81548110612d5757612d57615890565b6000918252602090912060408051606081019091526003909202018054829060ff166002811115612d8a57612d8a61554d565b6002811115612d9b57612d9b61554d565b81526020016001820154815260200160028201548152505090508060000151888381518110612dcc57612dcc615890565b60200260200101906002811115612de557612de561554d565b90816002811115612df857612df861554d565b815250508060200151878381518110612e1357612e13615890565b6020026020010181815250508060400151868381518110612e3657612e36615890565b6020908102919091010152604081015115801590612e58575080604001514210155b858381518110612e6a57612e6a615890565b911515602092830291909101909101525080612e85816158a6565b915050612d2f565b5050939792965093509350565b60008080808085612f1f57600060019054906101000a90046001600160a01b03166001600160a01b031663900cf0cf6040518163ffffffff1660e01b8152600401602060405180830381865afa158015612ef8573d6000803e3d6000fd5b505050506040513d601f19601f82011682018060405250810190612f1c9190615806565b95505b6001600160a01b03878116600090815260046020908152604080832060018101548b855260028201909352922054921696509060ff1660008881526003830160205260409020549015955060ff169350612f798188613a09565b9150848015612f86575083155b8015613007575060005460405163fcbb371b60e01b8152600481018990526101009091046001600160a01b03169063fcbb371b9060240161012060405180830381865afa158015612fdb573d6000803e3d6000fd5b505050506040513d601f19601f82011682018060405250810190612fff919061578b565b60c001518210155b9250509295509295909350565b600080546001600160a01b038481168352600460209081526040808520888416865260079092528420613051939092610100909104169085614266565b50949350505050565b604051634ee5a1b960e01b815260040160405180910390fd5b6001600160a01b038083166000908152600460205260409020548391166130ad576040516372898ae960e11b815260040160405180910390fd5b336000818152600760205260409020546001600160a01b03166130e35760405163cf83d93d60e01b815260040160405180910390fd5b600080546001600160a01b0386811683526004602090815260408085203386526007909252842061311e93909261010090910416908761422d565b604080516001600160a01b03881681526020810183905291925033917f2ef606d064225d24c1514dc94907c134faee1237445c2f63f410cce0852b2054910160405180910390a280156131775761317760003383613caf565b505050505050565b600881815481106120ae57600080fd5b336000818152600760205260409020546001600160a01b03166131c55760405163cf83d93d60e01b815260040160405180910390fd5b60008054338252600760205260409091206131ed9161010090046001600160a01b0316614470565b5050565b6001600160a01b0380841660009081526004602052604090205484911661322b576040516372898ae960e11b815260040160405180910390fd5b336000818152600760205260409020546001600160a01b03166132615760405163cf83d93d60e01b815260040160405180910390fd5b600060019054906101000a90046001600160a01b03166001600160a01b031663d4a536866040518163ffffffff1660e01b8152600401602060405180830381865afa1580156132b4573d6000803e3d6000fd5b505050506040513d601f19601f820116820180604052508101906132d89190615834565b156132f657604051631e59ccd960e01b815260040160405180910390fd5b33600090815260076020908152604080832083546001600160a01b038a81168652600490945291909320613334928492610100900416908888614494565b93508361335457604051637bc90c0560e11b815260040160405180910390fd5b8060060160405180606001604052808760028111156133755761337561554d565b81526020810187905260400161338e42620d2f00615878565b9052815460018181018455600093845260209093208251600390920201805492939092839160ff19909116908360028111156133cc576133cc61554d565b0217905550602082015181600101556040820151816002015550506134786003600060019054906101000a90046001600160a01b03166001600160a01b031663900cf0cf6040518163ffffffff1660e01b8152600401602060405180830381865afa15801561343f573d6000803e3d6000fd5b505050506040513d601f19601f820116820180604052508101906134639190615806565b61346e906001615878565b60029190876145ca565b50600954604051635692619d60e11b81526001600160a01b0388811660048301529091169063ad24c33a90602401600060405180830381600087803b1580156134c057600080fd5b505af11580156134d4573d6000803e3d6000fd5b50505060068201546001600160a01b038816915033907fb649014faa7a0e23357e091fb8a67a128c33dc9480f846f7e41cb3a6c9d8061090613518906001906158c1565b604051908152602001612910565b600082815260098501602052604081205461354f57600083815260098601602052604090208290555b6000838152600a8601602052604081205461356b906001615878565b6000858152600a88016020526040902081905560e086015190915081108015906135b757506003860160006135a1866001615878565b815260208101919091526040016000205460ff16155b15613051576101008501516135cc9085615878565b91505b8184101561305157836135e1816158a6565b60008181526003890160205260409020805460ff1916600117905594506135cf9050565b6000806000613615868686613780565b6006880155925050509392505050565b6001600160a01b038086166000908152600760205260409020805490911661369e5780546001600160a01b0387166001600160a01b031991821681178355600880546001810182556000919091527ff3f7a9fe364faab93b216da50a3214154f22a0a2b415b23a84c8169e8b636ee30180549092161790555b6001600160a01b03851660009081526004602052604090206136c5908290869086866146a5565b6136d360026003868561476d565b600954604051635692619d60e11b81526001600160a01b0387811660048301529091169063ad24c33a90602401600060405180830381600087803b15801561371a57600080fd5b505af115801561372e573d6000803e3d6000fd5b50505050505050505050565b600b8101546000906001600160a01b031661375d5750546001600160a01b031690565b50600b01546001600160a01b031690565b61377b8383836000614853565b505050565b6000808460060154905060006001856001600160a01b031663900cf0cf6040518163ffffffff1660e01b8152600401602060405180830381865afa1580156137cc573d6000803e3d6000fd5b505050506040513d601f19601f820116820180604052508101906137f09190615806565b6137fa91906158c1565b905083158061381157508061380f8386615878565b115b156138235761382082826158c1565b93505b60005b8481101561390957613839600184615878565b60405163fcbb371b60e01b8152600481018290529093506000906001600160a01b0388169063fcbb371b9060240161012060405180830381865afa158015613885573d6000803e3d6000fd5b505050506040513d601f19601f820116820180604052508101906138a9919061578b565b905060006138b8898387613a1c565b9050806138c65750506138f7565b60a08201516138d65750506138f7565b6138e8818360a00151606460196148d9565b6138f29087615878565b955050505b80613901816158a6565b915050613826565b5050935093915050565b600080826139218587615878565b106139335761393085846158c1565b93505b8361393e8187615878565b91509150935093915050565b6000613a008560020160008560028111156139675761396761554d565b60028111156139785761397861554d565b81526020019081526020016000206000866001600160a01b03166001600160a01b03168152602001908152602001600020838760010160008760028111156139c2576139c261554d565b60028111156139d3576139d361554d565b8152602080820192909252604090810160009081206001600160a01b038b16825290925290209190613b96565b95945050505050565b60006115fa600484016005850184613b96565b600081815260028401602052604081205460ff1680613a4b5750600082815260038501602052604090205460ff165b15613a58575060006115fa565b6000613a648584613a09565b905060498310613aa5578360c00151811015613a845760009150506115fa565b62989680613a9482610a34615b1e565b613a9e9190615b3d565b9150613b3e565b80613ab45760009150506115fa565b613ac06019600a615c3b565b613ad1856080015160646019614905565b613adb9083615b1e565b613ae59190615b3d565b915081613af65760009150506115fa565b613b1984606001518560400151613b0d9190615b1e565b6301e133806019614905565b613b239083615b1e565b9150613b316019600a615c3b565b613b3b9083615b3d565b91505b6000838152600a860160205260409020548015613b80576000848152600987016020526040902054613b7c84613b7484846158c1565b8360196148d9565b9350505b50509392505050565b61377b8383836001614853565b8254600090801580613bc457508285600081548110613bb757613bb7615890565b9060005260206000200154115b15613bd35760009150506115fa565b8285613be06001846158c1565b81548110613bf057613bf0615890565b906000526020600020015411613c2f5783613c0c6001836158c1565b81548110613c1c57613c1c615890565b90600052602060002001549150506115fa565b600181118015613c6557508285613c476002846158c1565b81548110613c5757613c57615890565b906000526020600020015411155b15613c765783613c0c6002836158c1565b6000613c858685600085614941565b9050848181548110613c9957613c99615890565b9060005260206000200154925050509392505050565b600080846002811115613cc457613cc461554d565b1415613d23576040516001600160a01b038416908390600081818185875af1925050503d8060008114613d13576040519150601f19603f3d011682016040523d82523d6000602084013e613d18565b606091505b505080915050613da5565b613d2c846149e9565b60405163a9059cbb60e01b81526001600160a01b03858116600483015260248201859052919091169063a9059cbb906044015b6020604051808303816000875af1158015613d7e573d6000803e3d6000fd5b505050506040513d601f19601f82011682018060405250810190613da29190615834565b90505b80611f125783604051630db5347560e11b8152600401613dc59190615c47565b60405180910390fd5b81546001600160a01b031615613df657604051621d934160e11b815260040160405180910390fd5b81546001600160a01b031916331782556131ed82826140d7565b6000836002811115613e2457613e2461554d565b1415613e4a5780341461377b57604051630fe5b06560e11b815260040160405180910390fd5b3415613e695760405163a745ac8560e01b815260040160405180910390fd5b6000613e74846149e9565b6040516323b872dd60e01b81526001600160a01b0385811660048301523060248301526044820185905291909116906323b872dd90606401613d5f565b600080846003016000846002811115613ecc57613ecc61554d565b6002811115613edd57613edd61554d565b8152602081019190915260400160002054905080613eff5760009150506115fa565b6000846001600160a01b031663900cf0cf6040518163ffffffff1660e01b8152600401602060405180830381865afa158015613f3f573d6000803e3d6000fd5b505050506040513d601f19601f82011682018060405250810190613f639190615806565b90506000613f726001846158c1565b9050600081118015613fd5575081876003016000876002811115613f9857613f9861554d565b6002811115613fa957613fa961554d565b81526020019081526020016000208281548110613fc857613fc8615890565b9060005260206000200154115b15613fe85780613fe481615c55565b9150505b818760030160008760028111156140015761400161554d565b60028111156140125761401261554d565b8152602001908152602001600020828154811061403157614031615890565b9060005260206000200154111561404e57600093505050506115fa565b6000805b8281116140cb578860040160008860028111156140715761407161554d565b60028111156140825761408261554d565b815260200190815260200160002081815481106140a1576140a1615890565b9060005260206000200154826140b79190615878565b9150806140c3816158a6565b915050614052565b50979650505050505050565b6001600160a01b0381166140fe57604051637138356f60e01b815260040160405180910390fd5b81546001600160a01b038281169116141561412c5760405163abf8eb2360e01b815260040160405180910390fd5b600b8201546001600160a01b038281169116141561415d5760405163e037058f60e01b815260040160405180910390fd5b60019190910180546001600160a01b0319166001600160a01b03909216919091179055565b6001600160a01b0381166141a957604051637138356f60e01b815260040160405180910390fd5b81546001600160a01b03828116911614156141d75760405163abf8eb2360e01b815260040160405180910390fd5b600b8201546001600160a01b03828116911614156142085760405163e037058f60e01b815260040160405180910390fd5b600b9190910180546001600160a01b0319166001600160a01b03909216919091179055565b600080600061423e87878787614266565b86546001600160a01b0316600090815260058a01602052604090205592505050949350505050565b81546001600160a01b039081166000908152600586016020908152604080832054815163900cf0cf60e01b81529151939490938593600193928a169263900cf0cf92600480830193928290030181865afa1580156142c8573d6000803e3d6000fd5b505050506040513d601f19601f820116820180604052508101906142ec9190615806565b6142f691906158c1565b905083158061430d57508061430b8386615878565b115b1561431f5761431c82826158c1565b93505b60005b8481101561446557614335600184615878565b8654909350600090614354908a906001600160a01b031660028761394a565b875461436d908b906001600160a01b031660018861394a565b8854614386908c906001600160a01b031660008961394a565b6143909190615878565b61439a9190615878565b9050806143a75750614453565b60405163fcbb371b60e01b815260048101859052600090614420906001600160a01b038b169063fcbb371b9060240161012060405180830381865afa1580156143f4573d6000803e3d6000fd5b505050506040513d601f19601f82011682018060405250810190614418919061578b565b899087614a54565b90508061442e575050614453565b614444818361443d8b89613a09565b60196148d9565b61444e9087615878565b955050505b8061445d816158a6565b915050614322565b505094509492505050565b61447c82826001614a9f565b61448882826002614a9f565b6131ed82826000614a9f565b60006145b08660020160008560028111156144b1576144b161554d565b60028111156144c2576144c261554d565b81526020808201929092526040908101600090812088546001600160a01b03908116835290845290829020825163900cf0cf60e01b815292519093918a169263900cf0cf9260048083019391928290030181865afa158015614528573d6000803e3d6000fd5b505050506040513d601f19601f8201168201806040525081019061454c9190615806565b614557906001615878565b848960010160008860028111156145705761457061554d565b60028111156145815761458161554d565b8152602080820192909252604090810160009081208b546001600160a01b0316825290925290209291906145ca565b9150816145bf57506000613a00565b613051848684614dc5565b83546000908015806146015750856145e36001836158c1565b815481106145f3576145f3615890565b906000526020600020015484105b1561461f57604051630eae4c9760e01b815260040160405180910390fd5b600061462c878787614e45565b9050600086828154811061464257614642615890565b906000526020600020015490508085111561465d578061465f565b845b94508415614699578487838154811061467a5761467a615890565b90600052602060002001600082825461469391906158c1565b90915550505b50929695505050505050565b6147548560020160008460028111156146c0576146c061554d565b60028111156146d1576146d161554d565b81526020808201929092526040908101600090812087546001600160a01b031682529092528120908690849060018a01908760028111156147145761471461554d565b60028111156147255761472561554d565b8152602080820192909252604090810160009081208a546001600160a01b03168252909252902092919061476d565b8454610bc390849086906001600160a01b031684615055565b83546001811180156147a45750846147866001836158c1565b8154811061479657614796615890565b906000526020600020015483105b80156147d55750846147b76002836158c1565b815481106147c7576147c7615890565b906000526020600020015483105b156147f357604051630eae4c9760e01b815260040160405180910390fd5b6000614800868686614e45565b8654925090505b81811015613177578285828154811061482257614822615890565b90600052602060002001600082825461483b9190615878565b9091555081905061484b816158a6565b915050614807565b815160005b8181101561317757600084828151811061487457614874615890565b6020026020010151905085811180156148a45750600081815260028801602052604090205460ff16151584151514155b156148c65760008181526002880160205260409020805460ff19168515151790555b50806148d1816158a6565b915050614858565b60006148e682600a615c3b565b6148f1858585614905565b6148fb9087615b1e565b613a009190615b3d565b600080614913836001615878565b61491e90600a615c3b565b6149289086615b1e565b9050600a6149368583615b3d565b6148fb906005615878565b60008183141561495d576149566001836158c1565b90506125b5565b6000600261496b8486615878565b6149759190615b3d565b90508486828154811061498a5761498a615890565b906000526020600020015411156149af576149a786868684614941565b9150506125b5565b848682815481106149c2576149c2615890565b90600052602060002001541015613a00576149a786866149e3846001615878565b86614941565b600060018260028111156149ff576149ff61554d565b1415614a1357506001602960991b01919050565b6002826002811115614a2757614a2761554d565b1415614a3b57506002602960991b01919050565b604051638698bf3760e01b815260040160405180910390fd5b600080614a62858585613a1c565b905080614a735760009150506115fa565b60a0840151614a835790506115fa565b614a95818560a00151606460196148d9565b613a0090826158c1565b6000614aac848484613eb1565b905080614ab95750505050565b6000846003016000846002811115614ad357614ad361554d565b6002811115614ae457614ae461554d565b8152602001908152602001600020805490509050836001600160a01b031663900cf0cf6040518163ffffffff1660e01b8152600401602060405180830381865afa158015614b36573d6000803e3d6000fd5b505050506040513d601f19601f82011682018060405250810190614b5a9190615806565b856003016000856002811115614b7257614b7261554d565b6002811115614b8357614b8361554d565b8152602001908152602001600020600183614b9e91906158c1565b81548110614bae57614bae615890565b906000526020600020015411614c4957846003016000846002811115614bd657614bd661554d565b6002811115614be757614be761554d565b81526020019081526020016000206000614c0191906150d5565b846004016000846002811115614c1957614c1961554d565b6002811115614c2a57614c2a61554d565b81526020019081526020016000206000614c4491906150d5565b614dae565b6040518060200160405280866003016000866002811115614c6c57614c6c61554d565b6002811115614c7d57614c7d61554d565b8152602001908152602001600020600184614c9891906158c1565b81548110614ca857614ca8615890565b9060005260206000200154815250856003016000856002811115614cce57614cce61554d565b6002811115614cdf57614cdf61554d565b81526020810191909152604001600020614cfa9160016150f6565b506040518060200160405280866004016000866002811115614d1e57614d1e61554d565b6002811115614d2f57614d2f61554d565b8152602001908152602001600020600184614d4a91906158c1565b81548110614d5a57614d5a615890565b9060005260206000200154815250856004016000856002811115614d8057614d8061554d565b6002811115614d9157614d9161554d565b81526020810191909152604001600020614dac9160016150f6565b505b8454610bc39084906001600160a01b031684613caf565b611f1283600501836001600160a01b031663900cf0cf6040518163ffffffff1660e01b8152600401602060405180830381865afa158015614e0a573d6000803e3d6000fd5b505050506040513d601f19601f82011682018060405250810190614e2e9190615806565b614e39906001615878565b600486019190846145ca565b825460009080614e805750508254600181810185556000858152602080822090930184905584549182018555848152918220018190556115fa565b6000614e8d6001836158c1565b90506000868281548110614ea357614ea3615890565b9060005260206000200154905080851415614ec2575091506115fa9050565b80851115614f2a5786546001810188556000888152602090200185905585548690819084908110614ef557614ef5615890565b6000918252602080832090910154835460018181018655948452919092200155614f20908390615878565b93505050506115fa565b600082118015614f5f575086614f416001846158c1565b81548110614f5157614f51615890565b906000526020600020015485145b15614f6f57614f206001836158c1565b86878381548110614f8257614f82615890565b6000918252602080832090910154835460018101855593835291209091015585548690819084908110614fb757614fb7615890565b6000918252602080832090910154835460018101855593835291209091015586548590889084908110614fec57614fec615890565b600091825260209091200155811561502a578561500a6001846158c1565b8154811061501a5761501a615890565b906000526020600020015461502d565b60005b86838154811061503f5761503f615890565b6000918252602090912001555091506115fa9050565b6001600160a01b038216600090815260088501602052604090205460ff166150c3576001600160a01b038216600081815260088601602090815260408220805460ff191660019081179091556007880180549182018155835291200180546001600160a01b03191690911790555b611f126004850160058601858461476d565b50805460008255906000526020600020908101906150f39190615141565b50565b828054828255906000526020600020908101928215615131579160200282015b82811115615131578251825591602001919060010190615116565b5061513d929150615141565b5090565b5b8082111561513d5760008155600101615142565b6001600160a01b03811681146150f357600080fd5b6000806040838503121561517e57600080fd5b823561518981615156565b946020939093013593505050565b6000602082840312156151a957600080fd5b5035919050565b634e487b7160e01b600052604160045260246000fd5b60405161012081016001600160401b03811182821017156151e9576151e96151b0565b60405290565b604051601f8201601f191681016001600160401b0381118282101715615217576152176151b0565b604052919050565b60006001600160401b03821115615238576152386151b0565b5060051b60200190565b6000806040838503121561525557600080fd5b823561526081615156565b91506020838101356001600160401b0381111561527c57600080fd5b8401601f8101861361528d57600080fd5b80356152a061529b8261521f565b6151ef565b81815260059190911b820183019083810190888311156152bf57600080fd5b928401925b828410156152dd578335825292840192908401906152c4565b80955050505050509250929050565b600080604083850312156152ff57600080fd5b50508035926020909101359150565b600081518084526020808501945080840160005b838110156153475781516001600160a01b031687529582019590820190600101615322565b509495945050505050565b604081526000615365604083018561530e565b90508260208301529392505050565b6000806000806080858703121561538a57600080fd5b843561539581615156565b966020860135965060408601359560600135945092505050565b600081518084526020808501945080840160005b83811015615347578151875295820195908201906001016153c3565b60a0815260006153f260a083018861530e565b828103602084015261540481886153af565b9050828103604084015261541881876153af565b9050828103606084015261542c81866153af565b9150508260808301529695505050505050565b6000806040838503121561545257600080fd5b82356001600160401b0381111561546857600080fd5b8301601f8101851361547957600080fd5b8035602061548961529b8361521f565b82815260059290921b830181019181810190888411156154a857600080fd5b938201935b838510156154cf5784356154c081615156565b825293820193908201906154ad565b98969091013596505050505050565b6060815260006154f1606083018661530e565b828103602084015261550381866153af565b915050826040830152949350505050565b6000806040838503121561552757600080fd5b823561553281615156565b9150602083013561554281615156565b809150509250929050565b634e487b7160e01b600052602160045260246000fd5b6003811061558157634e487b7160e01b600052602160045260246000fd5b9052565b608081016155938287615563565b846020830152836040830152821515606083015295945050505050565b6000602082840312156155c257600080fd5b81356115fa81615156565b6000806000606084860312156155e257600080fd5b505081359360208301359350604090920135919050565b600081518084526020808501945080840160005b8381101561534757815115158752958201959082019060010161560d565b60a08152600061563e60a083018861530e565b8281036020840152615650818861530e565b9050828103604084015261566481876153af565b9050828103606084015261542c81866155f9565b60008060006060848603121561568d57600080fd5b833561569881615156565b92506020840135600381106156ac57600080fd5b929592945050506040919091013590565b6000806000606084860312156156d257600080fd5b83356156dd81615156565b95602085013595506040909401359392505050565b60a0808252865190820181905260009060209060c0840190828a01845b8281101561573257615722848351615563565b928401929084019060010161570f565b5050508381038285015261574681896153af565b915050828103604084015261566481876153af565b60008060006060848603121561577057600080fd5b833561577b81615156565b925060208401356156ac81615156565b6000610120828403121561579e57600080fd5b6157a66151c6565b825181526020830151602082015260408301516040820152606083015160608201526080830151608082015260a083015160a082015260c083015160c082015260e083015160e08201526101008084015181830152508091505092915050565b60006020828403121561581857600080fd5b5051919050565b8051801515811461582f57600080fd5b919050565b60006020828403121561584657600080fd5b6115fa8261581f565b6020815260006115fa60208301846153af565b634e487b7160e01b600052601160045260246000fd5b6000821982111561588b5761588b615862565b500190565b634e487b7160e01b600052603260045260246000fd5b60006000198214156158ba576158ba615862565b5060010190565b6000828210156158d3576158d3615862565b500390565b600082601f8301126158e957600080fd5b815160206158f961529b8361521f565b82815260059290921b8401810191818101908684111561591857600080fd5b8286015b8481101561593c57805161592f81615156565b835291830191830161591c565b509695505050505050565b600082601f83011261595857600080fd5b8151602061596861529b8361521f565b82815260059290921b8401810191818101908684111561598757600080fd5b8286015b8481101561593c5761599c8161581f565b835291830191830161598b565b600082601f8301126159ba57600080fd5b815160206159ca61529b8361521f565b82815260059290921b840181019181810190868411156159e957600080fd5b8286015b8481101561593c57805183529183019183016159ed565b600080600080600080600060e0888a031215615a1f57600080fd5b87516001600160401b0380821115615a3657600080fd5b615a428b838c016158d8565b985060208a0151915080821115615a5857600080fd5b615a648b838c016158d8565b975060408a0151915080821115615a7a57600080fd5b615a868b838c01615947565b965060608a0151915080821115615a9c57600080fd5b615aa88b838c01615947565b955060808a0151915080821115615abe57600080fd5b615aca8b838c016159a9565b945060a08a0151915080821115615ae057600080fd5b50615aed8a828b01615947565b92505060c0880151905092959891949750929550565b60408101615b118285615563565b8260208301529392505050565b6000816000190483118215151615615b3857615b38615862565b500290565b600082615b5a57634e487b7160e01b600052601260045260246000fd5b500490565b600181815b8085111561112b578160001904821115615b8057615b80615862565b80851615615b8d57918102915b93841c9390800290615b64565b600082615ba957506001611037565b81615bb657506000611037565b8160018114615bcc5760028114615bd657615bf2565b6001915050611037565b60ff841115615be757615be7615862565b50506001821b611037565b5060208310610133831016604e8410600b8410161715615c15575081810a611037565b615c1f8383615b5f565b8060001904821115615c3357615c33615862565b029392505050565b60006115fa8383615b9a565b602081016110378284615563565b600081615c6457615c64615862565b50600019019056fea2646970667358221220a42b1969b4d195edb9361de29919e0fb437c8420a6605d32d3c5b7421d5826ab64736f6c634300080c0033",
  "linkReferences": {},
  "deployedLinkReferences": {}
}