{
  "_format": "hh-sol-artifact-1",
  "contractName": "StakeManager",
  "sourceName": "contracts/StakeManager.sol",
  "abi": [
    {
      "anonymous": false,
      "inputs": [
        {
          "indexed": true,
          "internalType": "address",
          "name": "staker",
          "type": "address"
        },
        {
          "indexed": true,
          "internalType": "address",
          "name": "validator",
          "type": "address"
        },
        {
          "indexed": false,
          "internalType": "enum Token.Type",
          "name": "token",
          "type": "uint8"
        },
        {
          "indexed": false,
          "internalType": "uint256",
          "name": "amount",
          "type": "uint256"
        }
      ],
      "name": "Staked",
      "type": "event"
    },
    {
      "anonymous": false,
      "inputs": [
        {
          "indexed": true,
          "internalType": "address",
          "name": "staker",
          "type": "address"
        },
        {
          "indexed": true,
          "internalType": "address",
          "name": "validator",
          "type": "address"
        },
        {
          "indexed": false,
          "internalType": "enum Token.Type",
          "name": "token",
          "type": "uint8"
        },
        {
          "indexed": false,
          "internalType": "uint256",
          "name": "amount",
          "type": "uint256"
        }
      ],
      "name": "Unstaked",
      "type": "event"
    },
    {
      "anonymous": false,
      "inputs": [
        {
          "indexed": true,
          "internalType": "address",
          "name": "validator",
          "type": "address"
        },
        {
          "indexed": false,
          "internalType": "uint256[]",
          "name": "epochs",
          "type": "uint256[]"
        }
      ],
      "name": "ValidatorActivated",
      "type": "event"
    },
    {
      "anonymous": false,
      "inputs": [
        {
          "indexed": true,
          "internalType": "address",
          "name": "validator",
          "type": "address"
        },
        {
          "indexed": false,
          "internalType": "uint256",
          "name": "rate",
          "type": "uint256"
        }
      ],
      "name": "ValidatorCommissionRateUpdated",
      "type": "event"
    },
    {
      "anonymous": false,
      "inputs": [
        {
          "indexed": true,
          "internalType": "address",
          "name": "validator",
          "type": "address"
        },
        {
          "indexed": false,
          "internalType": "uint256[]",
          "name": "epochs",
          "type": "uint256[]"
        }
      ],
      "name": "ValidatorDeactivated",
      "type": "event"
    },
    {
      "anonymous": false,
      "inputs": [
        {
          "indexed": true,
          "internalType": "address",
          "name": "validator",
          "type": "address"
        },
        {
          "indexed": false,
          "internalType": "uint256",
          "name": "until",
          "type": "uint256"
        }
      ],
      "name": "ValidatorJailed",
      "type": "event"
    },
    {
      "anonymous": false,
      "inputs": [
        {
          "indexed": true,
          "internalType": "address",
          "name": "validator",
          "type": "address"
        }
      ],
      "name": "ValidatorSlashed",
      "type": "event"
    },
    {
      "inputs": [
        {
          "internalType": "address",
          "name": "validator",
          "type": "address"
        },
        {
          "internalType": "uint256[]",
          "name": "epochs",
          "type": "uint256[]"
        }
      ],
      "name": "activateValidator",
      "outputs": [],
      "stateMutability": "nonpayable",
      "type": "function"
    },
    {
      "inputs": [],
      "name": "allowlist",
      "outputs": [
        {
          "internalType": "contract IAllowlist",
          "name": "",
          "type": "address"
        }
      ],
      "stateMutability": "view",
      "type": "function"
    },
    {
      "inputs": [
        {
          "internalType": "address",
          "name": "validator",
          "type": "address"
        },
        {
          "internalType": "uint256",
          "name": "epochs",
          "type": "uint256"
        }
      ],
      "name": "claimCommissions",
      "outputs": [],
      "stateMutability": "nonpayable",
      "type": "function"
    },
    {
      "inputs": [
        {
          "internalType": "address",
          "name": "validator",
          "type": "address"
        },
        {
          "internalType": "uint256",
          "name": "epochs",
          "type": "uint256"
        }
      ],
      "name": "claimRewards",
      "outputs": [],
      "stateMutability": "nonpayable",
      "type": "function"
    },
    {
      "inputs": [],
      "name": "claimUnstakes",
      "outputs": [],
      "stateMutability": "nonpayable",
      "type": "function"
    },
    {
      "inputs": [
        {
          "internalType": "address",
          "name": "validator",
          "type": "address"
        },
        {
          "internalType": "uint256[]",
          "name": "epochs",
          "type": "uint256[]"
        }
      ],
      "name": "deactivateValidator",
      "outputs": [],
      "stateMutability": "nonpayable",
      "type": "function"
    },
    {
      "inputs": [],
      "name": "environment",
      "outputs": [
        {
          "internalType": "contract IEnvironment",
          "name": "",
          "type": "address"
        }
      ],
      "stateMutability": "view",
      "type": "function"
    },
    {
      "inputs": [
        {
          "internalType": "address",
          "name": "validator",
          "type": "address"
        },
        {
          "internalType": "uint256",
          "name": "epoch",
          "type": "uint256"
        }
      ],
      "name": "getBlockAndSlashes",
      "outputs": [
        {
          "internalType": "uint256",
          "name": "blocks",
          "type": "uint256"
        },
        {
          "internalType": "uint256",
          "name": "slashes",
          "type": "uint256"
        }
      ],
      "stateMutability": "view",
      "type": "function"
    },
    {
      "inputs": [
        {
          "internalType": "address",
          "name": "validator",
          "type": "address"
        },
        {
          "internalType": "uint256",
          "name": "epochs",
          "type": "uint256"
        }
      ],
      "name": "getCommissions",
      "outputs": [
        {
          "internalType": "uint256",
          "name": "commissions",
          "type": "uint256"
        }
      ],
      "stateMutability": "view",
      "type": "function"
    },
    {
      "inputs": [],
      "name": "getCurrentValidators",
      "outputs": [
        {
          "internalType": "address[]",
          "name": "owners",
          "type": "address[]"
        },
        {
          "internalType": "address[]",
          "name": "operators",
          "type": "address[]"
        },
        {
          "internalType": "uint256[]",
          "name": "stakes",
          "type": "uint256[]"
        }
      ],
      "stateMutability": "view",
      "type": "function"
    },
    {
      "inputs": [],
      "name": "getNextValidators",
      "outputs": [
        {
          "internalType": "address[]",
          "name": "owners",
          "type": "address[]"
        },
        {
          "internalType": "address[]",
          "name": "operators",
          "type": "address[]"
        },
        {
          "internalType": "uint256[]",
          "name": "stakes",
          "type": "uint256[]"
        }
      ],
      "stateMutability": "view",
      "type": "function"
    },
    {
      "inputs": [
        {
          "internalType": "address",
          "name": "staker",
          "type": "address"
        },
        {
          "internalType": "address",
          "name": "validator",
          "type": "address"
        },
        {
          "internalType": "uint256",
          "name": "epochs",
          "type": "uint256"
        }
      ],
      "name": "getRewards",
      "outputs": [
        {
          "internalType": "uint256",
          "name": "rewards",
          "type": "uint256"
        }
      ],
      "stateMutability": "view",
      "type": "function"
    },
    {
      "inputs": [
        {
          "internalType": "address",
          "name": "staker",
          "type": "address"
        },
        {
          "internalType": "enum Token.Type",
          "name": "token",
          "type": "uint8"
        }
      ],
      "name": "getStakerInfo",
      "outputs": [
        {
          "internalType": "uint256",
          "name": "stakes",
          "type": "uint256"
        },
        {
          "internalType": "uint256",
          "name": "unstakes",
          "type": "uint256"
        }
      ],
      "stateMutability": "view",
      "type": "function"
    },
    {
      "inputs": [
        {
          "internalType": "address",
          "name": "staker",
          "type": "address"
        },
        {
          "internalType": "enum Token.Type",
          "name": "token",
          "type": "uint8"
        },
        {
          "internalType": "uint256",
          "name": "epoch",
          "type": "uint256"
        }
      ],
      "name": "getStakerStakes",
      "outputs": [
        {
          "internalType": "address[]",
          "name": "_validators",
          "type": "address[]"
        },
        {
          "internalType": "uint256[]",
          "name": "stakes",
          "type": "uint256[]"
        },
        {
          "internalType": "uint256[]",
          "name": "stakeRequests",
          "type": "uint256[]"
        },
        {
          "internalType": "uint256[]",
          "name": "unstakeRequests",
          "type": "uint256[]"
        }
      ],
      "stateMutability": "view",
      "type": "function"
    },
    {
      "inputs": [
        {
          "internalType": "uint256",
          "name": "page",
          "type": "uint256"
        },
        {
          "internalType": "uint256",
          "name": "perPage",
          "type": "uint256"
        }
      ],
      "name": "getStakers",
      "outputs": [
        {
          "internalType": "address[]",
          "name": "",
          "type": "address[]"
        }
      ],
      "stateMutability": "view",
      "type": "function"
    },
    {
      "inputs": [
        {
          "internalType": "uint256",
          "name": "epochs",
          "type": "uint256"
        }
      ],
      "name": "getTotalRewards",
      "outputs": [
        {
          "internalType": "uint256",
          "name": "rewards",
          "type": "uint256"
        }
      ],
      "stateMutability": "view",
      "type": "function"
    },
    {
      "inputs": [
        {
          "internalType": "address",
          "name": "validator",
          "type": "address"
        }
      ],
      "name": "getValidatorInfo",
      "outputs": [
        {
          "internalType": "address",
          "name": "operator",
          "type": "address"
        },
        {
          "internalType": "bool",
          "name": "active",
          "type": "bool"
        },
        {
          "internalType": "bool",
          "name": "jailed",
          "type": "bool"
        },
        {
          "internalType": "uint256",
          "name": "stakes",
          "type": "uint256"
        },
        {
          "internalType": "uint256",
          "name": "commissionRate",
          "type": "uint256"
        }
      ],
      "stateMutability": "view",
      "type": "function"
    },
    {
      "inputs": [
        {
          "internalType": "address",
          "name": "validator",
          "type": "address"
        },
        {
          "internalType": "uint256",
          "name": "epoch",
          "type": "uint256"
        }
      ],
      "name": "getValidatorInfo",
      "outputs": [
        {
          "internalType": "bool",
          "name": "active",
          "type": "bool"
        },
        {
          "internalType": "bool",
          "name": "jailed",
          "type": "bool"
        },
        {
          "internalType": "uint256",
          "name": "stakes",
          "type": "uint256"
        },
        {
          "internalType": "uint256",
          "name": "commissionRate",
          "type": "uint256"
        }
      ],
      "stateMutability": "view",
      "type": "function"
    },
    {
      "inputs": [
        {
          "internalType": "address",
          "name": "validator",
          "type": "address"
        },
        {
          "internalType": "uint256",
          "name": "epoch",
          "type": "uint256"
        },
        {
          "internalType": "uint256",
          "name": "page",
          "type": "uint256"
        },
        {
          "internalType": "uint256",
          "name": "perPage",
          "type": "uint256"
        }
      ],
      "name": "getValidatorStakes",
      "outputs": [
        {
          "internalType": "address[]",
          "name": "_stakers",
          "type": "address[]"
        },
        {
          "internalType": "uint256[]",
          "name": "stakes",
          "type": "uint256[]"
        }
      ],
      "stateMutability": "view",
      "type": "function"
    },
    {
      "inputs": [],
      "name": "getValidators",
      "outputs": [
        {
          "internalType": "address[]",
          "name": "",
          "type": "address[]"
        }
      ],
      "stateMutability": "view",
      "type": "function"
    },
    {
      "inputs": [
        {
          "internalType": "contract IEnvironment",
          "name": "_environment",
          "type": "address"
        },
        {
          "internalType": "contract IAllowlist",
          "name": "_allowlist",
          "type": "address"
        }
      ],
      "name": "initialize",
      "outputs": [],
      "stateMutability": "nonpayable",
      "type": "function"
    },
    {
      "inputs": [],
      "name": "initialized",
      "outputs": [
        {
          "internalType": "bool",
          "name": "",
          "type": "bool"
        }
      ],
      "stateMutability": "view",
      "type": "function"
    },
    {
      "inputs": [
        {
          "internalType": "address",
          "name": "operator",
          "type": "address"
        }
      ],
      "name": "joinValidator",
      "outputs": [],
      "stateMutability": "nonpayable",
      "type": "function"
    },
    {
      "inputs": [
        {
          "internalType": "address",
          "name": "",
          "type": "address"
        }
      ],
      "name": "operatorToOwner",
      "outputs": [
        {
          "internalType": "address",
          "name": "",
          "type": "address"
        }
      ],
      "stateMutability": "view",
      "type": "function"
    },
    {
      "inputs": [
        {
          "internalType": "address",
          "name": "operator",
          "type": "address"
        },
        {
          "internalType": "uint256",
          "name": "blocks",
          "type": "uint256"
        }
      ],
      "name": "slash",
      "outputs": [],
      "stateMutability": "nonpayable",
      "type": "function"
    },
    {
      "inputs": [
        {
          "internalType": "address",
          "name": "validator",
          "type": "address"
        },
        {
          "internalType": "enum Token.Type",
          "name": "token",
          "type": "uint8"
        },
        {
          "internalType": "uint256",
          "name": "amount",
          "type": "uint256"
        }
      ],
      "name": "stake",
      "outputs": [],
      "stateMutability": "payable",
      "type": "function"
    },
    {
      "inputs": [
        {
          "internalType": "uint256",
          "name": "",
          "type": "uint256"
        }
      ],
      "name": "stakerSigners",
      "outputs": [
        {
          "internalType": "address",
          "name": "",
          "type": "address"
        }
      ],
      "stateMutability": "view",
      "type": "function"
    },
    {
      "inputs": [
        {
          "internalType": "address",
          "name": "",
          "type": "address"
        }
      ],
      "name": "stakers",
      "outputs": [
        {
          "internalType": "address",
          "name": "signer",
          "type": "address"
        }
      ],
      "stateMutability": "view",
      "type": "function"
    },
    {
      "inputs": [
        {
          "internalType": "address",
          "name": "validator",
          "type": "address"
        },
        {
          "internalType": "enum Token.Type",
          "name": "token",
          "type": "uint8"
        },
        {
          "internalType": "uint256",
          "name": "amount",
          "type": "uint256"
        }
      ],
      "name": "unstake",
      "outputs": [],
      "stateMutability": "nonpayable",
      "type": "function"
    },
    {
      "inputs": [
        {
          "internalType": "uint256",
          "name": "newRate",
          "type": "uint256"
        }
      ],
      "name": "updateCommissionRate",
      "outputs": [],
      "stateMutability": "nonpayable",
      "type": "function"
    },
    {
      "inputs": [
        {
          "internalType": "address",
          "name": "operator",
          "type": "address"
        }
      ],
      "name": "updateOperator",
      "outputs": [],
      "stateMutability": "nonpayable",
      "type": "function"
    },
    {
      "inputs": [
        {
          "internalType": "uint256",
          "name": "",
          "type": "uint256"
        }
      ],
      "name": "validatorOwners",
      "outputs": [
        {
          "internalType": "address",
          "name": "",
          "type": "address"
        }
      ],
      "stateMutability": "view",
      "type": "function"
    },
    {
      "inputs": [
        {
          "internalType": "address",
          "name": "",
          "type": "address"
        }
      ],
      "name": "validators",
      "outputs": [
        {
          "internalType": "address",
          "name": "owner",
          "type": "address"
        },
        {
          "internalType": "address",
          "name": "operator",
          "type": "address"
        },
        {
          "internalType": "uint256",
          "name": "lastClaimCommission",
          "type": "uint256"
        }
      ],
      "stateMutability": "view",
      "type": "function"
    }
  ],
  "bytecode": "0x608060405234801561001057600080fd5b5061525b806100206000396000f3fe6080604052600436106101ed5760003560e01c806374e2b63c1161010d578063b7ab4db5116100a0578063dbd61d871161006f578063dbd61d871461064a578063e1aca3411461066a578063e4a8a3431461068a578063f65a5ed2146106aa578063fa52c7d8146106ca57600080fd5b8063b7ab4db5146105be578063c5f9dff0146105d3578063cbc0fac6146105e8578063d1f18ee11461060857600080fd5b80639168ae72116100dc5780639168ae721461051b5780639a99b4f014610551578063ac7475ed14610571578063ad71bd361461059157600080fd5b806374e2b63c146104555780637b520aa81461047a5780637befa74f146104b05780638a11d7c9146104c357600080fd5b806340cddab311610185578063533a339c11610154578063533a339c146103c5578063552164ee146103f55780635efc766e146104155780636b2b33691461043557600080fd5b806340cddab314610333578063428e85621461035757806346dfce7b14610377578063485cc955146103a557600080fd5b8063195afea1116101c1578063195afea11461028357806322226367146102b15780632b47da52146102e65780632ffb688d1461031e57600080fd5b8062fa3d50146101f257806302fb4d8514610214578063158ef93e146102345780631903cf1614610263575b600080fd5b3480156101fe57600080fd5b5061021261020d3660046148b8565b610739565b005b34801561022057600080fd5b5061021261022f3660046148e6565b6107d9565b34801561024057600080fd5b5060005461024e9060ff1681565b60405190151581526020015b60405180910390f35b34801561026f57600080fd5b5061021261027e36600461497b565b610a77565b34801561028f57600080fd5b506102a361029e3660046148e6565b610c86565b60405190815260200161025a565b3480156102bd57600080fd5b506102d16102cc3660046148e6565b610cbb565b6040805192835260208301919091520161025a565b3480156102f257600080fd5b50600154610306906001600160a01b031681565b6040516001600160a01b03909116815260200161025a565b34801561032a57600080fd5b50610212610d89565b34801561033f57600080fd5b50610348610de8565b60405161025a93929190614a99565b34801561036357600080fd5b5061021261037236600461497b565b610efb565b34801561038357600080fd5b50610397610392366004614ad2565b6110fc565b60405161025a929190614b0d565b3480156103b157600080fd5b506102126103c0366004614b32565b6113a6565b3480156103d157600080fd5b506103e56103e0366004614b7f565b61147b565b60405161025a9493929190614bbd565b34801561040157600080fd5b506102a36104103660046148b8565b611599565b34801561042157600080fd5b506103066104303660046148b8565b611765565b34801561044157600080fd5b50610212610450366004614c15565b61178f565b34801561046157600080fd5b506000546103069061010090046001600160a01b031681565b34801561048657600080fd5b50610306610495366004614c15565b6004602052600090815260409020546001600160a01b031681565b6102126104be366004614b7f565b6118b4565b3480156104cf57600080fd5b506104e36104de366004614c15565b611abd565b604080516001600160a01b0390961686529315156020860152911515928401929092526060830191909152608082015260a00161025a565b34801561052757600080fd5b50610306610536366004614c15565b6005602052600090815260409020546001600160a01b031681565b34801561055d57600080fd5b5061021261056c3660046148e6565b611bca565b34801561057d57600080fd5b5061021261058c366004614c15565b611c7a565b34801561059d57600080fd5b506105b16105ac366004614c32565b611cf2565b60405161025a9190614c54565b3480156105ca57600080fd5b506105b1611e25565b3480156105df57600080fd5b50610348611e87565b3480156105f457600080fd5b506102126106033660046148e6565b611f7e565b34801561061457600080fd5b506106286106233660046148e6565b61204c565b604080519415158552921515602085015291830152606082015260800161025a565b34801561065657600080fd5b506102a3610665366004614c67565b6120b0565b34801561067657600080fd5b50610212610685366004614b7f565b6120f6565b34801561069657600080fd5b506102d16106a5366004614ca8565b6122cd565b3480156106b657600080fd5b506103066106c53660046148b8565b6123a8565b3480156106d657600080fd5b506107136106e5366004614c15565b6002602052600090815260409020805460018201546008909201546001600160a01b03918216929091169083565b604080516001600160a01b0394851681529390921660208401529082015260600161025a565b336000818152600260205260409020546001600160a01b03166107775760405162461bcd60e51b815260040161076e90614cdd565b60405180910390fd5b60008054338252600260205260409091206107a09161010090046001600160a01b0316846123b8565b60405182815233907f658f52b34d965c76f54298d43b21ae83217d77033214bdafed998bf6df6b9b059060200160405180910390a25050565b6001600160a01b0380831660009081526004602090815260408083205484168084526002909252909120549091166108235760405162461bcd60e51b815260040161076e90614cdd565b3341146108725760405162461bcd60e51b815260206004820152601e60248201527f73656e646572206d75737420626520626c6f636b2070726f64756365722e0000604482015260640161076e565b6000805460408051633fa4f24560e01b815290516001600160a01b03610100938490041692633fa4f24592600480820193918290030181865afa1580156108bd573d6000803e3d6000fd5b505050506040513d601f19601f820116820180604052508101906108e19190614da3565b905060008060019054906101000a90046001600160a01b03166001600160a01b031663900cf0cf6040518163ffffffff1660e01b8152600401602060405180830381865afa158015610937573d6000803e3d6000fd5b505050506040513d601f19601f8201168201806040525081019061095b9190614dc0565b9050600181116109b85760405162461bcd60e51b815260206004820152602260248201527f6e6f742065786563757461626c6520696e207468652066697273742065706f63604482015261341760f11b606482015260840161076e565b6001600160a01b03808616600090815260046020908152604080832054909316825260029052908120906109ee82858589612482565b82546040519192506001600160a01b0316907f1647efd0ce9727dc31dc201c9d8d35ac687f7370adcacbd454afc6485ddabfda90600090a28015610a6e5781546040518281526001600160a01b03909116907feb7d7a49847ec491969db21a0e31b234565a9923145a2d1b56a75c9e958258029060200160405180910390a25b50505050505050565b6001600160a01b03828116600090815260026020526040902054839116331480610abd57506001600160a01b038181166000908152600260205260409020600101541633145b610ad95760405162461bcd60e51b815260040161076e90614dd9565b6001600160a01b03808416600090815260026020526040902054849116610b125760405162461bcd60e51b815260040161076e90614cdd565b600060019054906101000a90046001600160a01b03166001600160a01b031663d4a536866040518163ffffffff1660e01b8152600401602060405180830381865afa158015610b65573d6000803e3d6000fd5b505050506040513d601f19601f82011682018060405250810190610b899190614e10565b15610ba65760405162461bcd60e51b815260040161076e90614e32565b610c3f600060019054906101000a90046001600160a01b03166001600160a01b031663900cf0cf6040518163ffffffff1660e01b8152600401602060405180830381865afa158015610bfc573d6000803e3d6000fd5b505050506040513d601f19601f82011682018060405250810190610c209190614dc0565b6001600160a01b03861660009081526002602052604090209085612560565b836001600160a01b03167fc11dfc9c24621433bb10587dc4bbae26a33a4aff53914e0d4c9fddf224a8cb7d84604051610c789190614e7c565b60405180910390a250505050565b600080546001600160a01b038481168352600260205260408320610cb3929091610100909104168461256d565b509392505050565b600080610d7e60008411610d4557600060019054906101000a90046001600160a01b03166001600160a01b031663900cf0cf6040518163ffffffff1660e01b8152600401602060405180830381865afa158015610d1c573d6000803e3d6000fd5b505050506040513d601f19601f82011682018060405250810190610d409190614dc0565b610d47565b835b6001600160a01b0386166000908152600260209081526040808320938352600b8401825280832054600c9094019091529020549091565b909590945092505050565b336000908152600560205260409020546001600160a01b0316610dbe5760405162461bcd60e51b815260040161076e90614e8f565b6000805433825260056020526040909120610de69161010090046001600160a01b031661270e565b565b6060806060610eef600060019054906101000a90046001600160a01b03166001600160a01b031663ccfb99356040518163ffffffff1660e01b815260040161010060405180830381865afa158015610e44573d6000803e3d6000fd5b505050506040513d601f19601f82011682018060405250810190610e689190614da3565b600060019054906101000a90046001600160a01b03166001600160a01b031663900cf0cf6040518163ffffffff1660e01b8152600401602060405180830381865afa158015610ebb573d6000803e3d6000fd5b505050506040513d601f19601f82011682018060405250810190610edf9190614dc0565b610eea906001614ed5565b612736565b91959094509092509050565b6001600160a01b03828116600090815260026020526040902054839116331480610f4157506001600160a01b038181166000908152600260205260409020600101541633145b610f5d5760405162461bcd60e51b815260040161076e90614dd9565b6001600160a01b03808416600090815260026020526040902054849116610f965760405162461bcd60e51b815260040161076e90614cdd565b600060019054906101000a90046001600160a01b03166001600160a01b031663d4a536866040518163ffffffff1660e01b8152600401602060405180830381865afa158015610fe9573d6000803e3d6000fd5b505050506040513d601f19601f8201168201806040525081019061100d9190614e10565b1561102a5760405162461bcd60e51b815260040161076e90614e32565b6110c3600060019054906101000a90046001600160a01b03166001600160a01b031663900cf0cf6040518163ffffffff1660e01b8152600401602060405180830381865afa158015611080573d6000803e3d6000fd5b505050506040513d601f19601f820116820180604052508101906110a49190614dc0565b6001600160a01b03861660009081526002602052604090209085612a93565b836001600160a01b03167f0ad9bf1b8c026a174a2f30954417002a6ea00c9b08c1b8846c7951c687be809584604051610c789190614e7c565b6060806000851161118357600060019054906101000a90046001600160a01b03166001600160a01b031663900cf0cf6040518163ffffffff1660e01b8152600401602060405180830381865afa15801561115a573d6000803e3d6000fd5b505050506040513d601f19601f8201168201806040525081019061117e9190614dc0565b611185565b845b945060008411611196576001611198565b835b9350600083116111a95760326111ab565b825b6001600160a01b038716600090815260026020526040812060098101549295509190856111d88882614eed565b6111e29190614f0c565b9050856001600160401b038111156111fc576111fc614912565b604051908082528060200260200182016040528015611225578160200160208202803683370190505b509450856001600160401b0381111561124057611240614912565b604051908082528060200260200182016040528015611269578160200160208202803683370190505b50935060005b6112798888614eed565b821015611399578282141561128d57611399565b6000600560008660090185815481106112a8576112a8614f23565b60009182526020808320909101546001600160a01b039081168452908301939093526040909101902080548951919350909116908890849081106112ee576112ee614f23565b6001600160a01b03928316602091820292909201015285546113159183911660028d612aa0565b855461132e9083906001600160a01b031660018e612aa0565b86546113479084906001600160a01b031660008f612aa0565b6113519190614ed5565b61135b9190614ed5565b86838151811061136d5761136d614f23565b60209081029190910101528161138281614f39565b92505050818061139190614f39565b92505061126f565b5050505094509492505050565b3341146113f55760405162461bcd60e51b815260206004820152601e60248201527f73656e646572206d75737420626520626c6f636b2070726f64756365722e0000604482015260640161076e565b60005460ff161561143f5760405162461bcd60e51b815260206004820152601460248201527330b63932b0b23c9034b734ba34b0b634bd32b21760611b604482015260640161076e565b6000805460016001600160a81b03199091166101006001600160a01b039586160217811790915580546001600160a01b03191691909216179055565b60608060608060038054806020026020016040519081016040528092919081815260200182805480156114d757602002820191906000526020600020905b81546001600160a01b031681526001909101906020018083116114b9575b5050505050935061158a6003876000881161156857600060019054906101000a90046001600160a01b03166001600160a01b031663900cf0cf6040518163ffffffff1660e01b8152600401602060405180830381865afa15801561153f573d6000803e3d6000fd5b505050506040513d601f19601f820116820180604052508101906115639190614dc0565b61156a565b875b6001600160a01b038b166000908152600560205260409020929190612b61565b95999198509650939450505050565b600080600183600060019054906101000a90046001600160a01b03166001600160a01b031663900cf0cf6040518163ffffffff1660e01b8152600401602060405180830381865afa1580156115f2573d6000803e3d6000fd5b505050506040513d601f19601f820116820180604052508101906116169190614dc0565b6116209190614f0c565b61162a9190614f0c565b9050600080600060019054906101000a90046001600160a01b03166001600160a01b0316639cf370d76040518163ffffffff1660e01b8152600401600060405180830381865afa158015611682573d6000803e3d6000fd5b505050506040513d6000823e601f3d908101601f191682016040526116aa9190810190614fc4565b9150915060005b8581101561175c576116c4600185614ed5565b935060006116d3848487612d61565b905060005b60035481101561174757611729828760026000600386815481106116fe576116fe614f23565b60009182526020808320909101546001600160a01b0316835282019290925260400190209190612e3b565b6117339088614ed5565b96508061173f81614f39565b9150506116d8565b5050808061175490614f39565b9150506116b1565b50505050919050565b6003818154811061177557600080fd5b6000918252602090912001546001600160a01b0316905081565b60015460405163322433e360e01b81523360048201526001600160a01b039091169063322433e390602401602060405180830381865afa1580156117d7573d6000803e3d6000fd5b505050506040513d601f19601f820116820180604052508101906117fb9190614e10565b6118365760405162461bcd60e51b815260206004820152600c60248201526b3737ba1030b63637bbb2b21760a11b604482015260640161076e565b33600090815260026020526040902061184f9082612f6d565b60038054600181019091557fc2575a0e9e593c00f959f8c92f12db2869c3395a3b0502d05e2516446f71f85b018054336001600160a01b031991821681179092556001600160a01b039290921660009081526004602052604090208054909216179055565b6001600160a01b038084166000908152600260205260409020548491166118ed5760405162461bcd60e51b815260040161076e90614cdd565b600060019054906101000a90046001600160a01b03166001600160a01b031663d4a536866040518163ffffffff1660e01b8152600401602060405180830381865afa158015611940573d6000803e3d6000fd5b505050506040513d601f19601f820116820180604052508101906119649190614e10565b156119815760405162461bcd60e51b815260040161076e90614e32565b600082116119c35760405162461bcd60e51b815260206004820152600f60248201526e30b6b7bab73a1034b9903d32b9379760891b604482015260640161076e565b6119ce833384612fd1565b33600090815260056020526040902080546001600160a01b0316611a3a578054336001600160a01b031991821681178355600680546001810182556000919091527ff652222313e28459528d920b65115c16c04f3efc82aaedc97be59f3f377c0d3f0180549092161790555b600080546001600160a01b03878116835260026020526040909220611a69928492610100900416908787613152565b846001600160a01b0316336001600160a01b03167f8fc656e319452025372383dc27d933046d412b8253de50a10739eeaa59862be68686604051611aae929190615095565b60405180910390a35050505050565b60008060008060008060026000886001600160a01b03166001600160a01b03168152602001908152602001600020905060008060019054906101000a90046001600160a01b03166001600160a01b031663900cf0cf6040518163ffffffff1660e01b8152600401602060405180830381865afa158015611b41573d6000803e3d6000fd5b505050506040513d601f19601f82011682018060405250810190611b659190614dc0565b600183015460008281526002850160205260409020549192506001600160a01b03169060ff16600083815260038501602052604090205490159060ff16611bac858561328c565b611bb6868661329f565b939c929b5090995097509095509350505050565b6001600160a01b03808316600090815260026020526040902054839116611c035760405162461bcd60e51b815260040161076e90614cdd565b336000908152600560205260409020546001600160a01b0316611c385760405162461bcd60e51b815260040161076e90614e8f565b600080546001600160a01b0385811683526002602090815260408085203386526005909252909320611c75939092610100900490911690856132b2565b505050565b336000818152600260205260409020546001600160a01b0316611caf5760405162461bcd60e51b815260040161076e90614cdd565b336000908152600260205260409020611cc890836132fe565b506001600160a01b0316600090815260046020526040902080546001600160a01b03191633179055565b606060008311611d03576001611d05565b825b925060008211611d16576032611d18565b815b600654909250600083611d2b8682614eed565b611d359190614f0c565b90506000846001600160401b03811115611d5157611d51614912565b604051908082528060200260200182016040528015611d7a578160200160208202803683370190505b50905060005b611d8a8787614eed565b831015611e195783831415611d9e57611e19565b60068381548110611db157611db1614f23565b9060005260206000200160009054906101000a90046001600160a01b0316828281518110611de157611de1614f23565b6001600160a01b039092166020928302919091019091015280611e0381614f39565b9150508280611e1190614f39565b935050611d80565b50925050505b92915050565b60606003805480602002602001604051908101604052809291908181526020018280548015611e7d57602002820191906000526020600020905b81546001600160a01b03168152600190910190602001808311611e5f575b5050505050905090565b6060806060610eef600060019054906101000a90046001600160a01b03166001600160a01b0316633fa4f2456040518163ffffffff1660e01b815260040161010060405180830381865afa158015611ee3573d6000803e3d6000fd5b505050506040513d601f19601f82011682018060405250810190611f079190614da3565b600060019054906101000a90046001600160a01b03166001600160a01b031663900cf0cf6040518163ffffffff1660e01b8152600401602060405180830381865afa158015611f5a573d6000803e3d6000fd5b505050506040513d601f19601f82011682018060405250810190610eea9190614dc0565b6001600160a01b03828116600090815260026020526040902054839116331480611fc457506001600160a01b038181166000908152600260205260409020600101541633145b611fe05760405162461bcd60e51b815260040161076e90614dd9565b6001600160a01b038084166000908152600260205260409020548491166120195760405162461bcd60e51b815260040161076e90614cdd565b600080546001600160a01b03868116835260026020526040909220612046929091610100900416856133d6565b50505050565b6001600160a01b03821660009081526002602081815260408084208585529283018252808420546003840190925283205483928392839260ff918216159116612095838961328c565b61209f848a61329f565b929a91995097509095509350505050565b600080546001600160a01b0384811683526002602090815260408085208884168652600590925284206120ed93909261010090910416908561340e565b50949350505050565b6001600160a01b0380841660009081526002602052604090205484911661212f5760405162461bcd60e51b815260040161076e90614cdd565b336000908152600560205260409020546001600160a01b03166121645760405162461bcd60e51b815260040161076e90614e8f565b600060019054906101000a90046001600160a01b03166001600160a01b031663d4a536866040518163ffffffff1660e01b8152600401602060405180830381865afa1580156121b7573d6000803e3d6000fd5b505050506040513d601f19601f820116820180604052508101906121db9190614e10565b156121f85760405162461bcd60e51b815260040161076e90614e32565b6000821161223a5760405162461bcd60e51b815260206004820152600f60248201526e30b6b7bab73a1034b9903d32b9379760891b604482015260640161076e565b600080546001600160a01b03868116835260026020908152604080852033865260059092529093206122789390926101009004909116908686613619565b9150836001600160a01b0316336001600160a01b03167ff2812c3df2511a467cbe777b1ee98b1ddb9918bb0f09568a269d2fb58233cb5285856040516122bf929190615095565b60405180910390a350505050565b600080600060056000866001600160a01b03166001600160a01b03168152602001908152602001600020905061237f600385600060019054906101000a90046001600160a01b03166001600160a01b031663900cf0cf6040518163ffffffff1660e01b8152600401602060405180830381865afa158015612352573d6000803e3d6000fd5b505050506040513d601f19601f820116820180604052508101906123769190614dc0565b84929190613800565b60005461239c90839061010090046001600160a01b03168761385d565b92509250509250929050565b6006818154811061177557600080fd5b60648111156124025760405162461bcd60e51b815260206004820152601660248201527536bab9ba103132903632b9b9903a3430b7101898181760511b604482015260640161076e565b611c7583600501836001600160a01b031663900cf0cf6040518163ffffffff1660e01b8152600401602060405180830381865afa158015612447573d6000803e3d6000fd5b505050506040513d601f19601f8201168201806040525081019061246b9190614dc0565b612476906001614ed5565b60048601919084613a83565b6000828152600b850160205260408120546124ab576000838152600b8601602052604090208290555b6000838152600c860160205260408120546124c7906001614ed5565b6000858152600c88016020526040902081905560c0860151909150811080159061251357506003860160006124fd866001614ed5565b815260208101919091526040016000205460ff16155b156120ed5760e08501516125279085614ed5565b91505b818410156120ed578361253c81614f39565b60008181526003890160205260409020805460ff19166001179055945061252a9050565b611c758383836000613ac2565b6000808460080154905060006001856001600160a01b031663900cf0cf6040518163ffffffff1660e01b8152600401602060405180830381865afa1580156125b9573d6000803e3d6000fd5b505050506040513d601f19601f820116820180604052508101906125dd9190614dc0565b6125e79190614f0c565b90508315806125fe5750806125fc8386614ed5565b115b156126105761260d8282614f0c565b93505b600080866001600160a01b0316639cf370d76040518163ffffffff1660e01b8152600401600060405180830381865afa158015612651573d6000803e3d6000fd5b505050506040513d6000823e601f3d908101601f191682016040526126799190810190614fc4565b9150915060005b8681101561270257612693600186614ed5565b945060006126ac8a6126a686868a612d61565b88612e3b565b9050806126b957506126f0565b60006126c58b8861329f565b9050806126d35750506126f0565b6126e1828260646019613b47565b6126eb9089614ed5565b975050505b806126fa81614f39565b915050612680565b50505050935093915050565b61271a82826001613b73565b61272682826002613b73565b61273282826000613b73565b5050565b606080606060006003805490506001600160401b0381111561275a5761275a614912565b604051908082528060200260200182016040528015612783578160200160208202803683370190505b5090506000805b6003548110156128a757600060026000600384815481106127ad576127ad614f23565b60009182526020808320909101546001600160a01b0316835282810193909352604091820181208b825260028101909352205490915060ff16156127f15750612895565b600088815260038201602052604090205460ff16156128105750612895565b60a089015161281f828a61328c565b101561282b5750612895565b6003828154811061283e5761283e614f23565b9060005260206000200160009054906101000a90046001600160a01b031684848151811061286e5761286e614f23565b6001600160a01b03909216602092830291909101909101528261289081614f39565b935050505b8061289f81614f39565b91505061278a565b50806001600160401b038111156128c0576128c0614912565b6040519080825280602002602001820160405280156128e9578160200160208202803683370190505b509450806001600160401b0381111561290457612904614912565b60405190808252806020026020018201604052801561292d578160200160208202803683370190505b509350806001600160401b0381111561294857612948614912565b604051908082528060200260200182016040528015612971578160200160208202803683370190505b50925060005b81811015612a895782818151811061299157612991614f23565b60200260200101518682815181106129ab576129ab614f23565b60200260200101906001600160a01b031690816001600160a01b0316815250506000600260008584815181106129e3576129e3614f23565b60200260200101516001600160a01b03166001600160a01b0316815260200190815260200160002090508060010160009054906101000a90046001600160a01b0316868381518110612a3757612a37614f23565b6001600160a01b0390921660209283029190910190910152612a59818961328c565b858381518110612a6b57612a6b614f23565b60209081029190910101525080612a8181614f39565b915050612977565b5050509250925092565b611c758383836001613ac2565b6000612b56856002016000856002811115612abd57612abd61507f565b6002811115612ace57612ace61507f565b81526020019081526020016000206000866001600160a01b03166001600160a01b0316815260200190815260200160002083876001016000876002811115612b1857612b1861507f565b6002811115612b2957612b2961507f565b8152602080820192909252604090810160009081206001600160a01b038b16825290925290209190613e8d565b90505b949350505050565b606080606085805490506001600160401b03811115612b8257612b82614912565b604051908082528060200260200182016040528015612bab578160200160208202803683370190505b5086549093506001600160401b03811115612bc857612bc8614912565b604051908082528060200260200182016040528015612bf1578160200160208202803683370190505b5086549092506001600160401b03811115612c0e57612c0e614912565b604051908082528060200260200182016040528015612c37578160200160208202803683370190505b50905060005b8654811015612d56576000612c7a89898481548110612c5e57612c5e614f23565b6000918252602090912001546001600160a01b03168989612aa0565b90506000612cba8a8a8581548110612c9457612c94614f23565b6000918252602090912001546001600160a01b03168a612cb58b6001614ed5565b612aa0565b905081868481518110612ccf57612ccf614f23565b60200260200101818152505081811115612d1057612ced8282614f0c565b858481518110612cff57612cff614f23565b602002602001018181525050612d41565b81811015612d4157612d228183614f0c565b848481518110612d3457612d34614f23565b6020026020010181815250505b50508080612d4e90614f39565b915050612c3d565b509450945094915050565b612da960405180610100016040528060008152602001600081526020016000815260200160008152602001600081526020016000815260200160008152602001600081525090565b818460018651612db99190614f0c565b81518110612dc957612dc9614f23565b602002602001015111612e04578260018551612de59190614f0c565b81518110612df557612df5614f23565b60200260200101519050612e34565b6000612e14858460008851613f67565b9050838181518110612e2857612e28614f23565b60200260200101519150505b9392505050565b600081815260028401602052604081205460ff1680612e6a5750600082815260038501602052604090205460ff165b15612e7757506000612e34565b6000612e83858461328c565b905080612e94576000915050612e34565b6000612ea26019600a6151a5565b612eb3866080015160646019614009565b612ebd9084614eed565b612ec791906151b1565b905080612ed957600092505050612e34565b612efc85606001518660400151612ef09190614eed565b6301e133806019614009565b612f069082614eed565b9050612f146019600a6151a5565b612f1e90826151b1565b6000858152600c880160205260409020549091508015612f63576000858152600b88016020526040902054612f5f83612f578484614f0c565b836019613b47565b9250505b5095945050505050565b81546001600160a01b031615612fb75760405162461bcd60e51b815260206004820152600f60248201526e30b63932b0b23c903537b4b732b21760891b604482015260640161076e565b81546001600160a01b0319163317825561273282826132fe565b6000836002811115612fe557612fe561507f565b141561303a57803414611c755760405162461bcd60e51b815260206004820152601f60248201527f6d73672e76616c756520616e6420616d6f756e74206e6f74206d617463682e00604482015260640161076e565b34156130885760405162461bcd60e51b815260206004820152601760248201527f6d73672e76616c7565206d757374206265207a65726f2e000000000000000000604482015260640161076e565b6130918361404f565b6040516323b872dd60e01b81526001600160a01b0384811660048301523060248301526044820184905291909116906323b872dd906064015b6020604051808303816000875af11580156130e9573d6000803e3d6000fd5b505050506040513d601f19601f8201168201806040525081019061310d9190614e10565b611c755760405162461bcd60e51b815260206004820152601660248201527522a9219918103a3930b739b332b9103330b4b632b21760511b604482015260640161076e565b61326c85600201600084600281111561316d5761316d61507f565b600281111561317e5761317e61507f565b81526020808201929092526040908101600090812087546001600160a01b03908116835290845290829020825163900cf0cf60e01b8152925190939189169263900cf0cf9260048083019391928290030181865afa1580156131e4573d6000803e3d6000fd5b505050506040513d601f19601f820116820180604052508101906132089190614dc0565b613213906001614ed5565b8388600101600087600281111561322c5761322c61507f565b600281111561323d5761323d61507f565b8152602080820192909252604090810160009081208a546001600160a01b0316825290925290209291906140de565b845461328590849086906001600160a01b03168461412f565b5050505050565b6000612e34600684016007850184613e8d565b6000612e34600484016005850184613e8d565b6000806132c18686868661340e565b85546001600160a01b031660009081526005890160205260409020819055909250905081156132f6576132f66000338461421d565b505050505050565b6001600160a01b0381166133545760405162461bcd60e51b815260206004820152601960248201527f6f70657261746f72206973207a65726f20616464726573732e00000000000000604482015260640161076e565b81546001600160a01b03828116911614156133b15760405162461bcd60e51b815260206004820152601a60248201527f6f70657261746f722069732073616d65206173206f776e65722e000000000000604482015260640161076e565b60019190910180546001600160a01b0319166001600160a01b03909216919091179055565b6000806133e485858561256d565b6008870181905590925090508115613285578454613285906000906001600160a01b03168461421d565b81546001600160a01b039081166000908152600586016020908152604080832054815163900cf0cf60e01b81529151939490938593600193928a169263900cf0cf92600480830193928290030181865afa158015613470573d6000803e3d6000fd5b505050506040513d601f19601f820116820180604052508101906134949190614dc0565b61349e9190614f0c565b90508315806134b55750806134b38386614ed5565b115b156134c7576134c48282614f0c565b93505b600080876001600160a01b0316639cf370d76040518163ffffffff1660e01b8152600401600060405180830381865afa158015613508573d6000803e3d6000fd5b505050506040513d6000823e601f3d908101601f191682016040526135309190810190614fc4565b9150915060005b868110156113995761354a600186614ed5565b8854909550600090613569908c906001600160a01b0316600289612aa0565b8954613582908d906001600160a01b031660018a612aa0565b8a5461359b908e906001600160a01b031660008b612aa0565b6135a59190614ed5565b6135af9190614ed5565b9050806135bc5750613607565b60006135d46135cc86868a612d61565b8b908961432b565b9050806135e2575050613607565b6135f881836135f18d8b61328c565b6019613b47565b6136029089614ed5565b975050505b8061361181614f39565b915050613537565b600080856001600160a01b031663900cf0cf6040518163ffffffff1660e01b8152600401602060405180830381865afa15801561365a573d6000803e3d6000fd5b505050506040513d601f19601f8201168201806040525081019061367e9190614dc0565b855490915060009061369c9089906001600160a01b03168785612aa0565b86549091506000906136bf908a906001600160a01b031688612cb5876001614ed5565b90506137788960020160008860028111156136dc576136dc61507f565b60028111156136ed576136ed61507f565b8152602080820192909252604090810160009081208b546001600160a01b03168252909252902061371f856001614ed5565b878c60010160008b60028111156137385761373861507f565b60028111156137495761374961507f565b8152602080820192909252604090810160009081208e546001600160a01b031682529092529020929190614387565b94508461378b57600093505050506137f7565b613796878987614427565b846000838311156137cb576137ab8484614f0c565b90508087106137ba57806137bc565b865b90506137c88183614f0c565b91505b81156137dd576137dd8b8b8a856144a7565b80156137ee576137ee88338361421d565b86955050505050505b95945050505050565b6000805b84548110156120ed5761383f8686838154811061382357613823614f23565b6000918252602090912001546001600160a01b03168686612aa0565b6138499083614ed5565b91508061385581614f39565b915050613804565b6000808460030160008460028111156138785761387861507f565b60028111156138895761388961507f565b81526020810191909152604001600020549050806138ab576000915050612e34565b6000846001600160a01b031663900cf0cf6040518163ffffffff1660e01b8152600401602060405180830381865afa1580156138eb573d6000803e3d6000fd5b505050506040513d601f19601f8201168201806040525081019061390f9190614dc0565b9050600061391e600184614f0c565b90506000811180156139815750818760030160008760028111156139445761394461507f565b60028111156139555761395561507f565b8152602001908152602001600020828154811061397457613974614f23565b9060005260206000200154115b156139945780613990816151d3565b9150505b818760030160008760028111156139ad576139ad61507f565b60028111156139be576139be61507f565b815260200190815260200160002082815481106139dd576139dd614f23565b906000526020600020015411156139fa5760009350505050612e34565b6000805b828111613a7757886004016000886002811115613a1d57613a1d61507f565b6002811115613a2e57613a2e61507f565b81526020019081526020016000208181548110613a4d57613a4d614f23565b906000526020600020015482613a639190614ed5565b915080613a6f81614f39565b9150506139fe565b50979650505050505050565b613a8e8484846146e6565b835481908490613aa090600190614f0c565b81548110613ab057613ab0614f23565b60009182526020909120015550505050565b60005b8251811015613285576000838281518110613ae257613ae2614f23565b602002602001015190508481118015613b125750600081815260028701602052604090205460ff16151583151514155b15613b345760008181526002870160205260409020805460ff19168415151790555b5080613b3f81614f39565b915050613ac5565b6000613b5482600a6151a5565b613b5f858585614009565b613b699087614eed565b612b5691906151b1565b6000613b8084848461385d565b905080613b8d5750505050565b6000846003016000846002811115613ba757613ba761507f565b6002811115613bb857613bb861507f565b8152602001908152602001600020805490509050836001600160a01b031663900cf0cf6040518163ffffffff1660e01b8152600401602060405180830381865afa158015613c0a573d6000803e3d6000fd5b505050506040513d601f19601f82011682018060405250810190613c2e9190614dc0565b856003016000856002811115613c4657613c4661507f565b6002811115613c5757613c5761507f565b8152602001908152602001600020600183613c729190614f0c565b81548110613c8257613c82614f23565b906000526020600020015411613d1d57846003016000846002811115613caa57613caa61507f565b6002811115613cbb57613cbb61507f565b81526020019081526020016000206000613cd59190614837565b846004016000846002811115613ced57613ced61507f565b6002811115613cfe57613cfe61507f565b81526020019081526020016000206000613d189190614837565b613e82565b6040518060200160405280866003016000866002811115613d4057613d4061507f565b6002811115613d5157613d5161507f565b8152602001908152602001600020600184613d6c9190614f0c565b81548110613d7c57613d7c614f23565b9060005260206000200154815250856003016000856002811115613da257613da261507f565b6002811115613db357613db361507f565b81526020810191909152604001600020613dce916001614858565b506040518060200160405280866004016000866002811115613df257613df261507f565b6002811115613e0357613e0361507f565b8152602001908152602001600020600184613e1e9190614f0c565b81548110613e2e57613e2e614f23565b9060005260206000200154815250856004016000856002811115613e5457613e5461507f565b6002811115613e6557613e6561507f565b81526020810191909152604001600020613e80916001614858565b505b61328583338461421d565b82546000901580613eba57508184600081548110613ead57613ead614f23565b9060005260206000200154115b15613ec757506000612e34565b835482908590613ed990600190614f0c565b81548110613ee957613ee9614f23565b906000526020600020015411613f2b5783548390613f0990600190614f0c565b81548110613f1957613f19614f23565b90600052602060002001549050612e34565b6000613f3e85846000888054905061479e565b9050838181548110613f5257613f52614f23565b90600052602060002001549150509392505050565b600081831415613f8357613f7c600183614f0c565b9050612b59565b60006002613f918486614ed5565b613f9b91906151b1565b905084868281518110613fb057613fb0614f23565b60200260200101511115613fd257613fca86868684613f67565b915050612b59565b84868281518110613fe557613fe5614f23565b60200260200101511015612b5657613fca8686614003846001614ed5565b86613f67565b600080614017836001614ed5565b61402290600a6151a5565b61402c9086614eed565b9050600a61403a85836151b1565b614045906005614ed5565b6137f791906151b1565b600060018260028111156140655761406561507f565b141561407957506001602960991b01919050565b600282600281111561408d5761408d61507f565b14156140a157506002602960991b01919050565b60405162461bcd60e51b81526020600482015260126024820152713ab739bab83837b93a32b2103a37b5b2b71760711b604482015260640161076e565b6140e98484846146e6565b8354819084906140fb90600190614f0c565b8154811061410b5761410b614f23565b9060005260206000200160008282546141249190614ed5565b909155505050505050565b6001600160a01b0382166000908152600a8501602052604090205460ff1661419d576001600160a01b0382166000818152600a8601602090815260408220805460ff191660019081179091556009880180549182018155835291200180546001600160a01b03191690911790555b61204684600701846001600160a01b031663900cf0cf6040518163ffffffff1660e01b8152600401602060405180830381865afa1580156141e2573d6000803e3d6000fd5b505050506040513d601f19601f820116820180604052508101906142069190614dc0565b614211906001614ed5565b600687019190846140de565b60008360028111156142315761423161507f565b14156142eb57604080516000808252602082019092526001600160a01b03841690839060405161426191906151ea565b60006040518083038185875af1925050503d806000811461429e576040519150601f19603f3d011682016040523d82523d6000602084013e6142a3565b606091505b50509050806120465760405162461bcd60e51b815260206004820152601460248201527327a0a9903a3930b739b332b9103330b4b632b21760611b604482015260640161076e565b6142f48361404f565b60405163a9059cbb60e01b81526001600160a01b03848116600483015260248201849052919091169063a9059cbb906044016130ca565b600080614339858585612e3b565b90508061434a576000915050612e34565b6000614356868561329f565b90508061436557509050612e34565b614373828260646019613b47565b61437d9083614f0c565b9695505050505050565b60006143948585856146e6565b845460009085906143a790600190614f0c565b815481106143b7576143b7614f23565b90600052602060002001549050808311156143d257806143d4565b825b9250821561441d578554839086906143ee90600190614f0c565b815481106143fe576143fe614f23565b9060005260206000200160008282546144179190614f0c565b90915550505b5090949350505050565b61204683600701836001600160a01b031663900cf0cf6040518163ffffffff1660e01b8152600401602060405180830381865afa15801561446c573d6000803e3d6000fd5b505050506040513d601f19601f820116820180604052508101906144909190614dc0565b61449b906001614ed5565b60068601919084614387565b6000836001600160a01b031663900cf0cf6040518163ffffffff1660e01b8152600401602060405180830381865afa1580156144e7573d6000803e3d6000fd5b505050506040513d601f19601f8201168201806040525081019061450b9190614dc0565b614516906001614ed5565b905060008560030160008560028111156145325761453261507f565b60028111156145435761454361507f565b815260208101919091526040016000205490508015806145c15750818660030160008660028111156145775761457761507f565b60028111156145885761458861507f565b81526020019081526020016000206001836145a39190614f0c565b815481106145b3576145b3614f23565b906000526020600020015414155b1561466b578560030160008560028111156145de576145de61507f565b60028111156145ef576145ef61507f565b815260208082019290925260400160009081208054600181018255908252918120909101839055600487019085600281111561462d5761462d61507f565b600281111561463e5761463e61507f565b81526020808201929092526040016000908120805460018101825590825291902001839055506120469050565b828660040160008660028111156146845761468461507f565b60028111156146955761469561507f565b81526020019081526020016000206001836146b09190614f0c565b815481106146c0576146c0614f23565b9060005260206000200160008282546146d99190614ed5565b9091555050505050505050565b82548061471057508254600181810185556000948552602085209091019190915581540181559052565b60008461471e600184614f0c565b8154811061472e5761472e614f23565b9060005260206000200154905082811461328557845460018181018755600087815260209020909101849055849081906147689085614f0c565b8154811061477857614778614f23565b600091825260208083209091015483546001810185559383529120909101555050505050565b6000818314156147b357613f7c600183614f0c565b600060026147c18486614ed5565b6147cb91906151b1565b9050848682815481106147e0576147e0614f23565b906000526020600020015411156147fd57613fca8686868461479e565b8486828154811061481057614810614f23565b90600052602060002001541015612b5657613fca8686614831846001614ed5565b8661479e565b508054600082559060005260206000209081019061485591906148a3565b50565b828054828255906000526020600020908101928215614893579160200282015b82811115614893578251825591602001919060010190614878565b5061489f9291506148a3565b5090565b5b8082111561489f57600081556001016148a4565b6000602082840312156148ca57600080fd5b5035919050565b6001600160a01b038116811461485557600080fd5b600080604083850312156148f957600080fd5b8235614904816148d1565b946020939093013593505050565b634e487b7160e01b600052604160045260246000fd5b604051601f8201601f191681016001600160401b038111828210171561495057614950614912565b604052919050565b60006001600160401b0382111561497157614971614912565b5060051b60200190565b6000806040838503121561498e57600080fd5b8235614999816148d1565b91506020838101356001600160401b038111156149b557600080fd5b8401601f810186136149c657600080fd5b80356149d96149d482614958565b614928565b81815260059190911b820183019083810190888311156149f857600080fd5b928401925b82841015614a16578335825292840192908401906149fd565b80955050505050509250929050565b600081518084526020808501945080840160005b83811015614a5e5781516001600160a01b031687529582019590820190600101614a39565b509495945050505050565b600081518084526020808501945080840160005b83811015614a5e57815187529582019590820190600101614a7d565b606081526000614aac6060830186614a25565b8281036020840152614abe8186614a25565b9050828103604084015261437d8185614a69565b60008060008060808587031215614ae857600080fd5b8435614af3816148d1565b966020860135965060408601359560600135945092505050565b604081526000614b206040830185614a25565b82810360208401526137f78185614a69565b60008060408385031215614b4557600080fd5b8235614b50816148d1565b91506020830135614b60816148d1565b809150509250929050565b803560038110614b7a57600080fd5b919050565b600080600060608486031215614b9457600080fd5b8335614b9f816148d1565b9250614bad60208501614b6b565b9150604084013590509250925092565b608081526000614bd06080830187614a25565b8281036020840152614be28187614a69565b90508281036040840152614bf68186614a69565b90508281036060840152614c0a8185614a69565b979650505050505050565b600060208284031215614c2757600080fd5b8135612e34816148d1565b60008060408385031215614c4557600080fd5b50508035926020909101359150565b602081526000612e346020830184614a25565b600080600060608486031215614c7c57600080fd5b8335614c87816148d1565b92506020840135614c97816148d1565b929592945050506040919091013590565b60008060408385031215614cbb57600080fd5b8235614cc6816148d1565b9150614cd460208401614b6b565b90509250929050565b60208082526019908201527f76616c696461746f7220646f6573206e6f742065786973742e00000000000000604082015260600190565b6000610100808385031215614d2857600080fd5b604051908101906001600160401b0382118183101715614d4a57614d4a614912565b81604052809250835181526020840151602082015260408401516040820152606084015160608201526080840151608082015260a084015160a082015260c084015160c082015260e084015160e0820152505092915050565b60006101008284031215614db657600080fd5b612e348383614d14565b600060208284031215614dd257600080fd5b5051919050565b6020808252601e908201527f796f7520617265206e6f74206f776e6572206f72206f70657261746f722e0000604082015260600190565b600060208284031215614e2257600080fd5b81518015158114612e3457600080fd5b6020808252602a908201527f6e6f742065786563757461626c6520696e20746865206c61737420626c6f636b6040820152691037b31032b837b1b41760b11b606082015260800190565b602081526000612e346020830184614a69565b60208082526016908201527539ba30b5b2b9103237b2b9903737ba1032bc34b9ba1760511b604082015260600190565b634e487b7160e01b600052601160045260246000fd5b60008219821115614ee857614ee8614ebf565b500190565b6000816000190483118215151615614f0757614f07614ebf565b500290565b600082821015614f1e57614f1e614ebf565b500390565b634e487b7160e01b600052603260045260246000fd5b6000600019821415614f4d57614f4d614ebf565b5060010190565b600082601f830112614f6557600080fd5b81516020614f756149d483614958565b82815260089290921b84018101918181019086841115614f9457600080fd5b8286015b84811015614fb957614faa8882614d14565b83529183019161010001614f98565b509695505050505050565b60008060408385031215614fd757600080fd5b82516001600160401b0380821115614fee57600080fd5b818501915085601f83011261500257600080fd5b815160206150126149d483614958565b82815260059290921b8401810191818101908984111561503157600080fd5b948201945b8386101561504f57855182529482019490820190615036565b9188015191965090935050508082111561506857600080fd5b5061507585828601614f54565b9150509250929050565b634e487b7160e01b600052602160045260246000fd5b60408101600384106150b757634e487b7160e01b600052602160045260246000fd5b9281526020015290565b600181815b808511156150fc5781600019048211156150e2576150e2614ebf565b808516156150ef57918102915b93841c93908002906150c6565b509250929050565b60008261511357506001611e1f565b8161512057506000611e1f565b816001811461513657600281146151405761515c565b6001915050611e1f565b60ff84111561515157615151614ebf565b50506001821b611e1f565b5060208310610133831016604e8410600b841016171561517f575081810a611e1f565b61518983836150c1565b806000190482111561519d5761519d614ebf565b029392505050565b6000612e348383615104565b6000826151ce57634e487b7160e01b600052601260045260246000fd5b500490565b6000816151e2576151e2614ebf565b506000190190565b6000825160005b8181101561520b57602081860181015185830152016151f1565b8181111561521a576000828501525b50919091019291505056fea26469706673582212206d35ad40753b4efca1a8211329cb6a77608fbce8ebfd28fe91620f9aefbdba3764736f6c634300080c0033",
  "linkReferences": {},
  "deployedLinkReferences": {}
}