{
  "_format": "hh-sol-artifact-1",
  "contractName": "AddressList",
  "sourceName": "contracts/lib/AddressList.sol",
  "abi": [
    {
      "inputs": [],
      "name": "NullAddress",
      "type": "error"
    },
    {
      "anonymous": false,
      "inputs": [
        {
          "indexed": true,
          "internalType": "address",
          "name": "_address",
          "type": "address"
        }
      ],
      "name": "Added",
      "type": "event"
    },
    {
      "anonymous": false,
      "inputs": [
        {
          "indexed": true,
          "internalType": "address",
          "name": "previousOwner",
          "type": "address"
        },
        {
          "indexed": true,
          "internalType": "address",
          "name": "newOwner",
          "type": "address"
        }
      ],
      "name": "OwnershipTransferred",
      "type": "event"
    },
    {
      "anonymous": false,
      "inputs": [
        {
          "indexed": true,
          "internalType": "address",
          "name": "_address",
          "type": "address"
        }
      ],
      "name": "Removed",
      "type": "event"
    },
    {
      "inputs": [
        {
          "internalType": "address",
          "name": "_address",
          "type": "address"
        }
      ],
      "name": "add",
      "outputs": [
        {
          "internalType": "bool",
          "name": "result",
          "type": "bool"
        }
      ],
      "stateMutability": "nonpayable",
      "type": "function"
    },
    {
      "inputs": [
        {
          "internalType": "address[]",
          "name": "addresses",
          "type": "address[]"
        }
      ],
      "name": "adds",
      "outputs": [
        {
          "internalType": "bool[]",
          "name": "results",
          "type": "bool[]"
        }
      ],
      "stateMutability": "nonpayable",
      "type": "function"
    },
    {
      "inputs": [
        {
          "internalType": "address",
          "name": "_address",
          "type": "address"
        }
      ],
      "name": "has",
      "outputs": [
        {
          "internalType": "bool",
          "name": "",
          "type": "bool"
        }
      ],
      "stateMutability": "view",
      "type": "function"
    },
    {
      "inputs": [],
      "name": "length",
      "outputs": [
        {
          "internalType": "uint256",
          "name": "",
          "type": "uint256"
        }
      ],
      "stateMutability": "view",
      "type": "function"
    },
    {
      "inputs": [
        {
          "internalType": "uint256",
          "name": "cursor",
          "type": "uint256"
        },
        {
          "internalType": "uint256",
          "name": "howMany",
          "type": "uint256"
        }
      ],
      "name": "list",
      "outputs": [
        {
          "internalType": "address[]",
          "name": "addresses",
          "type": "address[]"
        },
        {
          "internalType": "uint256",
          "name": "newCursor",
          "type": "uint256"
        }
      ],
      "stateMutability": "view",
      "type": "function"
    },
    {
      "inputs": [
        {
          "internalType": "address",
          "name": "_address",
          "type": "address"
        }
      ],
      "name": "next",
      "outputs": [
        {
          "internalType": "address",
          "name": "",
          "type": "address"
        }
      ],
      "stateMutability": "view",
      "type": "function"
    },
    {
      "inputs": [],
      "name": "owner",
      "outputs": [
        {
          "internalType": "address",
          "name": "",
          "type": "address"
        }
      ],
      "stateMutability": "view",
      "type": "function"
    },
    {
      "inputs": [
        {
          "internalType": "address",
          "name": "_address",
          "type": "address"
        }
      ],
      "name": "prev",
      "outputs": [
        {
          "internalType": "address",
          "name": "",
          "type": "address"
        }
      ],
      "stateMutability": "view",
      "type": "function"
    },
    {
      "inputs": [
        {
          "internalType": "address",
          "name": "_address",
          "type": "address"
        }
      ],
      "name": "remove",
      "outputs": [
        {
          "internalType": "bool",
          "name": "result",
          "type": "bool"
        }
      ],
      "stateMutability": "nonpayable",
      "type": "function"
    },
    {
      "inputs": [
        {
          "internalType": "address[]",
          "name": "addresses",
          "type": "address[]"
        }
      ],
      "name": "removes",
      "outputs": [
        {
          "internalType": "bool[]",
          "name": "results",
          "type": "bool[]"
        }
      ],
      "stateMutability": "nonpayable",
      "type": "function"
    },
    {
      "inputs": [],
      "name": "renounceOwnership",
      "outputs": [],
      "stateMutability": "nonpayable",
      "type": "function"
    },
    {
      "inputs": [
        {
          "internalType": "address",
          "name": "newOwner",
          "type": "address"
        }
      ],
      "name": "transferOwnership",
      "outputs": [],
      "stateMutability": "nonpayable",
      "type": "function"
    }
  ],
  "bytecode": "0x608060405234801561001057600080fd5b5061001a3361001f565b61006f565b600080546001600160a01b038381166001600160a01b0319831681178455604051919092169283917f8be0079c531659141344cd1fd0a4f28419497f9722a3daafe3b4186f6b6457e09190a35050565b610bd98061007e6000396000f3fe608060405234801561001057600080fd5b50600436106100b45760003560e01c806345788ce21161007157806345788ce21461016357806350fd73671461018e578063715018a6146101af5780638da5cb5b146101b9578063ab73e316146101ca578063f2fde38b146101dd57600080fd5b80630a3b0a4f146100b95780631907ebde146100e15780631f7b6d321461010157806321887c3d14610112578063225e25251461013d57806329092d0e14610150575b600080fd5b6100cc6100c7366004610975565b6101f0565b60405190151581526020015b60405180910390f35b6100f46100ef36600461099e565b610233565b6040516100d89190610a13565b6002546040519081526020016100d8565b6100cc610120366004610975565b6001600160a01b0316600090815260016020526040902054151590565b6100f461014b36600461099e565b61031c565b6100cc61015e366004610975565b6103fd565b610176610171366004610975565b610431565b6040516001600160a01b0390911681526020016100d8565b6101a161019c366004610a59565b610493565b6040516100d8929190610a7b565b6101b7610594565b005b6000546001600160a01b0316610176565b6101766101d8366004610975565b6105ca565b6101b76101eb366004610975565b610614565b600080546001600160a01b031633146102245760405162461bcd60e51b815260040161021b90610acc565b60405180910390fd5b61022d826106af565b92915050565b6000546060906001600160a01b031633146102605760405162461bcd60e51b815260040161021b90610acc565b818067ffffffffffffffff81111561027a5761027a610b01565b6040519080825280602002602001820160405280156102a3578160200160208202803683370190505b50915060005b81811015610314576102e08585838181106102c6576102c6610b17565b90506020020160208101906102db9190610975565b61078f565b8382815181106102f2576102f2610b17565b911515602092830291909101909101528061030c81610b43565b9150506102a9565b505092915050565b6000546060906001600160a01b031633146103495760405162461bcd60e51b815260040161021b90610acc565b818067ffffffffffffffff81111561036357610363610b01565b60405190808252806020026020018201604052801561038c578160200160208202803683370190505b50915060005b81811015610314576103c98585838181106103af576103af610b17565b90506020020160208101906103c49190610975565b6106af565b8382815181106103db576103db610b17565b91151560209283029190910190910152806103f581610b43565b915050610392565b600080546001600160a01b031633146104285760405162461bcd60e51b815260040161021b90610acc565b61022d8261078f565b6001600160a01b038116600090815260016020526040812054600281101561045a57600061048c565b60026104668183610b5e565b8154811061047657610476610b17565b6000918252602090912001546001600160a01b03165b9392505050565b600254606090600090806104a78587610b75565b106104b9576104b68582610b5e565b93505b6104c38486610b75565b91508367ffffffffffffffff8111156104de576104de610b01565b604051908082528060200260200182016040528015610507578160200160208202803683370190505b50925060005b8481101561058b5760026105218288610b75565b8154811061053157610531610b17565b9060005260206000200160009054906101000a90046001600160a01b031684828151811061056157610561610b17565b6001600160a01b03909216602092830291909101909101528061058381610b43565b91505061050d565b50509250929050565b6000546001600160a01b031633146105be5760405162461bcd60e51b815260040161021b90610acc565b6105c86000610925565b565b6001600160a01b03811660009081526001602081905260408220549081108015906105f6575060025481105b61060157600061048c565b6002818154811061047657610476610b17565b6000546001600160a01b0316331461063e5760405162461bcd60e51b815260040161021b90610acc565b6001600160a01b0381166106a35760405162461bcd60e51b815260206004820152602660248201527f4f776e61626c653a206e6577206f776e657220697320746865207a65726f206160448201526564647265737360d01b606482015260840161021b565b6106ac81610925565b50565b60006001600160a01b0382166106d85760405163e99d5ac560e01b815260040160405180910390fd5b6001600160a01b03821660009081526001602052604090205480156107005750600092915050565b60028054600180820183557f405787fa12a823e0f2b7631cc41b3ba8828b3321ca811111fa75cd3aa3bb5ace90910180546001600160a01b0319166001600160a01b03871690811790915591546000838152602092909252604080832091909155517fdcfefddfe354ab15def7a2a6a8758e2ad4100c920318c627db94e29d833e15679190a250600192915050565b60006001600160a01b0382166107b85760405163e99d5ac560e01b815260040160405180910390fd5b6001600160a01b038216600090815260016020526040902054806107df5750600092915050565b6001600160a01b0383166000908152600160208190526040822082905560028054909161080b91610b5e565b8154811061081b5761081b610b17565b600091825260209091200154600280546001600160a01b039092169250908061084657610846610b8d565b600082815260209020810160001990810180546001600160a01b03191690550190556001600160a01b03818116908516146108e7576001600160a01b038116600090815260016020819052604090912083905581906002906108a89085610b5e565b815481106108b8576108b8610b17565b9060005260206000200160006101000a8154816001600160a01b0302191690836001600160a01b031602179055505b6040516001600160a01b038516907f066a905b79c0121afe61e3a44e0b14b6bc1ec16d854cdba09efdfc9b6aa9af8190600090a25060019392505050565b600080546001600160a01b038381166001600160a01b0319831681178455604051919092169283917f8be0079c531659141344cd1fd0a4f28419497f9722a3daafe3b4186f6b6457e09190a35050565b60006020828403121561098757600080fd5b81356001600160a01b038116811461048c57600080fd5b600080602083850312156109b157600080fd5b823567ffffffffffffffff808211156109c957600080fd5b818501915085601f8301126109dd57600080fd5b8135818111156109ec57600080fd5b8660208260051b8501011115610a0157600080fd5b60209290920196919550909350505050565b6020808252825182820181905260009190848201906040850190845b81811015610a4d578351151583529284019291840191600101610a2f565b50909695505050505050565b60008060408385031215610a6c57600080fd5b50508035926020909101359150565b604080825283519082018190526000906020906060840190828701845b82811015610abd5781516001600160a01b031684529284019290840190600101610a98565b50505092019290925292915050565b6020808252818101527f4f776e61626c653a2063616c6c6572206973206e6f7420746865206f776e6572604082015260600190565b634e487b7160e01b600052604160045260246000fd5b634e487b7160e01b600052603260045260246000fd5b634e487b7160e01b600052601160045260246000fd5b6000600019821415610b5757610b57610b2d565b5060010190565b600082821015610b7057610b70610b2d565b500390565b60008219821115610b8857610b88610b2d565b500190565b634e487b7160e01b600052603160045260246000fdfea264697066735822122045cb0552c2bcaf2e2a3f729cc78f6fc14d52c75562ab8ee201df8fca2eaae61864736f6c634300080c0033",
  "linkReferences": {},
  "deployedLinkReferences": {}
}