{
  "_format": "hh-sol-artifact-1",
  "contractName": "TestOASMultiTransferReentrancy",
  "sourceName": "contracts/test/util/TestOASMultiTransferReentrancy.sol",
  "abi": [
    {
      "inputs": [],
      "name": "reason",
      "outputs": [
        {
          "internalType": "string",
          "name": "",
          "type": "string"
        }
      ],
      "stateMutability": "view",
      "type": "function"
    },
    {
      "stateMutability": "payable",
      "type": "receive"
    }
  ],
  "bytecode": "0x608060405234801561001057600080fd5b50610564806100206000396000f3fe6080604052600436106100225760003560e01c8063e134e33d146101c557600080fd5b366101c057333161002f57005b60408051600180825281830190925260009160208083019080368337505060408051600180825281830190925292935060009291506020808301908036833701905050905030826000815181106100885761008861032d565b60200260200101906001600160a01b031690816001600160a01b031681525050336001600160a01b031631816000815181106100c6576100c661032d565b602002602001018181525050600080336001600160a01b031663ffc3a76960e01b85856040516024016100fa929190610343565b60408051601f198184030181529181526020820180516001600160e01b03166001600160e01b031990941693909317909252905161013891906103f7565b6000604051808303816000865af19150503d8060008114610175576040519150601f19603f3d011682016040523d82523d6000602084013e61017a565b606091505b5091509150811561018b5750505050005b600481019050808060200190518101906101a59190610413565b80516101b99160009160209091019061027e565b5050505050005b600080fd5b3480156101d157600080fd5b506101da6101f0565b6040516101e791906104c0565b60405180910390f35b600080546101fd906104f3565b80601f0160208091040260200160405190810160405280929190818152602001828054610229906104f3565b80156102765780601f1061024b57610100808354040283529160200191610276565b820191906000526020600020905b81548152906001019060200180831161025957829003601f168201915b505050505081565b82805461028a906104f3565b90600052602060002090601f0160209004810192826102ac57600085556102f2565b82601f106102c557805160ff19168380011785556102f2565b828001600101855582156102f2579182015b828111156102f25782518255916020019190600101906102d7565b506102fe929150610302565b5090565b5b808211156102fe5760008155600101610303565b634e487b7160e01b600052604160045260246000fd5b634e487b7160e01b600052603260045260246000fd5b604080825283519082018190526000906020906060840190828701845b828110156103855781516001600160a01b031684529284019290840190600101610360565b5050508381038285015284518082528583019183019060005b818110156103ba5783518352928401929184019160010161039e565b5090979650505050505050565b60005b838110156103e25781810151838201526020016103ca565b838111156103f1576000848401525b50505050565b600082516104098184602087016103c7565b9190910192915050565b60006020828403121561042557600080fd5b815167ffffffffffffffff8082111561043d57600080fd5b818401915084601f83011261045157600080fd5b81518181111561046357610463610317565b604051601f8201601f19908116603f0116810190838211818310171561048b5761048b610317565b816040528281528760208487010111156104a457600080fd5b6104b58360208301602088016103c7565b979650505050505050565b60208152600082518060208401526104df8160408501602087016103c7565b601f01601f19169190910160400192915050565b600181811c9082168061050757607f821691505b6020821081141561052857634e487b7160e01b600052602260045260246000fd5b5091905056fea2646970667358221220b6be5b4c3e362f51bd42d150f69d5a060fec2f1bbf7604783ef8711b2c00e70864736f6c634300080c0033",
  "linkReferences": {},
  "deployedLinkReferences": {}
}