{
  "_format": "hh-sol-artifact-1",
  "contractName": "WOAS",
  "sourceName": "contracts/token/WOAS.sol",
  "abi": [
    {
      "inputs": [],
      "stateMutability": "nonpayable",
      "type": "constructor"
    },
    {
      "anonymous": false,
      "inputs": [
        {
          "indexed": true,
          "internalType": "address",
          "name": "owner",
          "type": "address"
        },
        {
          "indexed": true,
          "internalType": "address",
          "name": "spender",
          "type": "address"
        },
        {
          "indexed": false,
          "internalType": "uint256",
          "name": "value",
          "type": "uint256"
        }
      ],
      "name": "Approval",
      "type": "event"
    },
    {
      "anonymous": false,
      "inputs": [
        {
          "indexed": true,
          "internalType": "address",
          "name": "sender",
          "type": "address"
        },
        {
          "indexed": false,
          "internalType": "uint256",
          "name": "amount",
          "type": "uint256"
        }
      ],
      "name": "Deposit",
      "type": "event"
    },
    {
      "anonymous": false,
      "inputs": [
        {
          "indexed": true,
          "internalType": "address",
          "name": "from",
          "type": "address"
        },
        {
          "indexed": true,
          "internalType": "address",
          "name": "to",
          "type": "address"
        },
        {
          "indexed": false,
          "internalType": "uint256",
          "name": "value",
          "type": "uint256"
        }
      ],
      "name": "Transfer",
      "type": "event"
    },
    {
      "anonymous": false,
      "inputs": [
        {
          "indexed": true,
          "internalType": "address",
          "name": "recipient",
          "type": "address"
        },
        {
          "indexed": false,
          "internalType": "uint256",
          "name": "amount",
          "type": "uint256"
        }
      ],
      "name": "Withdrawal",
      "type": "event"
    },
    {
      "inputs": [
        {
          "internalType": "address",
          "name": "owner",
          "type": "address"
        },
        {
          "internalType": "address",
          "name": "spender",
          "type": "address"
        }
      ],
      "name": "allowance",
      "outputs": [
        {
          "internalType": "uint256",
          "name": "",
          "type": "uint256"
        }
      ],
      "stateMutability": "view",
      "type": "function"
    },
    {
      "inputs": [
        {
          "internalType": "address",
          "name": "spender",
          "type": "address"
        },
        {
          "internalType": "uint256",
          "name": "amount",
          "type": "uint256"
        }
      ],
      "name": "approve",
      "outputs": [
        {
          "internalType": "bool",
          "name": "",
          "type": "bool"
        }
      ],
      "stateMutability": "nonpayable",
      "type": "function"
    },
    {
      "inputs": [
        {
          "internalType": "address",
          "name": "account",
          "type": "address"
        }
      ],
      "name": "balanceOf",
      "outputs": [
        {
          "internalType": "uint256",
          "name": "",
          "type": "uint256"
        }
      ],
      "stateMutability": "view",
      "type": "function"
    },
    {
      "inputs": [],
      "name": "decimals",
      "outputs": [
        {
          "internalType": "uint8",
          "name": "",
          "type": "uint8"
        }
      ],
      "stateMutability": "view",
      "type": "function"
    },
    {
      "inputs": [
        {
          "internalType": "address",
          "name": "spender",
          "type": "address"
        },
        {
          "internalType": "uint256",
          "name": "subtractedValue",
          "type": "uint256"
        }
      ],
      "name": "decreaseAllowance",
      "outputs": [
        {
          "internalType": "bool",
          "name": "",
          "type": "bool"
        }
      ],
      "stateMutability": "nonpayable",
      "type": "function"
    },
    {
      "inputs": [],
      "name": "deposit",
      "outputs": [],
      "stateMutability": "payable",
      "type": "function"
    },
    {
      "inputs": [
        {
          "internalType": "address",
          "name": "spender",
          "type": "address"
        },
        {
          "internalType": "uint256",
          "name": "addedValue",
          "type": "uint256"
        }
      ],
      "name": "increaseAllowance",
      "outputs": [
        {
          "internalType": "bool",
          "name": "",
          "type": "bool"
        }
      ],
      "stateMutability": "nonpayable",
      "type": "function"
    },
    {
      "inputs": [],
      "name": "name",
      "outputs": [
        {
          "internalType": "string",
          "name": "",
          "type": "string"
        }
      ],
      "stateMutability": "view",
      "type": "function"
    },
    {
      "inputs": [],
      "name": "symbol",
      "outputs": [
        {
          "internalType": "string",
          "name": "",
          "type": "string"
        }
      ],
      "stateMutability": "view",
      "type": "function"
    },
    {
      "inputs": [],
      "name": "totalSupply",
      "outputs": [
        {
          "internalType": "uint256",
          "name": "",
          "type": "uint256"
        }
      ],
      "stateMutability": "view",
      "type": "function"
    },
    {
      "inputs": [
        {
          "internalType": "address",
          "name": "to",
          "type": "address"
        },
        {
          "internalType": "uint256",
          "name": "amount",
          "type": "uint256"
        }
      ],
      "name": "transfer",
      "outputs": [
        {
          "internalType": "bool",
          "name": "",
          "type": "bool"
        }
      ],
      "stateMutability": "nonpayable",
      "type": "function"
    },
    {
      "inputs": [
        {
          "internalType": "address[]",
          "name": "tos",
          "type": "address[]"
        },
        {
          "internalType": "uint256[]",
          "name": "amounts",
          "type": "uint256[]"
        }
      ],
      "name": "transfer",
      "outputs": [
        {
          "internalType": "bool",
          "name": "",
          "type": "bool"
        }
      ],
      "stateMutability": "nonpayable",
      "type": "function"
    },
    {
      "inputs": [
        {
          "internalType": "address",
          "name": "from",
          "type": "address"
        },
        {
          "internalType": "address",
          "name": "to",
          "type": "address"
        },
        {
          "internalType": "uint256",
          "name": "amount",
          "type": "uint256"
        }
      ],
      "name": "transferFrom",
      "outputs": [
        {
          "internalType": "bool",
          "name": "",
          "type": "bool"
        }
      ],
      "stateMutability": "nonpayable",
      "type": "function"
    },
    {
      "inputs": [
        {
          "internalType": "address[]",
          "name": "froms",
          "type": "address[]"
        },
        {
          "internalType": "address[]",
          "name": "tos",
          "type": "address[]"
        },
        {
          "internalType": "uint256[]",
          "name": "amounts",
          "type": "uint256[]"
        }
      ],
      "name": "transferFrom",
      "outputs": [
        {
          "internalType": "bool",
          "name": "",
          "type": "bool"
        }
      ],
      "stateMutability": "nonpayable",
      "type": "function"
    },
    {
      "inputs": [
        {
          "internalType": "uint256",
          "name": "amount",
          "type": "uint256"
        },
        {
          "internalType": "address",
          "name": "recipient",
          "type": "address"
        }
      ],
      "name": "withdraw",
      "outputs": [],
      "stateMutability": "nonpayable",
      "type": "function"
    },
    {
      "inputs": [
        {
          "internalType": "uint256",
          "name": "amount",
          "type": "uint256"
        }
      ],
      "name": "withdraw",
      "outputs": [],
      "stateMutability": "nonpayable",
      "type": "function"
    }
  ],
  "bytecode": "0x60806040523480156200001157600080fd5b50604080518082018252600b81526a57726170706564204f415360a81b602080830191825283518085019094526004845263574f415360e01b908401528151919291620000619160039162000080565b5080516200007790600490602084019062000080565b50505062000163565b8280546200008e9062000126565b90600052602060002090601f016020900481019282620000b25760008555620000fd565b82601f10620000cd57805160ff1916838001178555620000fd565b82800160010185558215620000fd579182015b82811115620000fd578251825591602001919060010190620000e0565b506200010b9291506200010f565b5090565b5b808211156200010b576000815560010162000110565b600181811c908216806200013b57607f821691505b602082108114156200015d57634e487b7160e01b600052602260045260246000fd5b50919050565b6112c680620001736000396000f3fe6080604052600436106100f25760003560e01c806370a082311161008a578063d0e30db011610059578063d0e30db01461029a578063dd62ed3e146102a2578063f94a138b146102e8578063ffc3a7691461030857600080fd5b806370a082311461020f57806395d89b4114610245578063a457c2d71461025a578063a9059cbb1461027a57600080fd5b806323b872dd116100c657806323b872dd146101935780632e1a7d4d146101b3578063313ce567146101d357806339509351146101ef57600080fd5b8062f714ce146100f757806306fdde0314610119578063095ea7b31461014457806318160ddd14610174575b600080fd5b34801561010357600080fd5b50610117610112366004610e6f565b610328565b005b34801561012557600080fd5b5061012e610336565b60405161013b9190610e9b565b60405180910390f35b34801561015057600080fd5b5061016461015f366004610ef0565b6103c8565b604051901515815260200161013b565b34801561018057600080fd5b506002545b60405190815260200161013b565b34801561019f57600080fd5b506101646101ae366004610f1a565b6103e0565b3480156101bf57600080fd5b506101176101ce366004610f56565b610404565b3480156101df57600080fd5b506040516012815260200161013b565b3480156101fb57600080fd5b5061016461020a366004610ef0565b610411565b34801561021b57600080fd5b5061018561022a366004610f6f565b6001600160a01b031660009081526020819052604090205490565b34801561025157600080fd5b5061012e610450565b34801561026657600080fd5b50610164610275366004610ef0565b61045f565b34801561028657600080fd5b50610164610295366004610ef0565b6104f6565b610117610504565b3480156102ae57600080fd5b506101856102bd366004610f91565b6001600160a01b03918216600090815260016020908152604080832093909416825291909152205490565b3480156102f457600080fd5b506101646103033660046110f3565b610586565b34801561031457600080fd5b5061016461032336600461117b565b61066f565b610332828261072e565b5050565b606060038054610345906111df565b80601f0160208091040260200160405190810160405280929190818152602001828054610371906111df565b80156103be5780601f10610393576101008083540402835291602001916103be565b820191906000526020600020905b8154815290600101906020018083116103a157829003601f168201915b5050505050905090565b6000336103d68185856108a9565b5060019392505050565b6000336103ee8582856109ce565b6103f9858585610a60565b506001949350505050565b61040e813361072e565b50565b3360008181526001602090815260408083206001600160a01b03871684529091528120549091906103d6908290869061044b908790611230565b6108a9565b606060048054610345906111df565b3360008181526001602090815260408083206001600160a01b0387168452909152812054909190838110156104e95760405162461bcd60e51b815260206004820152602560248201527f45524332303a2064656372656173656420616c6c6f77616e63652062656c6f77604482015264207a65726f60d81b60648201526084015b60405180910390fd5b6103f982868684036108a9565b6000336103d6818585610a60565b600034116105455760405162461bcd60e51b815260206004820152600e60248201526d3b30b63ab29034b9903d32b9379760911b60448201526064016104e0565b61054f3334610c2e565b60405134815233907fe1fffcc4923d04b559f4d29a8bfc6cda04eb5b0d3c460751c2402c5c5cc9109c9060200160405180910390a2565b60008251845114801561059a575081518351145b6105fa5760405162461bcd60e51b815260206004820152602b60248201527f574f41533a2062756c6b207472616e7366657246726f6d2061726773206d757360448201526a7420626520657175616c7360a81b60648201526084016104e0565b60005b84518110156103f95761065c85828151811061061b5761061b611248565b602002602001015185838151811061063557610635611248565b602002602001015185848151811061064f5761064f611248565b60200260200101516103e0565b50806106678161125e565b9150506105fd565b600081518351146106d25760405162461bcd60e51b815260206004820152602760248201527f574f41533a2062756c6b207472616e736665722061726773206d75737420626560448201526620657175616c7360c81b60648201526084016104e0565b3360005b84518110156103f95761071c828683815181106106f5576106f5611248565b602002602001015186848151811061070f5761070f611248565b6020026020010151610a60565b806107268161125e565b9150506106d6565b600082116107705760405162461bcd60e51b815260206004820152600f60248201526e30b6b7bab73a1034b9903d32b9379760891b60448201526064016104e0565b336000908152602081905260409020548211156107bd5760405162461bcd60e51b815260206004820152600b60248201526a1bdd995c88185b5bdd5b9d60aa1b60448201526064016104e0565b6107c73383610d0d565b6000816001600160a01b03168360405160006040518083038185875af1925050503d8060008114610814576040519150601f19603f3d011682016040523d82523d6000602084013e610819565b606091505b50509050806108615760405162461bcd60e51b815260206004820152601460248201527327a0a9903a3930b739b332b9103330b4b632b21760611b60448201526064016104e0565b816001600160a01b03167f7fcf532c15f0a6db0bd6d0e038bea71d30d808c7d98cb3bf7268a95bf5081b658460405161089c91815260200190565b60405180910390a2505050565b6001600160a01b03831661090b5760405162461bcd60e51b8152602060048201526024808201527f45524332303a20617070726f76652066726f6d20746865207a65726f206164646044820152637265737360e01b60648201526084016104e0565b6001600160a01b03821661096c5760405162461bcd60e51b815260206004820152602260248201527f45524332303a20617070726f766520746f20746865207a65726f206164647265604482015261737360f01b60648201526084016104e0565b6001600160a01b0383811660008181526001602090815260408083209487168084529482529182902085905590518481527f8c5be1e5ebec7d5bd14f71427d1e84f3dd0314c0f7b2291e5b200ac8c7c3b92591015b60405180910390a3505050565b6001600160a01b038381166000908152600160209081526040808320938616835292905220546000198114610a5a5781811015610a4d5760405162461bcd60e51b815260206004820152601d60248201527f45524332303a20696e73756666696369656e7420616c6c6f77616e636500000060448201526064016104e0565b610a5a84848484036108a9565b50505050565b6001600160a01b038316610ac45760405162461bcd60e51b815260206004820152602560248201527f45524332303a207472616e736665722066726f6d20746865207a65726f206164604482015264647265737360d81b60648201526084016104e0565b6001600160a01b038216610b265760405162461bcd60e51b815260206004820152602360248201527f45524332303a207472616e7366657220746f20746865207a65726f206164647260448201526265737360e81b60648201526084016104e0565b6001600160a01b03831660009081526020819052604090205481811015610b9e5760405162461bcd60e51b815260206004820152602660248201527f45524332303a207472616e7366657220616d6f756e7420657863656564732062604482015265616c616e636560d01b60648201526084016104e0565b6001600160a01b03808516600090815260208190526040808220858503905591851681529081208054849290610bd5908490611230565b92505081905550826001600160a01b0316846001600160a01b03167fddf252ad1be2c89b69c2b068fc378daa952ba7f163c4a11628f55a4df523b3ef84604051610c2191815260200190565b60405180910390a3610a5a565b6001600160a01b038216610c845760405162461bcd60e51b815260206004820152601f60248201527f45524332303a206d696e7420746f20746865207a65726f20616464726573730060448201526064016104e0565b8060026000828254610c969190611230565b90915550506001600160a01b03821660009081526020819052604081208054839290610cc3908490611230565b90915550506040518181526001600160a01b038316906000907fddf252ad1be2c89b69c2b068fc378daa952ba7f163c4a11628f55a4df523b3ef9060200160405180910390a35050565b6001600160a01b038216610d6d5760405162461bcd60e51b815260206004820152602160248201527f45524332303a206275726e2066726f6d20746865207a65726f206164647265736044820152607360f81b60648201526084016104e0565b6001600160a01b03821660009081526020819052604090205481811015610de15760405162461bcd60e51b815260206004820152602260248201527f45524332303a206275726e20616d6f756e7420657863656564732062616c616e604482015261636560f01b60648201526084016104e0565b6001600160a01b0383166000908152602081905260408120838303905560028054849290610e10908490611279565b90915550506040518281526000906001600160a01b038516907fddf252ad1be2c89b69c2b068fc378daa952ba7f163c4a11628f55a4df523b3ef906020016109c1565b80356001600160a01b0381168114610e6a57600080fd5b919050565b60008060408385031215610e8257600080fd5b82359150610e9260208401610e53565b90509250929050565b600060208083528351808285015260005b81811015610ec857858101830151858201604001528201610eac565b81811115610eda576000604083870101525b50601f01601f1916929092016040019392505050565b60008060408385031215610f0357600080fd5b610f0c83610e53565b946020939093013593505050565b600080600060608486031215610f2f57600080fd5b610f3884610e53565b9250610f4660208501610e53565b9150604084013590509250925092565b600060208284031215610f6857600080fd5b5035919050565b600060208284031215610f8157600080fd5b610f8a82610e53565b9392505050565b60008060408385031215610fa457600080fd5b610fad83610e53565b9150610e9260208401610e53565b634e487b7160e01b600052604160045260246000fd5b604051601f8201601f1916810167ffffffffffffffff81118282101715610ffa57610ffa610fbb565b604052919050565b600067ffffffffffffffff82111561101c5761101c610fbb565b5060051b60200190565b600082601f83011261103757600080fd5b8135602061104c61104783611002565b610fd1565b82815260059290921b8401810191818101908684111561106b57600080fd5b8286015b8481101561108d5761108081610e53565b835291830191830161106f565b509695505050505050565b600082601f8301126110a957600080fd5b813560206110b961104783611002565b82815260059290921b840181019181810190868411156110d857600080fd5b8286015b8481101561108d57803583529183019183016110dc565b60008060006060848603121561110857600080fd5b833567ffffffffffffffff8082111561112057600080fd5b61112c87838801611026565b9450602086013591508082111561114257600080fd5b61114e87838801611026565b9350604086013591508082111561116457600080fd5b5061117186828701611098565b9150509250925092565b6000806040838503121561118e57600080fd5b823567ffffffffffffffff808211156111a657600080fd5b6111b286838701611026565b935060208501359150808211156111c857600080fd5b506111d585828601611098565b9150509250929050565b600181811c908216806111f357607f821691505b6020821081141561121457634e487b7160e01b600052602260045260246000fd5b50919050565b634e487b7160e01b600052601160045260246000fd5b600082198211156112435761124361121a565b500190565b634e487b7160e01b600052603260045260246000fd5b60006000198214156112725761127261121a565b5060010190565b60008282101561128b5761128b61121a565b50039056fea26469706673582212205d1f5233387daece3b2968a83b7cd384cae4d4841cd290dc7ca0817609fd9c5c64736f6c634300080c0033",
  "linkReferences": {},
  "deployedLinkReferences": {}
}