{
  "_format": "hh-sol-artifact-1",
  "contractName": "NFTBridgeSidechain",
  "sourceName": "contracts/nft-bridge/NFTBridgeSidechain.sol",
  "abi": [
    {
      "anonymous": false,
      "inputs": [
        {
          "indexed": true,
          "internalType": "uint256",
          "name": "mainchainId",
          "type": "uint256"
        },
        {
          "indexed": true,
          "internalType": "uint256",
          "name": "depositIndex",
          "type": "uint256"
        },
        {
          "indexed": false,
          "internalType": "address",
          "name": "mainchainERC721",
          "type": "address"
        },
        {
          "indexed": false,
          "internalType": "address",
          "name": "sidechainERC721",
          "type": "address"
        },
        {
          "indexed": false,
          "internalType": "uint256",
          "name": "tokenId",
          "type": "uint256"
        },
        {
          "indexed": false,
          "internalType": "address",
          "name": "mainFrom",
          "type": "address"
        },
        {
          "indexed": false,
          "internalType": "address",
          "name": "sideTo",
          "type": "address"
        }
      ],
      "name": "DepositeFailed",
      "type": "event"
    },
    {
      "anonymous": false,
      "inputs": [
        {
          "indexed": true,
          "internalType": "uint256",
          "name": "mainchainId",
          "type": "uint256"
        },
        {
          "indexed": true,
          "internalType": "uint256",
          "name": "depositIndex",
          "type": "uint256"
        },
        {
          "indexed": false,
          "internalType": "address",
          "name": "mainchainERC721",
          "type": "address"
        },
        {
          "indexed": false,
          "internalType": "address",
          "name": "sidechainERC721",
          "type": "address"
        },
        {
          "indexed": false,
          "internalType": "uint256",
          "name": "tokenId",
          "type": "uint256"
        },
        {
          "indexed": false,
          "internalType": "address",
          "name": "mainFrom",
          "type": "address"
        },
        {
          "indexed": false,
          "internalType": "address",
          "name": "sideTo",
          "type": "address"
        }
      ],
      "name": "DepositeFinalized",
      "type": "event"
    },
    {
      "anonymous": false,
      "inputs": [
        {
          "indexed": true,
          "internalType": "address",
          "name": "previousOwner",
          "type": "address"
        },
        {
          "indexed": true,
          "internalType": "address",
          "name": "newOwner",
          "type": "address"
        }
      ],
      "name": "OwnershipTransferred",
      "type": "event"
    },
    {
      "anonymous": false,
      "inputs": [
        {
          "indexed": true,
          "internalType": "uint256",
          "name": "mainchainId",
          "type": "uint256"
        },
        {
          "indexed": true,
          "internalType": "address",
          "name": "mainchainERC721",
          "type": "address"
        },
        {
          "indexed": false,
          "internalType": "address",
          "name": "sidechainERC721",
          "type": "address"
        },
        {
          "indexed": false,
          "internalType": "string",
          "name": "name",
          "type": "string"
        },
        {
          "indexed": false,
          "internalType": "string",
          "name": "symbol",
          "type": "string"
        }
      ],
      "name": "SidechainERC721Created",
      "type": "event"
    },
    {
      "anonymous": false,
      "inputs": [
        {
          "indexed": true,
          "internalType": "uint256",
          "name": "withdrawalIndex",
          "type": "uint256"
        },
        {
          "indexed": true,
          "internalType": "uint256",
          "name": "mainchainId",
          "type": "uint256"
        },
        {
          "indexed": true,
          "internalType": "uint256",
          "name": "depositIndex",
          "type": "uint256"
        },
        {
          "indexed": false,
          "internalType": "address",
          "name": "mainchainERC721",
          "type": "address"
        },
        {
          "indexed": false,
          "internalType": "address",
          "name": "sidechainERC721",
          "type": "address"
        },
        {
          "indexed": false,
          "internalType": "uint256",
          "name": "tokenId",
          "type": "uint256"
        },
        {
          "indexed": false,
          "internalType": "address",
          "name": "sideFrom",
          "type": "address"
        },
        {
          "indexed": false,
          "internalType": "address",
          "name": "mainTo",
          "type": "address"
        }
      ],
      "name": "WithdrawalInitiated",
      "type": "event"
    },
    {
      "anonymous": false,
      "inputs": [
        {
          "indexed": true,
          "internalType": "uint256",
          "name": "withdrawalIndex",
          "type": "uint256"
        },
        {
          "indexed": true,
          "internalType": "uint256",
          "name": "mainchainId",
          "type": "uint256"
        },
        {
          "indexed": true,
          "internalType": "uint256",
          "name": "depositIndex",
          "type": "uint256"
        }
      ],
      "name": "WithdrawalRejected",
      "type": "event"
    },
    {
      "inputs": [
        {
          "internalType": "uint256",
          "name": "sidechainId",
          "type": "uint256"
        },
        {
          "internalType": "uint256",
          "name": "mainchainId",
          "type": "uint256"
        },
        {
          "internalType": "address",
          "name": "mainchainERC721",
          "type": "address"
        },
        {
          "internalType": "string",
          "name": "name",
          "type": "string"
        },
        {
          "internalType": "string",
          "name": "symbol",
          "type": "string"
        }
      ],
      "name": "createSidechainERC721",
      "outputs": [],
      "stateMutability": "nonpayable",
      "type": "function"
    },
    {
      "inputs": [
        {
          "internalType": "uint256",
          "name": "sidechainId",
          "type": "uint256"
        },
        {
          "internalType": "uint256",
          "name": "mainchainId",
          "type": "uint256"
        },
        {
          "internalType": "uint256",
          "name": "depositIndex",
          "type": "uint256"
        },
        {
          "internalType": "address",
          "name": "mainchainERC721",
          "type": "address"
        },
        {
          "internalType": "uint256",
          "name": "tokenId",
          "type": "uint256"
        },
        {
          "internalType": "address",
          "name": "mainFrom",
          "type": "address"
        },
        {
          "internalType": "address",
          "name": "sideTo",
          "type": "address"
        }
      ],
      "name": "finalizeDeposit",
      "outputs": [],
      "stateMutability": "nonpayable",
      "type": "function"
    },
    {
      "inputs": [
        {
          "internalType": "uint256",
          "name": "mainchainId",
          "type": "uint256"
        },
        {
          "internalType": "address",
          "name": "mainchainERC721",
          "type": "address"
        }
      ],
      "name": "getSidechainERC721",
      "outputs": [
        {
          "internalType": "address",
          "name": "",
          "type": "address"
        }
      ],
      "stateMutability": "view",
      "type": "function"
    },
    {
      "inputs": [
        {
          "internalType": "uint256",
          "name": "withdrawalIndex",
          "type": "uint256"
        }
      ],
      "name": "getWithdrawalInfo",
      "outputs": [
        {
          "components": [
            {
              "internalType": "address",
              "name": "sidechainERC721",
              "type": "address"
            },
            {
              "internalType": "uint256",
              "name": "tokenId",
              "type": "uint256"
            },
            {
              "internalType": "address",
              "name": "sideFrom",
              "type": "address"
            },
            {
              "internalType": "bool",
              "name": "rejected",
              "type": "bool"
            }
          ],
          "internalType": "struct INFTBridgeSidechain.WithdrawalInfo",
          "name": "",
          "type": "tuple"
        }
      ],
      "stateMutability": "view",
      "type": "function"
    },
    {
      "inputs": [],
      "name": "owner",
      "outputs": [
        {
          "internalType": "address",
          "name": "",
          "type": "address"
        }
      ],
      "stateMutability": "view",
      "type": "function"
    },
    {
      "inputs": [
        {
          "internalType": "uint256",
          "name": "sidechainId",
          "type": "uint256"
        },
        {
          "internalType": "uint256",
          "name": "withdrawalIndex",
          "type": "uint256"
        }
      ],
      "name": "rejectWithdrawal",
      "outputs": [],
      "stateMutability": "nonpayable",
      "type": "function"
    },
    {
      "inputs": [],
      "name": "renounceOwnership",
      "outputs": [],
      "stateMutability": "nonpayable",
      "type": "function"
    },
    {
      "inputs": [
        {
          "internalType": "address",
          "name": "newOwner",
          "type": "address"
        }
      ],
      "name": "transferOwnership",
      "outputs": [],
      "stateMutability": "nonpayable",
      "type": "function"
    },
    {
      "inputs": [
        {
          "internalType": "uint256",
          "name": "sidechainId",
          "type": "uint256"
        },
        {
          "internalType": "address",
          "name": "newRelayer",
          "type": "address"
        }
      ],
      "name": "transferSidechainRelayer",
      "outputs": [],
      "stateMutability": "nonpayable",
      "type": "function"
    },
    {
      "inputs": [
        {
          "internalType": "address",
          "name": "sidechainERC721",
          "type": "address"
        },
        {
          "internalType": "uint256",
          "name": "tokenId",
          "type": "uint256"
        },
        {
          "internalType": "address",
          "name": "mainTo",
          "type": "address"
        }
      ],
      "name": "withdraw",
      "outputs": [],
      "stateMutability": "nonpayable",
      "type": "function"
    }
  ],
  "bytecode": "0x608060405234801561001057600080fd5b5061001a3361001f565b61006f565b600080546001600160a01b038381166001600160a01b0319831681178455604051919092169283917f8be0079c531659141344cd1fd0a4f28419497f9722a3daafe3b4186f6b6457e09190a35050565b61306b8061007e6000396000f3fe60806040523480156200001157600080fd5b5060043610620000ab5760003560e01c80638da5cb5b116200006e5780638da5cb5b146200015d578063aaf2686a1462000183578063c4005b88146200019a578063deecfd2514620001b1578063f2fde38b14620001c857600080fd5b80635dde889514620000b057806369328dec146200010c578063715018a614620001255780637d82ea33146200012f5780638d532b681462000146575b600080fd5b620000c7620000c136600462000cf7565b620001df565b6040805182516001600160a01b039081168252602080850151908301528383015116918101919091526060918201511515918101919091526080015b60405180910390f35b620001236200011d36600462000d27565b62000275565b005b620001236200050f565b620001236200014036600462000d6e565b6200054a565b620001236200015736600462000e4c565b620005a8565b6000546001600160a01b03165b6040516001600160a01b03909116815260200162000103565b620001236200019436600462000edf565b62000767565b62000123620001ab36600462000f58565b620009b3565b6200016a620001c236600462000d6e565b62000bce565b62000123620001d936600462000f7b565b62000bf7565b6040805160808101825260008082526020820181905291810182905260608101919091526004828154811062000219576200021962000fa2565b60009182526020918290206040805160808101825260039390930290910180546001600160a01b0390811684526001820154948401949094526002015492831690820152600160a01b90910460ff161515606082015292915050565b600080846001600160a01b031663cf518ea26040518163ffffffff1660e01b81526004016040805180830381865afa158015620002b6573d6000803e3d6000fd5b505050506040513d601f19601f82011682018060405250810190620002dc919062000fb8565b91509150620002ec828262000bce565b6001600160a01b0316856001600160a01b031614620003525760405162461bcd60e51b815260206004820152601760248201527f496e76616c69642073696465636861696e45524337323100000000000000000060448201526064015b60405180910390fd5b604051632770a7eb60e21b8152336004820152602481018590526001600160a01b03861690639dc29fac90604401600060405180830381600087803b1580156200039b57600080fd5b505af1158015620003b0573d6000803e3d6000fd5b5050604080516080810182526001600160a01b03808a1680835260208084018b8152338587019081526000606087018181526004805460018181018355828552995160039182027f8a35acfbc15ff81a39ae7d344fd709f28e8600b4aa8c65c6b64bfe7fe36bd19b81018054928c166001600160a01b03199093169290921790915595517f8a35acfbc15ff81a39ae7d344fd709f28e8600b4aa8c65c6b64bfe7fe36bd19c87015593517f8a35acfbc15ff81a39ae7d344fd709f28e8600b4aa8c65c6b64bfe7fe36bd19d909501805492511515600160a01b026001600160a81b03199093169590981694909417179095559284529181528483208b84529052929020549154919350859250620004c79162000fe0565b7f4cc6992aea841d0a99282ffc7cc107232ef1f765bb4475673a312c2108697835848989338a6040516200050095949392919062001006565b60405180910390a45050505050565b6000546001600160a01b031633146200053c5760405162461bcd60e51b8152600401620003499062001038565b62000548600062000c99565b565b6000546001600160a01b03163314620005775760405162461bcd60e51b8152600401620003499062001038565b468214620005995760405162461bcd60e51b815260040162000349906200106d565b620005a48162000bf7565b5050565b6000546001600160a01b03163314620005d55760405162461bcd60e51b8152600401620003499062001038565b468514620005f75760405162461bcd60e51b815260040162000349906200106d565b84841415620006395760405162461bcd60e51b815260206004820152600d60248201526c14d85b594818da185a5b881a59609a1b604482015260640162000349565b600062000647858562000bce565b6001600160a01b0316146200069f5760405162461bcd60e51b815260206004820152601e60248201527f53696465436861696e45524337323120616c7265616479206578697374730000604482015260640162000349565b600084848484604051620006b39062000ce9565b620006c29493929190620010ec565b604051809103906000f080158015620006df573d6000803e3d6000fd5b5060008681526001602090815260408083206001600160a01b03898116808652919093529281902080546001600160a01b03191692851692909217909155519192509086907ff1fb153cf533b852f8611581636d122dd1927cdaef0f525a3920bc26408884c890620007579085908890889062001137565b60405180910390a3505050505050565b6000546001600160a01b03163314620007945760405162461bcd60e51b8152600401620003499062001038565b468714620007b65760405162461bcd60e51b815260040162000349906200106d565b6000620007c4878662000bce565b90506001600160a01b0381166200081f5785877f6ebd577af6794be1290592fcb0dcf7fa31de20c078453f294e4d73762fc45ea187848888886040516200081095949392919062001006565b60405180910390a350620009aa565b600087815260026020908152604080832089845290915290205460ff16156200087f5760405162461bcd60e51b8152602060048201526011602482015270105b1c9958591e4819195c1bdcda5d1959607a1b604482015260640162000349565b60008781526002602090815260408083208984528252808320805460ff191660011790556001600160a01b038481168085526003845282852089865290935292819020899055516340c10f1960e01b8152918416600483015260248201869052906340c10f1990604401600060405180830381600087803b1580156200090457600080fd5b505af192505050801562000916575060015b620009645785877f6ebd577af6794be1290592fcb0dcf7fa31de20c078453f294e4d73762fc45ea187848888886040516200095695949392919062001006565b60405180910390a3620009a8565b85877f54f87d115f1e4ab6ad1098a4ebd6707298df41f12022cdab9748e70a50181a7287848888886040516200099f95949392919062001006565b60405180910390a35b505b50505050505050565b6000546001600160a01b03163314620009e05760405162461bcd60e51b8152600401620003499062001038565b46821462000a025760405162461bcd60e51b815260040162000349906200106d565b60006004828154811062000a1a5762000a1a62000fa2565b906000526020600020906003020190508060020160149054906101000a900460ff161562000a7e5760405162461bcd60e51b815260206004820152601060248201526f105b1c9958591e481c995a9958dd195960821b604482015260640162000349565b600281018054600160a01b60ff60a01b19821617909155815460018301546040516340c10f1960e01b81526001600160a01b03938416600482015260248101919091529116906340c10f1990604401600060405180830381600087803b15801562000ae857600080fd5b505af115801562000afd573d6000803e3d6000fd5b50508254604080516367a8c75160e11b81528151600095506001600160a01b03909316935063cf518ea292600480830193928290030181865afa15801562000b49573d6000803e3d6000fd5b505050506040513d601f19601f8201168201806040525081019062000b6f919062000fb8565b5082546001600160a01b031660009081526003602090815260408083206001870154845290915280822054905192935091839186917f038ab8b2cfdcb2c027d5ea52f1347fc6982508679d30315ce29b71da63f7ec539190a450505050565b60009182526001602090815260408084206001600160a01b039384168552909152909120541690565b6000546001600160a01b0316331462000c245760405162461bcd60e51b8152600401620003499062001038565b6001600160a01b03811662000c8b5760405162461bcd60e51b815260206004820152602660248201527f4f776e61626c653a206e6577206f776e657220697320746865207a65726f206160448201526564647265737360d01b606482015260840162000349565b62000c968162000c99565b50565b600080546001600160a01b038381166001600160a01b0319831681178455604051919092169283917f8be0079c531659141344cd1fd0a4f28419497f9722a3daafe3b4186f6b6457e09190a35050565b611eba806200117c83390190565b60006020828403121562000d0a57600080fd5b5035919050565b6001600160a01b038116811462000c9657600080fd5b60008060006060848603121562000d3d57600080fd5b833562000d4a8162000d11565b925060208401359150604084013562000d638162000d11565b809150509250925092565b6000806040838503121562000d8257600080fd5b82359150602083013562000d968162000d11565b809150509250929050565b634e487b7160e01b600052604160045260246000fd5b600082601f83011262000dc957600080fd5b813567ffffffffffffffff8082111562000de75762000de762000da1565b604051601f8301601f19908116603f0116810190828211818310171562000e125762000e1262000da1565b8160405283815286602085880101111562000e2c57600080fd5b836020870160208301376000602085830101528094505050505092915050565b600080600080600060a0868803121562000e6557600080fd5b8535945060208601359350604086013562000e808162000d11565b9250606086013567ffffffffffffffff8082111562000e9e57600080fd5b62000eac89838a0162000db7565b9350608088013591508082111562000ec357600080fd5b5062000ed28882890162000db7565b9150509295509295909350565b600080600080600080600060e0888a03121562000efb57600080fd5b873596506020880135955060408801359450606088013562000f1d8162000d11565b93506080880135925060a088013562000f368162000d11565b915060c088013562000f488162000d11565b8091505092959891949750929550565b6000806040838503121562000f6c57600080fd5b50508035926020909101359150565b60006020828403121562000f8e57600080fd5b813562000f9b8162000d11565b9392505050565b634e487b7160e01b600052603260045260246000fd5b6000806040838503121562000fcc57600080fd5b82519150602083015162000d968162000d11565b6000828210156200100157634e487b7160e01b600052601160045260246000fd5b500390565b6001600160a01b0395861681529385166020850152604084019290925283166060830152909116608082015260a00190565b6020808252818101527f4f776e61626c653a2063616c6c6572206973206e6f7420746865206f776e6572604082015260600190565b602080825260159082015274125b9d985b1a59081cda59194818da185a5b881a59605a1b604082015260600190565b6000815180845260005b81811015620010c457602081850181015186830182015201620010a6565b81811115620010d7576000602083870101525b50601f01601f19169290920160200192915050565b8481526001600160a01b038416602082015260806040820181905260009062001118908301856200109c565b82810360608401526200112c81856200109c565b979650505050505050565b6001600160a01b03841681526060602082018190526000906200115d908301856200109c565b82810360408401526200117181856200109c565b969550505050505056fe60806040523480156200001157600080fd5b5060405162001eba38038062001eba833981016040819052620000349162000276565b8151829082906200004d90600090602085019062000103565b5080516200006390600190602084019062000103565b505050620000806200007a620000ad60201b60201c565b620000b1565b5050600b91909155600c80546001600160a01b0319166001600160a01b0390921691909117905562000348565b3390565b600a80546001600160a01b038381166001600160a01b0319831681179093556040519116919082907f8be0079c531659141344cd1fd0a4f28419497f9722a3daafe3b4186f6b6457e090600090a35050565b82805462000111906200030b565b90600052602060002090601f01602090048101928262000135576000855562000180565b82601f106200015057805160ff191683800117855562000180565b8280016001018555821562000180579182015b828111156200018057825182559160200191906001019062000163565b506200018e92915062000192565b5090565b5b808211156200018e576000815560010162000193565b634e487b7160e01b600052604160045260246000fd5b600082601f830112620001d157600080fd5b81516001600160401b0380821115620001ee57620001ee620001a9565b604051601f8301601f19908116603f01168101908282118183101715620002195762000219620001a9565b816040528381526020925086838588010111156200023657600080fd5b600091505b838210156200025a57858201830151818301840152908201906200023b565b838211156200026c5760008385830101525b9695505050505050565b600080600080608085870312156200028d57600080fd5b845160208601519094506001600160a01b0381168114620002ad57600080fd5b60408601519093506001600160401b0380821115620002cb57600080fd5b620002d988838901620001bf565b93506060870151915080821115620002f057600080fd5b50620002ff87828801620001bf565b91505092959194509250565b600181811c908216806200032057607f821691505b602082108114156200034257634e487b7160e01b600052602260045260246000fd5b50919050565b611b6280620003586000396000f3fe608060405234801561001057600080fd5b50600436106101425760003560e01c806370a08231116100b8578063a22cb4651161007c578063a22cb4651461028f578063b88d4fde146102a2578063c87b56dd146102b5578063cf518ea2146102c8578063e985e9c5146102eb578063f2fde38b1461032757600080fd5b806370a0823114610248578063715018a61461025b5780638da5cb5b1461026357806395d89b41146102745780639dc29fac1461027c57600080fd5b806323b872dd1161010a57806323b872dd146101d65780632f745c59146101e957806340c10f19146101fc57806342842e0e1461020f5780634f6ccce7146102225780636352211e1461023557600080fd5b806301ffc9a71461014757806306fdde031461016f578063081812fc14610184578063095ea7b3146101af57806318160ddd146101c4575b600080fd5b61015a610155366004611627565b61033a565b60405190151581526020015b60405180910390f35b61017761034b565b604051610166919061169c565b6101976101923660046116af565b6103dd565b6040516001600160a01b039091168152602001610166565b6101c26101bd3660046116e4565b610477565b005b6008545b604051908152602001610166565b6101c26101e436600461170e565b61058d565b6101c86101f73660046116e4565b6105be565b6101c261020a3660046116e4565b610654565b6101c261021d36600461170e565b6106cf565b6101c86102303660046116af565b6106ea565b6101976102433660046116af565b61077d565b6101c861025636600461174a565b6107f4565b6101c261087b565b600a546001600160a01b0316610197565b6101776108b1565b6101c261028a3660046116e4565b6108c0565b6101c261029d366004611765565b61092e565b6101c26102b03660046117b7565b61093d565b6101776102c33660046116af565b610975565b600b54600c54604080519283526001600160a01b03909116602083015201610166565b61015a6102f9366004611893565b6001600160a01b03918216600090815260056020908152604080832093909416825291909152205460ff1690565b6101c261033536600461174a565b610a5d565b600061034582610af8565b92915050565b60606000805461035a906118c6565b80601f0160208091040260200160405190810160405280929190818152602001828054610386906118c6565b80156103d35780601f106103a8576101008083540402835291602001916103d3565b820191906000526020600020905b8154815290600101906020018083116103b657829003601f168201915b5050505050905090565b6000818152600260205260408120546001600160a01b031661045b5760405162461bcd60e51b815260206004820152602c60248201527f4552433732313a20617070726f76656420717565727920666f72206e6f6e657860448201526b34b9ba32b73a103a37b5b2b760a11b60648201526084015b60405180910390fd5b506000908152600460205260409020546001600160a01b031690565b60006104828261077d565b9050806001600160a01b0316836001600160a01b031614156104f05760405162461bcd60e51b815260206004820152602160248201527f4552433732313a20617070726f76616c20746f2063757272656e74206f776e656044820152603960f91b6064820152608401610452565b336001600160a01b038216148061050c575061050c81336102f9565b61057e5760405162461bcd60e51b815260206004820152603860248201527f4552433732313a20617070726f76652063616c6c6572206973206e6f74206f7760448201527f6e6572206e6f7220617070726f76656420666f7220616c6c00000000000000006064820152608401610452565b6105888383610b1d565b505050565b6105973382610b8b565b6105b35760405162461bcd60e51b815260040161045290611901565b610588838383610c82565b60006105c9836107f4565b821061062b5760405162461bcd60e51b815260206004820152602b60248201527f455243373231456e756d657261626c653a206f776e657220696e646578206f7560448201526a74206f6620626f756e647360a81b6064820152608401610452565b506001600160a01b03919091166000908152600660209081526040808320938352929052205490565b600a546001600160a01b0316331461067e5760405162461bcd60e51b815260040161045290611952565b6106888282610e29565b816001600160a01b03167f1221d1d62fd29aa3348cad8b3fb92894338bb05a8bbcd4684f17fd50daee0daf826040516106c391815260200190565b60405180910390a25050565b6105888383836040518060200160405280600081525061093d565b60006106f560085490565b82106107585760405162461bcd60e51b815260206004820152602c60248201527f455243373231456e756d657261626c653a20676c6f62616c20696e646578206f60448201526b7574206f6620626f756e647360a01b6064820152608401610452565b6008828154811061076b5761076b611987565b90600052602060002001549050919050565b6000818152600260205260408120546001600160a01b0316806103455760405162461bcd60e51b815260206004820152602960248201527f4552433732313a206f776e657220717565727920666f72206e6f6e657869737460448201526832b73a103a37b5b2b760b91b6064820152608401610452565b60006001600160a01b03821661085f5760405162461bcd60e51b815260206004820152602a60248201527f4552433732313a2062616c616e636520717565727920666f7220746865207a65604482015269726f206164647265737360b01b6064820152608401610452565b506001600160a01b031660009081526003602052604090205490565b600a546001600160a01b031633146108a55760405162461bcd60e51b815260040161045290611952565b6108af6000610f77565b565b60606001805461035a906118c6565b600a546001600160a01b031633146108ea5760405162461bcd60e51b815260040161045290611952565b6108f381610fc9565b816001600160a01b03167f68afa1ea27a056cd862274b88c407fd8a8a4fcbdfb3cf170805aa3f444380643826040516106c391815260200190565b610939338383611070565b5050565b6109473383610b8b565b6109635760405162461bcd60e51b815260040161045290611901565b61096f8484848461113f565b50505050565b6000818152600260205260409020546060906001600160a01b03166109f45760405162461bcd60e51b815260206004820152602f60248201527f4552433732314d657461646174613a2055524920717565727920666f72206e6f60448201526e3732bc34b9ba32b73a103a37b5b2b760891b6064820152608401610452565b6000610a0b60408051602081019091526000815290565b90506000815111610a2b5760405180602001604052806000815250610a56565b80610a3584611172565b604051602001610a4692919061199d565b6040516020818303038152906040525b9392505050565b600a546001600160a01b03163314610a875760405162461bcd60e51b815260040161045290611952565b6001600160a01b038116610aec5760405162461bcd60e51b815260206004820152602660248201527f4f776e61626c653a206e6577206f776e657220697320746865207a65726f206160448201526564647265737360d01b6064820152608401610452565b610af581610f77565b50565b60006001600160e01b0319821663780e9d6360e01b1480610345575061034582611270565b600081815260046020526040902080546001600160a01b0319166001600160a01b0384169081179091558190610b528261077d565b6001600160a01b03167f8c5be1e5ebec7d5bd14f71427d1e84f3dd0314c0f7b2291e5b200ac8c7c3b92560405160405180910390a45050565b6000818152600260205260408120546001600160a01b0316610c045760405162461bcd60e51b815260206004820152602c60248201527f4552433732313a206f70657261746f7220717565727920666f72206e6f6e657860448201526b34b9ba32b73a103a37b5b2b760a11b6064820152608401610452565b6000610c0f8361077d565b9050806001600160a01b0316846001600160a01b03161480610c4a5750836001600160a01b0316610c3f846103dd565b6001600160a01b0316145b80610c7a57506001600160a01b0380821660009081526005602090815260408083209388168352929052205460ff165b949350505050565b826001600160a01b0316610c958261077d565b6001600160a01b031614610cf95760405162461bcd60e51b815260206004820152602560248201527f4552433732313a207472616e736665722066726f6d20696e636f72726563742060448201526437bbb732b960d91b6064820152608401610452565b6001600160a01b038216610d5b5760405162461bcd60e51b8152602060048201526024808201527f4552433732313a207472616e7366657220746f20746865207a65726f206164646044820152637265737360e01b6064820152608401610452565b610d668383836112c0565b610d71600082610b1d565b6001600160a01b0383166000908152600360205260408120805460019290610d9a9084906119e2565b90915550506001600160a01b0382166000908152600360205260408120805460019290610dc89084906119f9565b909155505060008181526002602052604080822080546001600160a01b0319166001600160a01b0386811691821790925591518493918716917fddf252ad1be2c89b69c2b068fc378daa952ba7f163c4a11628f55a4df523b3ef91a4505050565b6001600160a01b038216610e7f5760405162461bcd60e51b815260206004820181905260248201527f4552433732313a206d696e7420746f20746865207a65726f20616464726573736044820152606401610452565b6000818152600260205260409020546001600160a01b031615610ee45760405162461bcd60e51b815260206004820152601c60248201527f4552433732313a20746f6b656e20616c7265616479206d696e746564000000006044820152606401610452565b610ef0600083836112c0565b6001600160a01b0382166000908152600360205260408120805460019290610f199084906119f9565b909155505060008181526002602052604080822080546001600160a01b0319166001600160a01b03861690811790915590518392907fddf252ad1be2c89b69c2b068fc378daa952ba7f163c4a11628f55a4df523b3ef908290a45050565b600a80546001600160a01b038381166001600160a01b0319831681179093556040519116919082907f8be0079c531659141344cd1fd0a4f28419497f9722a3daafe3b4186f6b6457e090600090a35050565b6000610fd48261077d565b9050610fe2816000846112c0565b610fed600083610b1d565b6001600160a01b03811660009081526003602052604081208054600192906110169084906119e2565b909155505060008281526002602052604080822080546001600160a01b0319169055518391906001600160a01b038416907fddf252ad1be2c89b69c2b068fc378daa952ba7f163c4a11628f55a4df523b3ef908390a45050565b816001600160a01b0316836001600160a01b031614156110d25760405162461bcd60e51b815260206004820152601960248201527f4552433732313a20617070726f766520746f2063616c6c6572000000000000006044820152606401610452565b6001600160a01b03838116600081815260056020908152604080832094871680845294825291829020805460ff191686151590811790915591519182527f17307eab39ab6107e8899845ad3d59bd9653f200f220920489ca2b5937696c31910160405180910390a3505050565b61114a848484610c82565b611156848484846112cb565b61096f5760405162461bcd60e51b815260040161045290611a11565b6060816111965750506040805180820190915260018152600360fc1b602082015290565b8160005b81156111c057806111aa81611a63565b91506111b99050600a83611a94565b915061119a565b60008167ffffffffffffffff8111156111db576111db6117a1565b6040519080825280601f01601f191660200182016040528015611205576020820181803683370190505b5090505b8415610c7a5761121a6001836119e2565b9150611227600a86611aa8565b6112329060306119f9565b60f81b81838151811061124757611247611987565b60200101906001600160f81b031916908160001a905350611269600a86611a94565b9450611209565b60006001600160e01b031982166380ac58cd60e01b14806112a157506001600160e01b03198216635b5e139f60e01b145b8061034557506301ffc9a760e01b6001600160e01b0319831614610345565b6105888383836113c9565b60006001600160a01b0384163b156113be57604051630a85bd0160e11b81526001600160a01b0385169063150b7a029061130f903390899088908890600401611abc565b6020604051808303816000875af192505050801561134a575060408051601f3d908101601f1916820190925261134791810190611af9565b60015b6113a4573d808015611378576040519150601f19603f3d011682016040523d82523d6000602084013e61137d565b606091505b50805161139c5760405162461bcd60e51b815260040161045290611a11565b805181602001fd5b6001600160e01b031916630a85bd0160e11b149050610c7a565b506001949350505050565b6001600160a01b0383166114245761141f81600880546000838152600960205260408120829055600182018355919091527ff3f7a9fe364faab93b216da50a3214154f22a0a2b415b23a84c8169e8b636ee30155565b611447565b816001600160a01b0316836001600160a01b031614611447576114478382611481565b6001600160a01b03821661145e576105888161151e565b826001600160a01b0316826001600160a01b0316146105885761058882826115cd565b6000600161148e846107f4565b61149891906119e2565b6000838152600760205260409020549091508082146114eb576001600160a01b03841660009081526006602090815260408083208584528252808320548484528184208190558352600790915290208190555b5060009182526007602090815260408084208490556001600160a01b039094168352600681528383209183525290812055565b600854600090611530906001906119e2565b6000838152600960205260408120546008805493945090928490811061155857611558611987565b90600052602060002001549050806008838154811061157957611579611987565b60009182526020808320909101929092558281526009909152604080822084905585825281205560088054806115b1576115b1611b16565b6001900381819060005260206000200160009055905550505050565b60006115d8836107f4565b6001600160a01b039093166000908152600660209081526040808320868452825280832085905593825260079052919091209190915550565b6001600160e01b031981168114610af557600080fd5b60006020828403121561163957600080fd5b8135610a5681611611565b60005b8381101561165f578181015183820152602001611647565b8381111561096f5750506000910152565b60008151808452611688816020860160208601611644565b601f01601f19169290920160200192915050565b602081526000610a566020830184611670565b6000602082840312156116c157600080fd5b5035919050565b80356001600160a01b03811681146116df57600080fd5b919050565b600080604083850312156116f757600080fd5b611700836116c8565b946020939093013593505050565b60008060006060848603121561172357600080fd5b61172c846116c8565b925061173a602085016116c8565b9150604084013590509250925092565b60006020828403121561175c57600080fd5b610a56826116c8565b6000806040838503121561177857600080fd5b611781836116c8565b91506020830135801515811461179657600080fd5b809150509250929050565b634e487b7160e01b600052604160045260246000fd5b600080600080608085870312156117cd57600080fd5b6117d6856116c8565b93506117e4602086016116c8565b925060408501359150606085013567ffffffffffffffff8082111561180857600080fd5b818701915087601f83011261181c57600080fd5b81358181111561182e5761182e6117a1565b604051601f8201601f19908116603f01168101908382118183101715611856576118566117a1565b816040528281528a602084870101111561186f57600080fd5b82602086016020830137600060208483010152809550505050505092959194509250565b600080604083850312156118a657600080fd5b6118af836116c8565b91506118bd602084016116c8565b90509250929050565b600181811c908216806118da57607f821691505b602082108114156118fb57634e487b7160e01b600052602260045260246000fd5b50919050565b60208082526031908201527f4552433732313a207472616e736665722063616c6c6572206973206e6f74206f6040820152701ddb995c881b9bdc88185c1c1c9bdd9959607a1b606082015260800190565b6020808252818101527f4f776e61626c653a2063616c6c6572206973206e6f7420746865206f776e6572604082015260600190565b634e487b7160e01b600052603260045260246000fd5b600083516119af818460208801611644565b8351908301906119c3818360208801611644565b01949350505050565b634e487b7160e01b600052601160045260246000fd5b6000828210156119f4576119f46119cc565b500390565b60008219821115611a0c57611a0c6119cc565b500190565b60208082526032908201527f4552433732313a207472616e7366657220746f206e6f6e20455243373231526560408201527131b2b4bb32b91034b6b83632b6b2b73a32b960711b606082015260800190565b6000600019821415611a7757611a776119cc565b5060010190565b634e487b7160e01b600052601260045260246000fd5b600082611aa357611aa3611a7e565b500490565b600082611ab757611ab7611a7e565b500690565b6001600160a01b0385811682528416602082015260408101839052608060608201819052600090611aef90830184611670565b9695505050505050565b600060208284031215611b0b57600080fd5b8151610a5681611611565b634e487b7160e01b600052603160045260246000fdfea26469706673582212203b4a3151a8d4ef7d3334498fd50af76c2afa42d8881223bb4caadf0e2659a47064736f6c634300080c0033a26469706673582212205a132c661e0ff5680c0a80ed1fb5e1c079d5c2760be938605d249f62e4067bde64736f6c634300080c0033",
  "linkReferences": {},
  "deployedLinkReferences": {}
}