{
  "_format": "hh-sol-artifact-1",
  "contractName": "PrecompileBLSVerify",
  "sourceName": "contracts/test/PrecompileBLSVerify.sol",
  "abi": [
    {
      "stateMutability": "nonpayable",
      "type": "fallback"
    },
    {
      "inputs": [],
      "name": "flgRevert",
      "outputs": [
        {
          "internalType": "bool",
          "name": "",
          "type": "bool"
        }
      ],
      "stateMutability": "view",
      "type": "function"
    },
    {
      "inputs": [],
      "name": "returnValue",
      "outputs": [
        {
          "internalType": "bytes",
          "name": "",
          "type": "bytes"
        }
      ],
      "stateMutability": "view",
      "type": "function"
    },
    {
      "inputs": [
        {
          "internalType": "bool",
          "name": "returnValue_",
          "type": "bool"
        },
        {
          "internalType": "bool",
          "name": "flgRevert_",
          "type": "bool"
        }
      ],
      "name": "set",
      "outputs": [],
      "stateMutability": "nonpayable",
      "type": "function"
    }
  ],
  "bytecode": "0x608060405234801561001057600080fd5b506103fc806100206000396000f3fe608060405234801561001057600080fd5b50600436106100415760003560e01c8063990c8f791461012d578063a919d6c31461014b578063f907191a14610168575b600154600090369060609060ff16156100955760405162461bcd60e51b8152602060048201526012602482015271195e1958dd5d1a5bdb881c995d995c9d195960721b604482015260640160405180910390fd5b600080546100a2906102ee565b80601f01602080910402602001604051908101604052809291908181526020018280546100ce906102ee565b801561011b5780601f106100f05761010080835404028352916020019161011b565b820191906000526020600020905b8154815290600101906020018083116100fe57829003601f168201915b50505050509050915050805190602001f35b61013561017d565b6040516101429190610329565b60405180910390f35b6001546101589060ff1681565b6040519015158152602001610142565b61017b610176366004610393565b61020b565b005b6000805461018a906102ee565b80601f01602080910402602001604051908101604052809291908181526020018280546101b6906102ee565b80156102035780601f106101d857610100808354040283529160200191610203565b820191906000526020600020905b8154815290600101906020018083116101e657829003601f168201915b505050505081565b60405182151560f81b602082015260210160405160208183030381529060405260009080519060200190610240929190610255565b506001805460ff191691151591909117905550565b828054610261906102ee565b90600052602060002090601f01602090048101928261028357600085556102c9565b82601f1061029c57805160ff19168380011785556102c9565b828001600101855582156102c9579182015b828111156102c95782518255916020019190600101906102ae565b506102d59291506102d9565b5090565b5b808211156102d557600081556001016102da565b600181811c9082168061030257607f821691505b6020821081141561032357634e487b7160e01b600052602260045260246000fd5b50919050565b600060208083528351808285015260005b818110156103565785810183015185820160400152820161033a565b81811115610368576000604083870101525b50601f01601f1916929092016040019392505050565b8035801515811461038e57600080fd5b919050565b600080604083850312156103a657600080fd5b6103af8361037e565b91506103bd6020840161037e565b9050925092905056fea26469706673582212208b6b0034a485148ca9113512a9873b356375bc63812c72fe5777c1b0bfd1a5c064736f6c634300080c0033",
  "linkReferences": {},
  "deployedLinkReferences": {}
}