{
  "_format": "hh-sol-artifact-1",
  "contractName": "Allowlist",
  "sourceName": "contracts/lib/Allowlist.sol",
  "abi": [
    {
      "anonymous": false,
      "inputs": [
        {
          "indexed": false,
          "internalType": "address",
          "name": "_address",
          "type": "address"
        }
      ],
      "name": "AllowlistAdded",
      "type": "event"
    },
    {
      "anonymous": false,
      "inputs": [
        {
          "indexed": false,
          "internalType": "address",
          "name": "_address",
          "type": "address"
        }
      ],
      "name": "AllowlistRemoved",
      "type": "event"
    },
    {
      "anonymous": false,
      "inputs": [
        {
          "indexed": true,
          "internalType": "address",
          "name": "previousOwner",
          "type": "address"
        },
        {
          "indexed": true,
          "internalType": "address",
          "name": "newOwner",
          "type": "address"
        }
      ],
      "name": "OwnershipTransferred",
      "type": "event"
    },
    {
      "inputs": [
        {
          "internalType": "address",
          "name": "_address",
          "type": "address"
        }
      ],
      "name": "addAddress",
      "outputs": [],
      "stateMutability": "nonpayable",
      "type": "function"
    },
    {
      "inputs": [
        {
          "internalType": "address",
          "name": "_address",
          "type": "address"
        }
      ],
      "name": "containsAddress",
      "outputs": [
        {
          "internalType": "bool",
          "name": "",
          "type": "bool"
        }
      ],
      "stateMutability": "view",
      "type": "function"
    },
    {
      "inputs": [],
      "name": "getAllowlist",
      "outputs": [
        {
          "internalType": "address[]",
          "name": "",
          "type": "address[]"
        }
      ],
      "stateMutability": "view",
      "type": "function"
    },
    {
      "inputs": [],
      "name": "owner",
      "outputs": [
        {
          "internalType": "address",
          "name": "",
          "type": "address"
        }
      ],
      "stateMutability": "view",
      "type": "function"
    },
    {
      "inputs": [
        {
          "internalType": "address",
          "name": "_address",
          "type": "address"
        }
      ],
      "name": "removeAddress",
      "outputs": [],
      "stateMutability": "nonpayable",
      "type": "function"
    },
    {
      "inputs": [],
      "name": "renounceOwnership",
      "outputs": [],
      "stateMutability": "nonpayable",
      "type": "function"
    },
    {
      "inputs": [
        {
          "internalType": "address",
          "name": "newOwner",
          "type": "address"
        }
      ],
      "name": "transferOwnership",
      "outputs": [],
      "stateMutability": "nonpayable",
      "type": "function"
    }
  ],
  "bytecode": "0x608060405234801561001057600080fd5b5061001a3361001f565b61006f565b600080546001600160a01b038381166001600160a01b0319831681178455604051919092169283917f8be0079c531659141344cd1fd0a4f28419497f9722a3daafe3b4186f6b6457e09190a35050565b6107448061007e6000396000f3fe608060405234801561001057600080fd5b506004361061007d5760003560e01c8063715018a61161005b578063715018a6146100d25780638da5cb5b146100da578063c5eff3d0146100f5578063f2fde38b1461010a57600080fd5b8063322433e31461008257806338eada1c146100aa5780634ba79dfe146100bf575b600080fd5b61009561009036600461060b565b61011d565b60405190151581526020015b60405180910390f35b6100bd6100b836600461060b565b610167565b005b6100bd6100cd36600461060b565b6102c7565b6100bd610488565b6000546040516001600160a01b0390911681526020016100a1565b6100fd6104be565b6040516100a1919061063b565b6100bd61011836600461060b565b610520565b6000806101326000546001600160a01b031690565b6001600160a01b0316141561014957506001919050565b506001600160a01b0316600090815260026020526040902054151590565b6000546001600160a01b0316331461019a5760405162461bcd60e51b815260040161019190610688565b60405180910390fd5b6001600160a01b0381166101e05760405162461bcd60e51b815260206004820152600d60248201526c3d32b9379030b2323932b9b99760991b6044820152606401610191565b6001600160a01b038116600090815260026020526040902054156102365760405162461bcd60e51b815260206004820152600d60248201526c185b1c9958591e481859191959609a1b6044820152606401610191565b6001805480820182557fb10e2d527612073b26eecdfd717e6a320cf44b4afac2b0732d9fcbe2b7fa0cf60180546001600160a01b0319166001600160a01b038416908117909155905460008281526002602090815260409182902092909255519182527f28f54e0b69489ad5fd27625e6fcff58faff5da96f8a077d08bb09af25bb41d54910160405180910390a150565b6000546001600160a01b031633146102f15760405162461bcd60e51b815260040161019190610688565b6001600160a01b03811660009081526002602052604090205461034a5760405162461bcd60e51b81526020600482015260116024820152701859191c995cdcc81b9bdd08199bdd5b99607a1b6044820152606401610191565b60018054908111156103f9576001600160a01b03821660009081526002602052604081205490600161037c81856106bd565b8154811061038c5761038c6106e2565b6000918252602090912001546001600160a01b031690508060016103b081856106bd565b815481106103c0576103c06106e2565b600091825260208083209190910180546001600160a01b0319166001600160a01b03948516179055929091168152600290915260409020555b6001600160a01b0382166000908152600260205260408120556001805480610423576104236106f8565b6000828152602090819020600019908301810180546001600160a01b03191690559091019091556040516001600160a01b03841681527f458680f79aa9de0ae06344287a3bd8ec6179faa05252e9af81ae734d6b4dc6ba910160405180910390a15050565b6000546001600160a01b031633146104b25760405162461bcd60e51b815260040161019190610688565b6104bc60006105bb565b565b6060600180548060200260200160405190810160405280929190818152602001828054801561051657602002820191906000526020600020905b81546001600160a01b031681526001909101906020018083116104f8575b5050505050905090565b6000546001600160a01b0316331461054a5760405162461bcd60e51b815260040161019190610688565b6001600160a01b0381166105af5760405162461bcd60e51b815260206004820152602660248201527f4f776e61626c653a206e6577206f776e657220697320746865207a65726f206160448201526564647265737360d01b6064820152608401610191565b6105b8816105bb565b50565b600080546001600160a01b038381166001600160a01b0319831681178455604051919092169283917f8be0079c531659141344cd1fd0a4f28419497f9722a3daafe3b4186f6b6457e09190a35050565b60006020828403121561061d57600080fd5b81356001600160a01b038116811461063457600080fd5b9392505050565b6020808252825182820181905260009190848201906040850190845b8181101561067c5783516001600160a01b031683529284019291840191600101610657565b50909695505050505050565b6020808252818101527f4f776e61626c653a2063616c6c6572206973206e6f7420746865206f776e6572604082015260600190565b6000828210156106dd57634e487b7160e01b600052601160045260246000fd5b500390565b634e487b7160e01b600052603260045260246000fd5b634e487b7160e01b600052603160045260246000fdfea2646970667358221220784aa589779542b9be2f3998448364b0bb6561821f1b5de0c3eb9e18fa83f11364736f6c634300080c0033",
  "linkReferences": {},
  "deployedLinkReferences": {}
}