{
  "_format": "hh-sol-artifact-1",
  "contractName": "Allowlist",
  "sourceName": "contracts/lib/Allowlist.sol",
  "abi": [
    {
      "anonymous": false,
      "inputs": [
        {
          "indexed": false,
          "internalType": "address",
          "name": "_address",
          "type": "address"
        }
      ],
      "name": "AllowlistAdded",
      "type": "event"
    },
    {
      "anonymous": false,
      "inputs": [
        {
          "indexed": false,
          "internalType": "address",
          "name": "_address",
          "type": "address"
        }
      ],
      "name": "AllowlistRemoved",
      "type": "event"
    },
    {
      "anonymous": false,
      "inputs": [
        {
          "indexed": true,
          "internalType": "address",
          "name": "previousOwner",
          "type": "address"
        },
        {
          "indexed": true,
          "internalType": "address",
          "name": "newOwner",
          "type": "address"
        }
      ],
      "name": "OwnershipTransferred",
      "type": "event"
    },
    {
      "inputs": [
        {
          "internalType": "address",
          "name": "_address",
          "type": "address"
        }
      ],
      "name": "addAddress",
      "outputs": [],
      "stateMutability": "nonpayable",
      "type": "function"
    },
    {
      "inputs": [
        {
          "internalType": "address",
          "name": "_address",
          "type": "address"
        }
      ],
      "name": "containsAddress",
      "outputs": [
        {
          "internalType": "bool",
          "name": "",
          "type": "bool"
        }
      ],
      "stateMutability": "view",
      "type": "function"
    },
    {
      "inputs": [],
      "name": "getAllowlist",
      "outputs": [
        {
          "internalType": "address[]",
          "name": "",
          "type": "address[]"
        }
      ],
      "stateMutability": "view",
      "type": "function"
    },
    {
      "inputs": [],
      "name": "owner",
      "outputs": [
        {
          "internalType": "address",
          "name": "",
          "type": "address"
        }
      ],
      "stateMutability": "view",
      "type": "function"
    },
    {
      "inputs": [
        {
          "internalType": "address",
          "name": "_address",
          "type": "address"
        }
      ],
      "name": "removeAddress",
      "outputs": [],
      "stateMutability": "nonpayable",
      "type": "function"
    },
    {
      "inputs": [],
      "name": "renounceOwnership",
      "outputs": [],
      "stateMutability": "nonpayable",
      "type": "function"
    },
    {
      "inputs": [
        {
          "internalType": "address",
          "name": "newOwner",
          "type": "address"
        }
      ],
      "name": "transferOwnership",
      "outputs": [],
      "stateMutability": "nonpayable",
      "type": "function"
    }
  ],
  "bytecode": "0x608060405234801561001057600080fd5b5061001a3361001f565b61006f565b600080546001600160a01b038381166001600160a01b0319831681178455604051919092169283917f8be0079c531659141344cd1fd0a4f28419497f9722a3daafe3b4186f6b6457e09190a35050565b61089e8061007e6000396000f3fe608060405234801561001057600080fd5b506004361061007d5760003560e01c8063715018a61161005b578063715018a6146100d25780638da5cb5b146100da578063c5eff3d0146100f5578063f2fde38b1461010a57600080fd5b8063322433e31461008257806338eada1c146100aa5780634ba79dfe146100bf575b600080fd5b61009561009036600461072a565b61011d565b60405190151581526020015b60405180910390f35b6100bd6100b836600461072a565b6101b3565b005b6100bd6100cd36600461072a565b61030a565b6100bd61053d565b6000546040516001600160a01b0390911681526020016100a1565b6100fd610573565b6040516100a1919061075a565b6100bd61011836600461072a565b6105d5565b6000806101326000546001600160a01b031690565b6001600160a01b0316141561014957506001919050565b6101ad60018054806020026020016040519081016040528092919081815260200182805480156101a257602002820191906000526020600020905b81546001600160a01b03168152600190910190602001808311610184575b505050505083610670565b92915050565b6000546001600160a01b031633146101e65760405162461bcd60e51b81526004016101dd906107a7565b60405180910390fd5b61024a600180548060200260200160405190810160405280929190818152602001828054801561023f57602002820191906000526020600020905b81546001600160a01b03168152600190910190602001808311610221575b505050505082610670565b156102875760405162461bcd60e51b815260206004820152600d60248201526c185b1c9958591e481859191959609a1b60448201526064016101dd565b6001805480820182556000919091527fb10e2d527612073b26eecdfd717e6a320cf44b4afac2b0732d9fcbe2b7fa0cf60180546001600160a01b0319166001600160a01b0383169081179091556040519081527f28f54e0b69489ad5fd27625e6fcff58faff5da96f8a077d08bb09af25bb41d549060200160405180910390a150565b6000546001600160a01b031633146103345760405162461bcd60e51b81526004016101dd906107a7565b610396600180548060200260200160405190810160405280929190818152602001828054801561023f576020028201919060005260206000209081546001600160a01b0316815260019091019060200180831161022157505050505082610670565b6103d65760405162461bcd60e51b81526020600482015260116024820152701859191c995cdcc81b9bdd08199bdd5b99607a1b60448201526064016101dd565b6001546000805b6103e86001846107f2565b8110156104c5578115801561042c5750836001600160a01b03166001828154811061041557610415610809565b6000918252602090912001546001600160a01b0316145b1561043657600191505b81156104b3576001610448828261081f565b8154811061045857610458610809565b600091825260209091200154600180546001600160a01b03909216918390811061048457610484610809565b9060005260206000200160006101000a8154816001600160a01b0302191690836001600160a01b031602179055505b806104bd81610837565b9150506103dd565b5060018054806104d7576104d7610852565b6000828152602090819020600019908301810180546001600160a01b03191690559091019091556040516001600160a01b03851681527f458680f79aa9de0ae06344287a3bd8ec6179faa05252e9af81ae734d6b4dc6ba910160405180910390a1505050565b6000546001600160a01b031633146105675760405162461bcd60e51b81526004016101dd906107a7565b61057160006106da565b565b606060018054806020026020016040519081016040528092919081815260200182805480156105cb57602002820191906000526020600020905b81546001600160a01b031681526001909101906020018083116105ad575b5050505050905090565b6000546001600160a01b031633146105ff5760405162461bcd60e51b81526004016101dd906107a7565b6001600160a01b0381166106645760405162461bcd60e51b815260206004820152602660248201527f4f776e61626c653a206e6577206f776e657220697320746865207a65726f206160448201526564647265737360d01b60648201526084016101dd565b61066d816106da565b50565b8151600090815b818110156106cf57836001600160a01b031685828151811061069b5761069b610809565b60200260200101516001600160a01b031614156106bd576001925050506101ad565b806106c781610837565b915050610677565b506000949350505050565b600080546001600160a01b038381166001600160a01b0319831681178455604051919092169283917f8be0079c531659141344cd1fd0a4f28419497f9722a3daafe3b4186f6b6457e09190a35050565b60006020828403121561073c57600080fd5b81356001600160a01b038116811461075357600080fd5b9392505050565b6020808252825182820181905260009190848201906040850190845b8181101561079b5783516001600160a01b031683529284019291840191600101610776565b50909695505050505050565b6020808252818101527f4f776e61626c653a2063616c6c6572206973206e6f7420746865206f776e6572604082015260600190565b634e487b7160e01b600052601160045260246000fd5b600082821015610804576108046107dc565b500390565b634e487b7160e01b600052603260045260246000fd5b60008219821115610832576108326107dc565b500190565b600060001982141561084b5761084b6107dc565b5060010190565b634e487b7160e01b600052603160045260246000fdfea26469706673582212208e72280b712c0c00215374d14ce9bf1b4e8454c1cb9f64873c89dad553c656d864736f6c63430008090033",
  "linkReferences": {},
  "deployedLinkReferences": {}
}